{
	"VDR.sol": {
		"VDR": {
			"abi": [
				{
					"inputs": [
						{
							"internalType": "string",
							"name": "",
							"type": "string"
						}
					],
					"name": "DIDs",
					"outputs": [
						{
							"internalType": "bool",
							"name": "exist",
							"type": "bool"
						},
						{
							"internalType": "address",
							"name": "pk",
							"type": "address"
						}
					],
					"stateMutability": "view",
					"type": "function"
				},
				{
					"inputs": [
						{
							"internalType": "string",
							"name": "issuer_did",
							"type": "string"
						},
						{
							"internalType": "string",
							"name": "cred_id",
							"type": "string"
						}
					],
					"name": "checkRevocation",
					"outputs": [
						{
							"internalType": "bool",
							"name": "",
							"type": "bool"
						}
					],
					"stateMutability": "view",
					"type": "function"
				},
				{
					"inputs": [
						{
							"internalType": "string",
							"name": "did",
							"type": "string"
						}
					],
					"name": "getDID",
					"outputs": [
						{
							"components": [
								{
									"internalType": "string",
									"name": "did",
									"type": "string"
								},
								{
									"internalType": "address",
									"name": "pk",
									"type": "address"
								},
								{
									"internalType": "string",
									"name": "methodType",
									"type": "string"
								},
								{
									"internalType": "string[]",
									"name": "context",
									"type": "string[]"
								}
							],
							"internalType": "struct VDR.DIDDoc",
							"name": "",
							"type": "tuple"
						}
					],
					"stateMutability": "view",
					"type": "function"
				},
				{
					"inputs": [
						{
							"internalType": "string",
							"name": "did",
							"type": "string"
						}
					],
					"name": "getIssuer",
					"outputs": [
						{
							"components": [
								{
									"internalType": "bool",
									"name": "exist",
									"type": "bool"
								},
								{
									"internalType": "string",
									"name": "methodType",
									"type": "string"
								},
								{
									"internalType": "string",
									"name": "pk",
									"type": "string"
								},
								{
									"internalType": "string[]",
									"name": "revocationList",
									"type": "string[]"
								}
							],
							"internalType": "struct VDR.validIssuer",
							"name": "",
							"type": "tuple"
						}
					],
					"stateMutability": "view",
					"type": "function"
				},
				{
					"inputs": [
						{
							"internalType": "string",
							"name": "",
							"type": "string"
						}
					],
					"name": "issuerData",
					"outputs": [
						{
							"internalType": "bool",
							"name": "exist",
							"type": "bool"
						},
						{
							"internalType": "string",
							"name": "methodType",
							"type": "string"
						},
						{
							"internalType": "string",
							"name": "pk",
							"type": "string"
						}
					],
					"stateMutability": "view",
					"type": "function"
				},
				{
					"inputs": [
						{
							"internalType": "string",
							"name": "did",
							"type": "string"
						}
					],
					"name": "registerDID",
					"outputs": [],
					"stateMutability": "nonpayable",
					"type": "function"
				},
				{
					"inputs": [
						{
							"internalType": "string",
							"name": "did",
							"type": "string"
						},
						{
							"internalType": "string",
							"name": "_methodType",
							"type": "string"
						},
						{
							"internalType": "string",
							"name": "pk",
							"type": "string"
						}
					],
					"name": "registerIssuer",
					"outputs": [],
					"stateMutability": "nonpayable",
					"type": "function"
				},
				{
					"inputs": [
						{
							"internalType": "string",
							"name": "did",
							"type": "string"
						}
					],
					"name": "removeIssuer",
					"outputs": [],
					"stateMutability": "nonpayable",
					"type": "function"
				},
				{
					"inputs": [
						{
							"internalType": "string",
							"name": "did",
							"type": "string"
						},
						{
							"internalType": "string",
							"name": "cred_id",
							"type": "string"
						}
					],
					"name": "revoke",
					"outputs": [],
					"stateMutability": "nonpayable",
					"type": "function"
				}
			],
			"devdoc": {
				"kind": "dev",
				"methods": {},
				"version": 1
			},
			"evm": {
				"assembly": "    /* \"VDR.sol\":63:2900  contract VDR {... */\n  mstore(0x40, 0x80)\n    /* \"VDR.sol\":399:583  string[] context = [... */\n  mload(0x40)\n  dup1\n  0x40\n  add\n  0x40\n  mstore\n  dup1\n  mload(0x40)\n  dup1\n  0x40\n  add\n  0x40\n  mstore\n  dup1\n  0x1c\n  dup2\n  mstore\n  0x20\n  add\n  0x68747470733a2f2f7777772e77332e6f72672f6e732f6469642f763100000000\n  dup2\n  mstore\n  pop\n  dup2\n  mstore\n  0x20\n  add\n  mload(0x40)\n  dup1\n  0xa0\n  add\n  0x40\n  mstore\n  dup1\n  0x6b\n  dup2\n  mstore\n  0x20\n  add\n  data_2dbe15983667d38612f29d60e89c44c231253a336c0f3a338dc72f798b5e563e\n  0x6b\n  swap2\n  codecopy\n  dup2\n  mstore\n  pop\n  0x00\n  swap1\n  0x02\n  tag_1\n  swap3\n  swap2\n  swap1\n  tag_2\n  jump\t// in\ntag_1:\n  pop\n    /* \"VDR.sol\":589:637  string methodType = \"Ed25519VerificationKey2020\" */\n  mload(0x40)\n  dup1\n  0x40\n  add\n  0x40\n  mstore\n  dup1\n  0x1a\n  dup2\n  mstore\n  0x20\n  add\n  0x45643235353139566572696669636174696f6e4b657932303230000000000000\n  dup2\n  mstore\n  pop\n  0x01\n  swap1\n  dup2\n  tag_3\n  swap2\n  swap1\n  tag_4\n  jump\t// in\ntag_3:\n  pop\n    /* \"VDR.sol\":63:2900  contract VDR {... */\n  callvalue\n  dup1\n  iszero\n  tag_5\n  jumpi\n  revert(0x00, 0x00)\ntag_5:\n  pop\n  jump(tag_6)\ntag_2:\n  dup3\n  dup1\n  sload\n  dup3\n  dup3\n  sstore\n  swap1\n  0x00\n  mstore\n  keccak256(0x00, 0x20)\n  swap1\n  dup2\n  add\n  swap3\n  dup3\n  iszero\n  tag_7\n  jumpi\n  swap2\n  0x20\n  mul\n  dup3\n  add\ntag_8:\n  dup3\n  dup2\n  gt\n  iszero\n  tag_9\n  jumpi\n  dup3\n  mload\n  dup3\n  swap1\n  dup2\n  tag_10\n  swap2\n  swap1\n  tag_4\n  jump\t// in\ntag_10:\n  pop\n  swap2\n  0x20\n  add\n  swap2\n  swap1\n  0x01\n  add\n  swap1\n  jump(tag_8)\ntag_9:\ntag_7:\n  pop\n  swap1\n  pop\n  tag_11\n  swap2\n  swap1\n  tag_12\n  jump\t// in\ntag_11:\n  pop\n  swap1\n  jump\t// out\ntag_12:\ntag_13:\n  dup1\n  dup3\n  gt\n  iszero\n  tag_14\n  jumpi\n  0x00\n  dup2\n  dup2\n  tag_15\n  swap2\n  swap1\n  tag_16\n  jump\t// in\ntag_15:\n  pop\n  0x01\n  add\n  jump(tag_13)\ntag_14:\n  pop\n  swap1\n  jump\t// out\ntag_16:\n  pop\n  dup1\n  sload\n  tag_17\n  swap1\n  tag_18\n  jump\t// in\ntag_17:\n  0x00\n  dup3\n  sstore\n  dup1\n  0x1f\n  lt\n  tag_20\n  jumpi\n  pop\n  jump(tag_19)\ntag_20:\n  0x1f\n  add\n  0x20\n  swap1\n  div\n  swap1\n  0x00\n  mstore\n  keccak256(0x00, 0x20)\n  swap1\n  dup2\n  add\n  swap1\n  tag_21\n  swap2\n  swap1\n  tag_22\n  jump\t// in\ntag_21:\ntag_19:\n  pop\n  jump\t// out\ntag_22:\ntag_23:\n  dup1\n  dup3\n  gt\n  iszero\n  tag_24\n  jumpi\n  0x00\n  dup2\n  0x00\n  swap1\n  sstore\n  pop\n  0x01\n  add\n  jump(tag_23)\ntag_24:\n  pop\n  swap1\n  jump\t// out\n    /* \"#utility.yul\":7:106   */\ntag_25:\n    /* \"#utility.yul\":59:65   */\n  0x00\n    /* \"#utility.yul\":93:98   */\n  dup2\n    /* \"#utility.yul\":87:99   */\n  mload\n    /* \"#utility.yul\":77:99   */\n  swap1\n  pop\n    /* \"#utility.yul\":7:106   */\n  swap2\n  swap1\n  pop\n  jump\t// out\n    /* \"#utility.yul\":112:292   */\ntag_26:\n    /* \"#utility.yul\":160:237   */\n  0x4e487b7100000000000000000000000000000000000000000000000000000000\n    /* \"#utility.yul\":157:158   */\n  0x00\n    /* \"#utility.yul\":150:238   */\n  mstore\n    /* \"#utility.yul\":257:261   */\n  0x41\n    /* \"#utility.yul\":254:255   */\n  0x04\n    /* \"#utility.yul\":247:262   */\n  mstore\n    /* \"#utility.yul\":281:285   */\n  0x24\n    /* \"#utility.yul\":278:279   */\n  0x00\n    /* \"#utility.yul\":271:286   */\n  revert\n    /* \"#utility.yul\":298:478   */\ntag_27:\n    /* \"#utility.yul\":346:423   */\n  0x4e487b7100000000000000000000000000000000000000000000000000000000\n    /* \"#utility.yul\":343:344   */\n  0x00\n    /* \"#utility.yul\":336:424   */\n  mstore\n    /* \"#utility.yul\":443:447   */\n  0x22\n    /* \"#utility.yul\":440:441   */\n  0x04\n    /* \"#utility.yul\":433:448   */\n  mstore\n    /* \"#utility.yul\":467:471   */\n  0x24\n    /* \"#utility.yul\":464:465   */\n  0x00\n    /* \"#utility.yul\":457:472   */\n  revert\n    /* \"#utility.yul\":484:804   */\ntag_18:\n    /* \"#utility.yul\":528:534   */\n  0x00\n    /* \"#utility.yul\":565:566   */\n  0x02\n    /* \"#utility.yul\":559:563   */\n  dup3\n    /* \"#utility.yul\":555:567   */\n  div\n    /* \"#utility.yul\":545:567   */\n  swap1\n  pop\n    /* \"#utility.yul\":612:613   */\n  0x01\n    /* \"#utility.yul\":606:610   */\n  dup3\n    /* \"#utility.yul\":602:614   */\n  and\n    /* \"#utility.yul\":633:651   */\n  dup1\n    /* \"#utility.yul\":623:704   */\n  tag_49\n  jumpi\n    /* \"#utility.yul\":689:693   */\n  0x7f\n    /* \"#utility.yul\":681:687   */\n  dup3\n    /* \"#utility.yul\":677:694   */\n  and\n    /* \"#utility.yul\":667:694   */\n  swap2\n  pop\n    /* \"#utility.yul\":623:704   */\ntag_49:\n    /* \"#utility.yul\":751:753   */\n  0x20\n    /* \"#utility.yul\":743:749   */\n  dup3\n    /* \"#utility.yul\":740:754   */\n  lt\n    /* \"#utility.yul\":720:738   */\n  dup2\n    /* \"#utility.yul\":717:755   */\n  sub\n    /* \"#utility.yul\":714:798   */\n  tag_50\n  jumpi\n    /* \"#utility.yul\":770:788   */\n  tag_51\n  tag_27\n  jump\t// in\ntag_51:\n    /* \"#utility.yul\":714:798   */\ntag_50:\n    /* \"#utility.yul\":535:804   */\n  pop\n    /* \"#utility.yul\":484:804   */\n  swap2\n  swap1\n  pop\n  jump\t// out\n    /* \"#utility.yul\":810:951   */\ntag_28:\n    /* \"#utility.yul\":859:863   */\n  0x00\n    /* \"#utility.yul\":882:885   */\n  dup2\n    /* \"#utility.yul\":874:885   */\n  swap1\n  pop\n    /* \"#utility.yul\":905:908   */\n  dup2\n    /* \"#utility.yul\":902:903   */\n  0x00\n    /* \"#utility.yul\":895:909   */\n  mstore\n    /* \"#utility.yul\":939:943   */\n  0x20\n    /* \"#utility.yul\":936:937   */\n  0x00\n    /* \"#utility.yul\":926:944   */\n  keccak256\n    /* \"#utility.yul\":918:944   */\n  swap1\n  pop\n    /* \"#utility.yul\":810:951   */\n  swap2\n  swap1\n  pop\n  jump\t// out\n    /* \"#utility.yul\":957:1050   */\ntag_29:\n    /* \"#utility.yul\":994:1000   */\n  0x00\n    /* \"#utility.yul\":1041:1043   */\n  0x20\n    /* \"#utility.yul\":1036:1038   */\n  0x1f\n    /* \"#utility.yul\":1029:1034   */\n  dup4\n    /* \"#utility.yul\":1025:1039   */\n  add\n    /* \"#utility.yul\":1021:1044   */\n  div\n    /* \"#utility.yul\":1011:1044   */\n  swap1\n  pop\n    /* \"#utility.yul\":957:1050   */\n  swap2\n  swap1\n  pop\n  jump\t// out\n    /* \"#utility.yul\":1056:1163   */\ntag_30:\n    /* \"#utility.yul\":1100:1108   */\n  0x00\n    /* \"#utility.yul\":1150:1155   */\n  dup3\n    /* \"#utility.yul\":1144:1148   */\n  dup3\n    /* \"#utility.yul\":1140:1156   */\n  shl\n    /* \"#utility.yul\":1119:1156   */\n  swap1\n  pop\n    /* \"#utility.yul\":1056:1163   */\n  swap3\n  swap2\n  pop\n  pop\n  jump\t// out\n    /* \"#utility.yul\":1169:1562   */\ntag_31:\n    /* \"#utility.yul\":1238:1244   */\n  0x00\n    /* \"#utility.yul\":1288:1289   */\n  0x08\n    /* \"#utility.yul\":1276:1286   */\n  dup4\n    /* \"#utility.yul\":1272:1290   */\n  mul\n    /* \"#utility.yul\":1311:1408   */\n  tag_56\n    /* \"#utility.yul\":1341:1407   */\n  0xffffffffffffffffffffffffffffffffffffffffffffffffffffffffffffffff\n    /* \"#utility.yul\":1330:1339   */\n  dup3\n    /* \"#utility.yul\":1311:1408   */\n  tag_30\n  jump\t// in\ntag_56:\n    /* \"#utility.yul\":1429:1468   */\n  tag_57\n    /* \"#utility.yul\":1459:1467   */\n  dup7\n    /* \"#utility.yul\":1448:1457   */\n  dup4\n    /* \"#utility.yul\":1429:1468   */\n  tag_30\n  jump\t// in\ntag_57:\n    /* \"#utility.yul\":1417:1468   */\n  swap6\n  pop\n    /* \"#utility.yul\":1501:1505   */\n  dup1\n    /* \"#utility.yul\":1497:1506   */\n  not\n    /* \"#utility.yul\":1490:1495   */\n  dup5\n    /* \"#utility.yul\":1486:1507   */\n  and\n    /* \"#utility.yul\":1477:1507   */\n  swap4\n  pop\n    /* \"#utility.yul\":1550:1554   */\n  dup1\n    /* \"#utility.yul\":1540:1548   */\n  dup7\n    /* \"#utility.yul\":1536:1555   */\n  and\n    /* \"#utility.yul\":1529:1534   */\n  dup5\n    /* \"#utility.yul\":1526:1556   */\n  or\n    /* \"#utility.yul\":1516:1556   */\n  swap3\n  pop\n    /* \"#utility.yul\":1245:1562   */\n  pop\n  pop\n    /* \"#utility.yul\":1169:1562   */\n  swap4\n  swap3\n  pop\n  pop\n  pop\n  jump\t// out\n    /* \"#utility.yul\":1568:1645   */\ntag_32:\n    /* \"#utility.yul\":1605:1612   */\n  0x00\n    /* \"#utility.yul\":1634:1639   */\n  dup2\n    /* \"#utility.yul\":1623:1639   */\n  swap1\n  pop\n    /* \"#utility.yul\":1568:1645   */\n  swap2\n  swap1\n  pop\n  jump\t// out\n    /* \"#utility.yul\":1651:1711   */\ntag_33:\n    /* \"#utility.yul\":1679:1682   */\n  0x00\n    /* \"#utility.yul\":1700:1705   */\n  dup2\n    /* \"#utility.yul\":1693:1705   */\n  swap1\n  pop\n    /* \"#utility.yul\":1651:1711   */\n  swap2\n  swap1\n  pop\n  jump\t// out\n    /* \"#utility.yul\":1717:1859   */\ntag_34:\n    /* \"#utility.yul\":1767:1776   */\n  0x00\n    /* \"#utility.yul\":1800:1853   */\n  tag_61\n    /* \"#utility.yul\":1818:1852   */\n  tag_62\n    /* \"#utility.yul\":1827:1851   */\n  tag_63\n    /* \"#utility.yul\":1845:1850   */\n  dup5\n    /* \"#utility.yul\":1827:1851   */\n  tag_32\n  jump\t// in\ntag_63:\n    /* \"#utility.yul\":1818:1852   */\n  tag_33\n  jump\t// in\ntag_62:\n    /* \"#utility.yul\":1800:1853   */\n  tag_32\n  jump\t// in\ntag_61:\n    /* \"#utility.yul\":1787:1853   */\n  swap1\n  pop\n    /* \"#utility.yul\":1717:1859   */\n  swap2\n  swap1\n  pop\n  jump\t// out\n    /* \"#utility.yul\":1865:1940   */\ntag_35:\n    /* \"#utility.yul\":1908:1911   */\n  0x00\n    /* \"#utility.yul\":1929:1934   */\n  dup2\n    /* \"#utility.yul\":1922:1934   */\n  swap1\n  pop\n    /* \"#utility.yul\":1865:1940   */\n  swap2\n  swap1\n  pop\n  jump\t// out\n    /* \"#utility.yul\":1946:2215   */\ntag_36:\n    /* \"#utility.yul\":2056:2095   */\n  tag_66\n    /* \"#utility.yul\":2087:2094   */\n  dup4\n    /* \"#utility.yul\":2056:2095   */\n  tag_34\n  jump\t// in\ntag_66:\n    /* \"#utility.yul\":2117:2208   */\n  tag_67\n    /* \"#utility.yul\":2166:2207   */\n  tag_68\n    /* \"#utility.yul\":2190:2206   */\n  dup3\n    /* \"#utility.yul\":2166:2207   */\n  tag_35\n  jump\t// in\ntag_68:\n    /* \"#utility.yul\":2158:2164   */\n  dup5\n    /* \"#utility.yul\":2151:2155   */\n  dup5\n    /* \"#utility.yul\":2145:2156   */\n  sload\n    /* \"#utility.yul\":2117:2208   */\n  tag_31\n  jump\t// in\ntag_67:\n    /* \"#utility.yul\":2111:2115   */\n  dup3\n    /* \"#utility.yul\":2104:2209   */\n  sstore\n    /* \"#utility.yul\":2022:2215   */\n  pop\n    /* \"#utility.yul\":1946:2215   */\n  pop\n  pop\n  pop\n  jump\t// out\n    /* \"#utility.yul\":2221:2294   */\ntag_37:\n    /* \"#utility.yul\":2266:2269   */\n  0x00\n    /* \"#utility.yul\":2287:2288   */\n  0x00\n    /* \"#utility.yul\":2280:2288   */\n  swap1\n  pop\n    /* \"#utility.yul\":2221:2294   */\n  swap1\n  jump\t// out\n    /* \"#utility.yul\":2300:2489   */\ntag_38:\n    /* \"#utility.yul\":2377:2409   */\n  tag_71\n  tag_37\n  jump\t// in\ntag_71:\n    /* \"#utility.yul\":2418:2483   */\n  tag_72\n    /* \"#utility.yul\":2476:2482   */\n  dup2\n    /* \"#utility.yul\":2468:2474   */\n  dup5\n    /* \"#utility.yul\":2462:2466   */\n  dup5\n    /* \"#utility.yul\":2418:2483   */\n  tag_36\n  jump\t// in\ntag_72:\n    /* \"#utility.yul\":2353:2489   */\n  pop\n    /* \"#utility.yul\":2300:2489   */\n  pop\n  pop\n  jump\t// out\n    /* \"#utility.yul\":2495:2681   */\ntag_39:\n    /* \"#utility.yul\":2555:2675   */\ntag_74:\n    /* \"#utility.yul\":2572:2575   */\n  dup2\n    /* \"#utility.yul\":2565:2570   */\n  dup2\n    /* \"#utility.yul\":2562:2576   */\n  lt\n    /* \"#utility.yul\":2555:2675   */\n  iszero\n  tag_76\n  jumpi\n    /* \"#utility.yul\":2626:2665   */\n  tag_77\n    /* \"#utility.yul\":2663:2664   */\n  0x00\n    /* \"#utility.yul\":2656:2661   */\n  dup3\n    /* \"#utility.yul\":2626:2665   */\n  tag_38\n  jump\t// in\ntag_77:\n    /* \"#utility.yul\":2599:2600   */\n  0x01\n    /* \"#utility.yul\":2592:2597   */\n  dup2\n    /* \"#utility.yul\":2588:2601   */\n  add\n    /* \"#utility.yul\":2579:2601   */\n  swap1\n  pop\n    /* \"#utility.yul\":2555:2675   */\n  jump(tag_74)\ntag_76:\n    /* \"#utility.yul\":2495:2681   */\n  pop\n  pop\n  jump\t// out\n    /* \"#utility.yul\":2687:3230   */\ntag_40:\n    /* \"#utility.yul\":2788:2790   */\n  0x1f\n    /* \"#utility.yul\":2783:2786   */\n  dup3\n    /* \"#utility.yul\":2780:2791   */\n  gt\n    /* \"#utility.yul\":2777:3223   */\n  iszero\n  tag_79\n  jumpi\n    /* \"#utility.yul\":2822:2860   */\n  tag_80\n    /* \"#utility.yul\":2854:2859   */\n  dup2\n    /* \"#utility.yul\":2822:2860   */\n  tag_28\n  jump\t// in\ntag_80:\n    /* \"#utility.yul\":2906:2935   */\n  tag_81\n    /* \"#utility.yul\":2924:2934   */\n  dup5\n    /* \"#utility.yul\":2906:2935   */\n  tag_29\n  jump\t// in\ntag_81:\n    /* \"#utility.yul\":2896:2904   */\n  dup2\n    /* \"#utility.yul\":2892:2936   */\n  add\n    /* \"#utility.yul\":3089:3091   */\n  0x20\n    /* \"#utility.yul\":3077:3087   */\n  dup6\n    /* \"#utility.yul\":3074:3092   */\n  lt\n    /* \"#utility.yul\":3071:3120   */\n  iszero\n  tag_82\n  jumpi\n    /* \"#utility.yul\":3110:3118   */\n  dup2\n    /* \"#utility.yul\":3095:3118   */\n  swap1\n  pop\n    /* \"#utility.yul\":3071:3120   */\ntag_82:\n    /* \"#utility.yul\":3133:3213   */\n  tag_83\n    /* \"#utility.yul\":3189:3211   */\n  tag_84\n    /* \"#utility.yul\":3207:3210   */\n  dup6\n    /* \"#utility.yul\":3189:3211   */\n  tag_29\n  jump\t// in\ntag_84:\n    /* \"#utility.yul\":3179:3187   */\n  dup4\n    /* \"#utility.yul\":3175:3212   */\n  add\n    /* \"#utility.yul\":3162:3173   */\n  dup3\n    /* \"#utility.yul\":3133:3213   */\n  tag_39\n  jump\t// in\ntag_83:\n    /* \"#utility.yul\":2792:3223   */\n  pop\n  pop\n    /* \"#utility.yul\":2777:3223   */\ntag_79:\n    /* \"#utility.yul\":2687:3230   */\n  pop\n  pop\n  pop\n  jump\t// out\n    /* \"#utility.yul\":3236:3353   */\ntag_41:\n    /* \"#utility.yul\":3290:3298   */\n  0x00\n    /* \"#utility.yul\":3340:3345   */\n  dup3\n    /* \"#utility.yul\":3334:3338   */\n  dup3\n    /* \"#utility.yul\":3330:3346   */\n  shr\n    /* \"#utility.yul\":3309:3346   */\n  swap1\n  pop\n    /* \"#utility.yul\":3236:3353   */\n  swap3\n  swap2\n  pop\n  pop\n  jump\t// out\n    /* \"#utility.yul\":3359:3528   */\ntag_42:\n    /* \"#utility.yul\":3403:3409   */\n  0x00\n    /* \"#utility.yul\":3436:3487   */\n  tag_87\n    /* \"#utility.yul\":3484:3485   */\n  0x00\n    /* \"#utility.yul\":3480:3486   */\n  not\n    /* \"#utility.yul\":3472:3477   */\n  dup5\n    /* \"#utility.yul\":3469:3470   */\n  0x08\n    /* \"#utility.yul\":3465:3478   */\n  mul\n    /* \"#utility.yul\":3436:3487   */\n  tag_41\n  jump\t// in\ntag_87:\n    /* \"#utility.yul\":3432:3488   */\n  not\n    /* \"#utility.yul\":3517:3521   */\n  dup1\n    /* \"#utility.yul\":3511:3515   */\n  dup4\n    /* \"#utility.yul\":3507:3522   */\n  and\n    /* \"#utility.yul\":3497:3522   */\n  swap2\n  pop\n    /* \"#utility.yul\":3410:3528   */\n  pop\n    /* \"#utility.yul\":3359:3528   */\n  swap3\n  swap2\n  pop\n  pop\n  jump\t// out\n    /* \"#utility.yul\":3533:3828   */\ntag_43:\n    /* \"#utility.yul\":3609:3613   */\n  0x00\n    /* \"#utility.yul\":3755:3784   */\n  tag_89\n    /* \"#utility.yul\":3780:3783   */\n  dup4\n    /* \"#utility.yul\":3774:3778   */\n  dup4\n    /* \"#utility.yul\":3755:3784   */\n  tag_42\n  jump\t// in\ntag_89:\n    /* \"#utility.yul\":3747:3784   */\n  swap2\n  pop\n    /* \"#utility.yul\":3817:3820   */\n  dup3\n    /* \"#utility.yul\":3814:3815   */\n  0x02\n    /* \"#utility.yul\":3810:3821   */\n  mul\n    /* \"#utility.yul\":3804:3808   */\n  dup3\n    /* \"#utility.yul\":3801:3822   */\n  or\n    /* \"#utility.yul\":3793:3822   */\n  swap1\n  pop\n    /* \"#utility.yul\":3533:3828   */\n  swap3\n  swap2\n  pop\n  pop\n  jump\t// out\n    /* \"#utility.yul\":3833:5228   */\ntag_4:\n    /* \"#utility.yul\":3950:3987   */\n  tag_91\n    /* \"#utility.yul\":3983:3986   */\n  dup3\n    /* \"#utility.yul\":3950:3987   */\n  tag_25\n  jump\t// in\ntag_91:\n    /* \"#utility.yul\":4052:4070   */\n  0xffffffffffffffff\n    /* \"#utility.yul\":4044:4050   */\n  dup2\n    /* \"#utility.yul\":4041:4071   */\n  gt\n    /* \"#utility.yul\":4038:4094   */\n  iszero\n  tag_92\n  jumpi\n    /* \"#utility.yul\":4074:4092   */\n  tag_93\n  tag_26\n  jump\t// in\ntag_93:\n    /* \"#utility.yul\":4038:4094   */\ntag_92:\n    /* \"#utility.yul\":4118:4156   */\n  tag_94\n    /* \"#utility.yul\":4150:4154   */\n  dup3\n    /* \"#utility.yul\":4144:4155   */\n  sload\n    /* \"#utility.yul\":4118:4156   */\n  tag_18\n  jump\t// in\ntag_94:\n    /* \"#utility.yul\":4203:4270   */\n  tag_95\n    /* \"#utility.yul\":4263:4269   */\n  dup3\n    /* \"#utility.yul\":4255:4261   */\n  dup3\n    /* \"#utility.yul\":4249:4253   */\n  dup6\n    /* \"#utility.yul\":4203:4270   */\n  tag_40\n  jump\t// in\ntag_95:\n    /* \"#utility.yul\":4297:4298   */\n  0x00\n    /* \"#utility.yul\":4321:4325   */\n  0x20\n    /* \"#utility.yul\":4308:4325   */\n  swap1\n  pop\n    /* \"#utility.yul\":4353:4355   */\n  0x1f\n    /* \"#utility.yul\":4345:4351   */\n  dup4\n    /* \"#utility.yul\":4342:4356   */\n  gt\n    /* \"#utility.yul\":4370:4371   */\n  0x01\n    /* \"#utility.yul\":4365:4983   */\n  dup2\n  eq\n  tag_97\n  jumpi\n    /* \"#utility.yul\":5027:5028   */\n  0x00\n    /* \"#utility.yul\":5044:5050   */\n  dup5\n    /* \"#utility.yul\":5041:5118   */\n  iszero\n  tag_98\n  jumpi\n    /* \"#utility.yul\":5093:5102   */\n  dup3\n    /* \"#utility.yul\":5088:5091   */\n  dup8\n    /* \"#utility.yul\":5084:5103   */\n  add\n    /* \"#utility.yul\":5078:5104   */\n  mload\n    /* \"#utility.yul\":5069:5104   */\n  swap1\n  pop\n    /* \"#utility.yul\":5041:5118   */\ntag_98:\n    /* \"#utility.yul\":5144:5211   */\n  tag_99\n    /* \"#utility.yul\":5204:5210   */\n  dup6\n    /* \"#utility.yul\":5197:5202   */\n  dup3\n    /* \"#utility.yul\":5144:5211   */\n  tag_43\n  jump\t// in\ntag_99:\n    /* \"#utility.yul\":5138:5142   */\n  dup7\n    /* \"#utility.yul\":5131:5212   */\n  sstore\n    /* \"#utility.yul\":5000:5222   */\n  pop\n    /* \"#utility.yul\":4335:5222   */\n  jump(tag_96)\n    /* \"#utility.yul\":4365:4983   */\ntag_97:\n    /* \"#utility.yul\":4417:4421   */\n  0x1f\n    /* \"#utility.yul\":4413:4422   */\n  not\n    /* \"#utility.yul\":4405:4411   */\n  dup5\n    /* \"#utility.yul\":4401:4423   */\n  and\n    /* \"#utility.yul\":4451:4488   */\n  tag_100\n    /* \"#utility.yul\":4483:4487   */\n  dup7\n    /* \"#utility.yul\":4451:4488   */\n  tag_28\n  jump\t// in\ntag_100:\n    /* \"#utility.yul\":4510:4511   */\n  0x00\n    /* \"#utility.yul\":4524:4732   */\ntag_101:\n    /* \"#utility.yul\":4538:4545   */\n  dup3\n    /* \"#utility.yul\":4535:4536   */\n  dup2\n    /* \"#utility.yul\":4532:4546   */\n  lt\n    /* \"#utility.yul\":4524:4732   */\n  iszero\n  tag_103\n  jumpi\n    /* \"#utility.yul\":4617:4626   */\n  dup5\n    /* \"#utility.yul\":4612:4615   */\n  dup10\n    /* \"#utility.yul\":4608:4627   */\n  add\n    /* \"#utility.yul\":4602:4628   */\n  mload\n    /* \"#utility.yul\":4594:4600   */\n  dup3\n    /* \"#utility.yul\":4587:4629   */\n  sstore\n    /* \"#utility.yul\":4668:4669   */\n  0x01\n    /* \"#utility.yul\":4660:4666   */\n  dup3\n    /* \"#utility.yul\":4656:4670   */\n  add\n    /* \"#utility.yul\":4646:4670   */\n  swap2\n  pop\n    /* \"#utility.yul\":4715:4717   */\n  0x20\n    /* \"#utility.yul\":4704:4713   */\n  dup6\n    /* \"#utility.yul\":4700:4718   */\n  add\n    /* \"#utility.yul\":4687:4718   */\n  swap5\n  pop\n    /* \"#utility.yul\":4561:4565   */\n  0x20\n    /* \"#utility.yul\":4558:4559   */\n  dup2\n    /* \"#utility.yul\":4554:4566   */\n  add\n    /* \"#utility.yul\":4549:4566   */\n  swap1\n  pop\n    /* \"#utility.yul\":4524:4732   */\n  jump(tag_101)\ntag_103:\n    /* \"#utility.yul\":4760:4766   */\n  dup7\n    /* \"#utility.yul\":4751:4758   */\n  dup4\n    /* \"#utility.yul\":4748:4767   */\n  lt\n    /* \"#utility.yul\":4745:4924   */\n  iszero\n  tag_104\n  jumpi\n    /* \"#utility.yul\":4818:4827   */\n  dup5\n    /* \"#utility.yul\":4813:4816   */\n  dup10\n    /* \"#utility.yul\":4809:4828   */\n  add\n    /* \"#utility.yul\":4803:4829   */\n  mload\n    /* \"#utility.yul\":4861:4909   */\n  tag_105\n    /* \"#utility.yul\":4903:4907   */\n  0x1f\n    /* \"#utility.yul\":4895:4901   */\n  dup10\n    /* \"#utility.yul\":4891:4908   */\n  and\n    /* \"#utility.yul\":4880:4889   */\n  dup3\n    /* \"#utility.yul\":4861:4909   */\n  tag_42\n  jump\t// in\ntag_105:\n    /* \"#utility.yul\":4853:4859   */\n  dup4\n    /* \"#utility.yul\":4846:4910   */\n  sstore\n    /* \"#utility.yul\":4768:4924   */\n  pop\n    /* \"#utility.yul\":4745:4924   */\ntag_104:\n    /* \"#utility.yul\":4970:4971   */\n  0x01\n    /* \"#utility.yul\":4966:4967   */\n  0x02\n    /* \"#utility.yul\":4958:4964   */\n  dup9\n    /* \"#utility.yul\":4954:4968   */\n  mul\n    /* \"#utility.yul\":4950:4972   */\n  add\n    /* \"#utility.yul\":4944:4948   */\n  dup9\n    /* \"#utility.yul\":4937:4973   */\n  sstore\n    /* \"#utility.yul\":4372:4983   */\n  pop\n  pop\n  pop\n    /* \"#utility.yul\":4335:5222   */\ntag_96:\n  pop\n    /* \"#utility.yul\":3925:5228   */\n  pop\n  pop\n  pop\n    /* \"#utility.yul\":3833:5228   */\n  pop\n  pop\n  jump\t// out\n    /* \"VDR.sol\":63:2900  contract VDR {... */\ntag_6:\n  dataSize(sub_0)\n  dup1\n  dataOffset(sub_0)\n  0x00\n  codecopy\n  0x00\n  return\nstop\ndata_2dbe15983667d38612f29d60e89c44c231253a336c0f3a338dc72f798b5e563e 68747470733a2f2f6964656e746974792e666f756e646174696f6e2f4563647361536563703235366b315265636f766572795369676e6174757265323032302f6c64732d65636473612d736563703235366b312d7265636f76657279323032302d302e302e6a736f6e6c64\n\nsub_0: assembly {\n        /* \"VDR.sol\":63:2900  contract VDR {... */\n      mstore(0x40, 0x80)\n      callvalue\n      dup1\n      iszero\n      tag_1\n      jumpi\n      revert(0x00, 0x00)\n    tag_1:\n      pop\n      jumpi(tag_2, lt(calldatasize, 0x04))\n      shr(0xe0, calldataload(0x00))\n      dup1\n      0x76baabff\n      gt\n      tag_12\n      jumpi\n      dup1\n      0x76baabff\n      eq\n      tag_7\n      jumpi\n      dup1\n      0x80793ab8\n      eq\n      tag_8\n      jumpi\n      dup1\n      0x8096373e\n      eq\n      tag_9\n      jumpi\n      dup1\n      0xa0a4f592\n      eq\n      tag_10\n      jumpi\n      dup1\n      0xe0783898\n      eq\n      tag_11\n      jumpi\n      jump(tag_2)\n    tag_12:\n      dup1\n      0x10b40f85\n      eq\n      tag_3\n      jumpi\n      dup1\n      0x2128e1c9\n      eq\n      tag_4\n      jumpi\n      dup1\n      0x317305f4\n      eq\n      tag_5\n      jumpi\n      dup1\n      0x570810e2\n      eq\n      tag_6\n      jumpi\n    tag_2:\n      revert(0x00, 0x00)\n        /* \"VDR.sol\":2631:2898  function revoke(string calldata did, string calldata cred_id) public {... */\n    tag_3:\n      tag_13\n      0x04\n      dup1\n      calldatasize\n      sub\n      dup2\n      add\n      swap1\n      tag_14\n      swap2\n      swap1\n      tag_15\n      jump\t// in\n    tag_14:\n      tag_16\n      jump\t// in\n    tag_13:\n      stop\n        /* \"VDR.sol\":643:682  mapping(string => validDID) public DIDs */\n    tag_4:\n      tag_17\n      0x04\n      dup1\n      calldatasize\n      sub\n      dup2\n      add\n      swap1\n      tag_18\n      swap2\n      swap1\n      tag_19\n      jump\t// in\n    tag_18:\n      tag_20\n      jump\t// in\n    tag_17:\n      mload(0x40)\n      tag_21\n      swap3\n      swap2\n      swap1\n      tag_22\n      jump\t// in\n    tag_21:\n      mload(0x40)\n      dup1\n      swap2\n      sub\n      swap1\n      return\n        /* \"VDR.sol\":2108:2625  function checkRevocation(... */\n    tag_5:\n      tag_23\n      0x04\n      dup1\n      calldatasize\n      sub\n      dup2\n      add\n      swap1\n      tag_24\n      swap2\n      swap1\n      tag_15\n      jump\t// in\n    tag_24:\n      tag_25\n      jump\t// in\n    tag_23:\n      mload(0x40)\n      tag_26\n      swap2\n      swap1\n      tag_27\n      jump\t// in\n    tag_26:\n      mload(0x40)\n      dup1\n      swap2\n      sub\n      swap1\n      return\n        /* \"VDR.sol\":743:952  function registerDID(string memory did) public {... */\n    tag_6:\n      tag_28\n      0x04\n      dup1\n      calldatasize\n      sub\n      dup2\n      add\n      swap1\n      tag_29\n      swap2\n      swap1\n      tag_19\n      jump\t// in\n    tag_29:\n      tag_30\n      jump\t// in\n    tag_28:\n      stop\n        /* \"VDR.sol\":1876:2102  function removeIssuer(string calldata did) public {... */\n    tag_7:\n      tag_31\n      0x04\n      dup1\n      calldatasize\n      sub\n      dup2\n      add\n      swap1\n      tag_32\n      swap2\n      swap1\n      tag_33\n      jump\t// in\n    tag_32:\n      tag_34\n      jump\t// in\n    tag_31:\n      stop\n        /* \"VDR.sol\":1666:1870  function getIssuer(... */\n    tag_8:\n      tag_35\n      0x04\n      dup1\n      calldatasize\n      sub\n      dup2\n      add\n      swap1\n      tag_36\n      swap2\n      swap1\n      tag_33\n      jump\t// in\n    tag_36:\n      tag_37\n      jump\t// in\n    tag_35:\n      mload(0x40)\n      tag_38\n      swap2\n      swap1\n      tag_39\n      jump\t// in\n    tag_38:\n      mload(0x40)\n      dup1\n      swap2\n      sub\n      swap1\n      return\n        /* \"VDR.sol\":1207:1660  function registerIssuer(... */\n    tag_9:\n      tag_40\n      0x04\n      dup1\n      calldatasize\n      sub\n      dup2\n      add\n      swap1\n      tag_41\n      swap2\n      swap1\n      tag_42\n      jump\t// in\n    tag_41:\n      tag_43\n      jump\t// in\n    tag_40:\n      stop\n        /* \"VDR.sol\":688:736  mapping(string => validIssuer) public issuerData */\n    tag_10:\n      tag_44\n      0x04\n      dup1\n      calldatasize\n      sub\n      dup2\n      add\n      swap1\n      tag_45\n      swap2\n      swap1\n      tag_19\n      jump\t// in\n    tag_45:\n      tag_46\n      jump\t// in\n    tag_44:\n      mload(0x40)\n      tag_47\n      swap4\n      swap3\n      swap2\n      swap1\n      tag_48\n      jump\t// in\n    tag_47:\n      mload(0x40)\n      dup1\n      swap2\n      sub\n      swap1\n      return\n        /* \"VDR.sol\":958:1201  function getDID(string calldata did) public view returns (DIDDoc memory) {... */\n    tag_11:\n      tag_49\n      0x04\n      dup1\n      calldatasize\n      sub\n      dup2\n      add\n      swap1\n      tag_50\n      swap2\n      swap1\n      tag_33\n      jump\t// in\n    tag_50:\n      tag_51\n      jump\t// in\n    tag_49:\n      mload(0x40)\n      tag_52\n      swap2\n      swap1\n      tag_53\n      jump\t// in\n    tag_52:\n      mload(0x40)\n      dup1\n      swap2\n      sub\n      swap1\n      return\n        /* \"VDR.sol\":2631:2898  function revoke(string calldata did, string calldata cred_id) public {... */\n    tag_16:\n        /* \"VDR.sol\":2718:2728  issuerData */\n      0x03\n        /* \"VDR.sol\":2729:2732  did */\n      dup5\n      dup5\n        /* \"VDR.sol\":2718:2733  issuerData[did] */\n      mload(0x40)\n      tag_55\n      swap3\n      swap2\n      swap1\n      tag_56\n      jump\t// in\n    tag_55:\n      swap1\n      dup2\n      mstore\n      0x20\n      add\n      mload(0x40)\n      dup1\n      swap2\n      sub\n      swap1\n      keccak256\n        /* \"VDR.sol\":2718:2739  issuerData[did].exist */\n      0x00\n      add\n      0x00\n      swap1\n      sload\n      swap1\n      0x0100\n      exp\n      swap1\n      div\n      0xff\n      and\n        /* \"VDR.sol\":2710:2770  require(issuerData[did].exist, \"There is no such a issuer!\") */\n      tag_57\n      jumpi\n      mload(0x40)\n      0x08c379a000000000000000000000000000000000000000000000000000000000\n      dup2\n      mstore\n      0x04\n      add\n      tag_58\n      swap1\n      tag_59\n      jump\t// in\n    tag_58:\n      mload(0x40)\n      dup1\n      swap2\n      sub\n      swap1\n      revert\n    tag_57:\n        /* \"VDR.sol\":2802:2806  DIDs */\n      0x02\n        /* \"VDR.sol\":2807:2810  did */\n      dup5\n      dup5\n        /* \"VDR.sol\":2802:2811  DIDs[did] */\n      mload(0x40)\n      tag_60\n      swap3\n      swap2\n      swap1\n      tag_56\n      jump\t// in\n    tag_60:\n      swap1\n      dup2\n      mstore\n      0x20\n      add\n      mload(0x40)\n      dup1\n      swap2\n      sub\n      swap1\n      keccak256\n        /* \"VDR.sol\":2802:2814  DIDs[did].pk */\n      0x00\n      add\n      0x01\n      swap1\n      sload\n      swap1\n      0x0100\n      exp\n      swap1\n      div\n      0xffffffffffffffffffffffffffffffffffffffff\n      and\n        /* \"VDR.sol\":2788:2814  msg.sender == DIDs[did].pk */\n      0xffffffffffffffffffffffffffffffffffffffff\n      and\n        /* \"VDR.sol\":2788:2798  msg.sender */\n      caller\n        /* \"VDR.sol\":2788:2814  msg.sender == DIDs[did].pk */\n      0xffffffffffffffffffffffffffffffffffffffff\n      and\n      eq\n        /* \"VDR.sol\":2780:2837  require(msg.sender == DIDs[did].pk, \"You have no right!\") */\n      tag_61\n      jumpi\n      mload(0x40)\n      0x08c379a000000000000000000000000000000000000000000000000000000000\n      dup2\n      mstore\n      0x04\n      add\n      tag_62\n      swap1\n      tag_63\n      jump\t// in\n    tag_62:\n      mload(0x40)\n      dup1\n      swap2\n      sub\n      swap1\n      revert\n    tag_61:\n        /* \"VDR.sol\":2847:2857  issuerData */\n      0x03\n        /* \"VDR.sol\":2858:2861  did */\n      dup5\n      dup5\n        /* \"VDR.sol\":2847:2862  issuerData[did] */\n      mload(0x40)\n      tag_64\n      swap3\n      swap2\n      swap1\n      tag_56\n      jump\t// in\n    tag_64:\n      swap1\n      dup2\n      mstore\n      0x20\n      add\n      mload(0x40)\n      dup1\n      swap2\n      sub\n      swap1\n      keccak256\n        /* \"VDR.sol\":2847:2877  issuerData[did].revocationList */\n      0x03\n      add\n        /* \"VDR.sol\":2883:2890  cred_id */\n      dup3\n      dup3\n        /* \"VDR.sol\":2847:2891  issuerData[did].revocationList.push(cred_id) */\n      swap1\n      swap2\n      dup1\n      0x01\n      dup2\n      sload\n      add\n      dup1\n      dup3\n      sstore\n      dup1\n      swap2\n      pop\n      pop\n      0x01\n      swap1\n      sub\n      swap1\n      0x00\n      mstore\n      keccak256(0x00, 0x20)\n      add\n      0x00\n      swap1\n      swap2\n      swap3\n      swap1\n      swap2\n      swap3\n      swap1\n      swap2\n      swap3\n      swap1\n      swap2\n      swap3\n      pop\n      swap2\n      dup3\n      tag_66\n      swap3\n      swap2\n      swap1\n      tag_67\n      jump\t// in\n    tag_66:\n      pop\n        /* \"VDR.sol\":2631:2898  function revoke(string calldata did, string calldata cred_id) public {... */\n      pop\n      pop\n      pop\n      pop\n      jump\t// out\n        /* \"VDR.sol\":643:682  mapping(string => validDID) public DIDs */\n    tag_20:\n      0x02\n      dup2\n      dup1\n      mload\n      0x20\n      dup2\n      add\n      dup3\n      add\n      dup1\n      mload\n      dup5\n      dup3\n      mstore\n      0x20\n      dup4\n      add\n      0x20\n      dup6\n      add\n      keccak256\n      dup2\n      dup4\n      mstore\n      dup1\n      swap6\n      pop\n      pop\n      pop\n      pop\n      pop\n      pop\n      0x00\n      swap2\n      pop\n      swap1\n      pop\n      dup1\n      0x00\n      add\n      0x00\n      swap1\n      sload\n      swap1\n      0x0100\n      exp\n      swap1\n      div\n      0xff\n      and\n      swap1\n      dup1\n      0x00\n      add\n      0x01\n      swap1\n      sload\n      swap1\n      0x0100\n      exp\n      swap1\n      div\n      0xffffffffffffffffffffffffffffffffffffffff\n      and\n      swap1\n      pop\n      dup3\n      jump\t// out\n        /* \"VDR.sol\":2108:2625  function checkRevocation(... */\n    tag_25:\n        /* \"VDR.sol\":2229:2233  bool */\n      0x00\n        /* \"VDR.sol\":2253:2263  issuerData */\n      0x03\n        /* \"VDR.sol\":2264:2274  issuer_did */\n      dup6\n      dup6\n        /* \"VDR.sol\":2253:2275  issuerData[issuer_did] */\n      mload(0x40)\n      tag_69\n      swap3\n      swap2\n      swap1\n      tag_56\n      jump\t// in\n    tag_69:\n      swap1\n      dup2\n      mstore\n      0x20\n      add\n      mload(0x40)\n      dup1\n      swap2\n      sub\n      swap1\n      keccak256\n        /* \"VDR.sol\":2253:2281  issuerData[issuer_did].exist */\n      0x00\n      add\n      0x00\n      swap1\n      sload\n      swap1\n      0x0100\n      exp\n      swap1\n      div\n      0xff\n      and\n        /* \"VDR.sol\":2245:2312  require(issuerData[issuer_did].exist, \"There is no such a issuer!\") */\n      tag_70\n      jumpi\n      mload(0x40)\n      0x08c379a000000000000000000000000000000000000000000000000000000000\n      dup2\n      mstore\n      0x04\n      add\n      tag_71\n      swap1\n      tag_59\n      jump\t// in\n    tag_71:\n      mload(0x40)\n      dup1\n      swap2\n      sub\n      swap1\n      revert\n    tag_70:\n        /* \"VDR.sol\":2327:2333  uint i */\n      0x00\n        /* \"VDR.sol\":2322:2597  for (uint i; i < issuerData[issuer_did].revocationList.length; i++) {... */\n    tag_72:\n        /* \"VDR.sol\":2339:2349  issuerData */\n      0x03\n        /* \"VDR.sol\":2350:2360  issuer_did */\n      dup7\n      dup7\n        /* \"VDR.sol\":2339:2361  issuerData[issuer_did] */\n      mload(0x40)\n      tag_75\n      swap3\n      swap2\n      swap1\n      tag_56\n      jump\t// in\n    tag_75:\n      swap1\n      dup2\n      mstore\n      0x20\n      add\n      mload(0x40)\n      dup1\n      swap2\n      sub\n      swap1\n      keccak256\n        /* \"VDR.sol\":2339:2376  issuerData[issuer_did].revocationList */\n      0x03\n      add\n        /* \"VDR.sol\":2339:2383  issuerData[issuer_did].revocationList.length */\n      dup1\n      sload\n      swap1\n      pop\n        /* \"VDR.sol\":2335:2336  i */\n      dup2\n        /* \"VDR.sol\":2335:2383  i < issuerData[issuer_did].revocationList.length */\n      lt\n        /* \"VDR.sol\":2322:2597  for (uint i; i < issuerData[issuer_did].revocationList.length; i++) {... */\n      iszero\n      tag_73\n      jumpi\n        /* \"VDR.sol\":2551:2558  cred_id */\n      dup4\n      dup4\n        /* \"VDR.sol\":2540:2559  abi.encode(cred_id) */\n      add(0x20, mload(0x40))\n      tag_76\n      swap3\n      swap2\n      swap1\n      tag_77\n      jump\t// in\n    tag_76:\n      mload(0x40)\n      0x20\n      dup2\n      dup4\n      sub\n      sub\n      dup2\n      mstore\n      swap1\n      0x40\n      mstore\n        /* \"VDR.sol\":2530:2560  keccak256(abi.encode(cred_id)) */\n      dup1\n      mload\n      swap1\n      0x20\n      add\n      keccak256\n        /* \"VDR.sol\":2467:2477  issuerData */\n      0x03\n        /* \"VDR.sol\":2478:2488  issuer_did */\n      dup8\n      dup8\n        /* \"VDR.sol\":2467:2489  issuerData[issuer_did] */\n      mload(0x40)\n      tag_78\n      swap3\n      swap2\n      swap1\n      tag_56\n      jump\t// in\n    tag_78:\n      swap1\n      dup2\n      mstore\n      0x20\n      add\n      mload(0x40)\n      dup1\n      swap2\n      sub\n      swap1\n      keccak256\n        /* \"VDR.sol\":2467:2504  issuerData[issuer_did].revocationList */\n      0x03\n      add\n        /* \"VDR.sol\":2505:2506  i */\n      dup3\n        /* \"VDR.sol\":2467:2507  issuerData[issuer_did].revocationList[i] */\n      dup2\n      sload\n      dup2\n      lt\n      tag_79\n      jumpi\n      tag_80\n      tag_81\n      jump\t// in\n    tag_80:\n    tag_79:\n      swap1\n      0x00\n      mstore\n      keccak256(0x00, 0x20)\n      add\n        /* \"VDR.sol\":2456:2508  abi.encode(issuerData[issuer_did].revocationList[i]) */\n      add(0x20, mload(0x40))\n      tag_83\n      swap2\n      swap1\n      tag_84\n      jump\t// in\n    tag_83:\n      mload(0x40)\n      0x20\n      dup2\n      dup4\n      sub\n      sub\n      dup2\n      mstore\n      swap1\n      0x40\n      mstore\n        /* \"VDR.sol\":2425:2526  keccak256(... */\n      dup1\n      mload\n      swap1\n      0x20\n      add\n      keccak256\n        /* \"VDR.sol\":2425:2560  keccak256(... */\n      sub\n        /* \"VDR.sol\":2404:2586  if (... */\n      tag_85\n      jumpi\n        /* \"VDR.sol\":2582:2586  true */\n      0x01\n        /* \"VDR.sol\":2575:2586  return true */\n      swap2\n      pop\n      pop\n      jump(tag_68)\n        /* \"VDR.sol\":2404:2586  if (... */\n    tag_85:\n        /* \"VDR.sol\":2385:2388  i++ */\n      dup1\n      dup1\n      0x01\n      add\n      swap2\n      pop\n      pop\n        /* \"VDR.sol\":2322:2597  for (uint i; i < issuerData[issuer_did].revocationList.length; i++) {... */\n      jump(tag_72)\n    tag_73:\n      pop\n        /* \"VDR.sol\":2613:2618  false */\n      0x00\n        /* \"VDR.sol\":2606:2618  return false */\n      swap1\n      pop\n        /* \"VDR.sol\":2108:2625  function checkRevocation(... */\n    tag_68:\n      swap5\n      swap4\n      pop\n      pop\n      pop\n      pop\n      jump\t// out\n        /* \"VDR.sol\":743:952  function registerDID(string memory did) public {... */\n    tag_30:\n        /* \"VDR.sol\":809:813  DIDs */\n      0x02\n        /* \"VDR.sol\":814:817  did */\n      dup2\n        /* \"VDR.sol\":809:818  DIDs[did] */\n      mload(0x40)\n      tag_87\n      swap2\n      swap1\n      tag_88\n      jump\t// in\n    tag_87:\n      swap1\n      dup2\n      mstore\n      0x20\n      add\n      mload(0x40)\n      dup1\n      swap2\n      sub\n      swap1\n      keccak256\n        /* \"VDR.sol\":809:824  DIDs[did].exist */\n      0x00\n      add\n      0x00\n      swap1\n      sload\n      swap1\n      0x0100\n      exp\n      swap1\n      div\n      0xff\n      and\n        /* \"VDR.sol\":808:824  !DIDs[did].exist */\n      iszero\n        /* \"VDR.sol\":800:856  require(!DIDs[did].exist, \"The DID is already created!\") */\n      tag_89\n      jumpi\n      mload(0x40)\n      0x08c379a000000000000000000000000000000000000000000000000000000000\n      dup2\n      mstore\n      0x04\n      add\n      tag_90\n      swap1\n      tag_91\n      jump\t// in\n    tag_90:\n      mload(0x40)\n      dup1\n      swap2\n      sub\n      swap1\n      revert\n    tag_89:\n        /* \"VDR.sol\":866:888  validDID memory newDID */\n      0x00\n        /* \"VDR.sol\":891:917  validDID(true, msg.sender) */\n      mload(0x40)\n      dup1\n      0x40\n      add\n      0x40\n      mstore\n      dup1\n        /* \"VDR.sol\":900:904  true */\n      0x01\n        /* \"VDR.sol\":891:917  validDID(true, msg.sender) */\n      iszero\n      iszero\n      dup2\n      mstore\n      0x20\n      add\n        /* \"VDR.sol\":906:916  msg.sender */\n      caller\n        /* \"VDR.sol\":891:917  validDID(true, msg.sender) */\n      0xffffffffffffffffffffffffffffffffffffffff\n      and\n      dup2\n      mstore\n      pop\n        /* \"VDR.sol\":866:917  validDID memory newDID = validDID(true, msg.sender) */\n      swap1\n      pop\n        /* \"VDR.sol\":939:945  newDID */\n      dup1\n        /* \"VDR.sol\":927:931  DIDs */\n      0x02\n        /* \"VDR.sol\":932:935  did */\n      dup4\n        /* \"VDR.sol\":927:936  DIDs[did] */\n      mload(0x40)\n      tag_92\n      swap2\n      swap1\n      tag_88\n      jump\t// in\n    tag_92:\n      swap1\n      dup2\n      mstore\n      0x20\n      add\n      mload(0x40)\n      dup1\n      swap2\n      sub\n      swap1\n      keccak256\n        /* \"VDR.sol\":927:945  DIDs[did] = newDID */\n      0x00\n      dup3\n      add\n      mload\n      dup2\n      0x00\n      add\n      exp(0x0100, 0x00)\n      dup2\n      sload\n      dup2\n      0xff\n      mul\n      not\n      and\n      swap1\n      dup4\n      iszero\n      iszero\n      mul\n      or\n      swap1\n      sstore\n      pop\n      0x20\n      dup3\n      add\n      mload\n      dup2\n      0x00\n      add\n      exp(0x0100, 0x01)\n      dup2\n      sload\n      dup2\n      0xffffffffffffffffffffffffffffffffffffffff\n      mul\n      not\n      and\n      swap1\n      dup4\n      0xffffffffffffffffffffffffffffffffffffffff\n      and\n      mul\n      or\n      swap1\n      sstore\n      pop\n      swap1\n      pop\n      pop\n        /* \"VDR.sol\":790:952  {... */\n      pop\n        /* \"VDR.sol\":743:952  function registerDID(string memory did) public {... */\n      pop\n      jump\t// out\n        /* \"VDR.sol\":1876:2102  function removeIssuer(string calldata did) public {... */\n    tag_34:\n        /* \"VDR.sol\":1944:1954  issuerData */\n      0x03\n        /* \"VDR.sol\":1955:1958  did */\n      dup3\n      dup3\n        /* \"VDR.sol\":1944:1959  issuerData[did] */\n      mload(0x40)\n      tag_94\n      swap3\n      swap2\n      swap1\n      tag_56\n      jump\t// in\n    tag_94:\n      swap1\n      dup2\n      mstore\n      0x20\n      add\n      mload(0x40)\n      dup1\n      swap2\n      sub\n      swap1\n      keccak256\n        /* \"VDR.sol\":1944:1965  issuerData[did].exist */\n      0x00\n      add\n      0x00\n      swap1\n      sload\n      swap1\n      0x0100\n      exp\n      swap1\n      div\n      0xff\n      and\n        /* \"VDR.sol\":1936:1996  require(issuerData[did].exist, \"There is no such a issuer!\") */\n      tag_95\n      jumpi\n      mload(0x40)\n      0x08c379a000000000000000000000000000000000000000000000000000000000\n      dup2\n      mstore\n      0x04\n      add\n      tag_96\n      swap1\n      tag_59\n      jump\t// in\n    tag_96:\n      mload(0x40)\n      dup1\n      swap2\n      sub\n      swap1\n      revert\n    tag_95:\n        /* \"VDR.sol\":2028:2032  DIDs */\n      0x02\n        /* \"VDR.sol\":2033:2036  did */\n      dup3\n      dup3\n        /* \"VDR.sol\":2028:2037  DIDs[did] */\n      mload(0x40)\n      tag_97\n      swap3\n      swap2\n      swap1\n      tag_56\n      jump\t// in\n    tag_97:\n      swap1\n      dup2\n      mstore\n      0x20\n      add\n      mload(0x40)\n      dup1\n      swap2\n      sub\n      swap1\n      keccak256\n        /* \"VDR.sol\":2028:2040  DIDs[did].pk */\n      0x00\n      add\n      0x01\n      swap1\n      sload\n      swap1\n      0x0100\n      exp\n      swap1\n      div\n      0xffffffffffffffffffffffffffffffffffffffff\n      and\n        /* \"VDR.sol\":2014:2040  msg.sender == DIDs[did].pk */\n      0xffffffffffffffffffffffffffffffffffffffff\n      and\n        /* \"VDR.sol\":2014:2024  msg.sender */\n      caller\n        /* \"VDR.sol\":2014:2040  msg.sender == DIDs[did].pk */\n      0xffffffffffffffffffffffffffffffffffffffff\n      and\n      eq\n        /* \"VDR.sol\":2006:2063  require(msg.sender == DIDs[did].pk, \"You have no right!\") */\n      tag_98\n      jumpi\n      mload(0x40)\n      0x08c379a000000000000000000000000000000000000000000000000000000000\n      dup2\n      mstore\n      0x04\n      add\n      tag_99\n      swap1\n      tag_63\n      jump\t// in\n    tag_99:\n      mload(0x40)\n      dup1\n      swap2\n      sub\n      swap1\n      revert\n    tag_98:\n        /* \"VDR.sol\":2080:2090  issuerData */\n      0x03\n        /* \"VDR.sol\":2091:2094  did */\n      dup3\n      dup3\n        /* \"VDR.sol\":2080:2095  issuerData[did] */\n      mload(0x40)\n      tag_100\n      swap3\n      swap2\n      swap1\n      tag_56\n      jump\t// in\n    tag_100:\n      swap1\n      dup2\n      mstore\n      0x20\n      add\n      mload(0x40)\n      dup1\n      swap2\n      sub\n      swap1\n      keccak256\n      0x00\n        /* \"VDR.sol\":2073:2095  delete issuerData[did] */\n      0x00\n      dup3\n      add\n      exp(0x0100, 0x00)\n      dup2\n      sload\n      swap1\n      0xff\n      mul\n      not\n      and\n      swap1\n      sstore\n      0x01\n      dup3\n      add\n      0x00\n      tag_101\n      swap2\n      swap1\n      tag_102\n      jump\t// in\n    tag_101:\n      0x02\n      dup3\n      add\n      0x00\n      tag_103\n      swap2\n      swap1\n      tag_102\n      jump\t// in\n    tag_103:\n      0x03\n      dup3\n      add\n      0x00\n      tag_104\n      swap2\n      swap1\n      tag_105\n      jump\t// in\n    tag_104:\n      pop\n      pop\n        /* \"VDR.sol\":1876:2102  function removeIssuer(string calldata did) public {... */\n      pop\n      pop\n      jump\t// out\n        /* \"VDR.sol\":1666:1870  function getIssuer(... */\n    tag_37:\n        /* \"VDR.sol\":1741:1759  validIssuer memory */\n      tag_106\n      tag_107\n      jump\t// in\n    tag_106:\n        /* \"VDR.sol\":1779:1789  issuerData */\n      0x03\n        /* \"VDR.sol\":1790:1793  did */\n      dup4\n      dup4\n        /* \"VDR.sol\":1779:1794  issuerData[did] */\n      mload(0x40)\n      tag_109\n      swap3\n      swap2\n      swap1\n      tag_56\n      jump\t// in\n    tag_109:\n      swap1\n      dup2\n      mstore\n      0x20\n      add\n      mload(0x40)\n      dup1\n      swap2\n      sub\n      swap1\n      keccak256\n        /* \"VDR.sol\":1779:1800  issuerData[did].exist */\n      0x00\n      add\n      0x00\n      swap1\n      sload\n      swap1\n      0x0100\n      exp\n      swap1\n      div\n      0xff\n      and\n        /* \"VDR.sol\":1771:1831  require(issuerData[did].exist, \"There is no such a issuer!\") */\n      tag_110\n      jumpi\n      mload(0x40)\n      0x08c379a000000000000000000000000000000000000000000000000000000000\n      dup2\n      mstore\n      0x04\n      add\n      tag_111\n      swap1\n      tag_59\n      jump\t// in\n    tag_111:\n      mload(0x40)\n      dup1\n      swap2\n      sub\n      swap1\n      revert\n    tag_110:\n        /* \"VDR.sol\":1848:1858  issuerData */\n      0x03\n        /* \"VDR.sol\":1859:1862  did */\n      dup4\n      dup4\n        /* \"VDR.sol\":1848:1863  issuerData[did] */\n      mload(0x40)\n      tag_112\n      swap3\n      swap2\n      swap1\n      tag_56\n      jump\t// in\n    tag_112:\n      swap1\n      dup2\n      mstore\n      0x20\n      add\n      mload(0x40)\n      dup1\n      swap2\n      sub\n      swap1\n      keccak256\n        /* \"VDR.sol\":1841:1863  return issuerData[did] */\n      mload(0x40)\n      dup1\n      0x80\n      add\n      0x40\n      mstore\n      swap1\n      dup2\n      0x00\n      dup3\n      add\n      0x00\n      swap1\n      sload\n      swap1\n      0x0100\n      exp\n      swap1\n      div\n      0xff\n      and\n      iszero\n      iszero\n      iszero\n      iszero\n      dup2\n      mstore\n      0x20\n      add\n      0x01\n      dup3\n      add\n      dup1\n      sload\n      tag_113\n      swap1\n      tag_114\n      jump\t// in\n    tag_113:\n      dup1\n      0x1f\n      add\n      0x20\n      dup1\n      swap2\n      div\n      mul\n      0x20\n      add\n      mload(0x40)\n      swap1\n      dup2\n      add\n      0x40\n      mstore\n      dup1\n      swap3\n      swap2\n      swap1\n      dup2\n      dup2\n      mstore\n      0x20\n      add\n      dup3\n      dup1\n      sload\n      tag_115\n      swap1\n      tag_114\n      jump\t// in\n    tag_115:\n      dup1\n      iszero\n      tag_116\n      jumpi\n      dup1\n      0x1f\n      lt\n      tag_117\n      jumpi\n      0x0100\n      dup1\n      dup4\n      sload\n      div\n      mul\n      dup4\n      mstore\n      swap2\n      0x20\n      add\n      swap2\n      jump(tag_116)\n    tag_117:\n      dup3\n      add\n      swap2\n      swap1\n      0x00\n      mstore\n      keccak256(0x00, 0x20)\n      swap1\n    tag_118:\n      dup2\n      sload\n      dup2\n      mstore\n      swap1\n      0x01\n      add\n      swap1\n      0x20\n      add\n      dup1\n      dup4\n      gt\n      tag_118\n      jumpi\n      dup3\n      swap1\n      sub\n      0x1f\n      and\n      dup3\n      add\n      swap2\n    tag_116:\n      pop\n      pop\n      pop\n      pop\n      pop\n      dup2\n      mstore\n      0x20\n      add\n      0x02\n      dup3\n      add\n      dup1\n      sload\n      tag_119\n      swap1\n      tag_114\n      jump\t// in\n    tag_119:\n      dup1\n      0x1f\n      add\n      0x20\n      dup1\n      swap2\n      div\n      mul\n      0x20\n      add\n      mload(0x40)\n      swap1\n      dup2\n      add\n      0x40\n      mstore\n      dup1\n      swap3\n      swap2\n      swap1\n      dup2\n      dup2\n      mstore\n      0x20\n      add\n      dup3\n      dup1\n      sload\n      tag_120\n      swap1\n      tag_114\n      jump\t// in\n    tag_120:\n      dup1\n      iszero\n      tag_121\n      jumpi\n      dup1\n      0x1f\n      lt\n      tag_122\n      jumpi\n      0x0100\n      dup1\n      dup4\n      sload\n      div\n      mul\n      dup4\n      mstore\n      swap2\n      0x20\n      add\n      swap2\n      jump(tag_121)\n    tag_122:\n      dup3\n      add\n      swap2\n      swap1\n      0x00\n      mstore\n      keccak256(0x00, 0x20)\n      swap1\n    tag_123:\n      dup2\n      sload\n      dup2\n      mstore\n      swap1\n      0x01\n      add\n      swap1\n      0x20\n      add\n      dup1\n      dup4\n      gt\n      tag_123\n      jumpi\n      dup3\n      swap1\n      sub\n      0x1f\n      and\n      dup3\n      add\n      swap2\n    tag_121:\n      pop\n      pop\n      pop\n      pop\n      pop\n      dup2\n      mstore\n      0x20\n      add\n      0x03\n      dup3\n      add\n      dup1\n      sload\n      dup1\n      0x20\n      mul\n      0x20\n      add\n      mload(0x40)\n      swap1\n      dup2\n      add\n      0x40\n      mstore\n      dup1\n      swap3\n      swap2\n      swap1\n      dup2\n      dup2\n      mstore\n      0x20\n      add\n      0x00\n      swap1\n    tag_124:\n      dup3\n      dup3\n      lt\n      iszero\n      tag_125\n      jumpi\n      dup4\n      dup3\n      swap1\n      0x00\n      mstore\n      keccak256(0x00, 0x20)\n      add\n      dup1\n      sload\n      tag_127\n      swap1\n      tag_114\n      jump\t// in\n    tag_127:\n      dup1\n      0x1f\n      add\n      0x20\n      dup1\n      swap2\n      div\n      mul\n      0x20\n      add\n      mload(0x40)\n      swap1\n      dup2\n      add\n      0x40\n      mstore\n      dup1\n      swap3\n      swap2\n      swap1\n      dup2\n      dup2\n      mstore\n      0x20\n      add\n      dup3\n      dup1\n      sload\n      tag_128\n      swap1\n      tag_114\n      jump\t// in\n    tag_128:\n      dup1\n      iszero\n      tag_129\n      jumpi\n      dup1\n      0x1f\n      lt\n      tag_130\n      jumpi\n      0x0100\n      dup1\n      dup4\n      sload\n      div\n      mul\n      dup4\n      mstore\n      swap2\n      0x20\n      add\n      swap2\n      jump(tag_129)\n    tag_130:\n      dup3\n      add\n      swap2\n      swap1\n      0x00\n      mstore\n      keccak256(0x00, 0x20)\n      swap1\n    tag_131:\n      dup2\n      sload\n      dup2\n      mstore\n      swap1\n      0x01\n      add\n      swap1\n      0x20\n      add\n      dup1\n      dup4\n      gt\n      tag_131\n      jumpi\n      dup3\n      swap1\n      sub\n      0x1f\n      and\n      dup3\n      add\n      swap2\n    tag_129:\n      pop\n      pop\n      pop\n      pop\n      pop\n      dup2\n      mstore\n      0x20\n      add\n      swap1\n      0x01\n      add\n      swap1\n      jump(tag_124)\n    tag_125:\n      pop\n      pop\n      pop\n      pop\n      dup2\n      mstore\n      pop\n      pop\n      swap1\n      pop\n        /* \"VDR.sol\":1666:1870  function getIssuer(... */\n      swap3\n      swap2\n      pop\n      pop\n      jump\t// out\n        /* \"VDR.sol\":1207:1660  function registerIssuer(... */\n    tag_43:\n        /* \"VDR.sol\":1356:1360  DIDs */\n      0x02\n        /* \"VDR.sol\":1361:1364  did */\n      dup7\n      dup7\n        /* \"VDR.sol\":1356:1365  DIDs[did] */\n      mload(0x40)\n      tag_133\n      swap3\n      swap2\n      swap1\n      tag_56\n      jump\t// in\n    tag_133:\n      swap1\n      dup2\n      mstore\n      0x20\n      add\n      mload(0x40)\n      dup1\n      swap2\n      sub\n      swap1\n      keccak256\n        /* \"VDR.sol\":1356:1371  DIDs[did].exist */\n      0x00\n      add\n      0x00\n      swap1\n      sload\n      swap1\n      0x0100\n      exp\n      swap1\n      div\n      0xff\n      and\n        /* \"VDR.sol\":1348:1399  require(DIDs[did].exist, \"There is no such a DID!\") */\n      tag_134\n      jumpi\n      mload(0x40)\n      0x08c379a000000000000000000000000000000000000000000000000000000000\n      dup2\n      mstore\n      0x04\n      add\n      tag_135\n      swap1\n      tag_136\n      jump\t// in\n    tag_135:\n      mload(0x40)\n      dup1\n      swap2\n      sub\n      swap1\n      revert\n    tag_134:\n        /* \"VDR.sol\":1431:1435  DIDs */\n      0x02\n        /* \"VDR.sol\":1436:1439  did */\n      dup7\n      dup7\n        /* \"VDR.sol\":1431:1440  DIDs[did] */\n      mload(0x40)\n      tag_137\n      swap3\n      swap2\n      swap1\n      tag_56\n      jump\t// in\n    tag_137:\n      swap1\n      dup2\n      mstore\n      0x20\n      add\n      mload(0x40)\n      dup1\n      swap2\n      sub\n      swap1\n      keccak256\n        /* \"VDR.sol\":1431:1443  DIDs[did].pk */\n      0x00\n      add\n      0x01\n      swap1\n      sload\n      swap1\n      0x0100\n      exp\n      swap1\n      div\n      0xffffffffffffffffffffffffffffffffffffffff\n      and\n        /* \"VDR.sol\":1417:1443  msg.sender == DIDs[did].pk */\n      0xffffffffffffffffffffffffffffffffffffffff\n      and\n        /* \"VDR.sol\":1417:1427  msg.sender */\n      caller\n        /* \"VDR.sol\":1417:1443  msg.sender == DIDs[did].pk */\n      0xffffffffffffffffffffffffffffffffffffffff\n      and\n      eq\n        /* \"VDR.sol\":1409:1466  require(msg.sender == DIDs[did].pk, \"You have no right!\") */\n      tag_138\n      jumpi\n      mload(0x40)\n      0x08c379a000000000000000000000000000000000000000000000000000000000\n      dup2\n      mstore\n      0x04\n      add\n      tag_139\n      swap1\n      tag_63\n      jump\t// in\n    tag_139:\n      mload(0x40)\n      dup1\n      swap2\n      sub\n      swap1\n      revert\n    tag_138:\n        /* \"VDR.sol\":1476:1504  validIssuer memory newIssuer */\n      0x00\n        /* \"VDR.sol\":1507:1616  validIssuer(... */\n      mload(0x40)\n      dup1\n      0x80\n      add\n      0x40\n      mstore\n      dup1\n        /* \"VDR.sol\":1532:1536  true */\n      0x01\n        /* \"VDR.sol\":1507:1616  validIssuer(... */\n      iszero\n      iszero\n      dup2\n      mstore\n      0x20\n      add\n        /* \"VDR.sol\":1550:1561  _methodType */\n      dup7\n      dup7\n        /* \"VDR.sol\":1507:1616  validIssuer(... */\n      dup1\n      dup1\n      0x1f\n      add\n      0x20\n      dup1\n      swap2\n      div\n      mul\n      0x20\n      add\n      mload(0x40)\n      swap1\n      dup2\n      add\n      0x40\n      mstore\n      dup1\n      swap4\n      swap3\n      swap2\n      swap1\n      dup2\n      dup2\n      mstore\n      0x20\n      add\n      dup4\n      dup4\n      dup1\n      dup3\n      dup5\n      calldatacopy\n      0x00\n      dup2\n      dup5\n      add\n      mstore\n      not(0x1f)\n      0x1f\n      dup3\n      add\n      and\n      swap1\n      pop\n      dup1\n      dup4\n      add\n      swap3\n      pop\n      pop\n      pop\n      pop\n      pop\n      pop\n      pop\n      dup2\n      mstore\n      0x20\n      add\n        /* \"VDR.sol\":1575:1577  pk */\n      dup5\n      dup5\n        /* \"VDR.sol\":1507:1616  validIssuer(... */\n      dup1\n      dup1\n      0x1f\n      add\n      0x20\n      dup1\n      swap2\n      div\n      mul\n      0x20\n      add\n      mload(0x40)\n      swap1\n      dup2\n      add\n      0x40\n      mstore\n      dup1\n      swap4\n      swap3\n      swap2\n      swap1\n      dup2\n      dup2\n      mstore\n      0x20\n      add\n      dup4\n      dup4\n      dup1\n      dup3\n      dup5\n      calldatacopy\n      0x00\n      dup2\n      dup5\n      add\n      mstore\n      not(0x1f)\n      0x1f\n      dup3\n      add\n      and\n      swap1\n      pop\n      dup1\n      dup4\n      add\n      swap3\n      pop\n      pop\n      pop\n      pop\n      pop\n      pop\n      pop\n      dup2\n      mstore\n      0x20\n      add\n        /* \"VDR.sol\":1604:1605  0 */\n      0x00\n        /* \"VDR.sol\":1591:1606  new string[](0) */\n      0xffffffffffffffff\n      dup2\n      gt\n      iszero\n      tag_140\n      jumpi\n      tag_141\n      tag_142\n      jump\t// in\n    tag_141:\n    tag_140:\n      mload(0x40)\n      swap1\n      dup1\n      dup3\n      mstore\n      dup1\n      0x20\n      mul\n      0x20\n      add\n      dup3\n      add\n      0x40\n      mstore\n      dup1\n      iszero\n      tag_143\n      jumpi\n      dup2\n      0x20\n      add\n    tag_144:\n      0x60\n      dup2\n      mstore\n      0x20\n      add\n      swap1\n      0x01\n      swap1\n      sub\n      swap1\n      dup2\n      tag_144\n      jumpi\n      swap1\n      pop\n    tag_143:\n      pop\n        /* \"VDR.sol\":1507:1616  validIssuer(... */\n      dup2\n      mstore\n      pop\n        /* \"VDR.sol\":1476:1616  validIssuer memory newIssuer = validIssuer(... */\n      swap1\n      pop\n        /* \"VDR.sol\":1644:1653  newIssuer */\n      dup1\n        /* \"VDR.sol\":1626:1636  issuerData */\n      0x03\n        /* \"VDR.sol\":1637:1640  did */\n      dup9\n      dup9\n        /* \"VDR.sol\":1626:1641  issuerData[did] */\n      mload(0x40)\n      tag_145\n      swap3\n      swap2\n      swap1\n      tag_56\n      jump\t// in\n    tag_145:\n      swap1\n      dup2\n      mstore\n      0x20\n      add\n      mload(0x40)\n      dup1\n      swap2\n      sub\n      swap1\n      keccak256\n        /* \"VDR.sol\":1626:1653  issuerData[did] = newIssuer */\n      0x00\n      dup3\n      add\n      mload\n      dup2\n      0x00\n      add\n      exp(0x0100, 0x00)\n      dup2\n      sload\n      dup2\n      0xff\n      mul\n      not\n      and\n      swap1\n      dup4\n      iszero\n      iszero\n      mul\n      or\n      swap1\n      sstore\n      pop\n      0x20\n      dup3\n      add\n      mload\n      dup2\n      0x01\n      add\n      swap1\n      dup2\n      tag_146\n      swap2\n      swap1\n      tag_147\n      jump\t// in\n    tag_146:\n      pop\n      0x40\n      dup3\n      add\n      mload\n      dup2\n      0x02\n      add\n      swap1\n      dup2\n      tag_148\n      swap2\n      swap1\n      tag_147\n      jump\t// in\n    tag_148:\n      pop\n      0x60\n      dup3\n      add\n      mload\n      dup2\n      0x03\n      add\n      swap1\n      dup1\n      mload\n      swap1\n      0x20\n      add\n      swap1\n      tag_149\n      swap3\n      swap2\n      swap1\n      tag_150\n      jump\t// in\n    tag_149:\n      pop\n      swap1\n      pop\n      pop\n        /* \"VDR.sol\":1338:1660  {... */\n      pop\n        /* \"VDR.sol\":1207:1660  function registerIssuer(... */\n      pop\n      pop\n      pop\n      pop\n      pop\n      pop\n      jump\t// out\n        /* \"VDR.sol\":688:736  mapping(string => validIssuer) public issuerData */\n    tag_46:\n      0x03\n      dup2\n      dup1\n      mload\n      0x20\n      dup2\n      add\n      dup3\n      add\n      dup1\n      mload\n      dup5\n      dup3\n      mstore\n      0x20\n      dup4\n      add\n      0x20\n      dup6\n      add\n      keccak256\n      dup2\n      dup4\n      mstore\n      dup1\n      swap6\n      pop\n      pop\n      pop\n      pop\n      pop\n      pop\n      0x00\n      swap2\n      pop\n      swap1\n      pop\n      dup1\n      0x00\n      add\n      0x00\n      swap1\n      sload\n      swap1\n      0x0100\n      exp\n      swap1\n      div\n      0xff\n      and\n      swap1\n      dup1\n      0x01\n      add\n      dup1\n      sload\n      tag_151\n      swap1\n      tag_114\n      jump\t// in\n    tag_151:\n      dup1\n      0x1f\n      add\n      0x20\n      dup1\n      swap2\n      div\n      mul\n      0x20\n      add\n      mload(0x40)\n      swap1\n      dup2\n      add\n      0x40\n      mstore\n      dup1\n      swap3\n      swap2\n      swap1\n      dup2\n      dup2\n      mstore\n      0x20\n      add\n      dup3\n      dup1\n      sload\n      tag_152\n      swap1\n      tag_114\n      jump\t// in\n    tag_152:\n      dup1\n      iszero\n      tag_153\n      jumpi\n      dup1\n      0x1f\n      lt\n      tag_154\n      jumpi\n      0x0100\n      dup1\n      dup4\n      sload\n      div\n      mul\n      dup4\n      mstore\n      swap2\n      0x20\n      add\n      swap2\n      jump(tag_153)\n    tag_154:\n      dup3\n      add\n      swap2\n      swap1\n      0x00\n      mstore\n      keccak256(0x00, 0x20)\n      swap1\n    tag_155:\n      dup2\n      sload\n      dup2\n      mstore\n      swap1\n      0x01\n      add\n      swap1\n      0x20\n      add\n      dup1\n      dup4\n      gt\n      tag_155\n      jumpi\n      dup3\n      swap1\n      sub\n      0x1f\n      and\n      dup3\n      add\n      swap2\n    tag_153:\n      pop\n      pop\n      pop\n      pop\n      pop\n      swap1\n      dup1\n      0x02\n      add\n      dup1\n      sload\n      tag_156\n      swap1\n      tag_114\n      jump\t// in\n    tag_156:\n      dup1\n      0x1f\n      add\n      0x20\n      dup1\n      swap2\n      div\n      mul\n      0x20\n      add\n      mload(0x40)\n      swap1\n      dup2\n      add\n      0x40\n      mstore\n      dup1\n      swap3\n      swap2\n      swap1\n      dup2\n      dup2\n      mstore\n      0x20\n      add\n      dup3\n      dup1\n      sload\n      tag_157\n      swap1\n      tag_114\n      jump\t// in\n    tag_157:\n      dup1\n      iszero\n      tag_158\n      jumpi\n      dup1\n      0x1f\n      lt\n      tag_159\n      jumpi\n      0x0100\n      dup1\n      dup4\n      sload\n      div\n      mul\n      dup4\n      mstore\n      swap2\n      0x20\n      add\n      swap2\n      jump(tag_158)\n    tag_159:\n      dup3\n      add\n      swap2\n      swap1\n      0x00\n      mstore\n      keccak256(0x00, 0x20)\n      swap1\n    tag_160:\n      dup2\n      sload\n      dup2\n      mstore\n      swap1\n      0x01\n      add\n      swap1\n      0x20\n      add\n      dup1\n      dup4\n      gt\n      tag_160\n      jumpi\n      dup3\n      swap1\n      sub\n      0x1f\n      and\n      dup3\n      add\n      swap2\n    tag_158:\n      pop\n      pop\n      pop\n      pop\n      pop\n      swap1\n      pop\n      dup4\n      jump\t// out\n        /* \"VDR.sol\":958:1201  function getDID(string calldata did) public view returns (DIDDoc memory) {... */\n    tag_51:\n        /* \"VDR.sol\":1016:1029  DIDDoc memory */\n      tag_161\n      tag_162\n      jump\t// in\n    tag_161:\n        /* \"VDR.sol\":1049:1053  DIDs */\n      0x02\n        /* \"VDR.sol\":1054:1057  did */\n      dup4\n      dup4\n        /* \"VDR.sol\":1049:1058  DIDs[did] */\n      mload(0x40)\n      tag_164\n      swap3\n      swap2\n      swap1\n      tag_56\n      jump\t// in\n    tag_164:\n      swap1\n      dup2\n      mstore\n      0x20\n      add\n      mload(0x40)\n      dup1\n      swap2\n      sub\n      swap1\n      keccak256\n        /* \"VDR.sol\":1049:1064  DIDs[did].exist */\n      0x00\n      add\n      0x00\n      swap1\n      sload\n      swap1\n      0x0100\n      exp\n      swap1\n      div\n      0xff\n      and\n        /* \"VDR.sol\":1041:1092  require(DIDs[did].exist, \"There is no such a DID!\") */\n      tag_165\n      jumpi\n      mload(0x40)\n      0x08c379a000000000000000000000000000000000000000000000000000000000\n      dup2\n      mstore\n      0x04\n      add\n      tag_166\n      swap1\n      tag_136\n      jump\t// in\n    tag_166:\n      mload(0x40)\n      dup1\n      swap2\n      sub\n      swap1\n      revert\n    tag_165:\n        /* \"VDR.sol\":1102:1122  DIDDoc memory result */\n      0x00\n        /* \"VDR.sol\":1125:1171  DIDDoc(did, DIDs[did].pk, methodType, context) */\n      mload(0x40)\n      dup1\n      0x80\n      add\n      0x40\n      mstore\n      dup1\n        /* \"VDR.sol\":1132:1135  did */\n      dup6\n      dup6\n        /* \"VDR.sol\":1125:1171  DIDDoc(did, DIDs[did].pk, methodType, context) */\n      dup1\n      dup1\n      0x1f\n      add\n      0x20\n      dup1\n      swap2\n      div\n      mul\n      0x20\n      add\n      mload(0x40)\n      swap1\n      dup2\n      add\n      0x40\n      mstore\n      dup1\n      swap4\n      swap3\n      swap2\n      swap1\n      dup2\n      dup2\n      mstore\n      0x20\n      add\n      dup4\n      dup4\n      dup1\n      dup3\n      dup5\n      calldatacopy\n      0x00\n      dup2\n      dup5\n      add\n      mstore\n      not(0x1f)\n      0x1f\n      dup3\n      add\n      and\n      swap1\n      pop\n      dup1\n      dup4\n      add\n      swap3\n      pop\n      pop\n      pop\n      pop\n      pop\n      pop\n      pop\n      dup2\n      mstore\n      0x20\n      add\n        /* \"VDR.sol\":1137:1141  DIDs */\n      0x02\n        /* \"VDR.sol\":1142:1145  did */\n      dup7\n      dup7\n        /* \"VDR.sol\":1137:1146  DIDs[did] */\n      mload(0x40)\n      tag_167\n      swap3\n      swap2\n      swap1\n      tag_56\n      jump\t// in\n    tag_167:\n      swap1\n      dup2\n      mstore\n      0x20\n      add\n      mload(0x40)\n      dup1\n      swap2\n      sub\n      swap1\n      keccak256\n        /* \"VDR.sol\":1137:1149  DIDs[did].pk */\n      0x00\n      add\n      0x01\n      swap1\n      sload\n      swap1\n      0x0100\n      exp\n      swap1\n      div\n      0xffffffffffffffffffffffffffffffffffffffff\n      and\n        /* \"VDR.sol\":1125:1171  DIDDoc(did, DIDs[did].pk, methodType, context) */\n      0xffffffffffffffffffffffffffffffffffffffff\n      and\n      dup2\n      mstore\n      0x20\n      add\n        /* \"VDR.sol\":1151:1161  methodType */\n      0x01\n        /* \"VDR.sol\":1125:1171  DIDDoc(did, DIDs[did].pk, methodType, context) */\n      dup1\n      sload\n      tag_168\n      swap1\n      tag_114\n      jump\t// in\n    tag_168:\n      dup1\n      0x1f\n      add\n      0x20\n      dup1\n      swap2\n      div\n      mul\n      0x20\n      add\n      mload(0x40)\n      swap1\n      dup2\n      add\n      0x40\n      mstore\n      dup1\n      swap3\n      swap2\n      swap1\n      dup2\n      dup2\n      mstore\n      0x20\n      add\n      dup3\n      dup1\n      sload\n      tag_169\n      swap1\n      tag_114\n      jump\t// in\n    tag_169:\n      dup1\n      iszero\n      tag_170\n      jumpi\n      dup1\n      0x1f\n      lt\n      tag_171\n      jumpi\n      0x0100\n      dup1\n      dup4\n      sload\n      div\n      mul\n      dup4\n      mstore\n      swap2\n      0x20\n      add\n      swap2\n      jump(tag_170)\n    tag_171:\n      dup3\n      add\n      swap2\n      swap1\n      0x00\n      mstore\n      keccak256(0x00, 0x20)\n      swap1\n    tag_172:\n      dup2\n      sload\n      dup2\n      mstore\n      swap1\n      0x01\n      add\n      swap1\n      0x20\n      add\n      dup1\n      dup4\n      gt\n      tag_172\n      jumpi\n      dup3\n      swap1\n      sub\n      0x1f\n      and\n      dup3\n      add\n      swap2\n    tag_170:\n      pop\n      pop\n      pop\n      pop\n      pop\n      dup2\n      mstore\n      0x20\n      add\n        /* \"VDR.sol\":1163:1170  context */\n      0x00\n        /* \"VDR.sol\":1125:1171  DIDDoc(did, DIDs[did].pk, methodType, context) */\n      dup1\n      sload\n      dup1\n      0x20\n      mul\n      0x20\n      add\n      mload(0x40)\n      swap1\n      dup2\n      add\n      0x40\n      mstore\n      dup1\n      swap3\n      swap2\n      swap1\n      dup2\n      dup2\n      mstore\n      0x20\n      add\n      0x00\n      swap1\n    tag_173:\n      dup3\n      dup3\n      lt\n      iszero\n      tag_174\n      jumpi\n      dup4\n      dup3\n      swap1\n      0x00\n      mstore\n      keccak256(0x00, 0x20)\n      add\n      dup1\n      sload\n      tag_176\n      swap1\n      tag_114\n      jump\t// in\n    tag_176:\n      dup1\n      0x1f\n      add\n      0x20\n      dup1\n      swap2\n      div\n      mul\n      0x20\n      add\n      mload(0x40)\n      swap1\n      dup2\n      add\n      0x40\n      mstore\n      dup1\n      swap3\n      swap2\n      swap1\n      dup2\n      dup2\n      mstore\n      0x20\n      add\n      dup3\n      dup1\n      sload\n      tag_177\n      swap1\n      tag_114\n      jump\t// in\n    tag_177:\n      dup1\n      iszero\n      tag_178\n      jumpi\n      dup1\n      0x1f\n      lt\n      tag_179\n      jumpi\n      0x0100\n      dup1\n      dup4\n      sload\n      div\n      mul\n      dup4\n      mstore\n      swap2\n      0x20\n      add\n      swap2\n      jump(tag_178)\n    tag_179:\n      dup3\n      add\n      swap2\n      swap1\n      0x00\n      mstore\n      keccak256(0x00, 0x20)\n      swap1\n    tag_180:\n      dup2\n      sload\n      dup2\n      mstore\n      swap1\n      0x01\n      add\n      swap1\n      0x20\n      add\n      dup1\n      dup4\n      gt\n      tag_180\n      jumpi\n      dup3\n      swap1\n      sub\n      0x1f\n      and\n      dup3\n      add\n      swap2\n    tag_178:\n      pop\n      pop\n      pop\n      pop\n      pop\n      dup2\n      mstore\n      0x20\n      add\n      swap1\n      0x01\n      add\n      swap1\n      jump(tag_173)\n    tag_174:\n      pop\n      pop\n      pop\n      pop\n      dup2\n      mstore\n      pop\n        /* \"VDR.sol\":1102:1171  DIDDoc memory result = DIDDoc(did, DIDs[did].pk, methodType, context) */\n      swap1\n      pop\n        /* \"VDR.sol\":1188:1194  result */\n      dup1\n        /* \"VDR.sol\":1181:1194  return result */\n      swap2\n      pop\n      pop\n        /* \"VDR.sol\":958:1201  function getDID(string calldata did) public view returns (DIDDoc memory) {... */\n      swap3\n      swap2\n      pop\n      pop\n      jump\t// out\n    tag_102:\n      pop\n      dup1\n      sload\n      tag_181\n      swap1\n      tag_114\n      jump\t// in\n    tag_181:\n      0x00\n      dup3\n      sstore\n      dup1\n      0x1f\n      lt\n      tag_183\n      jumpi\n      pop\n      jump(tag_182)\n    tag_183:\n      0x1f\n      add\n      0x20\n      swap1\n      div\n      swap1\n      0x00\n      mstore\n      keccak256(0x00, 0x20)\n      swap1\n      dup2\n      add\n      swap1\n      tag_184\n      swap2\n      swap1\n      tag_185\n      jump\t// in\n    tag_184:\n    tag_182:\n      pop\n      jump\t// out\n    tag_105:\n      pop\n      dup1\n      sload\n      0x00\n      dup3\n      sstore\n      swap1\n      0x00\n      mstore\n      keccak256(0x00, 0x20)\n      swap1\n      dup2\n      add\n      swap1\n      tag_187\n      swap2\n      swap1\n      tag_188\n      jump\t// in\n    tag_187:\n      pop\n      jump\t// out\n    tag_107:\n      mload(0x40)\n      dup1\n      0x80\n      add\n      0x40\n      mstore\n      dup1\n      iszero(iszero(0x00))\n      dup2\n      mstore\n      0x20\n      add\n      0x60\n      dup2\n      mstore\n      0x20\n      add\n      0x60\n      dup2\n      mstore\n      0x20\n      add\n      0x60\n      dup2\n      mstore\n      pop\n      swap1\n      jump\t// out\n    tag_150:\n      dup3\n      dup1\n      sload\n      dup3\n      dup3\n      sstore\n      swap1\n      0x00\n      mstore\n      keccak256(0x00, 0x20)\n      swap1\n      dup2\n      add\n      swap3\n      dup3\n      iszero\n      tag_189\n      jumpi\n      swap2\n      0x20\n      mul\n      dup3\n      add\n    tag_190:\n      dup3\n      dup2\n      gt\n      iszero\n      tag_191\n      jumpi\n      dup3\n      mload\n      dup3\n      swap1\n      dup2\n      tag_192\n      swap2\n      swap1\n      tag_147\n      jump\t// in\n    tag_192:\n      pop\n      swap2\n      0x20\n      add\n      swap2\n      swap1\n      0x01\n      add\n      swap1\n      jump(tag_190)\n    tag_191:\n    tag_189:\n      pop\n      swap1\n      pop\n      tag_193\n      swap2\n      swap1\n      tag_188\n      jump\t// in\n    tag_193:\n      pop\n      swap1\n      jump\t// out\n    tag_162:\n      mload(0x40)\n      dup1\n      0x80\n      add\n      0x40\n      mstore\n      dup1\n      0x60\n      dup2\n      mstore\n      0x20\n      add\n      and(0xffffffffffffffffffffffffffffffffffffffff, 0x00)\n      dup2\n      mstore\n      0x20\n      add\n      0x60\n      dup2\n      mstore\n      0x20\n      add\n      0x60\n      dup2\n      mstore\n      pop\n      swap1\n      jump\t// out\n    tag_185:\n    tag_194:\n      dup1\n      dup3\n      gt\n      iszero\n      tag_195\n      jumpi\n      0x00\n      dup2\n      0x00\n      swap1\n      sstore\n      pop\n      0x01\n      add\n      jump(tag_194)\n    tag_195:\n      pop\n      swap1\n      jump\t// out\n    tag_188:\n    tag_196:\n      dup1\n      dup3\n      gt\n      iszero\n      tag_197\n      jumpi\n      0x00\n      dup2\n      dup2\n      tag_198\n      swap2\n      swap1\n      tag_102\n      jump\t// in\n    tag_198:\n      pop\n      0x01\n      add\n      jump(tag_196)\n    tag_197:\n      pop\n      swap1\n      jump\t// out\n        /* \"#utility.yul\":7:82   */\n    tag_199:\n        /* \"#utility.yul\":40:46   */\n      0x00\n        /* \"#utility.yul\":73:75   */\n      0x40\n        /* \"#utility.yul\":67:76   */\n      mload\n        /* \"#utility.yul\":57:76   */\n      swap1\n      pop\n        /* \"#utility.yul\":7:82   */\n      swap1\n      jump\t// out\n        /* \"#utility.yul\":88:205   */\n    tag_200:\n        /* \"#utility.yul\":197:198   */\n      0x00\n        /* \"#utility.yul\":194:195   */\n      0x00\n        /* \"#utility.yul\":187:199   */\n      revert\n        /* \"#utility.yul\":211:328   */\n    tag_201:\n        /* \"#utility.yul\":320:321   */\n      0x00\n        /* \"#utility.yul\":317:318   */\n      0x00\n        /* \"#utility.yul\":310:322   */\n      revert\n        /* \"#utility.yul\":334:451   */\n    tag_202:\n        /* \"#utility.yul\":443:444   */\n      0x00\n        /* \"#utility.yul\":440:441   */\n      0x00\n        /* \"#utility.yul\":433:445   */\n      revert\n        /* \"#utility.yul\":457:574   */\n    tag_203:\n        /* \"#utility.yul\":566:567   */\n      0x00\n        /* \"#utility.yul\":563:564   */\n      0x00\n        /* \"#utility.yul\":556:568   */\n      revert\n        /* \"#utility.yul\":580:697   */\n    tag_204:\n        /* \"#utility.yul\":689:690   */\n      0x00\n        /* \"#utility.yul\":686:687   */\n      0x00\n        /* \"#utility.yul\":679:691   */\n      revert\n        /* \"#utility.yul\":717:1270   */\n    tag_205:\n        /* \"#utility.yul\":775:783   */\n      0x00\n        /* \"#utility.yul\":785:791   */\n      0x00\n        /* \"#utility.yul\":835:838   */\n      dup4\n        /* \"#utility.yul\":828:832   */\n      0x1f\n        /* \"#utility.yul\":820:826   */\n      dup5\n        /* \"#utility.yul\":816:833   */\n      add\n        /* \"#utility.yul\":812:839   */\n      slt\n        /* \"#utility.yul\":802:924   */\n      tag_274\n      jumpi\n        /* \"#utility.yul\":843:922   */\n      tag_275\n      tag_202\n      jump\t// in\n    tag_275:\n        /* \"#utility.yul\":802:924   */\n    tag_274:\n        /* \"#utility.yul\":956:962   */\n      dup3\n        /* \"#utility.yul\":943:963   */\n      calldataload\n        /* \"#utility.yul\":933:963   */\n      swap1\n      pop\n        /* \"#utility.yul\":986:1004   */\n      0xffffffffffffffff\n        /* \"#utility.yul\":978:984   */\n      dup2\n        /* \"#utility.yul\":975:1005   */\n      gt\n        /* \"#utility.yul\":972:1089   */\n      iszero\n      tag_276\n      jumpi\n        /* \"#utility.yul\":1008:1087   */\n      tag_277\n      tag_203\n      jump\t// in\n    tag_277:\n        /* \"#utility.yul\":972:1089   */\n    tag_276:\n        /* \"#utility.yul\":1122:1126   */\n      0x20\n        /* \"#utility.yul\":1114:1120   */\n      dup4\n        /* \"#utility.yul\":1110:1127   */\n      add\n        /* \"#utility.yul\":1098:1127   */\n      swap2\n      pop\n        /* \"#utility.yul\":1176:1179   */\n      dup4\n        /* \"#utility.yul\":1168:1172   */\n      0x01\n        /* \"#utility.yul\":1160:1166   */\n      dup3\n        /* \"#utility.yul\":1156:1173   */\n      mul\n        /* \"#utility.yul\":1146:1154   */\n      dup4\n        /* \"#utility.yul\":1142:1174   */\n      add\n        /* \"#utility.yul\":1139:1180   */\n      gt\n        /* \"#utility.yul\":1136:1264   */\n      iszero\n      tag_278\n      jumpi\n        /* \"#utility.yul\":1183:1262   */\n      tag_279\n      tag_204\n      jump\t// in\n    tag_279:\n        /* \"#utility.yul\":1136:1264   */\n    tag_278:\n        /* \"#utility.yul\":717:1270   */\n      swap3\n      pop\n      swap3\n      swap1\n      pop\n      jump\t// out\n        /* \"#utility.yul\":1276:2150   */\n    tag_15:\n        /* \"#utility.yul\":1368:1374   */\n      0x00\n        /* \"#utility.yul\":1376:1382   */\n      0x00\n        /* \"#utility.yul\":1384:1390   */\n      0x00\n        /* \"#utility.yul\":1392:1398   */\n      0x00\n        /* \"#utility.yul\":1441:1443   */\n      0x40\n        /* \"#utility.yul\":1429:1438   */\n      dup6\n        /* \"#utility.yul\":1420:1427   */\n      dup8\n        /* \"#utility.yul\":1416:1439   */\n      sub\n        /* \"#utility.yul\":1412:1444   */\n      slt\n        /* \"#utility.yul\":1409:1528   */\n      iszero\n      tag_281\n      jumpi\n        /* \"#utility.yul\":1447:1526   */\n      tag_282\n      tag_200\n      jump\t// in\n    tag_282:\n        /* \"#utility.yul\":1409:1528   */\n    tag_281:\n        /* \"#utility.yul\":1595:1596   */\n      0x00\n        /* \"#utility.yul\":1584:1593   */\n      dup6\n        /* \"#utility.yul\":1580:1597   */\n      add\n        /* \"#utility.yul\":1567:1598   */\n      calldataload\n        /* \"#utility.yul\":1625:1643   */\n      0xffffffffffffffff\n        /* \"#utility.yul\":1617:1623   */\n      dup2\n        /* \"#utility.yul\":1614:1644   */\n      gt\n        /* \"#utility.yul\":1611:1728   */\n      iszero\n      tag_283\n      jumpi\n        /* \"#utility.yul\":1647:1726   */\n      tag_284\n      tag_201\n      jump\t// in\n    tag_284:\n        /* \"#utility.yul\":1611:1728   */\n    tag_283:\n        /* \"#utility.yul\":1760:1825   */\n      tag_285\n        /* \"#utility.yul\":1817:1824   */\n      dup8\n        /* \"#utility.yul\":1808:1814   */\n      dup3\n        /* \"#utility.yul\":1797:1806   */\n      dup9\n        /* \"#utility.yul\":1793:1815   */\n      add\n        /* \"#utility.yul\":1760:1825   */\n      tag_205\n      jump\t// in\n    tag_285:\n        /* \"#utility.yul\":1742:1825   */\n      swap5\n      pop\n      swap5\n      pop\n        /* \"#utility.yul\":1538:1835   */\n      pop\n        /* \"#utility.yul\":1902:1904   */\n      0x20\n        /* \"#utility.yul\":1891:1900   */\n      dup6\n        /* \"#utility.yul\":1887:1905   */\n      add\n        /* \"#utility.yul\":1874:1906   */\n      calldataload\n        /* \"#utility.yul\":1933:1951   */\n      0xffffffffffffffff\n        /* \"#utility.yul\":1925:1931   */\n      dup2\n        /* \"#utility.yul\":1922:1952   */\n      gt\n        /* \"#utility.yul\":1919:2036   */\n      iszero\n      tag_286\n      jumpi\n        /* \"#utility.yul\":1955:2034   */\n      tag_287\n      tag_201\n      jump\t// in\n    tag_287:\n        /* \"#utility.yul\":1919:2036   */\n    tag_286:\n        /* \"#utility.yul\":2068:2133   */\n      tag_288\n        /* \"#utility.yul\":2125:2132   */\n      dup8\n        /* \"#utility.yul\":2116:2122   */\n      dup3\n        /* \"#utility.yul\":2105:2114   */\n      dup9\n        /* \"#utility.yul\":2101:2123   */\n      add\n        /* \"#utility.yul\":2068:2133   */\n      tag_205\n      jump\t// in\n    tag_288:\n        /* \"#utility.yul\":2050:2133   */\n      swap3\n      pop\n      swap3\n      pop\n        /* \"#utility.yul\":1845:2143   */\n      pop\n        /* \"#utility.yul\":1276:2150   */\n      swap3\n      swap6\n      swap2\n      swap5\n      pop\n      swap3\n      pop\n      jump\t// out\n        /* \"#utility.yul\":2156:2273   */\n    tag_206:\n        /* \"#utility.yul\":2265:2266   */\n      0x00\n        /* \"#utility.yul\":2262:2263   */\n      0x00\n        /* \"#utility.yul\":2255:2267   */\n      revert\n        /* \"#utility.yul\":2279:2381   */\n    tag_207:\n        /* \"#utility.yul\":2320:2326   */\n      0x00\n        /* \"#utility.yul\":2371:2373   */\n      0x1f\n        /* \"#utility.yul\":2367:2374   */\n      not\n        /* \"#utility.yul\":2362:2364   */\n      0x1f\n        /* \"#utility.yul\":2355:2360   */\n      dup4\n        /* \"#utility.yul\":2351:2365   */\n      add\n        /* \"#utility.yul\":2347:2375   */\n      and\n        /* \"#utility.yul\":2337:2375   */\n      swap1\n      pop\n        /* \"#utility.yul\":2279:2381   */\n      swap2\n      swap1\n      pop\n      jump\t// out\n        /* \"#utility.yul\":2387:2567   */\n    tag_142:\n        /* \"#utility.yul\":2435:2512   */\n      0x4e487b7100000000000000000000000000000000000000000000000000000000\n        /* \"#utility.yul\":2432:2433   */\n      0x00\n        /* \"#utility.yul\":2425:2513   */\n      mstore\n        /* \"#utility.yul\":2532:2536   */\n      0x41\n        /* \"#utility.yul\":2529:2530   */\n      0x04\n        /* \"#utility.yul\":2522:2537   */\n      mstore\n        /* \"#utility.yul\":2556:2560   */\n      0x24\n        /* \"#utility.yul\":2553:2554   */\n      0x00\n        /* \"#utility.yul\":2546:2561   */\n      revert\n        /* \"#utility.yul\":2573:2854   */\n    tag_208:\n        /* \"#utility.yul\":2656:2683   */\n      tag_293\n        /* \"#utility.yul\":2678:2682   */\n      dup3\n        /* \"#utility.yul\":2656:2683   */\n      tag_207\n      jump\t// in\n    tag_293:\n        /* \"#utility.yul\":2648:2654   */\n      dup2\n        /* \"#utility.yul\":2644:2684   */\n      add\n        /* \"#utility.yul\":2786:2792   */\n      dup2\n        /* \"#utility.yul\":2774:2784   */\n      dup2\n        /* \"#utility.yul\":2771:2793   */\n      lt\n        /* \"#utility.yul\":2750:2768   */\n      0xffffffffffffffff\n        /* \"#utility.yul\":2738:2748   */\n      dup3\n        /* \"#utility.yul\":2735:2769   */\n      gt\n        /* \"#utility.yul\":2732:2794   */\n      or\n        /* \"#utility.yul\":2729:2817   */\n      iszero\n      tag_294\n      jumpi\n        /* \"#utility.yul\":2797:2815   */\n      tag_295\n      tag_142\n      jump\t// in\n    tag_295:\n        /* \"#utility.yul\":2729:2817   */\n    tag_294:\n        /* \"#utility.yul\":2837:2847   */\n      dup1\n        /* \"#utility.yul\":2833:2835   */\n      0x40\n        /* \"#utility.yul\":2826:2848   */\n      mstore\n        /* \"#utility.yul\":2616:2854   */\n      pop\n        /* \"#utility.yul\":2573:2854   */\n      pop\n      pop\n      jump\t// out\n        /* \"#utility.yul\":2860:2989   */\n    tag_209:\n        /* \"#utility.yul\":2894:2900   */\n      0x00\n        /* \"#utility.yul\":2921:2941   */\n      tag_297\n      tag_199\n      jump\t// in\n    tag_297:\n        /* \"#utility.yul\":2911:2941   */\n      swap1\n      pop\n        /* \"#utility.yul\":2950:2983   */\n      tag_298\n        /* \"#utility.yul\":2978:2982   */\n      dup3\n        /* \"#utility.yul\":2970:2976   */\n      dup3\n        /* \"#utility.yul\":2950:2983   */\n      tag_208\n      jump\t// in\n    tag_298:\n        /* \"#utility.yul\":2860:2989   */\n      swap2\n      swap1\n      pop\n      jump\t// out\n        /* \"#utility.yul\":2995:3303   */\n    tag_210:\n        /* \"#utility.yul\":3057:3061   */\n      0x00\n        /* \"#utility.yul\":3147:3165   */\n      0xffffffffffffffff\n        /* \"#utility.yul\":3139:3145   */\n      dup3\n        /* \"#utility.yul\":3136:3166   */\n      gt\n        /* \"#utility.yul\":3133:3189   */\n      iszero\n      tag_300\n      jumpi\n        /* \"#utility.yul\":3169:3187   */\n      tag_301\n      tag_142\n      jump\t// in\n    tag_301:\n        /* \"#utility.yul\":3133:3189   */\n    tag_300:\n        /* \"#utility.yul\":3207:3236   */\n      tag_302\n        /* \"#utility.yul\":3229:3235   */\n      dup3\n        /* \"#utility.yul\":3207:3236   */\n      tag_207\n      jump\t// in\n    tag_302:\n        /* \"#utility.yul\":3199:3236   */\n      swap1\n      pop\n        /* \"#utility.yul\":3291:3295   */\n      0x20\n        /* \"#utility.yul\":3285:3289   */\n      dup2\n        /* \"#utility.yul\":3281:3296   */\n      add\n        /* \"#utility.yul\":3273:3296   */\n      swap1\n      pop\n        /* \"#utility.yul\":2995:3303   */\n      swap2\n      swap1\n      pop\n      jump\t// out\n        /* \"#utility.yul\":3309:3457   */\n    tag_211:\n        /* \"#utility.yul\":3407:3413   */\n      dup3\n        /* \"#utility.yul\":3402:3405   */\n      dup2\n        /* \"#utility.yul\":3397:3400   */\n      dup4\n        /* \"#utility.yul\":3384:3414   */\n      calldatacopy\n        /* \"#utility.yul\":3448:3449   */\n      0x00\n        /* \"#utility.yul\":3439:3445   */\n      dup4\n        /* \"#utility.yul\":3434:3437   */\n      dup4\n        /* \"#utility.yul\":3430:3446   */\n      add\n        /* \"#utility.yul\":3423:3450   */\n      mstore\n        /* \"#utility.yul\":3309:3457   */\n      pop\n      pop\n      pop\n      jump\t// out\n        /* \"#utility.yul\":3463:3888   */\n    tag_212:\n        /* \"#utility.yul\":3541:3546   */\n      0x00\n        /* \"#utility.yul\":3566:3632   */\n      tag_305\n        /* \"#utility.yul\":3582:3631   */\n      tag_306\n        /* \"#utility.yul\":3624:3630   */\n      dup5\n        /* \"#utility.yul\":3582:3631   */\n      tag_210\n      jump\t// in\n    tag_306:\n        /* \"#utility.yul\":3566:3632   */\n      tag_209\n      jump\t// in\n    tag_305:\n        /* \"#utility.yul\":3557:3632   */\n      swap1\n      pop\n        /* \"#utility.yul\":3655:3661   */\n      dup3\n        /* \"#utility.yul\":3648:3653   */\n      dup2\n        /* \"#utility.yul\":3641:3662   */\n      mstore\n        /* \"#utility.yul\":3693:3697   */\n      0x20\n        /* \"#utility.yul\":3686:3691   */\n      dup2\n        /* \"#utility.yul\":3682:3698   */\n      add\n        /* \"#utility.yul\":3731:3734   */\n      dup5\n        /* \"#utility.yul\":3722:3728   */\n      dup5\n        /* \"#utility.yul\":3717:3720   */\n      dup5\n        /* \"#utility.yul\":3713:3729   */\n      add\n        /* \"#utility.yul\":3710:3735   */\n      gt\n        /* \"#utility.yul\":3707:3819   */\n      iszero\n      tag_307\n      jumpi\n        /* \"#utility.yul\":3738:3817   */\n      tag_308\n      tag_206\n      jump\t// in\n    tag_308:\n        /* \"#utility.yul\":3707:3819   */\n    tag_307:\n        /* \"#utility.yul\":3828:3882   */\n      tag_309\n        /* \"#utility.yul\":3875:3881   */\n      dup5\n        /* \"#utility.yul\":3870:3873   */\n      dup3\n        /* \"#utility.yul\":3865:3868   */\n      dup6\n        /* \"#utility.yul\":3828:3882   */\n      tag_211\n      jump\t// in\n    tag_309:\n        /* \"#utility.yul\":3547:3888   */\n      pop\n        /* \"#utility.yul\":3463:3888   */\n      swap4\n      swap3\n      pop\n      pop\n      pop\n      jump\t// out\n        /* \"#utility.yul\":3908:4248   */\n    tag_213:\n        /* \"#utility.yul\":3964:3969   */\n      0x00\n        /* \"#utility.yul\":4013:4016   */\n      dup3\n        /* \"#utility.yul\":4006:4010   */\n      0x1f\n        /* \"#utility.yul\":3998:4004   */\n      dup4\n        /* \"#utility.yul\":3994:4011   */\n      add\n        /* \"#utility.yul\":3990:4017   */\n      slt\n        /* \"#utility.yul\":3980:4102   */\n      tag_311\n      jumpi\n        /* \"#utility.yul\":4021:4100   */\n      tag_312\n      tag_202\n      jump\t// in\n    tag_312:\n        /* \"#utility.yul\":3980:4102   */\n    tag_311:\n        /* \"#utility.yul\":4138:4144   */\n      dup2\n        /* \"#utility.yul\":4125:4145   */\n      calldataload\n        /* \"#utility.yul\":4163:4242   */\n      tag_313\n        /* \"#utility.yul\":4238:4241   */\n      dup5\n        /* \"#utility.yul\":4230:4236   */\n      dup3\n        /* \"#utility.yul\":4223:4227   */\n      0x20\n        /* \"#utility.yul\":4215:4221   */\n      dup7\n        /* \"#utility.yul\":4211:4228   */\n      add\n        /* \"#utility.yul\":4163:4242   */\n      tag_212\n      jump\t// in\n    tag_313:\n        /* \"#utility.yul\":4154:4242   */\n      swap2\n      pop\n        /* \"#utility.yul\":3970:4248   */\n      pop\n        /* \"#utility.yul\":3908:4248   */\n      swap3\n      swap2\n      pop\n      pop\n      jump\t// out\n        /* \"#utility.yul\":4254:4763   */\n    tag_19:\n        /* \"#utility.yul\":4323:4329   */\n      0x00\n        /* \"#utility.yul\":4372:4374   */\n      0x20\n        /* \"#utility.yul\":4360:4369   */\n      dup3\n        /* \"#utility.yul\":4351:4358   */\n      dup5\n        /* \"#utility.yul\":4347:4370   */\n      sub\n        /* \"#utility.yul\":4343:4375   */\n      slt\n        /* \"#utility.yul\":4340:4459   */\n      iszero\n      tag_315\n      jumpi\n        /* \"#utility.yul\":4378:4457   */\n      tag_316\n      tag_200\n      jump\t// in\n    tag_316:\n        /* \"#utility.yul\":4340:4459   */\n    tag_315:\n        /* \"#utility.yul\":4526:4527   */\n      0x00\n        /* \"#utility.yul\":4515:4524   */\n      dup3\n        /* \"#utility.yul\":4511:4528   */\n      add\n        /* \"#utility.yul\":4498:4529   */\n      calldataload\n        /* \"#utility.yul\":4556:4574   */\n      0xffffffffffffffff\n        /* \"#utility.yul\":4548:4554   */\n      dup2\n        /* \"#utility.yul\":4545:4575   */\n      gt\n        /* \"#utility.yul\":4542:4659   */\n      iszero\n      tag_317\n      jumpi\n        /* \"#utility.yul\":4578:4657   */\n      tag_318\n      tag_201\n      jump\t// in\n    tag_318:\n        /* \"#utility.yul\":4542:4659   */\n    tag_317:\n        /* \"#utility.yul\":4683:4746   */\n      tag_319\n        /* \"#utility.yul\":4738:4745   */\n      dup5\n        /* \"#utility.yul\":4729:4735   */\n      dup3\n        /* \"#utility.yul\":4718:4727   */\n      dup6\n        /* \"#utility.yul\":4714:4736   */\n      add\n        /* \"#utility.yul\":4683:4746   */\n      tag_213\n      jump\t// in\n    tag_319:\n        /* \"#utility.yul\":4673:4746   */\n      swap2\n      pop\n        /* \"#utility.yul\":4469:4756   */\n      pop\n        /* \"#utility.yul\":4254:4763   */\n      swap3\n      swap2\n      pop\n      pop\n      jump\t// out\n        /* \"#utility.yul\":4769:4859   */\n    tag_214:\n        /* \"#utility.yul\":4803:4810   */\n      0x00\n        /* \"#utility.yul\":4846:4851   */\n      dup2\n        /* \"#utility.yul\":4839:4852   */\n      iszero\n        /* \"#utility.yul\":4832:4853   */\n      iszero\n        /* \"#utility.yul\":4821:4853   */\n      swap1\n      pop\n        /* \"#utility.yul\":4769:4859   */\n      swap2\n      swap1\n      pop\n      jump\t// out\n        /* \"#utility.yul\":4865:4974   */\n    tag_215:\n        /* \"#utility.yul\":4946:4967   */\n      tag_322\n        /* \"#utility.yul\":4961:4966   */\n      dup2\n        /* \"#utility.yul\":4946:4967   */\n      tag_214\n      jump\t// in\n    tag_322:\n        /* \"#utility.yul\":4941:4944   */\n      dup3\n        /* \"#utility.yul\":4934:4968   */\n      mstore\n        /* \"#utility.yul\":4865:4974   */\n      pop\n      pop\n      jump\t// out\n        /* \"#utility.yul\":4980:5106   */\n    tag_216:\n        /* \"#utility.yul\":5017:5024   */\n      0x00\n        /* \"#utility.yul\":5057:5099   */\n      0xffffffffffffffffffffffffffffffffffffffff\n        /* \"#utility.yul\":5050:5055   */\n      dup3\n        /* \"#utility.yul\":5046:5100   */\n      and\n        /* \"#utility.yul\":5035:5100   */\n      swap1\n      pop\n        /* \"#utility.yul\":4980:5106   */\n      swap2\n      swap1\n      pop\n      jump\t// out\n        /* \"#utility.yul\":5112:5208   */\n    tag_217:\n        /* \"#utility.yul\":5149:5156   */\n      0x00\n        /* \"#utility.yul\":5178:5202   */\n      tag_325\n        /* \"#utility.yul\":5196:5201   */\n      dup3\n        /* \"#utility.yul\":5178:5202   */\n      tag_216\n      jump\t// in\n    tag_325:\n        /* \"#utility.yul\":5167:5202   */\n      swap1\n      pop\n        /* \"#utility.yul\":5112:5208   */\n      swap2\n      swap1\n      pop\n      jump\t// out\n        /* \"#utility.yul\":5214:5332   */\n    tag_218:\n        /* \"#utility.yul\":5301:5325   */\n      tag_327\n        /* \"#utility.yul\":5319:5324   */\n      dup2\n        /* \"#utility.yul\":5301:5325   */\n      tag_217\n      jump\t// in\n    tag_327:\n        /* \"#utility.yul\":5296:5299   */\n      dup3\n        /* \"#utility.yul\":5289:5326   */\n      mstore\n        /* \"#utility.yul\":5214:5332   */\n      pop\n      pop\n      jump\t// out\n        /* \"#utility.yul\":5338:5658   */\n    tag_22:\n        /* \"#utility.yul\":5453:5457   */\n      0x00\n        /* \"#utility.yul\":5491:5493   */\n      0x40\n        /* \"#utility.yul\":5480:5489   */\n      dup3\n        /* \"#utility.yul\":5476:5494   */\n      add\n        /* \"#utility.yul\":5468:5494   */\n      swap1\n      pop\n        /* \"#utility.yul\":5504:5569   */\n      tag_329\n        /* \"#utility.yul\":5566:5567   */\n      0x00\n        /* \"#utility.yul\":5555:5564   */\n      dup4\n        /* \"#utility.yul\":5551:5568   */\n      add\n        /* \"#utility.yul\":5542:5548   */\n      dup6\n        /* \"#utility.yul\":5504:5569   */\n      tag_215\n      jump\t// in\n    tag_329:\n        /* \"#utility.yul\":5579:5651   */\n      tag_330\n        /* \"#utility.yul\":5647:5649   */\n      0x20\n        /* \"#utility.yul\":5636:5645   */\n      dup4\n        /* \"#utility.yul\":5632:5650   */\n      add\n        /* \"#utility.yul\":5623:5629   */\n      dup5\n        /* \"#utility.yul\":5579:5651   */\n      tag_218\n      jump\t// in\n    tag_330:\n        /* \"#utility.yul\":5338:5658   */\n      swap4\n      swap3\n      pop\n      pop\n      pop\n      jump\t// out\n        /* \"#utility.yul\":5664:5874   */\n    tag_27:\n        /* \"#utility.yul\":5751:5755   */\n      0x00\n        /* \"#utility.yul\":5789:5791   */\n      0x20\n        /* \"#utility.yul\":5778:5787   */\n      dup3\n        /* \"#utility.yul\":5774:5792   */\n      add\n        /* \"#utility.yul\":5766:5792   */\n      swap1\n      pop\n        /* \"#utility.yul\":5802:5867   */\n      tag_332\n        /* \"#utility.yul\":5864:5865   */\n      0x00\n        /* \"#utility.yul\":5853:5862   */\n      dup4\n        /* \"#utility.yul\":5849:5866   */\n      add\n        /* \"#utility.yul\":5840:5846   */\n      dup5\n        /* \"#utility.yul\":5802:5867   */\n      tag_215\n      jump\t// in\n    tag_332:\n        /* \"#utility.yul\":5664:5874   */\n      swap3\n      swap2\n      pop\n      pop\n      jump\t// out\n        /* \"#utility.yul\":5880:6409   */\n    tag_33:\n        /* \"#utility.yul\":5951:5957   */\n      0x00\n        /* \"#utility.yul\":5959:5965   */\n      0x00\n        /* \"#utility.yul\":6008:6010   */\n      0x20\n        /* \"#utility.yul\":5996:6005   */\n      dup4\n        /* \"#utility.yul\":5987:5994   */\n      dup6\n        /* \"#utility.yul\":5983:6006   */\n      sub\n        /* \"#utility.yul\":5979:6011   */\n      slt\n        /* \"#utility.yul\":5976:6095   */\n      iszero\n      tag_334\n      jumpi\n        /* \"#utility.yul\":6014:6093   */\n      tag_335\n      tag_200\n      jump\t// in\n    tag_335:\n        /* \"#utility.yul\":5976:6095   */\n    tag_334:\n        /* \"#utility.yul\":6162:6163   */\n      0x00\n        /* \"#utility.yul\":6151:6160   */\n      dup4\n        /* \"#utility.yul\":6147:6164   */\n      add\n        /* \"#utility.yul\":6134:6165   */\n      calldataload\n        /* \"#utility.yul\":6192:6210   */\n      0xffffffffffffffff\n        /* \"#utility.yul\":6184:6190   */\n      dup2\n        /* \"#utility.yul\":6181:6211   */\n      gt\n        /* \"#utility.yul\":6178:6295   */\n      iszero\n      tag_336\n      jumpi\n        /* \"#utility.yul\":6214:6293   */\n      tag_337\n      tag_201\n      jump\t// in\n    tag_337:\n        /* \"#utility.yul\":6178:6295   */\n    tag_336:\n        /* \"#utility.yul\":6327:6392   */\n      tag_338\n        /* \"#utility.yul\":6384:6391   */\n      dup6\n        /* \"#utility.yul\":6375:6381   */\n      dup3\n        /* \"#utility.yul\":6364:6373   */\n      dup7\n        /* \"#utility.yul\":6360:6382   */\n      add\n        /* \"#utility.yul\":6327:6392   */\n      tag_205\n      jump\t// in\n    tag_338:\n        /* \"#utility.yul\":6309:6392   */\n      swap3\n      pop\n      swap3\n      pop\n        /* \"#utility.yul\":6105:6402   */\n      pop\n        /* \"#utility.yul\":5880:6409   */\n      swap3\n      pop\n      swap3\n      swap1\n      pop\n      jump\t// out\n        /* \"#utility.yul\":6415:6514   */\n    tag_219:\n        /* \"#utility.yul\":6486:6507   */\n      tag_340\n        /* \"#utility.yul\":6501:6506   */\n      dup2\n        /* \"#utility.yul\":6486:6507   */\n      tag_214\n      jump\t// in\n    tag_340:\n        /* \"#utility.yul\":6481:6484   */\n      dup3\n        /* \"#utility.yul\":6474:6508   */\n      mstore\n        /* \"#utility.yul\":6415:6514   */\n      pop\n      pop\n      jump\t// out\n        /* \"#utility.yul\":6520:6619   */\n    tag_220:\n        /* \"#utility.yul\":6572:6578   */\n      0x00\n        /* \"#utility.yul\":6606:6611   */\n      dup2\n        /* \"#utility.yul\":6600:6612   */\n      mload\n        /* \"#utility.yul\":6590:6612   */\n      swap1\n      pop\n        /* \"#utility.yul\":6520:6619   */\n      swap2\n      swap1\n      pop\n      jump\t// out\n        /* \"#utility.yul\":6625:6784   */\n    tag_221:\n        /* \"#utility.yul\":6699:6710   */\n      0x00\n        /* \"#utility.yul\":6733:6739   */\n      dup3\n        /* \"#utility.yul\":6728:6731   */\n      dup3\n        /* \"#utility.yul\":6721:6740   */\n      mstore\n        /* \"#utility.yul\":6773:6777   */\n      0x20\n        /* \"#utility.yul\":6768:6771   */\n      dup3\n        /* \"#utility.yul\":6764:6778   */\n      add\n        /* \"#utility.yul\":6749:6778   */\n      swap1\n      pop\n        /* \"#utility.yul\":6625:6784   */\n      swap3\n      swap2\n      pop\n      pop\n      jump\t// out\n        /* \"#utility.yul\":6790:6929   */\n    tag_222:\n        /* \"#utility.yul\":6879:6885   */\n      dup3\n        /* \"#utility.yul\":6874:6877   */\n      dup2\n        /* \"#utility.yul\":6869:6872   */\n      dup4\n        /* \"#utility.yul\":6863:6886   */\n      mcopy\n        /* \"#utility.yul\":6920:6921   */\n      0x00\n        /* \"#utility.yul\":6911:6917   */\n      dup4\n        /* \"#utility.yul\":6906:6909   */\n      dup4\n        /* \"#utility.yul\":6902:6918   */\n      add\n        /* \"#utility.yul\":6895:6922   */\n      mstore\n        /* \"#utility.yul\":6790:6929   */\n      pop\n      pop\n      pop\n      jump\t// out\n        /* \"#utility.yul\":6935:7292   */\n    tag_223:\n        /* \"#utility.yul\":7013:7016   */\n      0x00\n        /* \"#utility.yul\":7041:7080   */\n      tag_345\n        /* \"#utility.yul\":7074:7079   */\n      dup3\n        /* \"#utility.yul\":7041:7080   */\n      tag_220\n      jump\t// in\n    tag_345:\n        /* \"#utility.yul\":7096:7157   */\n      tag_346\n        /* \"#utility.yul\":7150:7156   */\n      dup2\n        /* \"#utility.yul\":7145:7148   */\n      dup6\n        /* \"#utility.yul\":7096:7157   */\n      tag_221\n      jump\t// in\n    tag_346:\n        /* \"#utility.yul\":7089:7157   */\n      swap4\n      pop\n        /* \"#utility.yul\":7166:7231   */\n      tag_347\n        /* \"#utility.yul\":7224:7230   */\n      dup2\n        /* \"#utility.yul\":7219:7222   */\n      dup6\n        /* \"#utility.yul\":7212:7216   */\n      0x20\n        /* \"#utility.yul\":7205:7210   */\n      dup7\n        /* \"#utility.yul\":7201:7217   */\n      add\n        /* \"#utility.yul\":7166:7231   */\n      tag_222\n      jump\t// in\n    tag_347:\n        /* \"#utility.yul\":7256:7285   */\n      tag_348\n        /* \"#utility.yul\":7278:7284   */\n      dup2\n        /* \"#utility.yul\":7256:7285   */\n      tag_207\n      jump\t// in\n    tag_348:\n        /* \"#utility.yul\":7251:7254   */\n      dup5\n        /* \"#utility.yul\":7247:7286   */\n      add\n        /* \"#utility.yul\":7240:7286   */\n      swap2\n      pop\n        /* \"#utility.yul\":7017:7292   */\n      pop\n        /* \"#utility.yul\":6935:7292   */\n      swap3\n      swap2\n      pop\n      pop\n      jump\t// out\n        /* \"#utility.yul\":7298:7422   */\n    tag_224:\n        /* \"#utility.yul\":7375:7381   */\n      0x00\n        /* \"#utility.yul\":7409:7414   */\n      dup2\n        /* \"#utility.yul\":7403:7415   */\n      mload\n        /* \"#utility.yul\":7393:7415   */\n      swap1\n      pop\n        /* \"#utility.yul\":7298:7422   */\n      swap2\n      swap1\n      pop\n      jump\t// out\n        /* \"#utility.yul\":7428:7612   */\n    tag_225:\n        /* \"#utility.yul\":7527:7538   */\n      0x00\n        /* \"#utility.yul\":7561:7567   */\n      dup3\n        /* \"#utility.yul\":7556:7559   */\n      dup3\n        /* \"#utility.yul\":7549:7568   */\n      mstore\n        /* \"#utility.yul\":7601:7605   */\n      0x20\n        /* \"#utility.yul\":7596:7599   */\n      dup3\n        /* \"#utility.yul\":7592:7606   */\n      add\n        /* \"#utility.yul\":7577:7606   */\n      swap1\n      pop\n        /* \"#utility.yul\":7428:7612   */\n      swap3\n      swap2\n      pop\n      pop\n      jump\t// out\n        /* \"#utility.yul\":7618:7760   */\n    tag_226:\n        /* \"#utility.yul\":7695:7699   */\n      0x00\n        /* \"#utility.yul\":7718:7721   */\n      dup2\n        /* \"#utility.yul\":7710:7721   */\n      swap1\n      pop\n        /* \"#utility.yul\":7748:7752   */\n      0x20\n        /* \"#utility.yul\":7743:7746   */\n      dup3\n        /* \"#utility.yul\":7739:7753   */\n      add\n        /* \"#utility.yul\":7731:7753   */\n      swap1\n      pop\n        /* \"#utility.yul\":7618:7760   */\n      swap2\n      swap1\n      pop\n      jump\t// out\n        /* \"#utility.yul\":7766:7962   */\n    tag_227:\n        /* \"#utility.yul\":7855:7865   */\n      0x00\n        /* \"#utility.yul\":7890:7956   */\n      tag_353\n        /* \"#utility.yul\":7952:7955   */\n      dup4\n        /* \"#utility.yul\":7944:7950   */\n      dup4\n        /* \"#utility.yul\":7890:7956   */\n      tag_223\n      jump\t// in\n    tag_353:\n        /* \"#utility.yul\":7876:7956   */\n      swap1\n      pop\n        /* \"#utility.yul\":7766:7962   */\n      swap3\n      swap2\n      pop\n      pop\n      jump\t// out\n        /* \"#utility.yul\":7968:8091   */\n    tag_228:\n        /* \"#utility.yul\":8048:8052   */\n      0x00\n        /* \"#utility.yul\":8080:8084   */\n      0x20\n        /* \"#utility.yul\":8075:8078   */\n      dup3\n        /* \"#utility.yul\":8071:8085   */\n      add\n        /* \"#utility.yul\":8063:8085   */\n      swap1\n      pop\n        /* \"#utility.yul\":7968:8091   */\n      swap2\n      swap1\n      pop\n      jump\t// out\n        /* \"#utility.yul\":8125:9096   */\n    tag_229:\n        /* \"#utility.yul\":8254:8257   */\n      0x00\n        /* \"#utility.yul\":8283:8347   */\n      tag_356\n        /* \"#utility.yul\":8341:8346   */\n      dup3\n        /* \"#utility.yul\":8283:8347   */\n      tag_224\n      jump\t// in\n    tag_356:\n        /* \"#utility.yul\":8363:8449   */\n      tag_357\n        /* \"#utility.yul\":8442:8448   */\n      dup2\n        /* \"#utility.yul\":8437:8440   */\n      dup6\n        /* \"#utility.yul\":8363:8449   */\n      tag_225\n      jump\t// in\n    tag_357:\n        /* \"#utility.yul\":8356:8449   */\n      swap4\n      pop\n        /* \"#utility.yul\":8475:8478   */\n      dup4\n        /* \"#utility.yul\":8520:8524   */\n      0x20\n        /* \"#utility.yul\":8512:8518   */\n      dup3\n        /* \"#utility.yul\":8508:8525   */\n      mul\n        /* \"#utility.yul\":8503:8506   */\n      dup6\n        /* \"#utility.yul\":8499:8526   */\n      add\n        /* \"#utility.yul\":8550:8616   */\n      tag_358\n        /* \"#utility.yul\":8610:8615   */\n      dup6\n        /* \"#utility.yul\":8550:8616   */\n      tag_226\n      jump\t// in\n    tag_358:\n        /* \"#utility.yul\":8639:8646   */\n      dup1\n        /* \"#utility.yul\":8670:8671   */\n      0x00\n        /* \"#utility.yul\":8655:9051   */\n    tag_359:\n        /* \"#utility.yul\":8680:8686   */\n      dup6\n        /* \"#utility.yul\":8677:8678   */\n      dup2\n        /* \"#utility.yul\":8674:8687   */\n      lt\n        /* \"#utility.yul\":8655:9051   */\n      iszero\n      tag_361\n      jumpi\n        /* \"#utility.yul\":8751:8760   */\n      dup5\n        /* \"#utility.yul\":8745:8749   */\n      dup5\n        /* \"#utility.yul\":8741:8761   */\n      sub\n        /* \"#utility.yul\":8736:8739   */\n      dup10\n        /* \"#utility.yul\":8729:8762   */\n      mstore\n        /* \"#utility.yul\":8802:8808   */\n      dup2\n        /* \"#utility.yul\":8796:8809   */\n      mload\n        /* \"#utility.yul\":8830:8914   */\n      tag_362\n        /* \"#utility.yul\":8909:8913   */\n      dup6\n        /* \"#utility.yul\":8894:8907   */\n      dup3\n        /* \"#utility.yul\":8830:8914   */\n      tag_227\n      jump\t// in\n    tag_362:\n        /* \"#utility.yul\":8822:8914   */\n      swap5\n      pop\n        /* \"#utility.yul\":8937:9007   */\n      tag_363\n        /* \"#utility.yul\":9000:9006   */\n      dup4\n        /* \"#utility.yul\":8937:9007   */\n      tag_228\n      jump\t// in\n    tag_363:\n        /* \"#utility.yul\":8927:9007   */\n      swap3\n      pop\n        /* \"#utility.yul\":9036:9040   */\n      0x20\n        /* \"#utility.yul\":9031:9034   */\n      dup11\n        /* \"#utility.yul\":9027:9041   */\n      add\n        /* \"#utility.yul\":9020:9041   */\n      swap10\n      pop\n        /* \"#utility.yul\":8715:9051   */\n      pop\n        /* \"#utility.yul\":8702:8703   */\n      0x01\n        /* \"#utility.yul\":8699:8700   */\n      dup2\n        /* \"#utility.yul\":8695:8704   */\n      add\n        /* \"#utility.yul\":8690:8704   */\n      swap1\n      pop\n        /* \"#utility.yul\":8655:9051   */\n      jump(tag_359)\n    tag_361:\n        /* \"#utility.yul\":8659:8673   */\n      pop\n        /* \"#utility.yul\":9067:9071   */\n      dup3\n        /* \"#utility.yul\":9060:9071   */\n      swap8\n      pop\n        /* \"#utility.yul\":9087:9090   */\n      dup8\n        /* \"#utility.yul\":9080:9090   */\n      swap6\n      pop\n        /* \"#utility.yul\":8259:9096   */\n      pop\n      pop\n      pop\n      pop\n      pop\n        /* \"#utility.yul\":8125:9096   */\n      swap3\n      swap2\n      pop\n      pop\n      jump\t// out\n        /* \"#utility.yul\":9158:10317   */\n    tag_230:\n        /* \"#utility.yul\":9281:9284   */\n      0x00\n        /* \"#utility.yul\":9317:9321   */\n      0x80\n        /* \"#utility.yul\":9312:9315   */\n      dup4\n        /* \"#utility.yul\":9308:9322   */\n      add\n        /* \"#utility.yul\":9405:9409   */\n      0x00\n        /* \"#utility.yul\":9398:9403   */\n      dup4\n        /* \"#utility.yul\":9394:9410   */\n      add\n        /* \"#utility.yul\":9388:9411   */\n      mload\n        /* \"#utility.yul\":9424:9481   */\n      tag_365\n        /* \"#utility.yul\":9475:9479   */\n      0x00\n        /* \"#utility.yul\":9470:9473   */\n      dup7\n        /* \"#utility.yul\":9466:9480   */\n      add\n        /* \"#utility.yul\":9452:9464   */\n      dup3\n        /* \"#utility.yul\":9424:9481   */\n      tag_219\n      jump\t// in\n    tag_365:\n        /* \"#utility.yul\":9332:9491   */\n      pop\n        /* \"#utility.yul\":9579:9583   */\n      0x20\n        /* \"#utility.yul\":9572:9577   */\n      dup4\n        /* \"#utility.yul\":9568:9584   */\n      add\n        /* \"#utility.yul\":9562:9585   */\n      mload\n        /* \"#utility.yul\":9632:9635   */\n      dup5\n        /* \"#utility.yul\":9626:9630   */\n      dup3\n        /* \"#utility.yul\":9622:9636   */\n      sub\n        /* \"#utility.yul\":9615:9619   */\n      0x20\n        /* \"#utility.yul\":9610:9613   */\n      dup7\n        /* \"#utility.yul\":9606:9620   */\n      add\n        /* \"#utility.yul\":9599:9637   */\n      mstore\n        /* \"#utility.yul\":9658:9731   */\n      tag_366\n        /* \"#utility.yul\":9726:9730   */\n      dup3\n        /* \"#utility.yul\":9712:9724   */\n      dup3\n        /* \"#utility.yul\":9658:9731   */\n      tag_223\n      jump\t// in\n    tag_366:\n        /* \"#utility.yul\":9650:9731   */\n      swap2\n      pop\n        /* \"#utility.yul\":9501:9742   */\n      pop\n        /* \"#utility.yul\":9822:9826   */\n      0x40\n        /* \"#utility.yul\":9815:9820   */\n      dup4\n        /* \"#utility.yul\":9811:9827   */\n      add\n        /* \"#utility.yul\":9805:9828   */\n      mload\n        /* \"#utility.yul\":9875:9878   */\n      dup5\n        /* \"#utility.yul\":9869:9873   */\n      dup3\n        /* \"#utility.yul\":9865:9879   */\n      sub\n        /* \"#utility.yul\":9858:9862   */\n      0x40\n        /* \"#utility.yul\":9853:9856   */\n      dup7\n        /* \"#utility.yul\":9849:9863   */\n      add\n        /* \"#utility.yul\":9842:9880   */\n      mstore\n        /* \"#utility.yul\":9901:9974   */\n      tag_367\n        /* \"#utility.yul\":9969:9973   */\n      dup3\n        /* \"#utility.yul\":9955:9967   */\n      dup3\n        /* \"#utility.yul\":9901:9974   */\n      tag_223\n      jump\t// in\n    tag_367:\n        /* \"#utility.yul\":9893:9974   */\n      swap2\n      pop\n        /* \"#utility.yul\":9752:9985   */\n      pop\n        /* \"#utility.yul\":10077:10081   */\n      0x60\n        /* \"#utility.yul\":10070:10075   */\n      dup4\n        /* \"#utility.yul\":10066:10082   */\n      add\n        /* \"#utility.yul\":10060:10083   */\n      mload\n        /* \"#utility.yul\":10130:10133   */\n      dup5\n        /* \"#utility.yul\":10124:10128   */\n      dup3\n        /* \"#utility.yul\":10120:10134   */\n      sub\n        /* \"#utility.yul\":10113:10117   */\n      0x60\n        /* \"#utility.yul\":10108:10111   */\n      dup7\n        /* \"#utility.yul\":10104:10118   */\n      add\n        /* \"#utility.yul\":10097:10135   */\n      mstore\n        /* \"#utility.yul\":10156:10279   */\n      tag_368\n        /* \"#utility.yul\":10274:10278   */\n      dup3\n        /* \"#utility.yul\":10260:10272   */\n      dup3\n        /* \"#utility.yul\":10156:10279   */\n      tag_229\n      jump\t// in\n    tag_368:\n        /* \"#utility.yul\":10148:10279   */\n      swap2\n      pop\n        /* \"#utility.yul\":9995:10290   */\n      pop\n        /* \"#utility.yul\":10307:10311   */\n      dup1\n        /* \"#utility.yul\":10300:10311   */\n      swap2\n      pop\n        /* \"#utility.yul\":9286:10317   */\n      pop\n        /* \"#utility.yul\":9158:10317   */\n      swap3\n      swap2\n      pop\n      pop\n      jump\t// out\n        /* \"#utility.yul\":10323:10704   */\n    tag_39:\n        /* \"#utility.yul\":10470:10474   */\n      0x00\n        /* \"#utility.yul\":10508:10510   */\n      0x20\n        /* \"#utility.yul\":10497:10506   */\n      dup3\n        /* \"#utility.yul\":10493:10511   */\n      add\n        /* \"#utility.yul\":10485:10511   */\n      swap1\n      pop\n        /* \"#utility.yul\":10557:10566   */\n      dup2\n        /* \"#utility.yul\":10551:10555   */\n      dup2\n        /* \"#utility.yul\":10547:10567   */\n      sub\n        /* \"#utility.yul\":10543:10544   */\n      0x00\n        /* \"#utility.yul\":10532:10541   */\n      dup4\n        /* \"#utility.yul\":10528:10545   */\n      add\n        /* \"#utility.yul\":10521:10568   */\n      mstore\n        /* \"#utility.yul\":10585:10697   */\n      tag_370\n        /* \"#utility.yul\":10692:10696   */\n      dup2\n        /* \"#utility.yul\":10683:10689   */\n      dup5\n        /* \"#utility.yul\":10585:10697   */\n      tag_230\n      jump\t// in\n    tag_370:\n        /* \"#utility.yul\":10577:10697   */\n      swap1\n      pop\n        /* \"#utility.yul\":10323:10704   */\n      swap3\n      swap2\n      pop\n      pop\n      jump\t// out\n        /* \"#utility.yul\":10710:11929   */\n    tag_42:\n        /* \"#utility.yul\":10823:10829   */\n      0x00\n        /* \"#utility.yul\":10831:10837   */\n      0x00\n        /* \"#utility.yul\":10839:10845   */\n      0x00\n        /* \"#utility.yul\":10847:10853   */\n      0x00\n        /* \"#utility.yul\":10855:10861   */\n      0x00\n        /* \"#utility.yul\":10863:10869   */\n      0x00\n        /* \"#utility.yul\":10912:10914   */\n      0x60\n        /* \"#utility.yul\":10900:10909   */\n      dup8\n        /* \"#utility.yul\":10891:10898   */\n      dup10\n        /* \"#utility.yul\":10887:10910   */\n      sub\n        /* \"#utility.yul\":10883:10915   */\n      slt\n        /* \"#utility.yul\":10880:10999   */\n      iszero\n      tag_372\n      jumpi\n        /* \"#utility.yul\":10918:10997   */\n      tag_373\n      tag_200\n      jump\t// in\n    tag_373:\n        /* \"#utility.yul\":10880:10999   */\n    tag_372:\n        /* \"#utility.yul\":11066:11067   */\n      0x00\n        /* \"#utility.yul\":11055:11064   */\n      dup8\n        /* \"#utility.yul\":11051:11068   */\n      add\n        /* \"#utility.yul\":11038:11069   */\n      calldataload\n        /* \"#utility.yul\":11096:11114   */\n      0xffffffffffffffff\n        /* \"#utility.yul\":11088:11094   */\n      dup2\n        /* \"#utility.yul\":11085:11115   */\n      gt\n        /* \"#utility.yul\":11082:11199   */\n      iszero\n      tag_374\n      jumpi\n        /* \"#utility.yul\":11118:11197   */\n      tag_375\n      tag_201\n      jump\t// in\n    tag_375:\n        /* \"#utility.yul\":11082:11199   */\n    tag_374:\n        /* \"#utility.yul\":11231:11296   */\n      tag_376\n        /* \"#utility.yul\":11288:11295   */\n      dup10\n        /* \"#utility.yul\":11279:11285   */\n      dup3\n        /* \"#utility.yul\":11268:11277   */\n      dup11\n        /* \"#utility.yul\":11264:11286   */\n      add\n        /* \"#utility.yul\":11231:11296   */\n      tag_205\n      jump\t// in\n    tag_376:\n        /* \"#utility.yul\":11213:11296   */\n      swap7\n      pop\n      swap7\n      pop\n        /* \"#utility.yul\":11009:11306   */\n      pop\n        /* \"#utility.yul\":11373:11375   */\n      0x20\n        /* \"#utility.yul\":11362:11371   */\n      dup8\n        /* \"#utility.yul\":11358:11376   */\n      add\n        /* \"#utility.yul\":11345:11377   */\n      calldataload\n        /* \"#utility.yul\":11404:11422   */\n      0xffffffffffffffff\n        /* \"#utility.yul\":11396:11402   */\n      dup2\n        /* \"#utility.yul\":11393:11423   */\n      gt\n        /* \"#utility.yul\":11390:11507   */\n      iszero\n      tag_377\n      jumpi\n        /* \"#utility.yul\":11426:11505   */\n      tag_378\n      tag_201\n      jump\t// in\n    tag_378:\n        /* \"#utility.yul\":11390:11507   */\n    tag_377:\n        /* \"#utility.yul\":11539:11604   */\n      tag_379\n        /* \"#utility.yul\":11596:11603   */\n      dup10\n        /* \"#utility.yul\":11587:11593   */\n      dup3\n        /* \"#utility.yul\":11576:11585   */\n      dup11\n        /* \"#utility.yul\":11572:11594   */\n      add\n        /* \"#utility.yul\":11539:11604   */\n      tag_205\n      jump\t// in\n    tag_379:\n        /* \"#utility.yul\":11521:11604   */\n      swap5\n      pop\n      swap5\n      pop\n        /* \"#utility.yul\":11316:11614   */\n      pop\n        /* \"#utility.yul\":11681:11683   */\n      0x40\n        /* \"#utility.yul\":11670:11679   */\n      dup8\n        /* \"#utility.yul\":11666:11684   */\n      add\n        /* \"#utility.yul\":11653:11685   */\n      calldataload\n        /* \"#utility.yul\":11712:11730   */\n      0xffffffffffffffff\n        /* \"#utility.yul\":11704:11710   */\n      dup2\n        /* \"#utility.yul\":11701:11731   */\n      gt\n        /* \"#utility.yul\":11698:11815   */\n      iszero\n      tag_380\n      jumpi\n        /* \"#utility.yul\":11734:11813   */\n      tag_381\n      tag_201\n      jump\t// in\n    tag_381:\n        /* \"#utility.yul\":11698:11815   */\n    tag_380:\n        /* \"#utility.yul\":11847:11912   */\n      tag_382\n        /* \"#utility.yul\":11904:11911   */\n      dup10\n        /* \"#utility.yul\":11895:11901   */\n      dup3\n        /* \"#utility.yul\":11884:11893   */\n      dup11\n        /* \"#utility.yul\":11880:11902   */\n      add\n        /* \"#utility.yul\":11847:11912   */\n      tag_205\n      jump\t// in\n    tag_382:\n        /* \"#utility.yul\":11829:11912   */\n      swap3\n      pop\n      swap3\n      pop\n        /* \"#utility.yul\":11624:11922   */\n      pop\n        /* \"#utility.yul\":10710:11929   */\n      swap3\n      swap6\n      pop\n      swap3\n      swap6\n      pop\n      swap3\n      swap6\n      jump\t// out\n        /* \"#utility.yul\":11935:12104   */\n    tag_231:\n        /* \"#utility.yul\":12019:12030   */\n      0x00\n        /* \"#utility.yul\":12053:12059   */\n      dup3\n        /* \"#utility.yul\":12048:12051   */\n      dup3\n        /* \"#utility.yul\":12041:12060   */\n      mstore\n        /* \"#utility.yul\":12093:12097   */\n      0x20\n        /* \"#utility.yul\":12088:12091   */\n      dup3\n        /* \"#utility.yul\":12084:12098   */\n      add\n        /* \"#utility.yul\":12069:12098   */\n      swap1\n      pop\n        /* \"#utility.yul\":11935:12104   */\n      swap3\n      swap2\n      pop\n      pop\n      jump\t// out\n        /* \"#utility.yul\":12110:12487   */\n    tag_232:\n        /* \"#utility.yul\":12198:12201   */\n      0x00\n        /* \"#utility.yul\":12226:12265   */\n      tag_385\n        /* \"#utility.yul\":12259:12264   */\n      dup3\n        /* \"#utility.yul\":12226:12265   */\n      tag_220\n      jump\t// in\n    tag_385:\n        /* \"#utility.yul\":12281:12352   */\n      tag_386\n        /* \"#utility.yul\":12345:12351   */\n      dup2\n        /* \"#utility.yul\":12340:12343   */\n      dup6\n        /* \"#utility.yul\":12281:12352   */\n      tag_231\n      jump\t// in\n    tag_386:\n        /* \"#utility.yul\":12274:12352   */\n      swap4\n      pop\n        /* \"#utility.yul\":12361:12426   */\n      tag_387\n        /* \"#utility.yul\":12419:12425   */\n      dup2\n        /* \"#utility.yul\":12414:12417   */\n      dup6\n        /* \"#utility.yul\":12407:12411   */\n      0x20\n        /* \"#utility.yul\":12400:12405   */\n      dup7\n        /* \"#utility.yul\":12396:12412   */\n      add\n        /* \"#utility.yul\":12361:12426   */\n      tag_222\n      jump\t// in\n    tag_387:\n        /* \"#utility.yul\":12451:12480   */\n      tag_388\n        /* \"#utility.yul\":12473:12479   */\n      dup2\n        /* \"#utility.yul\":12451:12480   */\n      tag_207\n      jump\t// in\n    tag_388:\n        /* \"#utility.yul\":12446:12449   */\n      dup5\n        /* \"#utility.yul\":12442:12481   */\n      add\n        /* \"#utility.yul\":12435:12481   */\n      swap2\n      pop\n        /* \"#utility.yul\":12202:12487   */\n      pop\n        /* \"#utility.yul\":12110:12487   */\n      swap3\n      swap2\n      pop\n      pop\n      jump\t// out\n        /* \"#utility.yul\":12493:13105   */\n    tag_48:\n        /* \"#utility.yul\":12676:12680   */\n      0x00\n        /* \"#utility.yul\":12714:12716   */\n      0x60\n        /* \"#utility.yul\":12703:12712   */\n      dup3\n        /* \"#utility.yul\":12699:12717   */\n      add\n        /* \"#utility.yul\":12691:12717   */\n      swap1\n      pop\n        /* \"#utility.yul\":12727:12792   */\n      tag_390\n        /* \"#utility.yul\":12789:12790   */\n      0x00\n        /* \"#utility.yul\":12778:12787   */\n      dup4\n        /* \"#utility.yul\":12774:12791   */\n      add\n        /* \"#utility.yul\":12765:12771   */\n      dup7\n        /* \"#utility.yul\":12727:12792   */\n      tag_215\n      jump\t// in\n    tag_390:\n        /* \"#utility.yul\":12839:12848   */\n      dup2\n        /* \"#utility.yul\":12833:12837   */\n      dup2\n        /* \"#utility.yul\":12829:12849   */\n      sub\n        /* \"#utility.yul\":12824:12826   */\n      0x20\n        /* \"#utility.yul\":12813:12822   */\n      dup4\n        /* \"#utility.yul\":12809:12827   */\n      add\n        /* \"#utility.yul\":12802:12850   */\n      mstore\n        /* \"#utility.yul\":12867:12945   */\n      tag_391\n        /* \"#utility.yul\":12940:12944   */\n      dup2\n        /* \"#utility.yul\":12931:12937   */\n      dup6\n        /* \"#utility.yul\":12867:12945   */\n      tag_232\n      jump\t// in\n    tag_391:\n        /* \"#utility.yul\":12859:12945   */\n      swap1\n      pop\n        /* \"#utility.yul\":12992:13001   */\n      dup2\n        /* \"#utility.yul\":12986:12990   */\n      dup2\n        /* \"#utility.yul\":12982:13002   */\n      sub\n        /* \"#utility.yul\":12977:12979   */\n      0x40\n        /* \"#utility.yul\":12966:12975   */\n      dup4\n        /* \"#utility.yul\":12962:12980   */\n      add\n        /* \"#utility.yul\":12955:13003   */\n      mstore\n        /* \"#utility.yul\":13020:13098   */\n      tag_392\n        /* \"#utility.yul\":13093:13097   */\n      dup2\n        /* \"#utility.yul\":13084:13090   */\n      dup5\n        /* \"#utility.yul\":13020:13098   */\n      tag_232\n      jump\t// in\n    tag_392:\n        /* \"#utility.yul\":13012:13098   */\n      swap1\n      pop\n        /* \"#utility.yul\":12493:13105   */\n      swap5\n      swap4\n      pop\n      pop\n      pop\n      pop\n      jump\t// out\n        /* \"#utility.yul\":13111:13219   */\n    tag_233:\n        /* \"#utility.yul\":13188:13212   */\n      tag_394\n        /* \"#utility.yul\":13206:13211   */\n      dup2\n        /* \"#utility.yul\":13188:13212   */\n      tag_217\n      jump\t// in\n    tag_394:\n        /* \"#utility.yul\":13183:13186   */\n      dup3\n        /* \"#utility.yul\":13176:13213   */\n      mstore\n        /* \"#utility.yul\":13111:13219   */\n      pop\n      pop\n      jump\t// out\n        /* \"#utility.yul\":13271:14417   */\n    tag_234:\n        /* \"#utility.yul\":13384:13387   */\n      0x00\n        /* \"#utility.yul\":13420:13424   */\n      0x80\n        /* \"#utility.yul\":13415:13418   */\n      dup4\n        /* \"#utility.yul\":13411:13425   */\n      add\n        /* \"#utility.yul\":13506:13510   */\n      0x00\n        /* \"#utility.yul\":13499:13504   */\n      dup4\n        /* \"#utility.yul\":13495:13511   */\n      add\n        /* \"#utility.yul\":13489:13512   */\n      mload\n        /* \"#utility.yul\":13559:13562   */\n      dup5\n        /* \"#utility.yul\":13553:13557   */\n      dup3\n        /* \"#utility.yul\":13549:13563   */\n      sub\n        /* \"#utility.yul\":13542:13546   */\n      0x00\n        /* \"#utility.yul\":13537:13540   */\n      dup7\n        /* \"#utility.yul\":13533:13547   */\n      add\n        /* \"#utility.yul\":13526:13564   */\n      mstore\n        /* \"#utility.yul\":13585:13658   */\n      tag_396\n        /* \"#utility.yul\":13653:13657   */\n      dup3\n        /* \"#utility.yul\":13639:13651   */\n      dup3\n        /* \"#utility.yul\":13585:13658   */\n      tag_223\n      jump\t// in\n    tag_396:\n        /* \"#utility.yul\":13577:13658   */\n      swap2\n      pop\n        /* \"#utility.yul\":13435:13669   */\n      pop\n        /* \"#utility.yul\":13749:13753   */\n      0x20\n        /* \"#utility.yul\":13742:13747   */\n      dup4\n        /* \"#utility.yul\":13738:13754   */\n      add\n        /* \"#utility.yul\":13732:13755   */\n      mload\n        /* \"#utility.yul\":13768:13831   */\n      tag_397\n        /* \"#utility.yul\":13825:13829   */\n      0x20\n        /* \"#utility.yul\":13820:13823   */\n      dup7\n        /* \"#utility.yul\":13816:13830   */\n      add\n        /* \"#utility.yul\":13802:13814   */\n      dup3\n        /* \"#utility.yul\":13768:13831   */\n      tag_233\n      jump\t// in\n    tag_397:\n        /* \"#utility.yul\":13679:13841   */\n      pop\n        /* \"#utility.yul\":13929:13933   */\n      0x40\n        /* \"#utility.yul\":13922:13927   */\n      dup4\n        /* \"#utility.yul\":13918:13934   */\n      add\n        /* \"#utility.yul\":13912:13935   */\n      mload\n        /* \"#utility.yul\":13982:13985   */\n      dup5\n        /* \"#utility.yul\":13976:13980   */\n      dup3\n        /* \"#utility.yul\":13972:13986   */\n      sub\n        /* \"#utility.yul\":13965:13969   */\n      0x40\n        /* \"#utility.yul\":13960:13963   */\n      dup7\n        /* \"#utility.yul\":13956:13970   */\n      add\n        /* \"#utility.yul\":13949:13987   */\n      mstore\n        /* \"#utility.yul\":14008:14081   */\n      tag_398\n        /* \"#utility.yul\":14076:14080   */\n      dup3\n        /* \"#utility.yul\":14062:14074   */\n      dup3\n        /* \"#utility.yul\":14008:14081   */\n      tag_223\n      jump\t// in\n    tag_398:\n        /* \"#utility.yul\":14000:14081   */\n      swap2\n      pop\n        /* \"#utility.yul\":13851:14092   */\n      pop\n        /* \"#utility.yul\":14177:14181   */\n      0x60\n        /* \"#utility.yul\":14170:14175   */\n      dup4\n        /* \"#utility.yul\":14166:14182   */\n      add\n        /* \"#utility.yul\":14160:14183   */\n      mload\n        /* \"#utility.yul\":14230:14233   */\n      dup5\n        /* \"#utility.yul\":14224:14228   */\n      dup3\n        /* \"#utility.yul\":14220:14234   */\n      sub\n        /* \"#utility.yul\":14213:14217   */\n      0x60\n        /* \"#utility.yul\":14208:14211   */\n      dup7\n        /* \"#utility.yul\":14204:14218   */\n      add\n        /* \"#utility.yul\":14197:14235   */\n      mstore\n        /* \"#utility.yul\":14256:14379   */\n      tag_399\n        /* \"#utility.yul\":14374:14378   */\n      dup3\n        /* \"#utility.yul\":14360:14372   */\n      dup3\n        /* \"#utility.yul\":14256:14379   */\n      tag_229\n      jump\t// in\n    tag_399:\n        /* \"#utility.yul\":14248:14379   */\n      swap2\n      pop\n        /* \"#utility.yul\":14102:14390   */\n      pop\n        /* \"#utility.yul\":14407:14411   */\n      dup1\n        /* \"#utility.yul\":14400:14411   */\n      swap2\n      pop\n        /* \"#utility.yul\":13389:14417   */\n      pop\n        /* \"#utility.yul\":13271:14417   */\n      swap3\n      swap2\n      pop\n      pop\n      jump\t// out\n        /* \"#utility.yul\":14423:14784   */\n    tag_53:\n        /* \"#utility.yul\":14560:14564   */\n      0x00\n        /* \"#utility.yul\":14598:14600   */\n      0x20\n        /* \"#utility.yul\":14587:14596   */\n      dup3\n        /* \"#utility.yul\":14583:14601   */\n      add\n        /* \"#utility.yul\":14575:14601   */\n      swap1\n      pop\n        /* \"#utility.yul\":14647:14656   */\n      dup2\n        /* \"#utility.yul\":14641:14645   */\n      dup2\n        /* \"#utility.yul\":14637:14657   */\n      sub\n        /* \"#utility.yul\":14633:14634   */\n      0x00\n        /* \"#utility.yul\":14622:14631   */\n      dup4\n        /* \"#utility.yul\":14618:14635   */\n      add\n        /* \"#utility.yul\":14611:14658   */\n      mstore\n        /* \"#utility.yul\":14675:14777   */\n      tag_401\n        /* \"#utility.yul\":14772:14776   */\n      dup2\n        /* \"#utility.yul\":14763:14769   */\n      dup5\n        /* \"#utility.yul\":14675:14777   */\n      tag_234\n      jump\t// in\n    tag_401:\n        /* \"#utility.yul\":14667:14777   */\n      swap1\n      pop\n        /* \"#utility.yul\":14423:14784   */\n      swap3\n      swap2\n      pop\n      pop\n      jump\t// out\n        /* \"#utility.yul\":14790:14938   */\n    tag_235:\n        /* \"#utility.yul\":14892:14903   */\n      0x00\n        /* \"#utility.yul\":14929:14932   */\n      dup2\n        /* \"#utility.yul\":14914:14932   */\n      swap1\n      pop\n        /* \"#utility.yul\":14790:14938   */\n      swap3\n      swap2\n      pop\n      pop\n      jump\t// out\n        /* \"#utility.yul\":14968:15298   */\n    tag_236:\n        /* \"#utility.yul\":15084:15087   */\n      0x00\n        /* \"#utility.yul\":15105:15194   */\n      tag_404\n        /* \"#utility.yul\":15187:15193   */\n      dup4\n        /* \"#utility.yul\":15182:15185   */\n      dup6\n        /* \"#utility.yul\":15105:15194   */\n      tag_235\n      jump\t// in\n    tag_404:\n        /* \"#utility.yul\":15098:15194   */\n      swap4\n      pop\n        /* \"#utility.yul\":15204:15260   */\n      tag_405\n        /* \"#utility.yul\":15253:15259   */\n      dup4\n        /* \"#utility.yul\":15248:15251   */\n      dup6\n        /* \"#utility.yul\":15241:15246   */\n      dup5\n        /* \"#utility.yul\":15204:15260   */\n      tag_211\n      jump\t// in\n    tag_405:\n        /* \"#utility.yul\":15285:15291   */\n      dup3\n        /* \"#utility.yul\":15280:15283   */\n      dup5\n        /* \"#utility.yul\":15276:15292   */\n      add\n        /* \"#utility.yul\":15269:15292   */\n      swap1\n      pop\n        /* \"#utility.yul\":14968:15298   */\n      swap4\n      swap3\n      pop\n      pop\n      pop\n      jump\t// out\n        /* \"#utility.yul\":15304:15599   */\n    tag_56:\n        /* \"#utility.yul\":15446:15449   */\n      0x00\n        /* \"#utility.yul\":15468:15573   */\n      tag_407\n        /* \"#utility.yul\":15569:15572   */\n      dup3\n        /* \"#utility.yul\":15560:15566   */\n      dup5\n        /* \"#utility.yul\":15552:15558   */\n      dup7\n        /* \"#utility.yul\":15468:15573   */\n      tag_236\n      jump\t// in\n    tag_407:\n        /* \"#utility.yul\":15461:15573   */\n      swap2\n      pop\n        /* \"#utility.yul\":15590:15593   */\n      dup2\n        /* \"#utility.yul\":15583:15593   */\n      swap1\n      pop\n        /* \"#utility.yul\":15304:15599   */\n      swap4\n      swap3\n      pop\n      pop\n      pop\n      jump\t// out\n        /* \"#utility.yul\":15605:15781   */\n    tag_237:\n        /* \"#utility.yul\":15745:15773   */\n      0x5468657265206973206e6f207375636820612069737375657221000000000000\n        /* \"#utility.yul\":15741:15742   */\n      0x00\n        /* \"#utility.yul\":15733:15739   */\n      dup3\n        /* \"#utility.yul\":15729:15743   */\n      add\n        /* \"#utility.yul\":15722:15774   */\n      mstore\n        /* \"#utility.yul\":15605:15781   */\n      pop\n      jump\t// out\n        /* \"#utility.yul\":15787:16153   */\n    tag_238:\n        /* \"#utility.yul\":15929:15932   */\n      0x00\n        /* \"#utility.yul\":15950:16017   */\n      tag_410\n        /* \"#utility.yul\":16014:16016   */\n      0x1a\n        /* \"#utility.yul\":16009:16012   */\n      dup4\n        /* \"#utility.yul\":15950:16017   */\n      tag_231\n      jump\t// in\n    tag_410:\n        /* \"#utility.yul\":15943:16017   */\n      swap2\n      pop\n        /* \"#utility.yul\":16026:16119   */\n      tag_411\n        /* \"#utility.yul\":16115:16118   */\n      dup3\n        /* \"#utility.yul\":16026:16119   */\n      tag_237\n      jump\t// in\n    tag_411:\n        /* \"#utility.yul\":16144:16146   */\n      0x20\n        /* \"#utility.yul\":16139:16142   */\n      dup3\n        /* \"#utility.yul\":16135:16147   */\n      add\n        /* \"#utility.yul\":16128:16147   */\n      swap1\n      pop\n        /* \"#utility.yul\":15787:16153   */\n      swap2\n      swap1\n      pop\n      jump\t// out\n        /* \"#utility.yul\":16159:16578   */\n    tag_59:\n        /* \"#utility.yul\":16325:16329   */\n      0x00\n        /* \"#utility.yul\":16363:16365   */\n      0x20\n        /* \"#utility.yul\":16352:16361   */\n      dup3\n        /* \"#utility.yul\":16348:16366   */\n      add\n        /* \"#utility.yul\":16340:16366   */\n      swap1\n      pop\n        /* \"#utility.yul\":16412:16421   */\n      dup2\n        /* \"#utility.yul\":16406:16410   */\n      dup2\n        /* \"#utility.yul\":16402:16422   */\n      sub\n        /* \"#utility.yul\":16398:16399   */\n      0x00\n        /* \"#utility.yul\":16387:16396   */\n      dup4\n        /* \"#utility.yul\":16383:16400   */\n      add\n        /* \"#utility.yul\":16376:16423   */\n      mstore\n        /* \"#utility.yul\":16440:16571   */\n      tag_413\n        /* \"#utility.yul\":16566:16570   */\n      dup2\n        /* \"#utility.yul\":16440:16571   */\n      tag_238\n      jump\t// in\n    tag_413:\n        /* \"#utility.yul\":16432:16571   */\n      swap1\n      pop\n        /* \"#utility.yul\":16159:16578   */\n      swap2\n      swap1\n      pop\n      jump\t// out\n        /* \"#utility.yul\":16584:16752   */\n    tag_239:\n        /* \"#utility.yul\":16724:16744   */\n      0x596f752068617665206e6f207269676874210000000000000000000000000000\n        /* \"#utility.yul\":16720:16721   */\n      0x00\n        /* \"#utility.yul\":16712:16718   */\n      dup3\n        /* \"#utility.yul\":16708:16722   */\n      add\n        /* \"#utility.yul\":16701:16745   */\n      mstore\n        /* \"#utility.yul\":16584:16752   */\n      pop\n      jump\t// out\n        /* \"#utility.yul\":16758:17124   */\n    tag_240:\n        /* \"#utility.yul\":16900:16903   */\n      0x00\n        /* \"#utility.yul\":16921:16988   */\n      tag_416\n        /* \"#utility.yul\":16985:16987   */\n      0x12\n        /* \"#utility.yul\":16980:16983   */\n      dup4\n        /* \"#utility.yul\":16921:16988   */\n      tag_231\n      jump\t// in\n    tag_416:\n        /* \"#utility.yul\":16914:16988   */\n      swap2\n      pop\n        /* \"#utility.yul\":16997:17090   */\n      tag_417\n        /* \"#utility.yul\":17086:17089   */\n      dup3\n        /* \"#utility.yul\":16997:17090   */\n      tag_239\n      jump\t// in\n    tag_417:\n        /* \"#utility.yul\":17115:17117   */\n      0x20\n        /* \"#utility.yul\":17110:17113   */\n      dup3\n        /* \"#utility.yul\":17106:17118   */\n      add\n        /* \"#utility.yul\":17099:17118   */\n      swap1\n      pop\n        /* \"#utility.yul\":16758:17124   */\n      swap2\n      swap1\n      pop\n      jump\t// out\n        /* \"#utility.yul\":17130:17549   */\n    tag_63:\n        /* \"#utility.yul\":17296:17300   */\n      0x00\n        /* \"#utility.yul\":17334:17336   */\n      0x20\n        /* \"#utility.yul\":17323:17332   */\n      dup3\n        /* \"#utility.yul\":17319:17337   */\n      add\n        /* \"#utility.yul\":17311:17337   */\n      swap1\n      pop\n        /* \"#utility.yul\":17383:17392   */\n      dup2\n        /* \"#utility.yul\":17377:17381   */\n      dup2\n        /* \"#utility.yul\":17373:17393   */\n      sub\n        /* \"#utility.yul\":17369:17370   */\n      0x00\n        /* \"#utility.yul\":17358:17367   */\n      dup4\n        /* \"#utility.yul\":17354:17371   */\n      add\n        /* \"#utility.yul\":17347:17394   */\n      mstore\n        /* \"#utility.yul\":17411:17542   */\n      tag_419\n        /* \"#utility.yul\":17537:17541   */\n      dup2\n        /* \"#utility.yul\":17411:17542   */\n      tag_240\n      jump\t// in\n    tag_419:\n        /* \"#utility.yul\":17403:17542   */\n      swap1\n      pop\n        /* \"#utility.yul\":17130:17549   */\n      swap2\n      swap1\n      pop\n      jump\t// out\n        /* \"#utility.yul\":17555:17652   */\n    tag_241:\n        /* \"#utility.yul\":17614:17620   */\n      0x00\n        /* \"#utility.yul\":17642:17645   */\n      dup3\n        /* \"#utility.yul\":17632:17645   */\n      swap1\n      pop\n        /* \"#utility.yul\":17555:17652   */\n      swap3\n      swap2\n      pop\n      pop\n      jump\t// out\n        /* \"#utility.yul\":17658:17838   */\n    tag_242:\n        /* \"#utility.yul\":17706:17783   */\n      0x4e487b7100000000000000000000000000000000000000000000000000000000\n        /* \"#utility.yul\":17703:17704   */\n      0x00\n        /* \"#utility.yul\":17696:17784   */\n      mstore\n        /* \"#utility.yul\":17803:17807   */\n      0x22\n        /* \"#utility.yul\":17800:17801   */\n      0x04\n        /* \"#utility.yul\":17793:17808   */\n      mstore\n        /* \"#utility.yul\":17827:17831   */\n      0x24\n        /* \"#utility.yul\":17824:17825   */\n      0x00\n        /* \"#utility.yul\":17817:17832   */\n      revert\n        /* \"#utility.yul\":17844:18164   */\n    tag_114:\n        /* \"#utility.yul\":17888:17894   */\n      0x00\n        /* \"#utility.yul\":17925:17926   */\n      0x02\n        /* \"#utility.yul\":17919:17923   */\n      dup3\n        /* \"#utility.yul\":17915:17927   */\n      div\n        /* \"#utility.yul\":17905:17927   */\n      swap1\n      pop\n        /* \"#utility.yul\":17972:17973   */\n      0x01\n        /* \"#utility.yul\":17966:17970   */\n      dup3\n        /* \"#utility.yul\":17962:17974   */\n      and\n        /* \"#utility.yul\":17993:18011   */\n      dup1\n        /* \"#utility.yul\":17983:18064   */\n      tag_423\n      jumpi\n        /* \"#utility.yul\":18049:18053   */\n      0x7f\n        /* \"#utility.yul\":18041:18047   */\n      dup3\n        /* \"#utility.yul\":18037:18054   */\n      and\n        /* \"#utility.yul\":18027:18054   */\n      swap2\n      pop\n        /* \"#utility.yul\":17983:18064   */\n    tag_423:\n        /* \"#utility.yul\":18111:18113   */\n      0x20\n        /* \"#utility.yul\":18103:18109   */\n      dup3\n        /* \"#utility.yul\":18100:18114   */\n      lt\n        /* \"#utility.yul\":18080:18098   */\n      dup2\n        /* \"#utility.yul\":18077:18115   */\n      sub\n        /* \"#utility.yul\":18074:18158   */\n      tag_424\n      jumpi\n        /* \"#utility.yul\":18130:18148   */\n      tag_425\n      tag_242\n      jump\t// in\n    tag_425:\n        /* \"#utility.yul\":18074:18158   */\n    tag_424:\n        /* \"#utility.yul\":17895:18164   */\n      pop\n        /* \"#utility.yul\":17844:18164   */\n      swap2\n      swap1\n      pop\n      jump\t// out\n        /* \"#utility.yul\":18170:18311   */\n    tag_243:\n        /* \"#utility.yul\":18219:18223   */\n      0x00\n        /* \"#utility.yul\":18242:18245   */\n      dup2\n        /* \"#utility.yul\":18234:18245   */\n      swap1\n      pop\n        /* \"#utility.yul\":18265:18268   */\n      dup2\n        /* \"#utility.yul\":18262:18263   */\n      0x00\n        /* \"#utility.yul\":18255:18269   */\n      mstore\n        /* \"#utility.yul\":18299:18303   */\n      0x20\n        /* \"#utility.yul\":18296:18297   */\n      0x00\n        /* \"#utility.yul\":18286:18304   */\n      keccak256\n        /* \"#utility.yul\":18278:18304   */\n      swap1\n      pop\n        /* \"#utility.yul\":18170:18311   */\n      swap2\n      swap1\n      pop\n      jump\t// out\n        /* \"#utility.yul\":18317:18410   */\n    tag_244:\n        /* \"#utility.yul\":18354:18360   */\n      0x00\n        /* \"#utility.yul\":18401:18403   */\n      0x20\n        /* \"#utility.yul\":18396:18398   */\n      0x1f\n        /* \"#utility.yul\":18389:18394   */\n      dup4\n        /* \"#utility.yul\":18385:18399   */\n      add\n        /* \"#utility.yul\":18381:18404   */\n      div\n        /* \"#utility.yul\":18371:18404   */\n      swap1\n      pop\n        /* \"#utility.yul\":18317:18410   */\n      swap2\n      swap1\n      pop\n      jump\t// out\n        /* \"#utility.yul\":18416:18523   */\n    tag_245:\n        /* \"#utility.yul\":18460:18468   */\n      0x00\n        /* \"#utility.yul\":18510:18515   */\n      dup3\n        /* \"#utility.yul\":18504:18508   */\n      dup3\n        /* \"#utility.yul\":18500:18516   */\n      shl\n        /* \"#utility.yul\":18479:18516   */\n      swap1\n      pop\n        /* \"#utility.yul\":18416:18523   */\n      swap3\n      swap2\n      pop\n      pop\n      jump\t// out\n        /* \"#utility.yul\":18529:18922   */\n    tag_246:\n        /* \"#utility.yul\":18598:18604   */\n      0x00\n        /* \"#utility.yul\":18648:18649   */\n      0x08\n        /* \"#utility.yul\":18636:18646   */\n      dup4\n        /* \"#utility.yul\":18632:18650   */\n      mul\n        /* \"#utility.yul\":18671:18768   */\n      tag_430\n        /* \"#utility.yul\":18701:18767   */\n      0xffffffffffffffffffffffffffffffffffffffffffffffffffffffffffffffff\n        /* \"#utility.yul\":18690:18699   */\n      dup3\n        /* \"#utility.yul\":18671:18768   */\n      tag_245\n      jump\t// in\n    tag_430:\n        /* \"#utility.yul\":18789:18828   */\n      tag_431\n        /* \"#utility.yul\":18819:18827   */\n      dup7\n        /* \"#utility.yul\":18808:18817   */\n      dup4\n        /* \"#utility.yul\":18789:18828   */\n      tag_245\n      jump\t// in\n    tag_431:\n        /* \"#utility.yul\":18777:18828   */\n      swap6\n      pop\n        /* \"#utility.yul\":18861:18865   */\n      dup1\n        /* \"#utility.yul\":18857:18866   */\n      not\n        /* \"#utility.yul\":18850:18855   */\n      dup5\n        /* \"#utility.yul\":18846:18867   */\n      and\n        /* \"#utility.yul\":18837:18867   */\n      swap4\n      pop\n        /* \"#utility.yul\":18910:18914   */\n      dup1\n        /* \"#utility.yul\":18900:18908   */\n      dup7\n        /* \"#utility.yul\":18896:18915   */\n      and\n        /* \"#utility.yul\":18889:18894   */\n      dup5\n        /* \"#utility.yul\":18886:18916   */\n      or\n        /* \"#utility.yul\":18876:18916   */\n      swap3\n      pop\n        /* \"#utility.yul\":18605:18922   */\n      pop\n      pop\n        /* \"#utility.yul\":18529:18922   */\n      swap4\n      swap3\n      pop\n      pop\n      pop\n      jump\t// out\n        /* \"#utility.yul\":18928:19005   */\n    tag_247:\n        /* \"#utility.yul\":18965:18972   */\n      0x00\n        /* \"#utility.yul\":18994:18999   */\n      dup2\n        /* \"#utility.yul\":18983:18999   */\n      swap1\n      pop\n        /* \"#utility.yul\":18928:19005   */\n      swap2\n      swap1\n      pop\n      jump\t// out\n        /* \"#utility.yul\":19011:19071   */\n    tag_248:\n        /* \"#utility.yul\":19039:19042   */\n      0x00\n        /* \"#utility.yul\":19060:19065   */\n      dup2\n        /* \"#utility.yul\":19053:19065   */\n      swap1\n      pop\n        /* \"#utility.yul\":19011:19071   */\n      swap2\n      swap1\n      pop\n      jump\t// out\n        /* \"#utility.yul\":19077:19219   */\n    tag_249:\n        /* \"#utility.yul\":19127:19136   */\n      0x00\n        /* \"#utility.yul\":19160:19213   */\n      tag_435\n        /* \"#utility.yul\":19178:19212   */\n      tag_436\n        /* \"#utility.yul\":19187:19211   */\n      tag_437\n        /* \"#utility.yul\":19205:19210   */\n      dup5\n        /* \"#utility.yul\":19187:19211   */\n      tag_247\n      jump\t// in\n    tag_437:\n        /* \"#utility.yul\":19178:19212   */\n      tag_248\n      jump\t// in\n    tag_436:\n        /* \"#utility.yul\":19160:19213   */\n      tag_247\n      jump\t// in\n    tag_435:\n        /* \"#utility.yul\":19147:19213   */\n      swap1\n      pop\n        /* \"#utility.yul\":19077:19219   */\n      swap2\n      swap1\n      pop\n      jump\t// out\n        /* \"#utility.yul\":19225:19300   */\n    tag_250:\n        /* \"#utility.yul\":19268:19271   */\n      0x00\n        /* \"#utility.yul\":19289:19294   */\n      dup2\n        /* \"#utility.yul\":19282:19294   */\n      swap1\n      pop\n        /* \"#utility.yul\":19225:19300   */\n      swap2\n      swap1\n      pop\n      jump\t// out\n        /* \"#utility.yul\":19306:19575   */\n    tag_251:\n        /* \"#utility.yul\":19416:19455   */\n      tag_440\n        /* \"#utility.yul\":19447:19454   */\n      dup4\n        /* \"#utility.yul\":19416:19455   */\n      tag_249\n      jump\t// in\n    tag_440:\n        /* \"#utility.yul\":19477:19568   */\n      tag_441\n        /* \"#utility.yul\":19526:19567   */\n      tag_442\n        /* \"#utility.yul\":19550:19566   */\n      dup3\n        /* \"#utility.yul\":19526:19567   */\n      tag_250\n      jump\t// in\n    tag_442:\n        /* \"#utility.yul\":19518:19524   */\n      dup5\n        /* \"#utility.yul\":19511:19515   */\n      dup5\n        /* \"#utility.yul\":19505:19516   */\n      sload\n        /* \"#utility.yul\":19477:19568   */\n      tag_246\n      jump\t// in\n    tag_441:\n        /* \"#utility.yul\":19471:19475   */\n      dup3\n        /* \"#utility.yul\":19464:19569   */\n      sstore\n        /* \"#utility.yul\":19382:19575   */\n      pop\n        /* \"#utility.yul\":19306:19575   */\n      pop\n      pop\n      pop\n      jump\t// out\n        /* \"#utility.yul\":19581:19654   */\n    tag_252:\n        /* \"#utility.yul\":19626:19629   */\n      0x00\n        /* \"#utility.yul\":19647:19648   */\n      0x00\n        /* \"#utility.yul\":19640:19648   */\n      swap1\n      pop\n        /* \"#utility.yul\":19581:19654   */\n      swap1\n      jump\t// out\n        /* \"#utility.yul\":19660:19849   */\n    tag_253:\n        /* \"#utility.yul\":19737:19769   */\n      tag_445\n      tag_252\n      jump\t// in\n    tag_445:\n        /* \"#utility.yul\":19778:19843   */\n      tag_446\n        /* \"#utility.yul\":19836:19842   */\n      dup2\n        /* \"#utility.yul\":19828:19834   */\n      dup5\n        /* \"#utility.yul\":19822:19826   */\n      dup5\n        /* \"#utility.yul\":19778:19843   */\n      tag_251\n      jump\t// in\n    tag_446:\n        /* \"#utility.yul\":19713:19849   */\n      pop\n        /* \"#utility.yul\":19660:19849   */\n      pop\n      pop\n      jump\t// out\n        /* \"#utility.yul\":19855:20041   */\n    tag_254:\n        /* \"#utility.yul\":19915:20035   */\n    tag_448:\n        /* \"#utility.yul\":19932:19935   */\n      dup2\n        /* \"#utility.yul\":19925:19930   */\n      dup2\n        /* \"#utility.yul\":19922:19936   */\n      lt\n        /* \"#utility.yul\":19915:20035   */\n      iszero\n      tag_450\n      jumpi\n        /* \"#utility.yul\":19986:20025   */\n      tag_451\n        /* \"#utility.yul\":20023:20024   */\n      0x00\n        /* \"#utility.yul\":20016:20021   */\n      dup3\n        /* \"#utility.yul\":19986:20025   */\n      tag_253\n      jump\t// in\n    tag_451:\n        /* \"#utility.yul\":19959:19960   */\n      0x01\n        /* \"#utility.yul\":19952:19957   */\n      dup2\n        /* \"#utility.yul\":19948:19961   */\n      add\n        /* \"#utility.yul\":19939:19961   */\n      swap1\n      pop\n        /* \"#utility.yul\":19915:20035   */\n      jump(tag_448)\n    tag_450:\n        /* \"#utility.yul\":19855:20041   */\n      pop\n      pop\n      jump\t// out\n        /* \"#utility.yul\":20047:20590   */\n    tag_255:\n        /* \"#utility.yul\":20148:20150   */\n      0x1f\n        /* \"#utility.yul\":20143:20146   */\n      dup3\n        /* \"#utility.yul\":20140:20151   */\n      gt\n        /* \"#utility.yul\":20137:20583   */\n      iszero\n      tag_453\n      jumpi\n        /* \"#utility.yul\":20182:20220   */\n      tag_454\n        /* \"#utility.yul\":20214:20219   */\n      dup2\n        /* \"#utility.yul\":20182:20220   */\n      tag_243\n      jump\t// in\n    tag_454:\n        /* \"#utility.yul\":20266:20295   */\n      tag_455\n        /* \"#utility.yul\":20284:20294   */\n      dup5\n        /* \"#utility.yul\":20266:20295   */\n      tag_244\n      jump\t// in\n    tag_455:\n        /* \"#utility.yul\":20256:20264   */\n      dup2\n        /* \"#utility.yul\":20252:20296   */\n      add\n        /* \"#utility.yul\":20449:20451   */\n      0x20\n        /* \"#utility.yul\":20437:20447   */\n      dup6\n        /* \"#utility.yul\":20434:20452   */\n      lt\n        /* \"#utility.yul\":20431:20480   */\n      iszero\n      tag_456\n      jumpi\n        /* \"#utility.yul\":20470:20478   */\n      dup2\n        /* \"#utility.yul\":20455:20478   */\n      swap1\n      pop\n        /* \"#utility.yul\":20431:20480   */\n    tag_456:\n        /* \"#utility.yul\":20493:20573   */\n      tag_457\n        /* \"#utility.yul\":20549:20571   */\n      tag_458\n        /* \"#utility.yul\":20567:20570   */\n      dup6\n        /* \"#utility.yul\":20549:20571   */\n      tag_244\n      jump\t// in\n    tag_458:\n        /* \"#utility.yul\":20539:20547   */\n      dup4\n        /* \"#utility.yul\":20535:20572   */\n      add\n        /* \"#utility.yul\":20522:20533   */\n      dup3\n        /* \"#utility.yul\":20493:20573   */\n      tag_254\n      jump\t// in\n    tag_457:\n        /* \"#utility.yul\":20152:20583   */\n      pop\n      pop\n        /* \"#utility.yul\":20137:20583   */\n    tag_453:\n        /* \"#utility.yul\":20047:20590   */\n      pop\n      pop\n      pop\n      jump\t// out\n        /* \"#utility.yul\":20596:20713   */\n    tag_256:\n        /* \"#utility.yul\":20650:20658   */\n      0x00\n        /* \"#utility.yul\":20700:20705   */\n      dup3\n        /* \"#utility.yul\":20694:20698   */\n      dup3\n        /* \"#utility.yul\":20690:20706   */\n      shr\n        /* \"#utility.yul\":20669:20706   */\n      swap1\n      pop\n        /* \"#utility.yul\":20596:20713   */\n      swap3\n      swap2\n      pop\n      pop\n      jump\t// out\n        /* \"#utility.yul\":20719:20888   */\n    tag_257:\n        /* \"#utility.yul\":20763:20769   */\n      0x00\n        /* \"#utility.yul\":20796:20847   */\n      tag_461\n        /* \"#utility.yul\":20844:20845   */\n      0x00\n        /* \"#utility.yul\":20840:20846   */\n      not\n        /* \"#utility.yul\":20832:20837   */\n      dup5\n        /* \"#utility.yul\":20829:20830   */\n      0x08\n        /* \"#utility.yul\":20825:20838   */\n      mul\n        /* \"#utility.yul\":20796:20847   */\n      tag_256\n      jump\t// in\n    tag_461:\n        /* \"#utility.yul\":20792:20848   */\n      not\n        /* \"#utility.yul\":20877:20881   */\n      dup1\n        /* \"#utility.yul\":20871:20875   */\n      dup4\n        /* \"#utility.yul\":20867:20882   */\n      and\n        /* \"#utility.yul\":20857:20882   */\n      swap2\n      pop\n        /* \"#utility.yul\":20770:20888   */\n      pop\n        /* \"#utility.yul\":20719:20888   */\n      swap3\n      swap2\n      pop\n      pop\n      jump\t// out\n        /* \"#utility.yul\":20893:21188   */\n    tag_258:\n        /* \"#utility.yul\":20969:20973   */\n      0x00\n        /* \"#utility.yul\":21115:21144   */\n      tag_463\n        /* \"#utility.yul\":21140:21143   */\n      dup4\n        /* \"#utility.yul\":21134:21138   */\n      dup4\n        /* \"#utility.yul\":21115:21144   */\n      tag_257\n      jump\t// in\n    tag_463:\n        /* \"#utility.yul\":21107:21144   */\n      swap2\n      pop\n        /* \"#utility.yul\":21177:21180   */\n      dup3\n        /* \"#utility.yul\":21174:21175   */\n      0x02\n        /* \"#utility.yul\":21170:21181   */\n      mul\n        /* \"#utility.yul\":21164:21168   */\n      dup3\n        /* \"#utility.yul\":21161:21182   */\n      or\n        /* \"#utility.yul\":21153:21182   */\n      swap1\n      pop\n        /* \"#utility.yul\":20893:21188   */\n      swap3\n      swap2\n      pop\n      pop\n      jump\t// out\n        /* \"#utility.yul\":21193:22596   */\n    tag_67:\n        /* \"#utility.yul\":21317:21361   */\n      tag_465\n        /* \"#utility.yul\":21357:21360   */\n      dup4\n        /* \"#utility.yul\":21352:21355   */\n      dup4\n        /* \"#utility.yul\":21317:21361   */\n      tag_241\n      jump\t// in\n    tag_465:\n        /* \"#utility.yul\":21426:21444   */\n      0xffffffffffffffff\n        /* \"#utility.yul\":21418:21424   */\n      dup2\n        /* \"#utility.yul\":21415:21445   */\n      gt\n        /* \"#utility.yul\":21412:21468   */\n      iszero\n      tag_466\n      jumpi\n        /* \"#utility.yul\":21448:21466   */\n      tag_467\n      tag_142\n      jump\t// in\n    tag_467:\n        /* \"#utility.yul\":21412:21468   */\n    tag_466:\n        /* \"#utility.yul\":21492:21530   */\n      tag_468\n        /* \"#utility.yul\":21524:21528   */\n      dup3\n        /* \"#utility.yul\":21518:21529   */\n      sload\n        /* \"#utility.yul\":21492:21530   */\n      tag_114\n      jump\t// in\n    tag_468:\n        /* \"#utility.yul\":21577:21644   */\n      tag_469\n        /* \"#utility.yul\":21637:21643   */\n      dup3\n        /* \"#utility.yul\":21629:21635   */\n      dup3\n        /* \"#utility.yul\":21623:21627   */\n      dup6\n        /* \"#utility.yul\":21577:21644   */\n      tag_255\n      jump\t// in\n    tag_469:\n        /* \"#utility.yul\":21671:21672   */\n      0x00\n        /* \"#utility.yul\":21700:21702   */\n      0x1f\n        /* \"#utility.yul\":21692:21698   */\n      dup4\n        /* \"#utility.yul\":21689:21703   */\n      gt\n        /* \"#utility.yul\":21717:21718   */\n      0x01\n        /* \"#utility.yul\":21712:22344   */\n      dup2\n      eq\n      tag_471\n      jumpi\n        /* \"#utility.yul\":22388:22389   */\n      0x00\n        /* \"#utility.yul\":22405:22411   */\n      dup5\n        /* \"#utility.yul\":22402:22486   */\n      iszero\n      tag_472\n      jumpi\n        /* \"#utility.yul\":22461:22470   */\n      dup3\n        /* \"#utility.yul\":22456:22459   */\n      dup8\n        /* \"#utility.yul\":22452:22471   */\n      add\n        /* \"#utility.yul\":22439:22472   */\n      calldataload\n        /* \"#utility.yul\":22430:22472   */\n      swap1\n      pop\n        /* \"#utility.yul\":22402:22486   */\n    tag_472:\n        /* \"#utility.yul\":22512:22579   */\n      tag_473\n        /* \"#utility.yul\":22572:22578   */\n      dup6\n        /* \"#utility.yul\":22565:22570   */\n      dup3\n        /* \"#utility.yul\":22512:22579   */\n      tag_258\n      jump\t// in\n    tag_473:\n        /* \"#utility.yul\":22506:22510   */\n      dup7\n        /* \"#utility.yul\":22499:22580   */\n      sstore\n        /* \"#utility.yul\":22361:22590   */\n      pop\n        /* \"#utility.yul\":21682:22590   */\n      jump(tag_470)\n        /* \"#utility.yul\":21712:22344   */\n    tag_471:\n        /* \"#utility.yul\":21764:21768   */\n      0x1f\n        /* \"#utility.yul\":21760:21769   */\n      not\n        /* \"#utility.yul\":21752:21758   */\n      dup5\n        /* \"#utility.yul\":21748:21770   */\n      and\n        /* \"#utility.yul\":21798:21835   */\n      tag_474\n        /* \"#utility.yul\":21830:21834   */\n      dup7\n        /* \"#utility.yul\":21798:21835   */\n      tag_243\n      jump\t// in\n    tag_474:\n        /* \"#utility.yul\":21857:21858   */\n      0x00\n        /* \"#utility.yul\":21871:22086   */\n    tag_475:\n        /* \"#utility.yul\":21885:21892   */\n      dup3\n        /* \"#utility.yul\":21882:21883   */\n      dup2\n        /* \"#utility.yul\":21879:21893   */\n      lt\n        /* \"#utility.yul\":21871:22086   */\n      iszero\n      tag_477\n      jumpi\n        /* \"#utility.yul\":21971:21980   */\n      dup5\n        /* \"#utility.yul\":21966:21969   */\n      dup10\n        /* \"#utility.yul\":21962:21981   */\n      add\n        /* \"#utility.yul\":21949:21982   */\n      calldataload\n        /* \"#utility.yul\":21941:21947   */\n      dup3\n        /* \"#utility.yul\":21934:21983   */\n      sstore\n        /* \"#utility.yul\":22022:22023   */\n      0x01\n        /* \"#utility.yul\":22014:22020   */\n      dup3\n        /* \"#utility.yul\":22010:22024   */\n      add\n        /* \"#utility.yul\":22000:22024   */\n      swap2\n      pop\n        /* \"#utility.yul\":22069:22071   */\n      0x20\n        /* \"#utility.yul\":22058:22067   */\n      dup6\n        /* \"#utility.yul\":22054:22072   */\n      add\n        /* \"#utility.yul\":22041:22072   */\n      swap5\n      pop\n        /* \"#utility.yul\":21908:21912   */\n      0x20\n        /* \"#utility.yul\":21905:21906   */\n      dup2\n        /* \"#utility.yul\":21901:21913   */\n      add\n        /* \"#utility.yul\":21896:21913   */\n      swap1\n      pop\n        /* \"#utility.yul\":21871:22086   */\n      jump(tag_475)\n    tag_477:\n        /* \"#utility.yul\":22114:22120   */\n      dup7\n        /* \"#utility.yul\":22105:22112   */\n      dup4\n        /* \"#utility.yul\":22102:22121   */\n      lt\n        /* \"#utility.yul\":22099:22285   */\n      iszero\n      tag_478\n      jumpi\n        /* \"#utility.yul\":22179:22188   */\n      dup5\n        /* \"#utility.yul\":22174:22177   */\n      dup10\n        /* \"#utility.yul\":22170:22189   */\n      add\n        /* \"#utility.yul\":22157:22190   */\n      calldataload\n        /* \"#utility.yul\":22222:22270   */\n      tag_479\n        /* \"#utility.yul\":22264:22268   */\n      0x1f\n        /* \"#utility.yul\":22256:22262   */\n      dup10\n        /* \"#utility.yul\":22252:22269   */\n      and\n        /* \"#utility.yul\":22241:22250   */\n      dup3\n        /* \"#utility.yul\":22222:22270   */\n      tag_257\n      jump\t// in\n    tag_479:\n        /* \"#utility.yul\":22214:22220   */\n      dup4\n        /* \"#utility.yul\":22207:22271   */\n      sstore\n        /* \"#utility.yul\":22122:22285   */\n      pop\n        /* \"#utility.yul\":22099:22285   */\n    tag_478:\n        /* \"#utility.yul\":22331:22332   */\n      0x01\n        /* \"#utility.yul\":22327:22328   */\n      0x02\n        /* \"#utility.yul\":22319:22325   */\n      dup9\n        /* \"#utility.yul\":22315:22329   */\n      mul\n        /* \"#utility.yul\":22311:22333   */\n      add\n        /* \"#utility.yul\":22305:22309   */\n      dup9\n        /* \"#utility.yul\":22298:22334   */\n      sstore\n        /* \"#utility.yul\":21719:22344   */\n      pop\n      pop\n      pop\n        /* \"#utility.yul\":21682:22590   */\n    tag_470:\n      pop\n        /* \"#utility.yul\":21292:22596   */\n      pop\n      pop\n      pop\n        /* \"#utility.yul\":21193:22596   */\n      pop\n      pop\n      pop\n      jump\t// out\n        /* \"#utility.yul\":22626:22943   */\n    tag_259:\n        /* \"#utility.yul\":22724:22727   */\n      0x00\n        /* \"#utility.yul\":22745:22816   */\n      tag_481\n        /* \"#utility.yul\":22809:22815   */\n      dup4\n        /* \"#utility.yul\":22804:22807   */\n      dup6\n        /* \"#utility.yul\":22745:22816   */\n      tag_231\n      jump\t// in\n    tag_481:\n        /* \"#utility.yul\":22738:22816   */\n      swap4\n      pop\n        /* \"#utility.yul\":22826:22882   */\n      tag_482\n        /* \"#utility.yul\":22875:22881   */\n      dup4\n        /* \"#utility.yul\":22870:22873   */\n      dup6\n        /* \"#utility.yul\":22863:22868   */\n      dup5\n        /* \"#utility.yul\":22826:22882   */\n      tag_211\n      jump\t// in\n    tag_482:\n        /* \"#utility.yul\":22907:22936   */\n      tag_483\n        /* \"#utility.yul\":22929:22935   */\n      dup4\n        /* \"#utility.yul\":22907:22936   */\n      tag_207\n      jump\t// in\n    tag_483:\n        /* \"#utility.yul\":22902:22905   */\n      dup5\n        /* \"#utility.yul\":22898:22937   */\n      add\n        /* \"#utility.yul\":22891:22937   */\n      swap1\n      pop\n        /* \"#utility.yul\":22626:22943   */\n      swap4\n      swap3\n      pop\n      pop\n      pop\n      jump\t// out\n        /* \"#utility.yul\":22949:23282   */\n    tag_77:\n        /* \"#utility.yul\":23072:23076   */\n      0x00\n        /* \"#utility.yul\":23110:23112   */\n      0x20\n        /* \"#utility.yul\":23099:23108   */\n      dup3\n        /* \"#utility.yul\":23095:23113   */\n      add\n        /* \"#utility.yul\":23087:23113   */\n      swap1\n      pop\n        /* \"#utility.yul\":23159:23168   */\n      dup2\n        /* \"#utility.yul\":23153:23157   */\n      dup2\n        /* \"#utility.yul\":23149:23169   */\n      sub\n        /* \"#utility.yul\":23145:23146   */\n      0x00\n        /* \"#utility.yul\":23134:23143   */\n      dup4\n        /* \"#utility.yul\":23130:23147   */\n      add\n        /* \"#utility.yul\":23123:23170   */\n      mstore\n        /* \"#utility.yul\":23187:23275   */\n      tag_485\n        /* \"#utility.yul\":23270:23274   */\n      dup2\n        /* \"#utility.yul\":23261:23267   */\n      dup5\n        /* \"#utility.yul\":23253:23259   */\n      dup7\n        /* \"#utility.yul\":23187:23275   */\n      tag_259\n      jump\t// in\n    tag_485:\n        /* \"#utility.yul\":23179:23275   */\n      swap1\n      pop\n        /* \"#utility.yul\":22949:23282   */\n      swap4\n      swap3\n      pop\n      pop\n      pop\n      jump\t// out\n        /* \"#utility.yul\":23288:23468   */\n    tag_81:\n        /* \"#utility.yul\":23336:23413   */\n      0x4e487b7100000000000000000000000000000000000000000000000000000000\n        /* \"#utility.yul\":23333:23334   */\n      0x00\n        /* \"#utility.yul\":23326:23414   */\n      mstore\n        /* \"#utility.yul\":23433:23437   */\n      0x32\n        /* \"#utility.yul\":23430:23431   */\n      0x04\n        /* \"#utility.yul\":23423:23438   */\n      mstore\n        /* \"#utility.yul\":23457:23461   */\n      0x24\n        /* \"#utility.yul\":23454:23455   */\n      0x00\n        /* \"#utility.yul\":23447:23462   */\n      revert\n        /* \"#utility.yul\":23498:24329   */\n    tag_260:\n        /* \"#utility.yul\":23583:23586   */\n      0x00\n        /* \"#utility.yul\":23620:23625   */\n      dup2\n        /* \"#utility.yul\":23614:23626   */\n      sload\n        /* \"#utility.yul\":23649:23685   */\n      tag_488\n        /* \"#utility.yul\":23675:23684   */\n      dup2\n        /* \"#utility.yul\":23649:23685   */\n      tag_114\n      jump\t// in\n    tag_488:\n        /* \"#utility.yul\":23701:23772   */\n      tag_489\n        /* \"#utility.yul\":23765:23771   */\n      dup2\n        /* \"#utility.yul\":23760:23763   */\n      dup7\n        /* \"#utility.yul\":23701:23772   */\n      tag_231\n      jump\t// in\n    tag_489:\n        /* \"#utility.yul\":23694:23772   */\n      swap5\n      pop\n        /* \"#utility.yul\":23803:23804   */\n      0x01\n        /* \"#utility.yul\":23792:23801   */\n      dup3\n        /* \"#utility.yul\":23788:23805   */\n      and\n        /* \"#utility.yul\":23819:23820   */\n      0x00\n        /* \"#utility.yul\":23814:23978   */\n      dup2\n      eq\n      tag_491\n      jumpi\n        /* \"#utility.yul\":23992:23993   */\n      0x01\n        /* \"#utility.yul\":23987:24323   */\n      dup2\n      eq\n      tag_492\n      jumpi\n        /* \"#utility.yul\":23781:24323   */\n      jump(tag_490)\n        /* \"#utility.yul\":23814:23978   */\n    tag_491:\n        /* \"#utility.yul\":23898:23902   */\n      0xff\n        /* \"#utility.yul\":23894:23903   */\n      not\n        /* \"#utility.yul\":23883:23892   */\n      dup4\n        /* \"#utility.yul\":23879:23904   */\n      and\n        /* \"#utility.yul\":23874:23877   */\n      dup7\n        /* \"#utility.yul\":23867:23905   */\n      mstore\n        /* \"#utility.yul\":23958:23964   */\n      dup2\n        /* \"#utility.yul\":23951:23965   */\n      iszero\n        /* \"#utility.yul\":23944:23966   */\n      iszero\n        /* \"#utility.yul\":23938:23942   */\n      0x20\n        /* \"#utility.yul\":23934:23967   */\n      mul\n        /* \"#utility.yul\":23929:23932   */\n      dup7\n        /* \"#utility.yul\":23925:23968   */\n      add\n        /* \"#utility.yul\":23918:23968   */\n      swap4\n      pop\n        /* \"#utility.yul\":23814:23978   */\n      jump(tag_490)\n        /* \"#utility.yul\":23987:24323   */\n    tag_492:\n        /* \"#utility.yul\":24054:24092   */\n      tag_493\n        /* \"#utility.yul\":24086:24091   */\n      dup6\n        /* \"#utility.yul\":24054:24092   */\n      tag_243\n      jump\t// in\n    tag_493:\n        /* \"#utility.yul\":24114:24115   */\n      0x00\n        /* \"#utility.yul\":24128:24282   */\n    tag_494:\n        /* \"#utility.yul\":24142:24148   */\n      dup4\n        /* \"#utility.yul\":24139:24140   */\n      dup2\n        /* \"#utility.yul\":24136:24149   */\n      lt\n        /* \"#utility.yul\":24128:24282   */\n      iszero\n      tag_496\n      jumpi\n        /* \"#utility.yul\":24216:24223   */\n      dup2\n        /* \"#utility.yul\":24210:24224   */\n      sload\n        /* \"#utility.yul\":24206:24207   */\n      dup2\n        /* \"#utility.yul\":24201:24204   */\n      dup10\n        /* \"#utility.yul\":24197:24208   */\n      add\n        /* \"#utility.yul\":24190:24225   */\n      mstore\n        /* \"#utility.yul\":24266:24267   */\n      0x01\n        /* \"#utility.yul\":24257:24264   */\n      dup3\n        /* \"#utility.yul\":24253:24268   */\n      add\n        /* \"#utility.yul\":24242:24268   */\n      swap2\n      pop\n        /* \"#utility.yul\":24164:24168   */\n      0x20\n        /* \"#utility.yul\":24161:24162   */\n      dup2\n        /* \"#utility.yul\":24157:24169   */\n      add\n        /* \"#utility.yul\":24152:24169   */\n      swap1\n      pop\n        /* \"#utility.yul\":24128:24282   */\n      jump(tag_494)\n    tag_496:\n        /* \"#utility.yul\":24311:24312   */\n      dup1\n        /* \"#utility.yul\":24306:24309   */\n      dup9\n        /* \"#utility.yul\":24302:24313   */\n      add\n        /* \"#utility.yul\":24295:24313   */\n      swap6\n      pop\n        /* \"#utility.yul\":23994:24323   */\n      pop\n      pop\n        /* \"#utility.yul\":23781:24323   */\n    tag_490:\n      pop\n        /* \"#utility.yul\":23587:24329   */\n      pop\n      pop\n        /* \"#utility.yul\":23498:24329   */\n      swap3\n      swap2\n      pop\n      pop\n      jump\t// out\n        /* \"#utility.yul\":24335:24642   */\n    tag_84:\n        /* \"#utility.yul\":24445:24449   */\n      0x00\n        /* \"#utility.yul\":24483:24485   */\n      0x20\n        /* \"#utility.yul\":24472:24481   */\n      dup3\n        /* \"#utility.yul\":24468:24486   */\n      add\n        /* \"#utility.yul\":24460:24486   */\n      swap1\n      pop\n        /* \"#utility.yul\":24532:24541   */\n      dup2\n        /* \"#utility.yul\":24526:24530   */\n      dup2\n        /* \"#utility.yul\":24522:24542   */\n      sub\n        /* \"#utility.yul\":24518:24519   */\n      0x00\n        /* \"#utility.yul\":24507:24516   */\n      dup4\n        /* \"#utility.yul\":24503:24520   */\n      add\n        /* \"#utility.yul\":24496:24543   */\n      mstore\n        /* \"#utility.yul\":24560:24635   */\n      tag_498\n        /* \"#utility.yul\":24630:24634   */\n      dup2\n        /* \"#utility.yul\":24621:24627   */\n      dup5\n        /* \"#utility.yul\":24560:24635   */\n      tag_260\n      jump\t// in\n    tag_498:\n        /* \"#utility.yul\":24552:24635   */\n      swap1\n      pop\n        /* \"#utility.yul\":24335:24642   */\n      swap3\n      swap2\n      pop\n      pop\n      jump\t// out\n        /* \"#utility.yul\":24648:25038   */\n    tag_261:\n        /* \"#utility.yul\":24754:24757   */\n      0x00\n        /* \"#utility.yul\":24782:24821   */\n      tag_500\n        /* \"#utility.yul\":24815:24820   */\n      dup3\n        /* \"#utility.yul\":24782:24821   */\n      tag_220\n      jump\t// in\n    tag_500:\n        /* \"#utility.yul\":24837:24926   */\n      tag_501\n        /* \"#utility.yul\":24919:24925   */\n      dup2\n        /* \"#utility.yul\":24914:24917   */\n      dup6\n        /* \"#utility.yul\":24837:24926   */\n      tag_235\n      jump\t// in\n    tag_501:\n        /* \"#utility.yul\":24830:24926   */\n      swap4\n      pop\n        /* \"#utility.yul\":24935:25000   */\n      tag_502\n        /* \"#utility.yul\":24993:24999   */\n      dup2\n        /* \"#utility.yul\":24988:24991   */\n      dup6\n        /* \"#utility.yul\":24981:24985   */\n      0x20\n        /* \"#utility.yul\":24974:24979   */\n      dup7\n        /* \"#utility.yul\":24970:24986   */\n      add\n        /* \"#utility.yul\":24935:25000   */\n      tag_222\n      jump\t// in\n    tag_502:\n        /* \"#utility.yul\":25025:25031   */\n      dup1\n        /* \"#utility.yul\":25020:25023   */\n      dup5\n        /* \"#utility.yul\":25016:25032   */\n      add\n        /* \"#utility.yul\":25009:25032   */\n      swap2\n      pop\n        /* \"#utility.yul\":24758:25038   */\n      pop\n        /* \"#utility.yul\":24648:25038   */\n      swap3\n      swap2\n      pop\n      pop\n      jump\t// out\n        /* \"#utility.yul\":25044:25319   */\n    tag_88:\n        /* \"#utility.yul\":25176:25179   */\n      0x00\n        /* \"#utility.yul\":25198:25293   */\n      tag_504\n        /* \"#utility.yul\":25289:25292   */\n      dup3\n        /* \"#utility.yul\":25280:25286   */\n      dup5\n        /* \"#utility.yul\":25198:25293   */\n      tag_261\n      jump\t// in\n    tag_504:\n        /* \"#utility.yul\":25191:25293   */\n      swap2\n      pop\n        /* \"#utility.yul\":25310:25313   */\n      dup2\n        /* \"#utility.yul\":25303:25313   */\n      swap1\n      pop\n        /* \"#utility.yul\":25044:25319   */\n      swap3\n      swap2\n      pop\n      pop\n      jump\t// out\n        /* \"#utility.yul\":25325:25502   */\n    tag_262:\n        /* \"#utility.yul\":25465:25494   */\n      0x5468652044494420697320616c72656164792063726561746564210000000000\n        /* \"#utility.yul\":25461:25462   */\n      0x00\n        /* \"#utility.yul\":25453:25459   */\n      dup3\n        /* \"#utility.yul\":25449:25463   */\n      add\n        /* \"#utility.yul\":25442:25495   */\n      mstore\n        /* \"#utility.yul\":25325:25502   */\n      pop\n      jump\t// out\n        /* \"#utility.yul\":25508:25874   */\n    tag_263:\n        /* \"#utility.yul\":25650:25653   */\n      0x00\n        /* \"#utility.yul\":25671:25738   */\n      tag_507\n        /* \"#utility.yul\":25735:25737   */\n      0x1b\n        /* \"#utility.yul\":25730:25733   */\n      dup4\n        /* \"#utility.yul\":25671:25738   */\n      tag_231\n      jump\t// in\n    tag_507:\n        /* \"#utility.yul\":25664:25738   */\n      swap2\n      pop\n        /* \"#utility.yul\":25747:25840   */\n      tag_508\n        /* \"#utility.yul\":25836:25839   */\n      dup3\n        /* \"#utility.yul\":25747:25840   */\n      tag_262\n      jump\t// in\n    tag_508:\n        /* \"#utility.yul\":25865:25867   */\n      0x20\n        /* \"#utility.yul\":25860:25863   */\n      dup3\n        /* \"#utility.yul\":25856:25868   */\n      add\n        /* \"#utility.yul\":25849:25868   */\n      swap1\n      pop\n        /* \"#utility.yul\":25508:25874   */\n      swap2\n      swap1\n      pop\n      jump\t// out\n        /* \"#utility.yul\":25880:26299   */\n    tag_91:\n        /* \"#utility.yul\":26046:26050   */\n      0x00\n        /* \"#utility.yul\":26084:26086   */\n      0x20\n        /* \"#utility.yul\":26073:26082   */\n      dup3\n        /* \"#utility.yul\":26069:26087   */\n      add\n        /* \"#utility.yul\":26061:26087   */\n      swap1\n      pop\n        /* \"#utility.yul\":26133:26142   */\n      dup2\n        /* \"#utility.yul\":26127:26131   */\n      dup2\n        /* \"#utility.yul\":26123:26143   */\n      sub\n        /* \"#utility.yul\":26119:26120   */\n      0x00\n        /* \"#utility.yul\":26108:26117   */\n      dup4\n        /* \"#utility.yul\":26104:26121   */\n      add\n        /* \"#utility.yul\":26097:26144   */\n      mstore\n        /* \"#utility.yul\":26161:26292   */\n      tag_510\n        /* \"#utility.yul\":26287:26291   */\n      dup2\n        /* \"#utility.yul\":26161:26292   */\n      tag_263\n      jump\t// in\n    tag_510:\n        /* \"#utility.yul\":26153:26292   */\n      swap1\n      pop\n        /* \"#utility.yul\":25880:26299   */\n      swap2\n      swap1\n      pop\n      jump\t// out\n        /* \"#utility.yul\":26305:26478   */\n    tag_264:\n        /* \"#utility.yul\":26445:26470   */\n      0x5468657265206973206e6f207375636820612044494421000000000000000000\n        /* \"#utility.yul\":26441:26442   */\n      0x00\n        /* \"#utility.yul\":26433:26439   */\n      dup3\n        /* \"#utility.yul\":26429:26443   */\n      add\n        /* \"#utility.yul\":26422:26471   */\n      mstore\n        /* \"#utility.yul\":26305:26478   */\n      pop\n      jump\t// out\n        /* \"#utility.yul\":26484:26850   */\n    tag_265:\n        /* \"#utility.yul\":26626:26629   */\n      0x00\n        /* \"#utility.yul\":26647:26714   */\n      tag_513\n        /* \"#utility.yul\":26711:26713   */\n      0x17\n        /* \"#utility.yul\":26706:26709   */\n      dup4\n        /* \"#utility.yul\":26647:26714   */\n      tag_231\n      jump\t// in\n    tag_513:\n        /* \"#utility.yul\":26640:26714   */\n      swap2\n      pop\n        /* \"#utility.yul\":26723:26816   */\n      tag_514\n        /* \"#utility.yul\":26812:26815   */\n      dup3\n        /* \"#utility.yul\":26723:26816   */\n      tag_264\n      jump\t// in\n    tag_514:\n        /* \"#utility.yul\":26841:26843   */\n      0x20\n        /* \"#utility.yul\":26836:26839   */\n      dup3\n        /* \"#utility.yul\":26832:26844   */\n      add\n        /* \"#utility.yul\":26825:26844   */\n      swap1\n      pop\n        /* \"#utility.yul\":26484:26850   */\n      swap2\n      swap1\n      pop\n      jump\t// out\n        /* \"#utility.yul\":26856:27275   */\n    tag_136:\n        /* \"#utility.yul\":27022:27026   */\n      0x00\n        /* \"#utility.yul\":27060:27062   */\n      0x20\n        /* \"#utility.yul\":27049:27058   */\n      dup3\n        /* \"#utility.yul\":27045:27063   */\n      add\n        /* \"#utility.yul\":27037:27063   */\n      swap1\n      pop\n        /* \"#utility.yul\":27109:27118   */\n      dup2\n        /* \"#utility.yul\":27103:27107   */\n      dup2\n        /* \"#utility.yul\":27099:27119   */\n      sub\n        /* \"#utility.yul\":27095:27096   */\n      0x00\n        /* \"#utility.yul\":27084:27093   */\n      dup4\n        /* \"#utility.yul\":27080:27097   */\n      add\n        /* \"#utility.yul\":27073:27120   */\n      mstore\n        /* \"#utility.yul\":27137:27268   */\n      tag_516\n        /* \"#utility.yul\":27263:27267   */\n      dup2\n        /* \"#utility.yul\":27137:27268   */\n      tag_265\n      jump\t// in\n    tag_516:\n        /* \"#utility.yul\":27129:27268   */\n      swap1\n      pop\n        /* \"#utility.yul\":26856:27275   */\n      swap2\n      swap1\n      pop\n      jump\t// out\n        /* \"#utility.yul\":27281:28676   */\n    tag_147:\n        /* \"#utility.yul\":27398:27435   */\n      tag_518\n        /* \"#utility.yul\":27431:27434   */\n      dup3\n        /* \"#utility.yul\":27398:27435   */\n      tag_220\n      jump\t// in\n    tag_518:\n        /* \"#utility.yul\":27500:27518   */\n      0xffffffffffffffff\n        /* \"#utility.yul\":27492:27498   */\n      dup2\n        /* \"#utility.yul\":27489:27519   */\n      gt\n        /* \"#utility.yul\":27486:27542   */\n      iszero\n      tag_519\n      jumpi\n        /* \"#utility.yul\":27522:27540   */\n      tag_520\n      tag_142\n      jump\t// in\n    tag_520:\n        /* \"#utility.yul\":27486:27542   */\n    tag_519:\n        /* \"#utility.yul\":27566:27604   */\n      tag_521\n        /* \"#utility.yul\":27598:27602   */\n      dup3\n        /* \"#utility.yul\":27592:27603   */\n      sload\n        /* \"#utility.yul\":27566:27604   */\n      tag_114\n      jump\t// in\n    tag_521:\n        /* \"#utility.yul\":27651:27718   */\n      tag_522\n        /* \"#utility.yul\":27711:27717   */\n      dup3\n        /* \"#utility.yul\":27703:27709   */\n      dup3\n        /* \"#utility.yul\":27697:27701   */\n      dup6\n        /* \"#utility.yul\":27651:27718   */\n      tag_255\n      jump\t// in\n    tag_522:\n        /* \"#utility.yul\":27745:27746   */\n      0x00\n        /* \"#utility.yul\":27769:27773   */\n      0x20\n        /* \"#utility.yul\":27756:27773   */\n      swap1\n      pop\n        /* \"#utility.yul\":27801:27803   */\n      0x1f\n        /* \"#utility.yul\":27793:27799   */\n      dup4\n        /* \"#utility.yul\":27790:27804   */\n      gt\n        /* \"#utility.yul\":27818:27819   */\n      0x01\n        /* \"#utility.yul\":27813:28431   */\n      dup2\n      eq\n      tag_524\n      jumpi\n        /* \"#utility.yul\":28475:28476   */\n      0x00\n        /* \"#utility.yul\":28492:28498   */\n      dup5\n        /* \"#utility.yul\":28489:28566   */\n      iszero\n      tag_525\n      jumpi\n        /* \"#utility.yul\":28541:28550   */\n      dup3\n        /* \"#utility.yul\":28536:28539   */\n      dup8\n        /* \"#utility.yul\":28532:28551   */\n      add\n        /* \"#utility.yul\":28526:28552   */\n      mload\n        /* \"#utility.yul\":28517:28552   */\n      swap1\n      pop\n        /* \"#utility.yul\":28489:28566   */\n    tag_525:\n        /* \"#utility.yul\":28592:28659   */\n      tag_526\n        /* \"#utility.yul\":28652:28658   */\n      dup6\n        /* \"#utility.yul\":28645:28650   */\n      dup3\n        /* \"#utility.yul\":28592:28659   */\n      tag_258\n      jump\t// in\n    tag_526:\n        /* \"#utility.yul\":28586:28590   */\n      dup7\n        /* \"#utility.yul\":28579:28660   */\n      sstore\n        /* \"#utility.yul\":28448:28670   */\n      pop\n        /* \"#utility.yul\":27783:28670   */\n      jump(tag_523)\n        /* \"#utility.yul\":27813:28431   */\n    tag_524:\n        /* \"#utility.yul\":27865:27869   */\n      0x1f\n        /* \"#utility.yul\":27861:27870   */\n      not\n        /* \"#utility.yul\":27853:27859   */\n      dup5\n        /* \"#utility.yul\":27849:27871   */\n      and\n        /* \"#utility.yul\":27899:27936   */\n      tag_527\n        /* \"#utility.yul\":27931:27935   */\n      dup7\n        /* \"#utility.yul\":27899:27936   */\n      tag_243\n      jump\t// in\n    tag_527:\n        /* \"#utility.yul\":27958:27959   */\n      0x00\n        /* \"#utility.yul\":27972:28180   */\n    tag_528:\n        /* \"#utility.yul\":27986:27993   */\n      dup3\n        /* \"#utility.yul\":27983:27984   */\n      dup2\n        /* \"#utility.yul\":27980:27994   */\n      lt\n        /* \"#utility.yul\":27972:28180   */\n      iszero\n      tag_530\n      jumpi\n        /* \"#utility.yul\":28065:28074   */\n      dup5\n        /* \"#utility.yul\":28060:28063   */\n      dup10\n        /* \"#utility.yul\":28056:28075   */\n      add\n        /* \"#utility.yul\":28050:28076   */\n      mload\n        /* \"#utility.yul\":28042:28048   */\n      dup3\n        /* \"#utility.yul\":28035:28077   */\n      sstore\n        /* \"#utility.yul\":28116:28117   */\n      0x01\n        /* \"#utility.yul\":28108:28114   */\n      dup3\n        /* \"#utility.yul\":28104:28118   */\n      add\n        /* \"#utility.yul\":28094:28118   */\n      swap2\n      pop\n        /* \"#utility.yul\":28163:28165   */\n      0x20\n        /* \"#utility.yul\":28152:28161   */\n      dup6\n        /* \"#utility.yul\":28148:28166   */\n      add\n        /* \"#utility.yul\":28135:28166   */\n      swap5\n      pop\n        /* \"#utility.yul\":28009:28013   */\n      0x20\n        /* \"#utility.yul\":28006:28007   */\n      dup2\n        /* \"#utility.yul\":28002:28014   */\n      add\n        /* \"#utility.yul\":27997:28014   */\n      swap1\n      pop\n        /* \"#utility.yul\":27972:28180   */\n      jump(tag_528)\n    tag_530:\n        /* \"#utility.yul\":28208:28214   */\n      dup7\n        /* \"#utility.yul\":28199:28206   */\n      dup4\n        /* \"#utility.yul\":28196:28215   */\n      lt\n        /* \"#utility.yul\":28193:28372   */\n      iszero\n      tag_531\n      jumpi\n        /* \"#utility.yul\":28266:28275   */\n      dup5\n        /* \"#utility.yul\":28261:28264   */\n      dup10\n        /* \"#utility.yul\":28257:28276   */\n      add\n        /* \"#utility.yul\":28251:28277   */\n      mload\n        /* \"#utility.yul\":28309:28357   */\n      tag_532\n        /* \"#utility.yul\":28351:28355   */\n      0x1f\n        /* \"#utility.yul\":28343:28349   */\n      dup10\n        /* \"#utility.yul\":28339:28356   */\n      and\n        /* \"#utility.yul\":28328:28337   */\n      dup3\n        /* \"#utility.yul\":28309:28357   */\n      tag_257\n      jump\t// in\n    tag_532:\n        /* \"#utility.yul\":28301:28307   */\n      dup4\n        /* \"#utility.yul\":28294:28358   */\n      sstore\n        /* \"#utility.yul\":28216:28372   */\n      pop\n        /* \"#utility.yul\":28193:28372   */\n    tag_531:\n        /* \"#utility.yul\":28418:28419   */\n      0x01\n        /* \"#utility.yul\":28414:28415   */\n      0x02\n        /* \"#utility.yul\":28406:28412   */\n      dup9\n        /* \"#utility.yul\":28402:28416   */\n      mul\n        /* \"#utility.yul\":28398:28420   */\n      add\n        /* \"#utility.yul\":28392:28396   */\n      dup9\n        /* \"#utility.yul\":28385:28421   */\n      sstore\n        /* \"#utility.yul\":27820:28431   */\n      pop\n      pop\n      pop\n        /* \"#utility.yul\":27783:28670   */\n    tag_523:\n      pop\n        /* \"#utility.yul\":27373:28676   */\n      pop\n      pop\n      pop\n        /* \"#utility.yul\":27281:28676   */\n      pop\n      pop\n      jump\t// out\n\n    auxdata: 0xa26469706673582212207cfc112455203deb47468c2a2d1f28ae5c4e4d6195afb2380f85369f8123913064736f6c634300081e0033\n}\n",
				"bytecode": {
					"linkReferences": {},
					"object": "608060405260405180604001604052806040518060400160405280601c81526020017f68747470733a2f2f7777772e77332e6f72672f6e732f6469642f76310000000081525081526020016040518060a00160405280606b815260200161253d606b91398152505f9060026100759291906100cc565b506040518060400160405280601a81526020017f45643235353139566572696669636174696f6e4b657932303230000000000000815250600190816100ba91906103db565b503480156100c6575f5ffd5b506104aa565b828054828255905f5260205f20908101928215610112579160200282015b8281111561011157825182908161010191906103db565b50916020019190600101906100ea565b5b50905061011f9190610123565b5090565b5b80821115610142575f81816101399190610146565b50600101610124565b5090565b50805461015290610202565b5f825580601f106101635750610180565b601f0160209004905f5260205f209081019061017f9190610183565b5b50565b5b8082111561019a575f815f905550600101610184565b5090565b5f81519050919050565b7f4e487b71000000000000000000000000000000000000000000000000000000005f52604160045260245ffd5b7f4e487b71000000000000000000000000000000000000000000000000000000005f52602260045260245ffd5b5f600282049050600182168061021957607f821691505b60208210810361022c5761022b6101d5565b5b50919050565b5f819050815f5260205f209050919050565b5f6020601f8301049050919050565b5f82821b905092915050565b5f6008830261028e7fffffffffffffffffffffffffffffffffffffffffffffffffffffffffffffffff82610253565b6102988683610253565b95508019841693508086168417925050509392505050565b5f819050919050565b5f819050919050565b5f6102dc6102d76102d2846102b0565b6102b9565b6102b0565b9050919050565b5f819050919050565b6102f5836102c2565b610309610301826102e3565b84845461025f565b825550505050565b5f5f905090565b610320610311565b61032b8184846102ec565b505050565b5b8181101561034e576103435f82610318565b600181019050610331565b5050565b601f8211156103935761036481610232565b61036d84610244565b8101602085101561037c578190505b61039061038885610244565b830182610330565b50505b505050565b5f82821c905092915050565b5f6103b35f1984600802610398565b1980831691505092915050565b5f6103cb83836103a4565b9150826002028217905092915050565b6103e48261019e565b67ffffffffffffffff8111156103fd576103fc6101a8565b5b6104078254610202565b610412828285610352565b5f60209050601f831160018114610443575f8415610431578287015190505b61043b85826103c0565b8655506104a2565b601f19841661045186610232565b5f5b8281101561047857848901518255600182019150602085019450602081019050610453565b868310156104955784890151610491601f8916826103a4565b8355505b6001600288020188555050505b505050505050565b612086806104b75f395ff3fe608060405234801561000f575f5ffd5b5060043610610091575f3560e01c806376baabff1161006457806376baabff1461012e57806380793ab81461014a5780638096373e1461017a578063a0a4f59214610196578063e0783898146101c857610091565b806310b40f85146100955780632128e1c9146100b1578063317305f4146100e2578063570810e214610112575b5f5ffd5b6100af60048036038101906100aa91906112eb565b6101f8565b005b6100cb60048036038101906100c691906114a1565b610378565b6040516100d9929190611541565b60405180910390f35b6100fc60048036038101906100f791906112eb565b6103db565b6040516101099190611568565b60405180910390f35b61012c600480360381019061012791906114a1565b61052f565b005b61014860048036038101906101439190611581565b610656565b005b610164600480360381019061015f9190611581565b6107da565b6040516101719190611764565b60405180910390f35b610194600480360381019061018f9190611784565b610a90565b005b6101b060048036038101906101ab91906114a1565b610d3b565b6040516101bf9392919061187c565b60405180910390f35b6101e260048036038101906101dd9190611581565b610e91565b6040516101ef919061193c565b60405180910390f35b6003848460405161020a92919061198a565b90815260200160405180910390205f015f9054906101000a900460ff16610266576040517f08c379a000000000000000000000000000000000000000000000000000000000815260040161025d906119ec565b60405180910390fd5b6002848460405161027892919061198a565b90815260200160405180910390205f0160019054906101000a900473ffffffffffffffffffffffffffffffffffffffff1673ffffffffffffffffffffffffffffffffffffffff163373ffffffffffffffffffffffffffffffffffffffff1614610316576040517f08c379a000000000000000000000000000000000000000000000000000000000815260040161030d90611a54565b60405180910390fd5b6003848460405161032892919061198a565b9081526020016040518091039020600301828290918060018154018082558091505060019003905f5260205f20015f909192909192909192909192509182610371929190611c82565b5050505050565b6002818051602081018201805184825260208301602085012081835280955050505050505f91509050805f015f9054906101000a900460ff1690805f0160019054906101000a900473ffffffffffffffffffffffffffffffffffffffff16905082565b5f600385856040516103ee92919061198a565b90815260200160405180910390205f015f9054906101000a900460ff1661044a576040517f08c379a0000000000000000000000000000000000000000000000000000000008152600401610441906119ec565b60405180910390fd5b5f5b6003868660405161045e92919061198a565b90815260200160405180910390206003018054905081101561052257838360405160200161048d929190611d7b565b60405160208183030381529060405280519060200120600387876040516104b592919061198a565b908152602001604051809103902060030182815481106104d8576104d7611d9d565b5b905f5260205f20016040516020016104f09190611e4b565b6040516020818303038152906040528051906020012003610515576001915050610527565b808060010191505061044c565b505f90505b949350505050565b60028160405161053f9190611e9b565b90815260200160405180910390205f015f9054906101000a900460ff161561059c576040517f08c379a000000000000000000000000000000000000000000000000000000000815260040161059390611efb565b60405180910390fd5b5f60405180604001604052806001151581526020013373ffffffffffffffffffffffffffffffffffffffff168152509050806002836040516105de9190611e9b565b90815260200160405180910390205f820151815f015f6101000a81548160ff0219169083151502179055506020820151815f0160016101000a81548173ffffffffffffffffffffffffffffffffffffffff021916908373ffffffffffffffffffffffffffffffffffffffff1602179055509050505050565b6003828260405161066892919061198a565b90815260200160405180910390205f015f9054906101000a900460ff166106c4576040517f08c379a00000000000000000000000000000000000000000000000000000000081526004016106bb906119ec565b60405180910390fd5b600282826040516106d692919061198a565b90815260200160405180910390205f0160019054906101000a900473ffffffffffffffffffffffffffffffffffffffff1673ffffffffffffffffffffffffffffffffffffffff163373ffffffffffffffffffffffffffffffffffffffff1614610774576040517f08c379a000000000000000000000000000000000000000000000000000000000815260040161076b90611a54565b60405180910390fd5b6003828260405161078692919061198a565b90815260200160405180910390205f5f82015f6101000a81549060ff0219169055600182015f6107b69190611123565b600282015f6107c59190611123565b600382015f6107d49190611160565b50505050565b6107e261117e565b600383836040516107f492919061198a565b90815260200160405180910390205f015f9054906101000a900460ff16610850576040517f08c379a0000000000000000000000000000000000000000000000000000000008152600401610847906119ec565b60405180910390fd5b6003838360405161086292919061198a565b90815260200160405180910390206040518060800160405290815f82015f9054906101000a900460ff161515151581526020016001820180546108a490611aa9565b80601f01602080910402602001604051908101604052809291908181526020018280546108d090611aa9565b801561091b5780601f106108f25761010080835404028352916020019161091b565b820191905f5260205f20905b8154815290600101906020018083116108fe57829003601f168201915b5050505050815260200160028201805461093490611aa9565b80601f016020809104026020016040519081016040528092919081815260200182805461096090611aa9565b80156109ab5780601f10610982576101008083540402835291602001916109ab565b820191905f5260205f20905b81548152906001019060200180831161098e57829003601f168201915b5050505050815260200160038201805480602002602001604051908101604052809291908181526020015f905b82821015610a80578382905f5260205f200180546109f590611aa9565b80601f0160208091040260200160405190810160405280929190818152602001828054610a2190611aa9565b8015610a6c5780601f10610a4357610100808354040283529160200191610a6c565b820191905f5260205f20905b815481529060010190602001808311610a4f57829003601f168201915b5050505050815260200190600101906109d8565b5050505081525050905092915050565b60028686604051610aa292919061198a565b90815260200160405180910390205f015f9054906101000a900460ff16610afe576040517f08c379a0000000000000000000000000000000000000000000000000000000008152600401610af590611f63565b60405180910390fd5b60028686604051610b1092919061198a565b90815260200160405180910390205f0160019054906101000a900473ffffffffffffffffffffffffffffffffffffffff1673ffffffffffffffffffffffffffffffffffffffff163373ffffffffffffffffffffffffffffffffffffffff1614610bae576040517f08c379a0000000000000000000000000000000000000000000000000000000008152600401610ba590611a54565b60405180910390fd5b5f604051806080016040528060011515815260200186868080601f0160208091040260200160405190810160405280939291908181526020018383808284375f81840152601f19601f82011690508083019250505050505050815260200184848080601f0160208091040260200160405190810160405280939291908181526020018383808284375f81840152601f19601f8201169050808301925050505050505081526020015f67ffffffffffffffff811115610c6f57610c6e61137d565b5b604051908082528060200260200182016040528015610ca257816020015b6060815260200190600190039081610c8d5790505b5081525090508060038888604051610cbb92919061198a565b90815260200160405180910390205f820151815f015f6101000a81548160ff0219169083151502179055506020820151816001019081610cfb9190611f81565b506040820151816002019081610d119190611f81565b506060820151816003019080519060200190610d2e9291906111a7565b5090505050505050505050565b6003818051602081018201805184825260208301602085012081835280955050505050505f91509050805f015f9054906101000a900460ff1690806001018054610d8490611aa9565b80601f0160208091040260200160405190810160405280929190818152602001828054610db090611aa9565b8015610dfb5780601f10610dd257610100808354040283529160200191610dfb565b820191905f5260205f20905b815481529060010190602001808311610dde57829003601f168201915b505050505090806002018054610e1090611aa9565b80601f0160208091040260200160405190810160405280929190818152602001828054610e3c90611aa9565b8015610e875780601f10610e5e57610100808354040283529160200191610e87565b820191905f5260205f20905b815481529060010190602001808311610e6a57829003601f168201915b5050505050905083565b610e996111fe565b60028383604051610eab92919061198a565b90815260200160405180910390205f015f9054906101000a900460ff16610f07576040517f08c379a0000000000000000000000000000000000000000000000000000000008152600401610efe90611f63565b60405180910390fd5b5f604051806080016040528085858080601f0160208091040260200160405190810160405280939291908181526020018383808284375f81840152601f19601f82011690508083019250505050505050815260200160028686604051610f6e92919061198a565b90815260200160405180910390205f0160019054906101000a900473ffffffffffffffffffffffffffffffffffffffff1673ffffffffffffffffffffffffffffffffffffffff16815260200160018054610fc790611aa9565b80601f0160208091040260200160405190810160405280929190818152602001828054610ff390611aa9565b801561103e5780601f106110155761010080835404028352916020019161103e565b820191905f5260205f20905b81548152906001019060200180831161102157829003601f168201915b505050505081526020015f805480602002602001604051908101604052809291908181526020015f905b82821015611110578382905f5260205f2001805461108590611aa9565b80601f01602080910402602001604051908101604052809291908181526020018280546110b190611aa9565b80156110fc5780601f106110d3576101008083540402835291602001916110fc565b820191905f5260205f20905b8154815290600101906020018083116110df57829003601f168201915b505050505081526020019060010190611068565b5050505081525090508091505092915050565b50805461112f90611aa9565b5f825580601f10611140575061115d565b601f0160209004905f5260205f209081019061115c919061123b565b5b50565b5080545f8255905f5260205f209081019061117b9190611256565b50565b60405180608001604052805f151581526020016060815260200160608152602001606081525090565b828054828255905f5260205f209081019282156111ed579160200282015b828111156111ec5782518290816111dc9190611f81565b50916020019190600101906111c5565b5b5090506111fa9190611256565b5090565b6040518060800160405280606081526020015f73ffffffffffffffffffffffffffffffffffffffff16815260200160608152602001606081525090565b5b80821115611252575f815f90555060010161123c565b5090565b5b80821115611275575f818161126c9190611123565b50600101611257565b5090565b5f604051905090565b5f5ffd5b5f5ffd5b5f5ffd5b5f5ffd5b5f5ffd5b5f5f83601f8401126112ab576112aa61128a565b5b8235905067ffffffffffffffff8111156112c8576112c761128e565b5b6020830191508360018202830111156112e4576112e3611292565b5b9250929050565b5f5f5f5f6040858703121561130357611302611282565b5b5f85013567ffffffffffffffff8111156113205761131f611286565b5b61132c87828801611296565b9450945050602085013567ffffffffffffffff81111561134f5761134e611286565b5b61135b87828801611296565b925092505092959194509250565b5f5ffd5b5f601f19601f8301169050919050565b7f4e487b71000000000000000000000000000000000000000000000000000000005f52604160045260245ffd5b6113b38261136d565b810181811067ffffffffffffffff821117156113d2576113d161137d565b5b80604052505050565b5f6113e4611279565b90506113f082826113aa565b919050565b5f67ffffffffffffffff82111561140f5761140e61137d565b5b6114188261136d565b9050602081019050919050565b828183375f83830152505050565b5f611445611440846113f5565b6113db565b90508281526020810184848401111561146157611460611369565b5b61146c848285611425565b509392505050565b5f82601f8301126114885761148761128a565b5b8135611498848260208601611433565b91505092915050565b5f602082840312156114b6576114b5611282565b5b5f82013567ffffffffffffffff8111156114d3576114d2611286565b5b6114df84828501611474565b91505092915050565b5f8115159050919050565b6114fc816114e8565b82525050565b5f73ffffffffffffffffffffffffffffffffffffffff82169050919050565b5f61152b82611502565b9050919050565b61153b81611521565b82525050565b5f6040820190506115545f8301856114f3565b6115616020830184611532565b9392505050565b5f60208201905061157b5f8301846114f3565b92915050565b5f5f6020838503121561159757611596611282565b5b5f83013567ffffffffffffffff8111156115b4576115b3611286565b5b6115c085828601611296565b92509250509250929050565b6115d5816114e8565b82525050565b5f81519050919050565b5f82825260208201905092915050565b8281835e5f83830152505050565b5f61160d826115db565b61161781856115e5565b93506116278185602086016115f5565b6116308161136d565b840191505092915050565b5f81519050919050565b5f82825260208201905092915050565b5f819050602082019050919050565b5f61166f8383611603565b905092915050565b5f602082019050919050565b5f61168d8261163b565b6116978185611645565b9350836020820285016116a985611655565b805f5b858110156116e457848403895281516116c58582611664565b94506116d083611677565b925060208a019950506001810190506116ac565b50829750879550505050505092915050565b5f608083015f83015161170b5f8601826115cc565b50602083015184820360208601526117238282611603565b9150506040830151848203604086015261173d8282611603565b915050606083015184820360608601526117578282611683565b9150508091505092915050565b5f6020820190508181035f83015261177c81846116f6565b905092915050565b5f5f5f5f5f5f6060878903121561179e5761179d611282565b5b5f87013567ffffffffffffffff8111156117bb576117ba611286565b5b6117c789828a01611296565b9650965050602087013567ffffffffffffffff8111156117ea576117e9611286565b5b6117f689828a01611296565b9450945050604087013567ffffffffffffffff81111561181957611818611286565b5b61182589828a01611296565b92509250509295509295509295565b5f82825260208201905092915050565b5f61184e826115db565b6118588185611834565b93506118688185602086016115f5565b6118718161136d565b840191505092915050565b5f60608201905061188f5f8301866114f3565b81810360208301526118a18185611844565b905081810360408301526118b58184611844565b9050949350505050565b6118c881611521565b82525050565b5f608083015f8301518482035f8601526118e88282611603565b91505060208301516118fd60208601826118bf565b50604083015184820360408601526119158282611603565b9150506060830151848203606086015261192f8282611683565b9150508091505092915050565b5f6020820190508181035f83015261195481846118ce565b905092915050565b5f81905092915050565b5f611971838561195c565b935061197e838584611425565b82840190509392505050565b5f611996828486611966565b91508190509392505050565b7f5468657265206973206e6f2073756368206120697373756572210000000000005f82015250565b5f6119d6601a83611834565b91506119e1826119a2565b602082019050919050565b5f6020820190508181035f830152611a03816119ca565b9050919050565b7f596f752068617665206e6f2072696768742100000000000000000000000000005f82015250565b5f611a3e601283611834565b9150611a4982611a0a565b602082019050919050565b5f6020820190508181035f830152611a6b81611a32565b9050919050565b5f82905092915050565b7f4e487b71000000000000000000000000000000000000000000000000000000005f52602260045260245ffd5b5f6002820490506001821680611ac057607f821691505b602082108103611ad357611ad2611a7c565b5b50919050565b5f819050815f5260205f209050919050565b5f6020601f8301049050919050565b5f82821b905092915050565b5f60088302611b357fffffffffffffffffffffffffffffffffffffffffffffffffffffffffffffffff82611afa565b611b3f8683611afa565b95508019841693508086168417925050509392505050565b5f819050919050565b5f819050919050565b5f611b83611b7e611b7984611b57565b611b60565b611b57565b9050919050565b5f819050919050565b611b9c83611b69565b611bb0611ba882611b8a565b848454611b06565b825550505050565b5f5f905090565b611bc7611bb8565b611bd2818484611b93565b505050565b5b81811015611bf557611bea5f82611bbf565b600181019050611bd8565b5050565b601f821115611c3a57611c0b81611ad9565b611c1484611aeb565b81016020851015611c23578190505b611c37611c2f85611aeb565b830182611bd7565b50505b505050565b5f82821c905092915050565b5f611c5a5f1984600802611c3f565b1980831691505092915050565b5f611c728383611c4b565b9150826002028217905092915050565b611c8c8383611a72565b67ffffffffffffffff811115611ca557611ca461137d565b5b611caf8254611aa9565b611cba828285611bf9565b5f601f831160018114611ce7575f8415611cd5578287013590505b611cdf8582611c67565b865550611d46565b601f198416611cf586611ad9565b5f5b82811015611d1c57848901358255600182019150602085019450602081019050611cf7565b86831015611d395784890135611d35601f891682611c4b565b8355505b6001600288020188555050505b50505050505050565b5f611d5a8385611834565b9350611d67838584611425565b611d708361136d565b840190509392505050565b5f6020820190508181035f830152611d94818486611d4f565b90509392505050565b7f4e487b71000000000000000000000000000000000000000000000000000000005f52603260045260245ffd5b5f8154611dd681611aa9565b611de08186611834565b9450600182165f8114611dfa5760018114611e1057611e42565b60ff198316865281151560200286019350611e42565b611e1985611ad9565b5f5b83811015611e3a57815481890152600182019150602081019050611e1b565b808801955050505b50505092915050565b5f6020820190508181035f830152611e638184611dca565b905092915050565b5f611e75826115db565b611e7f818561195c565b9350611e8f8185602086016115f5565b80840191505092915050565b5f611ea68284611e6b565b915081905092915050565b7f5468652044494420697320616c726561647920637265617465642100000000005f82015250565b5f611ee5601b83611834565b9150611ef082611eb1565b602082019050919050565b5f6020820190508181035f830152611f1281611ed9565b9050919050565b7f5468657265206973206e6f2073756368206120444944210000000000000000005f82015250565b5f611f4d601783611834565b9150611f5882611f19565b602082019050919050565b5f6020820190508181035f830152611f7a81611f41565b9050919050565b611f8a826115db565b67ffffffffffffffff811115611fa357611fa261137d565b5b611fad8254611aa9565b611fb8828285611bf9565b5f60209050601f831160018114611fe9575f8415611fd7578287015190505b611fe18582611c67565b865550612048565b601f198416611ff786611ad9565b5f5b8281101561201e57848901518255600182019150602085019450602081019050611ff9565b8683101561203b5784890151612037601f891682611c4b565b8355505b6001600288020188555050505b50505050505056fea26469706673582212207cfc112455203deb47468c2a2d1f28ae5c4e4d6195afb2380f85369f8123913064736f6c634300081e003368747470733a2f2f6964656e746974792e666f756e646174696f6e2f4563647361536563703235366b315265636f766572795369676e6174757265323032302f6c64732d65636473612d736563703235366b312d7265636f76657279323032302d302e302e6a736f6e6c64",
					"opcodes": "PUSH1 0x80 PUSH1 0x40 MSTORE PUSH1 0x40 MLOAD DUP1 PUSH1 0x40 ADD PUSH1 0x40 MSTORE DUP1 PUSH1 0x40 MLOAD DUP1 PUSH1 0x40 ADD PUSH1 0x40 MSTORE DUP1 PUSH1 0x1C DUP2 MSTORE PUSH1 0x20 ADD PUSH32 0x68747470733A2F2F7777772E77332E6F72672F6E732F6469642F763100000000 DUP2 MSTORE POP DUP2 MSTORE PUSH1 0x20 ADD PUSH1 0x40 MLOAD DUP1 PUSH1 0xA0 ADD PUSH1 0x40 MSTORE DUP1 PUSH1 0x6B DUP2 MSTORE PUSH1 0x20 ADD PUSH2 0x253D PUSH1 0x6B SWAP2 CODECOPY DUP2 MSTORE POP PUSH0 SWAP1 PUSH1 0x2 PUSH2 0x75 SWAP3 SWAP2 SWAP1 PUSH2 0xCC JUMP JUMPDEST POP PUSH1 0x40 MLOAD DUP1 PUSH1 0x40 ADD PUSH1 0x40 MSTORE DUP1 PUSH1 0x1A DUP2 MSTORE PUSH1 0x20 ADD PUSH32 0x45643235353139566572696669636174696F6E4B657932303230000000000000 DUP2 MSTORE POP PUSH1 0x1 SWAP1 DUP2 PUSH2 0xBA SWAP2 SWAP1 PUSH2 0x3DB JUMP JUMPDEST POP CALLVALUE DUP1 ISZERO PUSH2 0xC6 JUMPI PUSH0 PUSH0 REVERT JUMPDEST POP PUSH2 0x4AA JUMP JUMPDEST DUP3 DUP1 SLOAD DUP3 DUP3 SSTORE SWAP1 PUSH0 MSTORE PUSH1 0x20 PUSH0 KECCAK256 SWAP1 DUP2 ADD SWAP3 DUP3 ISZERO PUSH2 0x112 JUMPI SWAP2 PUSH1 0x20 MUL DUP3 ADD JUMPDEST DUP3 DUP2 GT ISZERO PUSH2 0x111 JUMPI DUP3 MLOAD DUP3 SWAP1 DUP2 PUSH2 0x101 SWAP2 SWAP1 PUSH2 0x3DB JUMP JUMPDEST POP SWAP2 PUSH1 0x20 ADD SWAP2 SWAP1 PUSH1 0x1 ADD SWAP1 PUSH2 0xEA JUMP JUMPDEST JUMPDEST POP SWAP1 POP PUSH2 0x11F SWAP2 SWAP1 PUSH2 0x123 JUMP JUMPDEST POP SWAP1 JUMP JUMPDEST JUMPDEST DUP1 DUP3 GT ISZERO PUSH2 0x142 JUMPI PUSH0 DUP2 DUP2 PUSH2 0x139 SWAP2 SWAP1 PUSH2 0x146 JUMP JUMPDEST POP PUSH1 0x1 ADD PUSH2 0x124 JUMP JUMPDEST POP SWAP1 JUMP JUMPDEST POP DUP1 SLOAD PUSH2 0x152 SWAP1 PUSH2 0x202 JUMP JUMPDEST PUSH0 DUP3 SSTORE DUP1 PUSH1 0x1F LT PUSH2 0x163 JUMPI POP PUSH2 0x180 JUMP JUMPDEST PUSH1 0x1F ADD PUSH1 0x20 SWAP1 DIV SWAP1 PUSH0 MSTORE PUSH1 0x20 PUSH0 KECCAK256 SWAP1 DUP2 ADD SWAP1 PUSH2 0x17F SWAP2 SWAP1 PUSH2 0x183 JUMP JUMPDEST JUMPDEST POP JUMP JUMPDEST JUMPDEST DUP1 DUP3 GT ISZERO PUSH2 0x19A JUMPI PUSH0 DUP2 PUSH0 SWAP1 SSTORE POP PUSH1 0x1 ADD PUSH2 0x184 JUMP JUMPDEST POP SWAP1 JUMP JUMPDEST PUSH0 DUP2 MLOAD SWAP1 POP SWAP2 SWAP1 POP JUMP JUMPDEST PUSH32 0x4E487B7100000000000000000000000000000000000000000000000000000000 PUSH0 MSTORE PUSH1 0x41 PUSH1 0x4 MSTORE PUSH1 0x24 PUSH0 REVERT JUMPDEST PUSH32 0x4E487B7100000000000000000000000000000000000000000000000000000000 PUSH0 MSTORE PUSH1 0x22 PUSH1 0x4 MSTORE PUSH1 0x24 PUSH0 REVERT JUMPDEST PUSH0 PUSH1 0x2 DUP3 DIV SWAP1 POP PUSH1 0x1 DUP3 AND DUP1 PUSH2 0x219 JUMPI PUSH1 0x7F DUP3 AND SWAP2 POP JUMPDEST PUSH1 0x20 DUP3 LT DUP2 SUB PUSH2 0x22C JUMPI PUSH2 0x22B PUSH2 0x1D5 JUMP JUMPDEST JUMPDEST POP SWAP2 SWAP1 POP JUMP JUMPDEST PUSH0 DUP2 SWAP1 POP DUP2 PUSH0 MSTORE PUSH1 0x20 PUSH0 KECCAK256 SWAP1 POP SWAP2 SWAP1 POP JUMP JUMPDEST PUSH0 PUSH1 0x20 PUSH1 0x1F DUP4 ADD DIV SWAP1 POP SWAP2 SWAP1 POP JUMP JUMPDEST PUSH0 DUP3 DUP3 SHL SWAP1 POP SWAP3 SWAP2 POP POP JUMP JUMPDEST PUSH0 PUSH1 0x8 DUP4 MUL PUSH2 0x28E PUSH32 0xFFFFFFFFFFFFFFFFFFFFFFFFFFFFFFFFFFFFFFFFFFFFFFFFFFFFFFFFFFFFFFFF DUP3 PUSH2 0x253 JUMP JUMPDEST PUSH2 0x298 DUP7 DUP4 PUSH2 0x253 JUMP JUMPDEST SWAP6 POP DUP1 NOT DUP5 AND SWAP4 POP DUP1 DUP7 AND DUP5 OR SWAP3 POP POP POP SWAP4 SWAP3 POP POP POP JUMP JUMPDEST PUSH0 DUP2 SWAP1 POP SWAP2 SWAP1 POP JUMP JUMPDEST PUSH0 DUP2 SWAP1 POP SWAP2 SWAP1 POP JUMP JUMPDEST PUSH0 PUSH2 0x2DC PUSH2 0x2D7 PUSH2 0x2D2 DUP5 PUSH2 0x2B0 JUMP JUMPDEST PUSH2 0x2B9 JUMP JUMPDEST PUSH2 0x2B0 JUMP JUMPDEST SWAP1 POP SWAP2 SWAP1 POP JUMP JUMPDEST PUSH0 DUP2 SWAP1 POP SWAP2 SWAP1 POP JUMP JUMPDEST PUSH2 0x2F5 DUP4 PUSH2 0x2C2 JUMP JUMPDEST PUSH2 0x309 PUSH2 0x301 DUP3 PUSH2 0x2E3 JUMP JUMPDEST DUP5 DUP5 SLOAD PUSH2 0x25F JUMP JUMPDEST DUP3 SSTORE POP POP POP POP JUMP JUMPDEST PUSH0 PUSH0 SWAP1 POP SWAP1 JUMP JUMPDEST PUSH2 0x320 PUSH2 0x311 JUMP JUMPDEST PUSH2 0x32B DUP2 DUP5 DUP5 PUSH2 0x2EC JUMP JUMPDEST POP POP POP JUMP JUMPDEST JUMPDEST DUP2 DUP2 LT ISZERO PUSH2 0x34E JUMPI PUSH2 0x343 PUSH0 DUP3 PUSH2 0x318 JUMP JUMPDEST PUSH1 0x1 DUP2 ADD SWAP1 POP PUSH2 0x331 JUMP JUMPDEST POP POP JUMP JUMPDEST PUSH1 0x1F DUP3 GT ISZERO PUSH2 0x393 JUMPI PUSH2 0x364 DUP2 PUSH2 0x232 JUMP JUMPDEST PUSH2 0x36D DUP5 PUSH2 0x244 JUMP JUMPDEST DUP2 ADD PUSH1 0x20 DUP6 LT ISZERO PUSH2 0x37C JUMPI DUP2 SWAP1 POP JUMPDEST PUSH2 0x390 PUSH2 0x388 DUP6 PUSH2 0x244 JUMP JUMPDEST DUP4 ADD DUP3 PUSH2 0x330 JUMP JUMPDEST POP POP JUMPDEST POP POP POP JUMP JUMPDEST PUSH0 DUP3 DUP3 SHR SWAP1 POP SWAP3 SWAP2 POP POP JUMP JUMPDEST PUSH0 PUSH2 0x3B3 PUSH0 NOT DUP5 PUSH1 0x8 MUL PUSH2 0x398 JUMP JUMPDEST NOT DUP1 DUP4 AND SWAP2 POP POP SWAP3 SWAP2 POP POP JUMP JUMPDEST PUSH0 PUSH2 0x3CB DUP4 DUP4 PUSH2 0x3A4 JUMP JUMPDEST SWAP2 POP DUP3 PUSH1 0x2 MUL DUP3 OR SWAP1 POP SWAP3 SWAP2 POP POP JUMP JUMPDEST PUSH2 0x3E4 DUP3 PUSH2 0x19E JUMP JUMPDEST PUSH8 0xFFFFFFFFFFFFFFFF DUP2 GT ISZERO PUSH2 0x3FD JUMPI PUSH2 0x3FC PUSH2 0x1A8 JUMP JUMPDEST JUMPDEST PUSH2 0x407 DUP3 SLOAD PUSH2 0x202 JUMP JUMPDEST PUSH2 0x412 DUP3 DUP3 DUP6 PUSH2 0x352 JUMP JUMPDEST PUSH0 PUSH1 0x20 SWAP1 POP PUSH1 0x1F DUP4 GT PUSH1 0x1 DUP2 EQ PUSH2 0x443 JUMPI PUSH0 DUP5 ISZERO PUSH2 0x431 JUMPI DUP3 DUP8 ADD MLOAD SWAP1 POP JUMPDEST PUSH2 0x43B DUP6 DUP3 PUSH2 0x3C0 JUMP JUMPDEST DUP7 SSTORE POP PUSH2 0x4A2 JUMP JUMPDEST PUSH1 0x1F NOT DUP5 AND PUSH2 0x451 DUP7 PUSH2 0x232 JUMP JUMPDEST PUSH0 JUMPDEST DUP3 DUP2 LT ISZERO PUSH2 0x478 JUMPI DUP5 DUP10 ADD MLOAD DUP3 SSTORE PUSH1 0x1 DUP3 ADD SWAP2 POP PUSH1 0x20 DUP6 ADD SWAP5 POP PUSH1 0x20 DUP2 ADD SWAP1 POP PUSH2 0x453 JUMP JUMPDEST DUP7 DUP4 LT ISZERO PUSH2 0x495 JUMPI DUP5 DUP10 ADD MLOAD PUSH2 0x491 PUSH1 0x1F DUP10 AND DUP3 PUSH2 0x3A4 JUMP JUMPDEST DUP4 SSTORE POP JUMPDEST PUSH1 0x1 PUSH1 0x2 DUP9 MUL ADD DUP9 SSTORE POP POP POP JUMPDEST POP POP POP POP POP POP JUMP JUMPDEST PUSH2 0x2086 DUP1 PUSH2 0x4B7 PUSH0 CODECOPY PUSH0 RETURN INVALID PUSH1 0x80 PUSH1 0x40 MSTORE CALLVALUE DUP1 ISZERO PUSH2 0xF JUMPI PUSH0 PUSH0 REVERT JUMPDEST POP PUSH1 0x4 CALLDATASIZE LT PUSH2 0x91 JUMPI PUSH0 CALLDATALOAD PUSH1 0xE0 SHR DUP1 PUSH4 0x76BAABFF GT PUSH2 0x64 JUMPI DUP1 PUSH4 0x76BAABFF EQ PUSH2 0x12E JUMPI DUP1 PUSH4 0x80793AB8 EQ PUSH2 0x14A JUMPI DUP1 PUSH4 0x8096373E EQ PUSH2 0x17A JUMPI DUP1 PUSH4 0xA0A4F592 EQ PUSH2 0x196 JUMPI DUP1 PUSH4 0xE0783898 EQ PUSH2 0x1C8 JUMPI PUSH2 0x91 JUMP JUMPDEST DUP1 PUSH4 0x10B40F85 EQ PUSH2 0x95 JUMPI DUP1 PUSH4 0x2128E1C9 EQ PUSH2 0xB1 JUMPI DUP1 PUSH4 0x317305F4 EQ PUSH2 0xE2 JUMPI DUP1 PUSH4 0x570810E2 EQ PUSH2 0x112 JUMPI JUMPDEST PUSH0 PUSH0 REVERT JUMPDEST PUSH2 0xAF PUSH1 0x4 DUP1 CALLDATASIZE SUB DUP2 ADD SWAP1 PUSH2 0xAA SWAP2 SWAP1 PUSH2 0x12EB JUMP JUMPDEST PUSH2 0x1F8 JUMP JUMPDEST STOP JUMPDEST PUSH2 0xCB PUSH1 0x4 DUP1 CALLDATASIZE SUB DUP2 ADD SWAP1 PUSH2 0xC6 SWAP2 SWAP1 PUSH2 0x14A1 JUMP JUMPDEST PUSH2 0x378 JUMP JUMPDEST PUSH1 0x40 MLOAD PUSH2 0xD9 SWAP3 SWAP2 SWAP1 PUSH2 0x1541 JUMP JUMPDEST PUSH1 0x40 MLOAD DUP1 SWAP2 SUB SWAP1 RETURN JUMPDEST PUSH2 0xFC PUSH1 0x4 DUP1 CALLDATASIZE SUB DUP2 ADD SWAP1 PUSH2 0xF7 SWAP2 SWAP1 PUSH2 0x12EB JUMP JUMPDEST PUSH2 0x3DB JUMP JUMPDEST PUSH1 0x40 MLOAD PUSH2 0x109 SWAP2 SWAP1 PUSH2 0x1568 JUMP JUMPDEST PUSH1 0x40 MLOAD DUP1 SWAP2 SUB SWAP1 RETURN JUMPDEST PUSH2 0x12C PUSH1 0x4 DUP1 CALLDATASIZE SUB DUP2 ADD SWAP1 PUSH2 0x127 SWAP2 SWAP1 PUSH2 0x14A1 JUMP JUMPDEST PUSH2 0x52F JUMP JUMPDEST STOP JUMPDEST PUSH2 0x148 PUSH1 0x4 DUP1 CALLDATASIZE SUB DUP2 ADD SWAP1 PUSH2 0x143 SWAP2 SWAP1 PUSH2 0x1581 JUMP JUMPDEST PUSH2 0x656 JUMP JUMPDEST STOP JUMPDEST PUSH2 0x164 PUSH1 0x4 DUP1 CALLDATASIZE SUB DUP2 ADD SWAP1 PUSH2 0x15F SWAP2 SWAP1 PUSH2 0x1581 JUMP JUMPDEST PUSH2 0x7DA JUMP JUMPDEST PUSH1 0x40 MLOAD PUSH2 0x171 SWAP2 SWAP1 PUSH2 0x1764 JUMP JUMPDEST PUSH1 0x40 MLOAD DUP1 SWAP2 SUB SWAP1 RETURN JUMPDEST PUSH2 0x194 PUSH1 0x4 DUP1 CALLDATASIZE SUB DUP2 ADD SWAP1 PUSH2 0x18F SWAP2 SWAP1 PUSH2 0x1784 JUMP JUMPDEST PUSH2 0xA90 JUMP JUMPDEST STOP JUMPDEST PUSH2 0x1B0 PUSH1 0x4 DUP1 CALLDATASIZE SUB DUP2 ADD SWAP1 PUSH2 0x1AB SWAP2 SWAP1 PUSH2 0x14A1 JUMP JUMPDEST PUSH2 0xD3B JUMP JUMPDEST PUSH1 0x40 MLOAD PUSH2 0x1BF SWAP4 SWAP3 SWAP2 SWAP1 PUSH2 0x187C JUMP JUMPDEST PUSH1 0x40 MLOAD DUP1 SWAP2 SUB SWAP1 RETURN JUMPDEST PUSH2 0x1E2 PUSH1 0x4 DUP1 CALLDATASIZE SUB DUP2 ADD SWAP1 PUSH2 0x1DD SWAP2 SWAP1 PUSH2 0x1581 JUMP JUMPDEST PUSH2 0xE91 JUMP JUMPDEST PUSH1 0x40 MLOAD PUSH2 0x1EF SWAP2 SWAP1 PUSH2 0x193C JUMP JUMPDEST PUSH1 0x40 MLOAD DUP1 SWAP2 SUB SWAP1 RETURN JUMPDEST PUSH1 0x3 DUP5 DUP5 PUSH1 0x40 MLOAD PUSH2 0x20A SWAP3 SWAP2 SWAP1 PUSH2 0x198A JUMP JUMPDEST SWAP1 DUP2 MSTORE PUSH1 0x20 ADD PUSH1 0x40 MLOAD DUP1 SWAP2 SUB SWAP1 KECCAK256 PUSH0 ADD PUSH0 SWAP1 SLOAD SWAP1 PUSH2 0x100 EXP SWAP1 DIV PUSH1 0xFF AND PUSH2 0x266 JUMPI PUSH1 0x40 MLOAD PUSH32 0x8C379A000000000000000000000000000000000000000000000000000000000 DUP2 MSTORE PUSH1 0x4 ADD PUSH2 0x25D SWAP1 PUSH2 0x19EC JUMP JUMPDEST PUSH1 0x40 MLOAD DUP1 SWAP2 SUB SWAP1 REVERT JUMPDEST PUSH1 0x2 DUP5 DUP5 PUSH1 0x40 MLOAD PUSH2 0x278 SWAP3 SWAP2 SWAP1 PUSH2 0x198A JUMP JUMPDEST SWAP1 DUP2 MSTORE PUSH1 0x20 ADD PUSH1 0x40 MLOAD DUP1 SWAP2 SUB SWAP1 KECCAK256 PUSH0 ADD PUSH1 0x1 SWAP1 SLOAD SWAP1 PUSH2 0x100 EXP SWAP1 DIV PUSH20 0xFFFFFFFFFFFFFFFFFFFFFFFFFFFFFFFFFFFFFFFF AND PUSH20 0xFFFFFFFFFFFFFFFFFFFFFFFFFFFFFFFFFFFFFFFF AND CALLER PUSH20 0xFFFFFFFFFFFFFFFFFFFFFFFFFFFFFFFFFFFFFFFF AND EQ PUSH2 0x316 JUMPI PUSH1 0x40 MLOAD PUSH32 0x8C379A000000000000000000000000000000000000000000000000000000000 DUP2 MSTORE PUSH1 0x4 ADD PUSH2 0x30D SWAP1 PUSH2 0x1A54 JUMP JUMPDEST PUSH1 0x40 MLOAD DUP1 SWAP2 SUB SWAP1 REVERT JUMPDEST PUSH1 0x3 DUP5 DUP5 PUSH1 0x40 MLOAD PUSH2 0x328 SWAP3 SWAP2 SWAP1 PUSH2 0x198A JUMP JUMPDEST SWAP1 DUP2 MSTORE PUSH1 0x20 ADD PUSH1 0x40 MLOAD DUP1 SWAP2 SUB SWAP1 KECCAK256 PUSH1 0x3 ADD DUP3 DUP3 SWAP1 SWAP2 DUP1 PUSH1 0x1 DUP2 SLOAD ADD DUP1 DUP3 SSTORE DUP1 SWAP2 POP POP PUSH1 0x1 SWAP1 SUB SWAP1 PUSH0 MSTORE PUSH1 0x20 PUSH0 KECCAK256 ADD PUSH0 SWAP1 SWAP2 SWAP3 SWAP1 SWAP2 SWAP3 SWAP1 SWAP2 SWAP3 SWAP1 SWAP2 SWAP3 POP SWAP2 DUP3 PUSH2 0x371 SWAP3 SWAP2 SWAP1 PUSH2 0x1C82 JUMP JUMPDEST POP POP POP POP POP JUMP JUMPDEST PUSH1 0x2 DUP2 DUP1 MLOAD PUSH1 0x20 DUP2 ADD DUP3 ADD DUP1 MLOAD DUP5 DUP3 MSTORE PUSH1 0x20 DUP4 ADD PUSH1 0x20 DUP6 ADD KECCAK256 DUP2 DUP4 MSTORE DUP1 SWAP6 POP POP POP POP POP POP PUSH0 SWAP2 POP SWAP1 POP DUP1 PUSH0 ADD PUSH0 SWAP1 SLOAD SWAP1 PUSH2 0x100 EXP SWAP1 DIV PUSH1 0xFF AND SWAP1 DUP1 PUSH0 ADD PUSH1 0x1 SWAP1 SLOAD SWAP1 PUSH2 0x100 EXP SWAP1 DIV PUSH20 0xFFFFFFFFFFFFFFFFFFFFFFFFFFFFFFFFFFFFFFFF AND SWAP1 POP DUP3 JUMP JUMPDEST PUSH0 PUSH1 0x3 DUP6 DUP6 PUSH1 0x40 MLOAD PUSH2 0x3EE SWAP3 SWAP2 SWAP1 PUSH2 0x198A JUMP JUMPDEST SWAP1 DUP2 MSTORE PUSH1 0x20 ADD PUSH1 0x40 MLOAD DUP1 SWAP2 SUB SWAP1 KECCAK256 PUSH0 ADD PUSH0 SWAP1 SLOAD SWAP1 PUSH2 0x100 EXP SWAP1 DIV PUSH1 0xFF AND PUSH2 0x44A JUMPI PUSH1 0x40 MLOAD PUSH32 0x8C379A000000000000000000000000000000000000000000000000000000000 DUP2 MSTORE PUSH1 0x4 ADD PUSH2 0x441 SWAP1 PUSH2 0x19EC JUMP JUMPDEST PUSH1 0x40 MLOAD DUP1 SWAP2 SUB SWAP1 REVERT JUMPDEST PUSH0 JUMPDEST PUSH1 0x3 DUP7 DUP7 PUSH1 0x40 MLOAD PUSH2 0x45E SWAP3 SWAP2 SWAP1 PUSH2 0x198A JUMP JUMPDEST SWAP1 DUP2 MSTORE PUSH1 0x20 ADD PUSH1 0x40 MLOAD DUP1 SWAP2 SUB SWAP1 KECCAK256 PUSH1 0x3 ADD DUP1 SLOAD SWAP1 POP DUP2 LT ISZERO PUSH2 0x522 JUMPI DUP4 DUP4 PUSH1 0x40 MLOAD PUSH1 0x20 ADD PUSH2 0x48D SWAP3 SWAP2 SWAP1 PUSH2 0x1D7B JUMP JUMPDEST PUSH1 0x40 MLOAD PUSH1 0x20 DUP2 DUP4 SUB SUB DUP2 MSTORE SWAP1 PUSH1 0x40 MSTORE DUP1 MLOAD SWAP1 PUSH1 0x20 ADD KECCAK256 PUSH1 0x3 DUP8 DUP8 PUSH1 0x40 MLOAD PUSH2 0x4B5 SWAP3 SWAP2 SWAP1 PUSH2 0x198A JUMP JUMPDEST SWAP1 DUP2 MSTORE PUSH1 0x20 ADD PUSH1 0x40 MLOAD DUP1 SWAP2 SUB SWAP1 KECCAK256 PUSH1 0x3 ADD DUP3 DUP2 SLOAD DUP2 LT PUSH2 0x4D8 JUMPI PUSH2 0x4D7 PUSH2 0x1D9D JUMP JUMPDEST JUMPDEST SWAP1 PUSH0 MSTORE PUSH1 0x20 PUSH0 KECCAK256 ADD PUSH1 0x40 MLOAD PUSH1 0x20 ADD PUSH2 0x4F0 SWAP2 SWAP1 PUSH2 0x1E4B JUMP JUMPDEST PUSH1 0x40 MLOAD PUSH1 0x20 DUP2 DUP4 SUB SUB DUP2 MSTORE SWAP1 PUSH1 0x40 MSTORE DUP1 MLOAD SWAP1 PUSH1 0x20 ADD KECCAK256 SUB PUSH2 0x515 JUMPI PUSH1 0x1 SWAP2 POP POP PUSH2 0x527 JUMP JUMPDEST DUP1 DUP1 PUSH1 0x1 ADD SWAP2 POP POP PUSH2 0x44C JUMP JUMPDEST POP PUSH0 SWAP1 POP JUMPDEST SWAP5 SWAP4 POP POP POP POP JUMP JUMPDEST PUSH1 0x2 DUP2 PUSH1 0x40 MLOAD PUSH2 0x53F SWAP2 SWAP1 PUSH2 0x1E9B JUMP JUMPDEST SWAP1 DUP2 MSTORE PUSH1 0x20 ADD PUSH1 0x40 MLOAD DUP1 SWAP2 SUB SWAP1 KECCAK256 PUSH0 ADD PUSH0 SWAP1 SLOAD SWAP1 PUSH2 0x100 EXP SWAP1 DIV PUSH1 0xFF AND ISZERO PUSH2 0x59C JUMPI PUSH1 0x40 MLOAD PUSH32 0x8C379A000000000000000000000000000000000000000000000000000000000 DUP2 MSTORE PUSH1 0x4 ADD PUSH2 0x593 SWAP1 PUSH2 0x1EFB JUMP JUMPDEST PUSH1 0x40 MLOAD DUP1 SWAP2 SUB SWAP1 REVERT JUMPDEST PUSH0 PUSH1 0x40 MLOAD DUP1 PUSH1 0x40 ADD PUSH1 0x40 MSTORE DUP1 PUSH1 0x1 ISZERO ISZERO DUP2 MSTORE PUSH1 0x20 ADD CALLER PUSH20 0xFFFFFFFFFFFFFFFFFFFFFFFFFFFFFFFFFFFFFFFF AND DUP2 MSTORE POP SWAP1 POP DUP1 PUSH1 0x2 DUP4 PUSH1 0x40 MLOAD PUSH2 0x5DE SWAP2 SWAP1 PUSH2 0x1E9B JUMP JUMPDEST SWAP1 DUP2 MSTORE PUSH1 0x20 ADD PUSH1 0x40 MLOAD DUP1 SWAP2 SUB SWAP1 KECCAK256 PUSH0 DUP3 ADD MLOAD DUP2 PUSH0 ADD PUSH0 PUSH2 0x100 EXP DUP2 SLOAD DUP2 PUSH1 0xFF MUL NOT AND SWAP1 DUP4 ISZERO ISZERO MUL OR SWAP1 SSTORE POP PUSH1 0x20 DUP3 ADD MLOAD DUP2 PUSH0 ADD PUSH1 0x1 PUSH2 0x100 EXP DUP2 SLOAD DUP2 PUSH20 0xFFFFFFFFFFFFFFFFFFFFFFFFFFFFFFFFFFFFFFFF MUL NOT AND SWAP1 DUP4 PUSH20 0xFFFFFFFFFFFFFFFFFFFFFFFFFFFFFFFFFFFFFFFF AND MUL OR SWAP1 SSTORE POP SWAP1 POP POP POP POP JUMP JUMPDEST PUSH1 0x3 DUP3 DUP3 PUSH1 0x40 MLOAD PUSH2 0x668 SWAP3 SWAP2 SWAP1 PUSH2 0x198A JUMP JUMPDEST SWAP1 DUP2 MSTORE PUSH1 0x20 ADD PUSH1 0x40 MLOAD DUP1 SWAP2 SUB SWAP1 KECCAK256 PUSH0 ADD PUSH0 SWAP1 SLOAD SWAP1 PUSH2 0x100 EXP SWAP1 DIV PUSH1 0xFF AND PUSH2 0x6C4 JUMPI PUSH1 0x40 MLOAD PUSH32 0x8C379A000000000000000000000000000000000000000000000000000000000 DUP2 MSTORE PUSH1 0x4 ADD PUSH2 0x6BB SWAP1 PUSH2 0x19EC JUMP JUMPDEST PUSH1 0x40 MLOAD DUP1 SWAP2 SUB SWAP1 REVERT JUMPDEST PUSH1 0x2 DUP3 DUP3 PUSH1 0x40 MLOAD PUSH2 0x6D6 SWAP3 SWAP2 SWAP1 PUSH2 0x198A JUMP JUMPDEST SWAP1 DUP2 MSTORE PUSH1 0x20 ADD PUSH1 0x40 MLOAD DUP1 SWAP2 SUB SWAP1 KECCAK256 PUSH0 ADD PUSH1 0x1 SWAP1 SLOAD SWAP1 PUSH2 0x100 EXP SWAP1 DIV PUSH20 0xFFFFFFFFFFFFFFFFFFFFFFFFFFFFFFFFFFFFFFFF AND PUSH20 0xFFFFFFFFFFFFFFFFFFFFFFFFFFFFFFFFFFFFFFFF AND CALLER PUSH20 0xFFFFFFFFFFFFFFFFFFFFFFFFFFFFFFFFFFFFFFFF AND EQ PUSH2 0x774 JUMPI PUSH1 0x40 MLOAD PUSH32 0x8C379A000000000000000000000000000000000000000000000000000000000 DUP2 MSTORE PUSH1 0x4 ADD PUSH2 0x76B SWAP1 PUSH2 0x1A54 JUMP JUMPDEST PUSH1 0x40 MLOAD DUP1 SWAP2 SUB SWAP1 REVERT JUMPDEST PUSH1 0x3 DUP3 DUP3 PUSH1 0x40 MLOAD PUSH2 0x786 SWAP3 SWAP2 SWAP1 PUSH2 0x198A JUMP JUMPDEST SWAP1 DUP2 MSTORE PUSH1 0x20 ADD PUSH1 0x40 MLOAD DUP1 SWAP2 SUB SWAP1 KECCAK256 PUSH0 PUSH0 DUP3 ADD PUSH0 PUSH2 0x100 EXP DUP2 SLOAD SWAP1 PUSH1 0xFF MUL NOT AND SWAP1 SSTORE PUSH1 0x1 DUP3 ADD PUSH0 PUSH2 0x7B6 SWAP2 SWAP1 PUSH2 0x1123 JUMP JUMPDEST PUSH1 0x2 DUP3 ADD PUSH0 PUSH2 0x7C5 SWAP2 SWAP1 PUSH2 0x1123 JUMP JUMPDEST PUSH1 0x3 DUP3 ADD PUSH0 PUSH2 0x7D4 SWAP2 SWAP1 PUSH2 0x1160 JUMP JUMPDEST POP POP POP POP JUMP JUMPDEST PUSH2 0x7E2 PUSH2 0x117E JUMP JUMPDEST PUSH1 0x3 DUP4 DUP4 PUSH1 0x40 MLOAD PUSH2 0x7F4 SWAP3 SWAP2 SWAP1 PUSH2 0x198A JUMP JUMPDEST SWAP1 DUP2 MSTORE PUSH1 0x20 ADD PUSH1 0x40 MLOAD DUP1 SWAP2 SUB SWAP1 KECCAK256 PUSH0 ADD PUSH0 SWAP1 SLOAD SWAP1 PUSH2 0x100 EXP SWAP1 DIV PUSH1 0xFF AND PUSH2 0x850 JUMPI PUSH1 0x40 MLOAD PUSH32 0x8C379A000000000000000000000000000000000000000000000000000000000 DUP2 MSTORE PUSH1 0x4 ADD PUSH2 0x847 SWAP1 PUSH2 0x19EC JUMP JUMPDEST PUSH1 0x40 MLOAD DUP1 SWAP2 SUB SWAP1 REVERT JUMPDEST PUSH1 0x3 DUP4 DUP4 PUSH1 0x40 MLOAD PUSH2 0x862 SWAP3 SWAP2 SWAP1 PUSH2 0x198A JUMP JUMPDEST SWAP1 DUP2 MSTORE PUSH1 0x20 ADD PUSH1 0x40 MLOAD DUP1 SWAP2 SUB SWAP1 KECCAK256 PUSH1 0x40 MLOAD DUP1 PUSH1 0x80 ADD PUSH1 0x40 MSTORE SWAP1 DUP2 PUSH0 DUP3 ADD PUSH0 SWAP1 SLOAD SWAP1 PUSH2 0x100 EXP SWAP1 DIV PUSH1 0xFF AND ISZERO ISZERO ISZERO ISZERO DUP2 MSTORE PUSH1 0x20 ADD PUSH1 0x1 DUP3 ADD DUP1 SLOAD PUSH2 0x8A4 SWAP1 PUSH2 0x1AA9 JUMP JUMPDEST DUP1 PUSH1 0x1F ADD PUSH1 0x20 DUP1 SWAP2 DIV MUL PUSH1 0x20 ADD PUSH1 0x40 MLOAD SWAP1 DUP2 ADD PUSH1 0x40 MSTORE DUP1 SWAP3 SWAP2 SWAP1 DUP2 DUP2 MSTORE PUSH1 0x20 ADD DUP3 DUP1 SLOAD PUSH2 0x8D0 SWAP1 PUSH2 0x1AA9 JUMP JUMPDEST DUP1 ISZERO PUSH2 0x91B JUMPI DUP1 PUSH1 0x1F LT PUSH2 0x8F2 JUMPI PUSH2 0x100 DUP1 DUP4 SLOAD DIV MUL DUP4 MSTORE SWAP2 PUSH1 0x20 ADD SWAP2 PUSH2 0x91B JUMP JUMPDEST DUP3 ADD SWAP2 SWAP1 PUSH0 MSTORE PUSH1 0x20 PUSH0 KECCAK256 SWAP1 JUMPDEST DUP2 SLOAD DUP2 MSTORE SWAP1 PUSH1 0x1 ADD SWAP1 PUSH1 0x20 ADD DUP1 DUP4 GT PUSH2 0x8FE JUMPI DUP3 SWAP1 SUB PUSH1 0x1F AND DUP3 ADD SWAP2 JUMPDEST POP POP POP POP POP DUP2 MSTORE PUSH1 0x20 ADD PUSH1 0x2 DUP3 ADD DUP1 SLOAD PUSH2 0x934 SWAP1 PUSH2 0x1AA9 JUMP JUMPDEST DUP1 PUSH1 0x1F ADD PUSH1 0x20 DUP1 SWAP2 DIV MUL PUSH1 0x20 ADD PUSH1 0x40 MLOAD SWAP1 DUP2 ADD PUSH1 0x40 MSTORE DUP1 SWAP3 SWAP2 SWAP1 DUP2 DUP2 MSTORE PUSH1 0x20 ADD DUP3 DUP1 SLOAD PUSH2 0x960 SWAP1 PUSH2 0x1AA9 JUMP JUMPDEST DUP1 ISZERO PUSH2 0x9AB JUMPI DUP1 PUSH1 0x1F LT PUSH2 0x982 JUMPI PUSH2 0x100 DUP1 DUP4 SLOAD DIV MUL DUP4 MSTORE SWAP2 PUSH1 0x20 ADD SWAP2 PUSH2 0x9AB JUMP JUMPDEST DUP3 ADD SWAP2 SWAP1 PUSH0 MSTORE PUSH1 0x20 PUSH0 KECCAK256 SWAP1 JUMPDEST DUP2 SLOAD DUP2 MSTORE SWAP1 PUSH1 0x1 ADD SWAP1 PUSH1 0x20 ADD DUP1 DUP4 GT PUSH2 0x98E JUMPI DUP3 SWAP1 SUB PUSH1 0x1F AND DUP3 ADD SWAP2 JUMPDEST POP POP POP POP POP DUP2 MSTORE PUSH1 0x20 ADD PUSH1 0x3 DUP3 ADD DUP1 SLOAD DUP1 PUSH1 0x20 MUL PUSH1 0x20 ADD PUSH1 0x40 MLOAD SWAP1 DUP2 ADD PUSH1 0x40 MSTORE DUP1 SWAP3 SWAP2 SWAP1 DUP2 DUP2 MSTORE PUSH1 0x20 ADD PUSH0 SWAP1 JUMPDEST DUP3 DUP3 LT ISZERO PUSH2 0xA80 JUMPI DUP4 DUP3 SWAP1 PUSH0 MSTORE PUSH1 0x20 PUSH0 KECCAK256 ADD DUP1 SLOAD PUSH2 0x9F5 SWAP1 PUSH2 0x1AA9 JUMP JUMPDEST DUP1 PUSH1 0x1F ADD PUSH1 0x20 DUP1 SWAP2 DIV MUL PUSH1 0x20 ADD PUSH1 0x40 MLOAD SWAP1 DUP2 ADD PUSH1 0x40 MSTORE DUP1 SWAP3 SWAP2 SWAP1 DUP2 DUP2 MSTORE PUSH1 0x20 ADD DUP3 DUP1 SLOAD PUSH2 0xA21 SWAP1 PUSH2 0x1AA9 JUMP JUMPDEST DUP1 ISZERO PUSH2 0xA6C JUMPI DUP1 PUSH1 0x1F LT PUSH2 0xA43 JUMPI PUSH2 0x100 DUP1 DUP4 SLOAD DIV MUL DUP4 MSTORE SWAP2 PUSH1 0x20 ADD SWAP2 PUSH2 0xA6C JUMP JUMPDEST DUP3 ADD SWAP2 SWAP1 PUSH0 MSTORE PUSH1 0x20 PUSH0 KECCAK256 SWAP1 JUMPDEST DUP2 SLOAD DUP2 MSTORE SWAP1 PUSH1 0x1 ADD SWAP1 PUSH1 0x20 ADD DUP1 DUP4 GT PUSH2 0xA4F JUMPI DUP3 SWAP1 SUB PUSH1 0x1F AND DUP3 ADD SWAP2 JUMPDEST POP POP POP POP POP DUP2 MSTORE PUSH1 0x20 ADD SWAP1 PUSH1 0x1 ADD SWAP1 PUSH2 0x9D8 JUMP JUMPDEST POP POP POP POP DUP2 MSTORE POP POP SWAP1 POP SWAP3 SWAP2 POP POP JUMP JUMPDEST PUSH1 0x2 DUP7 DUP7 PUSH1 0x40 MLOAD PUSH2 0xAA2 SWAP3 SWAP2 SWAP1 PUSH2 0x198A JUMP JUMPDEST SWAP1 DUP2 MSTORE PUSH1 0x20 ADD PUSH1 0x40 MLOAD DUP1 SWAP2 SUB SWAP1 KECCAK256 PUSH0 ADD PUSH0 SWAP1 SLOAD SWAP1 PUSH2 0x100 EXP SWAP1 DIV PUSH1 0xFF AND PUSH2 0xAFE JUMPI PUSH1 0x40 MLOAD PUSH32 0x8C379A000000000000000000000000000000000000000000000000000000000 DUP2 MSTORE PUSH1 0x4 ADD PUSH2 0xAF5 SWAP1 PUSH2 0x1F63 JUMP JUMPDEST PUSH1 0x40 MLOAD DUP1 SWAP2 SUB SWAP1 REVERT JUMPDEST PUSH1 0x2 DUP7 DUP7 PUSH1 0x40 MLOAD PUSH2 0xB10 SWAP3 SWAP2 SWAP1 PUSH2 0x198A JUMP JUMPDEST SWAP1 DUP2 MSTORE PUSH1 0x20 ADD PUSH1 0x40 MLOAD DUP1 SWAP2 SUB SWAP1 KECCAK256 PUSH0 ADD PUSH1 0x1 SWAP1 SLOAD SWAP1 PUSH2 0x100 EXP SWAP1 DIV PUSH20 0xFFFFFFFFFFFFFFFFFFFFFFFFFFFFFFFFFFFFFFFF AND PUSH20 0xFFFFFFFFFFFFFFFFFFFFFFFFFFFFFFFFFFFFFFFF AND CALLER PUSH20 0xFFFFFFFFFFFFFFFFFFFFFFFFFFFFFFFFFFFFFFFF AND EQ PUSH2 0xBAE JUMPI PUSH1 0x40 MLOAD PUSH32 0x8C379A000000000000000000000000000000000000000000000000000000000 DUP2 MSTORE PUSH1 0x4 ADD PUSH2 0xBA5 SWAP1 PUSH2 0x1A54 JUMP JUMPDEST PUSH1 0x40 MLOAD DUP1 SWAP2 SUB SWAP1 REVERT JUMPDEST PUSH0 PUSH1 0x40 MLOAD DUP1 PUSH1 0x80 ADD PUSH1 0x40 MSTORE DUP1 PUSH1 0x1 ISZERO ISZERO DUP2 MSTORE PUSH1 0x20 ADD DUP7 DUP7 DUP1 DUP1 PUSH1 0x1F ADD PUSH1 0x20 DUP1 SWAP2 DIV MUL PUSH1 0x20 ADD PUSH1 0x40 MLOAD SWAP1 DUP2 ADD PUSH1 0x40 MSTORE DUP1 SWAP4 SWAP3 SWAP2 SWAP1 DUP2 DUP2 MSTORE PUSH1 0x20 ADD DUP4 DUP4 DUP1 DUP3 DUP5 CALLDATACOPY PUSH0 DUP2 DUP5 ADD MSTORE PUSH1 0x1F NOT PUSH1 0x1F DUP3 ADD AND SWAP1 POP DUP1 DUP4 ADD SWAP3 POP POP POP POP POP POP POP DUP2 MSTORE PUSH1 0x20 ADD DUP5 DUP5 DUP1 DUP1 PUSH1 0x1F ADD PUSH1 0x20 DUP1 SWAP2 DIV MUL PUSH1 0x20 ADD PUSH1 0x40 MLOAD SWAP1 DUP2 ADD PUSH1 0x40 MSTORE DUP1 SWAP4 SWAP3 SWAP2 SWAP1 DUP2 DUP2 MSTORE PUSH1 0x20 ADD DUP4 DUP4 DUP1 DUP3 DUP5 CALLDATACOPY PUSH0 DUP2 DUP5 ADD MSTORE PUSH1 0x1F NOT PUSH1 0x1F DUP3 ADD AND SWAP1 POP DUP1 DUP4 ADD SWAP3 POP POP POP POP POP POP POP DUP2 MSTORE PUSH1 0x20 ADD PUSH0 PUSH8 0xFFFFFFFFFFFFFFFF DUP2 GT ISZERO PUSH2 0xC6F JUMPI PUSH2 0xC6E PUSH2 0x137D JUMP JUMPDEST JUMPDEST PUSH1 0x40 MLOAD SWAP1 DUP1 DUP3 MSTORE DUP1 PUSH1 0x20 MUL PUSH1 0x20 ADD DUP3 ADD PUSH1 0x40 MSTORE DUP1 ISZERO PUSH2 0xCA2 JUMPI DUP2 PUSH1 0x20 ADD JUMPDEST PUSH1 0x60 DUP2 MSTORE PUSH1 0x20 ADD SWAP1 PUSH1 0x1 SWAP1 SUB SWAP1 DUP2 PUSH2 0xC8D JUMPI SWAP1 POP JUMPDEST POP DUP2 MSTORE POP SWAP1 POP DUP1 PUSH1 0x3 DUP9 DUP9 PUSH1 0x40 MLOAD PUSH2 0xCBB SWAP3 SWAP2 SWAP1 PUSH2 0x198A JUMP JUMPDEST SWAP1 DUP2 MSTORE PUSH1 0x20 ADD PUSH1 0x40 MLOAD DUP1 SWAP2 SUB SWAP1 KECCAK256 PUSH0 DUP3 ADD MLOAD DUP2 PUSH0 ADD PUSH0 PUSH2 0x100 EXP DUP2 SLOAD DUP2 PUSH1 0xFF MUL NOT AND SWAP1 DUP4 ISZERO ISZERO MUL OR SWAP1 SSTORE POP PUSH1 0x20 DUP3 ADD MLOAD DUP2 PUSH1 0x1 ADD SWAP1 DUP2 PUSH2 0xCFB SWAP2 SWAP1 PUSH2 0x1F81 JUMP JUMPDEST POP PUSH1 0x40 DUP3 ADD MLOAD DUP2 PUSH1 0x2 ADD SWAP1 DUP2 PUSH2 0xD11 SWAP2 SWAP1 PUSH2 0x1F81 JUMP JUMPDEST POP PUSH1 0x60 DUP3 ADD MLOAD DUP2 PUSH1 0x3 ADD SWAP1 DUP1 MLOAD SWAP1 PUSH1 0x20 ADD SWAP1 PUSH2 0xD2E SWAP3 SWAP2 SWAP1 PUSH2 0x11A7 JUMP JUMPDEST POP SWAP1 POP POP POP POP POP POP POP POP POP JUMP JUMPDEST PUSH1 0x3 DUP2 DUP1 MLOAD PUSH1 0x20 DUP2 ADD DUP3 ADD DUP1 MLOAD DUP5 DUP3 MSTORE PUSH1 0x20 DUP4 ADD PUSH1 0x20 DUP6 ADD KECCAK256 DUP2 DUP4 MSTORE DUP1 SWAP6 POP POP POP POP POP POP PUSH0 SWAP2 POP SWAP1 POP DUP1 PUSH0 ADD PUSH0 SWAP1 SLOAD SWAP1 PUSH2 0x100 EXP SWAP1 DIV PUSH1 0xFF AND SWAP1 DUP1 PUSH1 0x1 ADD DUP1 SLOAD PUSH2 0xD84 SWAP1 PUSH2 0x1AA9 JUMP JUMPDEST DUP1 PUSH1 0x1F ADD PUSH1 0x20 DUP1 SWAP2 DIV MUL PUSH1 0x20 ADD PUSH1 0x40 MLOAD SWAP1 DUP2 ADD PUSH1 0x40 MSTORE DUP1 SWAP3 SWAP2 SWAP1 DUP2 DUP2 MSTORE PUSH1 0x20 ADD DUP3 DUP1 SLOAD PUSH2 0xDB0 SWAP1 PUSH2 0x1AA9 JUMP JUMPDEST DUP1 ISZERO PUSH2 0xDFB JUMPI DUP1 PUSH1 0x1F LT PUSH2 0xDD2 JUMPI PUSH2 0x100 DUP1 DUP4 SLOAD DIV MUL DUP4 MSTORE SWAP2 PUSH1 0x20 ADD SWAP2 PUSH2 0xDFB JUMP JUMPDEST DUP3 ADD SWAP2 SWAP1 PUSH0 MSTORE PUSH1 0x20 PUSH0 KECCAK256 SWAP1 JUMPDEST DUP2 SLOAD DUP2 MSTORE SWAP1 PUSH1 0x1 ADD SWAP1 PUSH1 0x20 ADD DUP1 DUP4 GT PUSH2 0xDDE JUMPI DUP3 SWAP1 SUB PUSH1 0x1F AND DUP3 ADD SWAP2 JUMPDEST POP POP POP POP POP SWAP1 DUP1 PUSH1 0x2 ADD DUP1 SLOAD PUSH2 0xE10 SWAP1 PUSH2 0x1AA9 JUMP JUMPDEST DUP1 PUSH1 0x1F ADD PUSH1 0x20 DUP1 SWAP2 DIV MUL PUSH1 0x20 ADD PUSH1 0x40 MLOAD SWAP1 DUP2 ADD PUSH1 0x40 MSTORE DUP1 SWAP3 SWAP2 SWAP1 DUP2 DUP2 MSTORE PUSH1 0x20 ADD DUP3 DUP1 SLOAD PUSH2 0xE3C SWAP1 PUSH2 0x1AA9 JUMP JUMPDEST DUP1 ISZERO PUSH2 0xE87 JUMPI DUP1 PUSH1 0x1F LT PUSH2 0xE5E JUMPI PUSH2 0x100 DUP1 DUP4 SLOAD DIV MUL DUP4 MSTORE SWAP2 PUSH1 0x20 ADD SWAP2 PUSH2 0xE87 JUMP JUMPDEST DUP3 ADD SWAP2 SWAP1 PUSH0 MSTORE PUSH1 0x20 PUSH0 KECCAK256 SWAP1 JUMPDEST DUP2 SLOAD DUP2 MSTORE SWAP1 PUSH1 0x1 ADD SWAP1 PUSH1 0x20 ADD DUP1 DUP4 GT PUSH2 0xE6A JUMPI DUP3 SWAP1 SUB PUSH1 0x1F AND DUP3 ADD SWAP2 JUMPDEST POP POP POP POP POP SWAP1 POP DUP4 JUMP JUMPDEST PUSH2 0xE99 PUSH2 0x11FE JUMP JUMPDEST PUSH1 0x2 DUP4 DUP4 PUSH1 0x40 MLOAD PUSH2 0xEAB SWAP3 SWAP2 SWAP1 PUSH2 0x198A JUMP JUMPDEST SWAP1 DUP2 MSTORE PUSH1 0x20 ADD PUSH1 0x40 MLOAD DUP1 SWAP2 SUB SWAP1 KECCAK256 PUSH0 ADD PUSH0 SWAP1 SLOAD SWAP1 PUSH2 0x100 EXP SWAP1 DIV PUSH1 0xFF AND PUSH2 0xF07 JUMPI PUSH1 0x40 MLOAD PUSH32 0x8C379A000000000000000000000000000000000000000000000000000000000 DUP2 MSTORE PUSH1 0x4 ADD PUSH2 0xEFE SWAP1 PUSH2 0x1F63 JUMP JUMPDEST PUSH1 0x40 MLOAD DUP1 SWAP2 SUB SWAP1 REVERT JUMPDEST PUSH0 PUSH1 0x40 MLOAD DUP1 PUSH1 0x80 ADD PUSH1 0x40 MSTORE DUP1 DUP6 DUP6 DUP1 DUP1 PUSH1 0x1F ADD PUSH1 0x20 DUP1 SWAP2 DIV MUL PUSH1 0x20 ADD PUSH1 0x40 MLOAD SWAP1 DUP2 ADD PUSH1 0x40 MSTORE DUP1 SWAP4 SWAP3 SWAP2 SWAP1 DUP2 DUP2 MSTORE PUSH1 0x20 ADD DUP4 DUP4 DUP1 DUP3 DUP5 CALLDATACOPY PUSH0 DUP2 DUP5 ADD MSTORE PUSH1 0x1F NOT PUSH1 0x1F DUP3 ADD AND SWAP1 POP DUP1 DUP4 ADD SWAP3 POP POP POP POP POP POP POP DUP2 MSTORE PUSH1 0x20 ADD PUSH1 0x2 DUP7 DUP7 PUSH1 0x40 MLOAD PUSH2 0xF6E SWAP3 SWAP2 SWAP1 PUSH2 0x198A JUMP JUMPDEST SWAP1 DUP2 MSTORE PUSH1 0x20 ADD PUSH1 0x40 MLOAD DUP1 SWAP2 SUB SWAP1 KECCAK256 PUSH0 ADD PUSH1 0x1 SWAP1 SLOAD SWAP1 PUSH2 0x100 EXP SWAP1 DIV PUSH20 0xFFFFFFFFFFFFFFFFFFFFFFFFFFFFFFFFFFFFFFFF AND PUSH20 0xFFFFFFFFFFFFFFFFFFFFFFFFFFFFFFFFFFFFFFFF AND DUP2 MSTORE PUSH1 0x20 ADD PUSH1 0x1 DUP1 SLOAD PUSH2 0xFC7 SWAP1 PUSH2 0x1AA9 JUMP JUMPDEST DUP1 PUSH1 0x1F ADD PUSH1 0x20 DUP1 SWAP2 DIV MUL PUSH1 0x20 ADD PUSH1 0x40 MLOAD SWAP1 DUP2 ADD PUSH1 0x40 MSTORE DUP1 SWAP3 SWAP2 SWAP1 DUP2 DUP2 MSTORE PUSH1 0x20 ADD DUP3 DUP1 SLOAD PUSH2 0xFF3 SWAP1 PUSH2 0x1AA9 JUMP JUMPDEST DUP1 ISZERO PUSH2 0x103E JUMPI DUP1 PUSH1 0x1F LT PUSH2 0x1015 JUMPI PUSH2 0x100 DUP1 DUP4 SLOAD DIV MUL DUP4 MSTORE SWAP2 PUSH1 0x20 ADD SWAP2 PUSH2 0x103E JUMP JUMPDEST DUP3 ADD SWAP2 SWAP1 PUSH0 MSTORE PUSH1 0x20 PUSH0 KECCAK256 SWAP1 JUMPDEST DUP2 SLOAD DUP2 MSTORE SWAP1 PUSH1 0x1 ADD SWAP1 PUSH1 0x20 ADD DUP1 DUP4 GT PUSH2 0x1021 JUMPI DUP3 SWAP1 SUB PUSH1 0x1F AND DUP3 ADD SWAP2 JUMPDEST POP POP POP POP POP DUP2 MSTORE PUSH1 0x20 ADD PUSH0 DUP1 SLOAD DUP1 PUSH1 0x20 MUL PUSH1 0x20 ADD PUSH1 0x40 MLOAD SWAP1 DUP2 ADD PUSH1 0x40 MSTORE DUP1 SWAP3 SWAP2 SWAP1 DUP2 DUP2 MSTORE PUSH1 0x20 ADD PUSH0 SWAP1 JUMPDEST DUP3 DUP3 LT ISZERO PUSH2 0x1110 JUMPI DUP4 DUP3 SWAP1 PUSH0 MSTORE PUSH1 0x20 PUSH0 KECCAK256 ADD DUP1 SLOAD PUSH2 0x1085 SWAP1 PUSH2 0x1AA9 JUMP JUMPDEST DUP1 PUSH1 0x1F ADD PUSH1 0x20 DUP1 SWAP2 DIV MUL PUSH1 0x20 ADD PUSH1 0x40 MLOAD SWAP1 DUP2 ADD PUSH1 0x40 MSTORE DUP1 SWAP3 SWAP2 SWAP1 DUP2 DUP2 MSTORE PUSH1 0x20 ADD DUP3 DUP1 SLOAD PUSH2 0x10B1 SWAP1 PUSH2 0x1AA9 JUMP JUMPDEST DUP1 ISZERO PUSH2 0x10FC JUMPI DUP1 PUSH1 0x1F LT PUSH2 0x10D3 JUMPI PUSH2 0x100 DUP1 DUP4 SLOAD DIV MUL DUP4 MSTORE SWAP2 PUSH1 0x20 ADD SWAP2 PUSH2 0x10FC JUMP JUMPDEST DUP3 ADD SWAP2 SWAP1 PUSH0 MSTORE PUSH1 0x20 PUSH0 KECCAK256 SWAP1 JUMPDEST DUP2 SLOAD DUP2 MSTORE SWAP1 PUSH1 0x1 ADD SWAP1 PUSH1 0x20 ADD DUP1 DUP4 GT PUSH2 0x10DF JUMPI DUP3 SWAP1 SUB PUSH1 0x1F AND DUP3 ADD SWAP2 JUMPDEST POP POP POP POP POP DUP2 MSTORE PUSH1 0x20 ADD SWAP1 PUSH1 0x1 ADD SWAP1 PUSH2 0x1068 JUMP JUMPDEST POP POP POP POP DUP2 MSTORE POP SWAP1 POP DUP1 SWAP2 POP POP SWAP3 SWAP2 POP POP JUMP JUMPDEST POP DUP1 SLOAD PUSH2 0x112F SWAP1 PUSH2 0x1AA9 JUMP JUMPDEST PUSH0 DUP3 SSTORE DUP1 PUSH1 0x1F LT PUSH2 0x1140 JUMPI POP PUSH2 0x115D JUMP JUMPDEST PUSH1 0x1F ADD PUSH1 0x20 SWAP1 DIV SWAP1 PUSH0 MSTORE PUSH1 0x20 PUSH0 KECCAK256 SWAP1 DUP2 ADD SWAP1 PUSH2 0x115C SWAP2 SWAP1 PUSH2 0x123B JUMP JUMPDEST JUMPDEST POP JUMP JUMPDEST POP DUP1 SLOAD PUSH0 DUP3 SSTORE SWAP1 PUSH0 MSTORE PUSH1 0x20 PUSH0 KECCAK256 SWAP1 DUP2 ADD SWAP1 PUSH2 0x117B SWAP2 SWAP1 PUSH2 0x1256 JUMP JUMPDEST POP JUMP JUMPDEST PUSH1 0x40 MLOAD DUP1 PUSH1 0x80 ADD PUSH1 0x40 MSTORE DUP1 PUSH0 ISZERO ISZERO DUP2 MSTORE PUSH1 0x20 ADD PUSH1 0x60 DUP2 MSTORE PUSH1 0x20 ADD PUSH1 0x60 DUP2 MSTORE PUSH1 0x20 ADD PUSH1 0x60 DUP2 MSTORE POP SWAP1 JUMP JUMPDEST DUP3 DUP1 SLOAD DUP3 DUP3 SSTORE SWAP1 PUSH0 MSTORE PUSH1 0x20 PUSH0 KECCAK256 SWAP1 DUP2 ADD SWAP3 DUP3 ISZERO PUSH2 0x11ED JUMPI SWAP2 PUSH1 0x20 MUL DUP3 ADD JUMPDEST DUP3 DUP2 GT ISZERO PUSH2 0x11EC JUMPI DUP3 MLOAD DUP3 SWAP1 DUP2 PUSH2 0x11DC SWAP2 SWAP1 PUSH2 0x1F81 JUMP JUMPDEST POP SWAP2 PUSH1 0x20 ADD SWAP2 SWAP1 PUSH1 0x1 ADD SWAP1 PUSH2 0x11C5 JUMP JUMPDEST JUMPDEST POP SWAP1 POP PUSH2 0x11FA SWAP2 SWAP1 PUSH2 0x1256 JUMP JUMPDEST POP SWAP1 JUMP JUMPDEST PUSH1 0x40 MLOAD DUP1 PUSH1 0x80 ADD PUSH1 0x40 MSTORE DUP1 PUSH1 0x60 DUP2 MSTORE PUSH1 0x20 ADD PUSH0 PUSH20 0xFFFFFFFFFFFFFFFFFFFFFFFFFFFFFFFFFFFFFFFF AND DUP2 MSTORE PUSH1 0x20 ADD PUSH1 0x60 DUP2 MSTORE PUSH1 0x20 ADD PUSH1 0x60 DUP2 MSTORE POP SWAP1 JUMP JUMPDEST JUMPDEST DUP1 DUP3 GT ISZERO PUSH2 0x1252 JUMPI PUSH0 DUP2 PUSH0 SWAP1 SSTORE POP PUSH1 0x1 ADD PUSH2 0x123C JUMP JUMPDEST POP SWAP1 JUMP JUMPDEST JUMPDEST DUP1 DUP3 GT ISZERO PUSH2 0x1275 JUMPI PUSH0 DUP2 DUP2 PUSH2 0x126C SWAP2 SWAP1 PUSH2 0x1123 JUMP JUMPDEST POP PUSH1 0x1 ADD PUSH2 0x1257 JUMP JUMPDEST POP SWAP1 JUMP JUMPDEST PUSH0 PUSH1 0x40 MLOAD SWAP1 POP SWAP1 JUMP JUMPDEST PUSH0 PUSH0 REVERT JUMPDEST PUSH0 PUSH0 REVERT JUMPDEST PUSH0 PUSH0 REVERT JUMPDEST PUSH0 PUSH0 REVERT JUMPDEST PUSH0 PUSH0 REVERT JUMPDEST PUSH0 PUSH0 DUP4 PUSH1 0x1F DUP5 ADD SLT PUSH2 0x12AB JUMPI PUSH2 0x12AA PUSH2 0x128A JUMP JUMPDEST JUMPDEST DUP3 CALLDATALOAD SWAP1 POP PUSH8 0xFFFFFFFFFFFFFFFF DUP2 GT ISZERO PUSH2 0x12C8 JUMPI PUSH2 0x12C7 PUSH2 0x128E JUMP JUMPDEST JUMPDEST PUSH1 0x20 DUP4 ADD SWAP2 POP DUP4 PUSH1 0x1 DUP3 MUL DUP4 ADD GT ISZERO PUSH2 0x12E4 JUMPI PUSH2 0x12E3 PUSH2 0x1292 JUMP JUMPDEST JUMPDEST SWAP3 POP SWAP3 SWAP1 POP JUMP JUMPDEST PUSH0 PUSH0 PUSH0 PUSH0 PUSH1 0x40 DUP6 DUP8 SUB SLT ISZERO PUSH2 0x1303 JUMPI PUSH2 0x1302 PUSH2 0x1282 JUMP JUMPDEST JUMPDEST PUSH0 DUP6 ADD CALLDATALOAD PUSH8 0xFFFFFFFFFFFFFFFF DUP2 GT ISZERO PUSH2 0x1320 JUMPI PUSH2 0x131F PUSH2 0x1286 JUMP JUMPDEST JUMPDEST PUSH2 0x132C DUP8 DUP3 DUP9 ADD PUSH2 0x1296 JUMP JUMPDEST SWAP5 POP SWAP5 POP POP PUSH1 0x20 DUP6 ADD CALLDATALOAD PUSH8 0xFFFFFFFFFFFFFFFF DUP2 GT ISZERO PUSH2 0x134F JUMPI PUSH2 0x134E PUSH2 0x1286 JUMP JUMPDEST JUMPDEST PUSH2 0x135B DUP8 DUP3 DUP9 ADD PUSH2 0x1296 JUMP JUMPDEST SWAP3 POP SWAP3 POP POP SWAP3 SWAP6 SWAP2 SWAP5 POP SWAP3 POP JUMP JUMPDEST PUSH0 PUSH0 REVERT JUMPDEST PUSH0 PUSH1 0x1F NOT PUSH1 0x1F DUP4 ADD AND SWAP1 POP SWAP2 SWAP1 POP JUMP JUMPDEST PUSH32 0x4E487B7100000000000000000000000000000000000000000000000000000000 PUSH0 MSTORE PUSH1 0x41 PUSH1 0x4 MSTORE PUSH1 0x24 PUSH0 REVERT JUMPDEST PUSH2 0x13B3 DUP3 PUSH2 0x136D JUMP JUMPDEST DUP2 ADD DUP2 DUP2 LT PUSH8 0xFFFFFFFFFFFFFFFF DUP3 GT OR ISZERO PUSH2 0x13D2 JUMPI PUSH2 0x13D1 PUSH2 0x137D JUMP JUMPDEST JUMPDEST DUP1 PUSH1 0x40 MSTORE POP POP POP JUMP JUMPDEST PUSH0 PUSH2 0x13E4 PUSH2 0x1279 JUMP JUMPDEST SWAP1 POP PUSH2 0x13F0 DUP3 DUP3 PUSH2 0x13AA JUMP JUMPDEST SWAP2 SWAP1 POP JUMP JUMPDEST PUSH0 PUSH8 0xFFFFFFFFFFFFFFFF DUP3 GT ISZERO PUSH2 0x140F JUMPI PUSH2 0x140E PUSH2 0x137D JUMP JUMPDEST JUMPDEST PUSH2 0x1418 DUP3 PUSH2 0x136D JUMP JUMPDEST SWAP1 POP PUSH1 0x20 DUP2 ADD SWAP1 POP SWAP2 SWAP1 POP JUMP JUMPDEST DUP3 DUP2 DUP4 CALLDATACOPY PUSH0 DUP4 DUP4 ADD MSTORE POP POP POP JUMP JUMPDEST PUSH0 PUSH2 0x1445 PUSH2 0x1440 DUP5 PUSH2 0x13F5 JUMP JUMPDEST PUSH2 0x13DB JUMP JUMPDEST SWAP1 POP DUP3 DUP2 MSTORE PUSH1 0x20 DUP2 ADD DUP5 DUP5 DUP5 ADD GT ISZERO PUSH2 0x1461 JUMPI PUSH2 0x1460 PUSH2 0x1369 JUMP JUMPDEST JUMPDEST PUSH2 0x146C DUP5 DUP3 DUP6 PUSH2 0x1425 JUMP JUMPDEST POP SWAP4 SWAP3 POP POP POP JUMP JUMPDEST PUSH0 DUP3 PUSH1 0x1F DUP4 ADD SLT PUSH2 0x1488 JUMPI PUSH2 0x1487 PUSH2 0x128A JUMP JUMPDEST JUMPDEST DUP2 CALLDATALOAD PUSH2 0x1498 DUP5 DUP3 PUSH1 0x20 DUP7 ADD PUSH2 0x1433 JUMP JUMPDEST SWAP2 POP POP SWAP3 SWAP2 POP POP JUMP JUMPDEST PUSH0 PUSH1 0x20 DUP3 DUP5 SUB SLT ISZERO PUSH2 0x14B6 JUMPI PUSH2 0x14B5 PUSH2 0x1282 JUMP JUMPDEST JUMPDEST PUSH0 DUP3 ADD CALLDATALOAD PUSH8 0xFFFFFFFFFFFFFFFF DUP2 GT ISZERO PUSH2 0x14D3 JUMPI PUSH2 0x14D2 PUSH2 0x1286 JUMP JUMPDEST JUMPDEST PUSH2 0x14DF DUP5 DUP3 DUP6 ADD PUSH2 0x1474 JUMP JUMPDEST SWAP2 POP POP SWAP3 SWAP2 POP POP JUMP JUMPDEST PUSH0 DUP2 ISZERO ISZERO SWAP1 POP SWAP2 SWAP1 POP JUMP JUMPDEST PUSH2 0x14FC DUP2 PUSH2 0x14E8 JUMP JUMPDEST DUP3 MSTORE POP POP JUMP JUMPDEST PUSH0 PUSH20 0xFFFFFFFFFFFFFFFFFFFFFFFFFFFFFFFFFFFFFFFF DUP3 AND SWAP1 POP SWAP2 SWAP1 POP JUMP JUMPDEST PUSH0 PUSH2 0x152B DUP3 PUSH2 0x1502 JUMP JUMPDEST SWAP1 POP SWAP2 SWAP1 POP JUMP JUMPDEST PUSH2 0x153B DUP2 PUSH2 0x1521 JUMP JUMPDEST DUP3 MSTORE POP POP JUMP JUMPDEST PUSH0 PUSH1 0x40 DUP3 ADD SWAP1 POP PUSH2 0x1554 PUSH0 DUP4 ADD DUP6 PUSH2 0x14F3 JUMP JUMPDEST PUSH2 0x1561 PUSH1 0x20 DUP4 ADD DUP5 PUSH2 0x1532 JUMP JUMPDEST SWAP4 SWAP3 POP POP POP JUMP JUMPDEST PUSH0 PUSH1 0x20 DUP3 ADD SWAP1 POP PUSH2 0x157B PUSH0 DUP4 ADD DUP5 PUSH2 0x14F3 JUMP JUMPDEST SWAP3 SWAP2 POP POP JUMP JUMPDEST PUSH0 PUSH0 PUSH1 0x20 DUP4 DUP6 SUB SLT ISZERO PUSH2 0x1597 JUMPI PUSH2 0x1596 PUSH2 0x1282 JUMP JUMPDEST JUMPDEST PUSH0 DUP4 ADD CALLDATALOAD PUSH8 0xFFFFFFFFFFFFFFFF DUP2 GT ISZERO PUSH2 0x15B4 JUMPI PUSH2 0x15B3 PUSH2 0x1286 JUMP JUMPDEST JUMPDEST PUSH2 0x15C0 DUP6 DUP3 DUP7 ADD PUSH2 0x1296 JUMP JUMPDEST SWAP3 POP SWAP3 POP POP SWAP3 POP SWAP3 SWAP1 POP JUMP JUMPDEST PUSH2 0x15D5 DUP2 PUSH2 0x14E8 JUMP JUMPDEST DUP3 MSTORE POP POP JUMP JUMPDEST PUSH0 DUP2 MLOAD SWAP1 POP SWAP2 SWAP1 POP JUMP JUMPDEST PUSH0 DUP3 DUP3 MSTORE PUSH1 0x20 DUP3 ADD SWAP1 POP SWAP3 SWAP2 POP POP JUMP JUMPDEST DUP3 DUP2 DUP4 MCOPY PUSH0 DUP4 DUP4 ADD MSTORE POP POP POP JUMP JUMPDEST PUSH0 PUSH2 0x160D DUP3 PUSH2 0x15DB JUMP JUMPDEST PUSH2 0x1617 DUP2 DUP6 PUSH2 0x15E5 JUMP JUMPDEST SWAP4 POP PUSH2 0x1627 DUP2 DUP6 PUSH1 0x20 DUP7 ADD PUSH2 0x15F5 JUMP JUMPDEST PUSH2 0x1630 DUP2 PUSH2 0x136D JUMP JUMPDEST DUP5 ADD SWAP2 POP POP SWAP3 SWAP2 POP POP JUMP JUMPDEST PUSH0 DUP2 MLOAD SWAP1 POP SWAP2 SWAP1 POP JUMP JUMPDEST PUSH0 DUP3 DUP3 MSTORE PUSH1 0x20 DUP3 ADD SWAP1 POP SWAP3 SWAP2 POP POP JUMP JUMPDEST PUSH0 DUP2 SWAP1 POP PUSH1 0x20 DUP3 ADD SWAP1 POP SWAP2 SWAP1 POP JUMP JUMPDEST PUSH0 PUSH2 0x166F DUP4 DUP4 PUSH2 0x1603 JUMP JUMPDEST SWAP1 POP SWAP3 SWAP2 POP POP JUMP JUMPDEST PUSH0 PUSH1 0x20 DUP3 ADD SWAP1 POP SWAP2 SWAP1 POP JUMP JUMPDEST PUSH0 PUSH2 0x168D DUP3 PUSH2 0x163B JUMP JUMPDEST PUSH2 0x1697 DUP2 DUP6 PUSH2 0x1645 JUMP JUMPDEST SWAP4 POP DUP4 PUSH1 0x20 DUP3 MUL DUP6 ADD PUSH2 0x16A9 DUP6 PUSH2 0x1655 JUMP JUMPDEST DUP1 PUSH0 JUMPDEST DUP6 DUP2 LT ISZERO PUSH2 0x16E4 JUMPI DUP5 DUP5 SUB DUP10 MSTORE DUP2 MLOAD PUSH2 0x16C5 DUP6 DUP3 PUSH2 0x1664 JUMP JUMPDEST SWAP5 POP PUSH2 0x16D0 DUP4 PUSH2 0x1677 JUMP JUMPDEST SWAP3 POP PUSH1 0x20 DUP11 ADD SWAP10 POP POP PUSH1 0x1 DUP2 ADD SWAP1 POP PUSH2 0x16AC JUMP JUMPDEST POP DUP3 SWAP8 POP DUP8 SWAP6 POP POP POP POP POP POP SWAP3 SWAP2 POP POP JUMP JUMPDEST PUSH0 PUSH1 0x80 DUP4 ADD PUSH0 DUP4 ADD MLOAD PUSH2 0x170B PUSH0 DUP7 ADD DUP3 PUSH2 0x15CC JUMP JUMPDEST POP PUSH1 0x20 DUP4 ADD MLOAD DUP5 DUP3 SUB PUSH1 0x20 DUP7 ADD MSTORE PUSH2 0x1723 DUP3 DUP3 PUSH2 0x1603 JUMP JUMPDEST SWAP2 POP POP PUSH1 0x40 DUP4 ADD MLOAD DUP5 DUP3 SUB PUSH1 0x40 DUP7 ADD MSTORE PUSH2 0x173D DUP3 DUP3 PUSH2 0x1603 JUMP JUMPDEST SWAP2 POP POP PUSH1 0x60 DUP4 ADD MLOAD DUP5 DUP3 SUB PUSH1 0x60 DUP7 ADD MSTORE PUSH2 0x1757 DUP3 DUP3 PUSH2 0x1683 JUMP JUMPDEST SWAP2 POP POP DUP1 SWAP2 POP POP SWAP3 SWAP2 POP POP JUMP JUMPDEST PUSH0 PUSH1 0x20 DUP3 ADD SWAP1 POP DUP2 DUP2 SUB PUSH0 DUP4 ADD MSTORE PUSH2 0x177C DUP2 DUP5 PUSH2 0x16F6 JUMP JUMPDEST SWAP1 POP SWAP3 SWAP2 POP POP JUMP JUMPDEST PUSH0 PUSH0 PUSH0 PUSH0 PUSH0 PUSH0 PUSH1 0x60 DUP8 DUP10 SUB SLT ISZERO PUSH2 0x179E JUMPI PUSH2 0x179D PUSH2 0x1282 JUMP JUMPDEST JUMPDEST PUSH0 DUP8 ADD CALLDATALOAD PUSH8 0xFFFFFFFFFFFFFFFF DUP2 GT ISZERO PUSH2 0x17BB JUMPI PUSH2 0x17BA PUSH2 0x1286 JUMP JUMPDEST JUMPDEST PUSH2 0x17C7 DUP10 DUP3 DUP11 ADD PUSH2 0x1296 JUMP JUMPDEST SWAP7 POP SWAP7 POP POP PUSH1 0x20 DUP8 ADD CALLDATALOAD PUSH8 0xFFFFFFFFFFFFFFFF DUP2 GT ISZERO PUSH2 0x17EA JUMPI PUSH2 0x17E9 PUSH2 0x1286 JUMP JUMPDEST JUMPDEST PUSH2 0x17F6 DUP10 DUP3 DUP11 ADD PUSH2 0x1296 JUMP JUMPDEST SWAP5 POP SWAP5 POP POP PUSH1 0x40 DUP8 ADD CALLDATALOAD PUSH8 0xFFFFFFFFFFFFFFFF DUP2 GT ISZERO PUSH2 0x1819 JUMPI PUSH2 0x1818 PUSH2 0x1286 JUMP JUMPDEST JUMPDEST PUSH2 0x1825 DUP10 DUP3 DUP11 ADD PUSH2 0x1296 JUMP JUMPDEST SWAP3 POP SWAP3 POP POP SWAP3 SWAP6 POP SWAP3 SWAP6 POP SWAP3 SWAP6 JUMP JUMPDEST PUSH0 DUP3 DUP3 MSTORE PUSH1 0x20 DUP3 ADD SWAP1 POP SWAP3 SWAP2 POP POP JUMP JUMPDEST PUSH0 PUSH2 0x184E DUP3 PUSH2 0x15DB JUMP JUMPDEST PUSH2 0x1858 DUP2 DUP6 PUSH2 0x1834 JUMP JUMPDEST SWAP4 POP PUSH2 0x1868 DUP2 DUP6 PUSH1 0x20 DUP7 ADD PUSH2 0x15F5 JUMP JUMPDEST PUSH2 0x1871 DUP2 PUSH2 0x136D JUMP JUMPDEST DUP5 ADD SWAP2 POP POP SWAP3 SWAP2 POP POP JUMP JUMPDEST PUSH0 PUSH1 0x60 DUP3 ADD SWAP1 POP PUSH2 0x188F PUSH0 DUP4 ADD DUP7 PUSH2 0x14F3 JUMP JUMPDEST DUP2 DUP2 SUB PUSH1 0x20 DUP4 ADD MSTORE PUSH2 0x18A1 DUP2 DUP6 PUSH2 0x1844 JUMP JUMPDEST SWAP1 POP DUP2 DUP2 SUB PUSH1 0x40 DUP4 ADD MSTORE PUSH2 0x18B5 DUP2 DUP5 PUSH2 0x1844 JUMP JUMPDEST SWAP1 POP SWAP5 SWAP4 POP POP POP POP JUMP JUMPDEST PUSH2 0x18C8 DUP2 PUSH2 0x1521 JUMP JUMPDEST DUP3 MSTORE POP POP JUMP JUMPDEST PUSH0 PUSH1 0x80 DUP4 ADD PUSH0 DUP4 ADD MLOAD DUP5 DUP3 SUB PUSH0 DUP7 ADD MSTORE PUSH2 0x18E8 DUP3 DUP3 PUSH2 0x1603 JUMP JUMPDEST SWAP2 POP POP PUSH1 0x20 DUP4 ADD MLOAD PUSH2 0x18FD PUSH1 0x20 DUP7 ADD DUP3 PUSH2 0x18BF JUMP JUMPDEST POP PUSH1 0x40 DUP4 ADD MLOAD DUP5 DUP3 SUB PUSH1 0x40 DUP7 ADD MSTORE PUSH2 0x1915 DUP3 DUP3 PUSH2 0x1603 JUMP JUMPDEST SWAP2 POP POP PUSH1 0x60 DUP4 ADD MLOAD DUP5 DUP3 SUB PUSH1 0x60 DUP7 ADD MSTORE PUSH2 0x192F DUP3 DUP3 PUSH2 0x1683 JUMP JUMPDEST SWAP2 POP POP DUP1 SWAP2 POP POP SWAP3 SWAP2 POP POP JUMP JUMPDEST PUSH0 PUSH1 0x20 DUP3 ADD SWAP1 POP DUP2 DUP2 SUB PUSH0 DUP4 ADD MSTORE PUSH2 0x1954 DUP2 DUP5 PUSH2 0x18CE JUMP JUMPDEST SWAP1 POP SWAP3 SWAP2 POP POP JUMP JUMPDEST PUSH0 DUP2 SWAP1 POP SWAP3 SWAP2 POP POP JUMP JUMPDEST PUSH0 PUSH2 0x1971 DUP4 DUP6 PUSH2 0x195C JUMP JUMPDEST SWAP4 POP PUSH2 0x197E DUP4 DUP6 DUP5 PUSH2 0x1425 JUMP JUMPDEST DUP3 DUP5 ADD SWAP1 POP SWAP4 SWAP3 POP POP POP JUMP JUMPDEST PUSH0 PUSH2 0x1996 DUP3 DUP5 DUP7 PUSH2 0x1966 JUMP JUMPDEST SWAP2 POP DUP2 SWAP1 POP SWAP4 SWAP3 POP POP POP JUMP JUMPDEST PUSH32 0x5468657265206973206E6F207375636820612069737375657221000000000000 PUSH0 DUP3 ADD MSTORE POP JUMP JUMPDEST PUSH0 PUSH2 0x19D6 PUSH1 0x1A DUP4 PUSH2 0x1834 JUMP JUMPDEST SWAP2 POP PUSH2 0x19E1 DUP3 PUSH2 0x19A2 JUMP JUMPDEST PUSH1 0x20 DUP3 ADD SWAP1 POP SWAP2 SWAP1 POP JUMP JUMPDEST PUSH0 PUSH1 0x20 DUP3 ADD SWAP1 POP DUP2 DUP2 SUB PUSH0 DUP4 ADD MSTORE PUSH2 0x1A03 DUP2 PUSH2 0x19CA JUMP JUMPDEST SWAP1 POP SWAP2 SWAP1 POP JUMP JUMPDEST PUSH32 0x596F752068617665206E6F207269676874210000000000000000000000000000 PUSH0 DUP3 ADD MSTORE POP JUMP JUMPDEST PUSH0 PUSH2 0x1A3E PUSH1 0x12 DUP4 PUSH2 0x1834 JUMP JUMPDEST SWAP2 POP PUSH2 0x1A49 DUP3 PUSH2 0x1A0A JUMP JUMPDEST PUSH1 0x20 DUP3 ADD SWAP1 POP SWAP2 SWAP1 POP JUMP JUMPDEST PUSH0 PUSH1 0x20 DUP3 ADD SWAP1 POP DUP2 DUP2 SUB PUSH0 DUP4 ADD MSTORE PUSH2 0x1A6B DUP2 PUSH2 0x1A32 JUMP JUMPDEST SWAP1 POP SWAP2 SWAP1 POP JUMP JUMPDEST PUSH0 DUP3 SWAP1 POP SWAP3 SWAP2 POP POP JUMP JUMPDEST PUSH32 0x4E487B7100000000000000000000000000000000000000000000000000000000 PUSH0 MSTORE PUSH1 0x22 PUSH1 0x4 MSTORE PUSH1 0x24 PUSH0 REVERT JUMPDEST PUSH0 PUSH1 0x2 DUP3 DIV SWAP1 POP PUSH1 0x1 DUP3 AND DUP1 PUSH2 0x1AC0 JUMPI PUSH1 0x7F DUP3 AND SWAP2 POP JUMPDEST PUSH1 0x20 DUP3 LT DUP2 SUB PUSH2 0x1AD3 JUMPI PUSH2 0x1AD2 PUSH2 0x1A7C JUMP JUMPDEST JUMPDEST POP SWAP2 SWAP1 POP JUMP JUMPDEST PUSH0 DUP2 SWAP1 POP DUP2 PUSH0 MSTORE PUSH1 0x20 PUSH0 KECCAK256 SWAP1 POP SWAP2 SWAP1 POP JUMP JUMPDEST PUSH0 PUSH1 0x20 PUSH1 0x1F DUP4 ADD DIV SWAP1 POP SWAP2 SWAP1 POP JUMP JUMPDEST PUSH0 DUP3 DUP3 SHL SWAP1 POP SWAP3 SWAP2 POP POP JUMP JUMPDEST PUSH0 PUSH1 0x8 DUP4 MUL PUSH2 0x1B35 PUSH32 0xFFFFFFFFFFFFFFFFFFFFFFFFFFFFFFFFFFFFFFFFFFFFFFFFFFFFFFFFFFFFFFFF DUP3 PUSH2 0x1AFA JUMP JUMPDEST PUSH2 0x1B3F DUP7 DUP4 PUSH2 0x1AFA JUMP JUMPDEST SWAP6 POP DUP1 NOT DUP5 AND SWAP4 POP DUP1 DUP7 AND DUP5 OR SWAP3 POP POP POP SWAP4 SWAP3 POP POP POP JUMP JUMPDEST PUSH0 DUP2 SWAP1 POP SWAP2 SWAP1 POP JUMP JUMPDEST PUSH0 DUP2 SWAP1 POP SWAP2 SWAP1 POP JUMP JUMPDEST PUSH0 PUSH2 0x1B83 PUSH2 0x1B7E PUSH2 0x1B79 DUP5 PUSH2 0x1B57 JUMP JUMPDEST PUSH2 0x1B60 JUMP JUMPDEST PUSH2 0x1B57 JUMP JUMPDEST SWAP1 POP SWAP2 SWAP1 POP JUMP JUMPDEST PUSH0 DUP2 SWAP1 POP SWAP2 SWAP1 POP JUMP JUMPDEST PUSH2 0x1B9C DUP4 PUSH2 0x1B69 JUMP JUMPDEST PUSH2 0x1BB0 PUSH2 0x1BA8 DUP3 PUSH2 0x1B8A JUMP JUMPDEST DUP5 DUP5 SLOAD PUSH2 0x1B06 JUMP JUMPDEST DUP3 SSTORE POP POP POP POP JUMP JUMPDEST PUSH0 PUSH0 SWAP1 POP SWAP1 JUMP JUMPDEST PUSH2 0x1BC7 PUSH2 0x1BB8 JUMP JUMPDEST PUSH2 0x1BD2 DUP2 DUP5 DUP5 PUSH2 0x1B93 JUMP JUMPDEST POP POP POP JUMP JUMPDEST JUMPDEST DUP2 DUP2 LT ISZERO PUSH2 0x1BF5 JUMPI PUSH2 0x1BEA PUSH0 DUP3 PUSH2 0x1BBF JUMP JUMPDEST PUSH1 0x1 DUP2 ADD SWAP1 POP PUSH2 0x1BD8 JUMP JUMPDEST POP POP JUMP JUMPDEST PUSH1 0x1F DUP3 GT ISZERO PUSH2 0x1C3A JUMPI PUSH2 0x1C0B DUP2 PUSH2 0x1AD9 JUMP JUMPDEST PUSH2 0x1C14 DUP5 PUSH2 0x1AEB JUMP JUMPDEST DUP2 ADD PUSH1 0x20 DUP6 LT ISZERO PUSH2 0x1C23 JUMPI DUP2 SWAP1 POP JUMPDEST PUSH2 0x1C37 PUSH2 0x1C2F DUP6 PUSH2 0x1AEB JUMP JUMPDEST DUP4 ADD DUP3 PUSH2 0x1BD7 JUMP JUMPDEST POP POP JUMPDEST POP POP POP JUMP JUMPDEST PUSH0 DUP3 DUP3 SHR SWAP1 POP SWAP3 SWAP2 POP POP JUMP JUMPDEST PUSH0 PUSH2 0x1C5A PUSH0 NOT DUP5 PUSH1 0x8 MUL PUSH2 0x1C3F JUMP JUMPDEST NOT DUP1 DUP4 AND SWAP2 POP POP SWAP3 SWAP2 POP POP JUMP JUMPDEST PUSH0 PUSH2 0x1C72 DUP4 DUP4 PUSH2 0x1C4B JUMP JUMPDEST SWAP2 POP DUP3 PUSH1 0x2 MUL DUP3 OR SWAP1 POP SWAP3 SWAP2 POP POP JUMP JUMPDEST PUSH2 0x1C8C DUP4 DUP4 PUSH2 0x1A72 JUMP JUMPDEST PUSH8 0xFFFFFFFFFFFFFFFF DUP2 GT ISZERO PUSH2 0x1CA5 JUMPI PUSH2 0x1CA4 PUSH2 0x137D JUMP JUMPDEST JUMPDEST PUSH2 0x1CAF DUP3 SLOAD PUSH2 0x1AA9 JUMP JUMPDEST PUSH2 0x1CBA DUP3 DUP3 DUP6 PUSH2 0x1BF9 JUMP JUMPDEST PUSH0 PUSH1 0x1F DUP4 GT PUSH1 0x1 DUP2 EQ PUSH2 0x1CE7 JUMPI PUSH0 DUP5 ISZERO PUSH2 0x1CD5 JUMPI DUP3 DUP8 ADD CALLDATALOAD SWAP1 POP JUMPDEST PUSH2 0x1CDF DUP6 DUP3 PUSH2 0x1C67 JUMP JUMPDEST DUP7 SSTORE POP PUSH2 0x1D46 JUMP JUMPDEST PUSH1 0x1F NOT DUP5 AND PUSH2 0x1CF5 DUP7 PUSH2 0x1AD9 JUMP JUMPDEST PUSH0 JUMPDEST DUP3 DUP2 LT ISZERO PUSH2 0x1D1C JUMPI DUP5 DUP10 ADD CALLDATALOAD DUP3 SSTORE PUSH1 0x1 DUP3 ADD SWAP2 POP PUSH1 0x20 DUP6 ADD SWAP5 POP PUSH1 0x20 DUP2 ADD SWAP1 POP PUSH2 0x1CF7 JUMP JUMPDEST DUP7 DUP4 LT ISZERO PUSH2 0x1D39 JUMPI DUP5 DUP10 ADD CALLDATALOAD PUSH2 0x1D35 PUSH1 0x1F DUP10 AND DUP3 PUSH2 0x1C4B JUMP JUMPDEST DUP4 SSTORE POP JUMPDEST PUSH1 0x1 PUSH1 0x2 DUP9 MUL ADD DUP9 SSTORE POP POP POP JUMPDEST POP POP POP POP POP POP POP JUMP JUMPDEST PUSH0 PUSH2 0x1D5A DUP4 DUP6 PUSH2 0x1834 JUMP JUMPDEST SWAP4 POP PUSH2 0x1D67 DUP4 DUP6 DUP5 PUSH2 0x1425 JUMP JUMPDEST PUSH2 0x1D70 DUP4 PUSH2 0x136D JUMP JUMPDEST DUP5 ADD SWAP1 POP SWAP4 SWAP3 POP POP POP JUMP JUMPDEST PUSH0 PUSH1 0x20 DUP3 ADD SWAP1 POP DUP2 DUP2 SUB PUSH0 DUP4 ADD MSTORE PUSH2 0x1D94 DUP2 DUP5 DUP7 PUSH2 0x1D4F JUMP JUMPDEST SWAP1 POP SWAP4 SWAP3 POP POP POP JUMP JUMPDEST PUSH32 0x4E487B7100000000000000000000000000000000000000000000000000000000 PUSH0 MSTORE PUSH1 0x32 PUSH1 0x4 MSTORE PUSH1 0x24 PUSH0 REVERT JUMPDEST PUSH0 DUP2 SLOAD PUSH2 0x1DD6 DUP2 PUSH2 0x1AA9 JUMP JUMPDEST PUSH2 0x1DE0 DUP2 DUP7 PUSH2 0x1834 JUMP JUMPDEST SWAP5 POP PUSH1 0x1 DUP3 AND PUSH0 DUP2 EQ PUSH2 0x1DFA JUMPI PUSH1 0x1 DUP2 EQ PUSH2 0x1E10 JUMPI PUSH2 0x1E42 JUMP JUMPDEST PUSH1 0xFF NOT DUP4 AND DUP7 MSTORE DUP2 ISZERO ISZERO PUSH1 0x20 MUL DUP7 ADD SWAP4 POP PUSH2 0x1E42 JUMP JUMPDEST PUSH2 0x1E19 DUP6 PUSH2 0x1AD9 JUMP JUMPDEST PUSH0 JUMPDEST DUP4 DUP2 LT ISZERO PUSH2 0x1E3A JUMPI DUP2 SLOAD DUP2 DUP10 ADD MSTORE PUSH1 0x1 DUP3 ADD SWAP2 POP PUSH1 0x20 DUP2 ADD SWAP1 POP PUSH2 0x1E1B JUMP JUMPDEST DUP1 DUP9 ADD SWAP6 POP POP POP JUMPDEST POP POP POP SWAP3 SWAP2 POP POP JUMP JUMPDEST PUSH0 PUSH1 0x20 DUP3 ADD SWAP1 POP DUP2 DUP2 SUB PUSH0 DUP4 ADD MSTORE PUSH2 0x1E63 DUP2 DUP5 PUSH2 0x1DCA JUMP JUMPDEST SWAP1 POP SWAP3 SWAP2 POP POP JUMP JUMPDEST PUSH0 PUSH2 0x1E75 DUP3 PUSH2 0x15DB JUMP JUMPDEST PUSH2 0x1E7F DUP2 DUP6 PUSH2 0x195C JUMP JUMPDEST SWAP4 POP PUSH2 0x1E8F DUP2 DUP6 PUSH1 0x20 DUP7 ADD PUSH2 0x15F5 JUMP JUMPDEST DUP1 DUP5 ADD SWAP2 POP POP SWAP3 SWAP2 POP POP JUMP JUMPDEST PUSH0 PUSH2 0x1EA6 DUP3 DUP5 PUSH2 0x1E6B JUMP JUMPDEST SWAP2 POP DUP2 SWAP1 POP SWAP3 SWAP2 POP POP JUMP JUMPDEST PUSH32 0x5468652044494420697320616C72656164792063726561746564210000000000 PUSH0 DUP3 ADD MSTORE POP JUMP JUMPDEST PUSH0 PUSH2 0x1EE5 PUSH1 0x1B DUP4 PUSH2 0x1834 JUMP JUMPDEST SWAP2 POP PUSH2 0x1EF0 DUP3 PUSH2 0x1EB1 JUMP JUMPDEST PUSH1 0x20 DUP3 ADD SWAP1 POP SWAP2 SWAP1 POP JUMP JUMPDEST PUSH0 PUSH1 0x20 DUP3 ADD SWAP1 POP DUP2 DUP2 SUB PUSH0 DUP4 ADD MSTORE PUSH2 0x1F12 DUP2 PUSH2 0x1ED9 JUMP JUMPDEST SWAP1 POP SWAP2 SWAP1 POP JUMP JUMPDEST PUSH32 0x5468657265206973206E6F207375636820612044494421000000000000000000 PUSH0 DUP3 ADD MSTORE POP JUMP JUMPDEST PUSH0 PUSH2 0x1F4D PUSH1 0x17 DUP4 PUSH2 0x1834 JUMP JUMPDEST SWAP2 POP PUSH2 0x1F58 DUP3 PUSH2 0x1F19 JUMP JUMPDEST PUSH1 0x20 DUP3 ADD SWAP1 POP SWAP2 SWAP1 POP JUMP JUMPDEST PUSH0 PUSH1 0x20 DUP3 ADD SWAP1 POP DUP2 DUP2 SUB PUSH0 DUP4 ADD MSTORE PUSH2 0x1F7A DUP2 PUSH2 0x1F41 JUMP JUMPDEST SWAP1 POP SWAP2 SWAP1 POP JUMP JUMPDEST PUSH2 0x1F8A DUP3 PUSH2 0x15DB JUMP JUMPDEST PUSH8 0xFFFFFFFFFFFFFFFF DUP2 GT ISZERO PUSH2 0x1FA3 JUMPI PUSH2 0x1FA2 PUSH2 0x137D JUMP JUMPDEST JUMPDEST PUSH2 0x1FAD DUP3 SLOAD PUSH2 0x1AA9 JUMP JUMPDEST PUSH2 0x1FB8 DUP3 DUP3 DUP6 PUSH2 0x1BF9 JUMP JUMPDEST PUSH0 PUSH1 0x20 SWAP1 POP PUSH1 0x1F DUP4 GT PUSH1 0x1 DUP2 EQ PUSH2 0x1FE9 JUMPI PUSH0 DUP5 ISZERO PUSH2 0x1FD7 JUMPI DUP3 DUP8 ADD MLOAD SWAP1 POP JUMPDEST PUSH2 0x1FE1 DUP6 DUP3 PUSH2 0x1C67 JUMP JUMPDEST DUP7 SSTORE POP PUSH2 0x2048 JUMP JUMPDEST PUSH1 0x1F NOT DUP5 AND PUSH2 0x1FF7 DUP7 PUSH2 0x1AD9 JUMP JUMPDEST PUSH0 JUMPDEST DUP3 DUP2 LT ISZERO PUSH2 0x201E JUMPI DUP5 DUP10 ADD MLOAD DUP3 SSTORE PUSH1 0x1 DUP3 ADD SWAP2 POP PUSH1 0x20 DUP6 ADD SWAP5 POP PUSH1 0x20 DUP2 ADD SWAP1 POP PUSH2 0x1FF9 JUMP JUMPDEST DUP7 DUP4 LT ISZERO PUSH2 0x203B JUMPI DUP5 DUP10 ADD MLOAD PUSH2 0x2037 PUSH1 0x1F DUP10 AND DUP3 PUSH2 0x1C4B JUMP JUMPDEST DUP4 SSTORE POP JUMPDEST PUSH1 0x1 PUSH1 0x2 DUP9 MUL ADD DUP9 SSTORE POP POP POP JUMPDEST POP POP POP POP POP POP JUMP INVALID LOG2 PUSH5 0x6970667358 0x22 SLT KECCAK256 PUSH29 0xFC112455203DEB47468C2A2D1F28AE5C4E4D6195AFB2380F85369F8123 SWAP2 ADDRESS PUSH5 0x736F6C6343 STOP ADDMOD 0x1E STOP CALLER PUSH9 0x747470733A2F2F6964 PUSH6 0x6E746974792E PUSH7 0x6F756E64617469 PUSH16 0x6E2F4563647361536563703235366B31 MSTORE PUSH6 0x636F76657279 MSTORE8 PUSH10 0x676E6174757265323032 ADDRESS 0x2F PUSH13 0x64732D65636473612D73656370 ORIGIN CALLDATALOAD CALLDATASIZE PUSH12 0x312D7265636F766572793230 ORIGIN ADDRESS 0x2D ADDRESS 0x2E ADDRESS 0x2E PUSH11 0x736F6E6C64000000000000 "
				},
				"gasEstimates": {
					"creation": {
						"codeDepositCost": "1665200",
						"executionCost": "infinite",
						"totalCost": "infinite"
					},
					"external": {
						"DIDs(string)": "infinite",
						"checkRevocation(string,string)": "infinite",
						"getDID(string)": "infinite",
						"getIssuer(string)": "infinite",
						"issuerData(string)": "infinite",
						"registerDID(string)": "infinite",
						"registerIssuer(string,string,string)": "infinite",
						"removeIssuer(string)": "infinite",
						"revoke(string,string)": "infinite"
					}
				},
				"methodIdentifiers": {
					"DIDs(string)": "2128e1c9",
					"checkRevocation(string,string)": "317305f4",
					"getDID(string)": "e0783898",
					"getIssuer(string)": "80793ab8",
					"issuerData(string)": "a0a4f592",
					"registerDID(string)": "570810e2",
					"registerIssuer(string,string,string)": "8096373e",
					"removeIssuer(string)": "76baabff",
					"revoke(string,string)": "10b40f85"
				}
			},
			"storageLayout": {
				"storage": [
					{
						"astId": 32,
						"contract": "VDR.sol:VDR",
						"label": "context",
						"offset": 0,
						"slot": "0",
						"type": "t_array(t_string_storage)dyn_storage"
					},
					{
						"astId": 35,
						"contract": "VDR.sol:VDR",
						"label": "methodType",
						"offset": 0,
						"slot": "1",
						"type": "t_string_storage"
					},
					{
						"astId": 40,
						"contract": "VDR.sol:VDR",
						"label": "DIDs",
						"offset": 0,
						"slot": "2",
						"type": "t_mapping(t_string_memory_ptr,t_struct(validDID)16_storage)"
					},
					{
						"astId": 45,
						"contract": "VDR.sol:VDR",
						"label": "issuerData",
						"offset": 0,
						"slot": "3",
						"type": "t_mapping(t_string_memory_ptr,t_struct(validIssuer)26_storage)"
					}
				],
				"types": {
					"t_address": {
						"encoding": "inplace",
						"label": "address",
						"numberOfBytes": "20"
					},
					"t_array(t_string_storage)dyn_storage": {
						"base": "t_string_storage",
						"encoding": "dynamic_array",
						"label": "string[]",
						"numberOfBytes": "32"
					},
					"t_bool": {
						"encoding": "inplace",
						"label": "bool",
						"numberOfBytes": "1"
					},
					"t_mapping(t_string_memory_ptr,t_struct(validDID)16_storage)": {
						"encoding": "mapping",
						"key": "t_string_memory_ptr",
						"label": "mapping(string => struct VDR.validDID)",
						"numberOfBytes": "32",
						"value": "t_struct(validDID)16_storage"
					},
					"t_mapping(t_string_memory_ptr,t_struct(validIssuer)26_storage)": {
						"encoding": "mapping",
						"key": "t_string_memory_ptr",
						"label": "mapping(string => struct VDR.validIssuer)",
						"numberOfBytes": "32",
						"value": "t_struct(validIssuer)26_storage"
					},
					"t_string_memory_ptr": {
						"encoding": "bytes",
						"label": "string",
						"numberOfBytes": "32"
					},
					"t_string_storage": {
						"encoding": "bytes",
						"label": "string",
						"numberOfBytes": "32"
					},
					"t_struct(validDID)16_storage": {
						"encoding": "inplace",
						"label": "struct VDR.validDID",
						"members": [
							{
								"astId": 13,
								"contract": "VDR.sol:VDR",
								"label": "exist",
								"offset": 0,
								"slot": "0",
								"type": "t_bool"
							},
							{
								"astId": 15,
								"contract": "VDR.sol:VDR",
								"label": "pk",
								"offset": 1,
								"slot": "0",
								"type": "t_address"
							}
						],
						"numberOfBytes": "32"
					},
					"t_struct(validIssuer)26_storage": {
						"encoding": "inplace",
						"label": "struct VDR.validIssuer",
						"members": [
							{
								"astId": 18,
								"contract": "VDR.sol:VDR",
								"label": "exist",
								"offset": 0,
								"slot": "0",
								"type": "t_bool"
							},
							{
								"astId": 20,
								"contract": "VDR.sol:VDR",
								"label": "methodType",
								"offset": 0,
								"slot": "1",
								"type": "t_string_storage"
							},
							{
								"astId": 22,
								"contract": "VDR.sol:VDR",
								"label": "pk",
								"offset": 0,
								"slot": "2",
								"type": "t_string_storage"
							},
							{
								"astId": 25,
								"contract": "VDR.sol:VDR",
								"label": "revocationList",
								"offset": 0,
								"slot": "3",
								"type": "t_array(t_string_storage)dyn_storage"
							}
						],
						"numberOfBytes": "128"
					}
				}
			},
			"userdoc": {
				"kind": "user",
				"methods": {},
				"version": 1
			}
		}
	}
}