{
	".debug/11155111/0x5a877473E776FDE60148ce4Da9ff91cF66296358/contracts/SecretDepository.sol": {
		"SecretDepository": {
			"abi": [
				{
					"inputs": [],
					"stateMutability": "nonpayable",
					"type": "constructor"
				},
				{
					"anonymous": false,
					"inputs": [
						{
							"indexed": true,
							"internalType": "address",
							"name": "retriever",
							"type": "address"
						},
						{
							"indexed": true,
							"internalType": "string",
							"name": "studentId",
							"type": "string"
						},
						{
							"indexed": true,
							"internalType": "bytes32",
							"name": "keyHash",
							"type": "bytes32"
						}
					],
					"name": "SubmissionClaimed",
					"type": "event"
				},
				{
					"anonymous": false,
					"inputs": [
						{
							"indexed": true,
							"internalType": "address",
							"name": "depositor",
							"type": "address"
						},
						{
							"indexed": true,
							"internalType": "string",
							"name": "studentId",
							"type": "string"
						},
						{
							"indexed": true,
							"internalType": "bytes32",
							"name": "keyHash",
							"type": "bytes32"
						}
					],
					"name": "SubmissionDeposited",
					"type": "event"
				},
				{
					"inputs": [],
					"name": "DEPOSIT_FEE",
					"outputs": [
						{
							"internalType": "uint256",
							"name": "",
							"type": "uint256"
						}
					],
					"stateMutability": "view",
					"type": "function"
				},
				{
					"inputs": [],
					"name": "MIN_LOCK_DURATION",
					"outputs": [
						{
							"internalType": "uint256",
							"name": "",
							"type": "uint256"
						}
					],
					"stateMutability": "view",
					"type": "function"
				},
				{
					"inputs": [],
					"name": "checkMySubmissionStatus",
					"outputs": [
						{
							"internalType": "address",
							"name": "depositor",
							"type": "address"
						},
						{
							"internalType": "uint256",
							"name": "depositTime",
							"type": "uint256"
						},
						{
							"internalType": "string",
							"name": "studentId",
							"type": "string"
						},
						{
							"internalType": "bool",
							"name": "isClaimed",
							"type": "bool"
						}
					],
					"stateMutability": "view",
					"type": "function"
				},
				{
					"inputs": [
						{
							"internalType": "string",
							"name": "password",
							"type": "string"
						}
					],
					"name": "claimAndRetrieve",
					"outputs": [
						{
							"internalType": "string",
							"name": "",
							"type": "string"
						}
					],
					"stateMutability": "nonpayable",
					"type": "function"
				},
				{
					"inputs": [
						{
							"internalType": "bytes32",
							"name": "keyHash",
							"type": "bytes32"
						},
						{
							"internalType": "string",
							"name": "secretMessage",
							"type": "string"
						},
						{
							"internalType": "string",
							"name": "studentId",
							"type": "string"
						}
					],
					"name": "deposit",
					"outputs": [],
					"stateMutability": "payable",
					"type": "function"
				},
				{
					"inputs": [
						{
							"internalType": "address",
							"name": "",
							"type": "address"
						}
					],
					"name": "depositorToKeyHash",
					"outputs": [
						{
							"internalType": "bytes32",
							"name": "",
							"type": "bytes32"
						}
					],
					"stateMutability": "view",
					"type": "function"
				},
				{
					"inputs": [
						{
							"internalType": "string",
							"name": "studentId",
							"type": "string"
						}
					],
					"name": "getSubmissionStatus",
					"outputs": [
						{
							"internalType": "address",
							"name": "depositor",
							"type": "address"
						},
						{
							"internalType": "uint256",
							"name": "depositTime",
							"type": "uint256"
						},
						{
							"internalType": "bool",
							"name": "isClaimed",
							"type": "bool"
						}
					],
					"stateMutability": "view",
					"type": "function"
				},
				{
					"inputs": [],
					"name": "owner",
					"outputs": [
						{
							"internalType": "address",
							"name": "",
							"type": "address"
						}
					],
					"stateMutability": "view",
					"type": "function"
				},
				{
					"inputs": [
						{
							"internalType": "string",
							"name": "",
							"type": "string"
						}
					],
					"name": "studentIdToKeyHash",
					"outputs": [
						{
							"internalType": "bytes32",
							"name": "",
							"type": "bytes32"
						}
					],
					"stateMutability": "view",
					"type": "function"
				},
				{
					"inputs": [],
					"name": "withdrawFees",
					"outputs": [],
					"stateMutability": "nonpayable",
					"type": "function"
				}
			],
			"devdoc": {
				"author": "Comp5521",
				"details": "This contract is a \"digital lockbox\". You will deposit a secret message along with your student ID. To prove you completed the assignment, you must come back after a short waiting period to \"claim\" your submission and retrieve your message. As the instructor, I can check your submission status and manage the contract.",
				"kind": "dev",
				"methods": {
					"checkMySubmissionStatus()": {
						"details": "It uses your wallet address to look up your submission details.",
						"returns": {
							"depositTime": "The time you made the deposit. You can use this to see when the time lock expires.",
							"depositor": "The wallet address you used to deposit.",
							"isClaimed": "The completion status ('true' if claimed, 'false' otherwise).",
							"studentId": "The student ID you submitted."
						}
					},
					"claimAndRetrieve(string)": {
						"details": "This function will verify your password, check that you've waited long enough, mark your submission as \"complete\", and finally return the secret message you originally deposited.",
						"params": {
							"password": "Your original, plain-text password. The function will hash it to find your submission."
						},
						"returns": {
							"_0": "Your original secret message."
						}
					},
					"deposit(bytes32,string,string)": {
						"details": "It takes your details, checks that everything is correct, and stores your submission on the blockchain.",
						"params": {
							"keyHash": "The keccak256 hash of your secret password. Don't use the password itself!",
							"secretMessage": "A secret message of your choice (e.g., your name or a fun fact).",
							"studentId": "Your official student ID number."
						}
					},
					"getSubmissionStatus(string)": {
						"details": "It's marked with 'onlyOwner', so only I can call it. I'll use your student ID to look you up.",
						"params": {
							"studentId": "The ID of the student I want to check."
						},
						"returns": {
							"depositTime": "The timestamp of their deposit.",
							"depositor": "The student's wallet address.",
							"isClaimed": "Their completion status."
						}
					},
					"withdrawFees()": {
						"details": "It allows me to withdraw the accumulated deposit fees from the contract. You don't need to worry about this one!"
					}
				},
				"title": "SecretDepository",
				"version": 1
			},
			"evm": {
				"assembly": "    /* \".debug/11155111/0x5a877473E776FDE60148ce4Da9ff91cF66296358/contracts/SecretDepository.sol\":528:9914  contract SecretDepository {... */\n  mstore(0x40, 0x80)\n    /* \".debug/11155111/0x5a877473E776FDE60148ce4Da9ff91cF66296358/contracts/SecretDepository.sol\":3842:3891  constructor() {... */\n  callvalue\n  dup1\n  iszero\n  tag_1\n  jumpi\n  revert(0x00, 0x00)\ntag_1:\n  pop\n    /* \".debug/11155111/0x5a877473E776FDE60148ce4Da9ff91cF66296358/contracts/SecretDepository.sol\":3874:3884  msg.sender */\n  caller\n    /* \".debug/11155111/0x5a877473E776FDE60148ce4Da9ff91cF66296358/contracts/SecretDepository.sol\":3866:3871  owner */\n  0x00\n  0x00\n    /* \".debug/11155111/0x5a877473E776FDE60148ce4Da9ff91cF66296358/contracts/SecretDepository.sol\":3866:3884  owner = msg.sender */\n  0x0100\n  exp\n  dup2\n  sload\n  dup2\n  0xffffffffffffffffffffffffffffffffffffffff\n  mul\n  not\n  and\n  swap1\n  dup4\n  0xffffffffffffffffffffffffffffffffffffffff\n  and\n  mul\n  or\n  swap1\n  sstore\n  pop\n    /* \".debug/11155111/0x5a877473E776FDE60148ce4Da9ff91cF66296358/contracts/SecretDepository.sol\":528:9914  contract SecretDepository {... */\n  dataSize(sub_0)\n  dup1\n  dataOffset(sub_0)\n  0x00\n  codecopy\n  0x00\n  return\nstop\n\nsub_0: assembly {\n        /* \".debug/11155111/0x5a877473E776FDE60148ce4Da9ff91cF66296358/contracts/SecretDepository.sol\":528:9914  contract SecretDepository {... */\n      mstore(0x40, 0x80)\n      jumpi(tag_1, lt(calldatasize, 0x04))\n      shr(0xe0, calldataload(0x00))\n      dup1\n      0x6ac7693b\n      gt\n      tag_12\n      jumpi\n      dup1\n      0x6ac7693b\n      eq\n      tag_7\n      jumpi\n      dup1\n      0x78b4330f\n      eq\n      tag_8\n      jumpi\n      dup1\n      0x8da5cb5b\n      eq\n      tag_9\n      jumpi\n      dup1\n      0xc9ebfb65\n      eq\n      tag_10\n      jumpi\n      dup1\n      0xde363e65\n      eq\n      tag_11\n      jumpi\n      jump(tag_1)\n    tag_12:\n      dup1\n      0x2630a079\n      eq\n      tag_2\n      jumpi\n      dup1\n      0x2b5ba44f\n      eq\n      tag_3\n      jumpi\n      dup1\n      0x476343ee\n      eq\n      tag_4\n      jumpi\n      dup1\n      0x5dc58d33\n      eq\n      tag_5\n      jumpi\n      dup1\n      0x66db84f5\n      eq\n      tag_6\n      jumpi\n    tag_1:\n      revert(0x00, 0x00)\n        /* \".debug/11155111/0x5a877473E776FDE60148ce4Da9ff91cF66296358/contracts/SecretDepository.sol\":2362:2414  mapping(string => bytes32) public studentIdToKeyHash */\n    tag_2:\n      callvalue\n      dup1\n      iszero\n      tag_13\n      jumpi\n      revert(0x00, 0x00)\n    tag_13:\n      pop\n      tag_14\n      0x04\n      dup1\n      calldatasize\n      sub\n      dup2\n      add\n      swap1\n      tag_15\n      swap2\n      swap1\n      tag_16\n      jump\t// in\n    tag_15:\n      tag_17\n      jump\t// in\n    tag_14:\n      mload(0x40)\n      tag_18\n      swap2\n      swap1\n      tag_19\n      jump\t// in\n    tag_18:\n      mload(0x40)\n      dup1\n      swap2\n      sub\n      swap1\n      return\n        /* \".debug/11155111/0x5a877473E776FDE60148ce4Da9ff91cF66296358/contracts/SecretDepository.sol\":2574:2627  mapping(address => bytes32) public depositorToKeyHash */\n    tag_3:\n      callvalue\n      dup1\n      iszero\n      tag_20\n      jumpi\n      revert(0x00, 0x00)\n    tag_20:\n      pop\n      tag_21\n      0x04\n      dup1\n      calldatasize\n      sub\n      dup2\n      add\n      swap1\n      tag_22\n      swap2\n      swap1\n      tag_23\n      jump\t// in\n    tag_22:\n      tag_24\n      jump\t// in\n    tag_21:\n      mload(0x40)\n      tag_25\n      swap2\n      swap1\n      tag_19\n      jump\t// in\n    tag_25:\n      mload(0x40)\n      dup1\n      swap2\n      sub\n      swap1\n      return\n        /* \".debug/11155111/0x5a877473E776FDE60148ce4Da9ff91cF66296358/contracts/SecretDepository.sol\":9741:9912  function withdrawFees() public onlyOwner {... */\n    tag_4:\n      callvalue\n      dup1\n      iszero\n      tag_26\n      jumpi\n      revert(0x00, 0x00)\n    tag_26:\n      pop\n      tag_27\n      tag_28\n      jump\t// in\n    tag_27:\n      stop\n        /* \".debug/11155111/0x5a877473E776FDE60148ce4Da9ff91cF66296358/contracts/SecretDepository.sol\":7989:8544  function checkMySubmissionStatus() public view returns (address depositor, uint256 depositTime, string memory studentId, bool isClaimed) {... */\n    tag_5:\n      callvalue\n      dup1\n      iszero\n      tag_29\n      jumpi\n      revert(0x00, 0x00)\n    tag_29:\n      pop\n      tag_30\n      tag_31\n      jump\t// in\n    tag_30:\n      mload(0x40)\n      tag_32\n      swap5\n      swap4\n      swap3\n      swap2\n      swap1\n      tag_33\n      jump\t// in\n    tag_32:\n      mload(0x40)\n      dup1\n      swap2\n      sub\n      swap1\n      return\n        /* \".debug/11155111/0x5a877473E776FDE60148ce4Da9ff91cF66296358/contracts/SecretDepository.sol\":6304:7477  function claimAndRetrieve(string calldata password) public returns (string memory) {... */\n    tag_6:\n      callvalue\n      dup1\n      iszero\n      tag_34\n      jumpi\n      revert(0x00, 0x00)\n    tag_34:\n      pop\n      tag_35\n      0x04\n      dup1\n      calldatasize\n      sub\n      dup2\n      add\n      swap1\n      tag_36\n      swap2\n      swap1\n      tag_37\n      jump\t// in\n    tag_36:\n      tag_38\n      jump\t// in\n    tag_35:\n      mload(0x40)\n      tag_39\n      swap2\n      swap1\n      tag_40\n      jump\t// in\n    tag_39:\n      mload(0x40)\n      dup1\n      swap2\n      sub\n      swap1\n      return\n        /* \".debug/11155111/0x5a877473E776FDE60148ce4Da9ff91cF66296358/contracts/SecretDepository.sol\":8976:9521  function getSubmissionStatus(string calldata studentId) public view onlyOwner returns (address depositor, uint256 depositTime, bool isClaimed) {... */\n    tag_7:\n      callvalue\n      dup1\n      iszero\n      tag_41\n      jumpi\n      revert(0x00, 0x00)\n    tag_41:\n      pop\n      tag_42\n      0x04\n      dup1\n      calldatasize\n      sub\n      dup2\n      add\n      swap1\n      tag_43\n      swap2\n      swap1\n      tag_37\n      jump\t// in\n    tag_43:\n      tag_44\n      jump\t// in\n    tag_42:\n      mload(0x40)\n      tag_45\n      swap4\n      swap3\n      swap2\n      swap1\n      tag_46\n      jump\t// in\n    tag_45:\n      mload(0x40)\n      dup1\n      swap2\n      sub\n      swap1\n      return\n        /* \".debug/11155111/0x5a877473E776FDE60148ce4Da9ff91cF66296358/contracts/SecretDepository.sol\":1124:1177  uint256 public constant MIN_LOCK_DURATION = 2 minutes */\n    tag_8:\n      callvalue\n      dup1\n      iszero\n      tag_47\n      jumpi\n      revert(0x00, 0x00)\n    tag_47:\n      pop\n      tag_48\n      tag_49\n      jump\t// in\n    tag_48:\n      mload(0x40)\n      tag_50\n      swap2\n      swap1\n      tag_51\n      jump\t// in\n    tag_50:\n      mload(0x40)\n      dup1\n      swap2\n      sub\n      swap1\n      return\n        /* \".debug/11155111/0x5a877473E776FDE60148ce4Da9ff91cF66296358/contracts/SecretDepository.sol\":808:828  address public owner */\n    tag_9:\n      callvalue\n      dup1\n      iszero\n      tag_52\n      jumpi\n      revert(0x00, 0x00)\n    tag_52:\n      pop\n      tag_53\n      tag_54\n      jump\t// in\n    tag_53:\n      mload(0x40)\n      tag_55\n      swap2\n      swap1\n      tag_56\n      jump\t// in\n    tag_55:\n      mload(0x40)\n      dup1\n      swap2\n      sub\n      swap1\n      return\n        /* \".debug/11155111/0x5a877473E776FDE60148ce4Da9ff91cF66296358/contracts/SecretDepository.sol\":4351:5829  function deposit(bytes32 keyHash, string calldata secretMessage, string calldata studentId) public payable {... */\n    tag_10:\n      tag_57\n      0x04\n      dup1\n      calldatasize\n      sub\n      dup2\n      add\n      swap1\n      tag_58\n      swap2\n      swap1\n      tag_59\n      jump\t// in\n    tag_58:\n      tag_60\n      jump\t// in\n    tag_57:\n      stop\n        /* \".debug/11155111/0x5a877473E776FDE60148ce4Da9ff91cF66296358/contracts/SecretDepository.sol\":917:966  uint256 public constant DEPOSIT_FEE = 0.001 ether */\n    tag_11:\n      callvalue\n      dup1\n      iszero\n      tag_61\n      jumpi\n      revert(0x00, 0x00)\n    tag_61:\n      pop\n      tag_62\n      tag_63\n      jump\t// in\n    tag_62:\n      mload(0x40)\n      tag_64\n      swap2\n      swap1\n      tag_51\n      jump\t// in\n    tag_64:\n      mload(0x40)\n      dup1\n      swap2\n      sub\n      swap1\n      return\n        /* \".debug/11155111/0x5a877473E776FDE60148ce4Da9ff91cF66296358/contracts/SecretDepository.sol\":2362:2414  mapping(string => bytes32) public studentIdToKeyHash */\n    tag_17:\n      0x02\n      dup2\n      dup1\n      mload\n      0x20\n      dup2\n      add\n      dup3\n      add\n      dup1\n      mload\n      dup5\n      dup3\n      mstore\n      0x20\n      dup4\n      add\n      0x20\n      dup6\n      add\n      keccak256\n      dup2\n      dup4\n      mstore\n      dup1\n      swap6\n      pop\n      pop\n      pop\n      pop\n      pop\n      pop\n      0x00\n      swap2\n      pop\n      swap1\n      pop\n      sload\n      dup2\n      jump\t// out\n        /* \".debug/11155111/0x5a877473E776FDE60148ce4Da9ff91cF66296358/contracts/SecretDepository.sol\":2574:2627  mapping(address => bytes32) public depositorToKeyHash */\n    tag_24:\n      mstore(0x20, 0x03)\n      dup1\n      0x00\n      mstore\n      keccak256(0x00, 0x40)\n      0x00\n      swap2\n      pop\n      swap1\n      pop\n      sload\n      dup2\n      jump\t// out\n        /* \".debug/11155111/0x5a877473E776FDE60148ce4Da9ff91cF66296358/contracts/SecretDepository.sol\":9741:9912  function withdrawFees() public onlyOwner {... */\n    tag_28:\n        /* \".debug/11155111/0x5a877473E776FDE60148ce4Da9ff91cF66296358/contracts/SecretDepository.sol\":3488:3493  owner */\n      0x00\n      0x00\n      swap1\n      sload\n      swap1\n      0x0100\n      exp\n      swap1\n      div\n      0xffffffffffffffffffffffffffffffffffffffff\n      and\n        /* \".debug/11155111/0x5a877473E776FDE60148ce4Da9ff91cF66296358/contracts/SecretDepository.sol\":3474:3493  msg.sender == owner */\n      0xffffffffffffffffffffffffffffffffffffffff\n      and\n        /* \".debug/11155111/0x5a877473E776FDE60148ce4Da9ff91cF66296358/contracts/SecretDepository.sol\":3474:3484  msg.sender */\n      caller\n        /* \".debug/11155111/0x5a877473E776FDE60148ce4Da9ff91cF66296358/contracts/SecretDepository.sol\":3474:3493  msg.sender == owner */\n      0xffffffffffffffffffffffffffffffffffffffff\n      and\n      eq\n        /* \".debug/11155111/0x5a877473E776FDE60148ce4Da9ff91cF66296358/contracts/SecretDepository.sol\":3466:3521  require(msg.sender == owner, \"Caller is not the owner\") */\n      tag_66\n      jumpi\n      mload(0x40)\n      0x08c379a000000000000000000000000000000000000000000000000000000000\n      dup2\n      mstore\n      0x04\n      add\n      tag_67\n      swap1\n      tag_68\n      jump\t// in\n    tag_67:\n      mload(0x40)\n      dup1\n      swap2\n      sub\n      swap1\n      revert\n    tag_66:\n        /* \".debug/11155111/0x5a877473E776FDE60148ce4Da9ff91cF66296358/contracts/SecretDepository.sol\":9793:9805  bool success */\n      0x00\n        /* \".debug/11155111/0x5a877473E776FDE60148ce4Da9ff91cF66296358/contracts/SecretDepository.sol\":9811:9816  owner */\n      0x00\n      0x00\n      swap1\n      sload\n      swap1\n      0x0100\n      exp\n      swap1\n      div\n      0xffffffffffffffffffffffffffffffffffffffff\n      and\n        /* \".debug/11155111/0x5a877473E776FDE60148ce4Da9ff91cF66296358/contracts/SecretDepository.sol\":9811:9821  owner.call */\n      0xffffffffffffffffffffffffffffffffffffffff\n      and\n        /* \".debug/11155111/0x5a877473E776FDE60148ce4Da9ff91cF66296358/contracts/SecretDepository.sol\":9829:9850  address(this).balance */\n      selfbalance\n        /* \".debug/11155111/0x5a877473E776FDE60148ce4Da9ff91cF66296358/contracts/SecretDepository.sol\":9811:9855  owner.call{value: address(this).balance}(\"\") */\n      mload(0x40)\n      tag_70\n      swap1\n      tag_71\n      jump\t// in\n    tag_70:\n      0x00\n      mload(0x40)\n      dup1\n      dup4\n      sub\n      dup2\n      dup6\n      dup8\n      gas\n      call\n      swap3\n      pop\n      pop\n      pop\n      returndatasize\n      dup1\n      0x00\n      dup2\n      eq\n      tag_74\n      jumpi\n      mload(0x40)\n      swap2\n      pop\n      and(add(returndatasize, 0x3f), not(0x1f))\n      dup3\n      add\n      0x40\n      mstore\n      returndatasize\n      dup3\n      mstore\n      returndatasize\n      0x00\n      0x20\n      dup5\n      add\n      returndatacopy\n      jump(tag_73)\n    tag_74:\n      0x60\n      swap2\n      pop\n    tag_73:\n      pop\n        /* \".debug/11155111/0x5a877473E776FDE60148ce4Da9ff91cF66296358/contracts/SecretDepository.sol\":9792:9855  (bool success, ) = owner.call{value: address(this).balance}(\"\") */\n      pop\n      swap1\n      pop\n        /* \".debug/11155111/0x5a877473E776FDE60148ce4Da9ff91cF66296358/contracts/SecretDepository.sol\":9873:9880  success */\n      dup1\n        /* \".debug/11155111/0x5a877473E776FDE60148ce4Da9ff91cF66296358/contracts/SecretDepository.sol\":9865:9905  require(success, \"Failed to send Ether\") */\n      tag_75\n      jumpi\n      mload(0x40)\n      0x08c379a000000000000000000000000000000000000000000000000000000000\n      dup2\n      mstore\n      0x04\n      add\n      tag_76\n      swap1\n      tag_77\n      jump\t// in\n    tag_76:\n      mload(0x40)\n      dup1\n      swap2\n      sub\n      swap1\n      revert\n    tag_75:\n        /* \".debug/11155111/0x5a877473E776FDE60148ce4Da9ff91cF66296358/contracts/SecretDepository.sol\":9782:9912  {... */\n      pop\n        /* \".debug/11155111/0x5a877473E776FDE60148ce4Da9ff91cF66296358/contracts/SecretDepository.sol\":9741:9912  function withdrawFees() public onlyOwner {... */\n      jump\t// out\n        /* \".debug/11155111/0x5a877473E776FDE60148ce4Da9ff91cF66296358/contracts/SecretDepository.sol\":7989:8544  function checkMySubmissionStatus() public view returns (address depositor, uint256 depositTime, string memory studentId, bool isClaimed) {... */\n    tag_31:\n        /* \".debug/11155111/0x5a877473E776FDE60148ce4Da9ff91cF66296358/contracts/SecretDepository.sol\":8045:8062  address depositor */\n      0x00\n        /* \".debug/11155111/0x5a877473E776FDE60148ce4Da9ff91cF66296358/contracts/SecretDepository.sol\":8064:8083  uint256 depositTime */\n      0x00\n        /* \".debug/11155111/0x5a877473E776FDE60148ce4Da9ff91cF66296358/contracts/SecretDepository.sol\":8085:8108  string memory studentId */\n      0x60\n        /* \".debug/11155111/0x5a877473E776FDE60148ce4Da9ff91cF66296358/contracts/SecretDepository.sol\":8110:8124  bool isClaimed */\n      0x00\n        /* \".debug/11155111/0x5a877473E776FDE60148ce4Da9ff91cF66296358/contracts/SecretDepository.sol\":8136:8151  bytes32 keyHash */\n      0x00\n        /* \".debug/11155111/0x5a877473E776FDE60148ce4Da9ff91cF66296358/contracts/SecretDepository.sol\":8154:8172  depositorToKeyHash */\n      0x03\n        /* \".debug/11155111/0x5a877473E776FDE60148ce4Da9ff91cF66296358/contracts/SecretDepository.sol\":8154:8184  depositorToKeyHash[msg.sender] */\n      0x00\n        /* \".debug/11155111/0x5a877473E776FDE60148ce4Da9ff91cF66296358/contracts/SecretDepository.sol\":8173:8183  msg.sender */\n      caller\n        /* \".debug/11155111/0x5a877473E776FDE60148ce4Da9ff91cF66296358/contracts/SecretDepository.sol\":8154:8184  depositorToKeyHash[msg.sender] */\n      0xffffffffffffffffffffffffffffffffffffffff\n      and\n      0xffffffffffffffffffffffffffffffffffffffff\n      and\n      dup2\n      mstore\n      0x20\n      add\n      swap1\n      dup2\n      mstore\n      0x20\n      add\n      0x00\n      keccak256\n      sload\n        /* \".debug/11155111/0x5a877473E776FDE60148ce4Da9ff91cF66296358/contracts/SecretDepository.sol\":8136:8184  bytes32 keyHash = depositorToKeyHash[msg.sender] */\n      swap1\n      pop\n        /* \".debug/11155111/0x5a877473E776FDE60148ce4Da9ff91cF66296358/contracts/SecretDepository.sol\":8300:8301  0 */\n      0x00\n        /* \".debug/11155111/0x5a877473E776FDE60148ce4Da9ff91cF66296358/contracts/SecretDepository.sol\":8289:8301  keyHash == 0 */\n      0x00\n      shl\n        /* \".debug/11155111/0x5a877473E776FDE60148ce4Da9ff91cF66296358/contracts/SecretDepository.sol\":8289:8296  keyHash */\n      dup2\n        /* \".debug/11155111/0x5a877473E776FDE60148ce4Da9ff91cF66296358/contracts/SecretDepository.sol\":8289:8301  keyHash == 0 */\n      sub\n        /* \".debug/11155111/0x5a877473E776FDE60148ce4Da9ff91cF66296358/contracts/SecretDepository.sol\":8285:8361  if (keyHash == 0) {... */\n      tag_79\n      jumpi\n        /* \".debug/11155111/0x5a877473E776FDE60148ce4Da9ff91cF66296358/contracts/SecretDepository.sol\":8333:8334  0 */\n      0x00\n        /* \".debug/11155111/0x5a877473E776FDE60148ce4Da9ff91cF66296358/contracts/SecretDepository.sol\":8337:8338  0 */\n      0x00\n        /* \".debug/11155111/0x5a877473E776FDE60148ce4Da9ff91cF66296358/contracts/SecretDepository.sol\":8344:8349  false */\n      0x00\n        /* \".debug/11155111/0x5a877473E776FDE60148ce4Da9ff91cF66296358/contracts/SecretDepository.sol\":8317:8350  return (address(0), 0, \"\", false) */\n      mload(0x40)\n      dup1\n      0x20\n      add\n      0x40\n      mstore\n      dup1\n      0x00\n      dup2\n      mstore\n      pop\n      swap1\n      swap5\n      pop\n      swap5\n      pop\n      swap5\n      pop\n      swap5\n      pop\n      pop\n      jump(tag_78)\n        /* \".debug/11155111/0x5a877473E776FDE60148ce4Da9ff91cF66296358/contracts/SecretDepository.sol\":8285:8361  if (keyHash == 0) {... */\n    tag_79:\n        /* \".debug/11155111/0x5a877473E776FDE60148ce4Da9ff91cF66296358/contracts/SecretDepository.sol\":8370:8401  Submission storage mySubmission */\n      0x00\n        /* \".debug/11155111/0x5a877473E776FDE60148ce4Da9ff91cF66296358/contracts/SecretDepository.sol\":8404:8415  submissions */\n      0x01\n        /* \".debug/11155111/0x5a877473E776FDE60148ce4Da9ff91cF66296358/contracts/SecretDepository.sol\":8404:8424  submissions[keyHash] */\n      0x00\n        /* \".debug/11155111/0x5a877473E776FDE60148ce4Da9ff91cF66296358/contracts/SecretDepository.sol\":8416:8423  keyHash */\n      dup4\n        /* \".debug/11155111/0x5a877473E776FDE60148ce4Da9ff91cF66296358/contracts/SecretDepository.sol\":8404:8424  submissions[keyHash] */\n      dup2\n      mstore\n      0x20\n      add\n      swap1\n      dup2\n      mstore\n      0x20\n      add\n      0x00\n      keccak256\n        /* \".debug/11155111/0x5a877473E776FDE60148ce4Da9ff91cF66296358/contracts/SecretDepository.sol\":8370:8424  Submission storage mySubmission = submissions[keyHash] */\n      swap1\n      pop\n        /* \".debug/11155111/0x5a877473E776FDE60148ce4Da9ff91cF66296358/contracts/SecretDepository.sol\":8442:8454  mySubmission */\n      dup1\n        /* \".debug/11155111/0x5a877473E776FDE60148ce4Da9ff91cF66296358/contracts/SecretDepository.sol\":8442:8464  mySubmission.depositor */\n      0x01\n      add\n      0x00\n      swap1\n      sload\n      swap1\n      0x0100\n      exp\n      swap1\n      div\n      0xffffffffffffffffffffffffffffffffffffffff\n      and\n        /* \".debug/11155111/0x5a877473E776FDE60148ce4Da9ff91cF66296358/contracts/SecretDepository.sol\":8466:8478  mySubmission */\n      dup2\n        /* \".debug/11155111/0x5a877473E776FDE60148ce4Da9ff91cF66296358/contracts/SecretDepository.sol\":8466:8490  mySubmission.depositTime */\n      0x02\n      add\n      sload\n        /* \".debug/11155111/0x5a877473E776FDE60148ce4Da9ff91cF66296358/contracts/SecretDepository.sol\":8492:8504  mySubmission */\n      dup3\n        /* \".debug/11155111/0x5a877473E776FDE60148ce4Da9ff91cF66296358/contracts/SecretDepository.sol\":8492:8514  mySubmission.studentId */\n      0x03\n      add\n        /* \".debug/11155111/0x5a877473E776FDE60148ce4Da9ff91cF66296358/contracts/SecretDepository.sol\":8516:8528  mySubmission */\n      dup4\n        /* \".debug/11155111/0x5a877473E776FDE60148ce4Da9ff91cF66296358/contracts/SecretDepository.sol\":8516:8536  mySubmission.claimed */\n      0x04\n      add\n      0x00\n      swap1\n      sload\n      swap1\n      0x0100\n      exp\n      swap1\n      div\n      0xff\n      and\n        /* \".debug/11155111/0x5a877473E776FDE60148ce4Da9ff91cF66296358/contracts/SecretDepository.sol\":8434:8537  return (mySubmission.depositor, mySubmission.depositTime, mySubmission.studentId, mySubmission.claimed) */\n      dup2\n      dup1\n      sload\n      tag_80\n      swap1\n      tag_81\n      jump\t// in\n    tag_80:\n      dup1\n      0x1f\n      add\n      0x20\n      dup1\n      swap2\n      div\n      mul\n      0x20\n      add\n      mload(0x40)\n      swap1\n      dup2\n      add\n      0x40\n      mstore\n      dup1\n      swap3\n      swap2\n      swap1\n      dup2\n      dup2\n      mstore\n      0x20\n      add\n      dup3\n      dup1\n      sload\n      tag_82\n      swap1\n      tag_81\n      jump\t// in\n    tag_82:\n      dup1\n      iszero\n      tag_83\n      jumpi\n      dup1\n      0x1f\n      lt\n      tag_84\n      jumpi\n      0x0100\n      dup1\n      dup4\n      sload\n      div\n      mul\n      dup4\n      mstore\n      swap2\n      0x20\n      add\n      swap2\n      jump(tag_83)\n    tag_84:\n      dup3\n      add\n      swap2\n      swap1\n      0x00\n      mstore\n      keccak256(0x00, 0x20)\n      swap1\n    tag_85:\n      dup2\n      sload\n      dup2\n      mstore\n      swap1\n      0x01\n      add\n      swap1\n      0x20\n      add\n      dup1\n      dup4\n      gt\n      tag_85\n      jumpi\n      dup3\n      swap1\n      sub\n      0x1f\n      and\n      dup3\n      add\n      swap2\n    tag_83:\n      pop\n      pop\n      pop\n      pop\n      pop\n      swap2\n      pop\n      swap6\n      pop\n      swap6\n      pop\n      swap6\n      pop\n      swap6\n      pop\n      pop\n      pop\n        /* \".debug/11155111/0x5a877473E776FDE60148ce4Da9ff91cF66296358/contracts/SecretDepository.sol\":7989:8544  function checkMySubmissionStatus() public view returns (address depositor, uint256 depositTime, string memory studentId, bool isClaimed) {... */\n    tag_78:\n      swap1\n      swap2\n      swap3\n      swap4\n      jump\t// out\n        /* \".debug/11155111/0x5a877473E776FDE60148ce4Da9ff91cF66296358/contracts/SecretDepository.sol\":6304:7477  function claimAndRetrieve(string calldata password) public returns (string memory) {... */\n    tag_38:\n        /* \".debug/11155111/0x5a877473E776FDE60148ce4Da9ff91cF66296358/contracts/SecretDepository.sol\":6372:6385  string memory */\n      0x60\n        /* \".debug/11155111/0x5a877473E776FDE60148ce4Da9ff91cF66296358/contracts/SecretDepository.sol\":6469:6484  bytes32 keyHash */\n      0x00\n        /* \".debug/11155111/0x5a877473E776FDE60148ce4Da9ff91cF66296358/contracts/SecretDepository.sol\":6514:6522  password */\n      dup4\n      dup4\n        /* \".debug/11155111/0x5a877473E776FDE60148ce4Da9ff91cF66296358/contracts/SecretDepository.sol\":6497:6523  abi.encodePacked(password) */\n      add(0x20, mload(0x40))\n      tag_87\n      swap3\n      swap2\n      swap1\n      tag_88\n      jump\t// in\n    tag_87:\n      mload(0x40)\n      0x20\n      dup2\n      dup4\n      sub\n      sub\n      dup2\n      mstore\n      swap1\n      0x40\n      mstore\n        /* \".debug/11155111/0x5a877473E776FDE60148ce4Da9ff91cF66296358/contracts/SecretDepository.sol\":6487:6524  keccak256(abi.encodePacked(password)) */\n      dup1\n      mload\n      swap1\n      0x20\n      add\n      keccak256\n        /* \".debug/11155111/0x5a877473E776FDE60148ce4Da9ff91cF66296358/contracts/SecretDepository.sol\":6469:6524  bytes32 keyHash = keccak256(abi.encodePacked(password)) */\n      swap1\n      pop\n        /* \".debug/11155111/0x5a877473E776FDE60148ce4Da9ff91cF66296358/contracts/SecretDepository.sol\":6607:6638  Submission storage mySubmission */\n      0x00\n        /* \".debug/11155111/0x5a877473E776FDE60148ce4Da9ff91cF66296358/contracts/SecretDepository.sol\":6641:6652  submissions */\n      0x01\n        /* \".debug/11155111/0x5a877473E776FDE60148ce4Da9ff91cF66296358/contracts/SecretDepository.sol\":6641:6661  submissions[keyHash] */\n      0x00\n        /* \".debug/11155111/0x5a877473E776FDE60148ce4Da9ff91cF66296358/contracts/SecretDepository.sol\":6653:6660  keyHash */\n      dup4\n        /* \".debug/11155111/0x5a877473E776FDE60148ce4Da9ff91cF66296358/contracts/SecretDepository.sol\":6641:6661  submissions[keyHash] */\n      dup2\n      mstore\n      0x20\n      add\n      swap1\n      dup2\n      mstore\n      0x20\n      add\n      0x00\n      keccak256\n        /* \".debug/11155111/0x5a877473E776FDE60148ce4Da9ff91cF66296358/contracts/SecretDepository.sol\":6607:6661  Submission storage mySubmission = submissions[keyHash] */\n      swap1\n      pop\n        /* \".debug/11155111/0x5a877473E776FDE60148ce4Da9ff91cF66296358/contracts/SecretDepository.sol\":6793:6794  0 */\n      0x00\n        /* \".debug/11155111/0x5a877473E776FDE60148ce4Da9ff91cF66296358/contracts/SecretDepository.sol\":6766:6778  mySubmission */\n      dup2\n        /* \".debug/11155111/0x5a877473E776FDE60148ce4Da9ff91cF66296358/contracts/SecretDepository.sol\":6766:6790  mySubmission.depositTime */\n      0x02\n      add\n      sload\n        /* \".debug/11155111/0x5a877473E776FDE60148ce4Da9ff91cF66296358/contracts/SecretDepository.sol\":6766:6794  mySubmission.depositTime > 0 */\n      gt\n        /* \".debug/11155111/0x5a877473E776FDE60148ce4Da9ff91cF66296358/contracts/SecretDepository.sol\":6758:6836  require(mySubmission.depositTime > 0, \"No submission found for this password\") */\n      tag_89\n      jumpi\n      mload(0x40)\n      0x08c379a000000000000000000000000000000000000000000000000000000000\n      dup2\n      mstore\n      0x04\n      add\n      tag_90\n      swap1\n      tag_91\n      jump\t// in\n    tag_90:\n      mload(0x40)\n      dup1\n      swap2\n      sub\n      swap1\n      revert\n    tag_89:\n        /* \".debug/11155111/0x5a877473E776FDE60148ce4Da9ff91cF66296358/contracts/SecretDepository.sol\":6880:6890  msg.sender */\n      caller\n        /* \".debug/11155111/0x5a877473E776FDE60148ce4Da9ff91cF66296358/contracts/SecretDepository.sol\":6854:6890  mySubmission.depositor == msg.sender */\n      0xffffffffffffffffffffffffffffffffffffffff\n      and\n        /* \".debug/11155111/0x5a877473E776FDE60148ce4Da9ff91cF66296358/contracts/SecretDepository.sol\":6854:6866  mySubmission */\n      dup2\n        /* \".debug/11155111/0x5a877473E776FDE60148ce4Da9ff91cF66296358/contracts/SecretDepository.sol\":6854:6876  mySubmission.depositor */\n      0x01\n      add\n      0x00\n      swap1\n      sload\n      swap1\n      0x0100\n      exp\n      swap1\n      div\n      0xffffffffffffffffffffffffffffffffffffffff\n      and\n        /* \".debug/11155111/0x5a877473E776FDE60148ce4Da9ff91cF66296358/contracts/SecretDepository.sol\":6854:6890  mySubmission.depositor == msg.sender */\n      0xffffffffffffffffffffffffffffffffffffffff\n      and\n      eq\n        /* \".debug/11155111/0x5a877473E776FDE60148ce4Da9ff91cF66296358/contracts/SecretDepository.sol\":6846:6935  require(mySubmission.depositor == msg.sender, \"You are not the owner of this submission\") */\n      tag_92\n      jumpi\n      mload(0x40)\n      0x08c379a000000000000000000000000000000000000000000000000000000000\n      dup2\n      mstore\n      0x04\n      add\n      tag_93\n      swap1\n      tag_94\n      jump\t// in\n    tag_93:\n      mload(0x40)\n      dup1\n      swap2\n      sub\n      swap1\n      revert\n    tag_92:\n        /* \".debug/11155111/0x5a877473E776FDE60148ce4Da9ff91cF66296358/contracts/SecretDepository.sol\":1168:1177  2 minutes */\n      0x78\n        /* \".debug/11155111/0x5a877473E776FDE60148ce4Da9ff91cF66296358/contracts/SecretDepository.sol\":6972:6984  mySubmission */\n      dup2\n        /* \".debug/11155111/0x5a877473E776FDE60148ce4Da9ff91cF66296358/contracts/SecretDepository.sol\":6972:6996  mySubmission.depositTime */\n      0x02\n      add\n      sload\n        /* \".debug/11155111/0x5a877473E776FDE60148ce4Da9ff91cF66296358/contracts/SecretDepository.sol\":6972:7016  mySubmission.depositTime + MIN_LOCK_DURATION */\n      tag_95\n      swap2\n      swap1\n      tag_96\n      jump\t// in\n    tag_95:\n        /* \".debug/11155111/0x5a877473E776FDE60148ce4Da9ff91cF66296358/contracts/SecretDepository.sol\":6953:6968  block.timestamp */\n      timestamp\n        /* \".debug/11155111/0x5a877473E776FDE60148ce4Da9ff91cF66296358/contracts/SecretDepository.sol\":6953:7016  block.timestamp >= mySubmission.depositTime + MIN_LOCK_DURATION */\n      lt\n      iszero\n        /* \".debug/11155111/0x5a877473E776FDE60148ce4Da9ff91cF66296358/contracts/SecretDepository.sol\":6945:7046  require(block.timestamp >= mySubmission.depositTime + MIN_LOCK_DURATION, \"Time lock has not expired\") */\n      tag_97\n      jumpi\n      mload(0x40)\n      0x08c379a000000000000000000000000000000000000000000000000000000000\n      dup2\n      mstore\n      0x04\n      add\n      tag_98\n      swap1\n      tag_99\n      jump\t// in\n    tag_98:\n      mload(0x40)\n      dup1\n      swap2\n      sub\n      swap1\n      revert\n    tag_97:\n        /* \".debug/11155111/0x5a877473E776FDE60148ce4Da9ff91cF66296358/contracts/SecretDepository.sol\":7065:7077  mySubmission */\n      dup1\n        /* \".debug/11155111/0x5a877473E776FDE60148ce4Da9ff91cF66296358/contracts/SecretDepository.sol\":7065:7085  mySubmission.claimed */\n      0x04\n      add\n      0x00\n      swap1\n      sload\n      swap1\n      0x0100\n      exp\n      swap1\n      div\n      0xff\n      and\n        /* \".debug/11155111/0x5a877473E776FDE60148ce4Da9ff91cF66296358/contracts/SecretDepository.sol\":7064:7085  !mySubmission.claimed */\n      iszero\n        /* \".debug/11155111/0x5a877473E776FDE60148ce4Da9ff91cF66296358/contracts/SecretDepository.sol\":7056:7125  require(!mySubmission.claimed, \"Submission has already been claimed\") */\n      tag_100\n      jumpi\n      mload(0x40)\n      0x08c379a000000000000000000000000000000000000000000000000000000000\n      dup2\n      mstore\n      0x04\n      add\n      tag_101\n      swap1\n      tag_102\n      jump\t// in\n    tag_101:\n      mload(0x40)\n      dup1\n      swap2\n      sub\n      swap1\n      revert\n    tag_100:\n        /* \".debug/11155111/0x5a877473E776FDE60148ce4Da9ff91cF66296358/contracts/SecretDepository.sol\":7217:7221  true */\n      0x01\n        /* \".debug/11155111/0x5a877473E776FDE60148ce4Da9ff91cF66296358/contracts/SecretDepository.sol\":7194:7206  mySubmission */\n      dup2\n        /* \".debug/11155111/0x5a877473E776FDE60148ce4Da9ff91cF66296358/contracts/SecretDepository.sol\":7194:7214  mySubmission.claimed */\n      0x04\n      add\n      0x00\n        /* \".debug/11155111/0x5a877473E776FDE60148ce4Da9ff91cF66296358/contracts/SecretDepository.sol\":7194:7221  mySubmission.claimed = true */\n      0x0100\n      exp\n      dup2\n      sload\n      dup2\n      0xff\n      mul\n      not\n      and\n      swap1\n      dup4\n      iszero\n      iszero\n      mul\n      or\n      swap1\n      sstore\n      pop\n        /* \".debug/11155111/0x5a877473E776FDE60148ce4Da9ff91cF66296358/contracts/SecretDepository.sol\":7364:7371  keyHash */\n      dup2\n        /* \".debug/11155111/0x5a877473E776FDE60148ce4Da9ff91cF66296358/contracts/SecretDepository.sol\":7340:7352  mySubmission */\n      dup2\n        /* \".debug/11155111/0x5a877473E776FDE60148ce4Da9ff91cF66296358/contracts/SecretDepository.sol\":7340:7362  mySubmission.studentId */\n      0x03\n      add\n        /* \".debug/11155111/0x5a877473E776FDE60148ce4Da9ff91cF66296358/contracts/SecretDepository.sol\":7310:7372  SubmissionClaimed(msg.sender, mySubmission.studentId, keyHash) */\n      mload(0x40)\n      tag_103\n      swap2\n      swap1\n      tag_104\n      jump\t// in\n    tag_103:\n      mload(0x40)\n      dup1\n      swap2\n      sub\n      swap1\n      keccak256\n        /* \".debug/11155111/0x5a877473E776FDE60148ce4Da9ff91cF66296358/contracts/SecretDepository.sol\":7328:7338  msg.sender */\n      caller\n        /* \".debug/11155111/0x5a877473E776FDE60148ce4Da9ff91cF66296358/contracts/SecretDepository.sol\":7310:7372  SubmissionClaimed(msg.sender, mySubmission.studentId, keyHash) */\n      0xffffffffffffffffffffffffffffffffffffffff\n      and\n      0x1137feff3c3d986900522fcd8773e9b0e87acea41789cec1e54d173bfff91965\n      mload(0x40)\n      mload(0x40)\n      dup1\n      swap2\n      sub\n      swap1\n      log4\n        /* \".debug/11155111/0x5a877473E776FDE60148ce4Da9ff91cF66296358/contracts/SecretDepository.sol\":7444:7456  mySubmission */\n      dup1\n        /* \".debug/11155111/0x5a877473E776FDE60148ce4Da9ff91cF66296358/contracts/SecretDepository.sol\":7444:7470  mySubmission.secretMessage */\n      0x00\n      add\n        /* \".debug/11155111/0x5a877473E776FDE60148ce4Da9ff91cF66296358/contracts/SecretDepository.sol\":7437:7470  return mySubmission.secretMessage */\n      dup1\n      sload\n      tag_105\n      swap1\n      tag_81\n      jump\t// in\n    tag_105:\n      dup1\n      0x1f\n      add\n      0x20\n      dup1\n      swap2\n      div\n      mul\n      0x20\n      add\n      mload(0x40)\n      swap1\n      dup2\n      add\n      0x40\n      mstore\n      dup1\n      swap3\n      swap2\n      swap1\n      dup2\n      dup2\n      mstore\n      0x20\n      add\n      dup3\n      dup1\n      sload\n      tag_106\n      swap1\n      tag_81\n      jump\t// in\n    tag_106:\n      dup1\n      iszero\n      tag_107\n      jumpi\n      dup1\n      0x1f\n      lt\n      tag_108\n      jumpi\n      0x0100\n      dup1\n      dup4\n      sload\n      div\n      mul\n      dup4\n      mstore\n      swap2\n      0x20\n      add\n      swap2\n      jump(tag_107)\n    tag_108:\n      dup3\n      add\n      swap2\n      swap1\n      0x00\n      mstore\n      keccak256(0x00, 0x20)\n      swap1\n    tag_109:\n      dup2\n      sload\n      dup2\n      mstore\n      swap1\n      0x01\n      add\n      swap1\n      0x20\n      add\n      dup1\n      dup4\n      gt\n      tag_109\n      jumpi\n      dup3\n      swap1\n      sub\n      0x1f\n      and\n      dup3\n      add\n      swap2\n    tag_107:\n      pop\n      pop\n      pop\n      pop\n      pop\n      swap3\n      pop\n      pop\n      pop\n        /* \".debug/11155111/0x5a877473E776FDE60148ce4Da9ff91cF66296358/contracts/SecretDepository.sol\":6304:7477  function claimAndRetrieve(string calldata password) public returns (string memory) {... */\n      swap3\n      swap2\n      pop\n      pop\n      jump\t// out\n        /* \".debug/11155111/0x5a877473E776FDE60148ce4Da9ff91cF66296358/contracts/SecretDepository.sol\":8976:9521  function getSubmissionStatus(string calldata studentId) public view onlyOwner returns (address depositor, uint256 depositTime, bool isClaimed) {... */\n    tag_44:\n        /* \".debug/11155111/0x5a877473E776FDE60148ce4Da9ff91cF66296358/contracts/SecretDepository.sol\":9063:9080  address depositor */\n      0x00\n        /* \".debug/11155111/0x5a877473E776FDE60148ce4Da9ff91cF66296358/contracts/SecretDepository.sol\":9082:9101  uint256 depositTime */\n      0x00\n        /* \".debug/11155111/0x5a877473E776FDE60148ce4Da9ff91cF66296358/contracts/SecretDepository.sol\":9103:9117  bool isClaimed */\n      0x00\n        /* \".debug/11155111/0x5a877473E776FDE60148ce4Da9ff91cF66296358/contracts/SecretDepository.sol\":3488:3493  owner */\n      0x00\n      0x00\n      swap1\n      sload\n      swap1\n      0x0100\n      exp\n      swap1\n      div\n      0xffffffffffffffffffffffffffffffffffffffff\n      and\n        /* \".debug/11155111/0x5a877473E776FDE60148ce4Da9ff91cF66296358/contracts/SecretDepository.sol\":3474:3493  msg.sender == owner */\n      0xffffffffffffffffffffffffffffffffffffffff\n      and\n        /* \".debug/11155111/0x5a877473E776FDE60148ce4Da9ff91cF66296358/contracts/SecretDepository.sol\":3474:3484  msg.sender */\n      caller\n        /* \".debug/11155111/0x5a877473E776FDE60148ce4Da9ff91cF66296358/contracts/SecretDepository.sol\":3474:3493  msg.sender == owner */\n      0xffffffffffffffffffffffffffffffffffffffff\n      and\n      eq\n        /* \".debug/11155111/0x5a877473E776FDE60148ce4Da9ff91cF66296358/contracts/SecretDepository.sol\":3466:3521  require(msg.sender == owner, \"Caller is not the owner\") */\n      tag_111\n      jumpi\n      mload(0x40)\n      0x08c379a000000000000000000000000000000000000000000000000000000000\n      dup2\n      mstore\n      0x04\n      add\n      tag_112\n      swap1\n      tag_68\n      jump\t// in\n    tag_112:\n      mload(0x40)\n      dup1\n      swap2\n      sub\n      swap1\n      revert\n    tag_111:\n        /* \".debug/11155111/0x5a877473E776FDE60148ce4Da9ff91cF66296358/contracts/SecretDepository.sol\":9129:9144  bytes32 keyHash */\n      0x00\n        /* \".debug/11155111/0x5a877473E776FDE60148ce4Da9ff91cF66296358/contracts/SecretDepository.sol\":9147:9165  studentIdToKeyHash */\n      0x02\n        /* \".debug/11155111/0x5a877473E776FDE60148ce4Da9ff91cF66296358/contracts/SecretDepository.sol\":9166:9175  studentId */\n      dup7\n      dup7\n        /* \".debug/11155111/0x5a877473E776FDE60148ce4Da9ff91cF66296358/contracts/SecretDepository.sol\":9147:9176  studentIdToKeyHash[studentId] */\n      mload(0x40)\n      tag_114\n      swap3\n      swap2\n      swap1\n      tag_88\n      jump\t// in\n    tag_114:\n      swap1\n      dup2\n      mstore\n      0x20\n      add\n      mload(0x40)\n      dup1\n      swap2\n      sub\n      swap1\n      keccak256\n      sload\n        /* \".debug/11155111/0x5a877473E776FDE60148ce4Da9ff91cF66296358/contracts/SecretDepository.sol\":9129:9176  bytes32 keyHash = studentIdToKeyHash[studentId] */\n      swap1\n      pop\n        /* \".debug/11155111/0x5a877473E776FDE60148ce4Da9ff91cF66296358/contracts/SecretDepository.sol\":9285:9286  0 */\n      0x00\n        /* \".debug/11155111/0x5a877473E776FDE60148ce4Da9ff91cF66296358/contracts/SecretDepository.sol\":9274:9286  keyHash == 0 */\n      0x00\n      shl\n        /* \".debug/11155111/0x5a877473E776FDE60148ce4Da9ff91cF66296358/contracts/SecretDepository.sol\":9274:9281  keyHash */\n      dup2\n        /* \".debug/11155111/0x5a877473E776FDE60148ce4Da9ff91cF66296358/contracts/SecretDepository.sol\":9274:9286  keyHash == 0 */\n      sub\n        /* \".debug/11155111/0x5a877473E776FDE60148ce4Da9ff91cF66296358/contracts/SecretDepository.sol\":9270:9342  if (keyHash == 0) {... */\n      tag_115\n      jumpi\n        /* \".debug/11155111/0x5a877473E776FDE60148ce4Da9ff91cF66296358/contracts/SecretDepository.sol\":9318:9319  0 */\n      0x00\n        /* \".debug/11155111/0x5a877473E776FDE60148ce4Da9ff91cF66296358/contracts/SecretDepository.sol\":9322:9323  0 */\n      0x00\n        /* \".debug/11155111/0x5a877473E776FDE60148ce4Da9ff91cF66296358/contracts/SecretDepository.sol\":9325:9330  false */\n      0x00\n        /* \".debug/11155111/0x5a877473E776FDE60148ce4Da9ff91cF66296358/contracts/SecretDepository.sol\":9302:9331  return (address(0), 0, false) */\n      swap4\n      pop\n      swap4\n      pop\n      swap4\n      pop\n      pop\n      jump(tag_113)\n        /* \".debug/11155111/0x5a877473E776FDE60148ce4Da9ff91cF66296358/contracts/SecretDepository.sol\":9270:9342  if (keyHash == 0) {... */\n    tag_115:\n        /* \".debug/11155111/0x5a877473E776FDE60148ce4Da9ff91cF66296358/contracts/SecretDepository.sol\":9351:9387  Submission storage studentSubmission */\n      0x00\n        /* \".debug/11155111/0x5a877473E776FDE60148ce4Da9ff91cF66296358/contracts/SecretDepository.sol\":9390:9401  submissions */\n      0x01\n        /* \".debug/11155111/0x5a877473E776FDE60148ce4Da9ff91cF66296358/contracts/SecretDepository.sol\":9390:9410  submissions[keyHash] */\n      0x00\n        /* \".debug/11155111/0x5a877473E776FDE60148ce4Da9ff91cF66296358/contracts/SecretDepository.sol\":9402:9409  keyHash */\n      dup4\n        /* \".debug/11155111/0x5a877473E776FDE60148ce4Da9ff91cF66296358/contracts/SecretDepository.sol\":9390:9410  submissions[keyHash] */\n      dup2\n      mstore\n      0x20\n      add\n      swap1\n      dup2\n      mstore\n      0x20\n      add\n      0x00\n      keccak256\n        /* \".debug/11155111/0x5a877473E776FDE60148ce4Da9ff91cF66296358/contracts/SecretDepository.sol\":9351:9410  Submission storage studentSubmission = submissions[keyHash] */\n      swap1\n      pop\n        /* \".debug/11155111/0x5a877473E776FDE60148ce4Da9ff91cF66296358/contracts/SecretDepository.sol\":9428:9445  studentSubmission */\n      dup1\n        /* \".debug/11155111/0x5a877473E776FDE60148ce4Da9ff91cF66296358/contracts/SecretDepository.sol\":9428:9455  studentSubmission.depositor */\n      0x01\n      add\n      0x00\n      swap1\n      sload\n      swap1\n      0x0100\n      exp\n      swap1\n      div\n      0xffffffffffffffffffffffffffffffffffffffff\n      and\n        /* \".debug/11155111/0x5a877473E776FDE60148ce4Da9ff91cF66296358/contracts/SecretDepository.sol\":9457:9474  studentSubmission */\n      dup2\n        /* \".debug/11155111/0x5a877473E776FDE60148ce4Da9ff91cF66296358/contracts/SecretDepository.sol\":9457:9486  studentSubmission.depositTime */\n      0x02\n      add\n      sload\n        /* \".debug/11155111/0x5a877473E776FDE60148ce4Da9ff91cF66296358/contracts/SecretDepository.sol\":9488:9505  studentSubmission */\n      dup3\n        /* \".debug/11155111/0x5a877473E776FDE60148ce4Da9ff91cF66296358/contracts/SecretDepository.sol\":9488:9513  studentSubmission.claimed */\n      0x04\n      add\n      0x00\n      swap1\n      sload\n      swap1\n      0x0100\n      exp\n      swap1\n      div\n      0xff\n      and\n        /* \".debug/11155111/0x5a877473E776FDE60148ce4Da9ff91cF66296358/contracts/SecretDepository.sol\":9420:9514  return (studentSubmission.depositor, studentSubmission.depositTime, studentSubmission.claimed) */\n      swap5\n      pop\n      swap5\n      pop\n      swap5\n      pop\n      pop\n      pop\n        /* \".debug/11155111/0x5a877473E776FDE60148ce4Da9ff91cF66296358/contracts/SecretDepository.sol\":3531:3532  _ */\n    tag_113:\n        /* \".debug/11155111/0x5a877473E776FDE60148ce4Da9ff91cF66296358/contracts/SecretDepository.sol\":8976:9521  function getSubmissionStatus(string calldata studentId) public view onlyOwner returns (address depositor, uint256 depositTime, bool isClaimed) {... */\n      swap3\n      pop\n      swap3\n      pop\n      swap3\n      jump\t// out\n        /* \".debug/11155111/0x5a877473E776FDE60148ce4Da9ff91cF66296358/contracts/SecretDepository.sol\":1124:1177  uint256 public constant MIN_LOCK_DURATION = 2 minutes */\n    tag_49:\n        /* \".debug/11155111/0x5a877473E776FDE60148ce4Da9ff91cF66296358/contracts/SecretDepository.sol\":1168:1177  2 minutes */\n      0x78\n        /* \".debug/11155111/0x5a877473E776FDE60148ce4Da9ff91cF66296358/contracts/SecretDepository.sol\":1124:1177  uint256 public constant MIN_LOCK_DURATION = 2 minutes */\n      dup2\n      jump\t// out\n        /* \".debug/11155111/0x5a877473E776FDE60148ce4Da9ff91cF66296358/contracts/SecretDepository.sol\":808:828  address public owner */\n    tag_54:\n      0x00\n      0x00\n      swap1\n      sload\n      swap1\n      0x0100\n      exp\n      swap1\n      div\n      0xffffffffffffffffffffffffffffffffffffffff\n      and\n      dup2\n      jump\t// out\n        /* \".debug/11155111/0x5a877473E776FDE60148ce4Da9ff91cF66296358/contracts/SecretDepository.sol\":4351:5829  function deposit(bytes32 keyHash, string calldata secretMessage, string calldata studentId) public payable {... */\n    tag_60:\n        /* \".debug/11155111/0x5a877473E776FDE60148ce4Da9ff91cF66296358/contracts/SecretDepository.sol\":955:966  0.001 ether */\n      0x038d7ea4c68000\n        /* \".debug/11155111/0x5a877473E776FDE60148ce4Da9ff91cF66296358/contracts/SecretDepository.sol\":4631:4640  msg.value */\n      callvalue\n        /* \".debug/11155111/0x5a877473E776FDE60148ce4Da9ff91cF66296358/contracts/SecretDepository.sol\":4631:4655  msg.value == DEPOSIT_FEE */\n      eq\n        /* \".debug/11155111/0x5a877473E776FDE60148ce4Da9ff91cF66296358/contracts/SecretDepository.sol\":4623:4686  require(msg.value == DEPOSIT_FEE, \"Incorrect deposit fee sent\") */\n      tag_117\n      jumpi\n      mload(0x40)\n      0x08c379a000000000000000000000000000000000000000000000000000000000\n      dup2\n      mstore\n      0x04\n      add\n      tag_118\n      swap1\n      tag_119\n      jump\t// in\n    tag_118:\n      mload(0x40)\n      dup1\n      swap2\n      sub\n      swap1\n      revert\n    tag_117:\n        /* \".debug/11155111/0x5a877473E776FDE60148ce4Da9ff91cF66296358/contracts/SecretDepository.sol\":4730:4731  0 */\n      0x00\n        /* \".debug/11155111/0x5a877473E776FDE60148ce4Da9ff91cF66296358/contracts/SecretDepository.sol\":4710:4719  studentId */\n      dup3\n      dup3\n        /* \".debug/11155111/0x5a877473E776FDE60148ce4Da9ff91cF66296358/contracts/SecretDepository.sol\":4704:4727  bytes(studentId).length */\n      swap1\n      pop\n        /* \".debug/11155111/0x5a877473E776FDE60148ce4Da9ff91cF66296358/contracts/SecretDepository.sol\":4704:4731  bytes(studentId).length > 0 */\n      gt\n        /* \".debug/11155111/0x5a877473E776FDE60148ce4Da9ff91cF66296358/contracts/SecretDepository.sol\":4696:4762  require(bytes(studentId).length > 0, \"Student ID cannot be empty\") */\n      tag_120\n      jumpi\n      mload(0x40)\n      0x08c379a000000000000000000000000000000000000000000000000000000000\n      dup2\n      mstore\n      0x04\n      add\n      tag_121\n      swap1\n      tag_122\n      jump\t// in\n    tag_121:\n      mload(0x40)\n      dup1\n      swap2\n      sub\n      swap1\n      revert\n    tag_120:\n        /* \".debug/11155111/0x5a877473E776FDE60148ce4Da9ff91cF66296358/contracts/SecretDepository.sol\":4816:4817  0 */\n      0x00\n        /* \".debug/11155111/0x5a877473E776FDE60148ce4Da9ff91cF66296358/contracts/SecretDepository.sol\":4780:4791  submissions */\n      0x01\n        /* \".debug/11155111/0x5a877473E776FDE60148ce4Da9ff91cF66296358/contracts/SecretDepository.sol\":4780:4800  submissions[keyHash] */\n      0x00\n        /* \".debug/11155111/0x5a877473E776FDE60148ce4Da9ff91cF66296358/contracts/SecretDepository.sol\":4792:4799  keyHash */\n      dup8\n        /* \".debug/11155111/0x5a877473E776FDE60148ce4Da9ff91cF66296358/contracts/SecretDepository.sol\":4780:4800  submissions[keyHash] */\n      dup2\n      mstore\n      0x20\n      add\n      swap1\n      dup2\n      mstore\n      0x20\n      add\n      0x00\n      keccak256\n        /* \".debug/11155111/0x5a877473E776FDE60148ce4Da9ff91cF66296358/contracts/SecretDepository.sol\":4780:4812  submissions[keyHash].depositTime */\n      0x02\n      add\n      sload\n        /* \".debug/11155111/0x5a877473E776FDE60148ce4Da9ff91cF66296358/contracts/SecretDepository.sol\":4780:4817  submissions[keyHash].depositTime == 0 */\n      eq\n        /* \".debug/11155111/0x5a877473E776FDE60148ce4Da9ff91cF66296358/contracts/SecretDepository.sol\":4772:4857  require(submissions[keyHash].depositTime == 0, \"This password has already been used\") */\n      tag_123\n      jumpi\n      mload(0x40)\n      0x08c379a000000000000000000000000000000000000000000000000000000000\n      dup2\n      mstore\n      0x04\n      add\n      tag_124\n      swap1\n      tag_125\n      jump\t// in\n    tag_124:\n      mload(0x40)\n      dup1\n      swap2\n      sub\n      swap1\n      revert\n    tag_123:\n        /* \".debug/11155111/0x5a877473E776FDE60148ce4Da9ff91cF66296358/contracts/SecretDepository.sol\":4908:4909  0 */\n      0x00\n        /* \".debug/11155111/0x5a877473E776FDE60148ce4Da9ff91cF66296358/contracts/SecretDepository.sol\":4875:4909  studentIdToKeyHash[studentId] == 0 */\n      0x00\n      shl\n        /* \".debug/11155111/0x5a877473E776FDE60148ce4Da9ff91cF66296358/contracts/SecretDepository.sol\":4875:4893  studentIdToKeyHash */\n      0x02\n        /* \".debug/11155111/0x5a877473E776FDE60148ce4Da9ff91cF66296358/contracts/SecretDepository.sol\":4894:4903  studentId */\n      dup4\n      dup4\n        /* \".debug/11155111/0x5a877473E776FDE60148ce4Da9ff91cF66296358/contracts/SecretDepository.sol\":4875:4904  studentIdToKeyHash[studentId] */\n      mload(0x40)\n      tag_126\n      swap3\n      swap2\n      swap1\n      tag_88\n      jump\t// in\n    tag_126:\n      swap1\n      dup2\n      mstore\n      0x20\n      add\n      mload(0x40)\n      dup1\n      swap2\n      sub\n      swap1\n      keccak256\n      sload\n        /* \".debug/11155111/0x5a877473E776FDE60148ce4Da9ff91cF66296358/contracts/SecretDepository.sol\":4875:4909  studentIdToKeyHash[studentId] == 0 */\n      eq\n        /* \".debug/11155111/0x5a877473E776FDE60148ce4Da9ff91cF66296358/contracts/SecretDepository.sol\":4867:4956  require(studentIdToKeyHash[studentId] == 0, \"This student ID has already been submitted\") */\n      tag_127\n      jumpi\n      mload(0x40)\n      0x08c379a000000000000000000000000000000000000000000000000000000000\n      dup2\n      mstore\n      0x04\n      add\n      tag_128\n      swap1\n      tag_129\n      jump\t// in\n    tag_128:\n      mload(0x40)\n      dup1\n      swap2\n      sub\n      swap1\n      revert\n    tag_127:\n        /* \".debug/11155111/0x5a877473E776FDE60148ce4Da9ff91cF66296358/contracts/SecretDepository.sol\":5008:5009  0 */\n      0x00\n        /* \".debug/11155111/0x5a877473E776FDE60148ce4Da9ff91cF66296358/contracts/SecretDepository.sol\":4974:5009  depositorToKeyHash[msg.sender] == 0 */\n      0x00\n      shl\n        /* \".debug/11155111/0x5a877473E776FDE60148ce4Da9ff91cF66296358/contracts/SecretDepository.sol\":4974:4992  depositorToKeyHash */\n      0x03\n        /* \".debug/11155111/0x5a877473E776FDE60148ce4Da9ff91cF66296358/contracts/SecretDepository.sol\":4974:5004  depositorToKeyHash[msg.sender] */\n      0x00\n        /* \".debug/11155111/0x5a877473E776FDE60148ce4Da9ff91cF66296358/contracts/SecretDepository.sol\":4993:5003  msg.sender */\n      caller\n        /* \".debug/11155111/0x5a877473E776FDE60148ce4Da9ff91cF66296358/contracts/SecretDepository.sol\":4974:5004  depositorToKeyHash[msg.sender] */\n      0xffffffffffffffffffffffffffffffffffffffff\n      and\n      0xffffffffffffffffffffffffffffffffffffffff\n      and\n      dup2\n      mstore\n      0x20\n      add\n      swap1\n      dup2\n      mstore\n      0x20\n      add\n      0x00\n      keccak256\n      sload\n        /* \".debug/11155111/0x5a877473E776FDE60148ce4Da9ff91cF66296358/contracts/SecretDepository.sol\":4974:5009  depositorToKeyHash[msg.sender] == 0 */\n      eq\n        /* \".debug/11155111/0x5a877473E776FDE60148ce4Da9ff91cF66296358/contracts/SecretDepository.sol\":4966:5048  require(depositorToKeyHash[msg.sender] == 0, \"This address has already submitted\") */\n      tag_130\n      jumpi\n      mload(0x40)\n      0x08c379a000000000000000000000000000000000000000000000000000000000\n      dup2\n      mstore\n      0x04\n      add\n      tag_131\n      swap1\n      tag_132\n      jump\t// in\n    tag_131:\n      mload(0x40)\n      dup1\n      swap2\n      sub\n      swap1\n      revert\n    tag_130:\n        /* \".debug/11155111/0x5a877473E776FDE60148ce4Da9ff91cF66296358/contracts/SecretDepository.sol\":5199:5402  Submission({... */\n      mload(0x40)\n      dup1\n      0xa0\n      add\n      0x40\n      mstore\n      dup1\n        /* \".debug/11155111/0x5a877473E776FDE60148ce4Da9ff91cF66296358/contracts/SecretDepository.sol\":5239:5252  secretMessage */\n      dup6\n      dup6\n        /* \".debug/11155111/0x5a877473E776FDE60148ce4Da9ff91cF66296358/contracts/SecretDepository.sol\":5199:5402  Submission({... */\n      dup1\n      dup1\n      0x1f\n      add\n      0x20\n      dup1\n      swap2\n      div\n      mul\n      0x20\n      add\n      mload(0x40)\n      swap1\n      dup2\n      add\n      0x40\n      mstore\n      dup1\n      swap4\n      swap3\n      swap2\n      swap1\n      dup2\n      dup2\n      mstore\n      0x20\n      add\n      dup4\n      dup4\n      dup1\n      dup3\n      dup5\n      calldatacopy\n      0x00\n      dup2\n      dup5\n      add\n      mstore\n      not(0x1f)\n      0x1f\n      dup3\n      add\n      and\n      swap1\n      pop\n      dup1\n      dup4\n      add\n      swap3\n      pop\n      pop\n      pop\n      pop\n      pop\n      pop\n      pop\n      dup2\n      mstore\n      0x20\n      add\n        /* \".debug/11155111/0x5a877473E776FDE60148ce4Da9ff91cF66296358/contracts/SecretDepository.sol\":5277:5287  msg.sender */\n      caller\n        /* \".debug/11155111/0x5a877473E776FDE60148ce4Da9ff91cF66296358/contracts/SecretDepository.sol\":5199:5402  Submission({... */\n      0xffffffffffffffffffffffffffffffffffffffff\n      and\n      dup2\n      mstore\n      0x20\n      add\n        /* \".debug/11155111/0x5a877473E776FDE60148ce4Da9ff91cF66296358/contracts/SecretDepository.sol\":5314:5329  block.timestamp */\n      timestamp\n        /* \".debug/11155111/0x5a877473E776FDE60148ce4Da9ff91cF66296358/contracts/SecretDepository.sol\":5199:5402  Submission({... */\n      dup2\n      mstore\n      0x20\n      add\n        /* \".debug/11155111/0x5a877473E776FDE60148ce4Da9ff91cF66296358/contracts/SecretDepository.sol\":5354:5363  studentId */\n      dup4\n      dup4\n        /* \".debug/11155111/0x5a877473E776FDE60148ce4Da9ff91cF66296358/contracts/SecretDepository.sol\":5199:5402  Submission({... */\n      dup1\n      dup1\n      0x1f\n      add\n      0x20\n      dup1\n      swap2\n      div\n      mul\n      0x20\n      add\n      mload(0x40)\n      swap1\n      dup2\n      add\n      0x40\n      mstore\n      dup1\n      swap4\n      swap3\n      swap2\n      swap1\n      dup2\n      dup2\n      mstore\n      0x20\n      add\n      dup4\n      dup4\n      dup1\n      dup3\n      dup5\n      calldatacopy\n      0x00\n      dup2\n      dup5\n      add\n      mstore\n      not(0x1f)\n      0x1f\n      dup3\n      add\n      and\n      swap1\n      pop\n      dup1\n      dup4\n      add\n      swap3\n      pop\n      pop\n      pop\n      pop\n      pop\n      pop\n      pop\n      dup2\n      mstore\n      0x20\n      add\n        /* \".debug/11155111/0x5a877473E776FDE60148ce4Da9ff91cF66296358/contracts/SecretDepository.sol\":5386:5391  false */\n      0x00\n        /* \".debug/11155111/0x5a877473E776FDE60148ce4Da9ff91cF66296358/contracts/SecretDepository.sol\":5199:5402  Submission({... */\n      iszero\n      iszero\n      dup2\n      mstore\n      pop\n        /* \".debug/11155111/0x5a877473E776FDE60148ce4Da9ff91cF66296358/contracts/SecretDepository.sol\":5176:5187  submissions */\n      0x01\n        /* \".debug/11155111/0x5a877473E776FDE60148ce4Da9ff91cF66296358/contracts/SecretDepository.sol\":5176:5196  submissions[keyHash] */\n      0x00\n        /* \".debug/11155111/0x5a877473E776FDE60148ce4Da9ff91cF66296358/contracts/SecretDepository.sol\":5188:5195  keyHash */\n      dup8\n        /* \".debug/11155111/0x5a877473E776FDE60148ce4Da9ff91cF66296358/contracts/SecretDepository.sol\":5176:5196  submissions[keyHash] */\n      dup2\n      mstore\n      0x20\n      add\n      swap1\n      dup2\n      mstore\n      0x20\n      add\n      0x00\n      keccak256\n        /* \".debug/11155111/0x5a877473E776FDE60148ce4Da9ff91cF66296358/contracts/SecretDepository.sol\":5176:5402  submissions[keyHash] = Submission({... */\n      0x00\n      dup3\n      add\n      mload\n      dup2\n      0x00\n      add\n      swap1\n      dup2\n      tag_133\n      swap2\n      swap1\n      tag_134\n      jump\t// in\n    tag_133:\n      pop\n      0x20\n      dup3\n      add\n      mload\n      dup2\n      0x01\n      add\n      exp(0x0100, 0x00)\n      dup2\n      sload\n      dup2\n      0xffffffffffffffffffffffffffffffffffffffff\n      mul\n      not\n      and\n      swap1\n      dup4\n      0xffffffffffffffffffffffffffffffffffffffff\n      and\n      mul\n      or\n      swap1\n      sstore\n      pop\n      0x40\n      dup3\n      add\n      mload\n      dup2\n      0x02\n      add\n      sstore\n      0x60\n      dup3\n      add\n      mload\n      dup2\n      0x03\n      add\n      swap1\n      dup2\n      tag_135\n      swap2\n      swap1\n      tag_134\n      jump\t// in\n    tag_135:\n      pop\n      0x80\n      dup3\n      add\n      mload\n      dup2\n      0x04\n      add\n      exp(0x0100, 0x00)\n      dup2\n      sload\n      dup2\n      0xff\n      mul\n      not\n      and\n      swap1\n      dup4\n      iszero\n      iszero\n      mul\n      or\n      swap1\n      sstore\n      pop\n      swap1\n      pop\n      pop\n        /* \".debug/11155111/0x5a877473E776FDE60148ce4Da9ff91cF66296358/contracts/SecretDepository.sol\":5599:5606  keyHash */\n      dup5\n        /* \".debug/11155111/0x5a877473E776FDE60148ce4Da9ff91cF66296358/contracts/SecretDepository.sol\":5567:5585  studentIdToKeyHash */\n      0x02\n        /* \".debug/11155111/0x5a877473E776FDE60148ce4Da9ff91cF66296358/contracts/SecretDepository.sol\":5586:5595  studentId */\n      dup4\n      dup4\n        /* \".debug/11155111/0x5a877473E776FDE60148ce4Da9ff91cF66296358/contracts/SecretDepository.sol\":5567:5596  studentIdToKeyHash[studentId] */\n      mload(0x40)\n      tag_136\n      swap3\n      swap2\n      swap1\n      tag_88\n      jump\t// in\n    tag_136:\n      swap1\n      dup2\n      mstore\n      0x20\n      add\n      mload(0x40)\n      dup1\n      swap2\n      sub\n      swap1\n      keccak256\n        /* \".debug/11155111/0x5a877473E776FDE60148ce4Da9ff91cF66296358/contracts/SecretDepository.sol\":5567:5606  studentIdToKeyHash[studentId] = keyHash */\n      dup2\n      swap1\n      sstore\n      pop\n        /* \".debug/11155111/0x5a877473E776FDE60148ce4Da9ff91cF66296358/contracts/SecretDepository.sol\":5649:5656  keyHash */\n      dup5\n        /* \".debug/11155111/0x5a877473E776FDE60148ce4Da9ff91cF66296358/contracts/SecretDepository.sol\":5616:5634  depositorToKeyHash */\n      0x03\n        /* \".debug/11155111/0x5a877473E776FDE60148ce4Da9ff91cF66296358/contracts/SecretDepository.sol\":5616:5646  depositorToKeyHash[msg.sender] */\n      0x00\n        /* \".debug/11155111/0x5a877473E776FDE60148ce4Da9ff91cF66296358/contracts/SecretDepository.sol\":5635:5645  msg.sender */\n      caller\n        /* \".debug/11155111/0x5a877473E776FDE60148ce4Da9ff91cF66296358/contracts/SecretDepository.sol\":5616:5646  depositorToKeyHash[msg.sender] */\n      0xffffffffffffffffffffffffffffffffffffffff\n      and\n      0xffffffffffffffffffffffffffffffffffffffff\n      and\n      dup2\n      mstore\n      0x20\n      add\n      swap1\n      dup2\n      mstore\n      0x20\n      add\n      0x00\n      keccak256\n        /* \".debug/11155111/0x5a877473E776FDE60148ce4Da9ff91cF66296358/contracts/SecretDepository.sol\":5616:5656  depositorToKeyHash[msg.sender] = keyHash */\n      dup2\n      swap1\n      sstore\n      pop\n        /* \".debug/11155111/0x5a877473E776FDE60148ce4Da9ff91cF66296358/contracts/SecretDepository.sol\":5814:5821  keyHash */\n      dup5\n        /* \".debug/11155111/0x5a877473E776FDE60148ce4Da9ff91cF66296358/contracts/SecretDepository.sol\":5803:5812  studentId */\n      dup3\n      dup3\n        /* \".debug/11155111/0x5a877473E776FDE60148ce4Da9ff91cF66296358/contracts/SecretDepository.sol\":5771:5822  SubmissionDeposited(msg.sender, studentId, keyHash) */\n      mload(0x40)\n      tag_137\n      swap3\n      swap2\n      swap1\n      tag_88\n      jump\t// in\n    tag_137:\n      mload(0x40)\n      dup1\n      swap2\n      sub\n      swap1\n      keccak256\n        /* \".debug/11155111/0x5a877473E776FDE60148ce4Da9ff91cF66296358/contracts/SecretDepository.sol\":5791:5801  msg.sender */\n      caller\n        /* \".debug/11155111/0x5a877473E776FDE60148ce4Da9ff91cF66296358/contracts/SecretDepository.sol\":5771:5822  SubmissionDeposited(msg.sender, studentId, keyHash) */\n      0xffffffffffffffffffffffffffffffffffffffff\n      and\n      0x0cf6434d38fab8f5b263d427590ca3e558332c0b0b884aecdca567fc953ff0b4\n      mload(0x40)\n      mload(0x40)\n      dup1\n      swap2\n      sub\n      swap1\n      log4\n        /* \".debug/11155111/0x5a877473E776FDE60148ce4Da9ff91cF66296358/contracts/SecretDepository.sol\":4351:5829  function deposit(bytes32 keyHash, string calldata secretMessage, string calldata studentId) public payable {... */\n      pop\n      pop\n      pop\n      pop\n      pop\n      jump\t// out\n        /* \".debug/11155111/0x5a877473E776FDE60148ce4Da9ff91cF66296358/contracts/SecretDepository.sol\":917:966  uint256 public constant DEPOSIT_FEE = 0.001 ether */\n    tag_63:\n        /* \".debug/11155111/0x5a877473E776FDE60148ce4Da9ff91cF66296358/contracts/SecretDepository.sol\":955:966  0.001 ether */\n      0x038d7ea4c68000\n        /* \".debug/11155111/0x5a877473E776FDE60148ce4Da9ff91cF66296358/contracts/SecretDepository.sol\":917:966  uint256 public constant DEPOSIT_FEE = 0.001 ether */\n      dup2\n      jump\t// out\n        /* \"#utility.yul\":7:82   */\n    tag_138:\n        /* \"#utility.yul\":40:46   */\n      0x00\n        /* \"#utility.yul\":73:75   */\n      0x40\n        /* \"#utility.yul\":67:76   */\n      mload\n        /* \"#utility.yul\":57:76   */\n      swap1\n      pop\n        /* \"#utility.yul\":7:82   */\n      swap1\n      jump\t// out\n        /* \"#utility.yul\":88:205   */\n    tag_139:\n        /* \"#utility.yul\":197:198   */\n      0x00\n        /* \"#utility.yul\":194:195   */\n      0x00\n        /* \"#utility.yul\":187:199   */\n      revert\n        /* \"#utility.yul\":211:328   */\n    tag_140:\n        /* \"#utility.yul\":320:321   */\n      0x00\n        /* \"#utility.yul\":317:318   */\n      0x00\n        /* \"#utility.yul\":310:322   */\n      revert\n        /* \"#utility.yul\":334:451   */\n    tag_141:\n        /* \"#utility.yul\":443:444   */\n      0x00\n        /* \"#utility.yul\":440:441   */\n      0x00\n        /* \"#utility.yul\":433:445   */\n      revert\n        /* \"#utility.yul\":457:574   */\n    tag_142:\n        /* \"#utility.yul\":566:567   */\n      0x00\n        /* \"#utility.yul\":563:564   */\n      0x00\n        /* \"#utility.yul\":556:568   */\n      revert\n        /* \"#utility.yul\":580:682   */\n    tag_143:\n        /* \"#utility.yul\":621:627   */\n      0x00\n        /* \"#utility.yul\":672:674   */\n      0x1f\n        /* \"#utility.yul\":668:675   */\n      not\n        /* \"#utility.yul\":663:665   */\n      0x1f\n        /* \"#utility.yul\":656:661   */\n      dup4\n        /* \"#utility.yul\":652:666   */\n      add\n        /* \"#utility.yul\":648:676   */\n      and\n        /* \"#utility.yul\":638:676   */\n      swap1\n      pop\n        /* \"#utility.yul\":580:682   */\n      swap2\n      swap1\n      pop\n      jump\t// out\n        /* \"#utility.yul\":688:868   */\n    tag_144:\n        /* \"#utility.yul\":736:813   */\n      0x4e487b7100000000000000000000000000000000000000000000000000000000\n        /* \"#utility.yul\":733:734   */\n      0x00\n        /* \"#utility.yul\":726:814   */\n      mstore\n        /* \"#utility.yul\":833:837   */\n      0x41\n        /* \"#utility.yul\":830:831   */\n      0x04\n        /* \"#utility.yul\":823:838   */\n      mstore\n        /* \"#utility.yul\":857:861   */\n      0x24\n        /* \"#utility.yul\":854:855   */\n      0x00\n        /* \"#utility.yul\":847:862   */\n      revert\n        /* \"#utility.yul\":874:1155   */\n    tag_145:\n        /* \"#utility.yul\":957:984   */\n      tag_225\n        /* \"#utility.yul\":979:983   */\n      dup3\n        /* \"#utility.yul\":957:984   */\n      tag_143\n      jump\t// in\n    tag_225:\n        /* \"#utility.yul\":949:955   */\n      dup2\n        /* \"#utility.yul\":945:985   */\n      add\n        /* \"#utility.yul\":1087:1093   */\n      dup2\n        /* \"#utility.yul\":1075:1085   */\n      dup2\n        /* \"#utility.yul\":1072:1094   */\n      lt\n        /* \"#utility.yul\":1051:1069   */\n      0xffffffffffffffff\n        /* \"#utility.yul\":1039:1049   */\n      dup3\n        /* \"#utility.yul\":1036:1070   */\n      gt\n        /* \"#utility.yul\":1033:1095   */\n      or\n        /* \"#utility.yul\":1030:1118   */\n      iszero\n      tag_226\n      jumpi\n        /* \"#utility.yul\":1098:1116   */\n      tag_227\n      tag_144\n      jump\t// in\n    tag_227:\n        /* \"#utility.yul\":1030:1118   */\n    tag_226:\n        /* \"#utility.yul\":1138:1148   */\n      dup1\n        /* \"#utility.yul\":1134:1136   */\n      0x40\n        /* \"#utility.yul\":1127:1149   */\n      mstore\n        /* \"#utility.yul\":917:1155   */\n      pop\n        /* \"#utility.yul\":874:1155   */\n      pop\n      pop\n      jump\t// out\n        /* \"#utility.yul\":1161:1290   */\n    tag_146:\n        /* \"#utility.yul\":1195:1201   */\n      0x00\n        /* \"#utility.yul\":1222:1242   */\n      tag_229\n      tag_138\n      jump\t// in\n    tag_229:\n        /* \"#utility.yul\":1212:1242   */\n      swap1\n      pop\n        /* \"#utility.yul\":1251:1284   */\n      tag_230\n        /* \"#utility.yul\":1279:1283   */\n      dup3\n        /* \"#utility.yul\":1271:1277   */\n      dup3\n        /* \"#utility.yul\":1251:1284   */\n      tag_145\n      jump\t// in\n    tag_230:\n        /* \"#utility.yul\":1161:1290   */\n      swap2\n      swap1\n      pop\n      jump\t// out\n        /* \"#utility.yul\":1296:1604   */\n    tag_147:\n        /* \"#utility.yul\":1358:1362   */\n      0x00\n        /* \"#utility.yul\":1448:1466   */\n      0xffffffffffffffff\n        /* \"#utility.yul\":1440:1446   */\n      dup3\n        /* \"#utility.yul\":1437:1467   */\n      gt\n        /* \"#utility.yul\":1434:1490   */\n      iszero\n      tag_232\n      jumpi\n        /* \"#utility.yul\":1470:1488   */\n      tag_233\n      tag_144\n      jump\t// in\n    tag_233:\n        /* \"#utility.yul\":1434:1490   */\n    tag_232:\n        /* \"#utility.yul\":1508:1537   */\n      tag_234\n        /* \"#utility.yul\":1530:1536   */\n      dup3\n        /* \"#utility.yul\":1508:1537   */\n      tag_143\n      jump\t// in\n    tag_234:\n        /* \"#utility.yul\":1500:1537   */\n      swap1\n      pop\n        /* \"#utility.yul\":1592:1596   */\n      0x20\n        /* \"#utility.yul\":1586:1590   */\n      dup2\n        /* \"#utility.yul\":1582:1597   */\n      add\n        /* \"#utility.yul\":1574:1597   */\n      swap1\n      pop\n        /* \"#utility.yul\":1296:1604   */\n      swap2\n      swap1\n      pop\n      jump\t// out\n        /* \"#utility.yul\":1610:1758   */\n    tag_148:\n        /* \"#utility.yul\":1708:1714   */\n      dup3\n        /* \"#utility.yul\":1703:1706   */\n      dup2\n        /* \"#utility.yul\":1698:1701   */\n      dup4\n        /* \"#utility.yul\":1685:1715   */\n      calldatacopy\n        /* \"#utility.yul\":1749:1750   */\n      0x00\n        /* \"#utility.yul\":1740:1746   */\n      dup4\n        /* \"#utility.yul\":1735:1738   */\n      dup4\n        /* \"#utility.yul\":1731:1747   */\n      add\n        /* \"#utility.yul\":1724:1751   */\n      mstore\n        /* \"#utility.yul\":1610:1758   */\n      pop\n      pop\n      pop\n      jump\t// out\n        /* \"#utility.yul\":1764:2189   */\n    tag_149:\n        /* \"#utility.yul\":1842:1847   */\n      0x00\n        /* \"#utility.yul\":1867:1933   */\n      tag_237\n        /* \"#utility.yul\":1883:1932   */\n      tag_238\n        /* \"#utility.yul\":1925:1931   */\n      dup5\n        /* \"#utility.yul\":1883:1932   */\n      tag_147\n      jump\t// in\n    tag_238:\n        /* \"#utility.yul\":1867:1933   */\n      tag_146\n      jump\t// in\n    tag_237:\n        /* \"#utility.yul\":1858:1933   */\n      swap1\n      pop\n        /* \"#utility.yul\":1956:1962   */\n      dup3\n        /* \"#utility.yul\":1949:1954   */\n      dup2\n        /* \"#utility.yul\":1942:1963   */\n      mstore\n        /* \"#utility.yul\":1994:1998   */\n      0x20\n        /* \"#utility.yul\":1987:1992   */\n      dup2\n        /* \"#utility.yul\":1983:1999   */\n      add\n        /* \"#utility.yul\":2032:2035   */\n      dup5\n        /* \"#utility.yul\":2023:2029   */\n      dup5\n        /* \"#utility.yul\":2018:2021   */\n      dup5\n        /* \"#utility.yul\":2014:2030   */\n      add\n        /* \"#utility.yul\":2011:2036   */\n      gt\n        /* \"#utility.yul\":2008:2120   */\n      iszero\n      tag_239\n      jumpi\n        /* \"#utility.yul\":2039:2118   */\n      tag_240\n      tag_142\n      jump\t// in\n    tag_240:\n        /* \"#utility.yul\":2008:2120   */\n    tag_239:\n        /* \"#utility.yul\":2129:2183   */\n      tag_241\n        /* \"#utility.yul\":2176:2182   */\n      dup5\n        /* \"#utility.yul\":2171:2174   */\n      dup3\n        /* \"#utility.yul\":2166:2169   */\n      dup6\n        /* \"#utility.yul\":2129:2183   */\n      tag_148\n      jump\t// in\n    tag_241:\n        /* \"#utility.yul\":1848:2189   */\n      pop\n        /* \"#utility.yul\":1764:2189   */\n      swap4\n      swap3\n      pop\n      pop\n      pop\n      jump\t// out\n        /* \"#utility.yul\":2209:2549   */\n    tag_150:\n        /* \"#utility.yul\":2265:2270   */\n      0x00\n        /* \"#utility.yul\":2314:2317   */\n      dup3\n        /* \"#utility.yul\":2307:2311   */\n      0x1f\n        /* \"#utility.yul\":2299:2305   */\n      dup4\n        /* \"#utility.yul\":2295:2312   */\n      add\n        /* \"#utility.yul\":2291:2318   */\n      slt\n        /* \"#utility.yul\":2281:2403   */\n      tag_243\n      jumpi\n        /* \"#utility.yul\":2322:2401   */\n      tag_244\n      tag_141\n      jump\t// in\n    tag_244:\n        /* \"#utility.yul\":2281:2403   */\n    tag_243:\n        /* \"#utility.yul\":2439:2445   */\n      dup2\n        /* \"#utility.yul\":2426:2446   */\n      calldataload\n        /* \"#utility.yul\":2464:2543   */\n      tag_245\n        /* \"#utility.yul\":2539:2542   */\n      dup5\n        /* \"#utility.yul\":2531:2537   */\n      dup3\n        /* \"#utility.yul\":2524:2528   */\n      0x20\n        /* \"#utility.yul\":2516:2522   */\n      dup7\n        /* \"#utility.yul\":2512:2529   */\n      add\n        /* \"#utility.yul\":2464:2543   */\n      tag_149\n      jump\t// in\n    tag_245:\n        /* \"#utility.yul\":2455:2543   */\n      swap2\n      pop\n        /* \"#utility.yul\":2271:2549   */\n      pop\n        /* \"#utility.yul\":2209:2549   */\n      swap3\n      swap2\n      pop\n      pop\n      jump\t// out\n        /* \"#utility.yul\":2555:3064   */\n    tag_16:\n        /* \"#utility.yul\":2624:2630   */\n      0x00\n        /* \"#utility.yul\":2673:2675   */\n      0x20\n        /* \"#utility.yul\":2661:2670   */\n      dup3\n        /* \"#utility.yul\":2652:2659   */\n      dup5\n        /* \"#utility.yul\":2648:2671   */\n      sub\n        /* \"#utility.yul\":2644:2676   */\n      slt\n        /* \"#utility.yul\":2641:2760   */\n      iszero\n      tag_247\n      jumpi\n        /* \"#utility.yul\":2679:2758   */\n      tag_248\n      tag_139\n      jump\t// in\n    tag_248:\n        /* \"#utility.yul\":2641:2760   */\n    tag_247:\n        /* \"#utility.yul\":2827:2828   */\n      0x00\n        /* \"#utility.yul\":2816:2825   */\n      dup3\n        /* \"#utility.yul\":2812:2829   */\n      add\n        /* \"#utility.yul\":2799:2830   */\n      calldataload\n        /* \"#utility.yul\":2857:2875   */\n      0xffffffffffffffff\n        /* \"#utility.yul\":2849:2855   */\n      dup2\n        /* \"#utility.yul\":2846:2876   */\n      gt\n        /* \"#utility.yul\":2843:2960   */\n      iszero\n      tag_249\n      jumpi\n        /* \"#utility.yul\":2879:2958   */\n      tag_250\n      tag_140\n      jump\t// in\n    tag_250:\n        /* \"#utility.yul\":2843:2960   */\n    tag_249:\n        /* \"#utility.yul\":2984:3047   */\n      tag_251\n        /* \"#utility.yul\":3039:3046   */\n      dup5\n        /* \"#utility.yul\":3030:3036   */\n      dup3\n        /* \"#utility.yul\":3019:3028   */\n      dup6\n        /* \"#utility.yul\":3015:3037   */\n      add\n        /* \"#utility.yul\":2984:3047   */\n      tag_150\n      jump\t// in\n    tag_251:\n        /* \"#utility.yul\":2974:3047   */\n      swap2\n      pop\n        /* \"#utility.yul\":2770:3057   */\n      pop\n        /* \"#utility.yul\":2555:3064   */\n      swap3\n      swap2\n      pop\n      pop\n      jump\t// out\n        /* \"#utility.yul\":3070:3147   */\n    tag_151:\n        /* \"#utility.yul\":3107:3114   */\n      0x00\n        /* \"#utility.yul\":3136:3141   */\n      dup2\n        /* \"#utility.yul\":3125:3141   */\n      swap1\n      pop\n        /* \"#utility.yul\":3070:3147   */\n      swap2\n      swap1\n      pop\n      jump\t// out\n        /* \"#utility.yul\":3153:3271   */\n    tag_152:\n        /* \"#utility.yul\":3240:3264   */\n      tag_254\n        /* \"#utility.yul\":3258:3263   */\n      dup2\n        /* \"#utility.yul\":3240:3264   */\n      tag_151\n      jump\t// in\n    tag_254:\n        /* \"#utility.yul\":3235:3238   */\n      dup3\n        /* \"#utility.yul\":3228:3265   */\n      mstore\n        /* \"#utility.yul\":3153:3271   */\n      pop\n      pop\n      jump\t// out\n        /* \"#utility.yul\":3277:3499   */\n    tag_19:\n        /* \"#utility.yul\":3370:3374   */\n      0x00\n        /* \"#utility.yul\":3408:3410   */\n      0x20\n        /* \"#utility.yul\":3397:3406   */\n      dup3\n        /* \"#utility.yul\":3393:3411   */\n      add\n        /* \"#utility.yul\":3385:3411   */\n      swap1\n      pop\n        /* \"#utility.yul\":3421:3492   */\n      tag_256\n        /* \"#utility.yul\":3489:3490   */\n      0x00\n        /* \"#utility.yul\":3478:3487   */\n      dup4\n        /* \"#utility.yul\":3474:3491   */\n      add\n        /* \"#utility.yul\":3465:3471   */\n      dup5\n        /* \"#utility.yul\":3421:3492   */\n      tag_152\n      jump\t// in\n    tag_256:\n        /* \"#utility.yul\":3277:3499   */\n      swap3\n      swap2\n      pop\n      pop\n      jump\t// out\n        /* \"#utility.yul\":3505:3631   */\n    tag_153:\n        /* \"#utility.yul\":3542:3549   */\n      0x00\n        /* \"#utility.yul\":3582:3624   */\n      0xffffffffffffffffffffffffffffffffffffffff\n        /* \"#utility.yul\":3575:3580   */\n      dup3\n        /* \"#utility.yul\":3571:3625   */\n      and\n        /* \"#utility.yul\":3560:3625   */\n      swap1\n      pop\n        /* \"#utility.yul\":3505:3631   */\n      swap2\n      swap1\n      pop\n      jump\t// out\n        /* \"#utility.yul\":3637:3733   */\n    tag_154:\n        /* \"#utility.yul\":3674:3681   */\n      0x00\n        /* \"#utility.yul\":3703:3727   */\n      tag_259\n        /* \"#utility.yul\":3721:3726   */\n      dup3\n        /* \"#utility.yul\":3703:3727   */\n      tag_153\n      jump\t// in\n    tag_259:\n        /* \"#utility.yul\":3692:3727   */\n      swap1\n      pop\n        /* \"#utility.yul\":3637:3733   */\n      swap2\n      swap1\n      pop\n      jump\t// out\n        /* \"#utility.yul\":3739:3861   */\n    tag_155:\n        /* \"#utility.yul\":3812:3836   */\n      tag_261\n        /* \"#utility.yul\":3830:3835   */\n      dup2\n        /* \"#utility.yul\":3812:3836   */\n      tag_154\n      jump\t// in\n    tag_261:\n        /* \"#utility.yul\":3805:3810   */\n      dup2\n        /* \"#utility.yul\":3802:3837   */\n      eq\n        /* \"#utility.yul\":3792:3855   */\n      tag_262\n      jumpi\n        /* \"#utility.yul\":3851:3852   */\n      0x00\n        /* \"#utility.yul\":3848:3849   */\n      0x00\n        /* \"#utility.yul\":3841:3853   */\n      revert\n        /* \"#utility.yul\":3792:3855   */\n    tag_262:\n        /* \"#utility.yul\":3739:3861   */\n      pop\n      jump\t// out\n        /* \"#utility.yul\":3867:4006   */\n    tag_156:\n        /* \"#utility.yul\":3913:3918   */\n      0x00\n        /* \"#utility.yul\":3951:3957   */\n      dup2\n        /* \"#utility.yul\":3938:3958   */\n      calldataload\n        /* \"#utility.yul\":3929:3958   */\n      swap1\n      pop\n        /* \"#utility.yul\":3967:4000   */\n      tag_264\n        /* \"#utility.yul\":3994:3999   */\n      dup2\n        /* \"#utility.yul\":3967:4000   */\n      tag_155\n      jump\t// in\n    tag_264:\n        /* \"#utility.yul\":3867:4006   */\n      swap3\n      swap2\n      pop\n      pop\n      jump\t// out\n        /* \"#utility.yul\":4012:4341   */\n    tag_23:\n        /* \"#utility.yul\":4071:4077   */\n      0x00\n        /* \"#utility.yul\":4120:4122   */\n      0x20\n        /* \"#utility.yul\":4108:4117   */\n      dup3\n        /* \"#utility.yul\":4099:4106   */\n      dup5\n        /* \"#utility.yul\":4095:4118   */\n      sub\n        /* \"#utility.yul\":4091:4123   */\n      slt\n        /* \"#utility.yul\":4088:4207   */\n      iszero\n      tag_266\n      jumpi\n        /* \"#utility.yul\":4126:4205   */\n      tag_267\n      tag_139\n      jump\t// in\n    tag_267:\n        /* \"#utility.yul\":4088:4207   */\n    tag_266:\n        /* \"#utility.yul\":4246:4247   */\n      0x00\n        /* \"#utility.yul\":4271:4324   */\n      tag_268\n        /* \"#utility.yul\":4316:4323   */\n      dup5\n        /* \"#utility.yul\":4307:4313   */\n      dup3\n        /* \"#utility.yul\":4296:4305   */\n      dup6\n        /* \"#utility.yul\":4292:4314   */\n      add\n        /* \"#utility.yul\":4271:4324   */\n      tag_156\n      jump\t// in\n    tag_268:\n        /* \"#utility.yul\":4261:4324   */\n      swap2\n      pop\n        /* \"#utility.yul\":4217:4334   */\n      pop\n        /* \"#utility.yul\":4012:4341   */\n      swap3\n      swap2\n      pop\n      pop\n      jump\t// out\n        /* \"#utility.yul\":4347:4465   */\n    tag_157:\n        /* \"#utility.yul\":4434:4458   */\n      tag_270\n        /* \"#utility.yul\":4452:4457   */\n      dup2\n        /* \"#utility.yul\":4434:4458   */\n      tag_154\n      jump\t// in\n    tag_270:\n        /* \"#utility.yul\":4429:4432   */\n      dup3\n        /* \"#utility.yul\":4422:4459   */\n      mstore\n        /* \"#utility.yul\":4347:4465   */\n      pop\n      pop\n      jump\t// out\n        /* \"#utility.yul\":4471:4548   */\n    tag_158:\n        /* \"#utility.yul\":4508:4515   */\n      0x00\n        /* \"#utility.yul\":4537:4542   */\n      dup2\n        /* \"#utility.yul\":4526:4542   */\n      swap1\n      pop\n        /* \"#utility.yul\":4471:4548   */\n      swap2\n      swap1\n      pop\n      jump\t// out\n        /* \"#utility.yul\":4554:4672   */\n    tag_159:\n        /* \"#utility.yul\":4641:4665   */\n      tag_273\n        /* \"#utility.yul\":4659:4664   */\n      dup2\n        /* \"#utility.yul\":4641:4665   */\n      tag_158\n      jump\t// in\n    tag_273:\n        /* \"#utility.yul\":4636:4639   */\n      dup3\n        /* \"#utility.yul\":4629:4666   */\n      mstore\n        /* \"#utility.yul\":4554:4672   */\n      pop\n      pop\n      jump\t// out\n        /* \"#utility.yul\":4678:4777   */\n    tag_160:\n        /* \"#utility.yul\":4730:4736   */\n      0x00\n        /* \"#utility.yul\":4764:4769   */\n      dup2\n        /* \"#utility.yul\":4758:4770   */\n      mload\n        /* \"#utility.yul\":4748:4770   */\n      swap1\n      pop\n        /* \"#utility.yul\":4678:4777   */\n      swap2\n      swap1\n      pop\n      jump\t// out\n        /* \"#utility.yul\":4783:4952   */\n    tag_161:\n        /* \"#utility.yul\":4867:4878   */\n      0x00\n        /* \"#utility.yul\":4901:4907   */\n      dup3\n        /* \"#utility.yul\":4896:4899   */\n      dup3\n        /* \"#utility.yul\":4889:4908   */\n      mstore\n        /* \"#utility.yul\":4941:4945   */\n      0x20\n        /* \"#utility.yul\":4936:4939   */\n      dup3\n        /* \"#utility.yul\":4932:4946   */\n      add\n        /* \"#utility.yul\":4917:4946   */\n      swap1\n      pop\n        /* \"#utility.yul\":4783:4952   */\n      swap3\n      swap2\n      pop\n      pop\n      jump\t// out\n        /* \"#utility.yul\":4958:5097   */\n    tag_162:\n        /* \"#utility.yul\":5047:5053   */\n      dup3\n        /* \"#utility.yul\":5042:5045   */\n      dup2\n        /* \"#utility.yul\":5037:5040   */\n      dup4\n        /* \"#utility.yul\":5031:5054   */\n      mcopy\n        /* \"#utility.yul\":5088:5089   */\n      0x00\n        /* \"#utility.yul\":5079:5085   */\n      dup4\n        /* \"#utility.yul\":5074:5077   */\n      dup4\n        /* \"#utility.yul\":5070:5086   */\n      add\n        /* \"#utility.yul\":5063:5090   */\n      mstore\n        /* \"#utility.yul\":4958:5097   */\n      pop\n      pop\n      pop\n      jump\t// out\n        /* \"#utility.yul\":5103:5480   */\n    tag_163:\n        /* \"#utility.yul\":5191:5194   */\n      0x00\n        /* \"#utility.yul\":5219:5258   */\n      tag_278\n        /* \"#utility.yul\":5252:5257   */\n      dup3\n        /* \"#utility.yul\":5219:5258   */\n      tag_160\n      jump\t// in\n    tag_278:\n        /* \"#utility.yul\":5274:5345   */\n      tag_279\n        /* \"#utility.yul\":5338:5344   */\n      dup2\n        /* \"#utility.yul\":5333:5336   */\n      dup6\n        /* \"#utility.yul\":5274:5345   */\n      tag_161\n      jump\t// in\n    tag_279:\n        /* \"#utility.yul\":5267:5345   */\n      swap4\n      pop\n        /* \"#utility.yul\":5354:5419   */\n      tag_280\n        /* \"#utility.yul\":5412:5418   */\n      dup2\n        /* \"#utility.yul\":5407:5410   */\n      dup6\n        /* \"#utility.yul\":5400:5404   */\n      0x20\n        /* \"#utility.yul\":5393:5398   */\n      dup7\n        /* \"#utility.yul\":5389:5405   */\n      add\n        /* \"#utility.yul\":5354:5419   */\n      tag_162\n      jump\t// in\n    tag_280:\n        /* \"#utility.yul\":5444:5473   */\n      tag_281\n        /* \"#utility.yul\":5466:5472   */\n      dup2\n        /* \"#utility.yul\":5444:5473   */\n      tag_143\n      jump\t// in\n    tag_281:\n        /* \"#utility.yul\":5439:5442   */\n      dup5\n        /* \"#utility.yul\":5435:5474   */\n      add\n        /* \"#utility.yul\":5428:5474   */\n      swap2\n      pop\n        /* \"#utility.yul\":5195:5480   */\n      pop\n        /* \"#utility.yul\":5103:5480   */\n      swap3\n      swap2\n      pop\n      pop\n      jump\t// out\n        /* \"#utility.yul\":5486:5576   */\n    tag_164:\n        /* \"#utility.yul\":5520:5527   */\n      0x00\n        /* \"#utility.yul\":5563:5568   */\n      dup2\n        /* \"#utility.yul\":5556:5569   */\n      iszero\n        /* \"#utility.yul\":5549:5570   */\n      iszero\n        /* \"#utility.yul\":5538:5570   */\n      swap1\n      pop\n        /* \"#utility.yul\":5486:5576   */\n      swap2\n      swap1\n      pop\n      jump\t// out\n        /* \"#utility.yul\":5582:5691   */\n    tag_165:\n        /* \"#utility.yul\":5663:5684   */\n      tag_284\n        /* \"#utility.yul\":5678:5683   */\n      dup2\n        /* \"#utility.yul\":5663:5684   */\n      tag_164\n      jump\t// in\n    tag_284:\n        /* \"#utility.yul\":5658:5661   */\n      dup3\n        /* \"#utility.yul\":5651:5685   */\n      mstore\n        /* \"#utility.yul\":5582:5691   */\n      pop\n      pop\n      jump\t// out\n        /* \"#utility.yul\":5697:6329   */\n    tag_33:\n        /* \"#utility.yul\":5888:5892   */\n      0x00\n        /* \"#utility.yul\":5926:5929   */\n      0x80\n        /* \"#utility.yul\":5915:5924   */\n      dup3\n        /* \"#utility.yul\":5911:5930   */\n      add\n        /* \"#utility.yul\":5903:5930   */\n      swap1\n      pop\n        /* \"#utility.yul\":5940:6011   */\n      tag_286\n        /* \"#utility.yul\":6008:6009   */\n      0x00\n        /* \"#utility.yul\":5997:6006   */\n      dup4\n        /* \"#utility.yul\":5993:6010   */\n      add\n        /* \"#utility.yul\":5984:5990   */\n      dup8\n        /* \"#utility.yul\":5940:6011   */\n      tag_157\n      jump\t// in\n    tag_286:\n        /* \"#utility.yul\":6021:6093   */\n      tag_287\n        /* \"#utility.yul\":6089:6091   */\n      0x20\n        /* \"#utility.yul\":6078:6087   */\n      dup4\n        /* \"#utility.yul\":6074:6092   */\n      add\n        /* \"#utility.yul\":6065:6071   */\n      dup7\n        /* \"#utility.yul\":6021:6093   */\n      tag_159\n      jump\t// in\n    tag_287:\n        /* \"#utility.yul\":6140:6149   */\n      dup2\n        /* \"#utility.yul\":6134:6138   */\n      dup2\n        /* \"#utility.yul\":6130:6150   */\n      sub\n        /* \"#utility.yul\":6125:6127   */\n      0x40\n        /* \"#utility.yul\":6114:6123   */\n      dup4\n        /* \"#utility.yul\":6110:6128   */\n      add\n        /* \"#utility.yul\":6103:6151   */\n      mstore\n        /* \"#utility.yul\":6168:6246   */\n      tag_288\n        /* \"#utility.yul\":6241:6245   */\n      dup2\n        /* \"#utility.yul\":6232:6238   */\n      dup6\n        /* \"#utility.yul\":6168:6246   */\n      tag_163\n      jump\t// in\n    tag_288:\n        /* \"#utility.yul\":6160:6246   */\n      swap1\n      pop\n        /* \"#utility.yul\":6256:6322   */\n      tag_289\n        /* \"#utility.yul\":6318:6320   */\n      0x60\n        /* \"#utility.yul\":6307:6316   */\n      dup4\n        /* \"#utility.yul\":6303:6321   */\n      add\n        /* \"#utility.yul\":6294:6300   */\n      dup5\n        /* \"#utility.yul\":6256:6322   */\n      tag_165\n      jump\t// in\n    tag_289:\n        /* \"#utility.yul\":5697:6329   */\n      swap6\n      swap5\n      pop\n      pop\n      pop\n      pop\n      pop\n      jump\t// out\n        /* \"#utility.yul\":6335:6452   */\n    tag_166:\n        /* \"#utility.yul\":6444:6445   */\n      0x00\n        /* \"#utility.yul\":6441:6442   */\n      0x00\n        /* \"#utility.yul\":6434:6446   */\n      revert\n        /* \"#utility.yul\":6458:6575   */\n    tag_167:\n        /* \"#utility.yul\":6567:6568   */\n      0x00\n        /* \"#utility.yul\":6564:6565   */\n      0x00\n        /* \"#utility.yul\":6557:6569   */\n      revert\n        /* \"#utility.yul\":6595:7148   */\n    tag_168:\n        /* \"#utility.yul\":6653:6661   */\n      0x00\n        /* \"#utility.yul\":6663:6669   */\n      0x00\n        /* \"#utility.yul\":6713:6716   */\n      dup4\n        /* \"#utility.yul\":6706:6710   */\n      0x1f\n        /* \"#utility.yul\":6698:6704   */\n      dup5\n        /* \"#utility.yul\":6694:6711   */\n      add\n        /* \"#utility.yul\":6690:6717   */\n      slt\n        /* \"#utility.yul\":6680:6802   */\n      tag_293\n      jumpi\n        /* \"#utility.yul\":6721:6800   */\n      tag_294\n      tag_141\n      jump\t// in\n    tag_294:\n        /* \"#utility.yul\":6680:6802   */\n    tag_293:\n        /* \"#utility.yul\":6834:6840   */\n      dup3\n        /* \"#utility.yul\":6821:6841   */\n      calldataload\n        /* \"#utility.yul\":6811:6841   */\n      swap1\n      pop\n        /* \"#utility.yul\":6864:6882   */\n      0xffffffffffffffff\n        /* \"#utility.yul\":6856:6862   */\n      dup2\n        /* \"#utility.yul\":6853:6883   */\n      gt\n        /* \"#utility.yul\":6850:6967   */\n      iszero\n      tag_295\n      jumpi\n        /* \"#utility.yul\":6886:6965   */\n      tag_296\n      tag_166\n      jump\t// in\n    tag_296:\n        /* \"#utility.yul\":6850:6967   */\n    tag_295:\n        /* \"#utility.yul\":7000:7004   */\n      0x20\n        /* \"#utility.yul\":6992:6998   */\n      dup4\n        /* \"#utility.yul\":6988:7005   */\n      add\n        /* \"#utility.yul\":6976:7005   */\n      swap2\n      pop\n        /* \"#utility.yul\":7054:7057   */\n      dup4\n        /* \"#utility.yul\":7046:7050   */\n      0x01\n        /* \"#utility.yul\":7038:7044   */\n      dup3\n        /* \"#utility.yul\":7034:7051   */\n      mul\n        /* \"#utility.yul\":7024:7032   */\n      dup4\n        /* \"#utility.yul\":7020:7052   */\n      add\n        /* \"#utility.yul\":7017:7058   */\n      gt\n        /* \"#utility.yul\":7014:7142   */\n      iszero\n      tag_297\n      jumpi\n        /* \"#utility.yul\":7061:7140   */\n      tag_298\n      tag_167\n      jump\t// in\n    tag_298:\n        /* \"#utility.yul\":7014:7142   */\n    tag_297:\n        /* \"#utility.yul\":6595:7148   */\n      swap3\n      pop\n      swap3\n      swap1\n      pop\n      jump\t// out\n        /* \"#utility.yul\":7154:7683   */\n    tag_37:\n        /* \"#utility.yul\":7225:7231   */\n      0x00\n        /* \"#utility.yul\":7233:7239   */\n      0x00\n        /* \"#utility.yul\":7282:7284   */\n      0x20\n        /* \"#utility.yul\":7270:7279   */\n      dup4\n        /* \"#utility.yul\":7261:7268   */\n      dup6\n        /* \"#utility.yul\":7257:7280   */\n      sub\n        /* \"#utility.yul\":7253:7285   */\n      slt\n        /* \"#utility.yul\":7250:7369   */\n      iszero\n      tag_300\n      jumpi\n        /* \"#utility.yul\":7288:7367   */\n      tag_301\n      tag_139\n      jump\t// in\n    tag_301:\n        /* \"#utility.yul\":7250:7369   */\n    tag_300:\n        /* \"#utility.yul\":7436:7437   */\n      0x00\n        /* \"#utility.yul\":7425:7434   */\n      dup4\n        /* \"#utility.yul\":7421:7438   */\n      add\n        /* \"#utility.yul\":7408:7439   */\n      calldataload\n        /* \"#utility.yul\":7466:7484   */\n      0xffffffffffffffff\n        /* \"#utility.yul\":7458:7464   */\n      dup2\n        /* \"#utility.yul\":7455:7485   */\n      gt\n        /* \"#utility.yul\":7452:7569   */\n      iszero\n      tag_302\n      jumpi\n        /* \"#utility.yul\":7488:7567   */\n      tag_303\n      tag_140\n      jump\t// in\n    tag_303:\n        /* \"#utility.yul\":7452:7569   */\n    tag_302:\n        /* \"#utility.yul\":7601:7666   */\n      tag_304\n        /* \"#utility.yul\":7658:7665   */\n      dup6\n        /* \"#utility.yul\":7649:7655   */\n      dup3\n        /* \"#utility.yul\":7638:7647   */\n      dup7\n        /* \"#utility.yul\":7634:7656   */\n      add\n        /* \"#utility.yul\":7601:7666   */\n      tag_168\n      jump\t// in\n    tag_304:\n        /* \"#utility.yul\":7583:7666   */\n      swap3\n      pop\n      swap3\n      pop\n        /* \"#utility.yul\":7379:7676   */\n      pop\n        /* \"#utility.yul\":7154:7683   */\n      swap3\n      pop\n      swap3\n      swap1\n      pop\n      jump\t// out\n        /* \"#utility.yul\":7689:8002   */\n    tag_40:\n        /* \"#utility.yul\":7802:7806   */\n      0x00\n        /* \"#utility.yul\":7840:7842   */\n      0x20\n        /* \"#utility.yul\":7829:7838   */\n      dup3\n        /* \"#utility.yul\":7825:7843   */\n      add\n        /* \"#utility.yul\":7817:7843   */\n      swap1\n      pop\n        /* \"#utility.yul\":7889:7898   */\n      dup2\n        /* \"#utility.yul\":7883:7887   */\n      dup2\n        /* \"#utility.yul\":7879:7899   */\n      sub\n        /* \"#utility.yul\":7875:7876   */\n      0x00\n        /* \"#utility.yul\":7864:7873   */\n      dup4\n        /* \"#utility.yul\":7860:7877   */\n      add\n        /* \"#utility.yul\":7853:7900   */\n      mstore\n        /* \"#utility.yul\":7917:7995   */\n      tag_306\n        /* \"#utility.yul\":7990:7994   */\n      dup2\n        /* \"#utility.yul\":7981:7987   */\n      dup5\n        /* \"#utility.yul\":7917:7995   */\n      tag_163\n      jump\t// in\n    tag_306:\n        /* \"#utility.yul\":7909:7995   */\n      swap1\n      pop\n        /* \"#utility.yul\":7689:8002   */\n      swap3\n      swap2\n      pop\n      pop\n      jump\t// out\n        /* \"#utility.yul\":8008:8438   */\n    tag_46:\n        /* \"#utility.yul\":8151:8155   */\n      0x00\n        /* \"#utility.yul\":8189:8191   */\n      0x60\n        /* \"#utility.yul\":8178:8187   */\n      dup3\n        /* \"#utility.yul\":8174:8192   */\n      add\n        /* \"#utility.yul\":8166:8192   */\n      swap1\n      pop\n        /* \"#utility.yul\":8202:8273   */\n      tag_308\n        /* \"#utility.yul\":8270:8271   */\n      0x00\n        /* \"#utility.yul\":8259:8268   */\n      dup4\n        /* \"#utility.yul\":8255:8272   */\n      add\n        /* \"#utility.yul\":8246:8252   */\n      dup7\n        /* \"#utility.yul\":8202:8273   */\n      tag_157\n      jump\t// in\n    tag_308:\n        /* \"#utility.yul\":8283:8355   */\n      tag_309\n        /* \"#utility.yul\":8351:8353   */\n      0x20\n        /* \"#utility.yul\":8340:8349   */\n      dup4\n        /* \"#utility.yul\":8336:8354   */\n      add\n        /* \"#utility.yul\":8327:8333   */\n      dup6\n        /* \"#utility.yul\":8283:8355   */\n      tag_159\n      jump\t// in\n    tag_309:\n        /* \"#utility.yul\":8365:8431   */\n      tag_310\n        /* \"#utility.yul\":8427:8429   */\n      0x40\n        /* \"#utility.yul\":8416:8425   */\n      dup4\n        /* \"#utility.yul\":8412:8430   */\n      add\n        /* \"#utility.yul\":8403:8409   */\n      dup5\n        /* \"#utility.yul\":8365:8431   */\n      tag_165\n      jump\t// in\n    tag_310:\n        /* \"#utility.yul\":8008:8438   */\n      swap5\n      swap4\n      pop\n      pop\n      pop\n      pop\n      jump\t// out\n        /* \"#utility.yul\":8444:8666   */\n    tag_51:\n        /* \"#utility.yul\":8537:8541   */\n      0x00\n        /* \"#utility.yul\":8575:8577   */\n      0x20\n        /* \"#utility.yul\":8564:8573   */\n      dup3\n        /* \"#utility.yul\":8560:8578   */\n      add\n        /* \"#utility.yul\":8552:8578   */\n      swap1\n      pop\n        /* \"#utility.yul\":8588:8659   */\n      tag_312\n        /* \"#utility.yul\":8656:8657   */\n      0x00\n        /* \"#utility.yul\":8645:8654   */\n      dup4\n        /* \"#utility.yul\":8641:8658   */\n      add\n        /* \"#utility.yul\":8632:8638   */\n      dup5\n        /* \"#utility.yul\":8588:8659   */\n      tag_159\n      jump\t// in\n    tag_312:\n        /* \"#utility.yul\":8444:8666   */\n      swap3\n      swap2\n      pop\n      pop\n      jump\t// out\n        /* \"#utility.yul\":8672:8894   */\n    tag_56:\n        /* \"#utility.yul\":8765:8769   */\n      0x00\n        /* \"#utility.yul\":8803:8805   */\n      0x20\n        /* \"#utility.yul\":8792:8801   */\n      dup3\n        /* \"#utility.yul\":8788:8806   */\n      add\n        /* \"#utility.yul\":8780:8806   */\n      swap1\n      pop\n        /* \"#utility.yul\":8816:8887   */\n      tag_314\n        /* \"#utility.yul\":8884:8885   */\n      0x00\n        /* \"#utility.yul\":8873:8882   */\n      dup4\n        /* \"#utility.yul\":8869:8886   */\n      add\n        /* \"#utility.yul\":8860:8866   */\n      dup5\n        /* \"#utility.yul\":8816:8887   */\n      tag_157\n      jump\t// in\n    tag_314:\n        /* \"#utility.yul\":8672:8894   */\n      swap3\n      swap2\n      pop\n      pop\n      jump\t// out\n        /* \"#utility.yul\":8900:9022   */\n    tag_169:\n        /* \"#utility.yul\":8973:8997   */\n      tag_316\n        /* \"#utility.yul\":8991:8996   */\n      dup2\n        /* \"#utility.yul\":8973:8997   */\n      tag_151\n      jump\t// in\n    tag_316:\n        /* \"#utility.yul\":8966:8971   */\n      dup2\n        /* \"#utility.yul\":8963:8998   */\n      eq\n        /* \"#utility.yul\":8953:9016   */\n      tag_317\n      jumpi\n        /* \"#utility.yul\":9012:9013   */\n      0x00\n        /* \"#utility.yul\":9009:9010   */\n      0x00\n        /* \"#utility.yul\":9002:9014   */\n      revert\n        /* \"#utility.yul\":8953:9016   */\n    tag_317:\n        /* \"#utility.yul\":8900:9022   */\n      pop\n      jump\t// out\n        /* \"#utility.yul\":9028:9167   */\n    tag_170:\n        /* \"#utility.yul\":9074:9079   */\n      0x00\n        /* \"#utility.yul\":9112:9118   */\n      dup2\n        /* \"#utility.yul\":9099:9119   */\n      calldataload\n        /* \"#utility.yul\":9090:9119   */\n      swap1\n      pop\n        /* \"#utility.yul\":9128:9161   */\n      tag_319\n        /* \"#utility.yul\":9155:9160   */\n      dup2\n        /* \"#utility.yul\":9128:9161   */\n      tag_169\n      jump\t// in\n    tag_319:\n        /* \"#utility.yul\":9028:9167   */\n      swap3\n      swap2\n      pop\n      pop\n      jump\t// out\n        /* \"#utility.yul\":9173:10192   */\n    tag_59:\n        /* \"#utility.yul\":9274:9280   */\n      0x00\n        /* \"#utility.yul\":9282:9288   */\n      0x00\n        /* \"#utility.yul\":9290:9296   */\n      0x00\n        /* \"#utility.yul\":9298:9304   */\n      0x00\n        /* \"#utility.yul\":9306:9312   */\n      0x00\n        /* \"#utility.yul\":9355:9357   */\n      0x60\n        /* \"#utility.yul\":9343:9352   */\n      dup7\n        /* \"#utility.yul\":9334:9341   */\n      dup9\n        /* \"#utility.yul\":9330:9353   */\n      sub\n        /* \"#utility.yul\":9326:9358   */\n      slt\n        /* \"#utility.yul\":9323:9442   */\n      iszero\n      tag_321\n      jumpi\n        /* \"#utility.yul\":9361:9440   */\n      tag_322\n      tag_139\n      jump\t// in\n    tag_322:\n        /* \"#utility.yul\":9323:9442   */\n    tag_321:\n        /* \"#utility.yul\":9481:9482   */\n      0x00\n        /* \"#utility.yul\":9506:9559   */\n      tag_323\n        /* \"#utility.yul\":9551:9558   */\n      dup9\n        /* \"#utility.yul\":9542:9548   */\n      dup3\n        /* \"#utility.yul\":9531:9540   */\n      dup10\n        /* \"#utility.yul\":9527:9549   */\n      add\n        /* \"#utility.yul\":9506:9559   */\n      tag_170\n      jump\t// in\n    tag_323:\n        /* \"#utility.yul\":9496:9559   */\n      swap6\n      pop\n        /* \"#utility.yul\":9452:9569   */\n      pop\n        /* \"#utility.yul\":9636:9638   */\n      0x20\n        /* \"#utility.yul\":9625:9634   */\n      dup7\n        /* \"#utility.yul\":9621:9639   */\n      add\n        /* \"#utility.yul\":9608:9640   */\n      calldataload\n        /* \"#utility.yul\":9667:9685   */\n      0xffffffffffffffff\n        /* \"#utility.yul\":9659:9665   */\n      dup2\n        /* \"#utility.yul\":9656:9686   */\n      gt\n        /* \"#utility.yul\":9653:9770   */\n      iszero\n      tag_324\n      jumpi\n        /* \"#utility.yul\":9689:9768   */\n      tag_325\n      tag_140\n      jump\t// in\n    tag_325:\n        /* \"#utility.yul\":9653:9770   */\n    tag_324:\n        /* \"#utility.yul\":9802:9867   */\n      tag_326\n        /* \"#utility.yul\":9859:9866   */\n      dup9\n        /* \"#utility.yul\":9850:9856   */\n      dup3\n        /* \"#utility.yul\":9839:9848   */\n      dup10\n        /* \"#utility.yul\":9835:9857   */\n      add\n        /* \"#utility.yul\":9802:9867   */\n      tag_168\n      jump\t// in\n    tag_326:\n        /* \"#utility.yul\":9784:9867   */\n      swap5\n      pop\n      swap5\n      pop\n        /* \"#utility.yul\":9579:9877   */\n      pop\n        /* \"#utility.yul\":9944:9946   */\n      0x40\n        /* \"#utility.yul\":9933:9942   */\n      dup7\n        /* \"#utility.yul\":9929:9947   */\n      add\n        /* \"#utility.yul\":9916:9948   */\n      calldataload\n        /* \"#utility.yul\":9975:9993   */\n      0xffffffffffffffff\n        /* \"#utility.yul\":9967:9973   */\n      dup2\n        /* \"#utility.yul\":9964:9994   */\n      gt\n        /* \"#utility.yul\":9961:10078   */\n      iszero\n      tag_327\n      jumpi\n        /* \"#utility.yul\":9997:10076   */\n      tag_328\n      tag_140\n      jump\t// in\n    tag_328:\n        /* \"#utility.yul\":9961:10078   */\n    tag_327:\n        /* \"#utility.yul\":10110:10175   */\n      tag_329\n        /* \"#utility.yul\":10167:10174   */\n      dup9\n        /* \"#utility.yul\":10158:10164   */\n      dup3\n        /* \"#utility.yul\":10147:10156   */\n      dup10\n        /* \"#utility.yul\":10143:10165   */\n      add\n        /* \"#utility.yul\":10110:10175   */\n      tag_168\n      jump\t// in\n    tag_329:\n        /* \"#utility.yul\":10092:10175   */\n      swap3\n      pop\n      swap3\n      pop\n        /* \"#utility.yul\":9887:10185   */\n      pop\n        /* \"#utility.yul\":9173:10192   */\n      swap3\n      swap6\n      pop\n      swap3\n      swap6\n      swap1\n      swap4\n      pop\n      jump\t// out\n        /* \"#utility.yul\":10198:10371   */\n    tag_171:\n        /* \"#utility.yul\":10338:10363   */\n      0x43616c6c6572206973206e6f7420746865206f776e6572000000000000000000\n        /* \"#utility.yul\":10334:10335   */\n      0x00\n        /* \"#utility.yul\":10326:10332   */\n      dup3\n        /* \"#utility.yul\":10322:10336   */\n      add\n        /* \"#utility.yul\":10315:10364   */\n      mstore\n        /* \"#utility.yul\":10198:10371   */\n      pop\n      jump\t// out\n        /* \"#utility.yul\":10377:10743   */\n    tag_172:\n        /* \"#utility.yul\":10519:10522   */\n      0x00\n        /* \"#utility.yul\":10540:10607   */\n      tag_332\n        /* \"#utility.yul\":10604:10606   */\n      0x17\n        /* \"#utility.yul\":10599:10602   */\n      dup4\n        /* \"#utility.yul\":10540:10607   */\n      tag_161\n      jump\t// in\n    tag_332:\n        /* \"#utility.yul\":10533:10607   */\n      swap2\n      pop\n        /* \"#utility.yul\":10616:10709   */\n      tag_333\n        /* \"#utility.yul\":10705:10708   */\n      dup3\n        /* \"#utility.yul\":10616:10709   */\n      tag_171\n      jump\t// in\n    tag_333:\n        /* \"#utility.yul\":10734:10736   */\n      0x20\n        /* \"#utility.yul\":10729:10732   */\n      dup3\n        /* \"#utility.yul\":10725:10737   */\n      add\n        /* \"#utility.yul\":10718:10737   */\n      swap1\n      pop\n        /* \"#utility.yul\":10377:10743   */\n      swap2\n      swap1\n      pop\n      jump\t// out\n        /* \"#utility.yul\":10749:11168   */\n    tag_68:\n        /* \"#utility.yul\":10915:10919   */\n      0x00\n        /* \"#utility.yul\":10953:10955   */\n      0x20\n        /* \"#utility.yul\":10942:10951   */\n      dup3\n        /* \"#utility.yul\":10938:10956   */\n      add\n        /* \"#utility.yul\":10930:10956   */\n      swap1\n      pop\n        /* \"#utility.yul\":11002:11011   */\n      dup2\n        /* \"#utility.yul\":10996:11000   */\n      dup2\n        /* \"#utility.yul\":10992:11012   */\n      sub\n        /* \"#utility.yul\":10988:10989   */\n      0x00\n        /* \"#utility.yul\":10977:10986   */\n      dup4\n        /* \"#utility.yul\":10973:10990   */\n      add\n        /* \"#utility.yul\":10966:11013   */\n      mstore\n        /* \"#utility.yul\":11030:11161   */\n      tag_335\n        /* \"#utility.yul\":11156:11160   */\n      dup2\n        /* \"#utility.yul\":11030:11161   */\n      tag_172\n      jump\t// in\n    tag_335:\n        /* \"#utility.yul\":11022:11161   */\n      swap1\n      pop\n        /* \"#utility.yul\":10749:11168   */\n      swap2\n      swap1\n      pop\n      jump\t// out\n        /* \"#utility.yul\":11174:11321   */\n    tag_173:\n        /* \"#utility.yul\":11275:11286   */\n      0x00\n        /* \"#utility.yul\":11312:11315   */\n      dup2\n        /* \"#utility.yul\":11297:11315   */\n      swap1\n      pop\n        /* \"#utility.yul\":11174:11321   */\n      swap3\n      swap2\n      pop\n      pop\n      jump\t// out\n        /* \"#utility.yul\":11327:11441   */\n    tag_174:\n      pop\n      jump\t// out\n        /* \"#utility.yul\":11447:11845   */\n    tag_175:\n        /* \"#utility.yul\":11606:11609   */\n      0x00\n        /* \"#utility.yul\":11627:11710   */\n      tag_339\n        /* \"#utility.yul\":11708:11709   */\n      0x00\n        /* \"#utility.yul\":11703:11706   */\n      dup4\n        /* \"#utility.yul\":11627:11710   */\n      tag_173\n      jump\t// in\n    tag_339:\n        /* \"#utility.yul\":11620:11710   */\n      swap2\n      pop\n        /* \"#utility.yul\":11719:11812   */\n      tag_340\n        /* \"#utility.yul\":11808:11811   */\n      dup3\n        /* \"#utility.yul\":11719:11812   */\n      tag_174\n      jump\t// in\n    tag_340:\n        /* \"#utility.yul\":11837:11838   */\n      0x00\n        /* \"#utility.yul\":11832:11835   */\n      dup3\n        /* \"#utility.yul\":11828:11839   */\n      add\n        /* \"#utility.yul\":11821:11839   */\n      swap1\n      pop\n        /* \"#utility.yul\":11447:11845   */\n      swap2\n      swap1\n      pop\n      jump\t// out\n        /* \"#utility.yul\":11851:12230   */\n    tag_71:\n        /* \"#utility.yul\":12035:12038   */\n      0x00\n        /* \"#utility.yul\":12057:12204   */\n      tag_342\n        /* \"#utility.yul\":12200:12203   */\n      dup3\n        /* \"#utility.yul\":12057:12204   */\n      tag_175\n      jump\t// in\n    tag_342:\n        /* \"#utility.yul\":12050:12204   */\n      swap2\n      pop\n        /* \"#utility.yul\":12221:12224   */\n      dup2\n        /* \"#utility.yul\":12214:12224   */\n      swap1\n      pop\n        /* \"#utility.yul\":11851:12230   */\n      swap2\n      swap1\n      pop\n      jump\t// out\n        /* \"#utility.yul\":12236:12406   */\n    tag_176:\n        /* \"#utility.yul\":12376:12398   */\n      0x4661696c656420746f2073656e64204574686572000000000000000000000000\n        /* \"#utility.yul\":12372:12373   */\n      0x00\n        /* \"#utility.yul\":12364:12370   */\n      dup3\n        /* \"#utility.yul\":12360:12374   */\n      add\n        /* \"#utility.yul\":12353:12399   */\n      mstore\n        /* \"#utility.yul\":12236:12406   */\n      pop\n      jump\t// out\n        /* \"#utility.yul\":12412:12778   */\n    tag_177:\n        /* \"#utility.yul\":12554:12557   */\n      0x00\n        /* \"#utility.yul\":12575:12642   */\n      tag_345\n        /* \"#utility.yul\":12639:12641   */\n      0x14\n        /* \"#utility.yul\":12634:12637   */\n      dup4\n        /* \"#utility.yul\":12575:12642   */\n      tag_161\n      jump\t// in\n    tag_345:\n        /* \"#utility.yul\":12568:12642   */\n      swap2\n      pop\n        /* \"#utility.yul\":12651:12744   */\n      tag_346\n        /* \"#utility.yul\":12740:12743   */\n      dup3\n        /* \"#utility.yul\":12651:12744   */\n      tag_176\n      jump\t// in\n    tag_346:\n        /* \"#utility.yul\":12769:12771   */\n      0x20\n        /* \"#utility.yul\":12764:12767   */\n      dup3\n        /* \"#utility.yul\":12760:12772   */\n      add\n        /* \"#utility.yul\":12753:12772   */\n      swap1\n      pop\n        /* \"#utility.yul\":12412:12778   */\n      swap2\n      swap1\n      pop\n      jump\t// out\n        /* \"#utility.yul\":12784:13203   */\n    tag_77:\n        /* \"#utility.yul\":12950:12954   */\n      0x00\n        /* \"#utility.yul\":12988:12990   */\n      0x20\n        /* \"#utility.yul\":12977:12986   */\n      dup3\n        /* \"#utility.yul\":12973:12991   */\n      add\n        /* \"#utility.yul\":12965:12991   */\n      swap1\n      pop\n        /* \"#utility.yul\":13037:13046   */\n      dup2\n        /* \"#utility.yul\":13031:13035   */\n      dup2\n        /* \"#utility.yul\":13027:13047   */\n      sub\n        /* \"#utility.yul\":13023:13024   */\n      0x00\n        /* \"#utility.yul\":13012:13021   */\n      dup4\n        /* \"#utility.yul\":13008:13025   */\n      add\n        /* \"#utility.yul\":13001:13048   */\n      mstore\n        /* \"#utility.yul\":13065:13196   */\n      tag_348\n        /* \"#utility.yul\":13191:13195   */\n      dup2\n        /* \"#utility.yul\":13065:13196   */\n      tag_177\n      jump\t// in\n    tag_348:\n        /* \"#utility.yul\":13057:13196   */\n      swap1\n      pop\n        /* \"#utility.yul\":12784:13203   */\n      swap2\n      swap1\n      pop\n      jump\t// out\n        /* \"#utility.yul\":13209:13389   */\n    tag_178:\n        /* \"#utility.yul\":13257:13334   */\n      0x4e487b7100000000000000000000000000000000000000000000000000000000\n        /* \"#utility.yul\":13254:13255   */\n      0x00\n        /* \"#utility.yul\":13247:13335   */\n      mstore\n        /* \"#utility.yul\":13354:13358   */\n      0x22\n        /* \"#utility.yul\":13351:13352   */\n      0x04\n        /* \"#utility.yul\":13344:13359   */\n      mstore\n        /* \"#utility.yul\":13378:13382   */\n      0x24\n        /* \"#utility.yul\":13375:13376   */\n      0x00\n        /* \"#utility.yul\":13368:13383   */\n      revert\n        /* \"#utility.yul\":13395:13715   */\n    tag_81:\n        /* \"#utility.yul\":13439:13445   */\n      0x00\n        /* \"#utility.yul\":13476:13477   */\n      0x02\n        /* \"#utility.yul\":13470:13474   */\n      dup3\n        /* \"#utility.yul\":13466:13478   */\n      div\n        /* \"#utility.yul\":13456:13478   */\n      swap1\n      pop\n        /* \"#utility.yul\":13523:13524   */\n      0x01\n        /* \"#utility.yul\":13517:13521   */\n      dup3\n        /* \"#utility.yul\":13513:13525   */\n      and\n        /* \"#utility.yul\":13544:13562   */\n      dup1\n        /* \"#utility.yul\":13534:13615   */\n      tag_351\n      jumpi\n        /* \"#utility.yul\":13600:13604   */\n      0x7f\n        /* \"#utility.yul\":13592:13598   */\n      dup3\n        /* \"#utility.yul\":13588:13605   */\n      and\n        /* \"#utility.yul\":13578:13605   */\n      swap2\n      pop\n        /* \"#utility.yul\":13534:13615   */\n    tag_351:\n        /* \"#utility.yul\":13662:13664   */\n      0x20\n        /* \"#utility.yul\":13654:13660   */\n      dup3\n        /* \"#utility.yul\":13651:13665   */\n      lt\n        /* \"#utility.yul\":13631:13649   */\n      dup2\n        /* \"#utility.yul\":13628:13666   */\n      sub\n        /* \"#utility.yul\":13625:13709   */\n      tag_352\n      jumpi\n        /* \"#utility.yul\":13681:13699   */\n      tag_353\n      tag_178\n      jump\t// in\n    tag_353:\n        /* \"#utility.yul\":13625:13709   */\n    tag_352:\n        /* \"#utility.yul\":13446:13715   */\n      pop\n        /* \"#utility.yul\":13395:13715   */\n      swap2\n      swap1\n      pop\n      jump\t// out\n        /* \"#utility.yul\":13721:13869   */\n    tag_179:\n        /* \"#utility.yul\":13823:13834   */\n      0x00\n        /* \"#utility.yul\":13860:13863   */\n      dup2\n        /* \"#utility.yul\":13845:13863   */\n      swap1\n      pop\n        /* \"#utility.yul\":13721:13869   */\n      swap3\n      swap2\n      pop\n      pop\n      jump\t// out\n        /* \"#utility.yul\":13899:14229   */\n    tag_180:\n        /* \"#utility.yul\":14015:14018   */\n      0x00\n        /* \"#utility.yul\":14036:14125   */\n      tag_356\n        /* \"#utility.yul\":14118:14124   */\n      dup4\n        /* \"#utility.yul\":14113:14116   */\n      dup6\n        /* \"#utility.yul\":14036:14125   */\n      tag_179\n      jump\t// in\n    tag_356:\n        /* \"#utility.yul\":14029:14125   */\n      swap4\n      pop\n        /* \"#utility.yul\":14135:14191   */\n      tag_357\n        /* \"#utility.yul\":14184:14190   */\n      dup4\n        /* \"#utility.yul\":14179:14182   */\n      dup6\n        /* \"#utility.yul\":14172:14177   */\n      dup5\n        /* \"#utility.yul\":14135:14191   */\n      tag_148\n      jump\t// in\n    tag_357:\n        /* \"#utility.yul\":14216:14222   */\n      dup3\n        /* \"#utility.yul\":14211:14214   */\n      dup5\n        /* \"#utility.yul\":14207:14223   */\n      add\n        /* \"#utility.yul\":14200:14223   */\n      swap1\n      pop\n        /* \"#utility.yul\":13899:14229   */\n      swap4\n      swap3\n      pop\n      pop\n      pop\n      jump\t// out\n        /* \"#utility.yul\":14235:14530   */\n    tag_88:\n        /* \"#utility.yul\":14377:14380   */\n      0x00\n        /* \"#utility.yul\":14399:14504   */\n      tag_359\n        /* \"#utility.yul\":14500:14503   */\n      dup3\n        /* \"#utility.yul\":14491:14497   */\n      dup5\n        /* \"#utility.yul\":14483:14489   */\n      dup7\n        /* \"#utility.yul\":14399:14504   */\n      tag_180\n      jump\t// in\n    tag_359:\n        /* \"#utility.yul\":14392:14504   */\n      swap2\n      pop\n        /* \"#utility.yul\":14521:14524   */\n      dup2\n        /* \"#utility.yul\":14514:14524   */\n      swap1\n      pop\n        /* \"#utility.yul\":14235:14530   */\n      swap4\n      swap3\n      pop\n      pop\n      pop\n      jump\t// out\n        /* \"#utility.yul\":14536:14760   */\n    tag_181:\n        /* \"#utility.yul\":14676:14710   */\n      0x4e6f207375626d697373696f6e20666f756e6420666f72207468697320706173\n        /* \"#utility.yul\":14672:14673   */\n      0x00\n        /* \"#utility.yul\":14664:14670   */\n      dup3\n        /* \"#utility.yul\":14660:14674   */\n      add\n        /* \"#utility.yul\":14653:14711   */\n      mstore\n        /* \"#utility.yul\":14745:14752   */\n      0x73776f7264000000000000000000000000000000000000000000000000000000\n        /* \"#utility.yul\":14740:14742   */\n      0x20\n        /* \"#utility.yul\":14732:14738   */\n      dup3\n        /* \"#utility.yul\":14728:14743   */\n      add\n        /* \"#utility.yul\":14721:14753   */\n      mstore\n        /* \"#utility.yul\":14536:14760   */\n      pop\n      jump\t// out\n        /* \"#utility.yul\":14766:15132   */\n    tag_182:\n        /* \"#utility.yul\":14908:14911   */\n      0x00\n        /* \"#utility.yul\":14929:14996   */\n      tag_362\n        /* \"#utility.yul\":14993:14995   */\n      0x25\n        /* \"#utility.yul\":14988:14991   */\n      dup4\n        /* \"#utility.yul\":14929:14996   */\n      tag_161\n      jump\t// in\n    tag_362:\n        /* \"#utility.yul\":14922:14996   */\n      swap2\n      pop\n        /* \"#utility.yul\":15005:15098   */\n      tag_363\n        /* \"#utility.yul\":15094:15097   */\n      dup3\n        /* \"#utility.yul\":15005:15098   */\n      tag_181\n      jump\t// in\n    tag_363:\n        /* \"#utility.yul\":15123:15125   */\n      0x40\n        /* \"#utility.yul\":15118:15121   */\n      dup3\n        /* \"#utility.yul\":15114:15126   */\n      add\n        /* \"#utility.yul\":15107:15126   */\n      swap1\n      pop\n        /* \"#utility.yul\":14766:15132   */\n      swap2\n      swap1\n      pop\n      jump\t// out\n        /* \"#utility.yul\":15138:15557   */\n    tag_91:\n        /* \"#utility.yul\":15304:15308   */\n      0x00\n        /* \"#utility.yul\":15342:15344   */\n      0x20\n        /* \"#utility.yul\":15331:15340   */\n      dup3\n        /* \"#utility.yul\":15327:15345   */\n      add\n        /* \"#utility.yul\":15319:15345   */\n      swap1\n      pop\n        /* \"#utility.yul\":15391:15400   */\n      dup2\n        /* \"#utility.yul\":15385:15389   */\n      dup2\n        /* \"#utility.yul\":15381:15401   */\n      sub\n        /* \"#utility.yul\":15377:15378   */\n      0x00\n        /* \"#utility.yul\":15366:15375   */\n      dup4\n        /* \"#utility.yul\":15362:15379   */\n      add\n        /* \"#utility.yul\":15355:15402   */\n      mstore\n        /* \"#utility.yul\":15419:15550   */\n      tag_365\n        /* \"#utility.yul\":15545:15549   */\n      dup2\n        /* \"#utility.yul\":15419:15550   */\n      tag_182\n      jump\t// in\n    tag_365:\n        /* \"#utility.yul\":15411:15550   */\n      swap1\n      pop\n        /* \"#utility.yul\":15138:15557   */\n      swap2\n      swap1\n      pop\n      jump\t// out\n        /* \"#utility.yul\":15563:15790   */\n    tag_183:\n        /* \"#utility.yul\":15703:15737   */\n      0x596f7520617265206e6f7420746865206f776e6572206f662074686973207375\n        /* \"#utility.yul\":15699:15700   */\n      0x00\n        /* \"#utility.yul\":15691:15697   */\n      dup3\n        /* \"#utility.yul\":15687:15701   */\n      add\n        /* \"#utility.yul\":15680:15738   */\n      mstore\n        /* \"#utility.yul\":15772:15782   */\n      0x626d697373696f6e000000000000000000000000000000000000000000000000\n        /* \"#utility.yul\":15767:15769   */\n      0x20\n        /* \"#utility.yul\":15759:15765   */\n      dup3\n        /* \"#utility.yul\":15755:15770   */\n      add\n        /* \"#utility.yul\":15748:15783   */\n      mstore\n        /* \"#utility.yul\":15563:15790   */\n      pop\n      jump\t// out\n        /* \"#utility.yul\":15796:16162   */\n    tag_184:\n        /* \"#utility.yul\":15938:15941   */\n      0x00\n        /* \"#utility.yul\":15959:16026   */\n      tag_368\n        /* \"#utility.yul\":16023:16025   */\n      0x28\n        /* \"#utility.yul\":16018:16021   */\n      dup4\n        /* \"#utility.yul\":15959:16026   */\n      tag_161\n      jump\t// in\n    tag_368:\n        /* \"#utility.yul\":15952:16026   */\n      swap2\n      pop\n        /* \"#utility.yul\":16035:16128   */\n      tag_369\n        /* \"#utility.yul\":16124:16127   */\n      dup3\n        /* \"#utility.yul\":16035:16128   */\n      tag_183\n      jump\t// in\n    tag_369:\n        /* \"#utility.yul\":16153:16155   */\n      0x40\n        /* \"#utility.yul\":16148:16151   */\n      dup3\n        /* \"#utility.yul\":16144:16156   */\n      add\n        /* \"#utility.yul\":16137:16156   */\n      swap1\n      pop\n        /* \"#utility.yul\":15796:16162   */\n      swap2\n      swap1\n      pop\n      jump\t// out\n        /* \"#utility.yul\":16168:16587   */\n    tag_94:\n        /* \"#utility.yul\":16334:16338   */\n      0x00\n        /* \"#utility.yul\":16372:16374   */\n      0x20\n        /* \"#utility.yul\":16361:16370   */\n      dup3\n        /* \"#utility.yul\":16357:16375   */\n      add\n        /* \"#utility.yul\":16349:16375   */\n      swap1\n      pop\n        /* \"#utility.yul\":16421:16430   */\n      dup2\n        /* \"#utility.yul\":16415:16419   */\n      dup2\n        /* \"#utility.yul\":16411:16431   */\n      sub\n        /* \"#utility.yul\":16407:16408   */\n      0x00\n        /* \"#utility.yul\":16396:16405   */\n      dup4\n        /* \"#utility.yul\":16392:16409   */\n      add\n        /* \"#utility.yul\":16385:16432   */\n      mstore\n        /* \"#utility.yul\":16449:16580   */\n      tag_371\n        /* \"#utility.yul\":16575:16579   */\n      dup2\n        /* \"#utility.yul\":16449:16580   */\n      tag_184\n      jump\t// in\n    tag_371:\n        /* \"#utility.yul\":16441:16580   */\n      swap1\n      pop\n        /* \"#utility.yul\":16168:16587   */\n      swap2\n      swap1\n      pop\n      jump\t// out\n        /* \"#utility.yul\":16593:16773   */\n    tag_185:\n        /* \"#utility.yul\":16641:16718   */\n      0x4e487b7100000000000000000000000000000000000000000000000000000000\n        /* \"#utility.yul\":16638:16639   */\n      0x00\n        /* \"#utility.yul\":16631:16719   */\n      mstore\n        /* \"#utility.yul\":16738:16742   */\n      0x11\n        /* \"#utility.yul\":16735:16736   */\n      0x04\n        /* \"#utility.yul\":16728:16743   */\n      mstore\n        /* \"#utility.yul\":16762:16766   */\n      0x24\n        /* \"#utility.yul\":16759:16760   */\n      0x00\n        /* \"#utility.yul\":16752:16767   */\n      revert\n        /* \"#utility.yul\":16779:16970   */\n    tag_96:\n        /* \"#utility.yul\":16819:16822   */\n      0x00\n        /* \"#utility.yul\":16838:16858   */\n      tag_374\n        /* \"#utility.yul\":16856:16857   */\n      dup3\n        /* \"#utility.yul\":16838:16858   */\n      tag_158\n      jump\t// in\n    tag_374:\n        /* \"#utility.yul\":16833:16858   */\n      swap2\n      pop\n        /* \"#utility.yul\":16872:16892   */\n      tag_375\n        /* \"#utility.yul\":16890:16891   */\n      dup4\n        /* \"#utility.yul\":16872:16892   */\n      tag_158\n      jump\t// in\n    tag_375:\n        /* \"#utility.yul\":16867:16892   */\n      swap3\n      pop\n        /* \"#utility.yul\":16915:16916   */\n      dup3\n        /* \"#utility.yul\":16912:16913   */\n      dup3\n        /* \"#utility.yul\":16908:16917   */\n      add\n        /* \"#utility.yul\":16901:16917   */\n      swap1\n      pop\n        /* \"#utility.yul\":16936:16939   */\n      dup1\n        /* \"#utility.yul\":16933:16934   */\n      dup3\n        /* \"#utility.yul\":16930:16940   */\n      gt\n        /* \"#utility.yul\":16927:16963   */\n      iszero\n      tag_376\n      jumpi\n        /* \"#utility.yul\":16943:16961   */\n      tag_377\n      tag_185\n      jump\t// in\n    tag_377:\n        /* \"#utility.yul\":16927:16963   */\n    tag_376:\n        /* \"#utility.yul\":16779:16970   */\n      swap3\n      swap2\n      pop\n      pop\n      jump\t// out\n        /* \"#utility.yul\":16976:17151   */\n    tag_186:\n        /* \"#utility.yul\":17116:17143   */\n      0x54696d65206c6f636b20686173206e6f74206578706972656400000000000000\n        /* \"#utility.yul\":17112:17113   */\n      0x00\n        /* \"#utility.yul\":17104:17110   */\n      dup3\n        /* \"#utility.yul\":17100:17114   */\n      add\n        /* \"#utility.yul\":17093:17144   */\n      mstore\n        /* \"#utility.yul\":16976:17151   */\n      pop\n      jump\t// out\n        /* \"#utility.yul\":17157:17523   */\n    tag_187:\n        /* \"#utility.yul\":17299:17302   */\n      0x00\n        /* \"#utility.yul\":17320:17387   */\n      tag_380\n        /* \"#utility.yul\":17384:17386   */\n      0x19\n        /* \"#utility.yul\":17379:17382   */\n      dup4\n        /* \"#utility.yul\":17320:17387   */\n      tag_161\n      jump\t// in\n    tag_380:\n        /* \"#utility.yul\":17313:17387   */\n      swap2\n      pop\n        /* \"#utility.yul\":17396:17489   */\n      tag_381\n        /* \"#utility.yul\":17485:17488   */\n      dup3\n        /* \"#utility.yul\":17396:17489   */\n      tag_186\n      jump\t// in\n    tag_381:\n        /* \"#utility.yul\":17514:17516   */\n      0x20\n        /* \"#utility.yul\":17509:17512   */\n      dup3\n        /* \"#utility.yul\":17505:17517   */\n      add\n        /* \"#utility.yul\":17498:17517   */\n      swap1\n      pop\n        /* \"#utility.yul\":17157:17523   */\n      swap2\n      swap1\n      pop\n      jump\t// out\n        /* \"#utility.yul\":17529:17948   */\n    tag_99:\n        /* \"#utility.yul\":17695:17699   */\n      0x00\n        /* \"#utility.yul\":17733:17735   */\n      0x20\n        /* \"#utility.yul\":17722:17731   */\n      dup3\n        /* \"#utility.yul\":17718:17736   */\n      add\n        /* \"#utility.yul\":17710:17736   */\n      swap1\n      pop\n        /* \"#utility.yul\":17782:17791   */\n      dup2\n        /* \"#utility.yul\":17776:17780   */\n      dup2\n        /* \"#utility.yul\":17772:17792   */\n      sub\n        /* \"#utility.yul\":17768:17769   */\n      0x00\n        /* \"#utility.yul\":17757:17766   */\n      dup4\n        /* \"#utility.yul\":17753:17770   */\n      add\n        /* \"#utility.yul\":17746:17793   */\n      mstore\n        /* \"#utility.yul\":17810:17941   */\n      tag_383\n        /* \"#utility.yul\":17936:17940   */\n      dup2\n        /* \"#utility.yul\":17810:17941   */\n      tag_187\n      jump\t// in\n    tag_383:\n        /* \"#utility.yul\":17802:17941   */\n      swap1\n      pop\n        /* \"#utility.yul\":17529:17948   */\n      swap2\n      swap1\n      pop\n      jump\t// out\n        /* \"#utility.yul\":17954:18176   */\n    tag_188:\n        /* \"#utility.yul\":18094:18128   */\n      0x5375626d697373696f6e2068617320616c7265616479206265656e20636c6169\n        /* \"#utility.yul\":18090:18091   */\n      0x00\n        /* \"#utility.yul\":18082:18088   */\n      dup3\n        /* \"#utility.yul\":18078:18092   */\n      add\n        /* \"#utility.yul\":18071:18129   */\n      mstore\n        /* \"#utility.yul\":18163:18168   */\n      0x6d65640000000000000000000000000000000000000000000000000000000000\n        /* \"#utility.yul\":18158:18160   */\n      0x20\n        /* \"#utility.yul\":18150:18156   */\n      dup3\n        /* \"#utility.yul\":18146:18161   */\n      add\n        /* \"#utility.yul\":18139:18169   */\n      mstore\n        /* \"#utility.yul\":17954:18176   */\n      pop\n      jump\t// out\n        /* \"#utility.yul\":18182:18548   */\n    tag_189:\n        /* \"#utility.yul\":18324:18327   */\n      0x00\n        /* \"#utility.yul\":18345:18412   */\n      tag_386\n        /* \"#utility.yul\":18409:18411   */\n      0x23\n        /* \"#utility.yul\":18404:18407   */\n      dup4\n        /* \"#utility.yul\":18345:18412   */\n      tag_161\n      jump\t// in\n    tag_386:\n        /* \"#utility.yul\":18338:18412   */\n      swap2\n      pop\n        /* \"#utility.yul\":18421:18514   */\n      tag_387\n        /* \"#utility.yul\":18510:18513   */\n      dup3\n        /* \"#utility.yul\":18421:18514   */\n      tag_188\n      jump\t// in\n    tag_387:\n        /* \"#utility.yul\":18539:18541   */\n      0x40\n        /* \"#utility.yul\":18534:18537   */\n      dup3\n        /* \"#utility.yul\":18530:18542   */\n      add\n        /* \"#utility.yul\":18523:18542   */\n      swap1\n      pop\n        /* \"#utility.yul\":18182:18548   */\n      swap2\n      swap1\n      pop\n      jump\t// out\n        /* \"#utility.yul\":18554:18973   */\n    tag_102:\n        /* \"#utility.yul\":18720:18724   */\n      0x00\n        /* \"#utility.yul\":18758:18760   */\n      0x20\n        /* \"#utility.yul\":18747:18756   */\n      dup3\n        /* \"#utility.yul\":18743:18761   */\n      add\n        /* \"#utility.yul\":18735:18761   */\n      swap1\n      pop\n        /* \"#utility.yul\":18807:18816   */\n      dup2\n        /* \"#utility.yul\":18801:18805   */\n      dup2\n        /* \"#utility.yul\":18797:18817   */\n      sub\n        /* \"#utility.yul\":18793:18794   */\n      0x00\n        /* \"#utility.yul\":18782:18791   */\n      dup4\n        /* \"#utility.yul\":18778:18795   */\n      add\n        /* \"#utility.yul\":18771:18818   */\n      mstore\n        /* \"#utility.yul\":18835:18966   */\n      tag_389\n        /* \"#utility.yul\":18961:18965   */\n      dup2\n        /* \"#utility.yul\":18835:18966   */\n      tag_189\n      jump\t// in\n    tag_389:\n        /* \"#utility.yul\":18827:18966   */\n      swap1\n      pop\n        /* \"#utility.yul\":18554:18973   */\n      swap2\n      swap1\n      pop\n      jump\t// out\n        /* \"#utility.yul\":18979:19120   */\n    tag_190:\n        /* \"#utility.yul\":19028:19032   */\n      0x00\n        /* \"#utility.yul\":19051:19054   */\n      dup2\n        /* \"#utility.yul\":19043:19054   */\n      swap1\n      pop\n        /* \"#utility.yul\":19074:19077   */\n      dup2\n        /* \"#utility.yul\":19071:19072   */\n      0x00\n        /* \"#utility.yul\":19064:19078   */\n      mstore\n        /* \"#utility.yul\":19108:19112   */\n      0x20\n        /* \"#utility.yul\":19105:19106   */\n      0x00\n        /* \"#utility.yul\":19095:19113   */\n      keccak256\n        /* \"#utility.yul\":19087:19113   */\n      swap1\n      pop\n        /* \"#utility.yul\":18979:19120   */\n      swap2\n      swap1\n      pop\n      jump\t// out\n        /* \"#utility.yul\":19150:20024   */\n    tag_191:\n        /* \"#utility.yul\":19253:19256   */\n      0x00\n        /* \"#utility.yul\":19290:19295   */\n      dup2\n        /* \"#utility.yul\":19284:19296   */\n      sload\n        /* \"#utility.yul\":19319:19355   */\n      tag_392\n        /* \"#utility.yul\":19345:19354   */\n      dup2\n        /* \"#utility.yul\":19319:19355   */\n      tag_81\n      jump\t// in\n    tag_392:\n        /* \"#utility.yul\":19371:19460   */\n      tag_393\n        /* \"#utility.yul\":19453:19459   */\n      dup2\n        /* \"#utility.yul\":19448:19451   */\n      dup7\n        /* \"#utility.yul\":19371:19460   */\n      tag_179\n      jump\t// in\n    tag_393:\n        /* \"#utility.yul\":19364:19460   */\n      swap5\n      pop\n        /* \"#utility.yul\":19491:19492   */\n      0x01\n        /* \"#utility.yul\":19480:19489   */\n      dup3\n        /* \"#utility.yul\":19476:19493   */\n      and\n        /* \"#utility.yul\":19507:19508   */\n      0x00\n        /* \"#utility.yul\":19502:19668   */\n      dup2\n      eq\n      tag_395\n      jumpi\n        /* \"#utility.yul\":19682:19683   */\n      0x01\n        /* \"#utility.yul\":19677:20018   */\n      dup2\n      eq\n      tag_396\n      jumpi\n        /* \"#utility.yul\":19469:20018   */\n      jump(tag_394)\n        /* \"#utility.yul\":19502:19668   */\n    tag_395:\n        /* \"#utility.yul\":19586:19590   */\n      0xff\n        /* \"#utility.yul\":19582:19591   */\n      not\n        /* \"#utility.yul\":19571:19580   */\n      dup4\n        /* \"#utility.yul\":19567:19592   */\n      and\n        /* \"#utility.yul\":19562:19565   */\n      dup7\n        /* \"#utility.yul\":19555:19593   */\n      mstore\n        /* \"#utility.yul\":19648:19654   */\n      dup2\n        /* \"#utility.yul\":19641:19655   */\n      iszero\n        /* \"#utility.yul\":19634:19656   */\n      iszero\n        /* \"#utility.yul\":19626:19632   */\n      dup3\n        /* \"#utility.yul\":19622:19657   */\n      mul\n        /* \"#utility.yul\":19617:19620   */\n      dup7\n        /* \"#utility.yul\":19613:19658   */\n      add\n        /* \"#utility.yul\":19606:19658   */\n      swap4\n      pop\n        /* \"#utility.yul\":19502:19668   */\n      jump(tag_394)\n        /* \"#utility.yul\":19677:20018   */\n    tag_396:\n        /* \"#utility.yul\":19744:19782   */\n      tag_397\n        /* \"#utility.yul\":19776:19781   */\n      dup6\n        /* \"#utility.yul\":19744:19782   */\n      tag_190\n      jump\t// in\n    tag_397:\n        /* \"#utility.yul\":19804:19805   */\n      0x00\n        /* \"#utility.yul\":19818:19972   */\n    tag_398:\n        /* \"#utility.yul\":19832:19838   */\n      dup4\n        /* \"#utility.yul\":19829:19830   */\n      dup2\n        /* \"#utility.yul\":19826:19839   */\n      lt\n        /* \"#utility.yul\":19818:19972   */\n      iszero\n      tag_400\n      jumpi\n        /* \"#utility.yul\":19906:19913   */\n      dup2\n        /* \"#utility.yul\":19900:19914   */\n      sload\n        /* \"#utility.yul\":19896:19897   */\n      dup2\n        /* \"#utility.yul\":19891:19894   */\n      dup10\n        /* \"#utility.yul\":19887:19898   */\n      add\n        /* \"#utility.yul\":19880:19915   */\n      mstore\n        /* \"#utility.yul\":19956:19957   */\n      0x01\n        /* \"#utility.yul\":19947:19954   */\n      dup3\n        /* \"#utility.yul\":19943:19958   */\n      add\n        /* \"#utility.yul\":19932:19958   */\n      swap2\n      pop\n        /* \"#utility.yul\":19854:19858   */\n      0x20\n        /* \"#utility.yul\":19851:19852   */\n      dup2\n        /* \"#utility.yul\":19847:19859   */\n      add\n        /* \"#utility.yul\":19842:19859   */\n      swap1\n      pop\n        /* \"#utility.yul\":19818:19972   */\n      jump(tag_398)\n    tag_400:\n        /* \"#utility.yul\":20001:20007   */\n      dup4\n        /* \"#utility.yul\":19996:19999   */\n      dup9\n        /* \"#utility.yul\":19992:20008   */\n      add\n        /* \"#utility.yul\":19985:20008   */\n      swap6\n      pop\n        /* \"#utility.yul\":19684:20018   */\n      pop\n      pop\n        /* \"#utility.yul\":19469:20018   */\n    tag_394:\n      pop\n        /* \"#utility.yul\":19257:20024   */\n      pop\n      pop\n        /* \"#utility.yul\":19150:20024   */\n      swap3\n      swap2\n      pop\n      pop\n      jump\t// out\n        /* \"#utility.yul\":20030:20299   */\n    tag_104:\n        /* \"#utility.yul\":20159:20162   */\n      0x00\n        /* \"#utility.yul\":20181:20273   */\n      tag_402\n        /* \"#utility.yul\":20269:20272   */\n      dup3\n        /* \"#utility.yul\":20260:20266   */\n      dup5\n        /* \"#utility.yul\":20181:20273   */\n      tag_191\n      jump\t// in\n    tag_402:\n        /* \"#utility.yul\":20174:20273   */\n      swap2\n      pop\n        /* \"#utility.yul\":20290:20293   */\n      dup2\n        /* \"#utility.yul\":20283:20293   */\n      swap1\n      pop\n        /* \"#utility.yul\":20030:20299   */\n      swap3\n      swap2\n      pop\n      pop\n      jump\t// out\n        /* \"#utility.yul\":20305:20481   */\n    tag_192:\n        /* \"#utility.yul\":20445:20473   */\n      0x496e636f7272656374206465706f736974206665652073656e74000000000000\n        /* \"#utility.yul\":20441:20442   */\n      0x00\n        /* \"#utility.yul\":20433:20439   */\n      dup3\n        /* \"#utility.yul\":20429:20443   */\n      add\n        /* \"#utility.yul\":20422:20474   */\n      mstore\n        /* \"#utility.yul\":20305:20481   */\n      pop\n      jump\t// out\n        /* \"#utility.yul\":20487:20853   */\n    tag_193:\n        /* \"#utility.yul\":20629:20632   */\n      0x00\n        /* \"#utility.yul\":20650:20717   */\n      tag_405\n        /* \"#utility.yul\":20714:20716   */\n      0x1a\n        /* \"#utility.yul\":20709:20712   */\n      dup4\n        /* \"#utility.yul\":20650:20717   */\n      tag_161\n      jump\t// in\n    tag_405:\n        /* \"#utility.yul\":20643:20717   */\n      swap2\n      pop\n        /* \"#utility.yul\":20726:20819   */\n      tag_406\n        /* \"#utility.yul\":20815:20818   */\n      dup3\n        /* \"#utility.yul\":20726:20819   */\n      tag_192\n      jump\t// in\n    tag_406:\n        /* \"#utility.yul\":20844:20846   */\n      0x20\n        /* \"#utility.yul\":20839:20842   */\n      dup3\n        /* \"#utility.yul\":20835:20847   */\n      add\n        /* \"#utility.yul\":20828:20847   */\n      swap1\n      pop\n        /* \"#utility.yul\":20487:20853   */\n      swap2\n      swap1\n      pop\n      jump\t// out\n        /* \"#utility.yul\":20859:21278   */\n    tag_119:\n        /* \"#utility.yul\":21025:21029   */\n      0x00\n        /* \"#utility.yul\":21063:21065   */\n      0x20\n        /* \"#utility.yul\":21052:21061   */\n      dup3\n        /* \"#utility.yul\":21048:21066   */\n      add\n        /* \"#utility.yul\":21040:21066   */\n      swap1\n      pop\n        /* \"#utility.yul\":21112:21121   */\n      dup2\n        /* \"#utility.yul\":21106:21110   */\n      dup2\n        /* \"#utility.yul\":21102:21122   */\n      sub\n        /* \"#utility.yul\":21098:21099   */\n      0x00\n        /* \"#utility.yul\":21087:21096   */\n      dup4\n        /* \"#utility.yul\":21083:21100   */\n      add\n        /* \"#utility.yul\":21076:21123   */\n      mstore\n        /* \"#utility.yul\":21140:21271   */\n      tag_408\n        /* \"#utility.yul\":21266:21270   */\n      dup2\n        /* \"#utility.yul\":21140:21271   */\n      tag_193\n      jump\t// in\n    tag_408:\n        /* \"#utility.yul\":21132:21271   */\n      swap1\n      pop\n        /* \"#utility.yul\":20859:21278   */\n      swap2\n      swap1\n      pop\n      jump\t// out\n        /* \"#utility.yul\":21284:21460   */\n    tag_194:\n        /* \"#utility.yul\":21424:21452   */\n      0x53747564656e742049442063616e6e6f7420626520656d707479000000000000\n        /* \"#utility.yul\":21420:21421   */\n      0x00\n        /* \"#utility.yul\":21412:21418   */\n      dup3\n        /* \"#utility.yul\":21408:21422   */\n      add\n        /* \"#utility.yul\":21401:21453   */\n      mstore\n        /* \"#utility.yul\":21284:21460   */\n      pop\n      jump\t// out\n        /* \"#utility.yul\":21466:21832   */\n    tag_195:\n        /* \"#utility.yul\":21608:21611   */\n      0x00\n        /* \"#utility.yul\":21629:21696   */\n      tag_411\n        /* \"#utility.yul\":21693:21695   */\n      0x1a\n        /* \"#utility.yul\":21688:21691   */\n      dup4\n        /* \"#utility.yul\":21629:21696   */\n      tag_161\n      jump\t// in\n    tag_411:\n        /* \"#utility.yul\":21622:21696   */\n      swap2\n      pop\n        /* \"#utility.yul\":21705:21798   */\n      tag_412\n        /* \"#utility.yul\":21794:21797   */\n      dup3\n        /* \"#utility.yul\":21705:21798   */\n      tag_194\n      jump\t// in\n    tag_412:\n        /* \"#utility.yul\":21823:21825   */\n      0x20\n        /* \"#utility.yul\":21818:21821   */\n      dup3\n        /* \"#utility.yul\":21814:21826   */\n      add\n        /* \"#utility.yul\":21807:21826   */\n      swap1\n      pop\n        /* \"#utility.yul\":21466:21832   */\n      swap2\n      swap1\n      pop\n      jump\t// out\n        /* \"#utility.yul\":21838:22257   */\n    tag_122:\n        /* \"#utility.yul\":22004:22008   */\n      0x00\n        /* \"#utility.yul\":22042:22044   */\n      0x20\n        /* \"#utility.yul\":22031:22040   */\n      dup3\n        /* \"#utility.yul\":22027:22045   */\n      add\n        /* \"#utility.yul\":22019:22045   */\n      swap1\n      pop\n        /* \"#utility.yul\":22091:22100   */\n      dup2\n        /* \"#utility.yul\":22085:22089   */\n      dup2\n        /* \"#utility.yul\":22081:22101   */\n      sub\n        /* \"#utility.yul\":22077:22078   */\n      0x00\n        /* \"#utility.yul\":22066:22075   */\n      dup4\n        /* \"#utility.yul\":22062:22079   */\n      add\n        /* \"#utility.yul\":22055:22102   */\n      mstore\n        /* \"#utility.yul\":22119:22250   */\n      tag_414\n        /* \"#utility.yul\":22245:22249   */\n      dup2\n        /* \"#utility.yul\":22119:22250   */\n      tag_195\n      jump\t// in\n    tag_414:\n        /* \"#utility.yul\":22111:22250   */\n      swap1\n      pop\n        /* \"#utility.yul\":21838:22257   */\n      swap2\n      swap1\n      pop\n      jump\t// out\n        /* \"#utility.yul\":22263:22485   */\n    tag_196:\n        /* \"#utility.yul\":22403:22437   */\n      0x546869732070617373776f72642068617320616c7265616479206265656e2075\n        /* \"#utility.yul\":22399:22400   */\n      0x00\n        /* \"#utility.yul\":22391:22397   */\n      dup3\n        /* \"#utility.yul\":22387:22401   */\n      add\n        /* \"#utility.yul\":22380:22438   */\n      mstore\n        /* \"#utility.yul\":22472:22477   */\n      0x7365640000000000000000000000000000000000000000000000000000000000\n        /* \"#utility.yul\":22467:22469   */\n      0x20\n        /* \"#utility.yul\":22459:22465   */\n      dup3\n        /* \"#utility.yul\":22455:22470   */\n      add\n        /* \"#utility.yul\":22448:22478   */\n      mstore\n        /* \"#utility.yul\":22263:22485   */\n      pop\n      jump\t// out\n        /* \"#utility.yul\":22491:22857   */\n    tag_197:\n        /* \"#utility.yul\":22633:22636   */\n      0x00\n        /* \"#utility.yul\":22654:22721   */\n      tag_417\n        /* \"#utility.yul\":22718:22720   */\n      0x23\n        /* \"#utility.yul\":22713:22716   */\n      dup4\n        /* \"#utility.yul\":22654:22721   */\n      tag_161\n      jump\t// in\n    tag_417:\n        /* \"#utility.yul\":22647:22721   */\n      swap2\n      pop\n        /* \"#utility.yul\":22730:22823   */\n      tag_418\n        /* \"#utility.yul\":22819:22822   */\n      dup3\n        /* \"#utility.yul\":22730:22823   */\n      tag_196\n      jump\t// in\n    tag_418:\n        /* \"#utility.yul\":22848:22850   */\n      0x40\n        /* \"#utility.yul\":22843:22846   */\n      dup3\n        /* \"#utility.yul\":22839:22851   */\n      add\n        /* \"#utility.yul\":22832:22851   */\n      swap1\n      pop\n        /* \"#utility.yul\":22491:22857   */\n      swap2\n      swap1\n      pop\n      jump\t// out\n        /* \"#utility.yul\":22863:23282   */\n    tag_125:\n        /* \"#utility.yul\":23029:23033   */\n      0x00\n        /* \"#utility.yul\":23067:23069   */\n      0x20\n        /* \"#utility.yul\":23056:23065   */\n      dup3\n        /* \"#utility.yul\":23052:23070   */\n      add\n        /* \"#utility.yul\":23044:23070   */\n      swap1\n      pop\n        /* \"#utility.yul\":23116:23125   */\n      dup2\n        /* \"#utility.yul\":23110:23114   */\n      dup2\n        /* \"#utility.yul\":23106:23126   */\n      sub\n        /* \"#utility.yul\":23102:23103   */\n      0x00\n        /* \"#utility.yul\":23091:23100   */\n      dup4\n        /* \"#utility.yul\":23087:23104   */\n      add\n        /* \"#utility.yul\":23080:23127   */\n      mstore\n        /* \"#utility.yul\":23144:23275   */\n      tag_420\n        /* \"#utility.yul\":23270:23274   */\n      dup2\n        /* \"#utility.yul\":23144:23275   */\n      tag_197\n      jump\t// in\n    tag_420:\n        /* \"#utility.yul\":23136:23275   */\n      swap1\n      pop\n        /* \"#utility.yul\":22863:23282   */\n      swap2\n      swap1\n      pop\n      jump\t// out\n        /* \"#utility.yul\":23288:23517   */\n    tag_198:\n        /* \"#utility.yul\":23428:23462   */\n      0x546869732073747564656e742049442068617320616c7265616479206265656e\n        /* \"#utility.yul\":23424:23425   */\n      0x00\n        /* \"#utility.yul\":23416:23422   */\n      dup3\n        /* \"#utility.yul\":23412:23426   */\n      add\n        /* \"#utility.yul\":23405:23463   */\n      mstore\n        /* \"#utility.yul\":23497:23509   */\n      0x207375626d697474656400000000000000000000000000000000000000000000\n        /* \"#utility.yul\":23492:23494   */\n      0x20\n        /* \"#utility.yul\":23484:23490   */\n      dup3\n        /* \"#utility.yul\":23480:23495   */\n      add\n        /* \"#utility.yul\":23473:23510   */\n      mstore\n        /* \"#utility.yul\":23288:23517   */\n      pop\n      jump\t// out\n        /* \"#utility.yul\":23523:23889   */\n    tag_199:\n        /* \"#utility.yul\":23665:23668   */\n      0x00\n        /* \"#utility.yul\":23686:23753   */\n      tag_423\n        /* \"#utility.yul\":23750:23752   */\n      0x2a\n        /* \"#utility.yul\":23745:23748   */\n      dup4\n        /* \"#utility.yul\":23686:23753   */\n      tag_161\n      jump\t// in\n    tag_423:\n        /* \"#utility.yul\":23679:23753   */\n      swap2\n      pop\n        /* \"#utility.yul\":23762:23855   */\n      tag_424\n        /* \"#utility.yul\":23851:23854   */\n      dup3\n        /* \"#utility.yul\":23762:23855   */\n      tag_198\n      jump\t// in\n    tag_424:\n        /* \"#utility.yul\":23880:23882   */\n      0x40\n        /* \"#utility.yul\":23875:23878   */\n      dup3\n        /* \"#utility.yul\":23871:23883   */\n      add\n        /* \"#utility.yul\":23864:23883   */\n      swap1\n      pop\n        /* \"#utility.yul\":23523:23889   */\n      swap2\n      swap1\n      pop\n      jump\t// out\n        /* \"#utility.yul\":23895:24314   */\n    tag_129:\n        /* \"#utility.yul\":24061:24065   */\n      0x00\n        /* \"#utility.yul\":24099:24101   */\n      0x20\n        /* \"#utility.yul\":24088:24097   */\n      dup3\n        /* \"#utility.yul\":24084:24102   */\n      add\n        /* \"#utility.yul\":24076:24102   */\n      swap1\n      pop\n        /* \"#utility.yul\":24148:24157   */\n      dup2\n        /* \"#utility.yul\":24142:24146   */\n      dup2\n        /* \"#utility.yul\":24138:24158   */\n      sub\n        /* \"#utility.yul\":24134:24135   */\n      0x00\n        /* \"#utility.yul\":24123:24132   */\n      dup4\n        /* \"#utility.yul\":24119:24136   */\n      add\n        /* \"#utility.yul\":24112:24159   */\n      mstore\n        /* \"#utility.yul\":24176:24307   */\n      tag_426\n        /* \"#utility.yul\":24302:24306   */\n      dup2\n        /* \"#utility.yul\":24176:24307   */\n      tag_199\n      jump\t// in\n    tag_426:\n        /* \"#utility.yul\":24168:24307   */\n      swap1\n      pop\n        /* \"#utility.yul\":23895:24314   */\n      swap2\n      swap1\n      pop\n      jump\t// out\n        /* \"#utility.yul\":24320:24541   */\n    tag_200:\n        /* \"#utility.yul\":24460:24494   */\n      0x5468697320616464726573732068617320616c7265616479207375626d697474\n        /* \"#utility.yul\":24456:24457   */\n      0x00\n        /* \"#utility.yul\":24448:24454   */\n      dup3\n        /* \"#utility.yul\":24444:24458   */\n      add\n        /* \"#utility.yul\":24437:24495   */\n      mstore\n        /* \"#utility.yul\":24529:24533   */\n      0x6564000000000000000000000000000000000000000000000000000000000000\n        /* \"#utility.yul\":24524:24526   */\n      0x20\n        /* \"#utility.yul\":24516:24522   */\n      dup3\n        /* \"#utility.yul\":24512:24527   */\n      add\n        /* \"#utility.yul\":24505:24534   */\n      mstore\n        /* \"#utility.yul\":24320:24541   */\n      pop\n      jump\t// out\n        /* \"#utility.yul\":24547:24913   */\n    tag_201:\n        /* \"#utility.yul\":24689:24692   */\n      0x00\n        /* \"#utility.yul\":24710:24777   */\n      tag_429\n        /* \"#utility.yul\":24774:24776   */\n      0x22\n        /* \"#utility.yul\":24769:24772   */\n      dup4\n        /* \"#utility.yul\":24710:24777   */\n      tag_161\n      jump\t// in\n    tag_429:\n        /* \"#utility.yul\":24703:24777   */\n      swap2\n      pop\n        /* \"#utility.yul\":24786:24879   */\n      tag_430\n        /* \"#utility.yul\":24875:24878   */\n      dup3\n        /* \"#utility.yul\":24786:24879   */\n      tag_200\n      jump\t// in\n    tag_430:\n        /* \"#utility.yul\":24904:24906   */\n      0x40\n        /* \"#utility.yul\":24899:24902   */\n      dup3\n        /* \"#utility.yul\":24895:24907   */\n      add\n        /* \"#utility.yul\":24888:24907   */\n      swap1\n      pop\n        /* \"#utility.yul\":24547:24913   */\n      swap2\n      swap1\n      pop\n      jump\t// out\n        /* \"#utility.yul\":24919:25338   */\n    tag_132:\n        /* \"#utility.yul\":25085:25089   */\n      0x00\n        /* \"#utility.yul\":25123:25125   */\n      0x20\n        /* \"#utility.yul\":25112:25121   */\n      dup3\n        /* \"#utility.yul\":25108:25126   */\n      add\n        /* \"#utility.yul\":25100:25126   */\n      swap1\n      pop\n        /* \"#utility.yul\":25172:25181   */\n      dup2\n        /* \"#utility.yul\":25166:25170   */\n      dup2\n        /* \"#utility.yul\":25162:25182   */\n      sub\n        /* \"#utility.yul\":25158:25159   */\n      0x00\n        /* \"#utility.yul\":25147:25156   */\n      dup4\n        /* \"#utility.yul\":25143:25160   */\n      add\n        /* \"#utility.yul\":25136:25183   */\n      mstore\n        /* \"#utility.yul\":25200:25331   */\n      tag_432\n        /* \"#utility.yul\":25326:25330   */\n      dup2\n        /* \"#utility.yul\":25200:25331   */\n      tag_201\n      jump\t// in\n    tag_432:\n        /* \"#utility.yul\":25192:25331   */\n      swap1\n      pop\n        /* \"#utility.yul\":24919:25338   */\n      swap2\n      swap1\n      pop\n      jump\t// out\n        /* \"#utility.yul\":25344:25437   */\n    tag_202:\n        /* \"#utility.yul\":25381:25387   */\n      0x00\n        /* \"#utility.yul\":25428:25430   */\n      0x20\n        /* \"#utility.yul\":25423:25425   */\n      0x1f\n        /* \"#utility.yul\":25416:25421   */\n      dup4\n        /* \"#utility.yul\":25412:25426   */\n      add\n        /* \"#utility.yul\":25408:25431   */\n      div\n        /* \"#utility.yul\":25398:25431   */\n      swap1\n      pop\n        /* \"#utility.yul\":25344:25437   */\n      swap2\n      swap1\n      pop\n      jump\t// out\n        /* \"#utility.yul\":25443:25550   */\n    tag_203:\n        /* \"#utility.yul\":25487:25495   */\n      0x00\n        /* \"#utility.yul\":25537:25542   */\n      dup3\n        /* \"#utility.yul\":25531:25535   */\n      dup3\n        /* \"#utility.yul\":25527:25543   */\n      shl\n        /* \"#utility.yul\":25506:25543   */\n      swap1\n      pop\n        /* \"#utility.yul\":25443:25550   */\n      swap3\n      swap2\n      pop\n      pop\n      jump\t// out\n        /* \"#utility.yul\":25556:25949   */\n    tag_204:\n        /* \"#utility.yul\":25625:25631   */\n      0x00\n        /* \"#utility.yul\":25675:25676   */\n      0x08\n        /* \"#utility.yul\":25663:25673   */\n      dup4\n        /* \"#utility.yul\":25659:25677   */\n      mul\n        /* \"#utility.yul\":25698:25795   */\n      tag_436\n        /* \"#utility.yul\":25728:25794   */\n      0xffffffffffffffffffffffffffffffffffffffffffffffffffffffffffffffff\n        /* \"#utility.yul\":25717:25726   */\n      dup3\n        /* \"#utility.yul\":25698:25795   */\n      tag_203\n      jump\t// in\n    tag_436:\n        /* \"#utility.yul\":25816:25855   */\n      tag_437\n        /* \"#utility.yul\":25846:25854   */\n      dup7\n        /* \"#utility.yul\":25835:25844   */\n      dup4\n        /* \"#utility.yul\":25816:25855   */\n      tag_203\n      jump\t// in\n    tag_437:\n        /* \"#utility.yul\":25804:25855   */\n      swap6\n      pop\n        /* \"#utility.yul\":25888:25892   */\n      dup1\n        /* \"#utility.yul\":25884:25893   */\n      not\n        /* \"#utility.yul\":25877:25882   */\n      dup5\n        /* \"#utility.yul\":25873:25894   */\n      and\n        /* \"#utility.yul\":25864:25894   */\n      swap4\n      pop\n        /* \"#utility.yul\":25937:25941   */\n      dup1\n        /* \"#utility.yul\":25927:25935   */\n      dup7\n        /* \"#utility.yul\":25923:25942   */\n      and\n        /* \"#utility.yul\":25916:25921   */\n      dup5\n        /* \"#utility.yul\":25913:25943   */\n      or\n        /* \"#utility.yul\":25903:25943   */\n      swap3\n      pop\n        /* \"#utility.yul\":25632:25949   */\n      pop\n      pop\n        /* \"#utility.yul\":25556:25949   */\n      swap4\n      swap3\n      pop\n      pop\n      pop\n      jump\t// out\n        /* \"#utility.yul\":25955:26015   */\n    tag_205:\n        /* \"#utility.yul\":25983:25986   */\n      0x00\n        /* \"#utility.yul\":26004:26009   */\n      dup2\n        /* \"#utility.yul\":25997:26009   */\n      swap1\n      pop\n        /* \"#utility.yul\":25955:26015   */\n      swap2\n      swap1\n      pop\n      jump\t// out\n        /* \"#utility.yul\":26021:26163   */\n    tag_206:\n        /* \"#utility.yul\":26071:26080   */\n      0x00\n        /* \"#utility.yul\":26104:26157   */\n      tag_440\n        /* \"#utility.yul\":26122:26156   */\n      tag_441\n        /* \"#utility.yul\":26131:26155   */\n      tag_442\n        /* \"#utility.yul\":26149:26154   */\n      dup5\n        /* \"#utility.yul\":26131:26155   */\n      tag_158\n      jump\t// in\n    tag_442:\n        /* \"#utility.yul\":26122:26156   */\n      tag_205\n      jump\t// in\n    tag_441:\n        /* \"#utility.yul\":26104:26157   */\n      tag_158\n      jump\t// in\n    tag_440:\n        /* \"#utility.yul\":26091:26157   */\n      swap1\n      pop\n        /* \"#utility.yul\":26021:26163   */\n      swap2\n      swap1\n      pop\n      jump\t// out\n        /* \"#utility.yul\":26169:26244   */\n    tag_207:\n        /* \"#utility.yul\":26212:26215   */\n      0x00\n        /* \"#utility.yul\":26233:26238   */\n      dup2\n        /* \"#utility.yul\":26226:26238   */\n      swap1\n      pop\n        /* \"#utility.yul\":26169:26244   */\n      swap2\n      swap1\n      pop\n      jump\t// out\n        /* \"#utility.yul\":26250:26519   */\n    tag_208:\n        /* \"#utility.yul\":26360:26399   */\n      tag_445\n        /* \"#utility.yul\":26391:26398   */\n      dup4\n        /* \"#utility.yul\":26360:26399   */\n      tag_206\n      jump\t// in\n    tag_445:\n        /* \"#utility.yul\":26421:26512   */\n      tag_446\n        /* \"#utility.yul\":26470:26511   */\n      tag_447\n        /* \"#utility.yul\":26494:26510   */\n      dup3\n        /* \"#utility.yul\":26470:26511   */\n      tag_207\n      jump\t// in\n    tag_447:\n        /* \"#utility.yul\":26462:26468   */\n      dup5\n        /* \"#utility.yul\":26455:26459   */\n      dup5\n        /* \"#utility.yul\":26449:26460   */\n      sload\n        /* \"#utility.yul\":26421:26512   */\n      tag_204\n      jump\t// in\n    tag_446:\n        /* \"#utility.yul\":26415:26419   */\n      dup3\n        /* \"#utility.yul\":26408:26513   */\n      sstore\n        /* \"#utility.yul\":26326:26519   */\n      pop\n        /* \"#utility.yul\":26250:26519   */\n      pop\n      pop\n      pop\n      jump\t// out\n        /* \"#utility.yul\":26525:26598   */\n    tag_209:\n        /* \"#utility.yul\":26570:26573   */\n      0x00\n        /* \"#utility.yul\":26591:26592   */\n      0x00\n        /* \"#utility.yul\":26584:26592   */\n      swap1\n      pop\n        /* \"#utility.yul\":26525:26598   */\n      swap1\n      jump\t// out\n        /* \"#utility.yul\":26604:26793   */\n    tag_210:\n        /* \"#utility.yul\":26681:26713   */\n      tag_450\n      tag_209\n      jump\t// in\n    tag_450:\n        /* \"#utility.yul\":26722:26787   */\n      tag_451\n        /* \"#utility.yul\":26780:26786   */\n      dup2\n        /* \"#utility.yul\":26772:26778   */\n      dup5\n        /* \"#utility.yul\":26766:26770   */\n      dup5\n        /* \"#utility.yul\":26722:26787   */\n      tag_208\n      jump\t// in\n    tag_451:\n        /* \"#utility.yul\":26657:26793   */\n      pop\n        /* \"#utility.yul\":26604:26793   */\n      pop\n      pop\n      jump\t// out\n        /* \"#utility.yul\":26799:26985   */\n    tag_211:\n        /* \"#utility.yul\":26859:26979   */\n    tag_453:\n        /* \"#utility.yul\":26876:26879   */\n      dup2\n        /* \"#utility.yul\":26869:26874   */\n      dup2\n        /* \"#utility.yul\":26866:26880   */\n      lt\n        /* \"#utility.yul\":26859:26979   */\n      iszero\n      tag_455\n      jumpi\n        /* \"#utility.yul\":26930:26969   */\n      tag_456\n        /* \"#utility.yul\":26967:26968   */\n      0x00\n        /* \"#utility.yul\":26960:26965   */\n      dup3\n        /* \"#utility.yul\":26930:26969   */\n      tag_210\n      jump\t// in\n    tag_456:\n        /* \"#utility.yul\":26903:26904   */\n      0x01\n        /* \"#utility.yul\":26896:26901   */\n      dup2\n        /* \"#utility.yul\":26892:26905   */\n      add\n        /* \"#utility.yul\":26883:26905   */\n      swap1\n      pop\n        /* \"#utility.yul\":26859:26979   */\n      jump(tag_453)\n    tag_455:\n        /* \"#utility.yul\":26799:26985   */\n      pop\n      pop\n      jump\t// out\n        /* \"#utility.yul\":26991:27534   */\n    tag_212:\n        /* \"#utility.yul\":27092:27094   */\n      0x1f\n        /* \"#utility.yul\":27087:27090   */\n      dup3\n        /* \"#utility.yul\":27084:27095   */\n      gt\n        /* \"#utility.yul\":27081:27527   */\n      iszero\n      tag_458\n      jumpi\n        /* \"#utility.yul\":27126:27164   */\n      tag_459\n        /* \"#utility.yul\":27158:27163   */\n      dup2\n        /* \"#utility.yul\":27126:27164   */\n      tag_190\n      jump\t// in\n    tag_459:\n        /* \"#utility.yul\":27210:27239   */\n      tag_460\n        /* \"#utility.yul\":27228:27238   */\n      dup5\n        /* \"#utility.yul\":27210:27239   */\n      tag_202\n      jump\t// in\n    tag_460:\n        /* \"#utility.yul\":27200:27208   */\n      dup2\n        /* \"#utility.yul\":27196:27240   */\n      add\n        /* \"#utility.yul\":27393:27395   */\n      0x20\n        /* \"#utility.yul\":27381:27391   */\n      dup6\n        /* \"#utility.yul\":27378:27396   */\n      lt\n        /* \"#utility.yul\":27375:27424   */\n      iszero\n      tag_461\n      jumpi\n        /* \"#utility.yul\":27414:27422   */\n      dup2\n        /* \"#utility.yul\":27399:27422   */\n      swap1\n      pop\n        /* \"#utility.yul\":27375:27424   */\n    tag_461:\n        /* \"#utility.yul\":27437:27517   */\n      tag_462\n        /* \"#utility.yul\":27493:27515   */\n      tag_463\n        /* \"#utility.yul\":27511:27514   */\n      dup6\n        /* \"#utility.yul\":27493:27515   */\n      tag_202\n      jump\t// in\n    tag_463:\n        /* \"#utility.yul\":27483:27491   */\n      dup4\n        /* \"#utility.yul\":27479:27516   */\n      add\n        /* \"#utility.yul\":27466:27477   */\n      dup3\n        /* \"#utility.yul\":27437:27517   */\n      tag_211\n      jump\t// in\n    tag_462:\n        /* \"#utility.yul\":27096:27527   */\n      pop\n      pop\n        /* \"#utility.yul\":27081:27527   */\n    tag_458:\n        /* \"#utility.yul\":26991:27534   */\n      pop\n      pop\n      pop\n      jump\t// out\n        /* \"#utility.yul\":27540:27657   */\n    tag_213:\n        /* \"#utility.yul\":27594:27602   */\n      0x00\n        /* \"#utility.yul\":27644:27649   */\n      dup3\n        /* \"#utility.yul\":27638:27642   */\n      dup3\n        /* \"#utility.yul\":27634:27650   */\n      shr\n        /* \"#utility.yul\":27613:27650   */\n      swap1\n      pop\n        /* \"#utility.yul\":27540:27657   */\n      swap3\n      swap2\n      pop\n      pop\n      jump\t// out\n        /* \"#utility.yul\":27663:27832   */\n    tag_214:\n        /* \"#utility.yul\":27707:27713   */\n      0x00\n        /* \"#utility.yul\":27740:27791   */\n      tag_466\n        /* \"#utility.yul\":27788:27789   */\n      0x00\n        /* \"#utility.yul\":27784:27790   */\n      not\n        /* \"#utility.yul\":27776:27781   */\n      dup5\n        /* \"#utility.yul\":27773:27774   */\n      0x08\n        /* \"#utility.yul\":27769:27782   */\n      mul\n        /* \"#utility.yul\":27740:27791   */\n      tag_213\n      jump\t// in\n    tag_466:\n        /* \"#utility.yul\":27736:27792   */\n      not\n        /* \"#utility.yul\":27821:27825   */\n      dup1\n        /* \"#utility.yul\":27815:27819   */\n      dup4\n        /* \"#utility.yul\":27811:27826   */\n      and\n        /* \"#utility.yul\":27801:27826   */\n      swap2\n      pop\n        /* \"#utility.yul\":27714:27832   */\n      pop\n        /* \"#utility.yul\":27663:27832   */\n      swap3\n      swap2\n      pop\n      pop\n      jump\t// out\n        /* \"#utility.yul\":27837:28132   */\n    tag_215:\n        /* \"#utility.yul\":27913:27917   */\n      0x00\n        /* \"#utility.yul\":28059:28088   */\n      tag_468\n        /* \"#utility.yul\":28084:28087   */\n      dup4\n        /* \"#utility.yul\":28078:28082   */\n      dup4\n        /* \"#utility.yul\":28059:28088   */\n      tag_214\n      jump\t// in\n    tag_468:\n        /* \"#utility.yul\":28051:28088   */\n      swap2\n      pop\n        /* \"#utility.yul\":28121:28124   */\n      dup3\n        /* \"#utility.yul\":28118:28119   */\n      0x02\n        /* \"#utility.yul\":28114:28125   */\n      mul\n        /* \"#utility.yul\":28108:28112   */\n      dup3\n        /* \"#utility.yul\":28105:28126   */\n      or\n        /* \"#utility.yul\":28097:28126   */\n      swap1\n      pop\n        /* \"#utility.yul\":27837:28132   */\n      swap3\n      swap2\n      pop\n      pop\n      jump\t// out\n        /* \"#utility.yul\":28137:29532   */\n    tag_134:\n        /* \"#utility.yul\":28254:28291   */\n      tag_470\n        /* \"#utility.yul\":28287:28290   */\n      dup3\n        /* \"#utility.yul\":28254:28291   */\n      tag_160\n      jump\t// in\n    tag_470:\n        /* \"#utility.yul\":28356:28374   */\n      0xffffffffffffffff\n        /* \"#utility.yul\":28348:28354   */\n      dup2\n        /* \"#utility.yul\":28345:28375   */\n      gt\n        /* \"#utility.yul\":28342:28398   */\n      iszero\n      tag_471\n      jumpi\n        /* \"#utility.yul\":28378:28396   */\n      tag_472\n      tag_144\n      jump\t// in\n    tag_472:\n        /* \"#utility.yul\":28342:28398   */\n    tag_471:\n        /* \"#utility.yul\":28422:28460   */\n      tag_473\n        /* \"#utility.yul\":28454:28458   */\n      dup3\n        /* \"#utility.yul\":28448:28459   */\n      sload\n        /* \"#utility.yul\":28422:28460   */\n      tag_81\n      jump\t// in\n    tag_473:\n        /* \"#utility.yul\":28507:28574   */\n      tag_474\n        /* \"#utility.yul\":28567:28573   */\n      dup3\n        /* \"#utility.yul\":28559:28565   */\n      dup3\n        /* \"#utility.yul\":28553:28557   */\n      dup6\n        /* \"#utility.yul\":28507:28574   */\n      tag_212\n      jump\t// in\n    tag_474:\n        /* \"#utility.yul\":28601:28602   */\n      0x00\n        /* \"#utility.yul\":28625:28629   */\n      0x20\n        /* \"#utility.yul\":28612:28629   */\n      swap1\n      pop\n        /* \"#utility.yul\":28657:28659   */\n      0x1f\n        /* \"#utility.yul\":28649:28655   */\n      dup4\n        /* \"#utility.yul\":28646:28660   */\n      gt\n        /* \"#utility.yul\":28674:28675   */\n      0x01\n        /* \"#utility.yul\":28669:29287   */\n      dup2\n      eq\n      tag_476\n      jumpi\n        /* \"#utility.yul\":29331:29332   */\n      0x00\n        /* \"#utility.yul\":29348:29354   */\n      dup5\n        /* \"#utility.yul\":29345:29422   */\n      iszero\n      tag_477\n      jumpi\n        /* \"#utility.yul\":29397:29406   */\n      dup3\n        /* \"#utility.yul\":29392:29395   */\n      dup8\n        /* \"#utility.yul\":29388:29407   */\n      add\n        /* \"#utility.yul\":29382:29408   */\n      mload\n        /* \"#utility.yul\":29373:29408   */\n      swap1\n      pop\n        /* \"#utility.yul\":29345:29422   */\n    tag_477:\n        /* \"#utility.yul\":29448:29515   */\n      tag_478\n        /* \"#utility.yul\":29508:29514   */\n      dup6\n        /* \"#utility.yul\":29501:29506   */\n      dup3\n        /* \"#utility.yul\":29448:29515   */\n      tag_215\n      jump\t// in\n    tag_478:\n        /* \"#utility.yul\":29442:29446   */\n      dup7\n        /* \"#utility.yul\":29435:29516   */\n      sstore\n        /* \"#utility.yul\":29304:29526   */\n      pop\n        /* \"#utility.yul\":28639:29526   */\n      jump(tag_475)\n        /* \"#utility.yul\":28669:29287   */\n    tag_476:\n        /* \"#utility.yul\":28721:28725   */\n      0x1f\n        /* \"#utility.yul\":28717:28726   */\n      not\n        /* \"#utility.yul\":28709:28715   */\n      dup5\n        /* \"#utility.yul\":28705:28727   */\n      and\n        /* \"#utility.yul\":28755:28792   */\n      tag_479\n        /* \"#utility.yul\":28787:28791   */\n      dup7\n        /* \"#utility.yul\":28755:28792   */\n      tag_190\n      jump\t// in\n    tag_479:\n        /* \"#utility.yul\":28814:28815   */\n      0x00\n        /* \"#utility.yul\":28828:29036   */\n    tag_480:\n        /* \"#utility.yul\":28842:28849   */\n      dup3\n        /* \"#utility.yul\":28839:28840   */\n      dup2\n        /* \"#utility.yul\":28836:28850   */\n      lt\n        /* \"#utility.yul\":28828:29036   */\n      iszero\n      tag_482\n      jumpi\n        /* \"#utility.yul\":28921:28930   */\n      dup5\n        /* \"#utility.yul\":28916:28919   */\n      dup10\n        /* \"#utility.yul\":28912:28931   */\n      add\n        /* \"#utility.yul\":28906:28932   */\n      mload\n        /* \"#utility.yul\":28898:28904   */\n      dup3\n        /* \"#utility.yul\":28891:28933   */\n      sstore\n        /* \"#utility.yul\":28972:28973   */\n      0x01\n        /* \"#utility.yul\":28964:28970   */\n      dup3\n        /* \"#utility.yul\":28960:28974   */\n      add\n        /* \"#utility.yul\":28950:28974   */\n      swap2\n      pop\n        /* \"#utility.yul\":29019:29021   */\n      0x20\n        /* \"#utility.yul\":29008:29017   */\n      dup6\n        /* \"#utility.yul\":29004:29022   */\n      add\n        /* \"#utility.yul\":28991:29022   */\n      swap5\n      pop\n        /* \"#utility.yul\":28865:28869   */\n      0x20\n        /* \"#utility.yul\":28862:28863   */\n      dup2\n        /* \"#utility.yul\":28858:28870   */\n      add\n        /* \"#utility.yul\":28853:28870   */\n      swap1\n      pop\n        /* \"#utility.yul\":28828:29036   */\n      jump(tag_480)\n    tag_482:\n        /* \"#utility.yul\":29064:29070   */\n      dup7\n        /* \"#utility.yul\":29055:29062   */\n      dup4\n        /* \"#utility.yul\":29052:29071   */\n      lt\n        /* \"#utility.yul\":29049:29228   */\n      iszero\n      tag_483\n      jumpi\n        /* \"#utility.yul\":29122:29131   */\n      dup5\n        /* \"#utility.yul\":29117:29120   */\n      dup10\n        /* \"#utility.yul\":29113:29132   */\n      add\n        /* \"#utility.yul\":29107:29133   */\n      mload\n        /* \"#utility.yul\":29165:29213   */\n      tag_484\n        /* \"#utility.yul\":29207:29211   */\n      0x1f\n        /* \"#utility.yul\":29199:29205   */\n      dup10\n        /* \"#utility.yul\":29195:29212   */\n      and\n        /* \"#utility.yul\":29184:29193   */\n      dup3\n        /* \"#utility.yul\":29165:29213   */\n      tag_214\n      jump\t// in\n    tag_484:\n        /* \"#utility.yul\":29157:29163   */\n      dup4\n        /* \"#utility.yul\":29150:29214   */\n      sstore\n        /* \"#utility.yul\":29072:29228   */\n      pop\n        /* \"#utility.yul\":29049:29228   */\n    tag_483:\n        /* \"#utility.yul\":29274:29275   */\n      0x01\n        /* \"#utility.yul\":29270:29271   */\n      0x02\n        /* \"#utility.yul\":29262:29268   */\n      dup9\n        /* \"#utility.yul\":29258:29272   */\n      mul\n        /* \"#utility.yul\":29254:29276   */\n      add\n        /* \"#utility.yul\":29248:29252   */\n      dup9\n        /* \"#utility.yul\":29241:29277   */\n      sstore\n        /* \"#utility.yul\":28676:29287   */\n      pop\n      pop\n      pop\n        /* \"#utility.yul\":28639:29526   */\n    tag_475:\n      pop\n        /* \"#utility.yul\":28229:29532   */\n      pop\n      pop\n      pop\n        /* \"#utility.yul\":28137:29532   */\n      pop\n      pop\n      jump\t// out\n\n    auxdata: 0xa26469706673582212208cb266d36aaade8c2cc12c8d8d6c0e1a9a5a16fc9edde0894152cf384016295064736f6c634300081e0033\n}\n",
				"bytecode": {
					"linkReferences": {},
					"object": "6080604052348015600e575f5ffd5b50335f5f6101000a81548173ffffffffffffffffffffffffffffffffffffffff021916908373ffffffffffffffffffffffffffffffffffffffff160217905550611c838061005b5f395ff3fe608060405260043610610090575f3560e01c80636ac7693b116100585780636ac7693b1461018b57806378b4330f146101c95780638da5cb5b146101f3578063c9ebfb651461021d578063de363e651461023957610090565b80632630a079146100945780632b5ba44f146100d0578063476343ee1461010c5780635dc58d331461012257806366db84f51461014f575b5f5ffd5b34801561009f575f5ffd5b506100ba60048036038101906100b59190610ed6565b610263565b6040516100c79190610f35565b60405180910390f35b3480156100db575f5ffd5b506100f660048036038101906100f19190610fa8565b610290565b6040516101039190610f35565b60405180910390f35b348015610117575f5ffd5b506101206102a5565b005b34801561012d575f5ffd5b506101366103fe565b6040516101469493929190611074565b60405180910390f35b34801561015a575f5ffd5b506101756004803603810190610170919061111b565b61055b565b6040516101829190611166565b60405180910390f35b348015610196575f5ffd5b506101b160048036038101906101ac919061111b565b610825565b6040516101c093929190611186565b60405180910390f35b3480156101d4575f5ffd5b506101dd610950565b6040516101ea91906111bb565b60405180910390f35b3480156101fe575f5ffd5b50610207610955565b60405161021491906111d4565b60405180910390f35b61023760048036038101906102329190611217565b610979565b005b348015610244575f5ffd5b5061024d610d7e565b60405161025a91906111bb565b60405180910390f35b6002818051602081018201805184825260208301602085012081835280955050505050505f915090505481565b6003602052805f5260405f205f915090505481565b5f5f9054906101000a900473ffffffffffffffffffffffffffffffffffffffff1673ffffffffffffffffffffffffffffffffffffffff163373ffffffffffffffffffffffffffffffffffffffff1614610333576040517f08c379a000000000000000000000000000000000000000000000000000000000815260040161032a906112f2565b60405180910390fd5b5f5f5f9054906101000a900473ffffffffffffffffffffffffffffffffffffffff1673ffffffffffffffffffffffffffffffffffffffff16476040516103789061133d565b5f6040518083038185875af1925050503d805f81146103b2576040519150601f19603f3d011682016040523d82523d5f602084013e6103b7565b606091505b50509050806103fb576040517f08c379a00000000000000000000000000000000000000000000000000000000081526004016103f29061139b565b60405180910390fd5b50565b5f5f60605f5f60035f3373ffffffffffffffffffffffffffffffffffffffff1673ffffffffffffffffffffffffffffffffffffffff1681526020019081526020015f205490505f5f1b810361046e575f5f5f60405180602001604052805f81525090945094509450945050610555565b5f60015f8381526020019081526020015f209050806001015f9054906101000a900473ffffffffffffffffffffffffffffffffffffffff16816002015482600301836004015f9054906101000a900460ff168180546104cc906113e6565b80601f01602080910402602001604051908101604052809291908181526020018280546104f8906113e6565b80156105435780601f1061051a57610100808354040283529160200191610543565b820191905f5260205f20905b81548152906001019060200180831161052657829003601f168201915b50505050509150955095509550955050505b90919293565b60605f8383604051602001610571929190611444565b6040516020818303038152906040528051906020012090505f60015f8381526020019081526020015f2090505f8160020154116105e3576040517f08c379a00000000000000000000000000000000000000000000000000000000081526004016105da906114cc565b60405180910390fd5b3373ffffffffffffffffffffffffffffffffffffffff16816001015f9054906101000a900473ffffffffffffffffffffffffffffffffffffffff1673ffffffffffffffffffffffffffffffffffffffff1614610674576040517f08c379a000000000000000000000000000000000000000000000000000000000815260040161066b9061155a565b60405180910390fd5b6078816002015461068591906115a5565b4210156106c7576040517f08c379a00000000000000000000000000000000000000000000000000000000081526004016106be90611622565b60405180910390fd5b806004015f9054906101000a900460ff1615610718576040517f08c379a000000000000000000000000000000000000000000000000000000000815260040161070f906116b0565b60405180910390fd5b6001816004015f6101000a81548160ff02191690831515021790555081816003016040516107469190611760565b60405180910390203373ffffffffffffffffffffffffffffffffffffffff167f1137feff3c3d986900522fcd8773e9b0e87acea41789cec1e54d173bfff9196560405160405180910390a4805f01805461079f906113e6565b80601f01602080910402602001604051908101604052809291908181526020018280546107cb906113e6565b80156108165780601f106107ed57610100808354040283529160200191610816565b820191905f5260205f20905b8154815290600101906020018083116107f957829003601f168201915b50505050509250505092915050565b5f5f5f5f5f9054906101000a900473ffffffffffffffffffffffffffffffffffffffff1673ffffffffffffffffffffffffffffffffffffffff163373ffffffffffffffffffffffffffffffffffffffff16146108b6576040517f08c379a00000000000000000000000000000000000000000000000000000000081526004016108ad906112f2565b60405180910390fd5b5f600286866040516108c9929190611444565b90815260200160405180910390205490505f5f1b81036108f2575f5f5f93509350935050610949565b5f60015f8381526020019081526020015f209050806001015f9054906101000a900473ffffffffffffffffffffffffffffffffffffffff168160020154826004015f9054906101000a900460ff1694509450945050505b9250925092565b607881565b5f5f9054906101000a900473ffffffffffffffffffffffffffffffffffffffff1681565b66038d7ea4c6800034146109c2576040517f08c379a00000000000000000000000000000000000000000000000000000000081526004016109b9906117c0565b60405180910390fd5b5f8282905011610a07576040517f08c379a00000000000000000000000000000000000000000000000000000000081526004016109fe90611828565b60405180910390fd5b5f60015f8781526020019081526020015f206002015414610a5d576040517f08c379a0000000000000000000000000000000000000000000000000000000008152600401610a54906118b6565b60405180910390fd5b5f5f1b60028383604051610a72929190611444565b90815260200160405180910390205414610ac1576040517f08c379a0000000000000000000000000000000000000000000000000000000008152600401610ab890611944565b60405180910390fd5b5f5f1b60035f3373ffffffffffffffffffffffffffffffffffffffff1673ffffffffffffffffffffffffffffffffffffffff1681526020019081526020015f205414610b42576040517f08c379a0000000000000000000000000000000000000000000000000000000008152600401610b39906119d2565b60405180910390fd5b6040518060a0016040528085858080601f0160208091040260200160405190810160405280939291908181526020018383808284375f81840152601f19601f8201169050808301925050505050505081526020013373ffffffffffffffffffffffffffffffffffffffff16815260200142815260200183838080601f0160208091040260200160405190810160405280939291908181526020018383808284375f81840152601f19601f8201169050808301925050505050505081526020015f151581525060015f8781526020019081526020015f205f820151815f019081610c2b9190611b7e565b506020820151816001015f6101000a81548173ffffffffffffffffffffffffffffffffffffffff021916908373ffffffffffffffffffffffffffffffffffffffff160217905550604082015181600201556060820151816003019081610c919190611b7e565b506080820151816004015f6101000a81548160ff0219169083151502179055509050508460028383604051610cc7929190611444565b9081526020016040518091039020819055508460035f3373ffffffffffffffffffffffffffffffffffffffff1673ffffffffffffffffffffffffffffffffffffffff1681526020019081526020015f2081905550848282604051610d2c929190611444565b60405180910390203373ffffffffffffffffffffffffffffffffffffffff167f0cf6434d38fab8f5b263d427590ca3e558332c0b0b884aecdca567fc953ff0b460405160405180910390a45050505050565b66038d7ea4c6800081565b5f604051905090565b5f5ffd5b5f5ffd5b5f5ffd5b5f5ffd5b5f601f19601f8301169050919050565b7f4e487b71000000000000000000000000000000000000000000000000000000005f52604160045260245ffd5b610de882610da2565b810181811067ffffffffffffffff82111715610e0757610e06610db2565b5b80604052505050565b5f610e19610d89565b9050610e258282610ddf565b919050565b5f67ffffffffffffffff821115610e4457610e43610db2565b5b610e4d82610da2565b9050602081019050919050565b828183375f83830152505050565b5f610e7a610e7584610e2a565b610e10565b905082815260208101848484011115610e9657610e95610d9e565b5b610ea1848285610e5a565b509392505050565b5f82601f830112610ebd57610ebc610d9a565b5b8135610ecd848260208601610e68565b91505092915050565b5f60208284031215610eeb57610eea610d92565b5b5f82013567ffffffffffffffff811115610f0857610f07610d96565b5b610f1484828501610ea9565b91505092915050565b5f819050919050565b610f2f81610f1d565b82525050565b5f602082019050610f485f830184610f26565b92915050565b5f73ffffffffffffffffffffffffffffffffffffffff82169050919050565b5f610f7782610f4e565b9050919050565b610f8781610f6d565b8114610f91575f5ffd5b50565b5f81359050610fa281610f7e565b92915050565b5f60208284031215610fbd57610fbc610d92565b5b5f610fca84828501610f94565b91505092915050565b610fdc81610f6d565b82525050565b5f819050919050565b610ff481610fe2565b82525050565b5f81519050919050565b5f82825260208201905092915050565b8281835e5f83830152505050565b5f61102c82610ffa565b6110368185611004565b9350611046818560208601611014565b61104f81610da2565b840191505092915050565b5f8115159050919050565b61106e8161105a565b82525050565b5f6080820190506110875f830187610fd3565b6110946020830186610feb565b81810360408301526110a68185611022565b90506110b56060830184611065565b95945050505050565b5f5ffd5b5f5ffd5b5f5f83601f8401126110db576110da610d9a565b5b8235905067ffffffffffffffff8111156110f8576110f76110be565b5b602083019150836001820283011115611114576111136110c2565b5b9250929050565b5f5f6020838503121561113157611130610d92565b5b5f83013567ffffffffffffffff81111561114e5761114d610d96565b5b61115a858286016110c6565b92509250509250929050565b5f6020820190508181035f83015261117e8184611022565b905092915050565b5f6060820190506111995f830186610fd3565b6111a66020830185610feb565b6111b36040830184611065565b949350505050565b5f6020820190506111ce5f830184610feb565b92915050565b5f6020820190506111e75f830184610fd3565b92915050565b6111f681610f1d565b8114611200575f5ffd5b50565b5f81359050611211816111ed565b92915050565b5f5f5f5f5f606086880312156112305761122f610d92565b5b5f61123d88828901611203565b955050602086013567ffffffffffffffff81111561125e5761125d610d96565b5b61126a888289016110c6565b9450945050604086013567ffffffffffffffff81111561128d5761128c610d96565b5b611299888289016110c6565b92509250509295509295909350565b7f43616c6c6572206973206e6f7420746865206f776e65720000000000000000005f82015250565b5f6112dc601783611004565b91506112e7826112a8565b602082019050919050565b5f6020820190508181035f830152611309816112d0565b9050919050565b5f81905092915050565b50565b5f6113285f83611310565b91506113338261131a565b5f82019050919050565b5f6113478261131d565b9150819050919050565b7f4661696c656420746f2073656e642045746865720000000000000000000000005f82015250565b5f611385601483611004565b915061139082611351565b602082019050919050565b5f6020820190508181035f8301526113b281611379565b9050919050565b7f4e487b71000000000000000000000000000000000000000000000000000000005f52602260045260245ffd5b5f60028204905060018216806113fd57607f821691505b6020821081036114105761140f6113b9565b5b50919050565b5f81905092915050565b5f61142b8385611416565b9350611438838584610e5a565b82840190509392505050565b5f611450828486611420565b91508190509392505050565b7f4e6f207375626d697373696f6e20666f756e6420666f722074686973207061735f8201527f73776f7264000000000000000000000000000000000000000000000000000000602082015250565b5f6114b6602583611004565b91506114c18261145c565b604082019050919050565b5f6020820190508181035f8301526114e3816114aa565b9050919050565b7f596f7520617265206e6f7420746865206f776e6572206f6620746869732073755f8201527f626d697373696f6e000000000000000000000000000000000000000000000000602082015250565b5f611544602883611004565b915061154f826114ea565b604082019050919050565b5f6020820190508181035f83015261157181611538565b9050919050565b7f4e487b71000000000000000000000000000000000000000000000000000000005f52601160045260245ffd5b5f6115af82610fe2565b91506115ba83610fe2565b92508282019050808211156115d2576115d1611578565b5b92915050565b7f54696d65206c6f636b20686173206e6f742065787069726564000000000000005f82015250565b5f61160c601983611004565b9150611617826115d8565b602082019050919050565b5f6020820190508181035f83015261163981611600565b9050919050565b7f5375626d697373696f6e2068617320616c7265616479206265656e20636c61695f8201527f6d65640000000000000000000000000000000000000000000000000000000000602082015250565b5f61169a602383611004565b91506116a582611640565b604082019050919050565b5f6020820190508181035f8301526116c78161168e565b9050919050565b5f819050815f5260205f209050919050565b5f81546116ec816113e6565b6116f68186611416565b9450600182165f8114611710576001811461172557611757565b60ff1983168652811515820286019350611757565b61172e856116ce565b5f5b8381101561174f57815481890152600182019150602081019050611730565b838801955050505b50505092915050565b5f61176b82846116e0565b915081905092915050565b7f496e636f7272656374206465706f736974206665652073656e740000000000005f82015250565b5f6117aa601a83611004565b91506117b582611776565b602082019050919050565b5f6020820190508181035f8301526117d78161179e565b9050919050565b7f53747564656e742049442063616e6e6f7420626520656d7074790000000000005f82015250565b5f611812601a83611004565b915061181d826117de565b602082019050919050565b5f6020820190508181035f83015261183f81611806565b9050919050565b7f546869732070617373776f72642068617320616c7265616479206265656e20755f8201527f7365640000000000000000000000000000000000000000000000000000000000602082015250565b5f6118a0602383611004565b91506118ab82611846565b604082019050919050565b5f6020820190508181035f8301526118cd81611894565b9050919050565b7f546869732073747564656e742049442068617320616c7265616479206265656e5f8201527f207375626d697474656400000000000000000000000000000000000000000000602082015250565b5f61192e602a83611004565b9150611939826118d4565b604082019050919050565b5f6020820190508181035f83015261195b81611922565b9050919050565b7f5468697320616464726573732068617320616c7265616479207375626d6974745f8201527f6564000000000000000000000000000000000000000000000000000000000000602082015250565b5f6119bc602283611004565b91506119c782611962565b604082019050919050565b5f6020820190508181035f8301526119e9816119b0565b9050919050565b5f6020601f8301049050919050565b5f82821b905092915050565b5f60088302611a3a7fffffffffffffffffffffffffffffffffffffffffffffffffffffffffffffffff826119ff565b611a4486836119ff565b95508019841693508086168417925050509392505050565b5f819050919050565b5f611a7f611a7a611a7584610fe2565b611a5c565b610fe2565b9050919050565b5f819050919050565b611a9883611a65565b611aac611aa482611a86565b848454611a0b565b825550505050565b5f5f905090565b611ac3611ab4565b611ace818484611a8f565b505050565b5b81811015611af157611ae65f82611abb565b600181019050611ad4565b5050565b601f821115611b3657611b07816116ce565b611b10846119f0565b81016020851015611b1f578190505b611b33611b2b856119f0565b830182611ad3565b50505b505050565b5f82821c905092915050565b5f611b565f1984600802611b3b565b1980831691505092915050565b5f611b6e8383611b47565b9150826002028217905092915050565b611b8782610ffa565b67ffffffffffffffff811115611ba057611b9f610db2565b5b611baa82546113e6565b611bb5828285611af5565b5f60209050601f831160018114611be6575f8415611bd4578287015190505b611bde8582611b63565b865550611c45565b601f198416611bf4866116ce565b5f5b82811015611c1b57848901518255600182019150602085019450602081019050611bf6565b86831015611c385784890151611c34601f891682611b47565b8355505b6001600288020188555050505b50505050505056fea26469706673582212208cb266d36aaade8c2cc12c8d8d6c0e1a9a5a16fc9edde0894152cf384016295064736f6c634300081e0033",
					"opcodes": "PUSH1 0x80 PUSH1 0x40 MSTORE CALLVALUE DUP1 ISZERO PUSH1 0xE JUMPI PUSH0 PUSH0 REVERT JUMPDEST POP CALLER PUSH0 PUSH0 PUSH2 0x100 EXP DUP2 SLOAD DUP2 PUSH20 0xFFFFFFFFFFFFFFFFFFFFFFFFFFFFFFFFFFFFFFFF MUL NOT AND SWAP1 DUP4 PUSH20 0xFFFFFFFFFFFFFFFFFFFFFFFFFFFFFFFFFFFFFFFF AND MUL OR SWAP1 SSTORE POP PUSH2 0x1C83 DUP1 PUSH2 0x5B PUSH0 CODECOPY PUSH0 RETURN INVALID PUSH1 0x80 PUSH1 0x40 MSTORE PUSH1 0x4 CALLDATASIZE LT PUSH2 0x90 JUMPI PUSH0 CALLDATALOAD PUSH1 0xE0 SHR DUP1 PUSH4 0x6AC7693B GT PUSH2 0x58 JUMPI DUP1 PUSH4 0x6AC7693B EQ PUSH2 0x18B JUMPI DUP1 PUSH4 0x78B4330F EQ PUSH2 0x1C9 JUMPI DUP1 PUSH4 0x8DA5CB5B EQ PUSH2 0x1F3 JUMPI DUP1 PUSH4 0xC9EBFB65 EQ PUSH2 0x21D JUMPI DUP1 PUSH4 0xDE363E65 EQ PUSH2 0x239 JUMPI PUSH2 0x90 JUMP JUMPDEST DUP1 PUSH4 0x2630A079 EQ PUSH2 0x94 JUMPI DUP1 PUSH4 0x2B5BA44F EQ PUSH2 0xD0 JUMPI DUP1 PUSH4 0x476343EE EQ PUSH2 0x10C JUMPI DUP1 PUSH4 0x5DC58D33 EQ PUSH2 0x122 JUMPI DUP1 PUSH4 0x66DB84F5 EQ PUSH2 0x14F JUMPI JUMPDEST PUSH0 PUSH0 REVERT JUMPDEST CALLVALUE DUP1 ISZERO PUSH2 0x9F JUMPI PUSH0 PUSH0 REVERT JUMPDEST POP PUSH2 0xBA PUSH1 0x4 DUP1 CALLDATASIZE SUB DUP2 ADD SWAP1 PUSH2 0xB5 SWAP2 SWAP1 PUSH2 0xED6 JUMP JUMPDEST PUSH2 0x263 JUMP JUMPDEST PUSH1 0x40 MLOAD PUSH2 0xC7 SWAP2 SWAP1 PUSH2 0xF35 JUMP JUMPDEST PUSH1 0x40 MLOAD DUP1 SWAP2 SUB SWAP1 RETURN JUMPDEST CALLVALUE DUP1 ISZERO PUSH2 0xDB JUMPI PUSH0 PUSH0 REVERT JUMPDEST POP PUSH2 0xF6 PUSH1 0x4 DUP1 CALLDATASIZE SUB DUP2 ADD SWAP1 PUSH2 0xF1 SWAP2 SWAP1 PUSH2 0xFA8 JUMP JUMPDEST PUSH2 0x290 JUMP JUMPDEST PUSH1 0x40 MLOAD PUSH2 0x103 SWAP2 SWAP1 PUSH2 0xF35 JUMP JUMPDEST PUSH1 0x40 MLOAD DUP1 SWAP2 SUB SWAP1 RETURN JUMPDEST CALLVALUE DUP1 ISZERO PUSH2 0x117 JUMPI PUSH0 PUSH0 REVERT JUMPDEST POP PUSH2 0x120 PUSH2 0x2A5 JUMP JUMPDEST STOP JUMPDEST CALLVALUE DUP1 ISZERO PUSH2 0x12D JUMPI PUSH0 PUSH0 REVERT JUMPDEST POP PUSH2 0x136 PUSH2 0x3FE JUMP JUMPDEST PUSH1 0x40 MLOAD PUSH2 0x146 SWAP5 SWAP4 SWAP3 SWAP2 SWAP1 PUSH2 0x1074 JUMP JUMPDEST PUSH1 0x40 MLOAD DUP1 SWAP2 SUB SWAP1 RETURN JUMPDEST CALLVALUE DUP1 ISZERO PUSH2 0x15A JUMPI PUSH0 PUSH0 REVERT JUMPDEST POP PUSH2 0x175 PUSH1 0x4 DUP1 CALLDATASIZE SUB DUP2 ADD SWAP1 PUSH2 0x170 SWAP2 SWAP1 PUSH2 0x111B JUMP JUMPDEST PUSH2 0x55B JUMP JUMPDEST PUSH1 0x40 MLOAD PUSH2 0x182 SWAP2 SWAP1 PUSH2 0x1166 JUMP JUMPDEST PUSH1 0x40 MLOAD DUP1 SWAP2 SUB SWAP1 RETURN JUMPDEST CALLVALUE DUP1 ISZERO PUSH2 0x196 JUMPI PUSH0 PUSH0 REVERT JUMPDEST POP PUSH2 0x1B1 PUSH1 0x4 DUP1 CALLDATASIZE SUB DUP2 ADD SWAP1 PUSH2 0x1AC SWAP2 SWAP1 PUSH2 0x111B JUMP JUMPDEST PUSH2 0x825 JUMP JUMPDEST PUSH1 0x40 MLOAD PUSH2 0x1C0 SWAP4 SWAP3 SWAP2 SWAP1 PUSH2 0x1186 JUMP JUMPDEST PUSH1 0x40 MLOAD DUP1 SWAP2 SUB SWAP1 RETURN JUMPDEST CALLVALUE DUP1 ISZERO PUSH2 0x1D4 JUMPI PUSH0 PUSH0 REVERT JUMPDEST POP PUSH2 0x1DD PUSH2 0x950 JUMP JUMPDEST PUSH1 0x40 MLOAD PUSH2 0x1EA SWAP2 SWAP1 PUSH2 0x11BB JUMP JUMPDEST PUSH1 0x40 MLOAD DUP1 SWAP2 SUB SWAP1 RETURN JUMPDEST CALLVALUE DUP1 ISZERO PUSH2 0x1FE JUMPI PUSH0 PUSH0 REVERT JUMPDEST POP PUSH2 0x207 PUSH2 0x955 JUMP JUMPDEST PUSH1 0x40 MLOAD PUSH2 0x214 SWAP2 SWAP1 PUSH2 0x11D4 JUMP JUMPDEST PUSH1 0x40 MLOAD DUP1 SWAP2 SUB SWAP1 RETURN JUMPDEST PUSH2 0x237 PUSH1 0x4 DUP1 CALLDATASIZE SUB DUP2 ADD SWAP1 PUSH2 0x232 SWAP2 SWAP1 PUSH2 0x1217 JUMP JUMPDEST PUSH2 0x979 JUMP JUMPDEST STOP JUMPDEST CALLVALUE DUP1 ISZERO PUSH2 0x244 JUMPI PUSH0 PUSH0 REVERT JUMPDEST POP PUSH2 0x24D PUSH2 0xD7E JUMP JUMPDEST PUSH1 0x40 MLOAD PUSH2 0x25A SWAP2 SWAP1 PUSH2 0x11BB JUMP JUMPDEST PUSH1 0x40 MLOAD DUP1 SWAP2 SUB SWAP1 RETURN JUMPDEST PUSH1 0x2 DUP2 DUP1 MLOAD PUSH1 0x20 DUP2 ADD DUP3 ADD DUP1 MLOAD DUP5 DUP3 MSTORE PUSH1 0x20 DUP4 ADD PUSH1 0x20 DUP6 ADD KECCAK256 DUP2 DUP4 MSTORE DUP1 SWAP6 POP POP POP POP POP POP PUSH0 SWAP2 POP SWAP1 POP SLOAD DUP2 JUMP JUMPDEST PUSH1 0x3 PUSH1 0x20 MSTORE DUP1 PUSH0 MSTORE PUSH1 0x40 PUSH0 KECCAK256 PUSH0 SWAP2 POP SWAP1 POP SLOAD DUP2 JUMP JUMPDEST PUSH0 PUSH0 SWAP1 SLOAD SWAP1 PUSH2 0x100 EXP SWAP1 DIV PUSH20 0xFFFFFFFFFFFFFFFFFFFFFFFFFFFFFFFFFFFFFFFF AND PUSH20 0xFFFFFFFFFFFFFFFFFFFFFFFFFFFFFFFFFFFFFFFF AND CALLER PUSH20 0xFFFFFFFFFFFFFFFFFFFFFFFFFFFFFFFFFFFFFFFF AND EQ PUSH2 0x333 JUMPI PUSH1 0x40 MLOAD PUSH32 0x8C379A000000000000000000000000000000000000000000000000000000000 DUP2 MSTORE PUSH1 0x4 ADD PUSH2 0x32A SWAP1 PUSH2 0x12F2 JUMP JUMPDEST PUSH1 0x40 MLOAD DUP1 SWAP2 SUB SWAP1 REVERT JUMPDEST PUSH0 PUSH0 PUSH0 SWAP1 SLOAD SWAP1 PUSH2 0x100 EXP SWAP1 DIV PUSH20 0xFFFFFFFFFFFFFFFFFFFFFFFFFFFFFFFFFFFFFFFF AND PUSH20 0xFFFFFFFFFFFFFFFFFFFFFFFFFFFFFFFFFFFFFFFF AND SELFBALANCE PUSH1 0x40 MLOAD PUSH2 0x378 SWAP1 PUSH2 0x133D JUMP JUMPDEST PUSH0 PUSH1 0x40 MLOAD DUP1 DUP4 SUB DUP2 DUP6 DUP8 GAS CALL SWAP3 POP POP POP RETURNDATASIZE DUP1 PUSH0 DUP2 EQ PUSH2 0x3B2 JUMPI PUSH1 0x40 MLOAD SWAP2 POP PUSH1 0x1F NOT PUSH1 0x3F RETURNDATASIZE ADD AND DUP3 ADD PUSH1 0x40 MSTORE RETURNDATASIZE DUP3 MSTORE RETURNDATASIZE PUSH0 PUSH1 0x20 DUP5 ADD RETURNDATACOPY PUSH2 0x3B7 JUMP JUMPDEST PUSH1 0x60 SWAP2 POP JUMPDEST POP POP SWAP1 POP DUP1 PUSH2 0x3FB JUMPI PUSH1 0x40 MLOAD PUSH32 0x8C379A000000000000000000000000000000000000000000000000000000000 DUP2 MSTORE PUSH1 0x4 ADD PUSH2 0x3F2 SWAP1 PUSH2 0x139B JUMP JUMPDEST PUSH1 0x40 MLOAD DUP1 SWAP2 SUB SWAP1 REVERT JUMPDEST POP JUMP JUMPDEST PUSH0 PUSH0 PUSH1 0x60 PUSH0 PUSH0 PUSH1 0x3 PUSH0 CALLER PUSH20 0xFFFFFFFFFFFFFFFFFFFFFFFFFFFFFFFFFFFFFFFF AND PUSH20 0xFFFFFFFFFFFFFFFFFFFFFFFFFFFFFFFFFFFFFFFF AND DUP2 MSTORE PUSH1 0x20 ADD SWAP1 DUP2 MSTORE PUSH1 0x20 ADD PUSH0 KECCAK256 SLOAD SWAP1 POP PUSH0 PUSH0 SHL DUP2 SUB PUSH2 0x46E JUMPI PUSH0 PUSH0 PUSH0 PUSH1 0x40 MLOAD DUP1 PUSH1 0x20 ADD PUSH1 0x40 MSTORE DUP1 PUSH0 DUP2 MSTORE POP SWAP1 SWAP5 POP SWAP5 POP SWAP5 POP SWAP5 POP POP PUSH2 0x555 JUMP JUMPDEST PUSH0 PUSH1 0x1 PUSH0 DUP4 DUP2 MSTORE PUSH1 0x20 ADD SWAP1 DUP2 MSTORE PUSH1 0x20 ADD PUSH0 KECCAK256 SWAP1 POP DUP1 PUSH1 0x1 ADD PUSH0 SWAP1 SLOAD SWAP1 PUSH2 0x100 EXP SWAP1 DIV PUSH20 0xFFFFFFFFFFFFFFFFFFFFFFFFFFFFFFFFFFFFFFFF AND DUP2 PUSH1 0x2 ADD SLOAD DUP3 PUSH1 0x3 ADD DUP4 PUSH1 0x4 ADD PUSH0 SWAP1 SLOAD SWAP1 PUSH2 0x100 EXP SWAP1 DIV PUSH1 0xFF AND DUP2 DUP1 SLOAD PUSH2 0x4CC SWAP1 PUSH2 0x13E6 JUMP JUMPDEST DUP1 PUSH1 0x1F ADD PUSH1 0x20 DUP1 SWAP2 DIV MUL PUSH1 0x20 ADD PUSH1 0x40 MLOAD SWAP1 DUP2 ADD PUSH1 0x40 MSTORE DUP1 SWAP3 SWAP2 SWAP1 DUP2 DUP2 MSTORE PUSH1 0x20 ADD DUP3 DUP1 SLOAD PUSH2 0x4F8 SWAP1 PUSH2 0x13E6 JUMP JUMPDEST DUP1 ISZERO PUSH2 0x543 JUMPI DUP1 PUSH1 0x1F LT PUSH2 0x51A JUMPI PUSH2 0x100 DUP1 DUP4 SLOAD DIV MUL DUP4 MSTORE SWAP2 PUSH1 0x20 ADD SWAP2 PUSH2 0x543 JUMP JUMPDEST DUP3 ADD SWAP2 SWAP1 PUSH0 MSTORE PUSH1 0x20 PUSH0 KECCAK256 SWAP1 JUMPDEST DUP2 SLOAD DUP2 MSTORE SWAP1 PUSH1 0x1 ADD SWAP1 PUSH1 0x20 ADD DUP1 DUP4 GT PUSH2 0x526 JUMPI DUP3 SWAP1 SUB PUSH1 0x1F AND DUP3 ADD SWAP2 JUMPDEST POP POP POP POP POP SWAP2 POP SWAP6 POP SWAP6 POP SWAP6 POP SWAP6 POP POP POP JUMPDEST SWAP1 SWAP2 SWAP3 SWAP4 JUMP JUMPDEST PUSH1 0x60 PUSH0 DUP4 DUP4 PUSH1 0x40 MLOAD PUSH1 0x20 ADD PUSH2 0x571 SWAP3 SWAP2 SWAP1 PUSH2 0x1444 JUMP JUMPDEST PUSH1 0x40 MLOAD PUSH1 0x20 DUP2 DUP4 SUB SUB DUP2 MSTORE SWAP1 PUSH1 0x40 MSTORE DUP1 MLOAD SWAP1 PUSH1 0x20 ADD KECCAK256 SWAP1 POP PUSH0 PUSH1 0x1 PUSH0 DUP4 DUP2 MSTORE PUSH1 0x20 ADD SWAP1 DUP2 MSTORE PUSH1 0x20 ADD PUSH0 KECCAK256 SWAP1 POP PUSH0 DUP2 PUSH1 0x2 ADD SLOAD GT PUSH2 0x5E3 JUMPI PUSH1 0x40 MLOAD PUSH32 0x8C379A000000000000000000000000000000000000000000000000000000000 DUP2 MSTORE PUSH1 0x4 ADD PUSH2 0x5DA SWAP1 PUSH2 0x14CC JUMP JUMPDEST PUSH1 0x40 MLOAD DUP1 SWAP2 SUB SWAP1 REVERT JUMPDEST CALLER PUSH20 0xFFFFFFFFFFFFFFFFFFFFFFFFFFFFFFFFFFFFFFFF AND DUP2 PUSH1 0x1 ADD PUSH0 SWAP1 SLOAD SWAP1 PUSH2 0x100 EXP SWAP1 DIV PUSH20 0xFFFFFFFFFFFFFFFFFFFFFFFFFFFFFFFFFFFFFFFF AND PUSH20 0xFFFFFFFFFFFFFFFFFFFFFFFFFFFFFFFFFFFFFFFF AND EQ PUSH2 0x674 JUMPI PUSH1 0x40 MLOAD PUSH32 0x8C379A000000000000000000000000000000000000000000000000000000000 DUP2 MSTORE PUSH1 0x4 ADD PUSH2 0x66B SWAP1 PUSH2 0x155A JUMP JUMPDEST PUSH1 0x40 MLOAD DUP1 SWAP2 SUB SWAP1 REVERT JUMPDEST PUSH1 0x78 DUP2 PUSH1 0x2 ADD SLOAD PUSH2 0x685 SWAP2 SWAP1 PUSH2 0x15A5 JUMP JUMPDEST TIMESTAMP LT ISZERO PUSH2 0x6C7 JUMPI PUSH1 0x40 MLOAD PUSH32 0x8C379A000000000000000000000000000000000000000000000000000000000 DUP2 MSTORE PUSH1 0x4 ADD PUSH2 0x6BE SWAP1 PUSH2 0x1622 JUMP JUMPDEST PUSH1 0x40 MLOAD DUP1 SWAP2 SUB SWAP1 REVERT JUMPDEST DUP1 PUSH1 0x4 ADD PUSH0 SWAP1 SLOAD SWAP1 PUSH2 0x100 EXP SWAP1 DIV PUSH1 0xFF AND ISZERO PUSH2 0x718 JUMPI PUSH1 0x40 MLOAD PUSH32 0x8C379A000000000000000000000000000000000000000000000000000000000 DUP2 MSTORE PUSH1 0x4 ADD PUSH2 0x70F SWAP1 PUSH2 0x16B0 JUMP JUMPDEST PUSH1 0x40 MLOAD DUP1 SWAP2 SUB SWAP1 REVERT JUMPDEST PUSH1 0x1 DUP2 PUSH1 0x4 ADD PUSH0 PUSH2 0x100 EXP DUP2 SLOAD DUP2 PUSH1 0xFF MUL NOT AND SWAP1 DUP4 ISZERO ISZERO MUL OR SWAP1 SSTORE POP DUP2 DUP2 PUSH1 0x3 ADD PUSH1 0x40 MLOAD PUSH2 0x746 SWAP2 SWAP1 PUSH2 0x1760 JUMP JUMPDEST PUSH1 0x40 MLOAD DUP1 SWAP2 SUB SWAP1 KECCAK256 CALLER PUSH20 0xFFFFFFFFFFFFFFFFFFFFFFFFFFFFFFFFFFFFFFFF AND PUSH32 0x1137FEFF3C3D986900522FCD8773E9B0E87ACEA41789CEC1E54D173BFFF91965 PUSH1 0x40 MLOAD PUSH1 0x40 MLOAD DUP1 SWAP2 SUB SWAP1 LOG4 DUP1 PUSH0 ADD DUP1 SLOAD PUSH2 0x79F SWAP1 PUSH2 0x13E6 JUMP JUMPDEST DUP1 PUSH1 0x1F ADD PUSH1 0x20 DUP1 SWAP2 DIV MUL PUSH1 0x20 ADD PUSH1 0x40 MLOAD SWAP1 DUP2 ADD PUSH1 0x40 MSTORE DUP1 SWAP3 SWAP2 SWAP1 DUP2 DUP2 MSTORE PUSH1 0x20 ADD DUP3 DUP1 SLOAD PUSH2 0x7CB SWAP1 PUSH2 0x13E6 JUMP JUMPDEST DUP1 ISZERO PUSH2 0x816 JUMPI DUP1 PUSH1 0x1F LT PUSH2 0x7ED JUMPI PUSH2 0x100 DUP1 DUP4 SLOAD DIV MUL DUP4 MSTORE SWAP2 PUSH1 0x20 ADD SWAP2 PUSH2 0x816 JUMP JUMPDEST DUP3 ADD SWAP2 SWAP1 PUSH0 MSTORE PUSH1 0x20 PUSH0 KECCAK256 SWAP1 JUMPDEST DUP2 SLOAD DUP2 MSTORE SWAP1 PUSH1 0x1 ADD SWAP1 PUSH1 0x20 ADD DUP1 DUP4 GT PUSH2 0x7F9 JUMPI DUP3 SWAP1 SUB PUSH1 0x1F AND DUP3 ADD SWAP2 JUMPDEST POP POP POP POP POP SWAP3 POP POP POP SWAP3 SWAP2 POP POP JUMP JUMPDEST PUSH0 PUSH0 PUSH0 PUSH0 PUSH0 SWAP1 SLOAD SWAP1 PUSH2 0x100 EXP SWAP1 DIV PUSH20 0xFFFFFFFFFFFFFFFFFFFFFFFFFFFFFFFFFFFFFFFF AND PUSH20 0xFFFFFFFFFFFFFFFFFFFFFFFFFFFFFFFFFFFFFFFF AND CALLER PUSH20 0xFFFFFFFFFFFFFFFFFFFFFFFFFFFFFFFFFFFFFFFF AND EQ PUSH2 0x8B6 JUMPI PUSH1 0x40 MLOAD PUSH32 0x8C379A000000000000000000000000000000000000000000000000000000000 DUP2 MSTORE PUSH1 0x4 ADD PUSH2 0x8AD SWAP1 PUSH2 0x12F2 JUMP JUMPDEST PUSH1 0x40 MLOAD DUP1 SWAP2 SUB SWAP1 REVERT JUMPDEST PUSH0 PUSH1 0x2 DUP7 DUP7 PUSH1 0x40 MLOAD PUSH2 0x8C9 SWAP3 SWAP2 SWAP1 PUSH2 0x1444 JUMP JUMPDEST SWAP1 DUP2 MSTORE PUSH1 0x20 ADD PUSH1 0x40 MLOAD DUP1 SWAP2 SUB SWAP1 KECCAK256 SLOAD SWAP1 POP PUSH0 PUSH0 SHL DUP2 SUB PUSH2 0x8F2 JUMPI PUSH0 PUSH0 PUSH0 SWAP4 POP SWAP4 POP SWAP4 POP POP PUSH2 0x949 JUMP JUMPDEST PUSH0 PUSH1 0x1 PUSH0 DUP4 DUP2 MSTORE PUSH1 0x20 ADD SWAP1 DUP2 MSTORE PUSH1 0x20 ADD PUSH0 KECCAK256 SWAP1 POP DUP1 PUSH1 0x1 ADD PUSH0 SWAP1 SLOAD SWAP1 PUSH2 0x100 EXP SWAP1 DIV PUSH20 0xFFFFFFFFFFFFFFFFFFFFFFFFFFFFFFFFFFFFFFFF AND DUP2 PUSH1 0x2 ADD SLOAD DUP3 PUSH1 0x4 ADD PUSH0 SWAP1 SLOAD SWAP1 PUSH2 0x100 EXP SWAP1 DIV PUSH1 0xFF AND SWAP5 POP SWAP5 POP SWAP5 POP POP POP JUMPDEST SWAP3 POP SWAP3 POP SWAP3 JUMP JUMPDEST PUSH1 0x78 DUP2 JUMP JUMPDEST PUSH0 PUSH0 SWAP1 SLOAD SWAP1 PUSH2 0x100 EXP SWAP1 DIV PUSH20 0xFFFFFFFFFFFFFFFFFFFFFFFFFFFFFFFFFFFFFFFF AND DUP2 JUMP JUMPDEST PUSH7 0x38D7EA4C68000 CALLVALUE EQ PUSH2 0x9C2 JUMPI PUSH1 0x40 MLOAD PUSH32 0x8C379A000000000000000000000000000000000000000000000000000000000 DUP2 MSTORE PUSH1 0x4 ADD PUSH2 0x9B9 SWAP1 PUSH2 0x17C0 JUMP JUMPDEST PUSH1 0x40 MLOAD DUP1 SWAP2 SUB SWAP1 REVERT JUMPDEST PUSH0 DUP3 DUP3 SWAP1 POP GT PUSH2 0xA07 JUMPI PUSH1 0x40 MLOAD PUSH32 0x8C379A000000000000000000000000000000000000000000000000000000000 DUP2 MSTORE PUSH1 0x4 ADD PUSH2 0x9FE SWAP1 PUSH2 0x1828 JUMP JUMPDEST PUSH1 0x40 MLOAD DUP1 SWAP2 SUB SWAP1 REVERT JUMPDEST PUSH0 PUSH1 0x1 PUSH0 DUP8 DUP2 MSTORE PUSH1 0x20 ADD SWAP1 DUP2 MSTORE PUSH1 0x20 ADD PUSH0 KECCAK256 PUSH1 0x2 ADD SLOAD EQ PUSH2 0xA5D JUMPI PUSH1 0x40 MLOAD PUSH32 0x8C379A000000000000000000000000000000000000000000000000000000000 DUP2 MSTORE PUSH1 0x4 ADD PUSH2 0xA54 SWAP1 PUSH2 0x18B6 JUMP JUMPDEST PUSH1 0x40 MLOAD DUP1 SWAP2 SUB SWAP1 REVERT JUMPDEST PUSH0 PUSH0 SHL PUSH1 0x2 DUP4 DUP4 PUSH1 0x40 MLOAD PUSH2 0xA72 SWAP3 SWAP2 SWAP1 PUSH2 0x1444 JUMP JUMPDEST SWAP1 DUP2 MSTORE PUSH1 0x20 ADD PUSH1 0x40 MLOAD DUP1 SWAP2 SUB SWAP1 KECCAK256 SLOAD EQ PUSH2 0xAC1 JUMPI PUSH1 0x40 MLOAD PUSH32 0x8C379A000000000000000000000000000000000000000000000000000000000 DUP2 MSTORE PUSH1 0x4 ADD PUSH2 0xAB8 SWAP1 PUSH2 0x1944 JUMP JUMPDEST PUSH1 0x40 MLOAD DUP1 SWAP2 SUB SWAP1 REVERT JUMPDEST PUSH0 PUSH0 SHL PUSH1 0x3 PUSH0 CALLER PUSH20 0xFFFFFFFFFFFFFFFFFFFFFFFFFFFFFFFFFFFFFFFF AND PUSH20 0xFFFFFFFFFFFFFFFFFFFFFFFFFFFFFFFFFFFFFFFF AND DUP2 MSTORE PUSH1 0x20 ADD SWAP1 DUP2 MSTORE PUSH1 0x20 ADD PUSH0 KECCAK256 SLOAD EQ PUSH2 0xB42 JUMPI PUSH1 0x40 MLOAD PUSH32 0x8C379A000000000000000000000000000000000000000000000000000000000 DUP2 MSTORE PUSH1 0x4 ADD PUSH2 0xB39 SWAP1 PUSH2 0x19D2 JUMP JUMPDEST PUSH1 0x40 MLOAD DUP1 SWAP2 SUB SWAP1 REVERT JUMPDEST PUSH1 0x40 MLOAD DUP1 PUSH1 0xA0 ADD PUSH1 0x40 MSTORE DUP1 DUP6 DUP6 DUP1 DUP1 PUSH1 0x1F ADD PUSH1 0x20 DUP1 SWAP2 DIV MUL PUSH1 0x20 ADD PUSH1 0x40 MLOAD SWAP1 DUP2 ADD PUSH1 0x40 MSTORE DUP1 SWAP4 SWAP3 SWAP2 SWAP1 DUP2 DUP2 MSTORE PUSH1 0x20 ADD DUP4 DUP4 DUP1 DUP3 DUP5 CALLDATACOPY PUSH0 DUP2 DUP5 ADD MSTORE PUSH1 0x1F NOT PUSH1 0x1F DUP3 ADD AND SWAP1 POP DUP1 DUP4 ADD SWAP3 POP POP POP POP POP POP POP DUP2 MSTORE PUSH1 0x20 ADD CALLER PUSH20 0xFFFFFFFFFFFFFFFFFFFFFFFFFFFFFFFFFFFFFFFF AND DUP2 MSTORE PUSH1 0x20 ADD TIMESTAMP DUP2 MSTORE PUSH1 0x20 ADD DUP4 DUP4 DUP1 DUP1 PUSH1 0x1F ADD PUSH1 0x20 DUP1 SWAP2 DIV MUL PUSH1 0x20 ADD PUSH1 0x40 MLOAD SWAP1 DUP2 ADD PUSH1 0x40 MSTORE DUP1 SWAP4 SWAP3 SWAP2 SWAP1 DUP2 DUP2 MSTORE PUSH1 0x20 ADD DUP4 DUP4 DUP1 DUP3 DUP5 CALLDATACOPY PUSH0 DUP2 DUP5 ADD MSTORE PUSH1 0x1F NOT PUSH1 0x1F DUP3 ADD AND SWAP1 POP DUP1 DUP4 ADD SWAP3 POP POP POP POP POP POP POP DUP2 MSTORE PUSH1 0x20 ADD PUSH0 ISZERO ISZERO DUP2 MSTORE POP PUSH1 0x1 PUSH0 DUP8 DUP2 MSTORE PUSH1 0x20 ADD SWAP1 DUP2 MSTORE PUSH1 0x20 ADD PUSH0 KECCAK256 PUSH0 DUP3 ADD MLOAD DUP2 PUSH0 ADD SWAP1 DUP2 PUSH2 0xC2B SWAP2 SWAP1 PUSH2 0x1B7E JUMP JUMPDEST POP PUSH1 0x20 DUP3 ADD MLOAD DUP2 PUSH1 0x1 ADD PUSH0 PUSH2 0x100 EXP DUP2 SLOAD DUP2 PUSH20 0xFFFFFFFFFFFFFFFFFFFFFFFFFFFFFFFFFFFFFFFF MUL NOT AND SWAP1 DUP4 PUSH20 0xFFFFFFFFFFFFFFFFFFFFFFFFFFFFFFFFFFFFFFFF AND MUL OR SWAP1 SSTORE POP PUSH1 0x40 DUP3 ADD MLOAD DUP2 PUSH1 0x2 ADD SSTORE PUSH1 0x60 DUP3 ADD MLOAD DUP2 PUSH1 0x3 ADD SWAP1 DUP2 PUSH2 0xC91 SWAP2 SWAP1 PUSH2 0x1B7E JUMP JUMPDEST POP PUSH1 0x80 DUP3 ADD MLOAD DUP2 PUSH1 0x4 ADD PUSH0 PUSH2 0x100 EXP DUP2 SLOAD DUP2 PUSH1 0xFF MUL NOT AND SWAP1 DUP4 ISZERO ISZERO MUL OR SWAP1 SSTORE POP SWAP1 POP POP DUP5 PUSH1 0x2 DUP4 DUP4 PUSH1 0x40 MLOAD PUSH2 0xCC7 SWAP3 SWAP2 SWAP1 PUSH2 0x1444 JUMP JUMPDEST SWAP1 DUP2 MSTORE PUSH1 0x20 ADD PUSH1 0x40 MLOAD DUP1 SWAP2 SUB SWAP1 KECCAK256 DUP2 SWAP1 SSTORE POP DUP5 PUSH1 0x3 PUSH0 CALLER PUSH20 0xFFFFFFFFFFFFFFFFFFFFFFFFFFFFFFFFFFFFFFFF AND PUSH20 0xFFFFFFFFFFFFFFFFFFFFFFFFFFFFFFFFFFFFFFFF AND DUP2 MSTORE PUSH1 0x20 ADD SWAP1 DUP2 MSTORE PUSH1 0x20 ADD PUSH0 KECCAK256 DUP2 SWAP1 SSTORE POP DUP5 DUP3 DUP3 PUSH1 0x40 MLOAD PUSH2 0xD2C SWAP3 SWAP2 SWAP1 PUSH2 0x1444 JUMP JUMPDEST PUSH1 0x40 MLOAD DUP1 SWAP2 SUB SWAP1 KECCAK256 CALLER PUSH20 0xFFFFFFFFFFFFFFFFFFFFFFFFFFFFFFFFFFFFFFFF AND PUSH32 0xCF6434D38FAB8F5B263D427590CA3E558332C0B0B884AECDCA567FC953FF0B4 PUSH1 0x40 MLOAD PUSH1 0x40 MLOAD DUP1 SWAP2 SUB SWAP1 LOG4 POP POP POP POP POP JUMP JUMPDEST PUSH7 0x38D7EA4C68000 DUP2 JUMP JUMPDEST PUSH0 PUSH1 0x40 MLOAD SWAP1 POP SWAP1 JUMP JUMPDEST PUSH0 PUSH0 REVERT JUMPDEST PUSH0 PUSH0 REVERT JUMPDEST PUSH0 PUSH0 REVERT JUMPDEST PUSH0 PUSH0 REVERT JUMPDEST PUSH0 PUSH1 0x1F NOT PUSH1 0x1F DUP4 ADD AND SWAP1 POP SWAP2 SWAP1 POP JUMP JUMPDEST PUSH32 0x4E487B7100000000000000000000000000000000000000000000000000000000 PUSH0 MSTORE PUSH1 0x41 PUSH1 0x4 MSTORE PUSH1 0x24 PUSH0 REVERT JUMPDEST PUSH2 0xDE8 DUP3 PUSH2 0xDA2 JUMP JUMPDEST DUP2 ADD DUP2 DUP2 LT PUSH8 0xFFFFFFFFFFFFFFFF DUP3 GT OR ISZERO PUSH2 0xE07 JUMPI PUSH2 0xE06 PUSH2 0xDB2 JUMP JUMPDEST JUMPDEST DUP1 PUSH1 0x40 MSTORE POP POP POP JUMP JUMPDEST PUSH0 PUSH2 0xE19 PUSH2 0xD89 JUMP JUMPDEST SWAP1 POP PUSH2 0xE25 DUP3 DUP3 PUSH2 0xDDF JUMP JUMPDEST SWAP2 SWAP1 POP JUMP JUMPDEST PUSH0 PUSH8 0xFFFFFFFFFFFFFFFF DUP3 GT ISZERO PUSH2 0xE44 JUMPI PUSH2 0xE43 PUSH2 0xDB2 JUMP JUMPDEST JUMPDEST PUSH2 0xE4D DUP3 PUSH2 0xDA2 JUMP JUMPDEST SWAP1 POP PUSH1 0x20 DUP2 ADD SWAP1 POP SWAP2 SWAP1 POP JUMP JUMPDEST DUP3 DUP2 DUP4 CALLDATACOPY PUSH0 DUP4 DUP4 ADD MSTORE POP POP POP JUMP JUMPDEST PUSH0 PUSH2 0xE7A PUSH2 0xE75 DUP5 PUSH2 0xE2A JUMP JUMPDEST PUSH2 0xE10 JUMP JUMPDEST SWAP1 POP DUP3 DUP2 MSTORE PUSH1 0x20 DUP2 ADD DUP5 DUP5 DUP5 ADD GT ISZERO PUSH2 0xE96 JUMPI PUSH2 0xE95 PUSH2 0xD9E JUMP JUMPDEST JUMPDEST PUSH2 0xEA1 DUP5 DUP3 DUP6 PUSH2 0xE5A JUMP JUMPDEST POP SWAP4 SWAP3 POP POP POP JUMP JUMPDEST PUSH0 DUP3 PUSH1 0x1F DUP4 ADD SLT PUSH2 0xEBD JUMPI PUSH2 0xEBC PUSH2 0xD9A JUMP JUMPDEST JUMPDEST DUP2 CALLDATALOAD PUSH2 0xECD DUP5 DUP3 PUSH1 0x20 DUP7 ADD PUSH2 0xE68 JUMP JUMPDEST SWAP2 POP POP SWAP3 SWAP2 POP POP JUMP JUMPDEST PUSH0 PUSH1 0x20 DUP3 DUP5 SUB SLT ISZERO PUSH2 0xEEB JUMPI PUSH2 0xEEA PUSH2 0xD92 JUMP JUMPDEST JUMPDEST PUSH0 DUP3 ADD CALLDATALOAD PUSH8 0xFFFFFFFFFFFFFFFF DUP2 GT ISZERO PUSH2 0xF08 JUMPI PUSH2 0xF07 PUSH2 0xD96 JUMP JUMPDEST JUMPDEST PUSH2 0xF14 DUP5 DUP3 DUP6 ADD PUSH2 0xEA9 JUMP JUMPDEST SWAP2 POP POP SWAP3 SWAP2 POP POP JUMP JUMPDEST PUSH0 DUP2 SWAP1 POP SWAP2 SWAP1 POP JUMP JUMPDEST PUSH2 0xF2F DUP2 PUSH2 0xF1D JUMP JUMPDEST DUP3 MSTORE POP POP JUMP JUMPDEST PUSH0 PUSH1 0x20 DUP3 ADD SWAP1 POP PUSH2 0xF48 PUSH0 DUP4 ADD DUP5 PUSH2 0xF26 JUMP JUMPDEST SWAP3 SWAP2 POP POP JUMP JUMPDEST PUSH0 PUSH20 0xFFFFFFFFFFFFFFFFFFFFFFFFFFFFFFFFFFFFFFFF DUP3 AND SWAP1 POP SWAP2 SWAP1 POP JUMP JUMPDEST PUSH0 PUSH2 0xF77 DUP3 PUSH2 0xF4E JUMP JUMPDEST SWAP1 POP SWAP2 SWAP1 POP JUMP JUMPDEST PUSH2 0xF87 DUP2 PUSH2 0xF6D JUMP JUMPDEST DUP2 EQ PUSH2 0xF91 JUMPI PUSH0 PUSH0 REVERT JUMPDEST POP JUMP JUMPDEST PUSH0 DUP2 CALLDATALOAD SWAP1 POP PUSH2 0xFA2 DUP2 PUSH2 0xF7E JUMP JUMPDEST SWAP3 SWAP2 POP POP JUMP JUMPDEST PUSH0 PUSH1 0x20 DUP3 DUP5 SUB SLT ISZERO PUSH2 0xFBD JUMPI PUSH2 0xFBC PUSH2 0xD92 JUMP JUMPDEST JUMPDEST PUSH0 PUSH2 0xFCA DUP5 DUP3 DUP6 ADD PUSH2 0xF94 JUMP JUMPDEST SWAP2 POP POP SWAP3 SWAP2 POP POP JUMP JUMPDEST PUSH2 0xFDC DUP2 PUSH2 0xF6D JUMP JUMPDEST DUP3 MSTORE POP POP JUMP JUMPDEST PUSH0 DUP2 SWAP1 POP SWAP2 SWAP1 POP JUMP JUMPDEST PUSH2 0xFF4 DUP2 PUSH2 0xFE2 JUMP JUMPDEST DUP3 MSTORE POP POP JUMP JUMPDEST PUSH0 DUP2 MLOAD SWAP1 POP SWAP2 SWAP1 POP JUMP JUMPDEST PUSH0 DUP3 DUP3 MSTORE PUSH1 0x20 DUP3 ADD SWAP1 POP SWAP3 SWAP2 POP POP JUMP JUMPDEST DUP3 DUP2 DUP4 MCOPY PUSH0 DUP4 DUP4 ADD MSTORE POP POP POP JUMP JUMPDEST PUSH0 PUSH2 0x102C DUP3 PUSH2 0xFFA JUMP JUMPDEST PUSH2 0x1036 DUP2 DUP6 PUSH2 0x1004 JUMP JUMPDEST SWAP4 POP PUSH2 0x1046 DUP2 DUP6 PUSH1 0x20 DUP7 ADD PUSH2 0x1014 JUMP JUMPDEST PUSH2 0x104F DUP2 PUSH2 0xDA2 JUMP JUMPDEST DUP5 ADD SWAP2 POP POP SWAP3 SWAP2 POP POP JUMP JUMPDEST PUSH0 DUP2 ISZERO ISZERO SWAP1 POP SWAP2 SWAP1 POP JUMP JUMPDEST PUSH2 0x106E DUP2 PUSH2 0x105A JUMP JUMPDEST DUP3 MSTORE POP POP JUMP JUMPDEST PUSH0 PUSH1 0x80 DUP3 ADD SWAP1 POP PUSH2 0x1087 PUSH0 DUP4 ADD DUP8 PUSH2 0xFD3 JUMP JUMPDEST PUSH2 0x1094 PUSH1 0x20 DUP4 ADD DUP7 PUSH2 0xFEB JUMP JUMPDEST DUP2 DUP2 SUB PUSH1 0x40 DUP4 ADD MSTORE PUSH2 0x10A6 DUP2 DUP6 PUSH2 0x1022 JUMP JUMPDEST SWAP1 POP PUSH2 0x10B5 PUSH1 0x60 DUP4 ADD DUP5 PUSH2 0x1065 JUMP JUMPDEST SWAP6 SWAP5 POP POP POP POP POP JUMP JUMPDEST PUSH0 PUSH0 REVERT JUMPDEST PUSH0 PUSH0 REVERT JUMPDEST PUSH0 PUSH0 DUP4 PUSH1 0x1F DUP5 ADD SLT PUSH2 0x10DB JUMPI PUSH2 0x10DA PUSH2 0xD9A JUMP JUMPDEST JUMPDEST DUP3 CALLDATALOAD SWAP1 POP PUSH8 0xFFFFFFFFFFFFFFFF DUP2 GT ISZERO PUSH2 0x10F8 JUMPI PUSH2 0x10F7 PUSH2 0x10BE JUMP JUMPDEST JUMPDEST PUSH1 0x20 DUP4 ADD SWAP2 POP DUP4 PUSH1 0x1 DUP3 MUL DUP4 ADD GT ISZERO PUSH2 0x1114 JUMPI PUSH2 0x1113 PUSH2 0x10C2 JUMP JUMPDEST JUMPDEST SWAP3 POP SWAP3 SWAP1 POP JUMP JUMPDEST PUSH0 PUSH0 PUSH1 0x20 DUP4 DUP6 SUB SLT ISZERO PUSH2 0x1131 JUMPI PUSH2 0x1130 PUSH2 0xD92 JUMP JUMPDEST JUMPDEST PUSH0 DUP4 ADD CALLDATALOAD PUSH8 0xFFFFFFFFFFFFFFFF DUP2 GT ISZERO PUSH2 0x114E JUMPI PUSH2 0x114D PUSH2 0xD96 JUMP JUMPDEST JUMPDEST PUSH2 0x115A DUP6 DUP3 DUP7 ADD PUSH2 0x10C6 JUMP JUMPDEST SWAP3 POP SWAP3 POP POP SWAP3 POP SWAP3 SWAP1 POP JUMP JUMPDEST PUSH0 PUSH1 0x20 DUP3 ADD SWAP1 POP DUP2 DUP2 SUB PUSH0 DUP4 ADD MSTORE PUSH2 0x117E DUP2 DUP5 PUSH2 0x1022 JUMP JUMPDEST SWAP1 POP SWAP3 SWAP2 POP POP JUMP JUMPDEST PUSH0 PUSH1 0x60 DUP3 ADD SWAP1 POP PUSH2 0x1199 PUSH0 DUP4 ADD DUP7 PUSH2 0xFD3 JUMP JUMPDEST PUSH2 0x11A6 PUSH1 0x20 DUP4 ADD DUP6 PUSH2 0xFEB JUMP JUMPDEST PUSH2 0x11B3 PUSH1 0x40 DUP4 ADD DUP5 PUSH2 0x1065 JUMP JUMPDEST SWAP5 SWAP4 POP POP POP POP JUMP JUMPDEST PUSH0 PUSH1 0x20 DUP3 ADD SWAP1 POP PUSH2 0x11CE PUSH0 DUP4 ADD DUP5 PUSH2 0xFEB JUMP JUMPDEST SWAP3 SWAP2 POP POP JUMP JUMPDEST PUSH0 PUSH1 0x20 DUP3 ADD SWAP1 POP PUSH2 0x11E7 PUSH0 DUP4 ADD DUP5 PUSH2 0xFD3 JUMP JUMPDEST SWAP3 SWAP2 POP POP JUMP JUMPDEST PUSH2 0x11F6 DUP2 PUSH2 0xF1D JUMP JUMPDEST DUP2 EQ PUSH2 0x1200 JUMPI PUSH0 PUSH0 REVERT JUMPDEST POP JUMP JUMPDEST PUSH0 DUP2 CALLDATALOAD SWAP1 POP PUSH2 0x1211 DUP2 PUSH2 0x11ED JUMP JUMPDEST SWAP3 SWAP2 POP POP JUMP JUMPDEST PUSH0 PUSH0 PUSH0 PUSH0 PUSH0 PUSH1 0x60 DUP7 DUP9 SUB SLT ISZERO PUSH2 0x1230 JUMPI PUSH2 0x122F PUSH2 0xD92 JUMP JUMPDEST JUMPDEST PUSH0 PUSH2 0x123D DUP9 DUP3 DUP10 ADD PUSH2 0x1203 JUMP JUMPDEST SWAP6 POP POP PUSH1 0x20 DUP7 ADD CALLDATALOAD PUSH8 0xFFFFFFFFFFFFFFFF DUP2 GT ISZERO PUSH2 0x125E JUMPI PUSH2 0x125D PUSH2 0xD96 JUMP JUMPDEST JUMPDEST PUSH2 0x126A DUP9 DUP3 DUP10 ADD PUSH2 0x10C6 JUMP JUMPDEST SWAP5 POP SWAP5 POP POP PUSH1 0x40 DUP7 ADD CALLDATALOAD PUSH8 0xFFFFFFFFFFFFFFFF DUP2 GT ISZERO PUSH2 0x128D JUMPI PUSH2 0x128C PUSH2 0xD96 JUMP JUMPDEST JUMPDEST PUSH2 0x1299 DUP9 DUP3 DUP10 ADD PUSH2 0x10C6 JUMP JUMPDEST SWAP3 POP SWAP3 POP POP SWAP3 SWAP6 POP SWAP3 SWAP6 SWAP1 SWAP4 POP JUMP JUMPDEST PUSH32 0x43616C6C6572206973206E6F7420746865206F776E6572000000000000000000 PUSH0 DUP3 ADD MSTORE POP JUMP JUMPDEST PUSH0 PUSH2 0x12DC PUSH1 0x17 DUP4 PUSH2 0x1004 JUMP JUMPDEST SWAP2 POP PUSH2 0x12E7 DUP3 PUSH2 0x12A8 JUMP JUMPDEST PUSH1 0x20 DUP3 ADD SWAP1 POP SWAP2 SWAP1 POP JUMP JUMPDEST PUSH0 PUSH1 0x20 DUP3 ADD SWAP1 POP DUP2 DUP2 SUB PUSH0 DUP4 ADD MSTORE PUSH2 0x1309 DUP2 PUSH2 0x12D0 JUMP JUMPDEST SWAP1 POP SWAP2 SWAP1 POP JUMP JUMPDEST PUSH0 DUP2 SWAP1 POP SWAP3 SWAP2 POP POP JUMP JUMPDEST POP JUMP JUMPDEST PUSH0 PUSH2 0x1328 PUSH0 DUP4 PUSH2 0x1310 JUMP JUMPDEST SWAP2 POP PUSH2 0x1333 DUP3 PUSH2 0x131A JUMP JUMPDEST PUSH0 DUP3 ADD SWAP1 POP SWAP2 SWAP1 POP JUMP JUMPDEST PUSH0 PUSH2 0x1347 DUP3 PUSH2 0x131D JUMP JUMPDEST SWAP2 POP DUP2 SWAP1 POP SWAP2 SWAP1 POP JUMP JUMPDEST PUSH32 0x4661696C656420746F2073656E64204574686572000000000000000000000000 PUSH0 DUP3 ADD MSTORE POP JUMP JUMPDEST PUSH0 PUSH2 0x1385 PUSH1 0x14 DUP4 PUSH2 0x1004 JUMP JUMPDEST SWAP2 POP PUSH2 0x1390 DUP3 PUSH2 0x1351 JUMP JUMPDEST PUSH1 0x20 DUP3 ADD SWAP1 POP SWAP2 SWAP1 POP JUMP JUMPDEST PUSH0 PUSH1 0x20 DUP3 ADD SWAP1 POP DUP2 DUP2 SUB PUSH0 DUP4 ADD MSTORE PUSH2 0x13B2 DUP2 PUSH2 0x1379 JUMP JUMPDEST SWAP1 POP SWAP2 SWAP1 POP JUMP JUMPDEST PUSH32 0x4E487B7100000000000000000000000000000000000000000000000000000000 PUSH0 MSTORE PUSH1 0x22 PUSH1 0x4 MSTORE PUSH1 0x24 PUSH0 REVERT JUMPDEST PUSH0 PUSH1 0x2 DUP3 DIV SWAP1 POP PUSH1 0x1 DUP3 AND DUP1 PUSH2 0x13FD JUMPI PUSH1 0x7F DUP3 AND SWAP2 POP JUMPDEST PUSH1 0x20 DUP3 LT DUP2 SUB PUSH2 0x1410 JUMPI PUSH2 0x140F PUSH2 0x13B9 JUMP JUMPDEST JUMPDEST POP SWAP2 SWAP1 POP JUMP JUMPDEST PUSH0 DUP2 SWAP1 POP SWAP3 SWAP2 POP POP JUMP JUMPDEST PUSH0 PUSH2 0x142B DUP4 DUP6 PUSH2 0x1416 JUMP JUMPDEST SWAP4 POP PUSH2 0x1438 DUP4 DUP6 DUP5 PUSH2 0xE5A JUMP JUMPDEST DUP3 DUP5 ADD SWAP1 POP SWAP4 SWAP3 POP POP POP JUMP JUMPDEST PUSH0 PUSH2 0x1450 DUP3 DUP5 DUP7 PUSH2 0x1420 JUMP JUMPDEST SWAP2 POP DUP2 SWAP1 POP SWAP4 SWAP3 POP POP POP JUMP JUMPDEST PUSH32 0x4E6F207375626D697373696F6E20666F756E6420666F72207468697320706173 PUSH0 DUP3 ADD MSTORE PUSH32 0x73776F7264000000000000000000000000000000000000000000000000000000 PUSH1 0x20 DUP3 ADD MSTORE POP JUMP JUMPDEST PUSH0 PUSH2 0x14B6 PUSH1 0x25 DUP4 PUSH2 0x1004 JUMP JUMPDEST SWAP2 POP PUSH2 0x14C1 DUP3 PUSH2 0x145C JUMP JUMPDEST PUSH1 0x40 DUP3 ADD SWAP1 POP SWAP2 SWAP1 POP JUMP JUMPDEST PUSH0 PUSH1 0x20 DUP3 ADD SWAP1 POP DUP2 DUP2 SUB PUSH0 DUP4 ADD MSTORE PUSH2 0x14E3 DUP2 PUSH2 0x14AA JUMP JUMPDEST SWAP1 POP SWAP2 SWAP1 POP JUMP JUMPDEST PUSH32 0x596F7520617265206E6F7420746865206F776E6572206F662074686973207375 PUSH0 DUP3 ADD MSTORE PUSH32 0x626D697373696F6E000000000000000000000000000000000000000000000000 PUSH1 0x20 DUP3 ADD MSTORE POP JUMP JUMPDEST PUSH0 PUSH2 0x1544 PUSH1 0x28 DUP4 PUSH2 0x1004 JUMP JUMPDEST SWAP2 POP PUSH2 0x154F DUP3 PUSH2 0x14EA JUMP JUMPDEST PUSH1 0x40 DUP3 ADD SWAP1 POP SWAP2 SWAP1 POP JUMP JUMPDEST PUSH0 PUSH1 0x20 DUP3 ADD SWAP1 POP DUP2 DUP2 SUB PUSH0 DUP4 ADD MSTORE PUSH2 0x1571 DUP2 PUSH2 0x1538 JUMP JUMPDEST SWAP1 POP SWAP2 SWAP1 POP JUMP JUMPDEST PUSH32 0x4E487B7100000000000000000000000000000000000000000000000000000000 PUSH0 MSTORE PUSH1 0x11 PUSH1 0x4 MSTORE PUSH1 0x24 PUSH0 REVERT JUMPDEST PUSH0 PUSH2 0x15AF DUP3 PUSH2 0xFE2 JUMP JUMPDEST SWAP2 POP PUSH2 0x15BA DUP4 PUSH2 0xFE2 JUMP JUMPDEST SWAP3 POP DUP3 DUP3 ADD SWAP1 POP DUP1 DUP3 GT ISZERO PUSH2 0x15D2 JUMPI PUSH2 0x15D1 PUSH2 0x1578 JUMP JUMPDEST JUMPDEST SWAP3 SWAP2 POP POP JUMP JUMPDEST PUSH32 0x54696D65206C6F636B20686173206E6F74206578706972656400000000000000 PUSH0 DUP3 ADD MSTORE POP JUMP JUMPDEST PUSH0 PUSH2 0x160C PUSH1 0x19 DUP4 PUSH2 0x1004 JUMP JUMPDEST SWAP2 POP PUSH2 0x1617 DUP3 PUSH2 0x15D8 JUMP JUMPDEST PUSH1 0x20 DUP3 ADD SWAP1 POP SWAP2 SWAP1 POP JUMP JUMPDEST PUSH0 PUSH1 0x20 DUP3 ADD SWAP1 POP DUP2 DUP2 SUB PUSH0 DUP4 ADD MSTORE PUSH2 0x1639 DUP2 PUSH2 0x1600 JUMP JUMPDEST SWAP1 POP SWAP2 SWAP1 POP JUMP JUMPDEST PUSH32 0x5375626D697373696F6E2068617320616C7265616479206265656E20636C6169 PUSH0 DUP3 ADD MSTORE PUSH32 0x6D65640000000000000000000000000000000000000000000000000000000000 PUSH1 0x20 DUP3 ADD MSTORE POP JUMP JUMPDEST PUSH0 PUSH2 0x169A PUSH1 0x23 DUP4 PUSH2 0x1004 JUMP JUMPDEST SWAP2 POP PUSH2 0x16A5 DUP3 PUSH2 0x1640 JUMP JUMPDEST PUSH1 0x40 DUP3 ADD SWAP1 POP SWAP2 SWAP1 POP JUMP JUMPDEST PUSH0 PUSH1 0x20 DUP3 ADD SWAP1 POP DUP2 DUP2 SUB PUSH0 DUP4 ADD MSTORE PUSH2 0x16C7 DUP2 PUSH2 0x168E JUMP JUMPDEST SWAP1 POP SWAP2 SWAP1 POP JUMP JUMPDEST PUSH0 DUP2 SWAP1 POP DUP2 PUSH0 MSTORE PUSH1 0x20 PUSH0 KECCAK256 SWAP1 POP SWAP2 SWAP1 POP JUMP JUMPDEST PUSH0 DUP2 SLOAD PUSH2 0x16EC DUP2 PUSH2 0x13E6 JUMP JUMPDEST PUSH2 0x16F6 DUP2 DUP7 PUSH2 0x1416 JUMP JUMPDEST SWAP5 POP PUSH1 0x1 DUP3 AND PUSH0 DUP2 EQ PUSH2 0x1710 JUMPI PUSH1 0x1 DUP2 EQ PUSH2 0x1725 JUMPI PUSH2 0x1757 JUMP JUMPDEST PUSH1 0xFF NOT DUP4 AND DUP7 MSTORE DUP2 ISZERO ISZERO DUP3 MUL DUP7 ADD SWAP4 POP PUSH2 0x1757 JUMP JUMPDEST PUSH2 0x172E DUP6 PUSH2 0x16CE JUMP JUMPDEST PUSH0 JUMPDEST DUP4 DUP2 LT ISZERO PUSH2 0x174F JUMPI DUP2 SLOAD DUP2 DUP10 ADD MSTORE PUSH1 0x1 DUP3 ADD SWAP2 POP PUSH1 0x20 DUP2 ADD SWAP1 POP PUSH2 0x1730 JUMP JUMPDEST DUP4 DUP9 ADD SWAP6 POP POP POP JUMPDEST POP POP POP SWAP3 SWAP2 POP POP JUMP JUMPDEST PUSH0 PUSH2 0x176B DUP3 DUP5 PUSH2 0x16E0 JUMP JUMPDEST SWAP2 POP DUP2 SWAP1 POP SWAP3 SWAP2 POP POP JUMP JUMPDEST PUSH32 0x496E636F7272656374206465706F736974206665652073656E74000000000000 PUSH0 DUP3 ADD MSTORE POP JUMP JUMPDEST PUSH0 PUSH2 0x17AA PUSH1 0x1A DUP4 PUSH2 0x1004 JUMP JUMPDEST SWAP2 POP PUSH2 0x17B5 DUP3 PUSH2 0x1776 JUMP JUMPDEST PUSH1 0x20 DUP3 ADD SWAP1 POP SWAP2 SWAP1 POP JUMP JUMPDEST PUSH0 PUSH1 0x20 DUP3 ADD SWAP1 POP DUP2 DUP2 SUB PUSH0 DUP4 ADD MSTORE PUSH2 0x17D7 DUP2 PUSH2 0x179E JUMP JUMPDEST SWAP1 POP SWAP2 SWAP1 POP JUMP JUMPDEST PUSH32 0x53747564656E742049442063616E6E6F7420626520656D707479000000000000 PUSH0 DUP3 ADD MSTORE POP JUMP JUMPDEST PUSH0 PUSH2 0x1812 PUSH1 0x1A DUP4 PUSH2 0x1004 JUMP JUMPDEST SWAP2 POP PUSH2 0x181D DUP3 PUSH2 0x17DE JUMP JUMPDEST PUSH1 0x20 DUP3 ADD SWAP1 POP SWAP2 SWAP1 POP JUMP JUMPDEST PUSH0 PUSH1 0x20 DUP3 ADD SWAP1 POP DUP2 DUP2 SUB PUSH0 DUP4 ADD MSTORE PUSH2 0x183F DUP2 PUSH2 0x1806 JUMP JUMPDEST SWAP1 POP SWAP2 SWAP1 POP JUMP JUMPDEST PUSH32 0x546869732070617373776F72642068617320616C7265616479206265656E2075 PUSH0 DUP3 ADD MSTORE PUSH32 0x7365640000000000000000000000000000000000000000000000000000000000 PUSH1 0x20 DUP3 ADD MSTORE POP JUMP JUMPDEST PUSH0 PUSH2 0x18A0 PUSH1 0x23 DUP4 PUSH2 0x1004 JUMP JUMPDEST SWAP2 POP PUSH2 0x18AB DUP3 PUSH2 0x1846 JUMP JUMPDEST PUSH1 0x40 DUP3 ADD SWAP1 POP SWAP2 SWAP1 POP JUMP JUMPDEST PUSH0 PUSH1 0x20 DUP3 ADD SWAP1 POP DUP2 DUP2 SUB PUSH0 DUP4 ADD MSTORE PUSH2 0x18CD DUP2 PUSH2 0x1894 JUMP JUMPDEST SWAP1 POP SWAP2 SWAP1 POP JUMP JUMPDEST PUSH32 0x546869732073747564656E742049442068617320616C7265616479206265656E PUSH0 DUP3 ADD MSTORE PUSH32 0x207375626D697474656400000000000000000000000000000000000000000000 PUSH1 0x20 DUP3 ADD MSTORE POP JUMP JUMPDEST PUSH0 PUSH2 0x192E PUSH1 0x2A DUP4 PUSH2 0x1004 JUMP JUMPDEST SWAP2 POP PUSH2 0x1939 DUP3 PUSH2 0x18D4 JUMP JUMPDEST PUSH1 0x40 DUP3 ADD SWAP1 POP SWAP2 SWAP1 POP JUMP JUMPDEST PUSH0 PUSH1 0x20 DUP3 ADD SWAP1 POP DUP2 DUP2 SUB PUSH0 DUP4 ADD MSTORE PUSH2 0x195B DUP2 PUSH2 0x1922 JUMP JUMPDEST SWAP1 POP SWAP2 SWAP1 POP JUMP JUMPDEST PUSH32 0x5468697320616464726573732068617320616C7265616479207375626D697474 PUSH0 DUP3 ADD MSTORE PUSH32 0x6564000000000000000000000000000000000000000000000000000000000000 PUSH1 0x20 DUP3 ADD MSTORE POP JUMP JUMPDEST PUSH0 PUSH2 0x19BC PUSH1 0x22 DUP4 PUSH2 0x1004 JUMP JUMPDEST SWAP2 POP PUSH2 0x19C7 DUP3 PUSH2 0x1962 JUMP JUMPDEST PUSH1 0x40 DUP3 ADD SWAP1 POP SWAP2 SWAP1 POP JUMP JUMPDEST PUSH0 PUSH1 0x20 DUP3 ADD SWAP1 POP DUP2 DUP2 SUB PUSH0 DUP4 ADD MSTORE PUSH2 0x19E9 DUP2 PUSH2 0x19B0 JUMP JUMPDEST SWAP1 POP SWAP2 SWAP1 POP JUMP JUMPDEST PUSH0 PUSH1 0x20 PUSH1 0x1F DUP4 ADD DIV SWAP1 POP SWAP2 SWAP1 POP JUMP JUMPDEST PUSH0 DUP3 DUP3 SHL SWAP1 POP SWAP3 SWAP2 POP POP JUMP JUMPDEST PUSH0 PUSH1 0x8 DUP4 MUL PUSH2 0x1A3A PUSH32 0xFFFFFFFFFFFFFFFFFFFFFFFFFFFFFFFFFFFFFFFFFFFFFFFFFFFFFFFFFFFFFFFF DUP3 PUSH2 0x19FF JUMP JUMPDEST PUSH2 0x1A44 DUP7 DUP4 PUSH2 0x19FF JUMP JUMPDEST SWAP6 POP DUP1 NOT DUP5 AND SWAP4 POP DUP1 DUP7 AND DUP5 OR SWAP3 POP POP POP SWAP4 SWAP3 POP POP POP JUMP JUMPDEST PUSH0 DUP2 SWAP1 POP SWAP2 SWAP1 POP JUMP JUMPDEST PUSH0 PUSH2 0x1A7F PUSH2 0x1A7A PUSH2 0x1A75 DUP5 PUSH2 0xFE2 JUMP JUMPDEST PUSH2 0x1A5C JUMP JUMPDEST PUSH2 0xFE2 JUMP JUMPDEST SWAP1 POP SWAP2 SWAP1 POP JUMP JUMPDEST PUSH0 DUP2 SWAP1 POP SWAP2 SWAP1 POP JUMP JUMPDEST PUSH2 0x1A98 DUP4 PUSH2 0x1A65 JUMP JUMPDEST PUSH2 0x1AAC PUSH2 0x1AA4 DUP3 PUSH2 0x1A86 JUMP JUMPDEST DUP5 DUP5 SLOAD PUSH2 0x1A0B JUMP JUMPDEST DUP3 SSTORE POP POP POP POP JUMP JUMPDEST PUSH0 PUSH0 SWAP1 POP SWAP1 JUMP JUMPDEST PUSH2 0x1AC3 PUSH2 0x1AB4 JUMP JUMPDEST PUSH2 0x1ACE DUP2 DUP5 DUP5 PUSH2 0x1A8F JUMP JUMPDEST POP POP POP JUMP JUMPDEST JUMPDEST DUP2 DUP2 LT ISZERO PUSH2 0x1AF1 JUMPI PUSH2 0x1AE6 PUSH0 DUP3 PUSH2 0x1ABB JUMP JUMPDEST PUSH1 0x1 DUP2 ADD SWAP1 POP PUSH2 0x1AD4 JUMP JUMPDEST POP POP JUMP JUMPDEST PUSH1 0x1F DUP3 GT ISZERO PUSH2 0x1B36 JUMPI PUSH2 0x1B07 DUP2 PUSH2 0x16CE JUMP JUMPDEST PUSH2 0x1B10 DUP5 PUSH2 0x19F0 JUMP JUMPDEST DUP2 ADD PUSH1 0x20 DUP6 LT ISZERO PUSH2 0x1B1F JUMPI DUP2 SWAP1 POP JUMPDEST PUSH2 0x1B33 PUSH2 0x1B2B DUP6 PUSH2 0x19F0 JUMP JUMPDEST DUP4 ADD DUP3 PUSH2 0x1AD3 JUMP JUMPDEST POP POP JUMPDEST POP POP POP JUMP JUMPDEST PUSH0 DUP3 DUP3 SHR SWAP1 POP SWAP3 SWAP2 POP POP JUMP JUMPDEST PUSH0 PUSH2 0x1B56 PUSH0 NOT DUP5 PUSH1 0x8 MUL PUSH2 0x1B3B JUMP JUMPDEST NOT DUP1 DUP4 AND SWAP2 POP POP SWAP3 SWAP2 POP POP JUMP JUMPDEST PUSH0 PUSH2 0x1B6E DUP4 DUP4 PUSH2 0x1B47 JUMP JUMPDEST SWAP2 POP DUP3 PUSH1 0x2 MUL DUP3 OR SWAP1 POP SWAP3 SWAP2 POP POP JUMP JUMPDEST PUSH2 0x1B87 DUP3 PUSH2 0xFFA JUMP JUMPDEST PUSH8 0xFFFFFFFFFFFFFFFF DUP2 GT ISZERO PUSH2 0x1BA0 JUMPI PUSH2 0x1B9F PUSH2 0xDB2 JUMP JUMPDEST JUMPDEST PUSH2 0x1BAA DUP3 SLOAD PUSH2 0x13E6 JUMP JUMPDEST PUSH2 0x1BB5 DUP3 DUP3 DUP6 PUSH2 0x1AF5 JUMP JUMPDEST PUSH0 PUSH1 0x20 SWAP1 POP PUSH1 0x1F DUP4 GT PUSH1 0x1 DUP2 EQ PUSH2 0x1BE6 JUMPI PUSH0 DUP5 ISZERO PUSH2 0x1BD4 JUMPI DUP3 DUP8 ADD MLOAD SWAP1 POP JUMPDEST PUSH2 0x1BDE DUP6 DUP3 PUSH2 0x1B63 JUMP JUMPDEST DUP7 SSTORE POP PUSH2 0x1C45 JUMP JUMPDEST PUSH1 0x1F NOT DUP5 AND PUSH2 0x1BF4 DUP7 PUSH2 0x16CE JUMP JUMPDEST PUSH0 JUMPDEST DUP3 DUP2 LT ISZERO PUSH2 0x1C1B JUMPI DUP5 DUP10 ADD MLOAD DUP3 SSTORE PUSH1 0x1 DUP3 ADD SWAP2 POP PUSH1 0x20 DUP6 ADD SWAP5 POP PUSH1 0x20 DUP2 ADD SWAP1 POP PUSH2 0x1BF6 JUMP JUMPDEST DUP7 DUP4 LT ISZERO PUSH2 0x1C38 JUMPI DUP5 DUP10 ADD MLOAD PUSH2 0x1C34 PUSH1 0x1F DUP10 AND DUP3 PUSH2 0x1B47 JUMP JUMPDEST DUP4 SSTORE POP JUMPDEST PUSH1 0x1 PUSH1 0x2 DUP9 MUL ADD DUP9 SSTORE POP POP POP JUMPDEST POP POP POP POP POP POP JUMP INVALID LOG2 PUSH5 0x6970667358 0x22 SLT KECCAK256 DUP13 0xB2 PUSH7 0xD36AAADE8C2CC1 0x2C DUP14 DUP14 PUSH13 0xE1A9A5A16FC9EDDE0894152CF CODESIZE BLOCKHASH AND 0x29 POP PUSH5 0x736F6C6343 STOP ADDMOD 0x1E STOP CALLER "
				},
				"gasEstimates": {
					"creation": {
						"codeDepositCost": "1459800",
						"executionCost": "25789",
						"totalCost": "1485589"
					},
					"external": {
						"DEPOSIT_FEE()": "413",
						"MIN_LOCK_DURATION()": "347",
						"checkMySubmissionStatus()": "infinite",
						"claimAndRetrieve(string)": "infinite",
						"deposit(bytes32,string,string)": "infinite",
						"depositorToKeyHash(address)": "2825",
						"getSubmissionStatus(string)": "infinite",
						"owner()": "2551",
						"studentIdToKeyHash(string)": "infinite",
						"withdrawFees()": "infinite"
					}
				},
				"methodIdentifiers": {
					"DEPOSIT_FEE()": "de363e65",
					"MIN_LOCK_DURATION()": "78b4330f",
					"checkMySubmissionStatus()": "5dc58d33",
					"claimAndRetrieve(string)": "66db84f5",
					"deposit(bytes32,string,string)": "c9ebfb65",
					"depositorToKeyHash(address)": "2b5ba44f",
					"getSubmissionStatus(string)": "6ac7693b",
					"owner()": "8da5cb5b",
					"studentIdToKeyHash(string)": "2630a079",
					"withdrawFees()": "476343ee"
				}
			},
			"storageLayout": {
				"storage": [
					{
						"astId": 4,
						"contract": ".debug/11155111/0x5a877473E776FDE60148ce4Da9ff91cF66296358/contracts/SecretDepository.sol:SecretDepository",
						"label": "owner",
						"offset": 0,
						"slot": "0",
						"type": "t_address"
					},
					{
						"astId": 26,
						"contract": ".debug/11155111/0x5a877473E776FDE60148ce4Da9ff91cF66296358/contracts/SecretDepository.sol:SecretDepository",
						"label": "submissions",
						"offset": 0,
						"slot": "1",
						"type": "t_mapping(t_bytes32,t_struct(Submission)21_storage)"
					},
					{
						"astId": 30,
						"contract": ".debug/11155111/0x5a877473E776FDE60148ce4Da9ff91cF66296358/contracts/SecretDepository.sol:SecretDepository",
						"label": "studentIdToKeyHash",
						"offset": 0,
						"slot": "2",
						"type": "t_mapping(t_string_memory_ptr,t_bytes32)"
					},
					{
						"astId": 34,
						"contract": ".debug/11155111/0x5a877473E776FDE60148ce4Da9ff91cF66296358/contracts/SecretDepository.sol:SecretDepository",
						"label": "depositorToKeyHash",
						"offset": 0,
						"slot": "3",
						"type": "t_mapping(t_address,t_bytes32)"
					}
				],
				"types": {
					"t_address": {
						"encoding": "inplace",
						"label": "address",
						"numberOfBytes": "20"
					},
					"t_bool": {
						"encoding": "inplace",
						"label": "bool",
						"numberOfBytes": "1"
					},
					"t_bytes32": {
						"encoding": "inplace",
						"label": "bytes32",
						"numberOfBytes": "32"
					},
					"t_mapping(t_address,t_bytes32)": {
						"encoding": "mapping",
						"key": "t_address",
						"label": "mapping(address => bytes32)",
						"numberOfBytes": "32",
						"value": "t_bytes32"
					},
					"t_mapping(t_bytes32,t_struct(Submission)21_storage)": {
						"encoding": "mapping",
						"key": "t_bytes32",
						"label": "mapping(bytes32 => struct SecretDepository.Submission)",
						"numberOfBytes": "32",
						"value": "t_struct(Submission)21_storage"
					},
					"t_mapping(t_string_memory_ptr,t_bytes32)": {
						"encoding": "mapping",
						"key": "t_string_memory_ptr",
						"label": "mapping(string => bytes32)",
						"numberOfBytes": "32",
						"value": "t_bytes32"
					},
					"t_string_memory_ptr": {
						"encoding": "bytes",
						"label": "string",
						"numberOfBytes": "32"
					},
					"t_string_storage": {
						"encoding": "bytes",
						"label": "string",
						"numberOfBytes": "32"
					},
					"t_struct(Submission)21_storage": {
						"encoding": "inplace",
						"label": "struct SecretDepository.Submission",
						"members": [
							{
								"astId": 12,
								"contract": ".debug/11155111/0x5a877473E776FDE60148ce4Da9ff91cF66296358/contracts/SecretDepository.sol:SecretDepository",
								"label": "secretMessage",
								"offset": 0,
								"slot": "0",
								"type": "t_string_storage"
							},
							{
								"astId": 14,
								"contract": ".debug/11155111/0x5a877473E776FDE60148ce4Da9ff91cF66296358/contracts/SecretDepository.sol:SecretDepository",
								"label": "depositor",
								"offset": 0,
								"slot": "1",
								"type": "t_address"
							},
							{
								"astId": 16,
								"contract": ".debug/11155111/0x5a877473E776FDE60148ce4Da9ff91cF66296358/contracts/SecretDepository.sol:SecretDepository",
								"label": "depositTime",
								"offset": 0,
								"slot": "2",
								"type": "t_uint256"
							},
							{
								"astId": 18,
								"contract": ".debug/11155111/0x5a877473E776FDE60148ce4Da9ff91cF66296358/contracts/SecretDepository.sol:SecretDepository",
								"label": "studentId",
								"offset": 0,
								"slot": "3",
								"type": "t_string_storage"
							},
							{
								"astId": 20,
								"contract": ".debug/11155111/0x5a877473E776FDE60148ce4Da9ff91cF66296358/contracts/SecretDepository.sol:SecretDepository",
								"label": "claimed",
								"offset": 0,
								"slot": "4",
								"type": "t_bool"
							}
						],
						"numberOfBytes": "160"
					},
					"t_uint256": {
						"encoding": "inplace",
						"label": "uint256",
						"numberOfBytes": "32"
					}
				}
			},
			"userdoc": {
				"kind": "user",
				"methods": {
					"checkMySubmissionStatus()": {
						"notice": "Use this helpful function to check the status of your own submission at any time."
					},
					"claimAndRetrieve(string)": {
						"notice": "This is Part 2 of the assignment! Call this function after the time lock has passed."
					},
					"deposit(bytes32,string,string)": {
						"notice": "This is the function you'll call to submit your assignment."
					},
					"getSubmissionStatus(string)": {
						"notice": "This is an admin function for me to check on your submission."
					},
					"withdrawFees()": {
						"notice": "This is another admin function for the instructor."
					}
				},
				"notice": "Welcome, students! This is the smart contract for your assignment.",
				"version": 1
			}
		}
	}
}