{
	"CarbonTrader.sol": {
		"CarbonTrader": {
			"abi": [
				{
					"inputs": [
						{
							"internalType": "address",
							"name": "tokenAddress",
							"type": "address"
						}
					],
					"stateMutability": "nonpayable",
					"type": "constructor"
				},
				{
					"inputs": [],
					"name": "CarbonTrader_NotOwner",
					"type": "error"
				},
				{
					"inputs": [],
					"name": "CarbonTrader_ParamError",
					"type": "error"
				},
				{
					"inputs": [],
					"name": "CarbonTrader_TransferFailed",
					"type": "error"
				},
				{
					"inputs": [
						{
							"internalType": "string",
							"name": "tradeId",
							"type": "string"
						},
						{
							"internalType": "address",
							"name": "_seller",
							"type": "address"
						},
						{
							"internalType": "uint256",
							"name": "_amount",
							"type": "uint256"
						},
						{
							"internalType": "uint256",
							"name": "_startamount",
							"type": "uint256"
						},
						{
							"internalType": "uint256",
							"name": "_priceOfUnit",
							"type": "uint256"
						},
						{
							"internalType": "uint256",
							"name": "_startTime",
							"type": "uint256"
						},
						{
							"internalType": "uint256",
							"name": "_endTime",
							"type": "uint256"
						}
					],
					"name": "createTrade",
					"outputs": [],
					"stateMutability": "nonpayable",
					"type": "function"
				},
				{
					"inputs": [
						{
							"internalType": "string",
							"name": "tradeId",
							"type": "string"
						},
						{
							"internalType": "uint256",
							"name": "amount",
							"type": "uint256"
						},
						{
							"internalType": "string",
							"name": "info",
							"type": "string"
						}
					],
					"name": "deposit",
					"outputs": [],
					"stateMutability": "nonpayable",
					"type": "function"
				},
				{
					"inputs": [
						{
							"internalType": "address",
							"name": "user",
							"type": "address"
						}
					],
					"name": "destroyAllAllowance",
					"outputs": [],
					"stateMutability": "nonpayable",
					"type": "function"
				},
				{
					"inputs": [
						{
							"internalType": "address",
							"name": "user",
							"type": "address"
						},
						{
							"internalType": "uint256",
							"name": "amount",
							"type": "uint256"
						}
					],
					"name": "destroyAllowance",
					"outputs": [],
					"stateMutability": "nonpayable",
					"type": "function"
				},
				{
					"inputs": [
						{
							"internalType": "string",
							"name": "tradeId",
							"type": "string"
						},
						{
							"internalType": "uint256",
							"name": "allowanceAmount",
							"type": "uint256"
						},
						{
							"internalType": "uint256",
							"name": "additionalAmountToPay",
							"type": "uint256"
						}
					],
					"name": "finalizeAuctionAndTransferCarbon",
					"outputs": [],
					"stateMutability": "nonpayable",
					"type": "function"
				},
				{
					"inputs": [
						{
							"internalType": "address",
							"name": "user",
							"type": "address"
						},
						{
							"internalType": "uint256",
							"name": "amount",
							"type": "uint256"
						}
					],
					"name": "freezeAllowance",
					"outputs": [],
					"stateMutability": "nonpayable",
					"type": "function"
				},
				{
					"inputs": [
						{
							"internalType": "address",
							"name": "user",
							"type": "address"
						}
					],
					"name": "getAllowance",
					"outputs": [
						{
							"internalType": "uint256",
							"name": "",
							"type": "uint256"
						}
					],
					"stateMutability": "view",
					"type": "function"
				},
				{
					"inputs": [
						{
							"internalType": "string",
							"name": "tradeId",
							"type": "string"
						}
					],
					"name": "getBidInfo",
					"outputs": [
						{
							"internalType": "string",
							"name": "",
							"type": "string"
						}
					],
					"stateMutability": "view",
					"type": "function"
				},
				{
					"inputs": [
						{
							"internalType": "address",
							"name": "user",
							"type": "address"
						}
					],
					"name": "getFreezedAllowance",
					"outputs": [
						{
							"internalType": "uint256",
							"name": "",
							"type": "uint256"
						}
					],
					"stateMutability": "view",
					"type": "function"
				},
				{
					"inputs": [
						{
							"internalType": "string",
							"name": "tradeId",
							"type": "string"
						}
					],
					"name": "getTrade",
					"outputs": [
						{
							"internalType": "address",
							"name": "",
							"type": "address"
						},
						{
							"internalType": "uint256",
							"name": "",
							"type": "uint256"
						},
						{
							"internalType": "uint256",
							"name": "",
							"type": "uint256"
						},
						{
							"internalType": "uint256",
							"name": "",
							"type": "uint256"
						},
						{
							"internalType": "uint256",
							"name": "",
							"type": "uint256"
						},
						{
							"internalType": "uint256",
							"name": "",
							"type": "uint256"
						}
					],
					"stateMutability": "view",
					"type": "function"
				},
				{
					"inputs": [
						{
							"internalType": "address",
							"name": "user",
							"type": "address"
						},
						{
							"internalType": "uint256",
							"name": "amount",
							"type": "uint256"
						}
					],
					"name": "issueAllowance",
					"outputs": [],
					"stateMutability": "nonpayable",
					"type": "function"
				},
				{
					"inputs": [
						{
							"internalType": "string",
							"name": "tradeId",
							"type": "string"
						}
					],
					"name": "refound",
					"outputs": [],
					"stateMutability": "nonpayable",
					"type": "function"
				},
				{
					"inputs": [
						{
							"internalType": "string",
							"name": "tradeId",
							"type": "string"
						},
						{
							"internalType": "string",
							"name": "info",
							"type": "string"
						}
					],
					"name": "setBidInfo",
					"outputs": [],
					"stateMutability": "nonpayable",
					"type": "function"
				},
				{
					"inputs": [
						{
							"internalType": "string",
							"name": "tradeId",
							"type": "string"
						},
						{
							"internalType": "string",
							"name": "key",
							"type": "string"
						}
					],
					"name": "setBidKey",
					"outputs": [],
					"stateMutability": "nonpayable",
					"type": "function"
				},
				{
					"inputs": [
						{
							"internalType": "address",
							"name": "user",
							"type": "address"
						},
						{
							"internalType": "uint256",
							"name": "amount",
							"type": "uint256"
						}
					],
					"name": "unfreezeAllowance",
					"outputs": [],
					"stateMutability": "nonpayable",
					"type": "function"
				},
				{
					"inputs": [],
					"name": "withdrawAuctionAmount",
					"outputs": [],
					"stateMutability": "nonpayable",
					"type": "function"
				}
			],
			"devdoc": {
				"kind": "dev",
				"methods": {},
				"version": 1
			},
			"evm": {
				"assembly": "    /* \"CarbonTrader.sol\":1700:8728  contract CarbonTrader {... */\n  mstore(0x40, 0xa0)\n    /* \"CarbonTrader.sol\":2350:2459  constructor(address tokenAddress){   ... */\n  callvalue\n  dup1\n  iszero\n  tag_1\n  jumpi\n  revert(0x00, 0x00)\ntag_1:\n  pop\n  mload(0x40)\n  sub(codesize, bytecodeSize)\n  dup1\n  bytecodeSize\n  dup4\n  codecopy\n  dup2\n  dup2\n  add\n  0x40\n  mstore\n  dup2\n  add\n  swap1\n  tag_2\n  swap2\n  swap1\n  tag_3\n  jump\t// in\ntag_2:\n    /* \"CarbonTrader.sol\":2404:2414  msg.sender */\n  caller\n    /* \"CarbonTrader.sol\":2396:2414  owner = msg.sender */\n  0xffffffffffffffffffffffffffffffffffffffff\n  and\n  0x80\n  dup2\n  0xffffffffffffffffffffffffffffffffffffffff\n  and\n  dup2\n  mstore\n  pop\n  pop\n    /* \"CarbonTrader.sol\":2439:2451  tokenAddress */\n  dup1\n    /* \"CarbonTrader.sol\":2424:2429  token */\n  0x04\n  0x00\n    /* \"CarbonTrader.sol\":2424:2452  token = IERC20(tokenAddress) */\n  0x0100\n  exp\n  dup2\n  sload\n  dup2\n  0xffffffffffffffffffffffffffffffffffffffff\n  mul\n  not\n  and\n  swap1\n  dup4\n  0xffffffffffffffffffffffffffffffffffffffff\n  and\n  mul\n  or\n  swap1\n  sstore\n  pop\n    /* \"CarbonTrader.sol\":2350:2459  constructor(address tokenAddress){   ... */\n  pop\n    /* \"CarbonTrader.sol\":1700:8728  contract CarbonTrader {... */\n  jump(tag_6)\n    /* \"#utility.yul\":88:205   */\ntag_8:\n    /* \"#utility.yul\":197:198   */\n  0x00\n    /* \"#utility.yul\":194:195   */\n  0x00\n    /* \"#utility.yul\":187:199   */\n  revert\n    /* \"#utility.yul\":334:460   */\ntag_10:\n    /* \"#utility.yul\":371:378   */\n  0x00\n    /* \"#utility.yul\":411:453   */\n  0xffffffffffffffffffffffffffffffffffffffff\n    /* \"#utility.yul\":404:409   */\n  dup3\n    /* \"#utility.yul\":400:454   */\n  and\n    /* \"#utility.yul\":389:454   */\n  swap1\n  pop\n    /* \"#utility.yul\":334:460   */\n  swap2\n  swap1\n  pop\n  jump\t// out\n    /* \"#utility.yul\":466:562   */\ntag_11:\n    /* \"#utility.yul\":503:510   */\n  0x00\n    /* \"#utility.yul\":532:556   */\n  tag_20\n    /* \"#utility.yul\":550:555   */\n  dup3\n    /* \"#utility.yul\":532:556   */\n  tag_10\n  jump\t// in\ntag_20:\n    /* \"#utility.yul\":521:556   */\n  swap1\n  pop\n    /* \"#utility.yul\":466:562   */\n  swap2\n  swap1\n  pop\n  jump\t// out\n    /* \"#utility.yul\":568:690   */\ntag_12:\n    /* \"#utility.yul\":641:665   */\n  tag_22\n    /* \"#utility.yul\":659:664   */\n  dup2\n    /* \"#utility.yul\":641:665   */\n  tag_11\n  jump\t// in\ntag_22:\n    /* \"#utility.yul\":634:639   */\n  dup2\n    /* \"#utility.yul\":631:666   */\n  eq\n    /* \"#utility.yul\":621:684   */\n  tag_23\n  jumpi\n    /* \"#utility.yul\":680:681   */\n  0x00\n    /* \"#utility.yul\":677:678   */\n  0x00\n    /* \"#utility.yul\":670:682   */\n  revert\n    /* \"#utility.yul\":621:684   */\ntag_23:\n    /* \"#utility.yul\":568:690   */\n  pop\n  jump\t// out\n    /* \"#utility.yul\":696:839   */\ntag_13:\n    /* \"#utility.yul\":753:758   */\n  0x00\n    /* \"#utility.yul\":784:790   */\n  dup2\n    /* \"#utility.yul\":778:791   */\n  mload\n    /* \"#utility.yul\":769:791   */\n  swap1\n  pop\n    /* \"#utility.yul\":800:833   */\n  tag_25\n    /* \"#utility.yul\":827:832   */\n  dup2\n    /* \"#utility.yul\":800:833   */\n  tag_12\n  jump\t// in\ntag_25:\n    /* \"#utility.yul\":696:839   */\n  swap3\n  swap2\n  pop\n  pop\n  jump\t// out\n    /* \"#utility.yul\":845:1196   */\ntag_3:\n    /* \"#utility.yul\":915:921   */\n  0x00\n    /* \"#utility.yul\":964:966   */\n  0x20\n    /* \"#utility.yul\":952:961   */\n  dup3\n    /* \"#utility.yul\":943:950   */\n  dup5\n    /* \"#utility.yul\":939:962   */\n  sub\n    /* \"#utility.yul\":935:967   */\n  slt\n    /* \"#utility.yul\":932:1051   */\n  iszero\n  tag_27\n  jumpi\n    /* \"#utility.yul\":970:1049   */\n  tag_28\n  tag_8\n  jump\t// in\ntag_28:\n    /* \"#utility.yul\":932:1051   */\ntag_27:\n    /* \"#utility.yul\":1090:1091   */\n  0x00\n    /* \"#utility.yul\":1115:1179   */\n  tag_29\n    /* \"#utility.yul\":1171:1178   */\n  dup5\n    /* \"#utility.yul\":1162:1168   */\n  dup3\n    /* \"#utility.yul\":1151:1160   */\n  dup6\n    /* \"#utility.yul\":1147:1169   */\n  add\n    /* \"#utility.yul\":1115:1179   */\n  tag_13\n  jump\t// in\ntag_29:\n    /* \"#utility.yul\":1105:1179   */\n  swap2\n  pop\n    /* \"#utility.yul\":1061:1189   */\n  pop\n    /* \"#utility.yul\":845:1196   */\n  swap3\n  swap2\n  pop\n  pop\n  jump\t// out\n    /* \"CarbonTrader.sol\":1700:8728  contract CarbonTrader {... */\ntag_6:\n  mload(0x80)\n  codecopy(0x00, dataOffset(sub_0), dataSize(sub_0))\n  0x00\n  assignImmutable(\"0xa413d075ec804ca282f1637fedbe82ecda1992097d14e4d900d254e0f5fe523d\")\n  return(0x00, dataSize(sub_0))\nstop\n\nsub_0: assembly {\n        /* \"CarbonTrader.sol\":1700:8728  contract CarbonTrader {... */\n      mstore(0x40, 0x80)\n      callvalue\n      dup1\n      iszero\n      tag_1\n      jumpi\n      revert(0x00, 0x00)\n    tag_1:\n      pop\n      jumpi(tag_2, lt(calldatasize, 0x04))\n      shr(0xe0, calldataload(0x00))\n      dup1\n      0x9fa637a8\n      gt\n      tag_19\n      jumpi\n      dup1\n      0xd62b58ca\n      gt\n      tag_20\n      jumpi\n      dup1\n      0xd62b58ca\n      eq\n      tag_15\n      jumpi\n      dup1\n      0xeb5a662e\n      eq\n      tag_16\n      jumpi\n      dup1\n      0xef398f23\n      eq\n      tag_17\n      jumpi\n      dup1\n      0xfbdc40fa\n      eq\n      tag_18\n      jumpi\n      jump(tag_2)\n    tag_20:\n      dup1\n      0x9fa637a8\n      eq\n      tag_11\n      jumpi\n      dup1\n      0xa5ae69b7\n      eq\n      tag_12\n      jumpi\n      dup1\n      0xd0606507\n      eq\n      tag_13\n      jumpi\n      dup1\n      0xd107a5cc\n      eq\n      tag_14\n      jumpi\n      jump(tag_2)\n    tag_19:\n      dup1\n      0x6597d75f\n      gt\n      tag_21\n      jumpi\n      dup1\n      0x6597d75f\n      eq\n      tag_7\n      jumpi\n      dup1\n      0x68b377ca\n      eq\n      tag_8\n      jumpi\n      dup1\n      0x733da7c8\n      eq\n      tag_9\n      jumpi\n      dup1\n      0x86f99e5e\n      eq\n      tag_10\n      jumpi\n      jump(tag_2)\n    tag_21:\n      dup1\n      0x3997bd\n      eq\n      tag_3\n      jumpi\n      dup1\n      0x41e90ce6\n      eq\n      tag_4\n      jumpi\n      dup1\n      0x459ccec7\n      eq\n      tag_5\n      jumpi\n      dup1\n      0x64502cae\n      eq\n      tag_6\n      jumpi\n    tag_2:\n      revert(0x00, 0x00)\n        /* \"CarbonTrader.sol\":6918:7113  function getBidInfo(string memory tradeId) public view returns (string memory){... */\n    tag_3:\n      tag_22\n      0x04\n      dup1\n      calldatasize\n      sub\n      dup2\n      add\n      swap1\n      tag_23\n      swap2\n      swap1\n      tag_24\n      jump\t// in\n    tag_23:\n      tag_25\n      jump\t// in\n    tag_22:\n      mload(0x40)\n      tag_26\n      swap2\n      swap1\n      tag_27\n      jump\t// in\n    tag_26:\n      mload(0x40)\n      dup1\n      swap2\n      sub\n      swap1\n      return\n        /* \"CarbonTrader.sol\":3180:3349  function unfreezeAllowance(address user, uint256 amount) public onlyOwner{... */\n    tag_4:\n      tag_28\n      0x04\n      dup1\n      calldatasize\n      sub\n      dup2\n      add\n      swap1\n      tag_29\n      swap2\n      swap1\n      tag_30\n      jump\t// in\n    tag_29:\n      tag_31\n      jump\t// in\n    tag_28:\n      stop\n        /* \"CarbonTrader.sol\":3610:3711  function destroyAllAllowance(address user) public onlyOwner{... */\n    tag_5:\n      tag_32\n      0x04\n      dup1\n      calldatasize\n      sub\n      dup2\n      add\n      swap1\n      tag_33\n      swap2\n      swap1\n      tag_34\n      jump\t// in\n    tag_33:\n      tag_35\n      jump\t// in\n    tag_32:\n      stop\n        /* \"CarbonTrader.sol\":3484:3604  function destroyAllowance(address user, uint256 amount) public onlyOwner{... */\n    tag_6:\n      tag_36\n      0x04\n      dup1\n      calldatasize\n      sub\n      dup2\n      add\n      swap1\n      tag_37\n      swap2\n      swap1\n      tag_30\n      jump\t// in\n    tag_37:\n      tag_38\n      jump\t// in\n    tag_36:\n      stop\n        /* \"CarbonTrader.sol\":6035:6530  function  refound(string memory tradeId) public{//任何时候都可以发起退款吗？... */\n    tag_7:\n      tag_39\n      0x04\n      dup1\n      calldatasize\n      sub\n      dup2\n      add\n      swap1\n      tag_40\n      swap2\n      swap1\n      tag_24\n      jump\t// in\n    tag_40:\n      tag_41\n      jump\t// in\n    tag_39:\n      stop\n        /* \"CarbonTrader.sol\":5417:5862  function deposit(string memory tradeId, uint256 amount, string memory info) public {... */\n    tag_8:\n      tag_42\n      0x04\n      dup1\n      calldatasize\n      sub\n      dup2\n      add\n      swap1\n      tag_43\n      swap2\n      swap1\n      tag_44\n      jump\t// in\n    tag_43:\n      tag_45\n      jump\t// in\n    tag_42:\n      stop\n        /* \"CarbonTrader.sol\":2767:2884  function issueAllowance(address user, uint256 amount)public onlyOwner{... */\n    tag_9:\n      tag_46\n      0x04\n      dup1\n      calldatasize\n      sub\n      dup2\n      add\n      swap1\n      tag_47\n      swap2\n      swap1\n      tag_30\n      jump\t// in\n    tag_47:\n      tag_48\n      jump\t// in\n    tag_46:\n      stop\n        /* \"CarbonTrader.sol\":8161:8614  function withdrawAuctionAmount() public {  //能调用这个函数的本身就是卖家了... */\n    tag_10:\n      tag_49\n      tag_50\n      jump\t// in\n    tag_49:\n      stop\n        /* \"CarbonTrader.sol\":4597:5082  function getTrade(string memory tradeId) public view returns(... */\n    tag_11:\n      tag_51\n      0x04\n      dup1\n      calldatasize\n      sub\n      dup2\n      add\n      swap1\n      tag_52\n      swap2\n      swap1\n      tag_24\n      jump\t// in\n    tag_52:\n      tag_53\n      jump\t// in\n    tag_51:\n      mload(0x40)\n      tag_54\n      swap7\n      swap6\n      swap5\n      swap4\n      swap3\n      swap2\n      swap1\n      tag_55\n      jump\t// in\n    tag_54:\n      mload(0x40)\n      dup1\n      swap2\n      sub\n      swap1\n      return\n        /* \"CarbonTrader.sol\":6729:6912  function setBidKey(string memory tradeId, string memory key) public{... */\n    tag_12:\n      tag_56\n      0x04\n      dup1\n      calldatasize\n      sub\n      dup2\n      add\n      swap1\n      tag_57\n      swap2\n      swap1\n      tag_58\n      jump\t// in\n    tag_57:\n      tag_59\n      jump\t// in\n    tag_56:\n      stop\n        /* \"CarbonTrader.sol\":6536:6723  function setBidInfo(string memory tradeId,string memory info) public {... */\n    tag_13:\n      tag_60\n      0x04\n      dup1\n      calldatasize\n      sub\n      dup2\n      add\n      swap1\n      tag_61\n      swap2\n      swap1\n      tag_58\n      jump\t// in\n    tag_61:\n      tag_62\n      jump\t// in\n    tag_60:\n      stop\n        /* \"CarbonTrader.sol\":3007:3174  function freezeAllowance(address user, uint256 amount) public onlyOwner{... */\n    tag_14:\n      tag_63\n      0x04\n      dup1\n      calldatasize\n      sub\n      dup2\n      add\n      swap1\n      tag_64\n      swap2\n      swap1\n      tag_30\n      jump\t// in\n    tag_64:\n      tag_65\n      jump\t// in\n    tag_63:\n      stop\n        /* \"CarbonTrader.sol\":7119:8143  function finalizeAuctionAndTransferCarbon(... */\n    tag_15:\n      tag_66\n      0x04\n      dup1\n      calldatasize\n      sub\n      dup2\n      add\n      swap1\n      tag_67\n      swap2\n      swap1\n      tag_68\n      jump\t// in\n    tag_67:\n      tag_69\n      jump\t// in\n    tag_66:\n      stop\n        /* \"CarbonTrader.sol\":2890:3001  function getAllowance(address user) public view returns(uint256){... */\n    tag_16:\n      tag_70\n      0x04\n      dup1\n      calldatasize\n      sub\n      dup2\n      add\n      swap1\n      tag_71\n      swap2\n      swap1\n      tag_34\n      jump\t// in\n    tag_71:\n      tag_72\n      jump\t// in\n    tag_70:\n      mload(0x40)\n      tag_73\n      swap2\n      swap1\n      tag_74\n      jump\t// in\n    tag_73:\n      mload(0x40)\n      dup1\n      swap2\n      sub\n      swap1\n      return\n        /* \"CarbonTrader.sol\":3717:4591  function createTrade(... */\n    tag_17:\n      tag_75\n      0x04\n      dup1\n      calldatasize\n      sub\n      dup2\n      add\n      swap1\n      tag_76\n      swap2\n      swap1\n      tag_77\n      jump\t// in\n    tag_76:\n      tag_78\n      jump\t// in\n    tag_75:\n      stop\n        /* \"CarbonTrader.sol\":3355:3478  function getFreezedAllowance(address user) public view returns(uint256){... */\n    tag_18:\n      tag_79\n      0x04\n      dup1\n      calldatasize\n      sub\n      dup2\n      add\n      swap1\n      tag_80\n      swap2\n      swap1\n      tag_34\n      jump\t// in\n    tag_80:\n      tag_81\n      jump\t// in\n    tag_79:\n      mload(0x40)\n      tag_82\n      swap2\n      swap1\n      tag_74\n      jump\t// in\n    tag_82:\n      mload(0x40)\n      dup1\n      swap2\n      sub\n      swap1\n      return\n        /* \"CarbonTrader.sol\":6918:7113  function getBidInfo(string memory tradeId) public view returns (string memory){... */\n    tag_25:\n        /* \"CarbonTrader.sol\":6982:6995  string memory */\n      0x60\n        /* \"CarbonTrader.sol\":7006:7032  trade storage currentTrade */\n      0x00\n        /* \"CarbonTrader.sol\":7035:7044  idToTrade */\n      0x03\n        /* \"CarbonTrader.sol\":7045:7052  tradeId */\n      dup4\n        /* \"CarbonTrader.sol\":7035:7053  idToTrade[tradeId] */\n      mload(0x40)\n      tag_84\n      swap2\n      swap1\n      tag_85\n      jump\t// in\n    tag_84:\n      swap1\n      dup2\n      mstore\n      0x20\n      add\n      mload(0x40)\n      dup1\n      swap2\n      sub\n      swap1\n      keccak256\n        /* \"CarbonTrader.sol\":7006:7053  trade storage currentTrade = idToTrade[tradeId] */\n      swap1\n      pop\n        /* \"CarbonTrader.sol\":7070:7082  currentTrade */\n      dup1\n        /* \"CarbonTrader.sol\":7070:7094  currentTrade.cryptedInfo */\n      0x07\n      add\n        /* \"CarbonTrader.sol\":7070:7106  currentTrade.cryptedInfo[msg.sender] */\n      0x00\n        /* \"CarbonTrader.sol\":7095:7105  msg.sender */\n      caller\n        /* \"CarbonTrader.sol\":7070:7106  currentTrade.cryptedInfo[msg.sender] */\n      0xffffffffffffffffffffffffffffffffffffffff\n      and\n      0xffffffffffffffffffffffffffffffffffffffff\n      and\n      dup2\n      mstore\n      0x20\n      add\n      swap1\n      dup2\n      mstore\n      0x20\n      add\n      0x00\n      keccak256\n        /* \"CarbonTrader.sol\":7063:7106  return currentTrade.cryptedInfo[msg.sender] */\n      dup1\n      sload\n      tag_86\n      swap1\n      tag_87\n      jump\t// in\n    tag_86:\n      dup1\n      0x1f\n      add\n      0x20\n      dup1\n      swap2\n      div\n      mul\n      0x20\n      add\n      mload(0x40)\n      swap1\n      dup2\n      add\n      0x40\n      mstore\n      dup1\n      swap3\n      swap2\n      swap1\n      dup2\n      dup2\n      mstore\n      0x20\n      add\n      dup3\n      dup1\n      sload\n      tag_88\n      swap1\n      tag_87\n      jump\t// in\n    tag_88:\n      dup1\n      iszero\n      tag_89\n      jumpi\n      dup1\n      0x1f\n      lt\n      tag_90\n      jumpi\n      0x0100\n      dup1\n      dup4\n      sload\n      div\n      mul\n      dup4\n      mstore\n      swap2\n      0x20\n      add\n      swap2\n      jump(tag_89)\n    tag_90:\n      dup3\n      add\n      swap2\n      swap1\n      0x00\n      mstore\n      keccak256(0x00, 0x20)\n      swap1\n    tag_91:\n      dup2\n      sload\n      dup2\n      mstore\n      swap1\n      0x01\n      add\n      swap1\n      0x20\n      add\n      dup1\n      dup4\n      gt\n      tag_91\n      jumpi\n      dup3\n      swap1\n      sub\n      0x1f\n      and\n      dup3\n      add\n      swap2\n    tag_89:\n      pop\n      pop\n      pop\n      pop\n      pop\n      swap2\n      pop\n      pop\n        /* \"CarbonTrader.sol\":6918:7113  function getBidInfo(string memory tradeId) public view returns (string memory){... */\n      swap2\n      swap1\n      pop\n      jump\t// out\n        /* \"CarbonTrader.sol\":3180:3349  function unfreezeAllowance(address user, uint256 amount) public onlyOwner{... */\n    tag_31:\n        /* \"CarbonTrader.sol\":2512:2517  owner */\n      immutable(\"0xa413d075ec804ca282f1637fedbe82ecda1992097d14e4d900d254e0f5fe523d\")\n        /* \"CarbonTrader.sol\":2498:2517  msg.sender != owner */\n      0xffffffffffffffffffffffffffffffffffffffff\n      and\n        /* \"CarbonTrader.sol\":2498:2508  msg.sender */\n      caller\n        /* \"CarbonTrader.sol\":2498:2517  msg.sender != owner */\n      0xffffffffffffffffffffffffffffffffffffffff\n      and\n      eq\n        /* \"CarbonTrader.sol\":2495:2743  if(msg.sender != owner ) //owner只在函数初始化时候编译一次，此后都固定了，但是发起人是调用合约的人，可以是用户，也可以是管理员。所以需要验证是否owner... */\n      tag_93\n      jumpi\n        /* \"CarbonTrader.sol\":2720:2743  CarbonTrader_NotOwner() */\n      mload(0x40)\n      0xc31b2cfe00000000000000000000000000000000000000000000000000000000\n      dup2\n      mstore\n      0x04\n      add\n      mload(0x40)\n      dup1\n      swap2\n      sub\n      swap1\n      revert\n        /* \"CarbonTrader.sol\":2495:2743  if(msg.sender != owner ) //owner只在函数初始化时候编译一次，此后都固定了，但是发起人是调用合约的人，可以是用户，也可以是管理员。所以需要验证是否owner... */\n    tag_93:\n        /* \"CarbonTrader.sol\":3288:3294  amount */\n      dup1\n        /* \"CarbonTrader.sol\":3263:3278  userToAllowance */\n      0x00\n        /* \"CarbonTrader.sol\":3263:3284  userToAllowance[user] */\n      0x00\n        /* \"CarbonTrader.sol\":3279:3283  user */\n      dup5\n        /* \"CarbonTrader.sol\":3263:3284  userToAllowance[user] */\n      0xffffffffffffffffffffffffffffffffffffffff\n      and\n      0xffffffffffffffffffffffffffffffffffffffff\n      and\n      dup2\n      mstore\n      0x20\n      add\n      swap1\n      dup2\n      mstore\n      0x20\n      add\n      0x00\n      keccak256\n      0x00\n        /* \"CarbonTrader.sol\":3263:3294  userToAllowance[user] += amount */\n      dup3\n      dup3\n      sload\n      tag_95\n      swap2\n      swap1\n      tag_96\n      jump\t// in\n    tag_95:\n      swap3\n      pop\n      pop\n      dup2\n      swap1\n      sstore\n      pop\n        /* \"CarbonTrader.sol\":3336:3342  amount */\n      dup1\n        /* \"CarbonTrader.sol\":3304:3326  userToFreezedAllowance */\n      0x01\n        /* \"CarbonTrader.sol\":3304:3332  userToFreezedAllowance[user] */\n      0x00\n        /* \"CarbonTrader.sol\":3327:3331  user */\n      dup5\n        /* \"CarbonTrader.sol\":3304:3332  userToFreezedAllowance[user] */\n      0xffffffffffffffffffffffffffffffffffffffff\n      and\n      0xffffffffffffffffffffffffffffffffffffffff\n      and\n      dup2\n      mstore\n      0x20\n      add\n      swap1\n      dup2\n      mstore\n      0x20\n      add\n      0x00\n      keccak256\n      0x00\n        /* \"CarbonTrader.sol\":3304:3342  userToFreezedAllowance[user] -= amount */\n      dup3\n      dup3\n      sload\n      tag_97\n      swap2\n      swap1\n      tag_98\n      jump\t// in\n    tag_97:\n      swap3\n      pop\n      pop\n      dup2\n      swap1\n      sstore\n      pop\n        /* \"CarbonTrader.sol\":3180:3349  function unfreezeAllowance(address user, uint256 amount) public onlyOwner{... */\n      pop\n      pop\n      jump\t// out\n        /* \"CarbonTrader.sol\":3610:3711  function destroyAllAllowance(address user) public onlyOwner{... */\n    tag_35:\n        /* \"CarbonTrader.sol\":2512:2517  owner */\n      immutable(\"0xa413d075ec804ca282f1637fedbe82ecda1992097d14e4d900d254e0f5fe523d\")\n        /* \"CarbonTrader.sol\":2498:2517  msg.sender != owner */\n      0xffffffffffffffffffffffffffffffffffffffff\n      and\n        /* \"CarbonTrader.sol\":2498:2508  msg.sender */\n      caller\n        /* \"CarbonTrader.sol\":2498:2517  msg.sender != owner */\n      0xffffffffffffffffffffffffffffffffffffffff\n      and\n      eq\n        /* \"CarbonTrader.sol\":2495:2743  if(msg.sender != owner ) //owner只在函数初始化时候编译一次，此后都固定了，但是发起人是调用合约的人，可以是用户，也可以是管理员。所以需要验证是否owner... */\n      tag_100\n      jumpi\n        /* \"CarbonTrader.sol\":2720:2743  CarbonTrader_NotOwner() */\n      mload(0x40)\n      0xc31b2cfe00000000000000000000000000000000000000000000000000000000\n      dup2\n      mstore\n      0x04\n      add\n      mload(0x40)\n      dup1\n      swap2\n      sub\n      swap1\n      revert\n        /* \"CarbonTrader.sol\":2495:2743  if(msg.sender != owner ) //owner只在函数初始化时候编译一次，此后都固定了，但是发起人是调用合约的人，可以是用户，也可以是管理员。所以需要验证是否owner... */\n    tag_100:\n        /* \"CarbonTrader.sol\":3703:3704  0 */\n      0x00\n        /* \"CarbonTrader.sol\":3679:3694  userToAllowance */\n      0x00\n        /* \"CarbonTrader.sol\":3679:3700  userToAllowance[user] */\n      0x00\n        /* \"CarbonTrader.sol\":3695:3699  user */\n      dup4\n        /* \"CarbonTrader.sol\":3679:3700  userToAllowance[user] */\n      0xffffffffffffffffffffffffffffffffffffffff\n      and\n      0xffffffffffffffffffffffffffffffffffffffff\n      and\n      dup2\n      mstore\n      0x20\n      add\n      swap1\n      dup2\n      mstore\n      0x20\n      add\n      0x00\n      keccak256\n        /* \"CarbonTrader.sol\":3679:3704  userToAllowance[user] = 0 */\n      dup2\n      swap1\n      sstore\n      pop\n        /* \"CarbonTrader.sol\":3610:3711  function destroyAllAllowance(address user) public onlyOwner{... */\n      pop\n      jump\t// out\n        /* \"CarbonTrader.sol\":3484:3604  function destroyAllowance(address user, uint256 amount) public onlyOwner{... */\n    tag_38:\n        /* \"CarbonTrader.sol\":2512:2517  owner */\n      immutable(\"0xa413d075ec804ca282f1637fedbe82ecda1992097d14e4d900d254e0f5fe523d\")\n        /* \"CarbonTrader.sol\":2498:2517  msg.sender != owner */\n      0xffffffffffffffffffffffffffffffffffffffff\n      and\n        /* \"CarbonTrader.sol\":2498:2508  msg.sender */\n      caller\n        /* \"CarbonTrader.sol\":2498:2517  msg.sender != owner */\n      0xffffffffffffffffffffffffffffffffffffffff\n      and\n      eq\n        /* \"CarbonTrader.sol\":2495:2743  if(msg.sender != owner ) //owner只在函数初始化时候编译一次，此后都固定了，但是发起人是调用合约的人，可以是用户，也可以是管理员。所以需要验证是否owner... */\n      tag_103\n      jumpi\n        /* \"CarbonTrader.sol\":2720:2743  CarbonTrader_NotOwner() */\n      mload(0x40)\n      0xc31b2cfe00000000000000000000000000000000000000000000000000000000\n      dup2\n      mstore\n      0x04\n      add\n      mload(0x40)\n      dup1\n      swap2\n      sub\n      swap1\n      revert\n        /* \"CarbonTrader.sol\":2495:2743  if(msg.sender != owner ) //owner只在函数初始化时候编译一次，此后都固定了，但是发起人是调用合约的人，可以是用户，也可以是管理员。所以需要验证是否owner... */\n    tag_103:\n        /* \"CarbonTrader.sol\":3591:3597  amount */\n      dup1\n        /* \"CarbonTrader.sol\":3566:3581  userToAllowance */\n      0x00\n        /* \"CarbonTrader.sol\":3566:3587  userToAllowance[user] */\n      0x00\n        /* \"CarbonTrader.sol\":3582:3586  user */\n      dup5\n        /* \"CarbonTrader.sol\":3566:3587  userToAllowance[user] */\n      0xffffffffffffffffffffffffffffffffffffffff\n      and\n      0xffffffffffffffffffffffffffffffffffffffff\n      and\n      dup2\n      mstore\n      0x20\n      add\n      swap1\n      dup2\n      mstore\n      0x20\n      add\n      0x00\n      keccak256\n      0x00\n        /* \"CarbonTrader.sol\":3566:3597  userToAllowance[user] -= amount */\n      dup3\n      dup3\n      sload\n      tag_105\n      swap2\n      swap1\n      tag_98\n      jump\t// in\n    tag_105:\n      swap3\n      pop\n      pop\n      dup2\n      swap1\n      sstore\n      pop\n        /* \"CarbonTrader.sol\":3484:3604  function destroyAllowance(address user, uint256 amount) public onlyOwner{... */\n      pop\n      pop\n      jump\t// out\n        /* \"CarbonTrader.sol\":6035:6530  function  refound(string memory tradeId) public{//任何时候都可以发起退款吗？... */\n    tag_41:\n        /* \"CarbonTrader.sol\":6133:6159  trade storage currentTrade */\n      0x00\n        /* \"CarbonTrader.sol\":6162:6171  idToTrade */\n      0x03\n        /* \"CarbonTrader.sol\":6172:6179  tradeId */\n      dup3\n        /* \"CarbonTrader.sol\":6162:6180  idToTrade[tradeId] */\n      mload(0x40)\n      tag_107\n      swap2\n      swap1\n      tag_85\n      jump\t// in\n    tag_107:\n      swap1\n      dup2\n      mstore\n      0x20\n      add\n      mload(0x40)\n      dup1\n      swap2\n      sub\n      swap1\n      keccak256\n        /* \"CarbonTrader.sol\":6133:6180  trade storage currentTrade = idToTrade[tradeId] */\n      swap1\n      pop\n        /* \"CarbonTrader.sol\":6190:6211  uint256 depositAmount */\n      0x00\n        /* \"CarbonTrader.sol\":6214:6226  currentTrade */\n      dup2\n        /* \"CarbonTrader.sol\":6214:6234  currentTrade.deposit */\n      0x06\n      add\n        /* \"CarbonTrader.sol\":6214:6246  currentTrade.deposit[msg.sender] */\n      0x00\n        /* \"CarbonTrader.sol\":6235:6245  msg.sender */\n      caller\n        /* \"CarbonTrader.sol\":6214:6246  currentTrade.deposit[msg.sender] */\n      0xffffffffffffffffffffffffffffffffffffffff\n      and\n      0xffffffffffffffffffffffffffffffffffffffff\n      and\n      dup2\n      mstore\n      0x20\n      add\n      swap1\n      dup2\n      mstore\n      0x20\n      add\n      0x00\n      keccak256\n      sload\n        /* \"CarbonTrader.sol\":6190:6246  uint256 depositAmount = currentTrade.deposit[msg.sender] */\n      swap1\n      pop\n        /* \"CarbonTrader.sol\":6292:6293  0 */\n      0x00\n        /* \"CarbonTrader.sol\":6257:6269  currentTrade */\n      dup3\n        /* \"CarbonTrader.sol\":6257:6277  currentTrade.deposit */\n      0x06\n      add\n        /* \"CarbonTrader.sol\":6257:6289  currentTrade.deposit[msg.sender] */\n      0x00\n        /* \"CarbonTrader.sol\":6278:6288  msg.sender */\n      caller\n        /* \"CarbonTrader.sol\":6257:6289  currentTrade.deposit[msg.sender] */\n      0xffffffffffffffffffffffffffffffffffffffff\n      and\n      0xffffffffffffffffffffffffffffffffffffffff\n      and\n      dup2\n      mstore\n      0x20\n      add\n      swap1\n      dup2\n      mstore\n      0x20\n      add\n      0x00\n      keccak256\n        /* \"CarbonTrader.sol\":6257:6293  currentTrade.deposit[msg.sender] = 0 */\n      dup2\n      swap1\n      sstore\n      pop\n        /* \"CarbonTrader.sol\":6304:6316  bool success */\n      0x00\n        /* \"CarbonTrader.sol\":6319:6324  token */\n      0x04\n      0x00\n      swap1\n      sload\n      swap1\n      0x0100\n      exp\n      swap1\n      div\n      0xffffffffffffffffffffffffffffffffffffffff\n      and\n        /* \"CarbonTrader.sol\":6319:6333  token.transfer */\n      0xffffffffffffffffffffffffffffffffffffffff\n      and\n      0xa9059cbb\n        /* \"CarbonTrader.sol\":6334:6344  msg.sender */\n      caller\n        /* \"CarbonTrader.sol\":6345:6358  depositAmount */\n      dup5\n        /* \"CarbonTrader.sol\":6319:6359  token.transfer(msg.sender,depositAmount) */\n      mload(0x40)\n      dup4\n      0xffffffff\n      and\n      0xe0\n      shl\n      dup2\n      mstore\n      0x04\n      add\n      tag_108\n      swap3\n      swap2\n      swap1\n      tag_109\n      jump\t// in\n    tag_108:\n      0x20\n      mload(0x40)\n      dup1\n      dup4\n      sub\n      dup2\n      0x00\n      dup8\n      gas\n      call\n      iszero\n      dup1\n      iszero\n      tag_111\n      jumpi\n      returndatacopy(0x00, 0x00, returndatasize)\n      revert(0x00, returndatasize)\n    tag_111:\n      pop\n      pop\n      pop\n      pop\n      mload(0x40)\n      returndatasize\n      not(0x1f)\n      0x1f\n      dup3\n      add\n      and\n      dup3\n      add\n      dup1\n      0x40\n      mstore\n      pop\n      dup2\n      add\n      swap1\n      tag_112\n      swap2\n      swap1\n      tag_113\n      jump\t// in\n    tag_112:\n        /* \"CarbonTrader.sol\":6304:6359  bool success = token.transfer(msg.sender,depositAmount) */\n      swap1\n      pop\n        /* \"CarbonTrader.sol\":6373:6380  success */\n      dup1\n        /* \"CarbonTrader.sol\":6369:6505  if(!success) {... */\n      tag_114\n      jumpi\n        /* \"CarbonTrader.sol\":6431:6444  depositAmount */\n      dup2\n        /* \"CarbonTrader.sol\":6396:6408  currentTrade */\n      dup4\n        /* \"CarbonTrader.sol\":6396:6416  currentTrade.deposit */\n      0x06\n      add\n        /* \"CarbonTrader.sol\":6396:6428  currentTrade.deposit[msg.sender] */\n      0x00\n        /* \"CarbonTrader.sol\":6417:6427  msg.sender */\n      caller\n        /* \"CarbonTrader.sol\":6396:6428  currentTrade.deposit[msg.sender] */\n      0xffffffffffffffffffffffffffffffffffffffff\n      and\n      0xffffffffffffffffffffffffffffffffffffffff\n      and\n      dup2\n      mstore\n      0x20\n      add\n      swap1\n      dup2\n      mstore\n      0x20\n      add\n      0x00\n      keccak256\n        /* \"CarbonTrader.sol\":6396:6444  currentTrade.deposit[msg.sender] = depositAmount */\n      dup2\n      swap1\n      sstore\n      pop\n        /* \"CarbonTrader.sol\":6465:6494  CarbonTrader_TransferFailed() */\n      mload(0x40)\n      0x6511778900000000000000000000000000000000000000000000000000000000\n      dup2\n      mstore\n      0x04\n      add\n      mload(0x40)\n      dup1\n      swap2\n      sub\n      swap1\n      revert\n        /* \"CarbonTrader.sol\":6369:6505  if(!success) {... */\n    tag_114:\n        /* \"CarbonTrader.sol\":6082:6530  {//任何时候都可以发起退款吗？... */\n      pop\n      pop\n      pop\n        /* \"CarbonTrader.sol\":6035:6530  function  refound(string memory tradeId) public{//任何时候都可以发起退款吗？... */\n      pop\n      jump\t// out\n        /* \"CarbonTrader.sol\":5417:5862  function deposit(string memory tradeId, uint256 amount, string memory info) public {... */\n    tag_45:\n        /* \"CarbonTrader.sol\":5510:5536  trade storage currentTrade */\n      0x00\n        /* \"CarbonTrader.sol\":5539:5548  idToTrade */\n      0x03\n        /* \"CarbonTrader.sol\":5549:5556  tradeId */\n      dup5\n        /* \"CarbonTrader.sol\":5539:5557  idToTrade[tradeId] */\n      mload(0x40)\n      tag_116\n      swap2\n      swap1\n      tag_85\n      jump\t// in\n    tag_116:\n      swap1\n      dup2\n      mstore\n      0x20\n      add\n      mload(0x40)\n      dup1\n      swap2\n      sub\n      swap1\n      keccak256\n        /* \"CarbonTrader.sol\":5510:5557  trade storage currentTrade = idToTrade[tradeId] */\n      swap1\n      pop\n        /* \"CarbonTrader.sol\":5568:5580  bool success */\n      0x00\n        /* \"CarbonTrader.sol\":5583:5588  token */\n      0x04\n      0x00\n      swap1\n      sload\n      swap1\n      0x0100\n      exp\n      swap1\n      div\n      0xffffffffffffffffffffffffffffffffffffffff\n      and\n        /* \"CarbonTrader.sol\":5583:5601  token.transferFrom */\n      0xffffffffffffffffffffffffffffffffffffffff\n      and\n      0x23b872dd\n        /* \"CarbonTrader.sol\":5602:5612  msg.sender */\n      caller\n        /* \"CarbonTrader.sol\":5622:5626  this */\n      address\n        /* \"CarbonTrader.sol\":5629:5635  amount */\n      dup8\n        /* \"CarbonTrader.sol\":5583:5636  token.transferFrom(msg.sender, address(this), amount) */\n      mload(0x40)\n      dup5\n      0xffffffff\n      and\n      0xe0\n      shl\n      dup2\n      mstore\n      0x04\n      add\n      tag_117\n      swap4\n      swap3\n      swap2\n      swap1\n      tag_118\n      jump\t// in\n    tag_117:\n      0x20\n      mload(0x40)\n      dup1\n      dup4\n      sub\n      dup2\n      0x00\n      dup8\n      gas\n      call\n      iszero\n      dup1\n      iszero\n      tag_120\n      jumpi\n      returndatacopy(0x00, 0x00, returndatasize)\n      revert(0x00, returndatasize)\n    tag_120:\n      pop\n      pop\n      pop\n      pop\n      mload(0x40)\n      returndatasize\n      not(0x1f)\n      0x1f\n      dup3\n      add\n      and\n      dup3\n      add\n      dup1\n      0x40\n      mstore\n      pop\n      dup2\n      add\n      swap1\n      tag_121\n      swap2\n      swap1\n      tag_113\n      jump\t// in\n    tag_121:\n        /* \"CarbonTrader.sol\":5568:5636  bool success = token.transferFrom(msg.sender, address(this), amount) */\n      swap1\n      pop\n        /* \"CarbonTrader.sol\":5702:5709  success */\n      dup1\n        /* \"CarbonTrader.sol\":5698:5760  if(!success) ... */\n      tag_122\n      jumpi\n        /* \"CarbonTrader.sol\":5731:5760  CarbonTrader_TransferFailed() */\n      mload(0x40)\n      0x6511778900000000000000000000000000000000000000000000000000000000\n      dup2\n      mstore\n      0x04\n      add\n      mload(0x40)\n      dup1\n      swap2\n      sub\n      swap1\n      revert\n        /* \"CarbonTrader.sol\":5698:5760  if(!success) ... */\n    tag_122:\n        /* \"CarbonTrader.sol\":5814:5820  amount */\n      dup4\n        /* \"CarbonTrader.sol\":5779:5791  currentTrade */\n      dup3\n        /* \"CarbonTrader.sol\":5779:5799  currentTrade.deposit */\n      0x06\n      add\n        /* \"CarbonTrader.sol\":5779:5811  currentTrade.deposit[msg.sender] */\n      0x00\n        /* \"CarbonTrader.sol\":5800:5810  msg.sender */\n      caller\n        /* \"CarbonTrader.sol\":5779:5811  currentTrade.deposit[msg.sender] */\n      0xffffffffffffffffffffffffffffffffffffffff\n      and\n      0xffffffffffffffffffffffffffffffffffffffff\n      and\n      dup2\n      mstore\n      0x20\n      add\n      swap1\n      dup2\n      mstore\n      0x20\n      add\n      0x00\n      keccak256\n        /* \"CarbonTrader.sol\":5779:5820  currentTrade.deposit[msg.sender] = amount */\n      dup2\n      swap1\n      sstore\n      pop\n        /* \"CarbonTrader.sol\":5830:5855  setBidInfo(tradeId, info) */\n      tag_123\n        /* \"CarbonTrader.sol\":5841:5848  tradeId */\n      dup6\n        /* \"CarbonTrader.sol\":5850:5854  info */\n      dup5\n        /* \"CarbonTrader.sol\":5830:5840  setBidInfo */\n      tag_62\n        /* \"CarbonTrader.sol\":5830:5855  setBidInfo(tradeId, info) */\n      jump\t// in\n    tag_123:\n        /* \"CarbonTrader.sol\":5500:5862  {... */\n      pop\n      pop\n        /* \"CarbonTrader.sol\":5417:5862  function deposit(string memory tradeId, uint256 amount, string memory info) public {... */\n      pop\n      pop\n      pop\n      jump\t// out\n        /* \"CarbonTrader.sol\":2767:2884  function issueAllowance(address user, uint256 amount)public onlyOwner{... */\n    tag_48:\n        /* \"CarbonTrader.sol\":2512:2517  owner */\n      immutable(\"0xa413d075ec804ca282f1637fedbe82ecda1992097d14e4d900d254e0f5fe523d\")\n        /* \"CarbonTrader.sol\":2498:2517  msg.sender != owner */\n      0xffffffffffffffffffffffffffffffffffffffff\n      and\n        /* \"CarbonTrader.sol\":2498:2508  msg.sender */\n      caller\n        /* \"CarbonTrader.sol\":2498:2517  msg.sender != owner */\n      0xffffffffffffffffffffffffffffffffffffffff\n      and\n      eq\n        /* \"CarbonTrader.sol\":2495:2743  if(msg.sender != owner ) //owner只在函数初始化时候编译一次，此后都固定了，但是发起人是调用合约的人，可以是用户，也可以是管理员。所以需要验证是否owner... */\n      tag_125\n      jumpi\n        /* \"CarbonTrader.sol\":2720:2743  CarbonTrader_NotOwner() */\n      mload(0x40)\n      0xc31b2cfe00000000000000000000000000000000000000000000000000000000\n      dup2\n      mstore\n      0x04\n      add\n      mload(0x40)\n      dup1\n      swap2\n      sub\n      swap1\n      revert\n        /* \"CarbonTrader.sol\":2495:2743  if(msg.sender != owner ) //owner只在函数初始化时候编译一次，此后都固定了，但是发起人是调用合约的人，可以是用户，也可以是管理员。所以需要验证是否owner... */\n    tag_125:\n        /* \"CarbonTrader.sol\":2871:2877  amount */\n      dup1\n        /* \"CarbonTrader.sol\":2846:2861  userToAllowance */\n      0x00\n        /* \"CarbonTrader.sol\":2846:2867  userToAllowance[user] */\n      0x00\n        /* \"CarbonTrader.sol\":2862:2866  user */\n      dup5\n        /* \"CarbonTrader.sol\":2846:2867  userToAllowance[user] */\n      0xffffffffffffffffffffffffffffffffffffffff\n      and\n      0xffffffffffffffffffffffffffffffffffffffff\n      and\n      dup2\n      mstore\n      0x20\n      add\n      swap1\n      dup2\n      mstore\n      0x20\n      add\n      0x00\n      keccak256\n      0x00\n        /* \"CarbonTrader.sol\":2846:2877  userToAllowance[user] += amount */\n      dup3\n      dup3\n      sload\n      tag_127\n      swap2\n      swap1\n      tag_96\n      jump\t// in\n    tag_127:\n      swap3\n      pop\n      pop\n      dup2\n      swap1\n      sstore\n      pop\n        /* \"CarbonTrader.sol\":2767:2884  function issueAllowance(address user, uint256 amount)public onlyOwner{... */\n      pop\n      pop\n      jump\t// out\n        /* \"CarbonTrader.sol\":8161:8614  function withdrawAuctionAmount() public {  //能调用这个函数的本身就是卖家了... */\n    tag_50:\n        /* \"CarbonTrader.sol\":8260:8282  uint256 withdrawAmount */\n      0x00\n        /* \"CarbonTrader.sol\":8285:8298  auctionAmount */\n      0x02\n        /* \"CarbonTrader.sol\":8285:8310  auctionAmount[msg.sender] */\n      0x00\n        /* \"CarbonTrader.sol\":8299:8309  msg.sender */\n      caller\n        /* \"CarbonTrader.sol\":8285:8310  auctionAmount[msg.sender] */\n      0xffffffffffffffffffffffffffffffffffffffff\n      and\n      0xffffffffffffffffffffffffffffffffffffffff\n      and\n      dup2\n      mstore\n      0x20\n      add\n      swap1\n      dup2\n      mstore\n      0x20\n      add\n      0x00\n      keccak256\n      sload\n        /* \"CarbonTrader.sol\":8260:8310  uint256 withdrawAmount = auctionAmount[msg.sender] */\n      swap1\n      pop\n        /* \"CarbonTrader.sol\":8348:8349  0 */\n      0x00\n        /* \"CarbonTrader.sol\":8320:8333  auctionAmount */\n      0x02\n        /* \"CarbonTrader.sol\":8320:8345  auctionAmount[msg.sender] */\n      0x00\n        /* \"CarbonTrader.sol\":8334:8344  msg.sender */\n      caller\n        /* \"CarbonTrader.sol\":8320:8345  auctionAmount[msg.sender] */\n      0xffffffffffffffffffffffffffffffffffffffff\n      and\n      0xffffffffffffffffffffffffffffffffffffffff\n      and\n      dup2\n      mstore\n      0x20\n      add\n      swap1\n      dup2\n      mstore\n      0x20\n      add\n      0x00\n      keccak256\n        /* \"CarbonTrader.sol\":8320:8349  auctionAmount[msg.sender] = 0 */\n      dup2\n      swap1\n      sstore\n      pop\n        /* \"CarbonTrader.sol\":8359:8371  bool success */\n      0x00\n        /* \"CarbonTrader.sol\":8374:8379  token */\n      0x04\n      0x00\n      swap1\n      sload\n      swap1\n      0x0100\n      exp\n      swap1\n      div\n      0xffffffffffffffffffffffffffffffffffffffff\n      and\n        /* \"CarbonTrader.sol\":8374:8388  token.transfer */\n      0xffffffffffffffffffffffffffffffffffffffff\n      and\n      0xa9059cbb\n        /* \"CarbonTrader.sol\":8389:8399  msg.sender */\n      caller\n        /* \"CarbonTrader.sol\":8401:8415  withdrawAmount */\n      dup5\n        /* \"CarbonTrader.sol\":8374:8416  token.transfer(msg.sender, withdrawAmount) */\n      mload(0x40)\n      dup4\n      0xffffffff\n      and\n      0xe0\n      shl\n      dup2\n      mstore\n      0x04\n      add\n      tag_129\n      swap3\n      swap2\n      swap1\n      tag_109\n      jump\t// in\n    tag_129:\n      0x20\n      mload(0x40)\n      dup1\n      dup4\n      sub\n      dup2\n      0x00\n      dup8\n      gas\n      call\n      iszero\n      dup1\n      iszero\n      tag_131\n      jumpi\n      returndatacopy(0x00, 0x00, returndatasize)\n      revert(0x00, returndatasize)\n    tag_131:\n      pop\n      pop\n      pop\n      pop\n      mload(0x40)\n      returndatasize\n      not(0x1f)\n      0x1f\n      dup3\n      add\n      and\n      dup3\n      add\n      dup1\n      0x40\n      mstore\n      pop\n      dup2\n      add\n      swap1\n      tag_132\n      swap2\n      swap1\n      tag_113\n      jump\t// in\n    tag_132:\n        /* \"CarbonTrader.sol\":8359:8416  bool success = token.transfer(msg.sender, withdrawAmount) */\n      swap1\n      pop\n        /* \"CarbonTrader.sol\":8482:8489  success */\n      dup1\n        /* \"CarbonTrader.sol\":8478:8608  if(!success) {... */\n      tag_133\n      jumpi\n        /* \"CarbonTrader.sol\":8533:8547  withdrawAmount */\n      dup2\n        /* \"CarbonTrader.sol\":8505:8518  auctionAmount */\n      0x02\n        /* \"CarbonTrader.sol\":8505:8530  auctionAmount[msg.sender] */\n      0x00\n        /* \"CarbonTrader.sol\":8519:8529  msg.sender */\n      caller\n        /* \"CarbonTrader.sol\":8505:8530  auctionAmount[msg.sender] */\n      0xffffffffffffffffffffffffffffffffffffffff\n      and\n      0xffffffffffffffffffffffffffffffffffffffff\n      and\n      dup2\n      mstore\n      0x20\n      add\n      swap1\n      dup2\n      mstore\n      0x20\n      add\n      0x00\n      keccak256\n        /* \"CarbonTrader.sol\":8505:8547  auctionAmount[msg.sender] = withdrawAmount */\n      dup2\n      swap1\n      sstore\n      pop\n        /* \"CarbonTrader.sol\":8568:8597  CarbonTrader_TransferFailed() */\n      mload(0x40)\n      0x6511778900000000000000000000000000000000000000000000000000000000\n      dup2\n      mstore\n      0x04\n      add\n      mload(0x40)\n      dup1\n      swap2\n      sub\n      swap1\n      revert\n        /* \"CarbonTrader.sol\":8478:8608  if(!success) {... */\n    tag_133:\n        /* \"CarbonTrader.sol\":8201:8614  {  //能调用这个函数的本身就是卖家了... */\n      pop\n      pop\n        /* \"CarbonTrader.sol\":8161:8614  function withdrawAuctionAmount() public {  //能调用这个函数的本身就是卖家了... */\n      jump\t// out\n        /* \"CarbonTrader.sol\":4597:5082  function getTrade(string memory tradeId) public view returns(... */\n    tag_53:\n        /* \"CarbonTrader.sol\":4667:4674  address */\n      0x00\n        /* \"CarbonTrader.sol\":4684:4691  uint256 */\n      0x00\n        /* \"CarbonTrader.sol\":4701:4708  uint256 */\n      0x00\n        /* \"CarbonTrader.sol\":4718:4725  uint256 */\n      0x00\n        /* \"CarbonTrader.sol\":4735:4742  uint256 */\n      0x00\n        /* \"CarbonTrader.sol\":4752:4759  uint256 */\n      0x00\n        /* \"CarbonTrader.sol\":4807:4816  idToTrade */\n      0x03\n        /* \"CarbonTrader.sol\":4817:4824  tradeId */\n      dup8\n        /* \"CarbonTrader.sol\":4807:4825  idToTrade[tradeId] */\n      mload(0x40)\n      tag_135\n      swap2\n      swap1\n      tag_85\n      jump\t// in\n    tag_135:\n      swap1\n      dup2\n      mstore\n      0x20\n      add\n      mload(0x40)\n      dup1\n      swap2\n      sub\n      swap1\n      keccak256\n        /* \"CarbonTrader.sol\":4807:4832  idToTrade[tradeId].seller */\n      0x00\n      add\n      0x00\n      swap1\n      sload\n      swap1\n      0x0100\n      exp\n      swap1\n      div\n      0xffffffffffffffffffffffffffffffffffffffff\n      and\n        /* \"CarbonTrader.sol\":4850:4859  idToTrade */\n      0x03\n        /* \"CarbonTrader.sol\":4860:4867  tradeId */\n      dup9\n        /* \"CarbonTrader.sol\":4850:4868  idToTrade[tradeId] */\n      mload(0x40)\n      tag_136\n      swap2\n      swap1\n      tag_85\n      jump\t// in\n    tag_136:\n      swap1\n      dup2\n      mstore\n      0x20\n      add\n      mload(0x40)\n      dup1\n      swap2\n      sub\n      swap1\n      keccak256\n        /* \"CarbonTrader.sol\":4850:4875  idToTrade[tradeId].amount */\n      0x01\n      add\n      sload\n        /* \"CarbonTrader.sol\":4893:4902  idToTrade */\n      0x03\n        /* \"CarbonTrader.sol\":4903:4910  tradeId */\n      dup10\n        /* \"CarbonTrader.sol\":4893:4911  idToTrade[tradeId] */\n      mload(0x40)\n      tag_137\n      swap2\n      swap1\n      tag_85\n      jump\t// in\n    tag_137:\n      swap1\n      dup2\n      mstore\n      0x20\n      add\n      mload(0x40)\n      dup1\n      swap2\n      sub\n      swap1\n      keccak256\n        /* \"CarbonTrader.sol\":4893:4923  idToTrade[tradeId].startamount */\n      0x02\n      add\n      sload\n        /* \"CarbonTrader.sol\":4941:4950  idToTrade */\n      0x03\n        /* \"CarbonTrader.sol\":4951:4958  tradeId */\n      dup11\n        /* \"CarbonTrader.sol\":4941:4959  idToTrade[tradeId] */\n      mload(0x40)\n      tag_138\n      swap2\n      swap1\n      tag_85\n      jump\t// in\n    tag_138:\n      swap1\n      dup2\n      mstore\n      0x20\n      add\n      mload(0x40)\n      dup1\n      swap2\n      sub\n      swap1\n      keccak256\n        /* \"CarbonTrader.sol\":4941:4971  idToTrade[tradeId].priceOfUnit */\n      0x03\n      add\n      sload\n        /* \"CarbonTrader.sol\":4989:4998  idToTrade */\n      0x03\n        /* \"CarbonTrader.sol\":4999:5006  tradeId */\n      dup12\n        /* \"CarbonTrader.sol\":4989:5007  idToTrade[tradeId] */\n      mload(0x40)\n      tag_139\n      swap2\n      swap1\n      tag_85\n      jump\t// in\n    tag_139:\n      swap1\n      dup2\n      mstore\n      0x20\n      add\n      mload(0x40)\n      dup1\n      swap2\n      sub\n      swap1\n      keccak256\n        /* \"CarbonTrader.sol\":4989:5017  idToTrade[tradeId].startTime */\n      0x04\n      add\n      sload\n        /* \"CarbonTrader.sol\":5035:5044  idToTrade */\n      0x03\n        /* \"CarbonTrader.sol\":5045:5052  tradeId */\n      dup13\n        /* \"CarbonTrader.sol\":5035:5053  idToTrade[tradeId] */\n      mload(0x40)\n      tag_140\n      swap2\n      swap1\n      tag_85\n      jump\t// in\n    tag_140:\n      swap1\n      dup2\n      mstore\n      0x20\n      add\n      mload(0x40)\n      dup1\n      swap2\n      sub\n      swap1\n      keccak256\n        /* \"CarbonTrader.sol\":5035:5061  idToTrade[tradeId].endTime */\n      0x05\n      add\n      sload\n        /* \"CarbonTrader.sol\":4783:5075  return(... */\n      swap6\n      pop\n      swap6\n      pop\n      swap6\n      pop\n      swap6\n      pop\n      swap6\n      pop\n      swap6\n      pop\n        /* \"CarbonTrader.sol\":4597:5082  function getTrade(string memory tradeId) public view returns(... */\n      swap2\n      swap4\n      swap6\n      pop\n      swap2\n      swap4\n      swap6\n      jump\t// out\n        /* \"CarbonTrader.sol\":6729:6912  function setBidKey(string memory tradeId, string memory key) public{... */\n    tag_59:\n        /* \"CarbonTrader.sol\":6806:6832  trade storage currentTrade */\n      0x00\n        /* \"CarbonTrader.sol\":6835:6844  idToTrade */\n      0x03\n        /* \"CarbonTrader.sol\":6845:6852  tradeId */\n      dup4\n        /* \"CarbonTrader.sol\":6835:6853  idToTrade[tradeId] */\n      mload(0x40)\n      tag_142\n      swap2\n      swap1\n      tag_85\n      jump\t// in\n    tag_142:\n      swap1\n      dup2\n      mstore\n      0x20\n      add\n      mload(0x40)\n      dup1\n      swap2\n      sub\n      swap1\n      keccak256\n        /* \"CarbonTrader.sol\":6806:6853  trade storage currentTrade = idToTrade[tradeId] */\n      swap1\n      pop\n        /* \"CarbonTrader.sol\":6902:6905  key */\n      dup2\n        /* \"CarbonTrader.sol\":6863:6875  currentTrade */\n      dup2\n        /* \"CarbonTrader.sol\":6863:6887  currentTrade.decrypteKey */\n      0x08\n      add\n        /* \"CarbonTrader.sol\":6863:6899  currentTrade.decrypteKey[msg.sender] */\n      0x00\n        /* \"CarbonTrader.sol\":6888:6898  msg.sender */\n      caller\n        /* \"CarbonTrader.sol\":6863:6899  currentTrade.decrypteKey[msg.sender] */\n      0xffffffffffffffffffffffffffffffffffffffff\n      and\n      0xffffffffffffffffffffffffffffffffffffffff\n      and\n      dup2\n      mstore\n      0x20\n      add\n      swap1\n      dup2\n      mstore\n      0x20\n      add\n      0x00\n      keccak256\n        /* \"CarbonTrader.sol\":6863:6905  currentTrade.decrypteKey[msg.sender] = key */\n      swap1\n      dup2\n      tag_143\n      swap2\n      swap1\n      tag_144\n      jump\t// in\n    tag_143:\n      pop\n        /* \"CarbonTrader.sol\":6796:6912  {... */\n      pop\n        /* \"CarbonTrader.sol\":6729:6912  function setBidKey(string memory tradeId, string memory key) public{... */\n      pop\n      pop\n      jump\t// out\n        /* \"CarbonTrader.sol\":6536:6723  function setBidInfo(string memory tradeId,string memory info) public {... */\n    tag_62:\n        /* \"CarbonTrader.sol\":6615:6641  trade storage currentTrade */\n      0x00\n        /* \"CarbonTrader.sol\":6644:6653  idToTrade */\n      0x03\n        /* \"CarbonTrader.sol\":6654:6661  tradeId */\n      dup4\n        /* \"CarbonTrader.sol\":6644:6662  idToTrade[tradeId] */\n      mload(0x40)\n      tag_146\n      swap2\n      swap1\n      tag_85\n      jump\t// in\n    tag_146:\n      swap1\n      dup2\n      mstore\n      0x20\n      add\n      mload(0x40)\n      dup1\n      swap2\n      sub\n      swap1\n      keccak256\n        /* \"CarbonTrader.sol\":6615:6662  trade storage currentTrade = idToTrade[tradeId] */\n      swap1\n      pop\n        /* \"CarbonTrader.sol\":6711:6715  info */\n      dup2\n        /* \"CarbonTrader.sol\":6672:6684  currentTrade */\n      dup2\n        /* \"CarbonTrader.sol\":6672:6696  currentTrade.cryptedInfo */\n      0x07\n      add\n        /* \"CarbonTrader.sol\":6672:6708  currentTrade.cryptedInfo[msg.sender] */\n      0x00\n        /* \"CarbonTrader.sol\":6697:6707  msg.sender */\n      caller\n        /* \"CarbonTrader.sol\":6672:6708  currentTrade.cryptedInfo[msg.sender] */\n      0xffffffffffffffffffffffffffffffffffffffff\n      and\n      0xffffffffffffffffffffffffffffffffffffffff\n      and\n      dup2\n      mstore\n      0x20\n      add\n      swap1\n      dup2\n      mstore\n      0x20\n      add\n      0x00\n      keccak256\n        /* \"CarbonTrader.sol\":6672:6715  currentTrade.cryptedInfo[msg.sender] = info */\n      swap1\n      dup2\n      tag_147\n      swap2\n      swap1\n      tag_144\n      jump\t// in\n    tag_147:\n      pop\n        /* \"CarbonTrader.sol\":6605:6723  {... */\n      pop\n        /* \"CarbonTrader.sol\":6536:6723  function setBidInfo(string memory tradeId,string memory info) public {... */\n      pop\n      pop\n      jump\t// out\n        /* \"CarbonTrader.sol\":3007:3174  function freezeAllowance(address user, uint256 amount) public onlyOwner{... */\n    tag_65:\n        /* \"CarbonTrader.sol\":2512:2517  owner */\n      immutable(\"0xa413d075ec804ca282f1637fedbe82ecda1992097d14e4d900d254e0f5fe523d\")\n        /* \"CarbonTrader.sol\":2498:2517  msg.sender != owner */\n      0xffffffffffffffffffffffffffffffffffffffff\n      and\n        /* \"CarbonTrader.sol\":2498:2508  msg.sender */\n      caller\n        /* \"CarbonTrader.sol\":2498:2517  msg.sender != owner */\n      0xffffffffffffffffffffffffffffffffffffffff\n      and\n      eq\n        /* \"CarbonTrader.sol\":2495:2743  if(msg.sender != owner ) //owner只在函数初始化时候编译一次，此后都固定了，但是发起人是调用合约的人，可以是用户，也可以是管理员。所以需要验证是否owner... */\n      tag_149\n      jumpi\n        /* \"CarbonTrader.sol\":2720:2743  CarbonTrader_NotOwner() */\n      mload(0x40)\n      0xc31b2cfe00000000000000000000000000000000000000000000000000000000\n      dup2\n      mstore\n      0x04\n      add\n      mload(0x40)\n      dup1\n      swap2\n      sub\n      swap1\n      revert\n        /* \"CarbonTrader.sol\":2495:2743  if(msg.sender != owner ) //owner只在函数初始化时候编译一次，此后都固定了，但是发起人是调用合约的人，可以是用户，也可以是管理员。所以需要验证是否owner... */\n    tag_149:\n        /* \"CarbonTrader.sol\":3113:3119  amount */\n      dup1\n        /* \"CarbonTrader.sol\":3088:3103  userToAllowance */\n      0x00\n        /* \"CarbonTrader.sol\":3088:3109  userToAllowance[user] */\n      0x00\n        /* \"CarbonTrader.sol\":3104:3108  user */\n      dup5\n        /* \"CarbonTrader.sol\":3088:3109  userToAllowance[user] */\n      0xffffffffffffffffffffffffffffffffffffffff\n      and\n      0xffffffffffffffffffffffffffffffffffffffff\n      and\n      dup2\n      mstore\n      0x20\n      add\n      swap1\n      dup2\n      mstore\n      0x20\n      add\n      0x00\n      keccak256\n      0x00\n        /* \"CarbonTrader.sol\":3088:3119  userToAllowance[user] -= amount */\n      dup3\n      dup3\n      sload\n      tag_151\n      swap2\n      swap1\n      tag_98\n      jump\t// in\n    tag_151:\n      swap3\n      pop\n      pop\n      dup2\n      swap1\n      sstore\n      pop\n        /* \"CarbonTrader.sol\":3161:3167  amount */\n      dup1\n        /* \"CarbonTrader.sol\":3129:3151  userToFreezedAllowance */\n      0x01\n        /* \"CarbonTrader.sol\":3129:3157  userToFreezedAllowance[user] */\n      0x00\n        /* \"CarbonTrader.sol\":3152:3156  user */\n      dup5\n        /* \"CarbonTrader.sol\":3129:3157  userToFreezedAllowance[user] */\n      0xffffffffffffffffffffffffffffffffffffffff\n      and\n      0xffffffffffffffffffffffffffffffffffffffff\n      and\n      dup2\n      mstore\n      0x20\n      add\n      swap1\n      dup2\n      mstore\n      0x20\n      add\n      0x00\n      keccak256\n      0x00\n        /* \"CarbonTrader.sol\":3129:3167  userToFreezedAllowance[user] += amount */\n      dup3\n      dup3\n      sload\n      tag_152\n      swap2\n      swap1\n      tag_96\n      jump\t// in\n    tag_152:\n      swap3\n      pop\n      pop\n      dup2\n      swap1\n      sstore\n      pop\n        /* \"CarbonTrader.sol\":3007:3174  function freezeAllowance(address user, uint256 amount) public onlyOwner{... */\n      pop\n      pop\n      jump\t// out\n        /* \"CarbonTrader.sol\":7119:8143  function finalizeAuctionAndTransferCarbon(... */\n    tag_69:\n        /* \"CarbonTrader.sol\":7287:7308  uint256 depositAmount */\n      0x00\n        /* \"CarbonTrader.sol\":7311:7320  idToTrade */\n      0x03\n        /* \"CarbonTrader.sol\":7321:7328  tradeId */\n      dup5\n        /* \"CarbonTrader.sol\":7311:7329  idToTrade[tradeId] */\n      mload(0x40)\n      tag_154\n      swap2\n      swap1\n      tag_85\n      jump\t// in\n    tag_154:\n      swap1\n      dup2\n      mstore\n      0x20\n      add\n      mload(0x40)\n      dup1\n      swap2\n      sub\n      swap1\n      keccak256\n        /* \"CarbonTrader.sol\":7311:7337  idToTrade[tradeId].deposit */\n      0x06\n      add\n        /* \"CarbonTrader.sol\":7311:7349  idToTrade[tradeId].deposit[msg.sender] */\n      0x00\n        /* \"CarbonTrader.sol\":7338:7348  msg.sender */\n      caller\n        /* \"CarbonTrader.sol\":7311:7349  idToTrade[tradeId].deposit[msg.sender] */\n      0xffffffffffffffffffffffffffffffffffffffff\n      and\n      0xffffffffffffffffffffffffffffffffffffffff\n      and\n      dup2\n      mstore\n      0x20\n      add\n      swap1\n      dup2\n      mstore\n      0x20\n      add\n      0x00\n      keccak256\n      sload\n        /* \"CarbonTrader.sol\":7287:7349  uint256 depositAmount = idToTrade[tradeId].deposit[msg.sender] */\n      swap1\n      pop\n        /* \"CarbonTrader.sol\":7578:7579  0 */\n      0x00\n        /* \"CarbonTrader.sol\":7539:7548  idToTrade */\n      0x03\n        /* \"CarbonTrader.sol\":7549:7556  tradeId */\n      dup6\n        /* \"CarbonTrader.sol\":7539:7557  idToTrade[tradeId] */\n      mload(0x40)\n      tag_155\n      swap2\n      swap1\n      tag_85\n      jump\t// in\n    tag_155:\n      swap1\n      dup2\n      mstore\n      0x20\n      add\n      mload(0x40)\n      dup1\n      swap2\n      sub\n      swap1\n      keccak256\n        /* \"CarbonTrader.sol\":7539:7565  idToTrade[tradeId].deposit */\n      0x06\n      add\n        /* \"CarbonTrader.sol\":7539:7577  idToTrade[tradeId].deposit[msg.sender] */\n      0x00\n        /* \"CarbonTrader.sol\":7566:7576  msg.sender */\n      caller\n        /* \"CarbonTrader.sol\":7539:7577  idToTrade[tradeId].deposit[msg.sender] */\n      0xffffffffffffffffffffffffffffffffffffffff\n      and\n      0xffffffffffffffffffffffffffffffffffffffff\n      and\n      dup2\n      mstore\n      0x20\n      add\n      swap1\n      dup2\n      mstore\n      0x20\n      add\n      0x00\n      keccak256\n        /* \"CarbonTrader.sol\":7539:7579  idToTrade[tradeId].deposit[msg.sender]=0 */\n      dup2\n      swap1\n      sstore\n      pop\n        /* \"CarbonTrader.sol\":7637:7651  address seller */\n      0x00\n        /* \"CarbonTrader.sol\":7654:7663  idToTrade */\n      0x03\n        /* \"CarbonTrader.sol\":7664:7671  tradeId */\n      dup6\n        /* \"CarbonTrader.sol\":7654:7672  idToTrade[tradeId] */\n      mload(0x40)\n      tag_156\n      swap2\n      swap1\n      tag_85\n      jump\t// in\n    tag_156:\n      swap1\n      dup2\n      mstore\n      0x20\n      add\n      mload(0x40)\n      dup1\n      swap2\n      sub\n      swap1\n      keccak256\n        /* \"CarbonTrader.sol\":7654:7679  idToTrade[tradeId].seller */\n      0x00\n      add\n      0x00\n      swap1\n      sload\n      swap1\n      0x0100\n      exp\n      swap1\n      div\n      0xffffffffffffffffffffffffffffffffffffffff\n      and\n        /* \"CarbonTrader.sol\":7637:7679  address seller = idToTrade[tradeId].seller */\n      swap1\n      pop\n        /* \"CarbonTrader.sol\":7731:7752  additionalAmountToPay */\n      dup3\n        /* \"CarbonTrader.sol\":7715:7728  depositAmount */\n      dup3\n        /* \"CarbonTrader.sol\":7715:7752  depositAmount + additionalAmountToPay */\n      tag_157\n      swap2\n      swap1\n      tag_96\n      jump\t// in\n    tag_157:\n        /* \"CarbonTrader.sol\":7689:7702  auctionAmount */\n      0x02\n        /* \"CarbonTrader.sol\":7689:7710  auctionAmount[seller] */\n      0x00\n        /* \"CarbonTrader.sol\":7703:7709  seller */\n      dup4\n        /* \"CarbonTrader.sol\":7689:7710  auctionAmount[seller] */\n      0xffffffffffffffffffffffffffffffffffffffff\n      and\n      0xffffffffffffffffffffffffffffffffffffffff\n      and\n      dup2\n      mstore\n      0x20\n      add\n      swap1\n      dup2\n      mstore\n      0x20\n      add\n      0x00\n      keccak256\n      0x00\n        /* \"CarbonTrader.sol\":7689:7753  auctionAmount[seller] += (depositAmount + additionalAmountToPay) */\n      dup3\n      dup3\n      sload\n      tag_158\n      swap2\n      swap1\n      tag_96\n      jump\t// in\n    tag_158:\n      swap3\n      pop\n      pop\n      dup2\n      swap1\n      sstore\n      pop\n        /* \"CarbonTrader.sol\":7826:7841  allowanceAmount */\n      dup4\n        /* \"CarbonTrader.sol\":7799:7814  userToAllowance */\n      0x00\n        /* \"CarbonTrader.sol\":7799:7822  userToAllowance[seller] */\n      0x00\n        /* \"CarbonTrader.sol\":7815:7821  seller */\n      dup4\n        /* \"CarbonTrader.sol\":7799:7822  userToAllowance[seller] */\n      0xffffffffffffffffffffffffffffffffffffffff\n      and\n      0xffffffffffffffffffffffffffffffffffffffff\n      and\n      dup2\n      mstore\n      0x20\n      add\n      swap1\n      dup2\n      mstore\n      0x20\n      add\n      0x00\n      keccak256\n      0x00\n        /* \"CarbonTrader.sol\":7799:7841  userToAllowance[seller] -= allowanceAmount */\n      dup3\n      dup3\n      sload\n      tag_159\n      swap2\n      swap1\n      tag_98\n      jump\t// in\n    tag_159:\n      swap3\n      pop\n      pop\n      dup2\n      swap1\n      sstore\n      pop\n        /* \"CarbonTrader.sol\":7918:7933  allowanceAmount */\n      dup4\n        /* \"CarbonTrader.sol\":7887:7902  userToAllowance */\n      0x00\n        /* \"CarbonTrader.sol\":7887:7914  userToAllowance[msg.sender] */\n      0x00\n        /* \"CarbonTrader.sol\":7903:7913  msg.sender */\n      caller\n        /* \"CarbonTrader.sol\":7887:7914  userToAllowance[msg.sender] */\n      0xffffffffffffffffffffffffffffffffffffffff\n      and\n      0xffffffffffffffffffffffffffffffffffffffff\n      and\n      dup2\n      mstore\n      0x20\n      add\n      swap1\n      dup2\n      mstore\n      0x20\n      add\n      0x00\n      keccak256\n      0x00\n        /* \"CarbonTrader.sol\":7887:7933  userToAllowance[msg.sender] += allowanceAmount */\n      dup3\n      dup3\n      sload\n      tag_160\n      swap2\n      swap1\n      tag_96\n      jump\t// in\n    tag_160:\n      swap3\n      pop\n      pop\n      dup2\n      swap1\n      sstore\n      pop\n        /* \"CarbonTrader.sol\":7985:7997  bool success */\n      0x00\n        /* \"CarbonTrader.sol\":8000:8005  token */\n      0x04\n      0x00\n      swap1\n      sload\n      swap1\n      0x0100\n      exp\n      swap1\n      div\n      0xffffffffffffffffffffffffffffffffffffffff\n      and\n        /* \"CarbonTrader.sol\":8000:8018  token.transferFrom */\n      0xffffffffffffffffffffffffffffffffffffffff\n      and\n      0x23b872dd\n        /* \"CarbonTrader.sol\":8019:8029  msg.sender */\n      caller\n        /* \"CarbonTrader.sol\":8039:8043  this */\n      address\n        /* \"CarbonTrader.sol\":8046:8067  additionalAmountToPay */\n      dup8\n        /* \"CarbonTrader.sol\":8000:8068  token.transferFrom(msg.sender, address(this), additionalAmountToPay) */\n      mload(0x40)\n      dup5\n      0xffffffff\n      and\n      0xe0\n      shl\n      dup2\n      mstore\n      0x04\n      add\n      tag_161\n      swap4\n      swap3\n      swap2\n      swap1\n      tag_118\n      jump\t// in\n    tag_161:\n      0x20\n      mload(0x40)\n      dup1\n      dup4\n      sub\n      dup2\n      0x00\n      dup8\n      gas\n      call\n      iszero\n      dup1\n      iszero\n      tag_163\n      jumpi\n      returndatacopy(0x00, 0x00, returndatasize)\n      revert(0x00, returndatasize)\n    tag_163:\n      pop\n      pop\n      pop\n      pop\n      mload(0x40)\n      returndatasize\n      not(0x1f)\n      0x1f\n      dup3\n      add\n      and\n      dup3\n      add\n      dup1\n      0x40\n      mstore\n      pop\n      dup2\n      add\n      swap1\n      tag_164\n      swap2\n      swap1\n      tag_113\n      jump\t// in\n    tag_164:\n        /* \"CarbonTrader.sol\":7985:8068  bool success = token.transferFrom(msg.sender, address(this), additionalAmountToPay) */\n      swap1\n      pop\n        /* \"CarbonTrader.sol\":8082:8089  success */\n      dup1\n        /* \"CarbonTrader.sol\":8078:8127  if(!success) revert CarbonTrader_TransferFailed() */\n      tag_165\n      jumpi\n        /* \"CarbonTrader.sol\":8098:8127  CarbonTrader_TransferFailed() */\n      mload(0x40)\n      0x6511778900000000000000000000000000000000000000000000000000000000\n      dup2\n      mstore\n      0x04\n      add\n      mload(0x40)\n      dup1\n      swap2\n      sub\n      swap1\n      revert\n        /* \"CarbonTrader.sol\":8078:8127  if(!success) revert CarbonTrader_TransferFailed() */\n    tag_165:\n        /* \"CarbonTrader.sol\":7277:8143  {... */\n      pop\n      pop\n      pop\n        /* \"CarbonTrader.sol\":7119:8143  function finalizeAuctionAndTransferCarbon(... */\n      pop\n      pop\n      pop\n      jump\t// out\n        /* \"CarbonTrader.sol\":2890:3001  function getAllowance(address user) public view returns(uint256){... */\n    tag_72:\n        /* \"CarbonTrader.sol\":2946:2953  uint256 */\n      0x00\n        /* \"CarbonTrader.sol\":2972:2987  userToAllowance */\n      0x00\n        /* \"CarbonTrader.sol\":2972:2993  userToAllowance[user] */\n      0x00\n        /* \"CarbonTrader.sol\":2988:2992  user */\n      dup4\n        /* \"CarbonTrader.sol\":2972:2993  userToAllowance[user] */\n      0xffffffffffffffffffffffffffffffffffffffff\n      and\n      0xffffffffffffffffffffffffffffffffffffffff\n      and\n      dup2\n      mstore\n      0x20\n      add\n      swap1\n      dup2\n      mstore\n      0x20\n      add\n      0x00\n      keccak256\n      sload\n        /* \"CarbonTrader.sol\":2964:2994  return (userToAllowance[user]) */\n      swap1\n      pop\n        /* \"CarbonTrader.sol\":2890:3001  function getAllowance(address user) public view returns(uint256){... */\n      swap2\n      swap1\n      pop\n      jump\t// out\n        /* \"CarbonTrader.sol\":3717:4591  function createTrade(... */\n    tag_78:\n        /* \"CarbonTrader.sol\":3982:3983  0 */\n      0x00\n        /* \"CarbonTrader.sol\":3971:3978  _amount */\n      dup6\n        /* \"CarbonTrader.sol\":3971:3983  _amount <= 0 */\n      gt\n      iszero\n        /* \"CarbonTrader.sol\":3971:4033  _amount <= 0 ||... */\n      dup1\n      tag_168\n      jumpi\n      pop\n        /* \"CarbonTrader.sol\":4009:4024  userToAllowance */\n      0x00\n        /* \"CarbonTrader.sol\":4009:4033  userToAllowance[_seller] */\n      0x00\n        /* \"CarbonTrader.sol\":4025:4032  _seller */\n      dup8\n        /* \"CarbonTrader.sol\":4009:4033  userToAllowance[_seller] */\n      0xffffffffffffffffffffffffffffffffffffffff\n      and\n      0xffffffffffffffffffffffffffffffffffffffff\n      and\n      dup2\n      mstore\n      0x20\n      add\n      swap1\n      dup2\n      mstore\n      0x20\n      add\n      0x00\n      keccak256\n      sload\n        /* \"CarbonTrader.sol\":3999:4006  _amount */\n      dup6\n        /* \"CarbonTrader.sol\":3999:4033  _amount > userToAllowance[_seller] */\n      gt\n        /* \"CarbonTrader.sol\":3971:4033  _amount <= 0 ||... */\n    tag_168:\n        /* \"CarbonTrader.sol\":3971:4066  _amount <= 0 ||... */\n      dup1\n      tag_169\n      jumpi\n      pop\n        /* \"CarbonTrader.sol\":4065:4066  0 */\n      0x00\n        /* \"CarbonTrader.sol\":4049:4061  _startamount */\n      dup5\n        /* \"CarbonTrader.sol\":4049:4066  _startamount <= 0 */\n      gt\n      iszero\n        /* \"CarbonTrader.sol\":3971:4066  _amount <= 0 ||... */\n    tag_169:\n        /* \"CarbonTrader.sol\":3971:4099  _amount <= 0 ||... */\n      dup1\n      tag_170\n      jumpi\n      pop\n        /* \"CarbonTrader.sol\":4098:4099  0 */\n      0x00\n        /* \"CarbonTrader.sol\":4082:4094  _priceOfUnit */\n      dup4\n        /* \"CarbonTrader.sol\":4082:4099  _priceOfUnit <= 0 */\n      gt\n      iszero\n        /* \"CarbonTrader.sol\":3971:4099  _amount <= 0 ||... */\n    tag_170:\n        /* \"CarbonTrader.sol\":3971:4137  _amount <= 0 ||... */\n      dup1\n      tag_171\n      jumpi\n      pop\n        /* \"CarbonTrader.sol\":4129:4137  _endTime */\n      dup1\n        /* \"CarbonTrader.sol\":4115:4125  _startTime */\n      dup3\n        /* \"CarbonTrader.sol\":4115:4137  _startTime >= _endTime */\n      lt\n      iszero\n        /* \"CarbonTrader.sol\":3971:4137  _amount <= 0 ||... */\n    tag_171:\n        /* \"CarbonTrader.sol\":3955:4188  if(... */\n      iszero\n      tag_172\n      jumpi\n        /* \"CarbonTrader.sol\":4163:4188  CarbonTrader_ParamError() */\n      mload(0x40)\n      0x0ecf0f1100000000000000000000000000000000000000000000000000000000\n      dup2\n      mstore\n      0x04\n      add\n      mload(0x40)\n      dup1\n      swap2\n      sub\n      swap1\n      revert\n        /* \"CarbonTrader.sol\":3955:4188  if(... */\n    tag_172:\n        /* \"CarbonTrader.sol\":4199:4221  trade storage newTrade */\n      0x00\n        /* \"CarbonTrader.sol\":4224:4233  idToTrade */\n      0x03\n        /* \"CarbonTrader.sol\":4234:4241  tradeId */\n      dup9\n        /* \"CarbonTrader.sol\":4224:4242  idToTrade[tradeId] */\n      mload(0x40)\n      tag_173\n      swap2\n      swap1\n      tag_85\n      jump\t// in\n    tag_173:\n      swap1\n      dup2\n      mstore\n      0x20\n      add\n      mload(0x40)\n      dup1\n      swap2\n      sub\n      swap1\n      keccak256\n        /* \"CarbonTrader.sol\":4199:4242  trade storage newTrade = idToTrade[tradeId] */\n      swap1\n      pop\n        /* \"CarbonTrader.sol\":4270:4277  _seller */\n      dup7\n        /* \"CarbonTrader.sol\":4252:4260  newTrade */\n      dup2\n        /* \"CarbonTrader.sol\":4252:4267  newTrade.seller */\n      0x00\n      add\n      0x00\n        /* \"CarbonTrader.sol\":4252:4277  newTrade.seller = _seller */\n      0x0100\n      exp\n      dup2\n      sload\n      dup2\n      0xffffffffffffffffffffffffffffffffffffffff\n      mul\n      not\n      and\n      swap1\n      dup4\n      0xffffffffffffffffffffffffffffffffffffffff\n      and\n      mul\n      or\n      swap1\n      sstore\n      pop\n        /* \"CarbonTrader.sol\":4305:4312  _amount */\n      dup6\n        /* \"CarbonTrader.sol\":4287:4295  newTrade */\n      dup2\n        /* \"CarbonTrader.sol\":4287:4302  newTrade.amount */\n      0x01\n      add\n        /* \"CarbonTrader.sol\":4287:4312  newTrade.amount = _amount */\n      dup2\n      swap1\n      sstore\n      pop\n        /* \"CarbonTrader.sol\":4345:4357  _startamount */\n      dup5\n        /* \"CarbonTrader.sol\":4322:4330  newTrade */\n      dup2\n        /* \"CarbonTrader.sol\":4322:4342  newTrade.startamount */\n      0x02\n      add\n        /* \"CarbonTrader.sol\":4322:4357  newTrade.startamount = _startamount */\n      dup2\n      swap1\n      sstore\n      pop\n        /* \"CarbonTrader.sol\":4390:4402  _priceOfUnit */\n      dup4\n        /* \"CarbonTrader.sol\":4367:4375  newTrade */\n      dup2\n        /* \"CarbonTrader.sol\":4367:4387  newTrade.priceOfUnit */\n      0x03\n      add\n        /* \"CarbonTrader.sol\":4367:4402  newTrade.priceOfUnit = _priceOfUnit */\n      dup2\n      swap1\n      sstore\n      pop\n        /* \"CarbonTrader.sol\":4433:4443  _startTime */\n      dup3\n        /* \"CarbonTrader.sol\":4412:4420  newTrade */\n      dup2\n        /* \"CarbonTrader.sol\":4412:4430  newTrade.startTime */\n      0x04\n      add\n        /* \"CarbonTrader.sol\":4412:4443  newTrade.startTime = _startTime */\n      dup2\n      swap1\n      sstore\n      pop\n        /* \"CarbonTrader.sol\":4472:4480  _endTime */\n      dup2\n        /* \"CarbonTrader.sol\":4453:4461  newTrade */\n      dup2\n        /* \"CarbonTrader.sol\":4453:4469  newTrade.endTime */\n      0x05\n      add\n        /* \"CarbonTrader.sol\":4453:4480  newTrade.endTime = _endTime */\n      dup2\n      swap1\n      sstore\n      pop\n        /* \"CarbonTrader.sol\":4522:4529  _amount */\n      dup6\n        /* \"CarbonTrader.sol\":4491:4506  userToAllowance */\n      0x00\n        /* \"CarbonTrader.sol\":4491:4518  userToAllowance[msg.sender] */\n      0x00\n        /* \"CarbonTrader.sol\":4507:4517  msg.sender */\n      caller\n        /* \"CarbonTrader.sol\":4491:4518  userToAllowance[msg.sender] */\n      0xffffffffffffffffffffffffffffffffffffffff\n      and\n      0xffffffffffffffffffffffffffffffffffffffff\n      and\n      dup2\n      mstore\n      0x20\n      add\n      swap1\n      dup2\n      mstore\n      0x20\n      add\n      0x00\n      keccak256\n      0x00\n        /* \"CarbonTrader.sol\":4491:4529  userToAllowance[msg.sender] -= _amount */\n      dup3\n      dup3\n      sload\n      tag_174\n      swap2\n      swap1\n      tag_98\n      jump\t// in\n    tag_174:\n      swap3\n      pop\n      pop\n      dup2\n      swap1\n      sstore\n      pop\n        /* \"CarbonTrader.sol\":4577:4584  _amount */\n      dup6\n        /* \"CarbonTrader.sol\":4539:4561  userToFreezedAllowance */\n      0x01\n        /* \"CarbonTrader.sol\":4539:4573  userToFreezedAllowance[msg.sender] */\n      0x00\n        /* \"CarbonTrader.sol\":4562:4572  msg.sender */\n      caller\n        /* \"CarbonTrader.sol\":4539:4573  userToFreezedAllowance[msg.sender] */\n      0xffffffffffffffffffffffffffffffffffffffff\n      and\n      0xffffffffffffffffffffffffffffffffffffffff\n      and\n      dup2\n      mstore\n      0x20\n      add\n      swap1\n      dup2\n      mstore\n      0x20\n      add\n      0x00\n      keccak256\n      0x00\n        /* \"CarbonTrader.sol\":4539:4584  userToFreezedAllowance[msg.sender] += _amount */\n      dup3\n      dup3\n      sload\n      tag_175\n      swap2\n      swap1\n      tag_96\n      jump\t// in\n    tag_175:\n      swap3\n      pop\n      pop\n      dup2\n      swap1\n      sstore\n      pop\n        /* \"CarbonTrader.sol\":3945:4591  {... */\n      pop\n        /* \"CarbonTrader.sol\":3717:4591  function createTrade(... */\n      pop\n      pop\n      pop\n      pop\n      pop\n      pop\n      pop\n      jump\t// out\n        /* \"CarbonTrader.sol\":3355:3478  function getFreezedAllowance(address user) public view returns(uint256){... */\n    tag_81:\n        /* \"CarbonTrader.sol\":3418:3425  uint256 */\n      0x00\n        /* \"CarbonTrader.sol\":3443:3465  userToFreezedAllowance */\n      0x01\n        /* \"CarbonTrader.sol\":3443:3471  userToFreezedAllowance[user] */\n      0x00\n        /* \"CarbonTrader.sol\":3466:3470  user */\n      dup4\n        /* \"CarbonTrader.sol\":3443:3471  userToFreezedAllowance[user] */\n      0xffffffffffffffffffffffffffffffffffffffff\n      and\n      0xffffffffffffffffffffffffffffffffffffffff\n      and\n      dup2\n      mstore\n      0x20\n      add\n      swap1\n      dup2\n      mstore\n      0x20\n      add\n      0x00\n      keccak256\n      sload\n        /* \"CarbonTrader.sol\":3436:3471  return userToFreezedAllowance[user] */\n      swap1\n      pop\n        /* \"CarbonTrader.sol\":3355:3478  function getFreezedAllowance(address user) public view returns(uint256){... */\n      swap2\n      swap1\n      pop\n      jump\t// out\n        /* \"#utility.yul\":7:82   */\n    tag_177:\n        /* \"#utility.yul\":40:46   */\n      0x00\n        /* \"#utility.yul\":73:75   */\n      0x40\n        /* \"#utility.yul\":67:76   */\n      mload\n        /* \"#utility.yul\":57:76   */\n      swap1\n      pop\n        /* \"#utility.yul\":7:82   */\n      swap1\n      jump\t// out\n        /* \"#utility.yul\":88:205   */\n    tag_178:\n        /* \"#utility.yul\":197:198   */\n      0x00\n        /* \"#utility.yul\":194:195   */\n      0x00\n        /* \"#utility.yul\":187:199   */\n      revert\n        /* \"#utility.yul\":211:328   */\n    tag_179:\n        /* \"#utility.yul\":320:321   */\n      0x00\n        /* \"#utility.yul\":317:318   */\n      0x00\n        /* \"#utility.yul\":310:322   */\n      revert\n        /* \"#utility.yul\":334:451   */\n    tag_180:\n        /* \"#utility.yul\":443:444   */\n      0x00\n        /* \"#utility.yul\":440:441   */\n      0x00\n        /* \"#utility.yul\":433:445   */\n      revert\n        /* \"#utility.yul\":457:574   */\n    tag_181:\n        /* \"#utility.yul\":566:567   */\n      0x00\n        /* \"#utility.yul\":563:564   */\n      0x00\n        /* \"#utility.yul\":556:568   */\n      revert\n        /* \"#utility.yul\":580:682   */\n    tag_182:\n        /* \"#utility.yul\":621:627   */\n      0x00\n        /* \"#utility.yul\":672:674   */\n      0x1f\n        /* \"#utility.yul\":668:675   */\n      not\n        /* \"#utility.yul\":663:665   */\n      0x1f\n        /* \"#utility.yul\":656:661   */\n      dup4\n        /* \"#utility.yul\":652:666   */\n      add\n        /* \"#utility.yul\":648:676   */\n      and\n        /* \"#utility.yul\":638:676   */\n      swap1\n      pop\n        /* \"#utility.yul\":580:682   */\n      swap2\n      swap1\n      pop\n      jump\t// out\n        /* \"#utility.yul\":688:868   */\n    tag_183:\n        /* \"#utility.yul\":736:813   */\n      0x4e487b7100000000000000000000000000000000000000000000000000000000\n        /* \"#utility.yul\":733:734   */\n      0x00\n        /* \"#utility.yul\":726:814   */\n      mstore\n        /* \"#utility.yul\":833:837   */\n      0x41\n        /* \"#utility.yul\":830:831   */\n      0x04\n        /* \"#utility.yul\":823:838   */\n      mstore\n        /* \"#utility.yul\":857:861   */\n      0x24\n        /* \"#utility.yul\":854:855   */\n      0x00\n        /* \"#utility.yul\":847:862   */\n      revert\n        /* \"#utility.yul\":874:1155   */\n    tag_184:\n        /* \"#utility.yul\":957:984   */\n      tag_234\n        /* \"#utility.yul\":979:983   */\n      dup3\n        /* \"#utility.yul\":957:984   */\n      tag_182\n      jump\t// in\n    tag_234:\n        /* \"#utility.yul\":949:955   */\n      dup2\n        /* \"#utility.yul\":945:985   */\n      add\n        /* \"#utility.yul\":1087:1093   */\n      dup2\n        /* \"#utility.yul\":1075:1085   */\n      dup2\n        /* \"#utility.yul\":1072:1094   */\n      lt\n        /* \"#utility.yul\":1051:1069   */\n      0xffffffffffffffff\n        /* \"#utility.yul\":1039:1049   */\n      dup3\n        /* \"#utility.yul\":1036:1070   */\n      gt\n        /* \"#utility.yul\":1033:1095   */\n      or\n        /* \"#utility.yul\":1030:1118   */\n      iszero\n      tag_235\n      jumpi\n        /* \"#utility.yul\":1098:1116   */\n      tag_236\n      tag_183\n      jump\t// in\n    tag_236:\n        /* \"#utility.yul\":1030:1118   */\n    tag_235:\n        /* \"#utility.yul\":1138:1148   */\n      dup1\n        /* \"#utility.yul\":1134:1136   */\n      0x40\n        /* \"#utility.yul\":1127:1149   */\n      mstore\n        /* \"#utility.yul\":917:1155   */\n      pop\n        /* \"#utility.yul\":874:1155   */\n      pop\n      pop\n      jump\t// out\n        /* \"#utility.yul\":1161:1290   */\n    tag_185:\n        /* \"#utility.yul\":1195:1201   */\n      0x00\n        /* \"#utility.yul\":1222:1242   */\n      tag_238\n      tag_177\n      jump\t// in\n    tag_238:\n        /* \"#utility.yul\":1212:1242   */\n      swap1\n      pop\n        /* \"#utility.yul\":1251:1284   */\n      tag_239\n        /* \"#utility.yul\":1279:1283   */\n      dup3\n        /* \"#utility.yul\":1271:1277   */\n      dup3\n        /* \"#utility.yul\":1251:1284   */\n      tag_184\n      jump\t// in\n    tag_239:\n        /* \"#utility.yul\":1161:1290   */\n      swap2\n      swap1\n      pop\n      jump\t// out\n        /* \"#utility.yul\":1296:1604   */\n    tag_186:\n        /* \"#utility.yul\":1358:1362   */\n      0x00\n        /* \"#utility.yul\":1448:1466   */\n      0xffffffffffffffff\n        /* \"#utility.yul\":1440:1446   */\n      dup3\n        /* \"#utility.yul\":1437:1467   */\n      gt\n        /* \"#utility.yul\":1434:1490   */\n      iszero\n      tag_241\n      jumpi\n        /* \"#utility.yul\":1470:1488   */\n      tag_242\n      tag_183\n      jump\t// in\n    tag_242:\n        /* \"#utility.yul\":1434:1490   */\n    tag_241:\n        /* \"#utility.yul\":1508:1537   */\n      tag_243\n        /* \"#utility.yul\":1530:1536   */\n      dup3\n        /* \"#utility.yul\":1508:1537   */\n      tag_182\n      jump\t// in\n    tag_243:\n        /* \"#utility.yul\":1500:1537   */\n      swap1\n      pop\n        /* \"#utility.yul\":1592:1596   */\n      0x20\n        /* \"#utility.yul\":1586:1590   */\n      dup2\n        /* \"#utility.yul\":1582:1597   */\n      add\n        /* \"#utility.yul\":1574:1597   */\n      swap1\n      pop\n        /* \"#utility.yul\":1296:1604   */\n      swap2\n      swap1\n      pop\n      jump\t// out\n        /* \"#utility.yul\":1610:1758   */\n    tag_187:\n        /* \"#utility.yul\":1708:1714   */\n      dup3\n        /* \"#utility.yul\":1703:1706   */\n      dup2\n        /* \"#utility.yul\":1698:1701   */\n      dup4\n        /* \"#utility.yul\":1685:1715   */\n      calldatacopy\n        /* \"#utility.yul\":1749:1750   */\n      0x00\n        /* \"#utility.yul\":1740:1746   */\n      dup4\n        /* \"#utility.yul\":1735:1738   */\n      dup4\n        /* \"#utility.yul\":1731:1747   */\n      add\n        /* \"#utility.yul\":1724:1751   */\n      mstore\n        /* \"#utility.yul\":1610:1758   */\n      pop\n      pop\n      pop\n      jump\t// out\n        /* \"#utility.yul\":1764:2189   */\n    tag_188:\n        /* \"#utility.yul\":1842:1847   */\n      0x00\n        /* \"#utility.yul\":1867:1933   */\n      tag_246\n        /* \"#utility.yul\":1883:1932   */\n      tag_247\n        /* \"#utility.yul\":1925:1931   */\n      dup5\n        /* \"#utility.yul\":1883:1932   */\n      tag_186\n      jump\t// in\n    tag_247:\n        /* \"#utility.yul\":1867:1933   */\n      tag_185\n      jump\t// in\n    tag_246:\n        /* \"#utility.yul\":1858:1933   */\n      swap1\n      pop\n        /* \"#utility.yul\":1956:1962   */\n      dup3\n        /* \"#utility.yul\":1949:1954   */\n      dup2\n        /* \"#utility.yul\":1942:1963   */\n      mstore\n        /* \"#utility.yul\":1994:1998   */\n      0x20\n        /* \"#utility.yul\":1987:1992   */\n      dup2\n        /* \"#utility.yul\":1983:1999   */\n      add\n        /* \"#utility.yul\":2032:2035   */\n      dup5\n        /* \"#utility.yul\":2023:2029   */\n      dup5\n        /* \"#utility.yul\":2018:2021   */\n      dup5\n        /* \"#utility.yul\":2014:2030   */\n      add\n        /* \"#utility.yul\":2011:2036   */\n      gt\n        /* \"#utility.yul\":2008:2120   */\n      iszero\n      tag_248\n      jumpi\n        /* \"#utility.yul\":2039:2118   */\n      tag_249\n      tag_181\n      jump\t// in\n    tag_249:\n        /* \"#utility.yul\":2008:2120   */\n    tag_248:\n        /* \"#utility.yul\":2129:2183   */\n      tag_250\n        /* \"#utility.yul\":2176:2182   */\n      dup5\n        /* \"#utility.yul\":2171:2174   */\n      dup3\n        /* \"#utility.yul\":2166:2169   */\n      dup6\n        /* \"#utility.yul\":2129:2183   */\n      tag_187\n      jump\t// in\n    tag_250:\n        /* \"#utility.yul\":1848:2189   */\n      pop\n        /* \"#utility.yul\":1764:2189   */\n      swap4\n      swap3\n      pop\n      pop\n      pop\n      jump\t// out\n        /* \"#utility.yul\":2209:2549   */\n    tag_189:\n        /* \"#utility.yul\":2265:2270   */\n      0x00\n        /* \"#utility.yul\":2314:2317   */\n      dup3\n        /* \"#utility.yul\":2307:2311   */\n      0x1f\n        /* \"#utility.yul\":2299:2305   */\n      dup4\n        /* \"#utility.yul\":2295:2312   */\n      add\n        /* \"#utility.yul\":2291:2318   */\n      slt\n        /* \"#utility.yul\":2281:2403   */\n      tag_252\n      jumpi\n        /* \"#utility.yul\":2322:2401   */\n      tag_253\n      tag_180\n      jump\t// in\n    tag_253:\n        /* \"#utility.yul\":2281:2403   */\n    tag_252:\n        /* \"#utility.yul\":2439:2445   */\n      dup2\n        /* \"#utility.yul\":2426:2446   */\n      calldataload\n        /* \"#utility.yul\":2464:2543   */\n      tag_254\n        /* \"#utility.yul\":2539:2542   */\n      dup5\n        /* \"#utility.yul\":2531:2537   */\n      dup3\n        /* \"#utility.yul\":2524:2528   */\n      0x20\n        /* \"#utility.yul\":2516:2522   */\n      dup7\n        /* \"#utility.yul\":2512:2529   */\n      add\n        /* \"#utility.yul\":2464:2543   */\n      tag_188\n      jump\t// in\n    tag_254:\n        /* \"#utility.yul\":2455:2543   */\n      swap2\n      pop\n        /* \"#utility.yul\":2271:2549   */\n      pop\n        /* \"#utility.yul\":2209:2549   */\n      swap3\n      swap2\n      pop\n      pop\n      jump\t// out\n        /* \"#utility.yul\":2555:3064   */\n    tag_24:\n        /* \"#utility.yul\":2624:2630   */\n      0x00\n        /* \"#utility.yul\":2673:2675   */\n      0x20\n        /* \"#utility.yul\":2661:2670   */\n      dup3\n        /* \"#utility.yul\":2652:2659   */\n      dup5\n        /* \"#utility.yul\":2648:2671   */\n      sub\n        /* \"#utility.yul\":2644:2676   */\n      slt\n        /* \"#utility.yul\":2641:2760   */\n      iszero\n      tag_256\n      jumpi\n        /* \"#utility.yul\":2679:2758   */\n      tag_257\n      tag_178\n      jump\t// in\n    tag_257:\n        /* \"#utility.yul\":2641:2760   */\n    tag_256:\n        /* \"#utility.yul\":2827:2828   */\n      0x00\n        /* \"#utility.yul\":2816:2825   */\n      dup3\n        /* \"#utility.yul\":2812:2829   */\n      add\n        /* \"#utility.yul\":2799:2830   */\n      calldataload\n        /* \"#utility.yul\":2857:2875   */\n      0xffffffffffffffff\n        /* \"#utility.yul\":2849:2855   */\n      dup2\n        /* \"#utility.yul\":2846:2876   */\n      gt\n        /* \"#utility.yul\":2843:2960   */\n      iszero\n      tag_258\n      jumpi\n        /* \"#utility.yul\":2879:2958   */\n      tag_259\n      tag_179\n      jump\t// in\n    tag_259:\n        /* \"#utility.yul\":2843:2960   */\n    tag_258:\n        /* \"#utility.yul\":2984:3047   */\n      tag_260\n        /* \"#utility.yul\":3039:3046   */\n      dup5\n        /* \"#utility.yul\":3030:3036   */\n      dup3\n        /* \"#utility.yul\":3019:3028   */\n      dup6\n        /* \"#utility.yul\":3015:3037   */\n      add\n        /* \"#utility.yul\":2984:3047   */\n      tag_189\n      jump\t// in\n    tag_260:\n        /* \"#utility.yul\":2974:3047   */\n      swap2\n      pop\n        /* \"#utility.yul\":2770:3057   */\n      pop\n        /* \"#utility.yul\":2555:3064   */\n      swap3\n      swap2\n      pop\n      pop\n      jump\t// out\n        /* \"#utility.yul\":3070:3169   */\n    tag_190:\n        /* \"#utility.yul\":3122:3128   */\n      0x00\n        /* \"#utility.yul\":3156:3161   */\n      dup2\n        /* \"#utility.yul\":3150:3162   */\n      mload\n        /* \"#utility.yul\":3140:3162   */\n      swap1\n      pop\n        /* \"#utility.yul\":3070:3169   */\n      swap2\n      swap1\n      pop\n      jump\t// out\n        /* \"#utility.yul\":3175:3344   */\n    tag_191:\n        /* \"#utility.yul\":3259:3270   */\n      0x00\n        /* \"#utility.yul\":3293:3299   */\n      dup3\n        /* \"#utility.yul\":3288:3291   */\n      dup3\n        /* \"#utility.yul\":3281:3300   */\n      mstore\n        /* \"#utility.yul\":3333:3337   */\n      0x20\n        /* \"#utility.yul\":3328:3331   */\n      dup3\n        /* \"#utility.yul\":3324:3338   */\n      add\n        /* \"#utility.yul\":3309:3338   */\n      swap1\n      pop\n        /* \"#utility.yul\":3175:3344   */\n      swap3\n      swap2\n      pop\n      pop\n      jump\t// out\n        /* \"#utility.yul\":3350:3489   */\n    tag_192:\n        /* \"#utility.yul\":3439:3445   */\n      dup3\n        /* \"#utility.yul\":3434:3437   */\n      dup2\n        /* \"#utility.yul\":3429:3432   */\n      dup4\n        /* \"#utility.yul\":3423:3446   */\n      mcopy\n        /* \"#utility.yul\":3480:3481   */\n      0x00\n        /* \"#utility.yul\":3471:3477   */\n      dup4\n        /* \"#utility.yul\":3466:3469   */\n      dup4\n        /* \"#utility.yul\":3462:3478   */\n      add\n        /* \"#utility.yul\":3455:3482   */\n      mstore\n        /* \"#utility.yul\":3350:3489   */\n      pop\n      pop\n      pop\n      jump\t// out\n        /* \"#utility.yul\":3495:3872   */\n    tag_193:\n        /* \"#utility.yul\":3583:3586   */\n      0x00\n        /* \"#utility.yul\":3611:3650   */\n      tag_265\n        /* \"#utility.yul\":3644:3649   */\n      dup3\n        /* \"#utility.yul\":3611:3650   */\n      tag_190\n      jump\t// in\n    tag_265:\n        /* \"#utility.yul\":3666:3737   */\n      tag_266\n        /* \"#utility.yul\":3730:3736   */\n      dup2\n        /* \"#utility.yul\":3725:3728   */\n      dup6\n        /* \"#utility.yul\":3666:3737   */\n      tag_191\n      jump\t// in\n    tag_266:\n        /* \"#utility.yul\":3659:3737   */\n      swap4\n      pop\n        /* \"#utility.yul\":3746:3811   */\n      tag_267\n        /* \"#utility.yul\":3804:3810   */\n      dup2\n        /* \"#utility.yul\":3799:3802   */\n      dup6\n        /* \"#utility.yul\":3792:3796   */\n      0x20\n        /* \"#utility.yul\":3785:3790   */\n      dup7\n        /* \"#utility.yul\":3781:3797   */\n      add\n        /* \"#utility.yul\":3746:3811   */\n      tag_192\n      jump\t// in\n    tag_267:\n        /* \"#utility.yul\":3836:3865   */\n      tag_268\n        /* \"#utility.yul\":3858:3864   */\n      dup2\n        /* \"#utility.yul\":3836:3865   */\n      tag_182\n      jump\t// in\n    tag_268:\n        /* \"#utility.yul\":3831:3834   */\n      dup5\n        /* \"#utility.yul\":3827:3866   */\n      add\n        /* \"#utility.yul\":3820:3866   */\n      swap2\n      pop\n        /* \"#utility.yul\":3587:3872   */\n      pop\n        /* \"#utility.yul\":3495:3872   */\n      swap3\n      swap2\n      pop\n      pop\n      jump\t// out\n        /* \"#utility.yul\":3878:4191   */\n    tag_27:\n        /* \"#utility.yul\":3991:3995   */\n      0x00\n        /* \"#utility.yul\":4029:4031   */\n      0x20\n        /* \"#utility.yul\":4018:4027   */\n      dup3\n        /* \"#utility.yul\":4014:4032   */\n      add\n        /* \"#utility.yul\":4006:4032   */\n      swap1\n      pop\n        /* \"#utility.yul\":4078:4087   */\n      dup2\n        /* \"#utility.yul\":4072:4076   */\n      dup2\n        /* \"#utility.yul\":4068:4088   */\n      sub\n        /* \"#utility.yul\":4064:4065   */\n      0x00\n        /* \"#utility.yul\":4053:4062   */\n      dup4\n        /* \"#utility.yul\":4049:4066   */\n      add\n        /* \"#utility.yul\":4042:4089   */\n      mstore\n        /* \"#utility.yul\":4106:4184   */\n      tag_270\n        /* \"#utility.yul\":4179:4183   */\n      dup2\n        /* \"#utility.yul\":4170:4176   */\n      dup5\n        /* \"#utility.yul\":4106:4184   */\n      tag_193\n      jump\t// in\n    tag_270:\n        /* \"#utility.yul\":4098:4184   */\n      swap1\n      pop\n        /* \"#utility.yul\":3878:4191   */\n      swap3\n      swap2\n      pop\n      pop\n      jump\t// out\n        /* \"#utility.yul\":4197:4323   */\n    tag_194:\n        /* \"#utility.yul\":4234:4241   */\n      0x00\n        /* \"#utility.yul\":4274:4316   */\n      0xffffffffffffffffffffffffffffffffffffffff\n        /* \"#utility.yul\":4267:4272   */\n      dup3\n        /* \"#utility.yul\":4263:4317   */\n      and\n        /* \"#utility.yul\":4252:4317   */\n      swap1\n      pop\n        /* \"#utility.yul\":4197:4323   */\n      swap2\n      swap1\n      pop\n      jump\t// out\n        /* \"#utility.yul\":4329:4425   */\n    tag_195:\n        /* \"#utility.yul\":4366:4373   */\n      0x00\n        /* \"#utility.yul\":4395:4419   */\n      tag_273\n        /* \"#utility.yul\":4413:4418   */\n      dup3\n        /* \"#utility.yul\":4395:4419   */\n      tag_194\n      jump\t// in\n    tag_273:\n        /* \"#utility.yul\":4384:4419   */\n      swap1\n      pop\n        /* \"#utility.yul\":4329:4425   */\n      swap2\n      swap1\n      pop\n      jump\t// out\n        /* \"#utility.yul\":4431:4553   */\n    tag_196:\n        /* \"#utility.yul\":4504:4528   */\n      tag_275\n        /* \"#utility.yul\":4522:4527   */\n      dup2\n        /* \"#utility.yul\":4504:4528   */\n      tag_195\n      jump\t// in\n    tag_275:\n        /* \"#utility.yul\":4497:4502   */\n      dup2\n        /* \"#utility.yul\":4494:4529   */\n      eq\n        /* \"#utility.yul\":4484:4547   */\n      tag_276\n      jumpi\n        /* \"#utility.yul\":4543:4544   */\n      0x00\n        /* \"#utility.yul\":4540:4541   */\n      0x00\n        /* \"#utility.yul\":4533:4545   */\n      revert\n        /* \"#utility.yul\":4484:4547   */\n    tag_276:\n        /* \"#utility.yul\":4431:4553   */\n      pop\n      jump\t// out\n        /* \"#utility.yul\":4559:4698   */\n    tag_197:\n        /* \"#utility.yul\":4605:4610   */\n      0x00\n        /* \"#utility.yul\":4643:4649   */\n      dup2\n        /* \"#utility.yul\":4630:4650   */\n      calldataload\n        /* \"#utility.yul\":4621:4650   */\n      swap1\n      pop\n        /* \"#utility.yul\":4659:4692   */\n      tag_278\n        /* \"#utility.yul\":4686:4691   */\n      dup2\n        /* \"#utility.yul\":4659:4692   */\n      tag_196\n      jump\t// in\n    tag_278:\n        /* \"#utility.yul\":4559:4698   */\n      swap3\n      swap2\n      pop\n      pop\n      jump\t// out\n        /* \"#utility.yul\":4704:4781   */\n    tag_198:\n        /* \"#utility.yul\":4741:4748   */\n      0x00\n        /* \"#utility.yul\":4770:4775   */\n      dup2\n        /* \"#utility.yul\":4759:4775   */\n      swap1\n      pop\n        /* \"#utility.yul\":4704:4781   */\n      swap2\n      swap1\n      pop\n      jump\t// out\n        /* \"#utility.yul\":4787:4909   */\n    tag_199:\n        /* \"#utility.yul\":4860:4884   */\n      tag_281\n        /* \"#utility.yul\":4878:4883   */\n      dup2\n        /* \"#utility.yul\":4860:4884   */\n      tag_198\n      jump\t// in\n    tag_281:\n        /* \"#utility.yul\":4853:4858   */\n      dup2\n        /* \"#utility.yul\":4850:4885   */\n      eq\n        /* \"#utility.yul\":4840:4903   */\n      tag_282\n      jumpi\n        /* \"#utility.yul\":4899:4900   */\n      0x00\n        /* \"#utility.yul\":4896:4897   */\n      0x00\n        /* \"#utility.yul\":4889:4901   */\n      revert\n        /* \"#utility.yul\":4840:4903   */\n    tag_282:\n        /* \"#utility.yul\":4787:4909   */\n      pop\n      jump\t// out\n        /* \"#utility.yul\":4915:5054   */\n    tag_200:\n        /* \"#utility.yul\":4961:4966   */\n      0x00\n        /* \"#utility.yul\":4999:5005   */\n      dup2\n        /* \"#utility.yul\":4986:5006   */\n      calldataload\n        /* \"#utility.yul\":4977:5006   */\n      swap1\n      pop\n        /* \"#utility.yul\":5015:5048   */\n      tag_284\n        /* \"#utility.yul\":5042:5047   */\n      dup2\n        /* \"#utility.yul\":5015:5048   */\n      tag_199\n      jump\t// in\n    tag_284:\n        /* \"#utility.yul\":4915:5054   */\n      swap3\n      swap2\n      pop\n      pop\n      jump\t// out\n        /* \"#utility.yul\":5060:5534   */\n    tag_30:\n        /* \"#utility.yul\":5128:5134   */\n      0x00\n        /* \"#utility.yul\":5136:5142   */\n      0x00\n        /* \"#utility.yul\":5185:5187   */\n      0x40\n        /* \"#utility.yul\":5173:5182   */\n      dup4\n        /* \"#utility.yul\":5164:5171   */\n      dup6\n        /* \"#utility.yul\":5160:5183   */\n      sub\n        /* \"#utility.yul\":5156:5188   */\n      slt\n        /* \"#utility.yul\":5153:5272   */\n      iszero\n      tag_286\n      jumpi\n        /* \"#utility.yul\":5191:5270   */\n      tag_287\n      tag_178\n      jump\t// in\n    tag_287:\n        /* \"#utility.yul\":5153:5272   */\n    tag_286:\n        /* \"#utility.yul\":5311:5312   */\n      0x00\n        /* \"#utility.yul\":5336:5389   */\n      tag_288\n        /* \"#utility.yul\":5381:5388   */\n      dup6\n        /* \"#utility.yul\":5372:5378   */\n      dup3\n        /* \"#utility.yul\":5361:5370   */\n      dup7\n        /* \"#utility.yul\":5357:5379   */\n      add\n        /* \"#utility.yul\":5336:5389   */\n      tag_197\n      jump\t// in\n    tag_288:\n        /* \"#utility.yul\":5326:5389   */\n      swap3\n      pop\n        /* \"#utility.yul\":5282:5399   */\n      pop\n        /* \"#utility.yul\":5438:5440   */\n      0x20\n        /* \"#utility.yul\":5464:5517   */\n      tag_289\n        /* \"#utility.yul\":5509:5516   */\n      dup6\n        /* \"#utility.yul\":5500:5506   */\n      dup3\n        /* \"#utility.yul\":5489:5498   */\n      dup7\n        /* \"#utility.yul\":5485:5507   */\n      add\n        /* \"#utility.yul\":5464:5517   */\n      tag_200\n      jump\t// in\n    tag_289:\n        /* \"#utility.yul\":5454:5517   */\n      swap2\n      pop\n        /* \"#utility.yul\":5409:5527   */\n      pop\n        /* \"#utility.yul\":5060:5534   */\n      swap3\n      pop\n      swap3\n      swap1\n      pop\n      jump\t// out\n        /* \"#utility.yul\":5540:5869   */\n    tag_34:\n        /* \"#utility.yul\":5599:5605   */\n      0x00\n        /* \"#utility.yul\":5648:5650   */\n      0x20\n        /* \"#utility.yul\":5636:5645   */\n      dup3\n        /* \"#utility.yul\":5627:5634   */\n      dup5\n        /* \"#utility.yul\":5623:5646   */\n      sub\n        /* \"#utility.yul\":5619:5651   */\n      slt\n        /* \"#utility.yul\":5616:5735   */\n      iszero\n      tag_291\n      jumpi\n        /* \"#utility.yul\":5654:5733   */\n      tag_292\n      tag_178\n      jump\t// in\n    tag_292:\n        /* \"#utility.yul\":5616:5735   */\n    tag_291:\n        /* \"#utility.yul\":5774:5775   */\n      0x00\n        /* \"#utility.yul\":5799:5852   */\n      tag_293\n        /* \"#utility.yul\":5844:5851   */\n      dup5\n        /* \"#utility.yul\":5835:5841   */\n      dup3\n        /* \"#utility.yul\":5824:5833   */\n      dup6\n        /* \"#utility.yul\":5820:5842   */\n      add\n        /* \"#utility.yul\":5799:5852   */\n      tag_197\n      jump\t// in\n    tag_293:\n        /* \"#utility.yul\":5789:5852   */\n      swap2\n      pop\n        /* \"#utility.yul\":5745:5862   */\n      pop\n        /* \"#utility.yul\":5540:5869   */\n      swap3\n      swap2\n      pop\n      pop\n      jump\t// out\n        /* \"#utility.yul\":5875:6854   */\n    tag_44:\n        /* \"#utility.yul\":5972:5978   */\n      0x00\n        /* \"#utility.yul\":5980:5986   */\n      0x00\n        /* \"#utility.yul\":5988:5994   */\n      0x00\n        /* \"#utility.yul\":6037:6039   */\n      0x60\n        /* \"#utility.yul\":6025:6034   */\n      dup5\n        /* \"#utility.yul\":6016:6023   */\n      dup7\n        /* \"#utility.yul\":6012:6035   */\n      sub\n        /* \"#utility.yul\":6008:6040   */\n      slt\n        /* \"#utility.yul\":6005:6124   */\n      iszero\n      tag_295\n      jumpi\n        /* \"#utility.yul\":6043:6122   */\n      tag_296\n      tag_178\n      jump\t// in\n    tag_296:\n        /* \"#utility.yul\":6005:6124   */\n    tag_295:\n        /* \"#utility.yul\":6191:6192   */\n      0x00\n        /* \"#utility.yul\":6180:6189   */\n      dup5\n        /* \"#utility.yul\":6176:6193   */\n      add\n        /* \"#utility.yul\":6163:6194   */\n      calldataload\n        /* \"#utility.yul\":6221:6239   */\n      0xffffffffffffffff\n        /* \"#utility.yul\":6213:6219   */\n      dup2\n        /* \"#utility.yul\":6210:6240   */\n      gt\n        /* \"#utility.yul\":6207:6324   */\n      iszero\n      tag_297\n      jumpi\n        /* \"#utility.yul\":6243:6322   */\n      tag_298\n      tag_179\n      jump\t// in\n    tag_298:\n        /* \"#utility.yul\":6207:6324   */\n    tag_297:\n        /* \"#utility.yul\":6348:6411   */\n      tag_299\n        /* \"#utility.yul\":6403:6410   */\n      dup7\n        /* \"#utility.yul\":6394:6400   */\n      dup3\n        /* \"#utility.yul\":6383:6392   */\n      dup8\n        /* \"#utility.yul\":6379:6401   */\n      add\n        /* \"#utility.yul\":6348:6411   */\n      tag_189\n      jump\t// in\n    tag_299:\n        /* \"#utility.yul\":6338:6411   */\n      swap4\n      pop\n        /* \"#utility.yul\":6134:6421   */\n      pop\n        /* \"#utility.yul\":6460:6462   */\n      0x20\n        /* \"#utility.yul\":6486:6539   */\n      tag_300\n        /* \"#utility.yul\":6531:6538   */\n      dup7\n        /* \"#utility.yul\":6522:6528   */\n      dup3\n        /* \"#utility.yul\":6511:6520   */\n      dup8\n        /* \"#utility.yul\":6507:6529   */\n      add\n        /* \"#utility.yul\":6486:6539   */\n      tag_200\n      jump\t// in\n    tag_300:\n        /* \"#utility.yul\":6476:6539   */\n      swap3\n      pop\n        /* \"#utility.yul\":6431:6549   */\n      pop\n        /* \"#utility.yul\":6616:6618   */\n      0x40\n        /* \"#utility.yul\":6605:6614   */\n      dup5\n        /* \"#utility.yul\":6601:6619   */\n      add\n        /* \"#utility.yul\":6588:6620   */\n      calldataload\n        /* \"#utility.yul\":6647:6665   */\n      0xffffffffffffffff\n        /* \"#utility.yul\":6639:6645   */\n      dup2\n        /* \"#utility.yul\":6636:6666   */\n      gt\n        /* \"#utility.yul\":6633:6750   */\n      iszero\n      tag_301\n      jumpi\n        /* \"#utility.yul\":6669:6748   */\n      tag_302\n      tag_179\n      jump\t// in\n    tag_302:\n        /* \"#utility.yul\":6633:6750   */\n    tag_301:\n        /* \"#utility.yul\":6774:6837   */\n      tag_303\n        /* \"#utility.yul\":6829:6836   */\n      dup7\n        /* \"#utility.yul\":6820:6826   */\n      dup3\n        /* \"#utility.yul\":6809:6818   */\n      dup8\n        /* \"#utility.yul\":6805:6827   */\n      add\n        /* \"#utility.yul\":6774:6837   */\n      tag_189\n      jump\t// in\n    tag_303:\n        /* \"#utility.yul\":6764:6837   */\n      swap2\n      pop\n        /* \"#utility.yul\":6559:6847   */\n      pop\n        /* \"#utility.yul\":5875:6854   */\n      swap3\n      pop\n      swap3\n      pop\n      swap3\n      jump\t// out\n        /* \"#utility.yul\":6860:6978   */\n    tag_201:\n        /* \"#utility.yul\":6947:6971   */\n      tag_305\n        /* \"#utility.yul\":6965:6970   */\n      dup2\n        /* \"#utility.yul\":6947:6971   */\n      tag_195\n      jump\t// in\n    tag_305:\n        /* \"#utility.yul\":6942:6945   */\n      dup3\n        /* \"#utility.yul\":6935:6972   */\n      mstore\n        /* \"#utility.yul\":6860:6978   */\n      pop\n      pop\n      jump\t// out\n        /* \"#utility.yul\":6984:7102   */\n    tag_202:\n        /* \"#utility.yul\":7071:7095   */\n      tag_307\n        /* \"#utility.yul\":7089:7094   */\n      dup2\n        /* \"#utility.yul\":7071:7095   */\n      tag_198\n      jump\t// in\n    tag_307:\n        /* \"#utility.yul\":7066:7069   */\n      dup3\n        /* \"#utility.yul\":7059:7096   */\n      mstore\n        /* \"#utility.yul\":6984:7102   */\n      pop\n      pop\n      jump\t// out\n        /* \"#utility.yul\":7108:7883   */\n    tag_55:\n        /* \"#utility.yul\":7341:7345   */\n      0x00\n        /* \"#utility.yul\":7379:7382   */\n      0xc0\n        /* \"#utility.yul\":7368:7377   */\n      dup3\n        /* \"#utility.yul\":7364:7383   */\n      add\n        /* \"#utility.yul\":7356:7383   */\n      swap1\n      pop\n        /* \"#utility.yul\":7393:7464   */\n      tag_309\n        /* \"#utility.yul\":7461:7462   */\n      0x00\n        /* \"#utility.yul\":7450:7459   */\n      dup4\n        /* \"#utility.yul\":7446:7463   */\n      add\n        /* \"#utility.yul\":7437:7443   */\n      dup10\n        /* \"#utility.yul\":7393:7464   */\n      tag_201\n      jump\t// in\n    tag_309:\n        /* \"#utility.yul\":7474:7546   */\n      tag_310\n        /* \"#utility.yul\":7542:7544   */\n      0x20\n        /* \"#utility.yul\":7531:7540   */\n      dup4\n        /* \"#utility.yul\":7527:7545   */\n      add\n        /* \"#utility.yul\":7518:7524   */\n      dup9\n        /* \"#utility.yul\":7474:7546   */\n      tag_202\n      jump\t// in\n    tag_310:\n        /* \"#utility.yul\":7556:7628   */\n      tag_311\n        /* \"#utility.yul\":7624:7626   */\n      0x40\n        /* \"#utility.yul\":7613:7622   */\n      dup4\n        /* \"#utility.yul\":7609:7627   */\n      add\n        /* \"#utility.yul\":7600:7606   */\n      dup8\n        /* \"#utility.yul\":7556:7628   */\n      tag_202\n      jump\t// in\n    tag_311:\n        /* \"#utility.yul\":7638:7710   */\n      tag_312\n        /* \"#utility.yul\":7706:7708   */\n      0x60\n        /* \"#utility.yul\":7695:7704   */\n      dup4\n        /* \"#utility.yul\":7691:7709   */\n      add\n        /* \"#utility.yul\":7682:7688   */\n      dup7\n        /* \"#utility.yul\":7638:7710   */\n      tag_202\n      jump\t// in\n    tag_312:\n        /* \"#utility.yul\":7720:7793   */\n      tag_313\n        /* \"#utility.yul\":7788:7791   */\n      0x80\n        /* \"#utility.yul\":7777:7786   */\n      dup4\n        /* \"#utility.yul\":7773:7792   */\n      add\n        /* \"#utility.yul\":7764:7770   */\n      dup6\n        /* \"#utility.yul\":7720:7793   */\n      tag_202\n      jump\t// in\n    tag_313:\n        /* \"#utility.yul\":7803:7876   */\n      tag_314\n        /* \"#utility.yul\":7871:7874   */\n      0xa0\n        /* \"#utility.yul\":7860:7869   */\n      dup4\n        /* \"#utility.yul\":7856:7875   */\n      add\n        /* \"#utility.yul\":7847:7853   */\n      dup5\n        /* \"#utility.yul\":7803:7876   */\n      tag_202\n      jump\t// in\n    tag_314:\n        /* \"#utility.yul\":7108:7883   */\n      swap8\n      swap7\n      pop\n      pop\n      pop\n      pop\n      pop\n      pop\n      pop\n      jump\t// out\n        /* \"#utility.yul\":7889:8723   */\n    tag_58:\n        /* \"#utility.yul\":7977:7983   */\n      0x00\n        /* \"#utility.yul\":7985:7991   */\n      0x00\n        /* \"#utility.yul\":8034:8036   */\n      0x40\n        /* \"#utility.yul\":8022:8031   */\n      dup4\n        /* \"#utility.yul\":8013:8020   */\n      dup6\n        /* \"#utility.yul\":8009:8032   */\n      sub\n        /* \"#utility.yul\":8005:8037   */\n      slt\n        /* \"#utility.yul\":8002:8121   */\n      iszero\n      tag_316\n      jumpi\n        /* \"#utility.yul\":8040:8119   */\n      tag_317\n      tag_178\n      jump\t// in\n    tag_317:\n        /* \"#utility.yul\":8002:8121   */\n    tag_316:\n        /* \"#utility.yul\":8188:8189   */\n      0x00\n        /* \"#utility.yul\":8177:8186   */\n      dup4\n        /* \"#utility.yul\":8173:8190   */\n      add\n        /* \"#utility.yul\":8160:8191   */\n      calldataload\n        /* \"#utility.yul\":8218:8236   */\n      0xffffffffffffffff\n        /* \"#utility.yul\":8210:8216   */\n      dup2\n        /* \"#utility.yul\":8207:8237   */\n      gt\n        /* \"#utility.yul\":8204:8321   */\n      iszero\n      tag_318\n      jumpi\n        /* \"#utility.yul\":8240:8319   */\n      tag_319\n      tag_179\n      jump\t// in\n    tag_319:\n        /* \"#utility.yul\":8204:8321   */\n    tag_318:\n        /* \"#utility.yul\":8345:8408   */\n      tag_320\n        /* \"#utility.yul\":8400:8407   */\n      dup6\n        /* \"#utility.yul\":8391:8397   */\n      dup3\n        /* \"#utility.yul\":8380:8389   */\n      dup7\n        /* \"#utility.yul\":8376:8398   */\n      add\n        /* \"#utility.yul\":8345:8408   */\n      tag_189\n      jump\t// in\n    tag_320:\n        /* \"#utility.yul\":8335:8408   */\n      swap3\n      pop\n        /* \"#utility.yul\":8131:8418   */\n      pop\n        /* \"#utility.yul\":8485:8487   */\n      0x20\n        /* \"#utility.yul\":8474:8483   */\n      dup4\n        /* \"#utility.yul\":8470:8488   */\n      add\n        /* \"#utility.yul\":8457:8489   */\n      calldataload\n        /* \"#utility.yul\":8516:8534   */\n      0xffffffffffffffff\n        /* \"#utility.yul\":8508:8514   */\n      dup2\n        /* \"#utility.yul\":8505:8535   */\n      gt\n        /* \"#utility.yul\":8502:8619   */\n      iszero\n      tag_321\n      jumpi\n        /* \"#utility.yul\":8538:8617   */\n      tag_322\n      tag_179\n      jump\t// in\n    tag_322:\n        /* \"#utility.yul\":8502:8619   */\n    tag_321:\n        /* \"#utility.yul\":8643:8706   */\n      tag_323\n        /* \"#utility.yul\":8698:8705   */\n      dup6\n        /* \"#utility.yul\":8689:8695   */\n      dup3\n        /* \"#utility.yul\":8678:8687   */\n      dup7\n        /* \"#utility.yul\":8674:8696   */\n      add\n        /* \"#utility.yul\":8643:8706   */\n      tag_189\n      jump\t// in\n    tag_323:\n        /* \"#utility.yul\":8633:8706   */\n      swap2\n      pop\n        /* \"#utility.yul\":8428:8716   */\n      pop\n        /* \"#utility.yul\":7889:8723   */\n      swap3\n      pop\n      swap3\n      swap1\n      pop\n      jump\t// out\n        /* \"#utility.yul\":8729:9528   */\n    tag_68:\n        /* \"#utility.yul\":8816:8822   */\n      0x00\n        /* \"#utility.yul\":8824:8830   */\n      0x00\n        /* \"#utility.yul\":8832:8838   */\n      0x00\n        /* \"#utility.yul\":8881:8883   */\n      0x60\n        /* \"#utility.yul\":8869:8878   */\n      dup5\n        /* \"#utility.yul\":8860:8867   */\n      dup7\n        /* \"#utility.yul\":8856:8879   */\n      sub\n        /* \"#utility.yul\":8852:8884   */\n      slt\n        /* \"#utility.yul\":8849:8968   */\n      iszero\n      tag_325\n      jumpi\n        /* \"#utility.yul\":8887:8966   */\n      tag_326\n      tag_178\n      jump\t// in\n    tag_326:\n        /* \"#utility.yul\":8849:8968   */\n    tag_325:\n        /* \"#utility.yul\":9035:9036   */\n      0x00\n        /* \"#utility.yul\":9024:9033   */\n      dup5\n        /* \"#utility.yul\":9020:9037   */\n      add\n        /* \"#utility.yul\":9007:9038   */\n      calldataload\n        /* \"#utility.yul\":9065:9083   */\n      0xffffffffffffffff\n        /* \"#utility.yul\":9057:9063   */\n      dup2\n        /* \"#utility.yul\":9054:9084   */\n      gt\n        /* \"#utility.yul\":9051:9168   */\n      iszero\n      tag_327\n      jumpi\n        /* \"#utility.yul\":9087:9166   */\n      tag_328\n      tag_179\n      jump\t// in\n    tag_328:\n        /* \"#utility.yul\":9051:9168   */\n    tag_327:\n        /* \"#utility.yul\":9192:9255   */\n      tag_329\n        /* \"#utility.yul\":9247:9254   */\n      dup7\n        /* \"#utility.yul\":9238:9244   */\n      dup3\n        /* \"#utility.yul\":9227:9236   */\n      dup8\n        /* \"#utility.yul\":9223:9245   */\n      add\n        /* \"#utility.yul\":9192:9255   */\n      tag_189\n      jump\t// in\n    tag_329:\n        /* \"#utility.yul\":9182:9255   */\n      swap4\n      pop\n        /* \"#utility.yul\":8978:9265   */\n      pop\n        /* \"#utility.yul\":9304:9306   */\n      0x20\n        /* \"#utility.yul\":9330:9383   */\n      tag_330\n        /* \"#utility.yul\":9375:9382   */\n      dup7\n        /* \"#utility.yul\":9366:9372   */\n      dup3\n        /* \"#utility.yul\":9355:9364   */\n      dup8\n        /* \"#utility.yul\":9351:9373   */\n      add\n        /* \"#utility.yul\":9330:9383   */\n      tag_200\n      jump\t// in\n    tag_330:\n        /* \"#utility.yul\":9320:9383   */\n      swap3\n      pop\n        /* \"#utility.yul\":9275:9393   */\n      pop\n        /* \"#utility.yul\":9432:9434   */\n      0x40\n        /* \"#utility.yul\":9458:9511   */\n      tag_331\n        /* \"#utility.yul\":9503:9510   */\n      dup7\n        /* \"#utility.yul\":9494:9500   */\n      dup3\n        /* \"#utility.yul\":9483:9492   */\n      dup8\n        /* \"#utility.yul\":9479:9501   */\n      add\n        /* \"#utility.yul\":9458:9511   */\n      tag_200\n      jump\t// in\n    tag_331:\n        /* \"#utility.yul\":9448:9511   */\n      swap2\n      pop\n        /* \"#utility.yul\":9403:9521   */\n      pop\n        /* \"#utility.yul\":8729:9528   */\n      swap3\n      pop\n      swap3\n      pop\n      swap3\n      jump\t// out\n        /* \"#utility.yul\":9534:9756   */\n    tag_74:\n        /* \"#utility.yul\":9627:9631   */\n      0x00\n        /* \"#utility.yul\":9665:9667   */\n      0x20\n        /* \"#utility.yul\":9654:9663   */\n      dup3\n        /* \"#utility.yul\":9650:9668   */\n      add\n        /* \"#utility.yul\":9642:9668   */\n      swap1\n      pop\n        /* \"#utility.yul\":9678:9749   */\n      tag_333\n        /* \"#utility.yul\":9746:9747   */\n      0x00\n        /* \"#utility.yul\":9735:9744   */\n      dup4\n        /* \"#utility.yul\":9731:9748   */\n      add\n        /* \"#utility.yul\":9722:9728   */\n      dup5\n        /* \"#utility.yul\":9678:9749   */\n      tag_202\n      jump\t// in\n    tag_333:\n        /* \"#utility.yul\":9534:9756   */\n      swap3\n      swap2\n      pop\n      pop\n      jump\t// out\n        /* \"#utility.yul\":9762:11145   */\n    tag_77:\n        /* \"#utility.yul\":9885:9891   */\n      0x00\n        /* \"#utility.yul\":9893:9899   */\n      0x00\n        /* \"#utility.yul\":9901:9907   */\n      0x00\n        /* \"#utility.yul\":9909:9915   */\n      0x00\n        /* \"#utility.yul\":9917:9923   */\n      0x00\n        /* \"#utility.yul\":9925:9931   */\n      0x00\n        /* \"#utility.yul\":9933:9939   */\n      0x00\n        /* \"#utility.yul\":9982:9985   */\n      0xe0\n        /* \"#utility.yul\":9970:9979   */\n      dup9\n        /* \"#utility.yul\":9961:9968   */\n      dup11\n        /* \"#utility.yul\":9957:9980   */\n      sub\n        /* \"#utility.yul\":9953:9986   */\n      slt\n        /* \"#utility.yul\":9950:10070   */\n      iszero\n      tag_335\n      jumpi\n        /* \"#utility.yul\":9989:10068   */\n      tag_336\n      tag_178\n      jump\t// in\n    tag_336:\n        /* \"#utility.yul\":9950:10070   */\n    tag_335:\n        /* \"#utility.yul\":10137:10138   */\n      0x00\n        /* \"#utility.yul\":10126:10135   */\n      dup9\n        /* \"#utility.yul\":10122:10139   */\n      add\n        /* \"#utility.yul\":10109:10140   */\n      calldataload\n        /* \"#utility.yul\":10167:10185   */\n      0xffffffffffffffff\n        /* \"#utility.yul\":10159:10165   */\n      dup2\n        /* \"#utility.yul\":10156:10186   */\n      gt\n        /* \"#utility.yul\":10153:10270   */\n      iszero\n      tag_337\n      jumpi\n        /* \"#utility.yul\":10189:10268   */\n      tag_338\n      tag_179\n      jump\t// in\n    tag_338:\n        /* \"#utility.yul\":10153:10270   */\n    tag_337:\n        /* \"#utility.yul\":10294:10357   */\n      tag_339\n        /* \"#utility.yul\":10349:10356   */\n      dup11\n        /* \"#utility.yul\":10340:10346   */\n      dup3\n        /* \"#utility.yul\":10329:10338   */\n      dup12\n        /* \"#utility.yul\":10325:10347   */\n      add\n        /* \"#utility.yul\":10294:10357   */\n      tag_189\n      jump\t// in\n    tag_339:\n        /* \"#utility.yul\":10284:10357   */\n      swap8\n      pop\n        /* \"#utility.yul\":10080:10367   */\n      pop\n        /* \"#utility.yul\":10406:10408   */\n      0x20\n        /* \"#utility.yul\":10432:10485   */\n      tag_340\n        /* \"#utility.yul\":10477:10484   */\n      dup11\n        /* \"#utility.yul\":10468:10474   */\n      dup3\n        /* \"#utility.yul\":10457:10466   */\n      dup12\n        /* \"#utility.yul\":10453:10475   */\n      add\n        /* \"#utility.yul\":10432:10485   */\n      tag_197\n      jump\t// in\n    tag_340:\n        /* \"#utility.yul\":10422:10485   */\n      swap7\n      pop\n        /* \"#utility.yul\":10377:10495   */\n      pop\n        /* \"#utility.yul\":10534:10536   */\n      0x40\n        /* \"#utility.yul\":10560:10613   */\n      tag_341\n        /* \"#utility.yul\":10605:10612   */\n      dup11\n        /* \"#utility.yul\":10596:10602   */\n      dup3\n        /* \"#utility.yul\":10585:10594   */\n      dup12\n        /* \"#utility.yul\":10581:10603   */\n      add\n        /* \"#utility.yul\":10560:10613   */\n      tag_200\n      jump\t// in\n    tag_341:\n        /* \"#utility.yul\":10550:10613   */\n      swap6\n      pop\n        /* \"#utility.yul\":10505:10623   */\n      pop\n        /* \"#utility.yul\":10662:10664   */\n      0x60\n        /* \"#utility.yul\":10688:10741   */\n      tag_342\n        /* \"#utility.yul\":10733:10740   */\n      dup11\n        /* \"#utility.yul\":10724:10730   */\n      dup3\n        /* \"#utility.yul\":10713:10722   */\n      dup12\n        /* \"#utility.yul\":10709:10731   */\n      add\n        /* \"#utility.yul\":10688:10741   */\n      tag_200\n      jump\t// in\n    tag_342:\n        /* \"#utility.yul\":10678:10741   */\n      swap5\n      pop\n        /* \"#utility.yul\":10633:10751   */\n      pop\n        /* \"#utility.yul\":10790:10793   */\n      0x80\n        /* \"#utility.yul\":10817:10870   */\n      tag_343\n        /* \"#utility.yul\":10862:10869   */\n      dup11\n        /* \"#utility.yul\":10853:10859   */\n      dup3\n        /* \"#utility.yul\":10842:10851   */\n      dup12\n        /* \"#utility.yul\":10838:10860   */\n      add\n        /* \"#utility.yul\":10817:10870   */\n      tag_200\n      jump\t// in\n    tag_343:\n        /* \"#utility.yul\":10807:10870   */\n      swap4\n      pop\n        /* \"#utility.yul\":10761:10880   */\n      pop\n        /* \"#utility.yul\":10919:10922   */\n      0xa0\n        /* \"#utility.yul\":10946:10999   */\n      tag_344\n        /* \"#utility.yul\":10991:10998   */\n      dup11\n        /* \"#utility.yul\":10982:10988   */\n      dup3\n        /* \"#utility.yul\":10971:10980   */\n      dup12\n        /* \"#utility.yul\":10967:10989   */\n      add\n        /* \"#utility.yul\":10946:10999   */\n      tag_200\n      jump\t// in\n    tag_344:\n        /* \"#utility.yul\":10936:10999   */\n      swap3\n      pop\n        /* \"#utility.yul\":10890:11009   */\n      pop\n        /* \"#utility.yul\":11048:11051   */\n      0xc0\n        /* \"#utility.yul\":11075:11128   */\n      tag_345\n        /* \"#utility.yul\":11120:11127   */\n      dup11\n        /* \"#utility.yul\":11111:11117   */\n      dup3\n        /* \"#utility.yul\":11100:11109   */\n      dup12\n        /* \"#utility.yul\":11096:11118   */\n      add\n        /* \"#utility.yul\":11075:11128   */\n      tag_200\n      jump\t// in\n    tag_345:\n        /* \"#utility.yul\":11065:11128   */\n      swap2\n      pop\n        /* \"#utility.yul\":11019:11138   */\n      pop\n        /* \"#utility.yul\":9762:11145   */\n      swap3\n      swap6\n      swap9\n      swap2\n      swap5\n      swap8\n      pop\n      swap3\n      swap6\n      pop\n      jump\t// out\n        /* \"#utility.yul\":11151:11299   */\n    tag_203:\n        /* \"#utility.yul\":11253:11264   */\n      0x00\n        /* \"#utility.yul\":11290:11293   */\n      dup2\n        /* \"#utility.yul\":11275:11293   */\n      swap1\n      pop\n        /* \"#utility.yul\":11151:11299   */\n      swap3\n      swap2\n      pop\n      pop\n      jump\t// out\n        /* \"#utility.yul\":11305:11695   */\n    tag_204:\n        /* \"#utility.yul\":11411:11414   */\n      0x00\n        /* \"#utility.yul\":11439:11478   */\n      tag_348\n        /* \"#utility.yul\":11472:11477   */\n      dup3\n        /* \"#utility.yul\":11439:11478   */\n      tag_190\n      jump\t// in\n    tag_348:\n        /* \"#utility.yul\":11494:11583   */\n      tag_349\n        /* \"#utility.yul\":11576:11582   */\n      dup2\n        /* \"#utility.yul\":11571:11574   */\n      dup6\n        /* \"#utility.yul\":11494:11583   */\n      tag_203\n      jump\t// in\n    tag_349:\n        /* \"#utility.yul\":11487:11583   */\n      swap4\n      pop\n        /* \"#utility.yul\":11592:11657   */\n      tag_350\n        /* \"#utility.yul\":11650:11656   */\n      dup2\n        /* \"#utility.yul\":11645:11648   */\n      dup6\n        /* \"#utility.yul\":11638:11642   */\n      0x20\n        /* \"#utility.yul\":11631:11636   */\n      dup7\n        /* \"#utility.yul\":11627:11643   */\n      add\n        /* \"#utility.yul\":11592:11657   */\n      tag_192\n      jump\t// in\n    tag_350:\n        /* \"#utility.yul\":11682:11688   */\n      dup1\n        /* \"#utility.yul\":11677:11680   */\n      dup5\n        /* \"#utility.yul\":11673:11689   */\n      add\n        /* \"#utility.yul\":11666:11689   */\n      swap2\n      pop\n        /* \"#utility.yul\":11415:11695   */\n      pop\n        /* \"#utility.yul\":11305:11695   */\n      swap3\n      swap2\n      pop\n      pop\n      jump\t// out\n        /* \"#utility.yul\":11701:11976   */\n    tag_85:\n        /* \"#utility.yul\":11833:11836   */\n      0x00\n        /* \"#utility.yul\":11855:11950   */\n      tag_352\n        /* \"#utility.yul\":11946:11949   */\n      dup3\n        /* \"#utility.yul\":11937:11943   */\n      dup5\n        /* \"#utility.yul\":11855:11950   */\n      tag_204\n      jump\t// in\n    tag_352:\n        /* \"#utility.yul\":11848:11950   */\n      swap2\n      pop\n        /* \"#utility.yul\":11967:11970   */\n      dup2\n        /* \"#utility.yul\":11960:11970   */\n      swap1\n      pop\n        /* \"#utility.yul\":11701:11976   */\n      swap3\n      swap2\n      pop\n      pop\n      jump\t// out\n        /* \"#utility.yul\":11982:12162   */\n    tag_205:\n        /* \"#utility.yul\":12030:12107   */\n      0x4e487b7100000000000000000000000000000000000000000000000000000000\n        /* \"#utility.yul\":12027:12028   */\n      0x00\n        /* \"#utility.yul\":12020:12108   */\n      mstore\n        /* \"#utility.yul\":12127:12131   */\n      0x22\n        /* \"#utility.yul\":12124:12125   */\n      0x04\n        /* \"#utility.yul\":12117:12132   */\n      mstore\n        /* \"#utility.yul\":12151:12155   */\n      0x24\n        /* \"#utility.yul\":12148:12149   */\n      0x00\n        /* \"#utility.yul\":12141:12156   */\n      revert\n        /* \"#utility.yul\":12168:12488   */\n    tag_87:\n        /* \"#utility.yul\":12212:12218   */\n      0x00\n        /* \"#utility.yul\":12249:12250   */\n      0x02\n        /* \"#utility.yul\":12243:12247   */\n      dup3\n        /* \"#utility.yul\":12239:12251   */\n      div\n        /* \"#utility.yul\":12229:12251   */\n      swap1\n      pop\n        /* \"#utility.yul\":12296:12297   */\n      0x01\n        /* \"#utility.yul\":12290:12294   */\n      dup3\n        /* \"#utility.yul\":12286:12298   */\n      and\n        /* \"#utility.yul\":12317:12335   */\n      dup1\n        /* \"#utility.yul\":12307:12388   */\n      tag_355\n      jumpi\n        /* \"#utility.yul\":12373:12377   */\n      0x7f\n        /* \"#utility.yul\":12365:12371   */\n      dup3\n        /* \"#utility.yul\":12361:12378   */\n      and\n        /* \"#utility.yul\":12351:12378   */\n      swap2\n      pop\n        /* \"#utility.yul\":12307:12388   */\n    tag_355:\n        /* \"#utility.yul\":12435:12437   */\n      0x20\n        /* \"#utility.yul\":12427:12433   */\n      dup3\n        /* \"#utility.yul\":12424:12438   */\n      lt\n        /* \"#utility.yul\":12404:12422   */\n      dup2\n        /* \"#utility.yul\":12401:12439   */\n      sub\n        /* \"#utility.yul\":12398:12482   */\n      tag_356\n      jumpi\n        /* \"#utility.yul\":12454:12472   */\n      tag_357\n      tag_205\n      jump\t// in\n    tag_357:\n        /* \"#utility.yul\":12398:12482   */\n    tag_356:\n        /* \"#utility.yul\":12219:12488   */\n      pop\n        /* \"#utility.yul\":12168:12488   */\n      swap2\n      swap1\n      pop\n      jump\t// out\n        /* \"#utility.yul\":12494:12674   */\n    tag_206:\n        /* \"#utility.yul\":12542:12619   */\n      0x4e487b7100000000000000000000000000000000000000000000000000000000\n        /* \"#utility.yul\":12539:12540   */\n      0x00\n        /* \"#utility.yul\":12532:12620   */\n      mstore\n        /* \"#utility.yul\":12639:12643   */\n      0x11\n        /* \"#utility.yul\":12636:12637   */\n      0x04\n        /* \"#utility.yul\":12629:12644   */\n      mstore\n        /* \"#utility.yul\":12663:12667   */\n      0x24\n        /* \"#utility.yul\":12660:12661   */\n      0x00\n        /* \"#utility.yul\":12653:12668   */\n      revert\n        /* \"#utility.yul\":12680:12871   */\n    tag_96:\n        /* \"#utility.yul\":12720:12723   */\n      0x00\n        /* \"#utility.yul\":12739:12759   */\n      tag_360\n        /* \"#utility.yul\":12757:12758   */\n      dup3\n        /* \"#utility.yul\":12739:12759   */\n      tag_198\n      jump\t// in\n    tag_360:\n        /* \"#utility.yul\":12734:12759   */\n      swap2\n      pop\n        /* \"#utility.yul\":12773:12793   */\n      tag_361\n        /* \"#utility.yul\":12791:12792   */\n      dup4\n        /* \"#utility.yul\":12773:12793   */\n      tag_198\n      jump\t// in\n    tag_361:\n        /* \"#utility.yul\":12768:12793   */\n      swap3\n      pop\n        /* \"#utility.yul\":12816:12817   */\n      dup3\n        /* \"#utility.yul\":12813:12814   */\n      dup3\n        /* \"#utility.yul\":12809:12818   */\n      add\n        /* \"#utility.yul\":12802:12818   */\n      swap1\n      pop\n        /* \"#utility.yul\":12837:12840   */\n      dup1\n        /* \"#utility.yul\":12834:12835   */\n      dup3\n        /* \"#utility.yul\":12831:12841   */\n      gt\n        /* \"#utility.yul\":12828:12864   */\n      iszero\n      tag_362\n      jumpi\n        /* \"#utility.yul\":12844:12862   */\n      tag_363\n      tag_206\n      jump\t// in\n    tag_363:\n        /* \"#utility.yul\":12828:12864   */\n    tag_362:\n        /* \"#utility.yul\":12680:12871   */\n      swap3\n      swap2\n      pop\n      pop\n      jump\t// out\n        /* \"#utility.yul\":12877:13071   */\n    tag_98:\n        /* \"#utility.yul\":12917:12921   */\n      0x00\n        /* \"#utility.yul\":12937:12957   */\n      tag_365\n        /* \"#utility.yul\":12955:12956   */\n      dup3\n        /* \"#utility.yul\":12937:12957   */\n      tag_198\n      jump\t// in\n    tag_365:\n        /* \"#utility.yul\":12932:12957   */\n      swap2\n      pop\n        /* \"#utility.yul\":12971:12991   */\n      tag_366\n        /* \"#utility.yul\":12989:12990   */\n      dup4\n        /* \"#utility.yul\":12971:12991   */\n      tag_198\n      jump\t// in\n    tag_366:\n        /* \"#utility.yul\":12966:12991   */\n      swap3\n      pop\n        /* \"#utility.yul\":13015:13016   */\n      dup3\n        /* \"#utility.yul\":13012:13013   */\n      dup3\n        /* \"#utility.yul\":13008:13017   */\n      sub\n        /* \"#utility.yul\":13000:13017   */\n      swap1\n      pop\n        /* \"#utility.yul\":13039:13040   */\n      dup2\n        /* \"#utility.yul\":13033:13037   */\n      dup2\n        /* \"#utility.yul\":13030:13041   */\n      gt\n        /* \"#utility.yul\":13027:13064   */\n      iszero\n      tag_367\n      jumpi\n        /* \"#utility.yul\":13044:13062   */\n      tag_368\n      tag_206\n      jump\t// in\n    tag_368:\n        /* \"#utility.yul\":13027:13064   */\n    tag_367:\n        /* \"#utility.yul\":12877:13071   */\n      swap3\n      swap2\n      pop\n      pop\n      jump\t// out\n        /* \"#utility.yul\":13077:13409   */\n    tag_109:\n        /* \"#utility.yul\":13198:13202   */\n      0x00\n        /* \"#utility.yul\":13236:13238   */\n      0x40\n        /* \"#utility.yul\":13225:13234   */\n      dup3\n        /* \"#utility.yul\":13221:13239   */\n      add\n        /* \"#utility.yul\":13213:13239   */\n      swap1\n      pop\n        /* \"#utility.yul\":13249:13320   */\n      tag_370\n        /* \"#utility.yul\":13317:13318   */\n      0x00\n        /* \"#utility.yul\":13306:13315   */\n      dup4\n        /* \"#utility.yul\":13302:13319   */\n      add\n        /* \"#utility.yul\":13293:13299   */\n      dup6\n        /* \"#utility.yul\":13249:13320   */\n      tag_201\n      jump\t// in\n    tag_370:\n        /* \"#utility.yul\":13330:13402   */\n      tag_371\n        /* \"#utility.yul\":13398:13400   */\n      0x20\n        /* \"#utility.yul\":13387:13396   */\n      dup4\n        /* \"#utility.yul\":13383:13401   */\n      add\n        /* \"#utility.yul\":13374:13380   */\n      dup5\n        /* \"#utility.yul\":13330:13402   */\n      tag_202\n      jump\t// in\n    tag_371:\n        /* \"#utility.yul\":13077:13409   */\n      swap4\n      swap3\n      pop\n      pop\n      pop\n      jump\t// out\n        /* \"#utility.yul\":13415:13505   */\n    tag_207:\n        /* \"#utility.yul\":13449:13456   */\n      0x00\n        /* \"#utility.yul\":13492:13497   */\n      dup2\n        /* \"#utility.yul\":13485:13498   */\n      iszero\n        /* \"#utility.yul\":13478:13499   */\n      iszero\n        /* \"#utility.yul\":13467:13499   */\n      swap1\n      pop\n        /* \"#utility.yul\":13415:13505   */\n      swap2\n      swap1\n      pop\n      jump\t// out\n        /* \"#utility.yul\":13511:13627   */\n    tag_208:\n        /* \"#utility.yul\":13581:13602   */\n      tag_374\n        /* \"#utility.yul\":13596:13601   */\n      dup2\n        /* \"#utility.yul\":13581:13602   */\n      tag_207\n      jump\t// in\n    tag_374:\n        /* \"#utility.yul\":13574:13579   */\n      dup2\n        /* \"#utility.yul\":13571:13603   */\n      eq\n        /* \"#utility.yul\":13561:13621   */\n      tag_375\n      jumpi\n        /* \"#utility.yul\":13617:13618   */\n      0x00\n        /* \"#utility.yul\":13614:13615   */\n      0x00\n        /* \"#utility.yul\":13607:13619   */\n      revert\n        /* \"#utility.yul\":13561:13621   */\n    tag_375:\n        /* \"#utility.yul\":13511:13627   */\n      pop\n      jump\t// out\n        /* \"#utility.yul\":13633:13770   */\n    tag_209:\n        /* \"#utility.yul\":13687:13692   */\n      0x00\n        /* \"#utility.yul\":13718:13724   */\n      dup2\n        /* \"#utility.yul\":13712:13725   */\n      mload\n        /* \"#utility.yul\":13703:13725   */\n      swap1\n      pop\n        /* \"#utility.yul\":13734:13764   */\n      tag_377\n        /* \"#utility.yul\":13758:13763   */\n      dup2\n        /* \"#utility.yul\":13734:13764   */\n      tag_208\n      jump\t// in\n    tag_377:\n        /* \"#utility.yul\":13633:13770   */\n      swap3\n      swap2\n      pop\n      pop\n      jump\t// out\n        /* \"#utility.yul\":13776:14121   */\n    tag_113:\n        /* \"#utility.yul\":13843:13849   */\n      0x00\n        /* \"#utility.yul\":13892:13894   */\n      0x20\n        /* \"#utility.yul\":13880:13889   */\n      dup3\n        /* \"#utility.yul\":13871:13878   */\n      dup5\n        /* \"#utility.yul\":13867:13890   */\n      sub\n        /* \"#utility.yul\":13863:13895   */\n      slt\n        /* \"#utility.yul\":13860:13979   */\n      iszero\n      tag_379\n      jumpi\n        /* \"#utility.yul\":13898:13977   */\n      tag_380\n      tag_178\n      jump\t// in\n    tag_380:\n        /* \"#utility.yul\":13860:13979   */\n    tag_379:\n        /* \"#utility.yul\":14018:14019   */\n      0x00\n        /* \"#utility.yul\":14043:14104   */\n      tag_381\n        /* \"#utility.yul\":14096:14103   */\n      dup5\n        /* \"#utility.yul\":14087:14093   */\n      dup3\n        /* \"#utility.yul\":14076:14085   */\n      dup6\n        /* \"#utility.yul\":14072:14094   */\n      add\n        /* \"#utility.yul\":14043:14104   */\n      tag_209\n      jump\t// in\n    tag_381:\n        /* \"#utility.yul\":14033:14104   */\n      swap2\n      pop\n        /* \"#utility.yul\":13989:14114   */\n      pop\n        /* \"#utility.yul\":13776:14121   */\n      swap3\n      swap2\n      pop\n      pop\n      jump\t// out\n        /* \"#utility.yul\":14127:14569   */\n    tag_118:\n        /* \"#utility.yul\":14276:14280   */\n      0x00\n        /* \"#utility.yul\":14314:14316   */\n      0x60\n        /* \"#utility.yul\":14303:14312   */\n      dup3\n        /* \"#utility.yul\":14299:14317   */\n      add\n        /* \"#utility.yul\":14291:14317   */\n      swap1\n      pop\n        /* \"#utility.yul\":14327:14398   */\n      tag_383\n        /* \"#utility.yul\":14395:14396   */\n      0x00\n        /* \"#utility.yul\":14384:14393   */\n      dup4\n        /* \"#utility.yul\":14380:14397   */\n      add\n        /* \"#utility.yul\":14371:14377   */\n      dup7\n        /* \"#utility.yul\":14327:14398   */\n      tag_201\n      jump\t// in\n    tag_383:\n        /* \"#utility.yul\":14408:14480   */\n      tag_384\n        /* \"#utility.yul\":14476:14478   */\n      0x20\n        /* \"#utility.yul\":14465:14474   */\n      dup4\n        /* \"#utility.yul\":14461:14479   */\n      add\n        /* \"#utility.yul\":14452:14458   */\n      dup6\n        /* \"#utility.yul\":14408:14480   */\n      tag_201\n      jump\t// in\n    tag_384:\n        /* \"#utility.yul\":14490:14562   */\n      tag_385\n        /* \"#utility.yul\":14558:14560   */\n      0x40\n        /* \"#utility.yul\":14547:14556   */\n      dup4\n        /* \"#utility.yul\":14543:14561   */\n      add\n        /* \"#utility.yul\":14534:14540   */\n      dup5\n        /* \"#utility.yul\":14490:14562   */\n      tag_202\n      jump\t// in\n    tag_385:\n        /* \"#utility.yul\":14127:14569   */\n      swap5\n      swap4\n      pop\n      pop\n      pop\n      pop\n      jump\t// out\n        /* \"#utility.yul\":14575:14716   */\n    tag_210:\n        /* \"#utility.yul\":14624:14628   */\n      0x00\n        /* \"#utility.yul\":14647:14650   */\n      dup2\n        /* \"#utility.yul\":14639:14650   */\n      swap1\n      pop\n        /* \"#utility.yul\":14670:14673   */\n      dup2\n        /* \"#utility.yul\":14667:14668   */\n      0x00\n        /* \"#utility.yul\":14660:14674   */\n      mstore\n        /* \"#utility.yul\":14704:14708   */\n      0x20\n        /* \"#utility.yul\":14701:14702   */\n      0x00\n        /* \"#utility.yul\":14691:14709   */\n      keccak256\n        /* \"#utility.yul\":14683:14709   */\n      swap1\n      pop\n        /* \"#utility.yul\":14575:14716   */\n      swap2\n      swap1\n      pop\n      jump\t// out\n        /* \"#utility.yul\":14722:14815   */\n    tag_211:\n        /* \"#utility.yul\":14759:14765   */\n      0x00\n        /* \"#utility.yul\":14806:14808   */\n      0x20\n        /* \"#utility.yul\":14801:14803   */\n      0x1f\n        /* \"#utility.yul\":14794:14799   */\n      dup4\n        /* \"#utility.yul\":14790:14804   */\n      add\n        /* \"#utility.yul\":14786:14809   */\n      div\n        /* \"#utility.yul\":14776:14809   */\n      swap1\n      pop\n        /* \"#utility.yul\":14722:14815   */\n      swap2\n      swap1\n      pop\n      jump\t// out\n        /* \"#utility.yul\":14821:14928   */\n    tag_212:\n        /* \"#utility.yul\":14865:14873   */\n      0x00\n        /* \"#utility.yul\":14915:14920   */\n      dup3\n        /* \"#utility.yul\":14909:14913   */\n      dup3\n        /* \"#utility.yul\":14905:14921   */\n      shl\n        /* \"#utility.yul\":14884:14921   */\n      swap1\n      pop\n        /* \"#utility.yul\":14821:14928   */\n      swap3\n      swap2\n      pop\n      pop\n      jump\t// out\n        /* \"#utility.yul\":14934:15327   */\n    tag_213:\n        /* \"#utility.yul\":15003:15009   */\n      0x00\n        /* \"#utility.yul\":15053:15054   */\n      0x08\n        /* \"#utility.yul\":15041:15051   */\n      dup4\n        /* \"#utility.yul\":15037:15055   */\n      mul\n        /* \"#utility.yul\":15076:15173   */\n      tag_390\n        /* \"#utility.yul\":15106:15172   */\n      0xffffffffffffffffffffffffffffffffffffffffffffffffffffffffffffffff\n        /* \"#utility.yul\":15095:15104   */\n      dup3\n        /* \"#utility.yul\":15076:15173   */\n      tag_212\n      jump\t// in\n    tag_390:\n        /* \"#utility.yul\":15194:15233   */\n      tag_391\n        /* \"#utility.yul\":15224:15232   */\n      dup7\n        /* \"#utility.yul\":15213:15222   */\n      dup4\n        /* \"#utility.yul\":15194:15233   */\n      tag_212\n      jump\t// in\n    tag_391:\n        /* \"#utility.yul\":15182:15233   */\n      swap6\n      pop\n        /* \"#utility.yul\":15266:15270   */\n      dup1\n        /* \"#utility.yul\":15262:15271   */\n      not\n        /* \"#utility.yul\":15255:15260   */\n      dup5\n        /* \"#utility.yul\":15251:15272   */\n      and\n        /* \"#utility.yul\":15242:15272   */\n      swap4\n      pop\n        /* \"#utility.yul\":15315:15319   */\n      dup1\n        /* \"#utility.yul\":15305:15313   */\n      dup7\n        /* \"#utility.yul\":15301:15320   */\n      and\n        /* \"#utility.yul\":15294:15299   */\n      dup5\n        /* \"#utility.yul\":15291:15321   */\n      or\n        /* \"#utility.yul\":15281:15321   */\n      swap3\n      pop\n        /* \"#utility.yul\":15010:15327   */\n      pop\n      pop\n        /* \"#utility.yul\":14934:15327   */\n      swap4\n      swap3\n      pop\n      pop\n      pop\n      jump\t// out\n        /* \"#utility.yul\":15333:15393   */\n    tag_214:\n        /* \"#utility.yul\":15361:15364   */\n      0x00\n        /* \"#utility.yul\":15382:15387   */\n      dup2\n        /* \"#utility.yul\":15375:15387   */\n      swap1\n      pop\n        /* \"#utility.yul\":15333:15393   */\n      swap2\n      swap1\n      pop\n      jump\t// out\n        /* \"#utility.yul\":15399:15541   */\n    tag_215:\n        /* \"#utility.yul\":15449:15458   */\n      0x00\n        /* \"#utility.yul\":15482:15535   */\n      tag_394\n        /* \"#utility.yul\":15500:15534   */\n      tag_395\n        /* \"#utility.yul\":15509:15533   */\n      tag_396\n        /* \"#utility.yul\":15527:15532   */\n      dup5\n        /* \"#utility.yul\":15509:15533   */\n      tag_198\n      jump\t// in\n    tag_396:\n        /* \"#utility.yul\":15500:15534   */\n      tag_214\n      jump\t// in\n    tag_395:\n        /* \"#utility.yul\":15482:15535   */\n      tag_198\n      jump\t// in\n    tag_394:\n        /* \"#utility.yul\":15469:15535   */\n      swap1\n      pop\n        /* \"#utility.yul\":15399:15541   */\n      swap2\n      swap1\n      pop\n      jump\t// out\n        /* \"#utility.yul\":15547:15622   */\n    tag_216:\n        /* \"#utility.yul\":15590:15593   */\n      0x00\n        /* \"#utility.yul\":15611:15616   */\n      dup2\n        /* \"#utility.yul\":15604:15616   */\n      swap1\n      pop\n        /* \"#utility.yul\":15547:15622   */\n      swap2\n      swap1\n      pop\n      jump\t// out\n        /* \"#utility.yul\":15628:15897   */\n    tag_217:\n        /* \"#utility.yul\":15738:15777   */\n      tag_399\n        /* \"#utility.yul\":15769:15776   */\n      dup4\n        /* \"#utility.yul\":15738:15777   */\n      tag_215\n      jump\t// in\n    tag_399:\n        /* \"#utility.yul\":15799:15890   */\n      tag_400\n        /* \"#utility.yul\":15848:15889   */\n      tag_401\n        /* \"#utility.yul\":15872:15888   */\n      dup3\n        /* \"#utility.yul\":15848:15889   */\n      tag_216\n      jump\t// in\n    tag_401:\n        /* \"#utility.yul\":15840:15846   */\n      dup5\n        /* \"#utility.yul\":15833:15837   */\n      dup5\n        /* \"#utility.yul\":15827:15838   */\n      sload\n        /* \"#utility.yul\":15799:15890   */\n      tag_213\n      jump\t// in\n    tag_400:\n        /* \"#utility.yul\":15793:15797   */\n      dup3\n        /* \"#utility.yul\":15786:15891   */\n      sstore\n        /* \"#utility.yul\":15704:15897   */\n      pop\n        /* \"#utility.yul\":15628:15897   */\n      pop\n      pop\n      pop\n      jump\t// out\n        /* \"#utility.yul\":15903:15976   */\n    tag_218:\n        /* \"#utility.yul\":15948:15951   */\n      0x00\n        /* \"#utility.yul\":15969:15970   */\n      0x00\n        /* \"#utility.yul\":15962:15970   */\n      swap1\n      pop\n        /* \"#utility.yul\":15903:15976   */\n      swap1\n      jump\t// out\n        /* \"#utility.yul\":15982:16171   */\n    tag_219:\n        /* \"#utility.yul\":16059:16091   */\n      tag_404\n      tag_218\n      jump\t// in\n    tag_404:\n        /* \"#utility.yul\":16100:16165   */\n      tag_405\n        /* \"#utility.yul\":16158:16164   */\n      dup2\n        /* \"#utility.yul\":16150:16156   */\n      dup5\n        /* \"#utility.yul\":16144:16148   */\n      dup5\n        /* \"#utility.yul\":16100:16165   */\n      tag_217\n      jump\t// in\n    tag_405:\n        /* \"#utility.yul\":16035:16171   */\n      pop\n        /* \"#utility.yul\":15982:16171   */\n      pop\n      pop\n      jump\t// out\n        /* \"#utility.yul\":16177:16363   */\n    tag_220:\n        /* \"#utility.yul\":16237:16357   */\n    tag_407:\n        /* \"#utility.yul\":16254:16257   */\n      dup2\n        /* \"#utility.yul\":16247:16252   */\n      dup2\n        /* \"#utility.yul\":16244:16258   */\n      lt\n        /* \"#utility.yul\":16237:16357   */\n      iszero\n      tag_409\n      jumpi\n        /* \"#utility.yul\":16308:16347   */\n      tag_410\n        /* \"#utility.yul\":16345:16346   */\n      0x00\n        /* \"#utility.yul\":16338:16343   */\n      dup3\n        /* \"#utility.yul\":16308:16347   */\n      tag_219\n      jump\t// in\n    tag_410:\n        /* \"#utility.yul\":16281:16282   */\n      0x01\n        /* \"#utility.yul\":16274:16279   */\n      dup2\n        /* \"#utility.yul\":16270:16283   */\n      add\n        /* \"#utility.yul\":16261:16283   */\n      swap1\n      pop\n        /* \"#utility.yul\":16237:16357   */\n      jump(tag_407)\n    tag_409:\n        /* \"#utility.yul\":16177:16363   */\n      pop\n      pop\n      jump\t// out\n        /* \"#utility.yul\":16369:16912   */\n    tag_221:\n        /* \"#utility.yul\":16470:16472   */\n      0x1f\n        /* \"#utility.yul\":16465:16468   */\n      dup3\n        /* \"#utility.yul\":16462:16473   */\n      gt\n        /* \"#utility.yul\":16459:16905   */\n      iszero\n      tag_412\n      jumpi\n        /* \"#utility.yul\":16504:16542   */\n      tag_413\n        /* \"#utility.yul\":16536:16541   */\n      dup2\n        /* \"#utility.yul\":16504:16542   */\n      tag_210\n      jump\t// in\n    tag_413:\n        /* \"#utility.yul\":16588:16617   */\n      tag_414\n        /* \"#utility.yul\":16606:16616   */\n      dup5\n        /* \"#utility.yul\":16588:16617   */\n      tag_211\n      jump\t// in\n    tag_414:\n        /* \"#utility.yul\":16578:16586   */\n      dup2\n        /* \"#utility.yul\":16574:16618   */\n      add\n        /* \"#utility.yul\":16771:16773   */\n      0x20\n        /* \"#utility.yul\":16759:16769   */\n      dup6\n        /* \"#utility.yul\":16756:16774   */\n      lt\n        /* \"#utility.yul\":16753:16802   */\n      iszero\n      tag_415\n      jumpi\n        /* \"#utility.yul\":16792:16800   */\n      dup2\n        /* \"#utility.yul\":16777:16800   */\n      swap1\n      pop\n        /* \"#utility.yul\":16753:16802   */\n    tag_415:\n        /* \"#utility.yul\":16815:16895   */\n      tag_416\n        /* \"#utility.yul\":16871:16893   */\n      tag_417\n        /* \"#utility.yul\":16889:16892   */\n      dup6\n        /* \"#utility.yul\":16871:16893   */\n      tag_211\n      jump\t// in\n    tag_417:\n        /* \"#utility.yul\":16861:16869   */\n      dup4\n        /* \"#utility.yul\":16857:16894   */\n      add\n        /* \"#utility.yul\":16844:16855   */\n      dup3\n        /* \"#utility.yul\":16815:16895   */\n      tag_220\n      jump\t// in\n    tag_416:\n        /* \"#utility.yul\":16474:16905   */\n      pop\n      pop\n        /* \"#utility.yul\":16459:16905   */\n    tag_412:\n        /* \"#utility.yul\":16369:16912   */\n      pop\n      pop\n      pop\n      jump\t// out\n        /* \"#utility.yul\":16918:17035   */\n    tag_222:\n        /* \"#utility.yul\":16972:16980   */\n      0x00\n        /* \"#utility.yul\":17022:17027   */\n      dup3\n        /* \"#utility.yul\":17016:17020   */\n      dup3\n        /* \"#utility.yul\":17012:17028   */\n      shr\n        /* \"#utility.yul\":16991:17028   */\n      swap1\n      pop\n        /* \"#utility.yul\":16918:17035   */\n      swap3\n      swap2\n      pop\n      pop\n      jump\t// out\n        /* \"#utility.yul\":17041:17210   */\n    tag_223:\n        /* \"#utility.yul\":17085:17091   */\n      0x00\n        /* \"#utility.yul\":17118:17169   */\n      tag_420\n        /* \"#utility.yul\":17166:17167   */\n      0x00\n        /* \"#utility.yul\":17162:17168   */\n      not\n        /* \"#utility.yul\":17154:17159   */\n      dup5\n        /* \"#utility.yul\":17151:17152   */\n      0x08\n        /* \"#utility.yul\":17147:17160   */\n      mul\n        /* \"#utility.yul\":17118:17169   */\n      tag_222\n      jump\t// in\n    tag_420:\n        /* \"#utility.yul\":17114:17170   */\n      not\n        /* \"#utility.yul\":17199:17203   */\n      dup1\n        /* \"#utility.yul\":17193:17197   */\n      dup4\n        /* \"#utility.yul\":17189:17204   */\n      and\n        /* \"#utility.yul\":17179:17204   */\n      swap2\n      pop\n        /* \"#utility.yul\":17092:17210   */\n      pop\n        /* \"#utility.yul\":17041:17210   */\n      swap3\n      swap2\n      pop\n      pop\n      jump\t// out\n        /* \"#utility.yul\":17215:17510   */\n    tag_224:\n        /* \"#utility.yul\":17291:17295   */\n      0x00\n        /* \"#utility.yul\":17437:17466   */\n      tag_422\n        /* \"#utility.yul\":17462:17465   */\n      dup4\n        /* \"#utility.yul\":17456:17460   */\n      dup4\n        /* \"#utility.yul\":17437:17466   */\n      tag_223\n      jump\t// in\n    tag_422:\n        /* \"#utility.yul\":17429:17466   */\n      swap2\n      pop\n        /* \"#utility.yul\":17499:17502   */\n      dup3\n        /* \"#utility.yul\":17496:17497   */\n      0x02\n        /* \"#utility.yul\":17492:17503   */\n      mul\n        /* \"#utility.yul\":17486:17490   */\n      dup3\n        /* \"#utility.yul\":17483:17504   */\n      or\n        /* \"#utility.yul\":17475:17504   */\n      swap1\n      pop\n        /* \"#utility.yul\":17215:17510   */\n      swap3\n      swap2\n      pop\n      pop\n      jump\t// out\n        /* \"#utility.yul\":17515:18910   */\n    tag_144:\n        /* \"#utility.yul\":17632:17669   */\n      tag_424\n        /* \"#utility.yul\":17665:17668   */\n      dup3\n        /* \"#utility.yul\":17632:17669   */\n      tag_190\n      jump\t// in\n    tag_424:\n        /* \"#utility.yul\":17734:17752   */\n      0xffffffffffffffff\n        /* \"#utility.yul\":17726:17732   */\n      dup2\n        /* \"#utility.yul\":17723:17753   */\n      gt\n        /* \"#utility.yul\":17720:17776   */\n      iszero\n      tag_425\n      jumpi\n        /* \"#utility.yul\":17756:17774   */\n      tag_426\n      tag_183\n      jump\t// in\n    tag_426:\n        /* \"#utility.yul\":17720:17776   */\n    tag_425:\n        /* \"#utility.yul\":17800:17838   */\n      tag_427\n        /* \"#utility.yul\":17832:17836   */\n      dup3\n        /* \"#utility.yul\":17826:17837   */\n      sload\n        /* \"#utility.yul\":17800:17838   */\n      tag_87\n      jump\t// in\n    tag_427:\n        /* \"#utility.yul\":17885:17952   */\n      tag_428\n        /* \"#utility.yul\":17945:17951   */\n      dup3\n        /* \"#utility.yul\":17937:17943   */\n      dup3\n        /* \"#utility.yul\":17931:17935   */\n      dup6\n        /* \"#utility.yul\":17885:17952   */\n      tag_221\n      jump\t// in\n    tag_428:\n        /* \"#utility.yul\":17979:17980   */\n      0x00\n        /* \"#utility.yul\":18003:18007   */\n      0x20\n        /* \"#utility.yul\":17990:18007   */\n      swap1\n      pop\n        /* \"#utility.yul\":18035:18037   */\n      0x1f\n        /* \"#utility.yul\":18027:18033   */\n      dup4\n        /* \"#utility.yul\":18024:18038   */\n      gt\n        /* \"#utility.yul\":18052:18053   */\n      0x01\n        /* \"#utility.yul\":18047:18665   */\n      dup2\n      eq\n      tag_430\n      jumpi\n        /* \"#utility.yul\":18709:18710   */\n      0x00\n        /* \"#utility.yul\":18726:18732   */\n      dup5\n        /* \"#utility.yul\":18723:18800   */\n      iszero\n      tag_431\n      jumpi\n        /* \"#utility.yul\":18775:18784   */\n      dup3\n        /* \"#utility.yul\":18770:18773   */\n      dup8\n        /* \"#utility.yul\":18766:18785   */\n      add\n        /* \"#utility.yul\":18760:18786   */\n      mload\n        /* \"#utility.yul\":18751:18786   */\n      swap1\n      pop\n        /* \"#utility.yul\":18723:18800   */\n    tag_431:\n        /* \"#utility.yul\":18826:18893   */\n      tag_432\n        /* \"#utility.yul\":18886:18892   */\n      dup6\n        /* \"#utility.yul\":18879:18884   */\n      dup3\n        /* \"#utility.yul\":18826:18893   */\n      tag_224\n      jump\t// in\n    tag_432:\n        /* \"#utility.yul\":18820:18824   */\n      dup7\n        /* \"#utility.yul\":18813:18894   */\n      sstore\n        /* \"#utility.yul\":18682:18904   */\n      pop\n        /* \"#utility.yul\":18017:18904   */\n      jump(tag_429)\n        /* \"#utility.yul\":18047:18665   */\n    tag_430:\n        /* \"#utility.yul\":18099:18103   */\n      0x1f\n        /* \"#utility.yul\":18095:18104   */\n      not\n        /* \"#utility.yul\":18087:18093   */\n      dup5\n        /* \"#utility.yul\":18083:18105   */\n      and\n        /* \"#utility.yul\":18133:18170   */\n      tag_433\n        /* \"#utility.yul\":18165:18169   */\n      dup7\n        /* \"#utility.yul\":18133:18170   */\n      tag_210\n      jump\t// in\n    tag_433:\n        /* \"#utility.yul\":18192:18193   */\n      0x00\n        /* \"#utility.yul\":18206:18414   */\n    tag_434:\n        /* \"#utility.yul\":18220:18227   */\n      dup3\n        /* \"#utility.yul\":18217:18218   */\n      dup2\n        /* \"#utility.yul\":18214:18228   */\n      lt\n        /* \"#utility.yul\":18206:18414   */\n      iszero\n      tag_436\n      jumpi\n        /* \"#utility.yul\":18299:18308   */\n      dup5\n        /* \"#utility.yul\":18294:18297   */\n      dup10\n        /* \"#utility.yul\":18290:18309   */\n      add\n        /* \"#utility.yul\":18284:18310   */\n      mload\n        /* \"#utility.yul\":18276:18282   */\n      dup3\n        /* \"#utility.yul\":18269:18311   */\n      sstore\n        /* \"#utility.yul\":18350:18351   */\n      0x01\n        /* \"#utility.yul\":18342:18348   */\n      dup3\n        /* \"#utility.yul\":18338:18352   */\n      add\n        /* \"#utility.yul\":18328:18352   */\n      swap2\n      pop\n        /* \"#utility.yul\":18397:18399   */\n      0x20\n        /* \"#utility.yul\":18386:18395   */\n      dup6\n        /* \"#utility.yul\":18382:18400   */\n      add\n        /* \"#utility.yul\":18369:18400   */\n      swap5\n      pop\n        /* \"#utility.yul\":18243:18247   */\n      0x20\n        /* \"#utility.yul\":18240:18241   */\n      dup2\n        /* \"#utility.yul\":18236:18248   */\n      add\n        /* \"#utility.yul\":18231:18248   */\n      swap1\n      pop\n        /* \"#utility.yul\":18206:18414   */\n      jump(tag_434)\n    tag_436:\n        /* \"#utility.yul\":18442:18448   */\n      dup7\n        /* \"#utility.yul\":18433:18440   */\n      dup4\n        /* \"#utility.yul\":18430:18449   */\n      lt\n        /* \"#utility.yul\":18427:18606   */\n      iszero\n      tag_437\n      jumpi\n        /* \"#utility.yul\":18500:18509   */\n      dup5\n        /* \"#utility.yul\":18495:18498   */\n      dup10\n        /* \"#utility.yul\":18491:18510   */\n      add\n        /* \"#utility.yul\":18485:18511   */\n      mload\n        /* \"#utility.yul\":18543:18591   */\n      tag_438\n        /* \"#utility.yul\":18585:18589   */\n      0x1f\n        /* \"#utility.yul\":18577:18583   */\n      dup10\n        /* \"#utility.yul\":18573:18590   */\n      and\n        /* \"#utility.yul\":18562:18571   */\n      dup3\n        /* \"#utility.yul\":18543:18591   */\n      tag_223\n      jump\t// in\n    tag_438:\n        /* \"#utility.yul\":18535:18541   */\n      dup4\n        /* \"#utility.yul\":18528:18592   */\n      sstore\n        /* \"#utility.yul\":18450:18606   */\n      pop\n        /* \"#utility.yul\":18427:18606   */\n    tag_437:\n        /* \"#utility.yul\":18652:18653   */\n      0x01\n        /* \"#utility.yul\":18648:18649   */\n      0x02\n        /* \"#utility.yul\":18640:18646   */\n      dup9\n        /* \"#utility.yul\":18636:18650   */\n      mul\n        /* \"#utility.yul\":18632:18654   */\n      add\n        /* \"#utility.yul\":18626:18630   */\n      dup9\n        /* \"#utility.yul\":18619:18655   */\n      sstore\n        /* \"#utility.yul\":18054:18665   */\n      pop\n      pop\n      pop\n        /* \"#utility.yul\":18017:18904   */\n    tag_429:\n      pop\n        /* \"#utility.yul\":17607:18910   */\n      pop\n      pop\n      pop\n        /* \"#utility.yul\":17515:18910   */\n      pop\n      pop\n      jump\t// out\n\n    auxdata: 0xa2646970667358221220bbab8048156e17bb5a4ec400dc464a09c783893e348ecba1d60c469e54f80e2864736f6c634300081e0033\n}\n",
				"bytecode": {
					"linkReferences": {},
					"object": "60a060405234801561000f575f5ffd5b5060405161208d38038061208d83398181016040528101906100319190610109565b3373ffffffffffffffffffffffffffffffffffffffff1660808173ffffffffffffffffffffffffffffffffffffffff16815250508060045f6101000a81548173ffffffffffffffffffffffffffffffffffffffff021916908373ffffffffffffffffffffffffffffffffffffffff16021790555050610134565b5f5ffd5b5f73ffffffffffffffffffffffffffffffffffffffff82169050919050565b5f6100d8826100af565b9050919050565b6100e8816100ce565b81146100f2575f5ffd5b50565b5f81519050610103816100df565b92915050565b5f6020828403121561011e5761011d6100ab565b5b5f61012b848285016100f5565b91505092915050565b608051611f256101685f395f81816103f701528181610525015281816105ee015281816109df0152610e440152611f255ff3fe608060405234801561000f575f5ffd5b50600436106100fd575f3560e01c80639fa637a811610095578063d62b58ca11610064578063d62b58ca1461026c578063eb5a662e14610288578063ef398f23146102b8578063fbdc40fa146102d4576100fd565b80639fa637a8146101e3578063a5ae69b714610218578063d060650714610234578063d107a5cc14610250576100fd565b80636597d75f116100d15780636597d75f1461018557806368b377ca146101a1578063733da7c8146101bd57806386f99e5e146101d9576100fd565b80623997bd1461010157806341e90ce614610131578063459ccec71461014d57806364502cae14610169575b5f5ffd5b61011b6004803603810190610116919061160e565b610304565b60405161012891906116b5565b60405180910390f35b61014b60048036038101906101469190611762565b6103f5565b005b610167600480360381019061016291906117a0565b610523565b005b610183600480360381019061017e9190611762565b6105ec565b005b61019f600480360381019061019a919061160e565b6106c7565b005b6101bb60048036038101906101b691906117cb565b61088f565b005b6101d760048036038101906101d29190611762565b6109dd565b005b6101e1610ab8565b005b6101fd60048036038101906101f8919061160e565b610c57565b60405161020f96959493929190611871565b60405180910390f35b610232600480360381019061022d91906118d0565b610d5c565b005b61024e600480360381019061024991906118d0565b610dcf565b005b61026a60048036038101906102659190611762565b610e42565b005b61028660048036038101906102819190611946565b610f70565b005b6102a2600480360381019061029d91906117a0565b611256565b6040516102af91906119b2565b60405180910390f35b6102d260048036038101906102cd91906119cb565b61129b565b005b6102ee60048036038101906102e991906117a0565b61147b565b6040516102fb91906119b2565b60405180910390f35b60605f6003836040516103179190611abe565b90815260200160405180910390209050806007015f3373ffffffffffffffffffffffffffffffffffffffff1673ffffffffffffffffffffffffffffffffffffffff1681526020019081526020015f20805461037190611b01565b80601f016020809104026020016040519081016040528092919081815260200182805461039d90611b01565b80156103e85780601f106103bf576101008083540402835291602001916103e8565b820191905f5260205f20905b8154815290600101906020018083116103cb57829003601f168201915b5050505050915050919050565b7f000000000000000000000000000000000000000000000000000000000000000073ffffffffffffffffffffffffffffffffffffffff163373ffffffffffffffffffffffffffffffffffffffff161461047a576040517fc31b2cfe00000000000000000000000000000000000000000000000000000000815260040160405180910390fd5b805f5f8473ffffffffffffffffffffffffffffffffffffffff1673ffffffffffffffffffffffffffffffffffffffff1681526020019081526020015f205f8282546104c59190611b5e565b925050819055508060015f8473ffffffffffffffffffffffffffffffffffffffff1673ffffffffffffffffffffffffffffffffffffffff1681526020019081526020015f205f8282546105189190611b91565b925050819055505050565b7f000000000000000000000000000000000000000000000000000000000000000073ffffffffffffffffffffffffffffffffffffffff163373ffffffffffffffffffffffffffffffffffffffff16146105a8576040517fc31b2cfe00000000000000000000000000000000000000000000000000000000815260040160405180910390fd5b5f5f5f8373ffffffffffffffffffffffffffffffffffffffff1673ffffffffffffffffffffffffffffffffffffffff1681526020019081526020015f208190555050565b7f000000000000000000000000000000000000000000000000000000000000000073ffffffffffffffffffffffffffffffffffffffff163373ffffffffffffffffffffffffffffffffffffffff1614610671576040517fc31b2cfe00000000000000000000000000000000000000000000000000000000815260040160405180910390fd5b805f5f8473ffffffffffffffffffffffffffffffffffffffff1673ffffffffffffffffffffffffffffffffffffffff1681526020019081526020015f205f8282546106bc9190611b91565b925050819055505050565b5f6003826040516106d89190611abe565b908152602001604051809103902090505f816006015f3373ffffffffffffffffffffffffffffffffffffffff1673ffffffffffffffffffffffffffffffffffffffff1681526020019081526020015f205490505f826006015f3373ffffffffffffffffffffffffffffffffffffffff1673ffffffffffffffffffffffffffffffffffffffff1681526020019081526020015f20819055505f60045f9054906101000a900473ffffffffffffffffffffffffffffffffffffffff1673ffffffffffffffffffffffffffffffffffffffff1663a9059cbb33846040518363ffffffff1660e01b81526004016107cc929190611bc4565b6020604051808303815f875af11580156107e8573d5f5f3e3d5ffd5b505050506040513d601f19601f8201168201806040525081019061080c9190611c20565b9050806108895781836006015f3373ffffffffffffffffffffffffffffffffffffffff1673ffffffffffffffffffffffffffffffffffffffff1681526020019081526020015f20819055506040517f6511778900000000000000000000000000000000000000000000000000000000815260040160405180910390fd5b50505050565b5f6003846040516108a09190611abe565b908152602001604051809103902090505f60045f9054906101000a900473ffffffffffffffffffffffffffffffffffffffff1673ffffffffffffffffffffffffffffffffffffffff166323b872dd3330876040518463ffffffff1660e01b815260040161090f93929190611c4b565b6020604051808303815f875af115801561092b573d5f5f3e3d5ffd5b505050506040513d601f19601f8201168201806040525081019061094f9190611c20565b905080610988576040517f6511778900000000000000000000000000000000000000000000000000000000815260040160405180910390fd5b83826006015f3373ffffffffffffffffffffffffffffffffffffffff1673ffffffffffffffffffffffffffffffffffffffff1681526020019081526020015f20819055506109d68584610dcf565b5050505050565b7f000000000000000000000000000000000000000000000000000000000000000073ffffffffffffffffffffffffffffffffffffffff163373ffffffffffffffffffffffffffffffffffffffff1614610a62576040517fc31b2cfe00000000000000000000000000000000000000000000000000000000815260040160405180910390fd5b805f5f8473ffffffffffffffffffffffffffffffffffffffff1673ffffffffffffffffffffffffffffffffffffffff1681526020019081526020015f205f828254610aad9190611b5e565b925050819055505050565b5f60025f3373ffffffffffffffffffffffffffffffffffffffff1673ffffffffffffffffffffffffffffffffffffffff1681526020019081526020015f205490505f60025f3373ffffffffffffffffffffffffffffffffffffffff1673ffffffffffffffffffffffffffffffffffffffff1681526020019081526020015f20819055505f60045f9054906101000a900473ffffffffffffffffffffffffffffffffffffffff1673ffffffffffffffffffffffffffffffffffffffff1663a9059cbb33846040518363ffffffff1660e01b8152600401610b98929190611bc4565b6020604051808303815f875af1158015610bb4573d5f5f3e3d5ffd5b505050506040513d601f19601f82011682018060405250810190610bd89190611c20565b905080610c53578160025f3373ffffffffffffffffffffffffffffffffffffffff1673ffffffffffffffffffffffffffffffffffffffff1681526020019081526020015f20819055506040517f6511778900000000000000000000000000000000000000000000000000000000815260040160405180910390fd5b5050565b5f5f5f5f5f5f600387604051610c6d9190611abe565b90815260200160405180910390205f015f9054906101000a900473ffffffffffffffffffffffffffffffffffffffff16600388604051610cad9190611abe565b908152602001604051809103902060010154600389604051610ccf9190611abe565b90815260200160405180910390206002015460038a604051610cf19190611abe565b90815260200160405180910390206003015460038b604051610d139190611abe565b90815260200160405180910390206004015460038c604051610d359190611abe565b90815260200160405180910390206005015495509550955095509550955091939550919395565b5f600383604051610d6d9190611abe565b9081526020016040518091039020905081816008015f3373ffffffffffffffffffffffffffffffffffffffff1673ffffffffffffffffffffffffffffffffffffffff1681526020019081526020015f209081610dc99190611e20565b50505050565b5f600383604051610de09190611abe565b9081526020016040518091039020905081816007015f3373ffffffffffffffffffffffffffffffffffffffff1673ffffffffffffffffffffffffffffffffffffffff1681526020019081526020015f209081610e3c9190611e20565b50505050565b7f000000000000000000000000000000000000000000000000000000000000000073ffffffffffffffffffffffffffffffffffffffff163373ffffffffffffffffffffffffffffffffffffffff1614610ec7576040517fc31b2cfe00000000000000000000000000000000000000000000000000000000815260040160405180910390fd5b805f5f8473ffffffffffffffffffffffffffffffffffffffff1673ffffffffffffffffffffffffffffffffffffffff1681526020019081526020015f205f828254610f129190611b91565b925050819055508060015f8473ffffffffffffffffffffffffffffffffffffffff1673ffffffffffffffffffffffffffffffffffffffff1681526020019081526020015f205f828254610f659190611b5e565b925050819055505050565b5f600384604051610f819190611abe565b90815260200160405180910390206006015f3373ffffffffffffffffffffffffffffffffffffffff1673ffffffffffffffffffffffffffffffffffffffff1681526020019081526020015f205490505f600385604051610fe19190611abe565b90815260200160405180910390206006015f3373ffffffffffffffffffffffffffffffffffffffff1673ffffffffffffffffffffffffffffffffffffffff1681526020019081526020015f20819055505f6003856040516110429190611abe565b90815260200160405180910390205f015f9054906101000a900473ffffffffffffffffffffffffffffffffffffffff16905082826110809190611b5e565b60025f8373ffffffffffffffffffffffffffffffffffffffff1673ffffffffffffffffffffffffffffffffffffffff1681526020019081526020015f205f8282546110cb9190611b5e565b92505081905550835f5f8373ffffffffffffffffffffffffffffffffffffffff1673ffffffffffffffffffffffffffffffffffffffff1681526020019081526020015f205f82825461111d9190611b91565b92505081905550835f5f3373ffffffffffffffffffffffffffffffffffffffff1673ffffffffffffffffffffffffffffffffffffffff1681526020019081526020015f205f82825461116f9190611b5e565b925050819055505f60045f9054906101000a900473ffffffffffffffffffffffffffffffffffffffff1673ffffffffffffffffffffffffffffffffffffffff166323b872dd3330876040518463ffffffff1660e01b81526004016111d593929190611c4b565b6020604051808303815f875af11580156111f1573d5f5f3e3d5ffd5b505050506040513d601f19601f820116820180604052508101906112159190611c20565b90508061124e576040517f6511778900000000000000000000000000000000000000000000000000000000815260040160405180910390fd5b505050505050565b5f5f5f8373ffffffffffffffffffffffffffffffffffffffff1673ffffffffffffffffffffffffffffffffffffffff1681526020019081526020015f20549050919050565b5f851115806112e557505f5f8773ffffffffffffffffffffffffffffffffffffffff1673ffffffffffffffffffffffffffffffffffffffff1681526020019081526020015f205485115b806112f057505f8411155b806112fb57505f8311155b806113065750808210155b1561133d576040517f0ecf0f1100000000000000000000000000000000000000000000000000000000815260040160405180910390fd5b5f60038860405161134e9190611abe565b9081526020016040518091039020905086815f015f6101000a81548173ffffffffffffffffffffffffffffffffffffffff021916908373ffffffffffffffffffffffffffffffffffffffff160217905550858160010181905550848160020181905550838160030181905550828160040181905550818160050181905550855f5f3373ffffffffffffffffffffffffffffffffffffffff1673ffffffffffffffffffffffffffffffffffffffff1681526020019081526020015f205f8282546114179190611b91565b925050819055508560015f3373ffffffffffffffffffffffffffffffffffffffff1673ffffffffffffffffffffffffffffffffffffffff1681526020019081526020015f205f82825461146a9190611b5e565b925050819055505050505050505050565b5f60015f8373ffffffffffffffffffffffffffffffffffffffff1673ffffffffffffffffffffffffffffffffffffffff1681526020019081526020015f20549050919050565b5f604051905090565b5f5ffd5b5f5ffd5b5f5ffd5b5f5ffd5b5f601f19601f8301169050919050565b7f4e487b71000000000000000000000000000000000000000000000000000000005f52604160045260245ffd5b611520826114da565b810181811067ffffffffffffffff8211171561153f5761153e6114ea565b5b80604052505050565b5f6115516114c1565b905061155d8282611517565b919050565b5f67ffffffffffffffff82111561157c5761157b6114ea565b5b611585826114da565b9050602081019050919050565b828183375f83830152505050565b5f6115b26115ad84611562565b611548565b9050828152602081018484840111156115ce576115cd6114d6565b5b6115d9848285611592565b509392505050565b5f82601f8301126115f5576115f46114d2565b5b81356116058482602086016115a0565b91505092915050565b5f60208284031215611623576116226114ca565b5b5f82013567ffffffffffffffff8111156116405761163f6114ce565b5b61164c848285016115e1565b91505092915050565b5f81519050919050565b5f82825260208201905092915050565b8281835e5f83830152505050565b5f61168782611655565b611691818561165f565b93506116a181856020860161166f565b6116aa816114da565b840191505092915050565b5f6020820190508181035f8301526116cd818461167d565b905092915050565b5f73ffffffffffffffffffffffffffffffffffffffff82169050919050565b5f6116fe826116d5565b9050919050565b61170e816116f4565b8114611718575f5ffd5b50565b5f8135905061172981611705565b92915050565b5f819050919050565b6117418161172f565b811461174b575f5ffd5b50565b5f8135905061175c81611738565b92915050565b5f5f60408385031215611778576117776114ca565b5b5f6117858582860161171b565b92505060206117968582860161174e565b9150509250929050565b5f602082840312156117b5576117b46114ca565b5b5f6117c28482850161171b565b91505092915050565b5f5f5f606084860312156117e2576117e16114ca565b5b5f84013567ffffffffffffffff8111156117ff576117fe6114ce565b5b61180b868287016115e1565b935050602061181c8682870161174e565b925050604084013567ffffffffffffffff81111561183d5761183c6114ce565b5b611849868287016115e1565b9150509250925092565b61185c816116f4565b82525050565b61186b8161172f565b82525050565b5f60c0820190506118845f830189611853565b6118916020830188611862565b61189e6040830187611862565b6118ab6060830186611862565b6118b86080830185611862565b6118c560a0830184611862565b979650505050505050565b5f5f604083850312156118e6576118e56114ca565b5b5f83013567ffffffffffffffff811115611903576119026114ce565b5b61190f858286016115e1565b925050602083013567ffffffffffffffff8111156119305761192f6114ce565b5b61193c858286016115e1565b9150509250929050565b5f5f5f6060848603121561195d5761195c6114ca565b5b5f84013567ffffffffffffffff81111561197a576119796114ce565b5b611986868287016115e1565b93505060206119978682870161174e565b92505060406119a88682870161174e565b9150509250925092565b5f6020820190506119c55f830184611862565b92915050565b5f5f5f5f5f5f5f60e0888a0312156119e6576119e56114ca565b5b5f88013567ffffffffffffffff811115611a0357611a026114ce565b5b611a0f8a828b016115e1565b9750506020611a208a828b0161171b565b9650506040611a318a828b0161174e565b9550506060611a428a828b0161174e565b9450506080611a538a828b0161174e565b93505060a0611a648a828b0161174e565b92505060c0611a758a828b0161174e565b91505092959891949750929550565b5f81905092915050565b5f611a9882611655565b611aa28185611a84565b9350611ab281856020860161166f565b80840191505092915050565b5f611ac98284611a8e565b915081905092915050565b7f4e487b71000000000000000000000000000000000000000000000000000000005f52602260045260245ffd5b5f6002820490506001821680611b1857607f821691505b602082108103611b2b57611b2a611ad4565b5b50919050565b7f4e487b71000000000000000000000000000000000000000000000000000000005f52601160045260245ffd5b5f611b688261172f565b9150611b738361172f565b9250828201905080821115611b8b57611b8a611b31565b5b92915050565b5f611b9b8261172f565b9150611ba68361172f565b9250828203905081811115611bbe57611bbd611b31565b5b92915050565b5f604082019050611bd75f830185611853565b611be46020830184611862565b9392505050565b5f8115159050919050565b611bff81611beb565b8114611c09575f5ffd5b50565b5f81519050611c1a81611bf6565b92915050565b5f60208284031215611c3557611c346114ca565b5b5f611c4284828501611c0c565b91505092915050565b5f606082019050611c5e5f830186611853565b611c6b6020830185611853565b611c786040830184611862565b949350505050565b5f819050815f5260205f209050919050565b5f6020601f8301049050919050565b5f82821b905092915050565b5f60088302611cdc7fffffffffffffffffffffffffffffffffffffffffffffffffffffffffffffffff82611ca1565b611ce68683611ca1565b95508019841693508086168417925050509392505050565b5f819050919050565b5f611d21611d1c611d178461172f565b611cfe565b61172f565b9050919050565b5f819050919050565b611d3a83611d07565b611d4e611d4682611d28565b848454611cad565b825550505050565b5f5f905090565b611d65611d56565b611d70818484611d31565b505050565b5b81811015611d9357611d885f82611d5d565b600181019050611d76565b5050565b601f821115611dd857611da981611c80565b611db284611c92565b81016020851015611dc1578190505b611dd5611dcd85611c92565b830182611d75565b50505b505050565b5f82821c905092915050565b5f611df85f1984600802611ddd565b1980831691505092915050565b5f611e108383611de9565b9150826002028217905092915050565b611e2982611655565b67ffffffffffffffff811115611e4257611e416114ea565b5b611e4c8254611b01565b611e57828285611d97565b5f60209050601f831160018114611e88575f8415611e76578287015190505b611e808582611e05565b865550611ee7565b601f198416611e9686611c80565b5f5b82811015611ebd57848901518255600182019150602085019450602081019050611e98565b86831015611eda5784890151611ed6601f891682611de9565b8355505b6001600288020188555050505b50505050505056fea2646970667358221220bbab8048156e17bb5a4ec400dc464a09c783893e348ecba1d60c469e54f80e2864736f6c634300081e0033",
					"opcodes": "PUSH1 0xA0 PUSH1 0x40 MSTORE CALLVALUE DUP1 ISZERO PUSH2 0xF JUMPI PUSH0 PUSH0 REVERT JUMPDEST POP PUSH1 0x40 MLOAD PUSH2 0x208D CODESIZE SUB DUP1 PUSH2 0x208D DUP4 CODECOPY DUP2 DUP2 ADD PUSH1 0x40 MSTORE DUP2 ADD SWAP1 PUSH2 0x31 SWAP2 SWAP1 PUSH2 0x109 JUMP JUMPDEST CALLER PUSH20 0xFFFFFFFFFFFFFFFFFFFFFFFFFFFFFFFFFFFFFFFF AND PUSH1 0x80 DUP2 PUSH20 0xFFFFFFFFFFFFFFFFFFFFFFFFFFFFFFFFFFFFFFFF AND DUP2 MSTORE POP POP DUP1 PUSH1 0x4 PUSH0 PUSH2 0x100 EXP DUP2 SLOAD DUP2 PUSH20 0xFFFFFFFFFFFFFFFFFFFFFFFFFFFFFFFFFFFFFFFF MUL NOT AND SWAP1 DUP4 PUSH20 0xFFFFFFFFFFFFFFFFFFFFFFFFFFFFFFFFFFFFFFFF AND MUL OR SWAP1 SSTORE POP POP PUSH2 0x134 JUMP JUMPDEST PUSH0 PUSH0 REVERT JUMPDEST PUSH0 PUSH20 0xFFFFFFFFFFFFFFFFFFFFFFFFFFFFFFFFFFFFFFFF DUP3 AND SWAP1 POP SWAP2 SWAP1 POP JUMP JUMPDEST PUSH0 PUSH2 0xD8 DUP3 PUSH2 0xAF JUMP JUMPDEST SWAP1 POP SWAP2 SWAP1 POP JUMP JUMPDEST PUSH2 0xE8 DUP2 PUSH2 0xCE JUMP JUMPDEST DUP2 EQ PUSH2 0xF2 JUMPI PUSH0 PUSH0 REVERT JUMPDEST POP JUMP JUMPDEST PUSH0 DUP2 MLOAD SWAP1 POP PUSH2 0x103 DUP2 PUSH2 0xDF JUMP JUMPDEST SWAP3 SWAP2 POP POP JUMP JUMPDEST PUSH0 PUSH1 0x20 DUP3 DUP5 SUB SLT ISZERO PUSH2 0x11E JUMPI PUSH2 0x11D PUSH2 0xAB JUMP JUMPDEST JUMPDEST PUSH0 PUSH2 0x12B DUP5 DUP3 DUP6 ADD PUSH2 0xF5 JUMP JUMPDEST SWAP2 POP POP SWAP3 SWAP2 POP POP JUMP JUMPDEST PUSH1 0x80 MLOAD PUSH2 0x1F25 PUSH2 0x168 PUSH0 CODECOPY PUSH0 DUP2 DUP2 PUSH2 0x3F7 ADD MSTORE DUP2 DUP2 PUSH2 0x525 ADD MSTORE DUP2 DUP2 PUSH2 0x5EE ADD MSTORE DUP2 DUP2 PUSH2 0x9DF ADD MSTORE PUSH2 0xE44 ADD MSTORE PUSH2 0x1F25 PUSH0 RETURN INVALID PUSH1 0x80 PUSH1 0x40 MSTORE CALLVALUE DUP1 ISZERO PUSH2 0xF JUMPI PUSH0 PUSH0 REVERT JUMPDEST POP PUSH1 0x4 CALLDATASIZE LT PUSH2 0xFD JUMPI PUSH0 CALLDATALOAD PUSH1 0xE0 SHR DUP1 PUSH4 0x9FA637A8 GT PUSH2 0x95 JUMPI DUP1 PUSH4 0xD62B58CA GT PUSH2 0x64 JUMPI DUP1 PUSH4 0xD62B58CA EQ PUSH2 0x26C JUMPI DUP1 PUSH4 0xEB5A662E EQ PUSH2 0x288 JUMPI DUP1 PUSH4 0xEF398F23 EQ PUSH2 0x2B8 JUMPI DUP1 PUSH4 0xFBDC40FA EQ PUSH2 0x2D4 JUMPI PUSH2 0xFD JUMP JUMPDEST DUP1 PUSH4 0x9FA637A8 EQ PUSH2 0x1E3 JUMPI DUP1 PUSH4 0xA5AE69B7 EQ PUSH2 0x218 JUMPI DUP1 PUSH4 0xD0606507 EQ PUSH2 0x234 JUMPI DUP1 PUSH4 0xD107A5CC EQ PUSH2 0x250 JUMPI PUSH2 0xFD JUMP JUMPDEST DUP1 PUSH4 0x6597D75F GT PUSH2 0xD1 JUMPI DUP1 PUSH4 0x6597D75F EQ PUSH2 0x185 JUMPI DUP1 PUSH4 0x68B377CA EQ PUSH2 0x1A1 JUMPI DUP1 PUSH4 0x733DA7C8 EQ PUSH2 0x1BD JUMPI DUP1 PUSH4 0x86F99E5E EQ PUSH2 0x1D9 JUMPI PUSH2 0xFD JUMP JUMPDEST DUP1 PUSH3 0x3997BD EQ PUSH2 0x101 JUMPI DUP1 PUSH4 0x41E90CE6 EQ PUSH2 0x131 JUMPI DUP1 PUSH4 0x459CCEC7 EQ PUSH2 0x14D JUMPI DUP1 PUSH4 0x64502CAE EQ PUSH2 0x169 JUMPI JUMPDEST PUSH0 PUSH0 REVERT JUMPDEST PUSH2 0x11B PUSH1 0x4 DUP1 CALLDATASIZE SUB DUP2 ADD SWAP1 PUSH2 0x116 SWAP2 SWAP1 PUSH2 0x160E JUMP JUMPDEST PUSH2 0x304 JUMP JUMPDEST PUSH1 0x40 MLOAD PUSH2 0x128 SWAP2 SWAP1 PUSH2 0x16B5 JUMP JUMPDEST PUSH1 0x40 MLOAD DUP1 SWAP2 SUB SWAP1 RETURN JUMPDEST PUSH2 0x14B PUSH1 0x4 DUP1 CALLDATASIZE SUB DUP2 ADD SWAP1 PUSH2 0x146 SWAP2 SWAP1 PUSH2 0x1762 JUMP JUMPDEST PUSH2 0x3F5 JUMP JUMPDEST STOP JUMPDEST PUSH2 0x167 PUSH1 0x4 DUP1 CALLDATASIZE SUB DUP2 ADD SWAP1 PUSH2 0x162 SWAP2 SWAP1 PUSH2 0x17A0 JUMP JUMPDEST PUSH2 0x523 JUMP JUMPDEST STOP JUMPDEST PUSH2 0x183 PUSH1 0x4 DUP1 CALLDATASIZE SUB DUP2 ADD SWAP1 PUSH2 0x17E SWAP2 SWAP1 PUSH2 0x1762 JUMP JUMPDEST PUSH2 0x5EC JUMP JUMPDEST STOP JUMPDEST PUSH2 0x19F PUSH1 0x4 DUP1 CALLDATASIZE SUB DUP2 ADD SWAP1 PUSH2 0x19A SWAP2 SWAP1 PUSH2 0x160E JUMP JUMPDEST PUSH2 0x6C7 JUMP JUMPDEST STOP JUMPDEST PUSH2 0x1BB PUSH1 0x4 DUP1 CALLDATASIZE SUB DUP2 ADD SWAP1 PUSH2 0x1B6 SWAP2 SWAP1 PUSH2 0x17CB JUMP JUMPDEST PUSH2 0x88F JUMP JUMPDEST STOP JUMPDEST PUSH2 0x1D7 PUSH1 0x4 DUP1 CALLDATASIZE SUB DUP2 ADD SWAP1 PUSH2 0x1D2 SWAP2 SWAP1 PUSH2 0x1762 JUMP JUMPDEST PUSH2 0x9DD JUMP JUMPDEST STOP JUMPDEST PUSH2 0x1E1 PUSH2 0xAB8 JUMP JUMPDEST STOP JUMPDEST PUSH2 0x1FD PUSH1 0x4 DUP1 CALLDATASIZE SUB DUP2 ADD SWAP1 PUSH2 0x1F8 SWAP2 SWAP1 PUSH2 0x160E JUMP JUMPDEST PUSH2 0xC57 JUMP JUMPDEST PUSH1 0x40 MLOAD PUSH2 0x20F SWAP7 SWAP6 SWAP5 SWAP4 SWAP3 SWAP2 SWAP1 PUSH2 0x1871 JUMP JUMPDEST PUSH1 0x40 MLOAD DUP1 SWAP2 SUB SWAP1 RETURN JUMPDEST PUSH2 0x232 PUSH1 0x4 DUP1 CALLDATASIZE SUB DUP2 ADD SWAP1 PUSH2 0x22D SWAP2 SWAP1 PUSH2 0x18D0 JUMP JUMPDEST PUSH2 0xD5C JUMP JUMPDEST STOP JUMPDEST PUSH2 0x24E PUSH1 0x4 DUP1 CALLDATASIZE SUB DUP2 ADD SWAP1 PUSH2 0x249 SWAP2 SWAP1 PUSH2 0x18D0 JUMP JUMPDEST PUSH2 0xDCF JUMP JUMPDEST STOP JUMPDEST PUSH2 0x26A PUSH1 0x4 DUP1 CALLDATASIZE SUB DUP2 ADD SWAP1 PUSH2 0x265 SWAP2 SWAP1 PUSH2 0x1762 JUMP JUMPDEST PUSH2 0xE42 JUMP JUMPDEST STOP JUMPDEST PUSH2 0x286 PUSH1 0x4 DUP1 CALLDATASIZE SUB DUP2 ADD SWAP1 PUSH2 0x281 SWAP2 SWAP1 PUSH2 0x1946 JUMP JUMPDEST PUSH2 0xF70 JUMP JUMPDEST STOP JUMPDEST PUSH2 0x2A2 PUSH1 0x4 DUP1 CALLDATASIZE SUB DUP2 ADD SWAP1 PUSH2 0x29D SWAP2 SWAP1 PUSH2 0x17A0 JUMP JUMPDEST PUSH2 0x1256 JUMP JUMPDEST PUSH1 0x40 MLOAD PUSH2 0x2AF SWAP2 SWAP1 PUSH2 0x19B2 JUMP JUMPDEST PUSH1 0x40 MLOAD DUP1 SWAP2 SUB SWAP1 RETURN JUMPDEST PUSH2 0x2D2 PUSH1 0x4 DUP1 CALLDATASIZE SUB DUP2 ADD SWAP1 PUSH2 0x2CD SWAP2 SWAP1 PUSH2 0x19CB JUMP JUMPDEST PUSH2 0x129B JUMP JUMPDEST STOP JUMPDEST PUSH2 0x2EE PUSH1 0x4 DUP1 CALLDATASIZE SUB DUP2 ADD SWAP1 PUSH2 0x2E9 SWAP2 SWAP1 PUSH2 0x17A0 JUMP JUMPDEST PUSH2 0x147B JUMP JUMPDEST PUSH1 0x40 MLOAD PUSH2 0x2FB SWAP2 SWAP1 PUSH2 0x19B2 JUMP JUMPDEST PUSH1 0x40 MLOAD DUP1 SWAP2 SUB SWAP1 RETURN JUMPDEST PUSH1 0x60 PUSH0 PUSH1 0x3 DUP4 PUSH1 0x40 MLOAD PUSH2 0x317 SWAP2 SWAP1 PUSH2 0x1ABE JUMP JUMPDEST SWAP1 DUP2 MSTORE PUSH1 0x20 ADD PUSH1 0x40 MLOAD DUP1 SWAP2 SUB SWAP1 KECCAK256 SWAP1 POP DUP1 PUSH1 0x7 ADD PUSH0 CALLER PUSH20 0xFFFFFFFFFFFFFFFFFFFFFFFFFFFFFFFFFFFFFFFF AND PUSH20 0xFFFFFFFFFFFFFFFFFFFFFFFFFFFFFFFFFFFFFFFF AND DUP2 MSTORE PUSH1 0x20 ADD SWAP1 DUP2 MSTORE PUSH1 0x20 ADD PUSH0 KECCAK256 DUP1 SLOAD PUSH2 0x371 SWAP1 PUSH2 0x1B01 JUMP JUMPDEST DUP1 PUSH1 0x1F ADD PUSH1 0x20 DUP1 SWAP2 DIV MUL PUSH1 0x20 ADD PUSH1 0x40 MLOAD SWAP1 DUP2 ADD PUSH1 0x40 MSTORE DUP1 SWAP3 SWAP2 SWAP1 DUP2 DUP2 MSTORE PUSH1 0x20 ADD DUP3 DUP1 SLOAD PUSH2 0x39D SWAP1 PUSH2 0x1B01 JUMP JUMPDEST DUP1 ISZERO PUSH2 0x3E8 JUMPI DUP1 PUSH1 0x1F LT PUSH2 0x3BF JUMPI PUSH2 0x100 DUP1 DUP4 SLOAD DIV MUL DUP4 MSTORE SWAP2 PUSH1 0x20 ADD SWAP2 PUSH2 0x3E8 JUMP JUMPDEST DUP3 ADD SWAP2 SWAP1 PUSH0 MSTORE PUSH1 0x20 PUSH0 KECCAK256 SWAP1 JUMPDEST DUP2 SLOAD DUP2 MSTORE SWAP1 PUSH1 0x1 ADD SWAP1 PUSH1 0x20 ADD DUP1 DUP4 GT PUSH2 0x3CB JUMPI DUP3 SWAP1 SUB PUSH1 0x1F AND DUP3 ADD SWAP2 JUMPDEST POP POP POP POP POP SWAP2 POP POP SWAP2 SWAP1 POP JUMP JUMPDEST PUSH32 0x0 PUSH20 0xFFFFFFFFFFFFFFFFFFFFFFFFFFFFFFFFFFFFFFFF AND CALLER PUSH20 0xFFFFFFFFFFFFFFFFFFFFFFFFFFFFFFFFFFFFFFFF AND EQ PUSH2 0x47A JUMPI PUSH1 0x40 MLOAD PUSH32 0xC31B2CFE00000000000000000000000000000000000000000000000000000000 DUP2 MSTORE PUSH1 0x4 ADD PUSH1 0x40 MLOAD DUP1 SWAP2 SUB SWAP1 REVERT JUMPDEST DUP1 PUSH0 PUSH0 DUP5 PUSH20 0xFFFFFFFFFFFFFFFFFFFFFFFFFFFFFFFFFFFFFFFF AND PUSH20 0xFFFFFFFFFFFFFFFFFFFFFFFFFFFFFFFFFFFFFFFF AND DUP2 MSTORE PUSH1 0x20 ADD SWAP1 DUP2 MSTORE PUSH1 0x20 ADD PUSH0 KECCAK256 PUSH0 DUP3 DUP3 SLOAD PUSH2 0x4C5 SWAP2 SWAP1 PUSH2 0x1B5E JUMP JUMPDEST SWAP3 POP POP DUP2 SWAP1 SSTORE POP DUP1 PUSH1 0x1 PUSH0 DUP5 PUSH20 0xFFFFFFFFFFFFFFFFFFFFFFFFFFFFFFFFFFFFFFFF AND PUSH20 0xFFFFFFFFFFFFFFFFFFFFFFFFFFFFFFFFFFFFFFFF AND DUP2 MSTORE PUSH1 0x20 ADD SWAP1 DUP2 MSTORE PUSH1 0x20 ADD PUSH0 KECCAK256 PUSH0 DUP3 DUP3 SLOAD PUSH2 0x518 SWAP2 SWAP1 PUSH2 0x1B91 JUMP JUMPDEST SWAP3 POP POP DUP2 SWAP1 SSTORE POP POP POP JUMP JUMPDEST PUSH32 0x0 PUSH20 0xFFFFFFFFFFFFFFFFFFFFFFFFFFFFFFFFFFFFFFFF AND CALLER PUSH20 0xFFFFFFFFFFFFFFFFFFFFFFFFFFFFFFFFFFFFFFFF AND EQ PUSH2 0x5A8 JUMPI PUSH1 0x40 MLOAD PUSH32 0xC31B2CFE00000000000000000000000000000000000000000000000000000000 DUP2 MSTORE PUSH1 0x4 ADD PUSH1 0x40 MLOAD DUP1 SWAP2 SUB SWAP1 REVERT JUMPDEST PUSH0 PUSH0 PUSH0 DUP4 PUSH20 0xFFFFFFFFFFFFFFFFFFFFFFFFFFFFFFFFFFFFFFFF AND PUSH20 0xFFFFFFFFFFFFFFFFFFFFFFFFFFFFFFFFFFFFFFFF AND DUP2 MSTORE PUSH1 0x20 ADD SWAP1 DUP2 MSTORE PUSH1 0x20 ADD PUSH0 KECCAK256 DUP2 SWAP1 SSTORE POP POP JUMP JUMPDEST PUSH32 0x0 PUSH20 0xFFFFFFFFFFFFFFFFFFFFFFFFFFFFFFFFFFFFFFFF AND CALLER PUSH20 0xFFFFFFFFFFFFFFFFFFFFFFFFFFFFFFFFFFFFFFFF AND EQ PUSH2 0x671 JUMPI PUSH1 0x40 MLOAD PUSH32 0xC31B2CFE00000000000000000000000000000000000000000000000000000000 DUP2 MSTORE PUSH1 0x4 ADD PUSH1 0x40 MLOAD DUP1 SWAP2 SUB SWAP1 REVERT JUMPDEST DUP1 PUSH0 PUSH0 DUP5 PUSH20 0xFFFFFFFFFFFFFFFFFFFFFFFFFFFFFFFFFFFFFFFF AND PUSH20 0xFFFFFFFFFFFFFFFFFFFFFFFFFFFFFFFFFFFFFFFF AND DUP2 MSTORE PUSH1 0x20 ADD SWAP1 DUP2 MSTORE PUSH1 0x20 ADD PUSH0 KECCAK256 PUSH0 DUP3 DUP3 SLOAD PUSH2 0x6BC SWAP2 SWAP1 PUSH2 0x1B91 JUMP JUMPDEST SWAP3 POP POP DUP2 SWAP1 SSTORE POP POP POP JUMP JUMPDEST PUSH0 PUSH1 0x3 DUP3 PUSH1 0x40 MLOAD PUSH2 0x6D8 SWAP2 SWAP1 PUSH2 0x1ABE JUMP JUMPDEST SWAP1 DUP2 MSTORE PUSH1 0x20 ADD PUSH1 0x40 MLOAD DUP1 SWAP2 SUB SWAP1 KECCAK256 SWAP1 POP PUSH0 DUP2 PUSH1 0x6 ADD PUSH0 CALLER PUSH20 0xFFFFFFFFFFFFFFFFFFFFFFFFFFFFFFFFFFFFFFFF AND PUSH20 0xFFFFFFFFFFFFFFFFFFFFFFFFFFFFFFFFFFFFFFFF AND DUP2 MSTORE PUSH1 0x20 ADD SWAP1 DUP2 MSTORE PUSH1 0x20 ADD PUSH0 KECCAK256 SLOAD SWAP1 POP PUSH0 DUP3 PUSH1 0x6 ADD PUSH0 CALLER PUSH20 0xFFFFFFFFFFFFFFFFFFFFFFFFFFFFFFFFFFFFFFFF AND PUSH20 0xFFFFFFFFFFFFFFFFFFFFFFFFFFFFFFFFFFFFFFFF AND DUP2 MSTORE PUSH1 0x20 ADD SWAP1 DUP2 MSTORE PUSH1 0x20 ADD PUSH0 KECCAK256 DUP2 SWAP1 SSTORE POP PUSH0 PUSH1 0x4 PUSH0 SWAP1 SLOAD SWAP1 PUSH2 0x100 EXP SWAP1 DIV PUSH20 0xFFFFFFFFFFFFFFFFFFFFFFFFFFFFFFFFFFFFFFFF AND PUSH20 0xFFFFFFFFFFFFFFFFFFFFFFFFFFFFFFFFFFFFFFFF AND PUSH4 0xA9059CBB CALLER DUP5 PUSH1 0x40 MLOAD DUP4 PUSH4 0xFFFFFFFF AND PUSH1 0xE0 SHL DUP2 MSTORE PUSH1 0x4 ADD PUSH2 0x7CC SWAP3 SWAP2 SWAP1 PUSH2 0x1BC4 JUMP JUMPDEST PUSH1 0x20 PUSH1 0x40 MLOAD DUP1 DUP4 SUB DUP2 PUSH0 DUP8 GAS CALL ISZERO DUP1 ISZERO PUSH2 0x7E8 JUMPI RETURNDATASIZE PUSH0 PUSH0 RETURNDATACOPY RETURNDATASIZE PUSH0 REVERT JUMPDEST POP POP POP POP PUSH1 0x40 MLOAD RETURNDATASIZE PUSH1 0x1F NOT PUSH1 0x1F DUP3 ADD AND DUP3 ADD DUP1 PUSH1 0x40 MSTORE POP DUP2 ADD SWAP1 PUSH2 0x80C SWAP2 SWAP1 PUSH2 0x1C20 JUMP JUMPDEST SWAP1 POP DUP1 PUSH2 0x889 JUMPI DUP2 DUP4 PUSH1 0x6 ADD PUSH0 CALLER PUSH20 0xFFFFFFFFFFFFFFFFFFFFFFFFFFFFFFFFFFFFFFFF AND PUSH20 0xFFFFFFFFFFFFFFFFFFFFFFFFFFFFFFFFFFFFFFFF AND DUP2 MSTORE PUSH1 0x20 ADD SWAP1 DUP2 MSTORE PUSH1 0x20 ADD PUSH0 KECCAK256 DUP2 SWAP1 SSTORE POP PUSH1 0x40 MLOAD PUSH32 0x6511778900000000000000000000000000000000000000000000000000000000 DUP2 MSTORE PUSH1 0x4 ADD PUSH1 0x40 MLOAD DUP1 SWAP2 SUB SWAP1 REVERT JUMPDEST POP POP POP POP JUMP JUMPDEST PUSH0 PUSH1 0x3 DUP5 PUSH1 0x40 MLOAD PUSH2 0x8A0 SWAP2 SWAP1 PUSH2 0x1ABE JUMP JUMPDEST SWAP1 DUP2 MSTORE PUSH1 0x20 ADD PUSH1 0x40 MLOAD DUP1 SWAP2 SUB SWAP1 KECCAK256 SWAP1 POP PUSH0 PUSH1 0x4 PUSH0 SWAP1 SLOAD SWAP1 PUSH2 0x100 EXP SWAP1 DIV PUSH20 0xFFFFFFFFFFFFFFFFFFFFFFFFFFFFFFFFFFFFFFFF AND PUSH20 0xFFFFFFFFFFFFFFFFFFFFFFFFFFFFFFFFFFFFFFFF AND PUSH4 0x23B872DD CALLER ADDRESS DUP8 PUSH1 0x40 MLOAD DUP5 PUSH4 0xFFFFFFFF AND PUSH1 0xE0 SHL DUP2 MSTORE PUSH1 0x4 ADD PUSH2 0x90F SWAP4 SWAP3 SWAP2 SWAP1 PUSH2 0x1C4B JUMP JUMPDEST PUSH1 0x20 PUSH1 0x40 MLOAD DUP1 DUP4 SUB DUP2 PUSH0 DUP8 GAS CALL ISZERO DUP1 ISZERO PUSH2 0x92B JUMPI RETURNDATASIZE PUSH0 PUSH0 RETURNDATACOPY RETURNDATASIZE PUSH0 REVERT JUMPDEST POP POP POP POP PUSH1 0x40 MLOAD RETURNDATASIZE PUSH1 0x1F NOT PUSH1 0x1F DUP3 ADD AND DUP3 ADD DUP1 PUSH1 0x40 MSTORE POP DUP2 ADD SWAP1 PUSH2 0x94F SWAP2 SWAP1 PUSH2 0x1C20 JUMP JUMPDEST SWAP1 POP DUP1 PUSH2 0x988 JUMPI PUSH1 0x40 MLOAD PUSH32 0x6511778900000000000000000000000000000000000000000000000000000000 DUP2 MSTORE PUSH1 0x4 ADD PUSH1 0x40 MLOAD DUP1 SWAP2 SUB SWAP1 REVERT JUMPDEST DUP4 DUP3 PUSH1 0x6 ADD PUSH0 CALLER PUSH20 0xFFFFFFFFFFFFFFFFFFFFFFFFFFFFFFFFFFFFFFFF AND PUSH20 0xFFFFFFFFFFFFFFFFFFFFFFFFFFFFFFFFFFFFFFFF AND DUP2 MSTORE PUSH1 0x20 ADD SWAP1 DUP2 MSTORE PUSH1 0x20 ADD PUSH0 KECCAK256 DUP2 SWAP1 SSTORE POP PUSH2 0x9D6 DUP6 DUP5 PUSH2 0xDCF JUMP JUMPDEST POP POP POP POP POP JUMP JUMPDEST PUSH32 0x0 PUSH20 0xFFFFFFFFFFFFFFFFFFFFFFFFFFFFFFFFFFFFFFFF AND CALLER PUSH20 0xFFFFFFFFFFFFFFFFFFFFFFFFFFFFFFFFFFFFFFFF AND EQ PUSH2 0xA62 JUMPI PUSH1 0x40 MLOAD PUSH32 0xC31B2CFE00000000000000000000000000000000000000000000000000000000 DUP2 MSTORE PUSH1 0x4 ADD PUSH1 0x40 MLOAD DUP1 SWAP2 SUB SWAP1 REVERT JUMPDEST DUP1 PUSH0 PUSH0 DUP5 PUSH20 0xFFFFFFFFFFFFFFFFFFFFFFFFFFFFFFFFFFFFFFFF AND PUSH20 0xFFFFFFFFFFFFFFFFFFFFFFFFFFFFFFFFFFFFFFFF AND DUP2 MSTORE PUSH1 0x20 ADD SWAP1 DUP2 MSTORE PUSH1 0x20 ADD PUSH0 KECCAK256 PUSH0 DUP3 DUP3 SLOAD PUSH2 0xAAD SWAP2 SWAP1 PUSH2 0x1B5E JUMP JUMPDEST SWAP3 POP POP DUP2 SWAP1 SSTORE POP POP POP JUMP JUMPDEST PUSH0 PUSH1 0x2 PUSH0 CALLER PUSH20 0xFFFFFFFFFFFFFFFFFFFFFFFFFFFFFFFFFFFFFFFF AND PUSH20 0xFFFFFFFFFFFFFFFFFFFFFFFFFFFFFFFFFFFFFFFF AND DUP2 MSTORE PUSH1 0x20 ADD SWAP1 DUP2 MSTORE PUSH1 0x20 ADD PUSH0 KECCAK256 SLOAD SWAP1 POP PUSH0 PUSH1 0x2 PUSH0 CALLER PUSH20 0xFFFFFFFFFFFFFFFFFFFFFFFFFFFFFFFFFFFFFFFF AND PUSH20 0xFFFFFFFFFFFFFFFFFFFFFFFFFFFFFFFFFFFFFFFF AND DUP2 MSTORE PUSH1 0x20 ADD SWAP1 DUP2 MSTORE PUSH1 0x20 ADD PUSH0 KECCAK256 DUP2 SWAP1 SSTORE POP PUSH0 PUSH1 0x4 PUSH0 SWAP1 SLOAD SWAP1 PUSH2 0x100 EXP SWAP1 DIV PUSH20 0xFFFFFFFFFFFFFFFFFFFFFFFFFFFFFFFFFFFFFFFF AND PUSH20 0xFFFFFFFFFFFFFFFFFFFFFFFFFFFFFFFFFFFFFFFF AND PUSH4 0xA9059CBB CALLER DUP5 PUSH1 0x40 MLOAD DUP4 PUSH4 0xFFFFFFFF AND PUSH1 0xE0 SHL DUP2 MSTORE PUSH1 0x4 ADD PUSH2 0xB98 SWAP3 SWAP2 SWAP1 PUSH2 0x1BC4 JUMP JUMPDEST PUSH1 0x20 PUSH1 0x40 MLOAD DUP1 DUP4 SUB DUP2 PUSH0 DUP8 GAS CALL ISZERO DUP1 ISZERO PUSH2 0xBB4 JUMPI RETURNDATASIZE PUSH0 PUSH0 RETURNDATACOPY RETURNDATASIZE PUSH0 REVERT JUMPDEST POP POP POP POP PUSH1 0x40 MLOAD RETURNDATASIZE PUSH1 0x1F NOT PUSH1 0x1F DUP3 ADD AND DUP3 ADD DUP1 PUSH1 0x40 MSTORE POP DUP2 ADD SWAP1 PUSH2 0xBD8 SWAP2 SWAP1 PUSH2 0x1C20 JUMP JUMPDEST SWAP1 POP DUP1 PUSH2 0xC53 JUMPI DUP2 PUSH1 0x2 PUSH0 CALLER PUSH20 0xFFFFFFFFFFFFFFFFFFFFFFFFFFFFFFFFFFFFFFFF AND PUSH20 0xFFFFFFFFFFFFFFFFFFFFFFFFFFFFFFFFFFFFFFFF AND DUP2 MSTORE PUSH1 0x20 ADD SWAP1 DUP2 MSTORE PUSH1 0x20 ADD PUSH0 KECCAK256 DUP2 SWAP1 SSTORE POP PUSH1 0x40 MLOAD PUSH32 0x6511778900000000000000000000000000000000000000000000000000000000 DUP2 MSTORE PUSH1 0x4 ADD PUSH1 0x40 MLOAD DUP1 SWAP2 SUB SWAP1 REVERT JUMPDEST POP POP JUMP JUMPDEST PUSH0 PUSH0 PUSH0 PUSH0 PUSH0 PUSH0 PUSH1 0x3 DUP8 PUSH1 0x40 MLOAD PUSH2 0xC6D SWAP2 SWAP1 PUSH2 0x1ABE JUMP JUMPDEST SWAP1 DUP2 MSTORE PUSH1 0x20 ADD PUSH1 0x40 MLOAD DUP1 SWAP2 SUB SWAP1 KECCAK256 PUSH0 ADD PUSH0 SWAP1 SLOAD SWAP1 PUSH2 0x100 EXP SWAP1 DIV PUSH20 0xFFFFFFFFFFFFFFFFFFFFFFFFFFFFFFFFFFFFFFFF AND PUSH1 0x3 DUP9 PUSH1 0x40 MLOAD PUSH2 0xCAD SWAP2 SWAP1 PUSH2 0x1ABE JUMP JUMPDEST SWAP1 DUP2 MSTORE PUSH1 0x20 ADD PUSH1 0x40 MLOAD DUP1 SWAP2 SUB SWAP1 KECCAK256 PUSH1 0x1 ADD SLOAD PUSH1 0x3 DUP10 PUSH1 0x40 MLOAD PUSH2 0xCCF SWAP2 SWAP1 PUSH2 0x1ABE JUMP JUMPDEST SWAP1 DUP2 MSTORE PUSH1 0x20 ADD PUSH1 0x40 MLOAD DUP1 SWAP2 SUB SWAP1 KECCAK256 PUSH1 0x2 ADD SLOAD PUSH1 0x3 DUP11 PUSH1 0x40 MLOAD PUSH2 0xCF1 SWAP2 SWAP1 PUSH2 0x1ABE JUMP JUMPDEST SWAP1 DUP2 MSTORE PUSH1 0x20 ADD PUSH1 0x40 MLOAD DUP1 SWAP2 SUB SWAP1 KECCAK256 PUSH1 0x3 ADD SLOAD PUSH1 0x3 DUP12 PUSH1 0x40 MLOAD PUSH2 0xD13 SWAP2 SWAP1 PUSH2 0x1ABE JUMP JUMPDEST SWAP1 DUP2 MSTORE PUSH1 0x20 ADD PUSH1 0x40 MLOAD DUP1 SWAP2 SUB SWAP1 KECCAK256 PUSH1 0x4 ADD SLOAD PUSH1 0x3 DUP13 PUSH1 0x40 MLOAD PUSH2 0xD35 SWAP2 SWAP1 PUSH2 0x1ABE JUMP JUMPDEST SWAP1 DUP2 MSTORE PUSH1 0x20 ADD PUSH1 0x40 MLOAD DUP1 SWAP2 SUB SWAP1 KECCAK256 PUSH1 0x5 ADD SLOAD SWAP6 POP SWAP6 POP SWAP6 POP SWAP6 POP SWAP6 POP SWAP6 POP SWAP2 SWAP4 SWAP6 POP SWAP2 SWAP4 SWAP6 JUMP JUMPDEST PUSH0 PUSH1 0x3 DUP4 PUSH1 0x40 MLOAD PUSH2 0xD6D SWAP2 SWAP1 PUSH2 0x1ABE JUMP JUMPDEST SWAP1 DUP2 MSTORE PUSH1 0x20 ADD PUSH1 0x40 MLOAD DUP1 SWAP2 SUB SWAP1 KECCAK256 SWAP1 POP DUP2 DUP2 PUSH1 0x8 ADD PUSH0 CALLER PUSH20 0xFFFFFFFFFFFFFFFFFFFFFFFFFFFFFFFFFFFFFFFF AND PUSH20 0xFFFFFFFFFFFFFFFFFFFFFFFFFFFFFFFFFFFFFFFF AND DUP2 MSTORE PUSH1 0x20 ADD SWAP1 DUP2 MSTORE PUSH1 0x20 ADD PUSH0 KECCAK256 SWAP1 DUP2 PUSH2 0xDC9 SWAP2 SWAP1 PUSH2 0x1E20 JUMP JUMPDEST POP POP POP POP JUMP JUMPDEST PUSH0 PUSH1 0x3 DUP4 PUSH1 0x40 MLOAD PUSH2 0xDE0 SWAP2 SWAP1 PUSH2 0x1ABE JUMP JUMPDEST SWAP1 DUP2 MSTORE PUSH1 0x20 ADD PUSH1 0x40 MLOAD DUP1 SWAP2 SUB SWAP1 KECCAK256 SWAP1 POP DUP2 DUP2 PUSH1 0x7 ADD PUSH0 CALLER PUSH20 0xFFFFFFFFFFFFFFFFFFFFFFFFFFFFFFFFFFFFFFFF AND PUSH20 0xFFFFFFFFFFFFFFFFFFFFFFFFFFFFFFFFFFFFFFFF AND DUP2 MSTORE PUSH1 0x20 ADD SWAP1 DUP2 MSTORE PUSH1 0x20 ADD PUSH0 KECCAK256 SWAP1 DUP2 PUSH2 0xE3C SWAP2 SWAP1 PUSH2 0x1E20 JUMP JUMPDEST POP POP POP POP JUMP JUMPDEST PUSH32 0x0 PUSH20 0xFFFFFFFFFFFFFFFFFFFFFFFFFFFFFFFFFFFFFFFF AND CALLER PUSH20 0xFFFFFFFFFFFFFFFFFFFFFFFFFFFFFFFFFFFFFFFF AND EQ PUSH2 0xEC7 JUMPI PUSH1 0x40 MLOAD PUSH32 0xC31B2CFE00000000000000000000000000000000000000000000000000000000 DUP2 MSTORE PUSH1 0x4 ADD PUSH1 0x40 MLOAD DUP1 SWAP2 SUB SWAP1 REVERT JUMPDEST DUP1 PUSH0 PUSH0 DUP5 PUSH20 0xFFFFFFFFFFFFFFFFFFFFFFFFFFFFFFFFFFFFFFFF AND PUSH20 0xFFFFFFFFFFFFFFFFFFFFFFFFFFFFFFFFFFFFFFFF AND DUP2 MSTORE PUSH1 0x20 ADD SWAP1 DUP2 MSTORE PUSH1 0x20 ADD PUSH0 KECCAK256 PUSH0 DUP3 DUP3 SLOAD PUSH2 0xF12 SWAP2 SWAP1 PUSH2 0x1B91 JUMP JUMPDEST SWAP3 POP POP DUP2 SWAP1 SSTORE POP DUP1 PUSH1 0x1 PUSH0 DUP5 PUSH20 0xFFFFFFFFFFFFFFFFFFFFFFFFFFFFFFFFFFFFFFFF AND PUSH20 0xFFFFFFFFFFFFFFFFFFFFFFFFFFFFFFFFFFFFFFFF AND DUP2 MSTORE PUSH1 0x20 ADD SWAP1 DUP2 MSTORE PUSH1 0x20 ADD PUSH0 KECCAK256 PUSH0 DUP3 DUP3 SLOAD PUSH2 0xF65 SWAP2 SWAP1 PUSH2 0x1B5E JUMP JUMPDEST SWAP3 POP POP DUP2 SWAP1 SSTORE POP POP POP JUMP JUMPDEST PUSH0 PUSH1 0x3 DUP5 PUSH1 0x40 MLOAD PUSH2 0xF81 SWAP2 SWAP1 PUSH2 0x1ABE JUMP JUMPDEST SWAP1 DUP2 MSTORE PUSH1 0x20 ADD PUSH1 0x40 MLOAD DUP1 SWAP2 SUB SWAP1 KECCAK256 PUSH1 0x6 ADD PUSH0 CALLER PUSH20 0xFFFFFFFFFFFFFFFFFFFFFFFFFFFFFFFFFFFFFFFF AND PUSH20 0xFFFFFFFFFFFFFFFFFFFFFFFFFFFFFFFFFFFFFFFF AND DUP2 MSTORE PUSH1 0x20 ADD SWAP1 DUP2 MSTORE PUSH1 0x20 ADD PUSH0 KECCAK256 SLOAD SWAP1 POP PUSH0 PUSH1 0x3 DUP6 PUSH1 0x40 MLOAD PUSH2 0xFE1 SWAP2 SWAP1 PUSH2 0x1ABE JUMP JUMPDEST SWAP1 DUP2 MSTORE PUSH1 0x20 ADD PUSH1 0x40 MLOAD DUP1 SWAP2 SUB SWAP1 KECCAK256 PUSH1 0x6 ADD PUSH0 CALLER PUSH20 0xFFFFFFFFFFFFFFFFFFFFFFFFFFFFFFFFFFFFFFFF AND PUSH20 0xFFFFFFFFFFFFFFFFFFFFFFFFFFFFFFFFFFFFFFFF AND DUP2 MSTORE PUSH1 0x20 ADD SWAP1 DUP2 MSTORE PUSH1 0x20 ADD PUSH0 KECCAK256 DUP2 SWAP1 SSTORE POP PUSH0 PUSH1 0x3 DUP6 PUSH1 0x40 MLOAD PUSH2 0x1042 SWAP2 SWAP1 PUSH2 0x1ABE JUMP JUMPDEST SWAP1 DUP2 MSTORE PUSH1 0x20 ADD PUSH1 0x40 MLOAD DUP1 SWAP2 SUB SWAP1 KECCAK256 PUSH0 ADD PUSH0 SWAP1 SLOAD SWAP1 PUSH2 0x100 EXP SWAP1 DIV PUSH20 0xFFFFFFFFFFFFFFFFFFFFFFFFFFFFFFFFFFFFFFFF AND SWAP1 POP DUP3 DUP3 PUSH2 0x1080 SWAP2 SWAP1 PUSH2 0x1B5E JUMP JUMPDEST PUSH1 0x2 PUSH0 DUP4 PUSH20 0xFFFFFFFFFFFFFFFFFFFFFFFFFFFFFFFFFFFFFFFF AND PUSH20 0xFFFFFFFFFFFFFFFFFFFFFFFFFFFFFFFFFFFFFFFF AND DUP2 MSTORE PUSH1 0x20 ADD SWAP1 DUP2 MSTORE PUSH1 0x20 ADD PUSH0 KECCAK256 PUSH0 DUP3 DUP3 SLOAD PUSH2 0x10CB SWAP2 SWAP1 PUSH2 0x1B5E JUMP JUMPDEST SWAP3 POP POP DUP2 SWAP1 SSTORE POP DUP4 PUSH0 PUSH0 DUP4 PUSH20 0xFFFFFFFFFFFFFFFFFFFFFFFFFFFFFFFFFFFFFFFF AND PUSH20 0xFFFFFFFFFFFFFFFFFFFFFFFFFFFFFFFFFFFFFFFF AND DUP2 MSTORE PUSH1 0x20 ADD SWAP1 DUP2 MSTORE PUSH1 0x20 ADD PUSH0 KECCAK256 PUSH0 DUP3 DUP3 SLOAD PUSH2 0x111D SWAP2 SWAP1 PUSH2 0x1B91 JUMP JUMPDEST SWAP3 POP POP DUP2 SWAP1 SSTORE POP DUP4 PUSH0 PUSH0 CALLER PUSH20 0xFFFFFFFFFFFFFFFFFFFFFFFFFFFFFFFFFFFFFFFF AND PUSH20 0xFFFFFFFFFFFFFFFFFFFFFFFFFFFFFFFFFFFFFFFF AND DUP2 MSTORE PUSH1 0x20 ADD SWAP1 DUP2 MSTORE PUSH1 0x20 ADD PUSH0 KECCAK256 PUSH0 DUP3 DUP3 SLOAD PUSH2 0x116F SWAP2 SWAP1 PUSH2 0x1B5E JUMP JUMPDEST SWAP3 POP POP DUP2 SWAP1 SSTORE POP PUSH0 PUSH1 0x4 PUSH0 SWAP1 SLOAD SWAP1 PUSH2 0x100 EXP SWAP1 DIV PUSH20 0xFFFFFFFFFFFFFFFFFFFFFFFFFFFFFFFFFFFFFFFF AND PUSH20 0xFFFFFFFFFFFFFFFFFFFFFFFFFFFFFFFFFFFFFFFF AND PUSH4 0x23B872DD CALLER ADDRESS DUP8 PUSH1 0x40 MLOAD DUP5 PUSH4 0xFFFFFFFF AND PUSH1 0xE0 SHL DUP2 MSTORE PUSH1 0x4 ADD PUSH2 0x11D5 SWAP4 SWAP3 SWAP2 SWAP1 PUSH2 0x1C4B JUMP JUMPDEST PUSH1 0x20 PUSH1 0x40 MLOAD DUP1 DUP4 SUB DUP2 PUSH0 DUP8 GAS CALL ISZERO DUP1 ISZERO PUSH2 0x11F1 JUMPI RETURNDATASIZE PUSH0 PUSH0 RETURNDATACOPY RETURNDATASIZE PUSH0 REVERT JUMPDEST POP POP POP POP PUSH1 0x40 MLOAD RETURNDATASIZE PUSH1 0x1F NOT PUSH1 0x1F DUP3 ADD AND DUP3 ADD DUP1 PUSH1 0x40 MSTORE POP DUP2 ADD SWAP1 PUSH2 0x1215 SWAP2 SWAP1 PUSH2 0x1C20 JUMP JUMPDEST SWAP1 POP DUP1 PUSH2 0x124E JUMPI PUSH1 0x40 MLOAD PUSH32 0x6511778900000000000000000000000000000000000000000000000000000000 DUP2 MSTORE PUSH1 0x4 ADD PUSH1 0x40 MLOAD DUP1 SWAP2 SUB SWAP1 REVERT JUMPDEST POP POP POP POP POP POP JUMP JUMPDEST PUSH0 PUSH0 PUSH0 DUP4 PUSH20 0xFFFFFFFFFFFFFFFFFFFFFFFFFFFFFFFFFFFFFFFF AND PUSH20 0xFFFFFFFFFFFFFFFFFFFFFFFFFFFFFFFFFFFFFFFF AND DUP2 MSTORE PUSH1 0x20 ADD SWAP1 DUP2 MSTORE PUSH1 0x20 ADD PUSH0 KECCAK256 SLOAD SWAP1 POP SWAP2 SWAP1 POP JUMP JUMPDEST PUSH0 DUP6 GT ISZERO DUP1 PUSH2 0x12E5 JUMPI POP PUSH0 PUSH0 DUP8 PUSH20 0xFFFFFFFFFFFFFFFFFFFFFFFFFFFFFFFFFFFFFFFF AND PUSH20 0xFFFFFFFFFFFFFFFFFFFFFFFFFFFFFFFFFFFFFFFF AND DUP2 MSTORE PUSH1 0x20 ADD SWAP1 DUP2 MSTORE PUSH1 0x20 ADD PUSH0 KECCAK256 SLOAD DUP6 GT JUMPDEST DUP1 PUSH2 0x12F0 JUMPI POP PUSH0 DUP5 GT ISZERO JUMPDEST DUP1 PUSH2 0x12FB JUMPI POP PUSH0 DUP4 GT ISZERO JUMPDEST DUP1 PUSH2 0x1306 JUMPI POP DUP1 DUP3 LT ISZERO JUMPDEST ISZERO PUSH2 0x133D JUMPI PUSH1 0x40 MLOAD PUSH32 0xECF0F1100000000000000000000000000000000000000000000000000000000 DUP2 MSTORE PUSH1 0x4 ADD PUSH1 0x40 MLOAD DUP1 SWAP2 SUB SWAP1 REVERT JUMPDEST PUSH0 PUSH1 0x3 DUP9 PUSH1 0x40 MLOAD PUSH2 0x134E SWAP2 SWAP1 PUSH2 0x1ABE JUMP JUMPDEST SWAP1 DUP2 MSTORE PUSH1 0x20 ADD PUSH1 0x40 MLOAD DUP1 SWAP2 SUB SWAP1 KECCAK256 SWAP1 POP DUP7 DUP2 PUSH0 ADD PUSH0 PUSH2 0x100 EXP DUP2 SLOAD DUP2 PUSH20 0xFFFFFFFFFFFFFFFFFFFFFFFFFFFFFFFFFFFFFFFF MUL NOT AND SWAP1 DUP4 PUSH20 0xFFFFFFFFFFFFFFFFFFFFFFFFFFFFFFFFFFFFFFFF AND MUL OR SWAP1 SSTORE POP DUP6 DUP2 PUSH1 0x1 ADD DUP2 SWAP1 SSTORE POP DUP5 DUP2 PUSH1 0x2 ADD DUP2 SWAP1 SSTORE POP DUP4 DUP2 PUSH1 0x3 ADD DUP2 SWAP1 SSTORE POP DUP3 DUP2 PUSH1 0x4 ADD DUP2 SWAP1 SSTORE POP DUP2 DUP2 PUSH1 0x5 ADD DUP2 SWAP1 SSTORE POP DUP6 PUSH0 PUSH0 CALLER PUSH20 0xFFFFFFFFFFFFFFFFFFFFFFFFFFFFFFFFFFFFFFFF AND PUSH20 0xFFFFFFFFFFFFFFFFFFFFFFFFFFFFFFFFFFFFFFFF AND DUP2 MSTORE PUSH1 0x20 ADD SWAP1 DUP2 MSTORE PUSH1 0x20 ADD PUSH0 KECCAK256 PUSH0 DUP3 DUP3 SLOAD PUSH2 0x1417 SWAP2 SWAP1 PUSH2 0x1B91 JUMP JUMPDEST SWAP3 POP POP DUP2 SWAP1 SSTORE POP DUP6 PUSH1 0x1 PUSH0 CALLER PUSH20 0xFFFFFFFFFFFFFFFFFFFFFFFFFFFFFFFFFFFFFFFF AND PUSH20 0xFFFFFFFFFFFFFFFFFFFFFFFFFFFFFFFFFFFFFFFF AND DUP2 MSTORE PUSH1 0x20 ADD SWAP1 DUP2 MSTORE PUSH1 0x20 ADD PUSH0 KECCAK256 PUSH0 DUP3 DUP3 SLOAD PUSH2 0x146A SWAP2 SWAP1 PUSH2 0x1B5E JUMP JUMPDEST SWAP3 POP POP DUP2 SWAP1 SSTORE POP POP POP POP POP POP POP POP POP JUMP JUMPDEST PUSH0 PUSH1 0x1 PUSH0 DUP4 PUSH20 0xFFFFFFFFFFFFFFFFFFFFFFFFFFFFFFFFFFFFFFFF AND PUSH20 0xFFFFFFFFFFFFFFFFFFFFFFFFFFFFFFFFFFFFFFFF AND DUP2 MSTORE PUSH1 0x20 ADD SWAP1 DUP2 MSTORE PUSH1 0x20 ADD PUSH0 KECCAK256 SLOAD SWAP1 POP SWAP2 SWAP1 POP JUMP JUMPDEST PUSH0 PUSH1 0x40 MLOAD SWAP1 POP SWAP1 JUMP JUMPDEST PUSH0 PUSH0 REVERT JUMPDEST PUSH0 PUSH0 REVERT JUMPDEST PUSH0 PUSH0 REVERT JUMPDEST PUSH0 PUSH0 REVERT JUMPDEST PUSH0 PUSH1 0x1F NOT PUSH1 0x1F DUP4 ADD AND SWAP1 POP SWAP2 SWAP1 POP JUMP JUMPDEST PUSH32 0x4E487B7100000000000000000000000000000000000000000000000000000000 PUSH0 MSTORE PUSH1 0x41 PUSH1 0x4 MSTORE PUSH1 0x24 PUSH0 REVERT JUMPDEST PUSH2 0x1520 DUP3 PUSH2 0x14DA JUMP JUMPDEST DUP2 ADD DUP2 DUP2 LT PUSH8 0xFFFFFFFFFFFFFFFF DUP3 GT OR ISZERO PUSH2 0x153F JUMPI PUSH2 0x153E PUSH2 0x14EA JUMP JUMPDEST JUMPDEST DUP1 PUSH1 0x40 MSTORE POP POP POP JUMP JUMPDEST PUSH0 PUSH2 0x1551 PUSH2 0x14C1 JUMP JUMPDEST SWAP1 POP PUSH2 0x155D DUP3 DUP3 PUSH2 0x1517 JUMP JUMPDEST SWAP2 SWAP1 POP JUMP JUMPDEST PUSH0 PUSH8 0xFFFFFFFFFFFFFFFF DUP3 GT ISZERO PUSH2 0x157C JUMPI PUSH2 0x157B PUSH2 0x14EA JUMP JUMPDEST JUMPDEST PUSH2 0x1585 DUP3 PUSH2 0x14DA JUMP JUMPDEST SWAP1 POP PUSH1 0x20 DUP2 ADD SWAP1 POP SWAP2 SWAP1 POP JUMP JUMPDEST DUP3 DUP2 DUP4 CALLDATACOPY PUSH0 DUP4 DUP4 ADD MSTORE POP POP POP JUMP JUMPDEST PUSH0 PUSH2 0x15B2 PUSH2 0x15AD DUP5 PUSH2 0x1562 JUMP JUMPDEST PUSH2 0x1548 JUMP JUMPDEST SWAP1 POP DUP3 DUP2 MSTORE PUSH1 0x20 DUP2 ADD DUP5 DUP5 DUP5 ADD GT ISZERO PUSH2 0x15CE JUMPI PUSH2 0x15CD PUSH2 0x14D6 JUMP JUMPDEST JUMPDEST PUSH2 0x15D9 DUP5 DUP3 DUP6 PUSH2 0x1592 JUMP JUMPDEST POP SWAP4 SWAP3 POP POP POP JUMP JUMPDEST PUSH0 DUP3 PUSH1 0x1F DUP4 ADD SLT PUSH2 0x15F5 JUMPI PUSH2 0x15F4 PUSH2 0x14D2 JUMP JUMPDEST JUMPDEST DUP2 CALLDATALOAD PUSH2 0x1605 DUP5 DUP3 PUSH1 0x20 DUP7 ADD PUSH2 0x15A0 JUMP JUMPDEST SWAP2 POP POP SWAP3 SWAP2 POP POP JUMP JUMPDEST PUSH0 PUSH1 0x20 DUP3 DUP5 SUB SLT ISZERO PUSH2 0x1623 JUMPI PUSH2 0x1622 PUSH2 0x14CA JUMP JUMPDEST JUMPDEST PUSH0 DUP3 ADD CALLDATALOAD PUSH8 0xFFFFFFFFFFFFFFFF DUP2 GT ISZERO PUSH2 0x1640 JUMPI PUSH2 0x163F PUSH2 0x14CE JUMP JUMPDEST JUMPDEST PUSH2 0x164C DUP5 DUP3 DUP6 ADD PUSH2 0x15E1 JUMP JUMPDEST SWAP2 POP POP SWAP3 SWAP2 POP POP JUMP JUMPDEST PUSH0 DUP2 MLOAD SWAP1 POP SWAP2 SWAP1 POP JUMP JUMPDEST PUSH0 DUP3 DUP3 MSTORE PUSH1 0x20 DUP3 ADD SWAP1 POP SWAP3 SWAP2 POP POP JUMP JUMPDEST DUP3 DUP2 DUP4 MCOPY PUSH0 DUP4 DUP4 ADD MSTORE POP POP POP JUMP JUMPDEST PUSH0 PUSH2 0x1687 DUP3 PUSH2 0x1655 JUMP JUMPDEST PUSH2 0x1691 DUP2 DUP6 PUSH2 0x165F JUMP JUMPDEST SWAP4 POP PUSH2 0x16A1 DUP2 DUP6 PUSH1 0x20 DUP7 ADD PUSH2 0x166F JUMP JUMPDEST PUSH2 0x16AA DUP2 PUSH2 0x14DA JUMP JUMPDEST DUP5 ADD SWAP2 POP POP SWAP3 SWAP2 POP POP JUMP JUMPDEST PUSH0 PUSH1 0x20 DUP3 ADD SWAP1 POP DUP2 DUP2 SUB PUSH0 DUP4 ADD MSTORE PUSH2 0x16CD DUP2 DUP5 PUSH2 0x167D JUMP JUMPDEST SWAP1 POP SWAP3 SWAP2 POP POP JUMP JUMPDEST PUSH0 PUSH20 0xFFFFFFFFFFFFFFFFFFFFFFFFFFFFFFFFFFFFFFFF DUP3 AND SWAP1 POP SWAP2 SWAP1 POP JUMP JUMPDEST PUSH0 PUSH2 0x16FE DUP3 PUSH2 0x16D5 JUMP JUMPDEST SWAP1 POP SWAP2 SWAP1 POP JUMP JUMPDEST PUSH2 0x170E DUP2 PUSH2 0x16F4 JUMP JUMPDEST DUP2 EQ PUSH2 0x1718 JUMPI PUSH0 PUSH0 REVERT JUMPDEST POP JUMP JUMPDEST PUSH0 DUP2 CALLDATALOAD SWAP1 POP PUSH2 0x1729 DUP2 PUSH2 0x1705 JUMP JUMPDEST SWAP3 SWAP2 POP POP JUMP JUMPDEST PUSH0 DUP2 SWAP1 POP SWAP2 SWAP1 POP JUMP JUMPDEST PUSH2 0x1741 DUP2 PUSH2 0x172F JUMP JUMPDEST DUP2 EQ PUSH2 0x174B JUMPI PUSH0 PUSH0 REVERT JUMPDEST POP JUMP JUMPDEST PUSH0 DUP2 CALLDATALOAD SWAP1 POP PUSH2 0x175C DUP2 PUSH2 0x1738 JUMP JUMPDEST SWAP3 SWAP2 POP POP JUMP JUMPDEST PUSH0 PUSH0 PUSH1 0x40 DUP4 DUP6 SUB SLT ISZERO PUSH2 0x1778 JUMPI PUSH2 0x1777 PUSH2 0x14CA JUMP JUMPDEST JUMPDEST PUSH0 PUSH2 0x1785 DUP6 DUP3 DUP7 ADD PUSH2 0x171B JUMP JUMPDEST SWAP3 POP POP PUSH1 0x20 PUSH2 0x1796 DUP6 DUP3 DUP7 ADD PUSH2 0x174E JUMP JUMPDEST SWAP2 POP POP SWAP3 POP SWAP3 SWAP1 POP JUMP JUMPDEST PUSH0 PUSH1 0x20 DUP3 DUP5 SUB SLT ISZERO PUSH2 0x17B5 JUMPI PUSH2 0x17B4 PUSH2 0x14CA JUMP JUMPDEST JUMPDEST PUSH0 PUSH2 0x17C2 DUP5 DUP3 DUP6 ADD PUSH2 0x171B JUMP JUMPDEST SWAP2 POP POP SWAP3 SWAP2 POP POP JUMP JUMPDEST PUSH0 PUSH0 PUSH0 PUSH1 0x60 DUP5 DUP7 SUB SLT ISZERO PUSH2 0x17E2 JUMPI PUSH2 0x17E1 PUSH2 0x14CA JUMP JUMPDEST JUMPDEST PUSH0 DUP5 ADD CALLDATALOAD PUSH8 0xFFFFFFFFFFFFFFFF DUP2 GT ISZERO PUSH2 0x17FF JUMPI PUSH2 0x17FE PUSH2 0x14CE JUMP JUMPDEST JUMPDEST PUSH2 0x180B DUP7 DUP3 DUP8 ADD PUSH2 0x15E1 JUMP JUMPDEST SWAP4 POP POP PUSH1 0x20 PUSH2 0x181C DUP7 DUP3 DUP8 ADD PUSH2 0x174E JUMP JUMPDEST SWAP3 POP POP PUSH1 0x40 DUP5 ADD CALLDATALOAD PUSH8 0xFFFFFFFFFFFFFFFF DUP2 GT ISZERO PUSH2 0x183D JUMPI PUSH2 0x183C PUSH2 0x14CE JUMP JUMPDEST JUMPDEST PUSH2 0x1849 DUP7 DUP3 DUP8 ADD PUSH2 0x15E1 JUMP JUMPDEST SWAP2 POP POP SWAP3 POP SWAP3 POP SWAP3 JUMP JUMPDEST PUSH2 0x185C DUP2 PUSH2 0x16F4 JUMP JUMPDEST DUP3 MSTORE POP POP JUMP JUMPDEST PUSH2 0x186B DUP2 PUSH2 0x172F JUMP JUMPDEST DUP3 MSTORE POP POP JUMP JUMPDEST PUSH0 PUSH1 0xC0 DUP3 ADD SWAP1 POP PUSH2 0x1884 PUSH0 DUP4 ADD DUP10 PUSH2 0x1853 JUMP JUMPDEST PUSH2 0x1891 PUSH1 0x20 DUP4 ADD DUP9 PUSH2 0x1862 JUMP JUMPDEST PUSH2 0x189E PUSH1 0x40 DUP4 ADD DUP8 PUSH2 0x1862 JUMP JUMPDEST PUSH2 0x18AB PUSH1 0x60 DUP4 ADD DUP7 PUSH2 0x1862 JUMP JUMPDEST PUSH2 0x18B8 PUSH1 0x80 DUP4 ADD DUP6 PUSH2 0x1862 JUMP JUMPDEST PUSH2 0x18C5 PUSH1 0xA0 DUP4 ADD DUP5 PUSH2 0x1862 JUMP JUMPDEST SWAP8 SWAP7 POP POP POP POP POP POP POP JUMP JUMPDEST PUSH0 PUSH0 PUSH1 0x40 DUP4 DUP6 SUB SLT ISZERO PUSH2 0x18E6 JUMPI PUSH2 0x18E5 PUSH2 0x14CA JUMP JUMPDEST JUMPDEST PUSH0 DUP4 ADD CALLDATALOAD PUSH8 0xFFFFFFFFFFFFFFFF DUP2 GT ISZERO PUSH2 0x1903 JUMPI PUSH2 0x1902 PUSH2 0x14CE JUMP JUMPDEST JUMPDEST PUSH2 0x190F DUP6 DUP3 DUP7 ADD PUSH2 0x15E1 JUMP JUMPDEST SWAP3 POP POP PUSH1 0x20 DUP4 ADD CALLDATALOAD PUSH8 0xFFFFFFFFFFFFFFFF DUP2 GT ISZERO PUSH2 0x1930 JUMPI PUSH2 0x192F PUSH2 0x14CE JUMP JUMPDEST JUMPDEST PUSH2 0x193C DUP6 DUP3 DUP7 ADD PUSH2 0x15E1 JUMP JUMPDEST SWAP2 POP POP SWAP3 POP SWAP3 SWAP1 POP JUMP JUMPDEST PUSH0 PUSH0 PUSH0 PUSH1 0x60 DUP5 DUP7 SUB SLT ISZERO PUSH2 0x195D JUMPI PUSH2 0x195C PUSH2 0x14CA JUMP JUMPDEST JUMPDEST PUSH0 DUP5 ADD CALLDATALOAD PUSH8 0xFFFFFFFFFFFFFFFF DUP2 GT ISZERO PUSH2 0x197A JUMPI PUSH2 0x1979 PUSH2 0x14CE JUMP JUMPDEST JUMPDEST PUSH2 0x1986 DUP7 DUP3 DUP8 ADD PUSH2 0x15E1 JUMP JUMPDEST SWAP4 POP POP PUSH1 0x20 PUSH2 0x1997 DUP7 DUP3 DUP8 ADD PUSH2 0x174E JUMP JUMPDEST SWAP3 POP POP PUSH1 0x40 PUSH2 0x19A8 DUP7 DUP3 DUP8 ADD PUSH2 0x174E JUMP JUMPDEST SWAP2 POP POP SWAP3 POP SWAP3 POP SWAP3 JUMP JUMPDEST PUSH0 PUSH1 0x20 DUP3 ADD SWAP1 POP PUSH2 0x19C5 PUSH0 DUP4 ADD DUP5 PUSH2 0x1862 JUMP JUMPDEST SWAP3 SWAP2 POP POP JUMP JUMPDEST PUSH0 PUSH0 PUSH0 PUSH0 PUSH0 PUSH0 PUSH0 PUSH1 0xE0 DUP9 DUP11 SUB SLT ISZERO PUSH2 0x19E6 JUMPI PUSH2 0x19E5 PUSH2 0x14CA JUMP JUMPDEST JUMPDEST PUSH0 DUP9 ADD CALLDATALOAD PUSH8 0xFFFFFFFFFFFFFFFF DUP2 GT ISZERO PUSH2 0x1A03 JUMPI PUSH2 0x1A02 PUSH2 0x14CE JUMP JUMPDEST JUMPDEST PUSH2 0x1A0F DUP11 DUP3 DUP12 ADD PUSH2 0x15E1 JUMP JUMPDEST SWAP8 POP POP PUSH1 0x20 PUSH2 0x1A20 DUP11 DUP3 DUP12 ADD PUSH2 0x171B JUMP JUMPDEST SWAP7 POP POP PUSH1 0x40 PUSH2 0x1A31 DUP11 DUP3 DUP12 ADD PUSH2 0x174E JUMP JUMPDEST SWAP6 POP POP PUSH1 0x60 PUSH2 0x1A42 DUP11 DUP3 DUP12 ADD PUSH2 0x174E JUMP JUMPDEST SWAP5 POP POP PUSH1 0x80 PUSH2 0x1A53 DUP11 DUP3 DUP12 ADD PUSH2 0x174E JUMP JUMPDEST SWAP4 POP POP PUSH1 0xA0 PUSH2 0x1A64 DUP11 DUP3 DUP12 ADD PUSH2 0x174E JUMP JUMPDEST SWAP3 POP POP PUSH1 0xC0 PUSH2 0x1A75 DUP11 DUP3 DUP12 ADD PUSH2 0x174E JUMP JUMPDEST SWAP2 POP POP SWAP3 SWAP6 SWAP9 SWAP2 SWAP5 SWAP8 POP SWAP3 SWAP6 POP JUMP JUMPDEST PUSH0 DUP2 SWAP1 POP SWAP3 SWAP2 POP POP JUMP JUMPDEST PUSH0 PUSH2 0x1A98 DUP3 PUSH2 0x1655 JUMP JUMPDEST PUSH2 0x1AA2 DUP2 DUP6 PUSH2 0x1A84 JUMP JUMPDEST SWAP4 POP PUSH2 0x1AB2 DUP2 DUP6 PUSH1 0x20 DUP7 ADD PUSH2 0x166F JUMP JUMPDEST DUP1 DUP5 ADD SWAP2 POP POP SWAP3 SWAP2 POP POP JUMP JUMPDEST PUSH0 PUSH2 0x1AC9 DUP3 DUP5 PUSH2 0x1A8E JUMP JUMPDEST SWAP2 POP DUP2 SWAP1 POP SWAP3 SWAP2 POP POP JUMP JUMPDEST PUSH32 0x4E487B7100000000000000000000000000000000000000000000000000000000 PUSH0 MSTORE PUSH1 0x22 PUSH1 0x4 MSTORE PUSH1 0x24 PUSH0 REVERT JUMPDEST PUSH0 PUSH1 0x2 DUP3 DIV SWAP1 POP PUSH1 0x1 DUP3 AND DUP1 PUSH2 0x1B18 JUMPI PUSH1 0x7F DUP3 AND SWAP2 POP JUMPDEST PUSH1 0x20 DUP3 LT DUP2 SUB PUSH2 0x1B2B JUMPI PUSH2 0x1B2A PUSH2 0x1AD4 JUMP JUMPDEST JUMPDEST POP SWAP2 SWAP1 POP JUMP JUMPDEST PUSH32 0x4E487B7100000000000000000000000000000000000000000000000000000000 PUSH0 MSTORE PUSH1 0x11 PUSH1 0x4 MSTORE PUSH1 0x24 PUSH0 REVERT JUMPDEST PUSH0 PUSH2 0x1B68 DUP3 PUSH2 0x172F JUMP JUMPDEST SWAP2 POP PUSH2 0x1B73 DUP4 PUSH2 0x172F JUMP JUMPDEST SWAP3 POP DUP3 DUP3 ADD SWAP1 POP DUP1 DUP3 GT ISZERO PUSH2 0x1B8B JUMPI PUSH2 0x1B8A PUSH2 0x1B31 JUMP JUMPDEST JUMPDEST SWAP3 SWAP2 POP POP JUMP JUMPDEST PUSH0 PUSH2 0x1B9B DUP3 PUSH2 0x172F JUMP JUMPDEST SWAP2 POP PUSH2 0x1BA6 DUP4 PUSH2 0x172F JUMP JUMPDEST SWAP3 POP DUP3 DUP3 SUB SWAP1 POP DUP2 DUP2 GT ISZERO PUSH2 0x1BBE JUMPI PUSH2 0x1BBD PUSH2 0x1B31 JUMP JUMPDEST JUMPDEST SWAP3 SWAP2 POP POP JUMP JUMPDEST PUSH0 PUSH1 0x40 DUP3 ADD SWAP1 POP PUSH2 0x1BD7 PUSH0 DUP4 ADD DUP6 PUSH2 0x1853 JUMP JUMPDEST PUSH2 0x1BE4 PUSH1 0x20 DUP4 ADD DUP5 PUSH2 0x1862 JUMP JUMPDEST SWAP4 SWAP3 POP POP POP JUMP JUMPDEST PUSH0 DUP2 ISZERO ISZERO SWAP1 POP SWAP2 SWAP1 POP JUMP JUMPDEST PUSH2 0x1BFF DUP2 PUSH2 0x1BEB JUMP JUMPDEST DUP2 EQ PUSH2 0x1C09 JUMPI PUSH0 PUSH0 REVERT JUMPDEST POP JUMP JUMPDEST PUSH0 DUP2 MLOAD SWAP1 POP PUSH2 0x1C1A DUP2 PUSH2 0x1BF6 JUMP JUMPDEST SWAP3 SWAP2 POP POP JUMP JUMPDEST PUSH0 PUSH1 0x20 DUP3 DUP5 SUB SLT ISZERO PUSH2 0x1C35 JUMPI PUSH2 0x1C34 PUSH2 0x14CA JUMP JUMPDEST JUMPDEST PUSH0 PUSH2 0x1C42 DUP5 DUP3 DUP6 ADD PUSH2 0x1C0C JUMP JUMPDEST SWAP2 POP POP SWAP3 SWAP2 POP POP JUMP JUMPDEST PUSH0 PUSH1 0x60 DUP3 ADD SWAP1 POP PUSH2 0x1C5E PUSH0 DUP4 ADD DUP7 PUSH2 0x1853 JUMP JUMPDEST PUSH2 0x1C6B PUSH1 0x20 DUP4 ADD DUP6 PUSH2 0x1853 JUMP JUMPDEST PUSH2 0x1C78 PUSH1 0x40 DUP4 ADD DUP5 PUSH2 0x1862 JUMP JUMPDEST SWAP5 SWAP4 POP POP POP POP JUMP JUMPDEST PUSH0 DUP2 SWAP1 POP DUP2 PUSH0 MSTORE PUSH1 0x20 PUSH0 KECCAK256 SWAP1 POP SWAP2 SWAP1 POP JUMP JUMPDEST PUSH0 PUSH1 0x20 PUSH1 0x1F DUP4 ADD DIV SWAP1 POP SWAP2 SWAP1 POP JUMP JUMPDEST PUSH0 DUP3 DUP3 SHL SWAP1 POP SWAP3 SWAP2 POP POP JUMP JUMPDEST PUSH0 PUSH1 0x8 DUP4 MUL PUSH2 0x1CDC PUSH32 0xFFFFFFFFFFFFFFFFFFFFFFFFFFFFFFFFFFFFFFFFFFFFFFFFFFFFFFFFFFFFFFFF DUP3 PUSH2 0x1CA1 JUMP JUMPDEST PUSH2 0x1CE6 DUP7 DUP4 PUSH2 0x1CA1 JUMP JUMPDEST SWAP6 POP DUP1 NOT DUP5 AND SWAP4 POP DUP1 DUP7 AND DUP5 OR SWAP3 POP POP POP SWAP4 SWAP3 POP POP POP JUMP JUMPDEST PUSH0 DUP2 SWAP1 POP SWAP2 SWAP1 POP JUMP JUMPDEST PUSH0 PUSH2 0x1D21 PUSH2 0x1D1C PUSH2 0x1D17 DUP5 PUSH2 0x172F JUMP JUMPDEST PUSH2 0x1CFE JUMP JUMPDEST PUSH2 0x172F JUMP JUMPDEST SWAP1 POP SWAP2 SWAP1 POP JUMP JUMPDEST PUSH0 DUP2 SWAP1 POP SWAP2 SWAP1 POP JUMP JUMPDEST PUSH2 0x1D3A DUP4 PUSH2 0x1D07 JUMP JUMPDEST PUSH2 0x1D4E PUSH2 0x1D46 DUP3 PUSH2 0x1D28 JUMP JUMPDEST DUP5 DUP5 SLOAD PUSH2 0x1CAD JUMP JUMPDEST DUP3 SSTORE POP POP POP POP JUMP JUMPDEST PUSH0 PUSH0 SWAP1 POP SWAP1 JUMP JUMPDEST PUSH2 0x1D65 PUSH2 0x1D56 JUMP JUMPDEST PUSH2 0x1D70 DUP2 DUP5 DUP5 PUSH2 0x1D31 JUMP JUMPDEST POP POP POP JUMP JUMPDEST JUMPDEST DUP2 DUP2 LT ISZERO PUSH2 0x1D93 JUMPI PUSH2 0x1D88 PUSH0 DUP3 PUSH2 0x1D5D JUMP JUMPDEST PUSH1 0x1 DUP2 ADD SWAP1 POP PUSH2 0x1D76 JUMP JUMPDEST POP POP JUMP JUMPDEST PUSH1 0x1F DUP3 GT ISZERO PUSH2 0x1DD8 JUMPI PUSH2 0x1DA9 DUP2 PUSH2 0x1C80 JUMP JUMPDEST PUSH2 0x1DB2 DUP5 PUSH2 0x1C92 JUMP JUMPDEST DUP2 ADD PUSH1 0x20 DUP6 LT ISZERO PUSH2 0x1DC1 JUMPI DUP2 SWAP1 POP JUMPDEST PUSH2 0x1DD5 PUSH2 0x1DCD DUP6 PUSH2 0x1C92 JUMP JUMPDEST DUP4 ADD DUP3 PUSH2 0x1D75 JUMP JUMPDEST POP POP JUMPDEST POP POP POP JUMP JUMPDEST PUSH0 DUP3 DUP3 SHR SWAP1 POP SWAP3 SWAP2 POP POP JUMP JUMPDEST PUSH0 PUSH2 0x1DF8 PUSH0 NOT DUP5 PUSH1 0x8 MUL PUSH2 0x1DDD JUMP JUMPDEST NOT DUP1 DUP4 AND SWAP2 POP POP SWAP3 SWAP2 POP POP JUMP JUMPDEST PUSH0 PUSH2 0x1E10 DUP4 DUP4 PUSH2 0x1DE9 JUMP JUMPDEST SWAP2 POP DUP3 PUSH1 0x2 MUL DUP3 OR SWAP1 POP SWAP3 SWAP2 POP POP JUMP JUMPDEST PUSH2 0x1E29 DUP3 PUSH2 0x1655 JUMP JUMPDEST PUSH8 0xFFFFFFFFFFFFFFFF DUP2 GT ISZERO PUSH2 0x1E42 JUMPI PUSH2 0x1E41 PUSH2 0x14EA JUMP JUMPDEST JUMPDEST PUSH2 0x1E4C DUP3 SLOAD PUSH2 0x1B01 JUMP JUMPDEST PUSH2 0x1E57 DUP3 DUP3 DUP6 PUSH2 0x1D97 JUMP JUMPDEST PUSH0 PUSH1 0x20 SWAP1 POP PUSH1 0x1F DUP4 GT PUSH1 0x1 DUP2 EQ PUSH2 0x1E88 JUMPI PUSH0 DUP5 ISZERO PUSH2 0x1E76 JUMPI DUP3 DUP8 ADD MLOAD SWAP1 POP JUMPDEST PUSH2 0x1E80 DUP6 DUP3 PUSH2 0x1E05 JUMP JUMPDEST DUP7 SSTORE POP PUSH2 0x1EE7 JUMP JUMPDEST PUSH1 0x1F NOT DUP5 AND PUSH2 0x1E96 DUP7 PUSH2 0x1C80 JUMP JUMPDEST PUSH0 JUMPDEST DUP3 DUP2 LT ISZERO PUSH2 0x1EBD JUMPI DUP5 DUP10 ADD MLOAD DUP3 SSTORE PUSH1 0x1 DUP3 ADD SWAP2 POP PUSH1 0x20 DUP6 ADD SWAP5 POP PUSH1 0x20 DUP2 ADD SWAP1 POP PUSH2 0x1E98 JUMP JUMPDEST DUP7 DUP4 LT ISZERO PUSH2 0x1EDA JUMPI DUP5 DUP10 ADD MLOAD PUSH2 0x1ED6 PUSH1 0x1F DUP10 AND DUP3 PUSH2 0x1DE9 JUMP JUMPDEST DUP4 SSTORE POP JUMPDEST PUSH1 0x1 PUSH1 0x2 DUP9 MUL ADD DUP9 SSTORE POP POP POP JUMPDEST POP POP POP POP POP POP JUMP INVALID LOG2 PUSH5 0x6970667358 0x22 SLT KECCAK256 0xBB 0xAB DUP1 BASEFEE ISZERO PUSH15 0x17BB5A4EC400DC464A09C783893E34 DUP15 0xCB LOG1 0xD6 0xC CHAINID SWAP15 SLOAD EXTCALL 0xE 0x28 PUSH5 0x736F6C6343 STOP ADDMOD 0x1E STOP CALLER "
				},
				"gasEstimates": {
					"creation": {
						"codeDepositCost": "1594600",
						"executionCost": "infinite",
						"totalCost": "infinite"
					},
					"external": {
						"createTrade(string,address,uint256,uint256,uint256,uint256,uint256)": "infinite",
						"deposit(string,uint256,string)": "infinite",
						"destroyAllAllowance(address)": "infinite",
						"destroyAllowance(address,uint256)": "infinite",
						"finalizeAuctionAndTransferCarbon(string,uint256,uint256)": "infinite",
						"freezeAllowance(address,uint256)": "infinite",
						"getAllowance(address)": "2872",
						"getBidInfo(string)": "infinite",
						"getFreezedAllowance(address)": "2917",
						"getTrade(string)": "infinite",
						"issueAllowance(address,uint256)": "infinite",
						"refound(string)": "infinite",
						"setBidInfo(string,string)": "infinite",
						"setBidKey(string,string)": "infinite",
						"unfreezeAllowance(address,uint256)": "infinite",
						"withdrawAuctionAmount()": "infinite"
					}
				},
				"methodIdentifiers": {
					"createTrade(string,address,uint256,uint256,uint256,uint256,uint256)": "ef398f23",
					"deposit(string,uint256,string)": "68b377ca",
					"destroyAllAllowance(address)": "459ccec7",
					"destroyAllowance(address,uint256)": "64502cae",
					"finalizeAuctionAndTransferCarbon(string,uint256,uint256)": "d62b58ca",
					"freezeAllowance(address,uint256)": "d107a5cc",
					"getAllowance(address)": "eb5a662e",
					"getBidInfo(string)": "003997bd",
					"getFreezedAllowance(address)": "fbdc40fa",
					"getTrade(string)": "9fa637a8",
					"issueAllowance(address,uint256)": "733da7c8",
					"refound(string)": "6597d75f",
					"setBidInfo(string,string)": "d0606507",
					"setBidKey(string,string)": "a5ae69b7",
					"unfreezeAllowance(address,uint256)": "41e90ce6",
					"withdrawAuctionAmount()": "86f99e5e"
				}
			},
			"storageLayout": {
				"storage": [
					{
						"astId": 119,
						"contract": "CarbonTrader.sol:CarbonTrader",
						"label": "userToAllowance",
						"offset": 0,
						"slot": "0",
						"type": "t_mapping(t_address,t_uint256)"
					},
					{
						"astId": 123,
						"contract": "CarbonTrader.sol:CarbonTrader",
						"label": "userToFreezedAllowance",
						"offset": 0,
						"slot": "1",
						"type": "t_mapping(t_address,t_uint256)"
					},
					{
						"astId": 127,
						"contract": "CarbonTrader.sol:CarbonTrader",
						"label": "auctionAmount",
						"offset": 0,
						"slot": "2",
						"type": "t_mapping(t_address,t_uint256)"
					},
					{
						"astId": 132,
						"contract": "CarbonTrader.sol:CarbonTrader",
						"label": "idToTrade",
						"offset": 0,
						"slot": "3",
						"type": "t_mapping(t_string_memory_ptr,t_struct(trade)115_storage)"
					},
					{
						"astId": 137,
						"contract": "CarbonTrader.sol:CarbonTrader",
						"label": "token",
						"offset": 0,
						"slot": "4",
						"type": "t_contract(IERC20)81"
					}
				],
				"types": {
					"t_address": {
						"encoding": "inplace",
						"label": "address",
						"numberOfBytes": "20"
					},
					"t_contract(IERC20)81": {
						"encoding": "inplace",
						"label": "contract IERC20",
						"numberOfBytes": "20"
					},
					"t_mapping(t_address,t_string_storage)": {
						"encoding": "mapping",
						"key": "t_address",
						"label": "mapping(address => string)",
						"numberOfBytes": "32",
						"value": "t_string_storage"
					},
					"t_mapping(t_address,t_uint256)": {
						"encoding": "mapping",
						"key": "t_address",
						"label": "mapping(address => uint256)",
						"numberOfBytes": "32",
						"value": "t_uint256"
					},
					"t_mapping(t_string_memory_ptr,t_struct(trade)115_storage)": {
						"encoding": "mapping",
						"key": "t_string_memory_ptr",
						"label": "mapping(string => struct CarbonTrader.trade)",
						"numberOfBytes": "32",
						"value": "t_struct(trade)115_storage"
					},
					"t_string_memory_ptr": {
						"encoding": "bytes",
						"label": "string",
						"numberOfBytes": "32"
					},
					"t_string_storage": {
						"encoding": "bytes",
						"label": "string",
						"numberOfBytes": "32"
					},
					"t_struct(trade)115_storage": {
						"encoding": "inplace",
						"label": "struct CarbonTrader.trade",
						"members": [
							{
								"astId": 92,
								"contract": "CarbonTrader.sol:CarbonTrader",
								"label": "seller",
								"offset": 0,
								"slot": "0",
								"type": "t_address"
							},
							{
								"astId": 94,
								"contract": "CarbonTrader.sol:CarbonTrader",
								"label": "amount",
								"offset": 0,
								"slot": "1",
								"type": "t_uint256"
							},
							{
								"astId": 96,
								"contract": "CarbonTrader.sol:CarbonTrader",
								"label": "startamount",
								"offset": 0,
								"slot": "2",
								"type": "t_uint256"
							},
							{
								"astId": 98,
								"contract": "CarbonTrader.sol:CarbonTrader",
								"label": "priceOfUnit",
								"offset": 0,
								"slot": "3",
								"type": "t_uint256"
							},
							{
								"astId": 100,
								"contract": "CarbonTrader.sol:CarbonTrader",
								"label": "startTime",
								"offset": 0,
								"slot": "4",
								"type": "t_uint256"
							},
							{
								"astId": 102,
								"contract": "CarbonTrader.sol:CarbonTrader",
								"label": "endTime",
								"offset": 0,
								"slot": "5",
								"type": "t_uint256"
							},
							{
								"astId": 106,
								"contract": "CarbonTrader.sol:CarbonTrader",
								"label": "deposit",
								"offset": 0,
								"slot": "6",
								"type": "t_mapping(t_address,t_uint256)"
							},
							{
								"astId": 110,
								"contract": "CarbonTrader.sol:CarbonTrader",
								"label": "cryptedInfo",
								"offset": 0,
								"slot": "7",
								"type": "t_mapping(t_address,t_string_storage)"
							},
							{
								"astId": 114,
								"contract": "CarbonTrader.sol:CarbonTrader",
								"label": "decrypteKey",
								"offset": 0,
								"slot": "8",
								"type": "t_mapping(t_address,t_string_storage)"
							}
						],
						"numberOfBytes": "288"
					},
					"t_uint256": {
						"encoding": "inplace",
						"label": "uint256",
						"numberOfBytes": "32"
					}
				}
			},
			"userdoc": {
				"kind": "user",
				"methods": {},
				"version": 1
			}
		}
	}
}